{
	"contracts/Doc_Signing_M.sol": {
		"MerkleDocumentSigning": {
			"abi": [
				{
					"inputs": [
						{
							"internalType": "bytes32",
							"name": "_merkleRoot",
							"type": "bytes32"
						}
					],
					"stateMutability": "nonpayable",
					"type": "constructor"
				},
				{
					"anonymous": false,
					"inputs": [
						{
							"indexed": true,
							"internalType": "address",
							"name": "account",
							"type": "address"
						},
						{
							"indexed": false,
							"internalType": "uint256",
							"name": "timestamp",
							"type": "uint256"
						}
					],
					"name": "AccountWhitelisted",
					"type": "event"
				},
				{
					"anonymous": false,
					"inputs": [
						{
							"indexed": true,
							"internalType": "address",
							"name": "admin",
							"type": "address"
						},
						{
							"indexed": false,
							"internalType": "bool",
							"name": "isAdded",
							"type": "bool"
						}
					],
					"name": "AdminUpdated",
					"type": "event"
				},
				{
					"anonymous": false,
					"inputs": [
						{
							"indexed": true,
							"internalType": "address",
							"name": "signer",
							"type": "address"
						},
						{
							"indexed": false,
							"internalType": "uint256",
							"name": "timestamp",
							"type": "uint256"
						}
					],
					"name": "DocumentSigned",
					"type": "event"
				},
				{
					"anonymous": false,
					"inputs": [
						{
							"indexed": false,
							"internalType": "bytes32",
							"name": "newRoot",
							"type": "bytes32"
						}
					],
					"name": "MerkleRootUpdated",
					"type": "event"
				},
				{
					"inputs": [
						{
							"internalType": "address",
							"name": "account",
							"type": "address"
						}
					],
					"name": "addAdmin",
					"outputs": [],
					"stateMutability": "nonpayable",
					"type": "function"
				},
				{
					"inputs": [
						{
							"internalType": "address[]",
							"name": "accounts",
							"type": "address[]"
						}
					],
					"name": "addMultipleToWhitelist",
					"outputs": [],
					"stateMutability": "nonpayable",
					"type": "function"
				},
				{
					"inputs": [
						{
							"internalType": "address",
							"name": "account",
							"type": "address"
						}
					],
					"name": "addToWhitelist",
					"outputs": [],
					"stateMutability": "nonpayable",
					"type": "function"
				},
				{
					"inputs": [
						{
							"internalType": "address",
							"name": "",
							"type": "address"
						}
					],
					"name": "admins",
					"outputs": [
						{
							"internalType": "bool",
							"name": "",
							"type": "bool"
						}
					],
					"stateMutability": "view",
					"type": "function"
				},
				{
					"inputs": [],
					"name": "getWhitelistedAccounts",
					"outputs": [
						{
							"internalType": "address[]",
							"name": "",
							"type": "address[]"
						}
					],
					"stateMutability": "view",
					"type": "function"
				},
				{
					"inputs": [
						{
							"internalType": "bytes32[]",
							"name": "proof",
							"type": "bytes32[]"
						},
						{
							"internalType": "address",
							"name": "account",
							"type": "address"
						}
					],
					"name": "isWhitelisted",
					"outputs": [
						{
							"internalType": "bool",
							"name": "",
							"type": "bool"
						}
					],
					"stateMutability": "view",
					"type": "function"
				},
				{
					"inputs": [
						{
							"internalType": "address",
							"name": "",
							"type": "address"
						}
					],
					"name": "manualWhitelist",
					"outputs": [
						{
							"internalType": "bool",
							"name": "",
							"type": "bool"
						}
					],
					"stateMutability": "view",
					"type": "function"
				},
				{
					"inputs": [],
					"name": "merkleRoot",
					"outputs": [
						{
							"internalType": "bytes32",
							"name": "",
							"type": "bytes32"
						}
					],
					"stateMutability": "view",
					"type": "function"
				},
				{
					"inputs": [],
					"name": "owner",
					"outputs": [
						{
							"internalType": "address",
							"name": "",
							"type": "address"
						}
					],
					"stateMutability": "view",
					"type": "function"
				},
				{
					"inputs": [
						{
							"internalType": "address",
							"name": "account",
							"type": "address"
						}
					],
					"name": "removeAdmin",
					"outputs": [],
					"stateMutability": "nonpayable",
					"type": "function"
				},
				{
					"inputs": [
						{
							"internalType": "bytes32[]",
							"name": "proof",
							"type": "bytes32[]"
						}
					],
					"name": "signDocument",
					"outputs": [],
					"stateMutability": "nonpayable",
					"type": "function"
				},
				{
					"inputs": [],
					"name": "totalDocumentsSigned",
					"outputs": [
						{
							"internalType": "uint256",
							"name": "",
							"type": "uint256"
						}
					],
					"stateMutability": "view",
					"type": "function"
				},
				{
					"inputs": [
						{
							"internalType": "bytes32",
							"name": "_newRoot",
							"type": "bytes32"
						}
					],
					"name": "updateMerkleRoot",
					"outputs": [],
					"stateMutability": "nonpayable",
					"type": "function"
				},
				{
					"inputs": [
						{
							"internalType": "bytes32[]",
							"name": "proof",
							"type": "bytes32[]"
						}
					],
					"name": "whitelistAndTrack",
					"outputs": [],
					"stateMutability": "nonpayable",
					"type": "function"
				},
				{
					"inputs": [
						{
							"internalType": "address",
							"name": "",
							"type": "address"
						}
					],
					"name": "whitelistTimestamp",
					"outputs": [
						{
							"internalType": "uint256",
							"name": "",
							"type": "uint256"
						}
					],
					"stateMutability": "view",
					"type": "function"
				},
				{
					"inputs": [
						{
							"internalType": "uint256",
							"name": "",
							"type": "uint256"
						}
					],
					"name": "whitelistedAccounts",
					"outputs": [
						{
							"internalType": "address",
							"name": "",
							"type": "address"
						}
					],
					"stateMutability": "view",
					"type": "function"
				}
			],
			"devdoc": {
				"details": "A contract that manages a whitelist using Merkle Trees and manual mapping.      Whitelisted users can sign documents, and admins can manage accounts.",
				"kind": "dev",
				"methods": {
					"addAdmin(address)": {
						"details": "Add an admin account.",
						"params": {
							"account": "Address to grant admin rights."
						}
					},
					"addMultipleToWhitelist(address[])": {
						"details": "Add multiple accounts to the manual whitelist at once.",
						"params": {
							"accounts": "Array of addresses to whitelist."
						}
					},
					"addToWhitelist(address)": {
						"details": "Add an account to the manual whitelist.",
						"params": {
							"account": "Address to whitelist."
						}
					},
					"constructor": {
						"details": "Constructor initializes the owner and Merkle Root.",
						"params": {
							"_merkleRoot": "Initial Merkle Root."
						}
					},
					"getWhitelistedAccounts()": {
						"details": "Get all whitelisted accounts.",
						"returns": {
							"_0": "address[] Array of whitelisted accounts."
						}
					},
					"isWhitelisted(bytes32[],address)": {
						"details": "Verifies if an account is whitelisted using Merkle Proof or manual mapping.",
						"params": {
							"account": "Address to verify.",
							"proof": "Merkle Proof provided by the user."
						},
						"returns": {
							"_0": "bool Returns true if the address is whitelisted."
						}
					},
					"removeAdmin(address)": {
						"details": "Remove an admin account.",
						"params": {
							"account": "Address to revoke admin rights."
						}
					},
					"signDocument(bytes32[])": {
						"details": "Sign a document if the caller is whitelisted.",
						"params": {
							"proof": "Merkle Proof."
						}
					},
					"updateMerkleRoot(bytes32)": {
						"details": "Updates the Merkle Root and resets whitelist tracking.",
						"params": {
							"_newRoot": "The new Merkle Root."
						}
					},
					"whitelistAndTrack(bytes32[])": {
						"details": "Whitelist and track the caller if verified using a Merkle Proof.",
						"params": {
							"proof": "Merkle Proof."
						}
					}
				},
				"title": "MerkleDocumentSigning",
				"version": 1
			},
			"evm": {
				"assembly": "    /* \"contracts/Doc_Signing_M.sol\":392:7075  contract MerkleDocumentSigning {... */\n  mstore(0x40, 0x80)\n    /* \"contracts/Doc_Signing_M.sol\":1828:1930  constructor(bytes32 _merkleRoot) {... */\n  callvalue\n  dup1\n  iszero\n  tag_1\n  jumpi\n  0x00\n  dup1\n  revert\ntag_1:\n  pop\n  mload(0x40)\n  sub(codesize, bytecodeSize)\n  dup1\n  bytecodeSize\n  dup4\n  codecopy\n  dup2\n  dup2\n  add\n  0x40\n  mstore\n  dup2\n  add\n  swap1\n  tag_2\n  swap2\n  swap1\n  tag_3\n  jump\t// in\ntag_2:\n    /* \"contracts/Doc_Signing_M.sol\":1879:1889  msg.sender */\n  caller\n    /* \"contracts/Doc_Signing_M.sol\":1871:1876  owner */\n  0x00\n  dup1\n    /* \"contracts/Doc_Signing_M.sol\":1871:1889  owner = msg.sender */\n  0x0100\n  exp\n  dup2\n  sload\n  dup2\n  0xffffffffffffffffffffffffffffffffffffffff\n  mul\n  not\n  and\n  swap1\n  dup4\n  0xffffffffffffffffffffffffffffffffffffffff\n  and\n  mul\n  or\n  swap1\n  sstore\n  pop\n    /* \"contracts/Doc_Signing_M.sol\":1912:1923  _merkleRoot */\n  dup1\n    /* \"contracts/Doc_Signing_M.sol\":1899:1909  merkleRoot */\n  0x01\n    /* \"contracts/Doc_Signing_M.sol\":1899:1923  merkleRoot = _merkleRoot */\n  dup2\n  swap1\n  sstore\n  pop\n    /* \"contracts/Doc_Signing_M.sol\":1828:1930  constructor(bytes32 _merkleRoot) {... */\n  pop\n    /* \"contracts/Doc_Signing_M.sol\":392:7075  contract MerkleDocumentSigning {... */\n  jump(tag_6)\n    /* \"#utility.yul\":88:205   */\ntag_8:\n    /* \"#utility.yul\":197:198   */\n  0x00\n    /* \"#utility.yul\":194:195   */\n  dup1\n    /* \"#utility.yul\":187:199   */\n  revert\n    /* \"#utility.yul\":334:411   */\ntag_10:\n    /* \"#utility.yul\":371:378   */\n  0x00\n    /* \"#utility.yul\":400:405   */\n  dup2\n    /* \"#utility.yul\":389:405   */\n  swap1\n  pop\n    /* \"#utility.yul\":334:411   */\n  swap2\n  swap1\n  pop\n  jump\t// out\n    /* \"#utility.yul\":417:539   */\ntag_11:\n    /* \"#utility.yul\":490:514   */\n  tag_19\n    /* \"#utility.yul\":508:513   */\n  dup2\n    /* \"#utility.yul\":490:514   */\n  tag_10\n  jump\t// in\ntag_19:\n    /* \"#utility.yul\":483:488   */\n  dup2\n    /* \"#utility.yul\":480:515   */\n  eq\n    /* \"#utility.yul\":470:533   */\n  tag_20\n  jumpi\n    /* \"#utility.yul\":529:530   */\n  0x00\n    /* \"#utility.yul\":526:527   */\n  dup1\n    /* \"#utility.yul\":519:531   */\n  revert\n    /* \"#utility.yul\":470:533   */\ntag_20:\n    /* \"#utility.yul\":417:539   */\n  pop\n  jump\t// out\n    /* \"#utility.yul\":545:688   */\ntag_12:\n    /* \"#utility.yul\":602:607   */\n  0x00\n    /* \"#utility.yul\":633:639   */\n  dup2\n    /* \"#utility.yul\":627:640   */\n  mload\n    /* \"#utility.yul\":618:640   */\n  swap1\n  pop\n    /* \"#utility.yul\":649:682   */\n  tag_22\n    /* \"#utility.yul\":676:681   */\n  dup2\n    /* \"#utility.yul\":649:682   */\n  tag_11\n  jump\t// in\ntag_22:\n    /* \"#utility.yul\":545:688   */\n  swap3\n  swap2\n  pop\n  pop\n  jump\t// out\n    /* \"#utility.yul\":694:1045   */\ntag_3:\n    /* \"#utility.yul\":764:770   */\n  0x00\n    /* \"#utility.yul\":813:815   */\n  0x20\n    /* \"#utility.yul\":801:810   */\n  dup3\n    /* \"#utility.yul\":792:799   */\n  dup5\n    /* \"#utility.yul\":788:811   */\n  sub\n    /* \"#utility.yul\":784:816   */\n  slt\n    /* \"#utility.yul\":781:900   */\n  iszero\n  tag_24\n  jumpi\n    /* \"#utility.yul\":819:898   */\n  tag_25\n  tag_8\n  jump\t// in\ntag_25:\n    /* \"#utility.yul\":781:900   */\ntag_24:\n    /* \"#utility.yul\":939:940   */\n  0x00\n    /* \"#utility.yul\":964:1028   */\n  tag_26\n    /* \"#utility.yul\":1020:1027   */\n  dup5\n    /* \"#utility.yul\":1011:1017   */\n  dup3\n    /* \"#utility.yul\":1000:1009   */\n  dup6\n    /* \"#utility.yul\":996:1018   */\n  add\n    /* \"#utility.yul\":964:1028   */\n  tag_12\n  jump\t// in\ntag_26:\n    /* \"#utility.yul\":954:1028   */\n  swap2\n  pop\n    /* \"#utility.yul\":910:1038   */\n  pop\n    /* \"#utility.yul\":694:1045   */\n  swap3\n  swap2\n  pop\n  pop\n  jump\t// out\n    /* \"contracts/Doc_Signing_M.sol\":392:7075  contract MerkleDocumentSigning {... */\ntag_6:\n  dataSize(sub_0)\n  dup1\n  dataOffset(sub_0)\n  0x00\n  codecopy\n  0x00\n  return\nstop\n\nsub_0: assembly {\n        /* \"contracts/Doc_Signing_M.sol\":392:7075  contract MerkleDocumentSigning {... */\n      mstore(0x40, 0x80)\n      callvalue\n      dup1\n      iszero\n      tag_1\n      jumpi\n      0x00\n      dup1\n      revert\n    tag_1:\n      pop\n      jumpi(tag_2, lt(calldatasize, 0x04))\n      shr(0xe0, calldataload(0x00))\n      dup1\n      0x8401f8d1\n      gt\n      tag_19\n      jumpi\n      dup1\n      0xa4ec8d22\n      gt\n      tag_20\n      jumpi\n      dup1\n      0xa4ec8d22\n      eq\n      tag_15\n      jumpi\n      dup1\n      0xd9e9c978\n      eq\n      tag_16\n      jumpi\n      dup1\n      0xdebefaa6\n      eq\n      tag_17\n      jumpi\n      dup1\n      0xe43252d7\n      eq\n      tag_18\n      jumpi\n      jump(tag_2)\n    tag_20:\n      dup1\n      0x8401f8d1\n      eq\n      tag_11\n      jumpi\n      dup1\n      0x8da5cb5b\n      eq\n      tag_12\n      jumpi\n      dup1\n      0x956aad88\n      eq\n      tag_13\n      jumpi\n      dup1\n      0xa407e496\n      eq\n      tag_14\n      jumpi\n      jump(tag_2)\n    tag_19:\n      dup1\n      0x4783f0ef\n      gt\n      tag_21\n      jumpi\n      dup1\n      0x4783f0ef\n      eq\n      tag_7\n      jumpi\n      dup1\n      0x5a521883\n      eq\n      tag_8\n      jumpi\n      dup1\n      0x5c9c66c6\n      eq\n      tag_9\n      jumpi\n      dup1\n      0x70480275\n      eq\n      tag_10\n      jumpi\n      jump(tag_2)\n    tag_21:\n      dup1\n      0x0b207ec9\n      eq\n      tag_3\n      jumpi\n      dup1\n      0x1785f53c\n      eq\n      tag_4\n      jumpi\n      dup1\n      0x2eb4a7ab\n      eq\n      tag_5\n      jumpi\n      dup1\n      0x429b62e5\n      eq\n      tag_6\n      jumpi\n    tag_2:\n      0x00\n      dup1\n      revert\n        /* \"contracts/Doc_Signing_M.sol\":894:930  address[] public whitelistedAccounts */\n    tag_3:\n      tag_22\n      0x04\n      dup1\n      calldatasize\n      sub\n      dup2\n      add\n      swap1\n      tag_23\n      swap2\n      swap1\n      tag_24\n      jump\t// in\n    tag_23:\n      tag_25\n      jump\t// in\n    tag_22:\n      mload(0x40)\n      tag_26\n      swap2\n      swap1\n      tag_27\n      jump\t// in\n    tag_26:\n      mload(0x40)\n      dup1\n      swap2\n      sub\n      swap1\n      return\n        /* \"contracts/Doc_Signing_M.sol\":5130:5329  function removeAdmin(address account) public onlyOwner {... */\n    tag_4:\n      tag_28\n      0x04\n      dup1\n      calldatasize\n      sub\n      dup2\n      add\n      swap1\n      tag_29\n      swap2\n      swap1\n      tag_30\n      jump\t// in\n    tag_29:\n      tag_31\n      jump\t// in\n    tag_28:\n      stop\n        /* \"contracts/Doc_Signing_M.sol\":516:541  bytes32 public merkleRoot */\n    tag_5:\n      tag_32\n      tag_33\n      jump\t// in\n    tag_32:\n      mload(0x40)\n      tag_34\n      swap2\n      swap1\n      tag_35\n      jump\t// in\n    tag_34:\n      mload(0x40)\n      dup1\n      swap2\n      sub\n      swap1\n      return\n        /* \"contracts/Doc_Signing_M.sol\":692:730  mapping(address => bool) public admins */\n    tag_6:\n      tag_36\n      0x04\n      dup1\n      calldatasize\n      sub\n      dup2\n      add\n      swap1\n      tag_37\n      swap2\n      swap1\n      tag_30\n      jump\t// in\n    tag_37:\n      tag_38\n      jump\t// in\n    tag_36:\n      mload(0x40)\n      tag_39\n      swap2\n      swap1\n      tag_40\n      jump\t// in\n    tag_39:\n      mload(0x40)\n      dup1\n      swap2\n      sub\n      swap1\n      return\n        /* \"contracts/Doc_Signing_M.sol\":2177:2947  function updateMerkleRoot(bytes32 _newRoot) public onlyAdmin {... */\n    tag_7:\n      tag_41\n      0x04\n      dup1\n      calldatasize\n      sub\n      dup2\n      add\n      swap1\n      tag_42\n      swap2\n      swap1\n      tag_43\n      jump\t// in\n    tag_42:\n      tag_44\n      jump\t// in\n    tag_41:\n      stop\n        /* \"contracts/Doc_Signing_M.sol\":975:1010  uint256 public totalDocumentsSigned */\n    tag_8:\n      tag_45\n      tag_46\n      jump\t// in\n    tag_45:\n      mload(0x40)\n      tag_47\n      swap2\n      swap1\n      tag_48\n      jump\t// in\n    tag_47:\n      mload(0x40)\n      dup1\n      swap2\n      sub\n      swap1\n      return\n        /* \"contracts/Doc_Signing_M.sol\":6122:6238  function getWhitelistedAccounts() public view returns (address[] memory) {... */\n    tag_9:\n      tag_49\n      tag_50\n      jump\t// in\n    tag_49:\n      mload(0x40)\n      tag_51\n      swap2\n      swap1\n      tag_52\n      jump\t// in\n    tag_51:\n      mload(0x40)\n      dup1\n      swap2\n      sub\n      swap1\n      return\n        /* \"contracts/Doc_Signing_M.sol\":4818:5017  function addAdmin(address account) public onlyOwner {... */\n    tag_10:\n      tag_53\n      0x04\n      dup1\n      calldatasize\n      sub\n      dup2\n      add\n      swap1\n      tag_54\n      swap2\n      swap1\n      tag_30\n      jump\t// in\n    tag_54:\n      tag_55\n      jump\t// in\n    tag_53:\n      stop\n        /* \"contracts/Doc_Signing_M.sol\":6383:6974  function addMultipleToWhitelist(address[] calldata accounts)... */\n    tag_11:\n      tag_56\n      0x04\n      dup1\n      calldatasize\n      sub\n      dup2\n      add\n      swap1\n      tag_57\n      swap2\n      swap1\n      tag_58\n      jump\t// in\n    tag_57:\n      tag_59\n      jump\t// in\n    tag_56:\n      stop\n        /* \"contracts/Doc_Signing_M.sol\":458:478  address public owner */\n    tag_12:\n      tag_60\n      tag_61\n      jump\t// in\n    tag_60:\n      mload(0x40)\n      tag_62\n      swap2\n      swap1\n      tag_27\n      jump\t// in\n    tag_62:\n      mload(0x40)\n      dup1\n      swap2\n      sub\n      swap1\n      return\n        /* \"contracts/Doc_Signing_M.sol\":3788:4255  function whitelistAndTrack(bytes32[] calldata proof) public {... */\n    tag_13:\n      tag_63\n      0x04\n      dup1\n      calldatasize\n      sub\n      dup2\n      add\n      swap1\n      tag_64\n      swap2\n      swap1\n      tag_65\n      jump\t// in\n    tag_64:\n      tag_66\n      jump\t// in\n    tag_63:\n      stop\n        /* \"contracts/Doc_Signing_M.sol\":4369:4709  function signDocument(bytes32[] calldata proof) public {... */\n    tag_14:\n      tag_67\n      0x04\n      dup1\n      calldatasize\n      sub\n      dup2\n      add\n      swap1\n      tag_68\n      swap2\n      swap1\n      tag_65\n      jump\t// in\n    tag_68:\n      tag_69\n      jump\t// in\n    tag_67:\n      stop\n        /* \"contracts/Doc_Signing_M.sol\":794:847  mapping(address => uint256) public whitelistTimestamp */\n    tag_15:\n      tag_70\n      0x04\n      dup1\n      calldatasize\n      sub\n      dup2\n      add\n      swap1\n      tag_71\n      swap2\n      swap1\n      tag_30\n      jump\t// in\n    tag_71:\n      tag_72\n      jump\t// in\n    tag_70:\n      mload(0x40)\n      tag_73\n      swap2\n      swap1\n      tag_48\n      jump\t// in\n    tag_73:\n      mload(0x40)\n      dup1\n      swap2\n      sub\n      swap1\n      return\n        /* \"contracts/Doc_Signing_M.sol\":607:654  mapping(address => bool) public manualWhitelist */\n    tag_16:\n      tag_74\n      0x04\n      dup1\n      calldatasize\n      sub\n      dup2\n      add\n      swap1\n      tag_75\n      swap2\n      swap1\n      tag_30\n      jump\t// in\n    tag_75:\n      tag_76\n      jump\t// in\n    tag_74:\n      mload(0x40)\n      tag_77\n      swap2\n      swap1\n      tag_40\n      jump\t// in\n    tag_77:\n      mload(0x40)\n      dup1\n      swap2\n      sub\n      swap1\n      return\n        /* \"contracts/Doc_Signing_M.sol\":3217:3655  function isWhitelisted(bytes32[] calldata proof, address account)... */\n    tag_17:\n      tag_78\n      0x04\n      dup1\n      calldatasize\n      sub\n      dup2\n      add\n      swap1\n      tag_79\n      swap2\n      swap1\n      tag_80\n      jump\t// in\n    tag_79:\n      tag_81\n      jump\t// in\n    tag_78:\n      mload(0x40)\n      tag_82\n      swap2\n      swap1\n      tag_40\n      jump\t// in\n    tag_82:\n      mload(0x40)\n      dup1\n      swap2\n      sub\n      swap1\n      return\n        /* \"contracts/Doc_Signing_M.sol\":5447:6002  function addToWhitelist(address account) public onlyAdmin {... */\n    tag_18:\n      tag_83\n      0x04\n      dup1\n      calldatasize\n      sub\n      dup2\n      add\n      swap1\n      tag_84\n      swap2\n      swap1\n      tag_30\n      jump\t// in\n    tag_84:\n      tag_85\n      jump\t// in\n    tag_83:\n      stop\n        /* \"contracts/Doc_Signing_M.sol\":894:930  address[] public whitelistedAccounts */\n    tag_25:\n      0x05\n      dup2\n      dup2\n      sload\n      dup2\n      lt\n      tag_86\n      jumpi\n      0x00\n      dup1\n      revert\n    tag_86:\n      swap1\n      0x00\n      mstore\n      keccak256(0x00, 0x20)\n      add\n      0x00\n      swap2\n      pop\n      sload\n      swap1\n      0x0100\n      exp\n      swap1\n      div\n      0xffffffffffffffffffffffffffffffffffffffff\n      and\n      dup2\n      jump\t// out\n        /* \"contracts/Doc_Signing_M.sol\":5130:5329  function removeAdmin(address account) public onlyOwner {... */\n    tag_31:\n        /* \"contracts/Doc_Signing_M.sol\":1396:1401  owner */\n      0x00\n      dup1\n      sload\n      swap1\n      0x0100\n      exp\n      swap1\n      div\n      0xffffffffffffffffffffffffffffffffffffffff\n      and\n        /* \"contracts/Doc_Signing_M.sol\":1382:1401  msg.sender == owner */\n      0xffffffffffffffffffffffffffffffffffffffff\n      and\n        /* \"contracts/Doc_Signing_M.sol\":1382:1392  msg.sender */\n      caller\n        /* \"contracts/Doc_Signing_M.sol\":1382:1401  msg.sender == owner */\n      0xffffffffffffffffffffffffffffffffffffffff\n      and\n      eq\n        /* \"contracts/Doc_Signing_M.sol\":1374:1444  require(msg.sender == owner, \"Only the owner can perform this action\") */\n      tag_89\n      jumpi\n      mload(0x40)\n      0x08c379a000000000000000000000000000000000000000000000000000000000\n      dup2\n      mstore\n      0x04\n      add\n      tag_90\n      swap1\n      tag_91\n      jump\t// in\n    tag_90:\n      mload(0x40)\n      dup1\n      swap2\n      sub\n      swap1\n      revert\n    tag_89:\n        /* \"contracts/Doc_Signing_M.sol\":5203:5209  admins */\n      0x03\n        /* \"contracts/Doc_Signing_M.sol\":5203:5218  admins[account] */\n      0x00\n        /* \"contracts/Doc_Signing_M.sol\":5210:5217  account */\n      dup3\n        /* \"contracts/Doc_Signing_M.sol\":5203:5218  admins[account] */\n      0xffffffffffffffffffffffffffffffffffffffff\n      and\n      0xffffffffffffffffffffffffffffffffffffffff\n      and\n      dup2\n      mstore\n      0x20\n      add\n      swap1\n      dup2\n      mstore\n      0x20\n      add\n      0x00\n      keccak256\n      0x00\n      swap1\n      sload\n      swap1\n      0x0100\n      exp\n      swap1\n      div\n      0xff\n      and\n        /* \"contracts/Doc_Signing_M.sol\":5195:5246  require(admins[account], \"Address is not an admin\") */\n      tag_93\n      jumpi\n      mload(0x40)\n      0x08c379a000000000000000000000000000000000000000000000000000000000\n      dup2\n      mstore\n      0x04\n      add\n      tag_94\n      swap1\n      tag_95\n      jump\t// in\n    tag_94:\n      mload(0x40)\n      dup1\n      swap2\n      sub\n      swap1\n      revert\n    tag_93:\n        /* \"contracts/Doc_Signing_M.sol\":5274:5279  false */\n      0x00\n        /* \"contracts/Doc_Signing_M.sol\":5256:5262  admins */\n      0x03\n        /* \"contracts/Doc_Signing_M.sol\":5256:5271  admins[account] */\n      0x00\n        /* \"contracts/Doc_Signing_M.sol\":5263:5270  account */\n      dup4\n        /* \"contracts/Doc_Signing_M.sol\":5256:5271  admins[account] */\n      0xffffffffffffffffffffffffffffffffffffffff\n      and\n      0xffffffffffffffffffffffffffffffffffffffff\n      and\n      dup2\n      mstore\n      0x20\n      add\n      swap1\n      dup2\n      mstore\n      0x20\n      add\n      0x00\n      keccak256\n      0x00\n        /* \"contracts/Doc_Signing_M.sol\":5256:5279  admins[account] = false */\n      0x0100\n      exp\n      dup2\n      sload\n      dup2\n      0xff\n      mul\n      not\n      and\n      swap1\n      dup4\n      iszero\n      iszero\n      mul\n      or\n      swap1\n      sstore\n      pop\n        /* \"contracts/Doc_Signing_M.sol\":5307:5314  account */\n      dup1\n        /* \"contracts/Doc_Signing_M.sol\":5294:5322  AdminUpdated(account, false) */\n      0xffffffffffffffffffffffffffffffffffffffff\n      and\n      0x235bc17e7930760029e9f4d860a2a8089976de5b381cf8380fc11c1d88a11133\n        /* \"contracts/Doc_Signing_M.sol\":5316:5321  false */\n      0x00\n        /* \"contracts/Doc_Signing_M.sol\":5294:5322  AdminUpdated(account, false) */\n      mload(0x40)\n      tag_96\n      swap2\n      swap1\n      tag_40\n      jump\t// in\n    tag_96:\n      mload(0x40)\n      dup1\n      swap2\n      sub\n      swap1\n      log2\n        /* \"contracts/Doc_Signing_M.sol\":5130:5329  function removeAdmin(address account) public onlyOwner {... */\n      pop\n      jump\t// out\n        /* \"contracts/Doc_Signing_M.sol\":516:541  bytes32 public merkleRoot */\n    tag_33:\n      sload(0x01)\n      dup2\n      jump\t// out\n        /* \"contracts/Doc_Signing_M.sol\":692:730  mapping(address => bool) public admins */\n    tag_38:\n      mstore(0x20, 0x03)\n      dup1\n      0x00\n      mstore\n      keccak256(0x00, 0x40)\n      0x00\n      swap2\n      pop\n      sload\n      swap1\n      0x0100\n      exp\n      swap1\n      div\n      0xff\n      and\n      dup2\n      jump\t// out\n        /* \"contracts/Doc_Signing_M.sol\":2177:2947  function updateMerkleRoot(bytes32 _newRoot) public onlyAdmin {... */\n    tag_44:\n        /* \"contracts/Doc_Signing_M.sol\":1574:1580  admins */\n      0x03\n        /* \"contracts/Doc_Signing_M.sol\":1574:1592  admins[msg.sender] */\n      0x00\n        /* \"contracts/Doc_Signing_M.sol\":1581:1591  msg.sender */\n      caller\n        /* \"contracts/Doc_Signing_M.sol\":1574:1592  admins[msg.sender] */\n      0xffffffffffffffffffffffffffffffffffffffff\n      and\n      0xffffffffffffffffffffffffffffffffffffffff\n      and\n      dup2\n      mstore\n      0x20\n      add\n      swap1\n      dup2\n      mstore\n      0x20\n      add\n      0x00\n      keccak256\n      0x00\n      swap1\n      sload\n      swap1\n      0x0100\n      exp\n      swap1\n      div\n      0xff\n      and\n        /* \"contracts/Doc_Signing_M.sol\":1574:1615  admins[msg.sender] || msg.sender == owner */\n      dup1\n      tag_98\n      jumpi\n      pop\n        /* \"contracts/Doc_Signing_M.sol\":1610:1615  owner */\n      0x00\n      dup1\n      sload\n      swap1\n      0x0100\n      exp\n      swap1\n      div\n      0xffffffffffffffffffffffffffffffffffffffff\n      and\n        /* \"contracts/Doc_Signing_M.sol\":1596:1615  msg.sender == owner */\n      0xffffffffffffffffffffffffffffffffffffffff\n      and\n        /* \"contracts/Doc_Signing_M.sol\":1596:1606  msg.sender */\n      caller\n        /* \"contracts/Doc_Signing_M.sol\":1596:1615  msg.sender == owner */\n      0xffffffffffffffffffffffffffffffffffffffff\n      and\n      eq\n        /* \"contracts/Doc_Signing_M.sol\":1574:1615  admins[msg.sender] || msg.sender == owner */\n    tag_98:\n        /* \"contracts/Doc_Signing_M.sol\":1553:1678  require(... */\n      tag_99\n      jumpi\n      mload(0x40)\n      0x08c379a000000000000000000000000000000000000000000000000000000000\n      dup2\n      mstore\n      0x04\n      add\n      tag_100\n      swap1\n      tag_101\n      jump\t// in\n    tag_100:\n      mload(0x40)\n      dup1\n      swap2\n      sub\n      swap1\n      revert\n    tag_99:\n        /* \"contracts/Doc_Signing_M.sol\":2261:2269  _newRoot */\n      dup1\n        /* \"contracts/Doc_Signing_M.sol\":2248:2258  merkleRoot */\n      0x01\n        /* \"contracts/Doc_Signing_M.sol\":2248:2269  merkleRoot = _newRoot */\n      dup2\n      swap1\n      sstore\n      pop\n        /* \"contracts/Doc_Signing_M.sol\":2348:2357  uint256 i */\n      0x00\n        /* \"contracts/Doc_Signing_M.sol\":2343:2472  for (uint256 i = 0; i < whitelistedAccounts.length; i++) {... */\n    tag_103:\n        /* \"contracts/Doc_Signing_M.sol\":2367:2386  whitelistedAccounts */\n      0x05\n        /* \"contracts/Doc_Signing_M.sol\":2367:2393  whitelistedAccounts.length */\n      dup1\n      sload\n      swap1\n      pop\n        /* \"contracts/Doc_Signing_M.sol\":2363:2364  i */\n      dup2\n        /* \"contracts/Doc_Signing_M.sol\":2363:2393  i < whitelistedAccounts.length */\n      lt\n        /* \"contracts/Doc_Signing_M.sol\":2343:2472  for (uint256 i = 0; i < whitelistedAccounts.length; i++) {... */\n      iszero\n      tag_104\n      jumpi\n        /* \"contracts/Doc_Signing_M.sol\":2456:2461  false */\n      0x00\n        /* \"contracts/Doc_Signing_M.sol\":2414:2429  manualWhitelist */\n      0x02\n        /* \"contracts/Doc_Signing_M.sol\":2414:2453  manualWhitelist[whitelistedAccounts[i]] */\n      0x00\n        /* \"contracts/Doc_Signing_M.sol\":2430:2449  whitelistedAccounts */\n      0x05\n        /* \"contracts/Doc_Signing_M.sol\":2450:2451  i */\n      dup5\n        /* \"contracts/Doc_Signing_M.sol\":2430:2452  whitelistedAccounts[i] */\n      dup2\n      sload\n      dup2\n      lt\n      tag_106\n      jumpi\n      tag_107\n      tag_108\n      jump\t// in\n    tag_107:\n    tag_106:\n      swap1\n      0x00\n      mstore\n      keccak256(0x00, 0x20)\n      add\n      0x00\n      swap1\n      sload\n      swap1\n      0x0100\n      exp\n      swap1\n      div\n      0xffffffffffffffffffffffffffffffffffffffff\n      and\n        /* \"contracts/Doc_Signing_M.sol\":2414:2453  manualWhitelist[whitelistedAccounts[i]] */\n      0xffffffffffffffffffffffffffffffffffffffff\n      and\n      0xffffffffffffffffffffffffffffffffffffffff\n      and\n      dup2\n      mstore\n      0x20\n      add\n      swap1\n      dup2\n      mstore\n      0x20\n      add\n      0x00\n      keccak256\n      0x00\n        /* \"contracts/Doc_Signing_M.sol\":2414:2461  manualWhitelist[whitelistedAccounts[i]] = false */\n      0x0100\n      exp\n      dup2\n      sload\n      dup2\n      0xff\n      mul\n      not\n      and\n      swap1\n      dup4\n      iszero\n      iszero\n      mul\n      or\n      swap1\n      sstore\n      pop\n        /* \"contracts/Doc_Signing_M.sol\":2395:2398  i++ */\n      dup1\n      dup1\n      0x01\n      add\n      swap2\n      pop\n      pop\n        /* \"contracts/Doc_Signing_M.sol\":2343:2472  for (uint256 i = 0; i < whitelistedAccounts.length; i++) {... */\n      jump(tag_103)\n    tag_104:\n      pop\n        /* \"contracts/Doc_Signing_M.sol\":2539:2558  whitelistedAccounts */\n      0x05\n      0x00\n        /* \"contracts/Doc_Signing_M.sol\":2532:2558  delete whitelistedAccounts */\n      tag_110\n      swap2\n      swap1\n      tag_111\n      jump\t// in\n    tag_110:\n        /* \"contracts/Doc_Signing_M.sol\":2650:2659  uint256 i */\n      0x00\n        /* \"contracts/Doc_Signing_M.sol\":2645:2852  for (uint256 i = 0; i < whitelistedAccounts.length; i++) {... */\n    tag_112:\n        /* \"contracts/Doc_Signing_M.sol\":2669:2688  whitelistedAccounts */\n      0x05\n        /* \"contracts/Doc_Signing_M.sol\":2669:2695  whitelistedAccounts.length */\n      dup1\n      sload\n      swap1\n      pop\n        /* \"contracts/Doc_Signing_M.sol\":2665:2666  i */\n      dup2\n        /* \"contracts/Doc_Signing_M.sol\":2665:2695  i < whitelistedAccounts.length */\n      lt\n        /* \"contracts/Doc_Signing_M.sol\":2645:2852  for (uint256 i = 0; i < whitelistedAccounts.length; i++) {... */\n      iszero\n      tag_113\n      jumpi\n        /* \"contracts/Doc_Signing_M.sol\":2720:2735  manualWhitelist */\n      0x02\n        /* \"contracts/Doc_Signing_M.sol\":2720:2759  manualWhitelist[whitelistedAccounts[i]] */\n      0x00\n        /* \"contracts/Doc_Signing_M.sol\":2736:2755  whitelistedAccounts */\n      0x05\n        /* \"contracts/Doc_Signing_M.sol\":2756:2757  i */\n      dup4\n        /* \"contracts/Doc_Signing_M.sol\":2736:2758  whitelistedAccounts[i] */\n      dup2\n      sload\n      dup2\n      lt\n      tag_115\n      jumpi\n      tag_116\n      tag_108\n      jump\t// in\n    tag_116:\n    tag_115:\n      swap1\n      0x00\n      mstore\n      keccak256(0x00, 0x20)\n      add\n      0x00\n      swap1\n      sload\n      swap1\n      0x0100\n      exp\n      swap1\n      div\n      0xffffffffffffffffffffffffffffffffffffffff\n      and\n        /* \"contracts/Doc_Signing_M.sol\":2720:2759  manualWhitelist[whitelistedAccounts[i]] */\n      0xffffffffffffffffffffffffffffffffffffffff\n      and\n      0xffffffffffffffffffffffffffffffffffffffff\n      and\n      dup2\n      mstore\n      0x20\n      add\n      swap1\n      dup2\n      mstore\n      0x20\n      add\n      0x00\n      keccak256\n      0x00\n      swap1\n      sload\n      swap1\n      0x0100\n      exp\n      swap1\n      div\n      0xff\n      and\n        /* \"contracts/Doc_Signing_M.sol\":2716:2842  if (manualWhitelist[whitelistedAccounts[i]]) {... */\n      iszero\n      tag_118\n      jumpi\n        /* \"contracts/Doc_Signing_M.sol\":2779:2798  whitelistedAccounts */\n      0x05\n        /* \"contracts/Doc_Signing_M.sol\":2804:2823  whitelistedAccounts */\n      dup1\n        /* \"contracts/Doc_Signing_M.sol\":2824:2825  i */\n      dup3\n        /* \"contracts/Doc_Signing_M.sol\":2804:2826  whitelistedAccounts[i] */\n      dup2\n      sload\n      dup2\n      lt\n      tag_119\n      jumpi\n      tag_120\n      tag_108\n      jump\t// in\n    tag_120:\n    tag_119:\n      swap1\n      0x00\n      mstore\n      keccak256(0x00, 0x20)\n      add\n      0x00\n      swap1\n      sload\n      swap1\n      0x0100\n      exp\n      swap1\n      div\n      0xffffffffffffffffffffffffffffffffffffffff\n      and\n        /* \"contracts/Doc_Signing_M.sol\":2779:2827  whitelistedAccounts.push(whitelistedAccounts[i]) */\n      swap1\n      dup1\n      0x01\n      dup2\n      sload\n      add\n      dup1\n      dup3\n      sstore\n      dup1\n      swap2\n      pop\n      pop\n      0x01\n      swap1\n      sub\n      swap1\n      0x00\n      mstore\n      keccak256(0x00, 0x20)\n      add\n      0x00\n      swap1\n      swap2\n      swap1\n      swap2\n      swap1\n      swap2\n      0x0100\n      exp\n      dup2\n      sload\n      dup2\n      0xffffffffffffffffffffffffffffffffffffffff\n      mul\n      not\n      and\n      swap1\n      dup4\n      0xffffffffffffffffffffffffffffffffffffffff\n      and\n      mul\n      or\n      swap1\n      sstore\n      pop\n        /* \"contracts/Doc_Signing_M.sol\":2716:2842  if (manualWhitelist[whitelistedAccounts[i]]) {... */\n    tag_118:\n        /* \"contracts/Doc_Signing_M.sol\":2697:2700  i++ */\n      dup1\n      dup1\n      0x01\n      add\n      swap2\n      pop\n      pop\n        /* \"contracts/Doc_Signing_M.sol\":2645:2852  for (uint256 i = 0; i < whitelistedAccounts.length; i++) {... */\n      jump(tag_112)\n    tag_113:\n      pop\n        /* \"contracts/Doc_Signing_M.sol\":2913:2940  MerkleRootUpdated(_newRoot) */\n      0x90004c04698bc3322499a575ed3752dd4abf33e0a7294c06a787a0fe01bea941\n        /* \"contracts/Doc_Signing_M.sol\":2931:2939  _newRoot */\n      dup2\n        /* \"contracts/Doc_Signing_M.sol\":2913:2940  MerkleRootUpdated(_newRoot) */\n      mload(0x40)\n      tag_123\n      swap2\n      swap1\n      tag_35\n      jump\t// in\n    tag_123:\n      mload(0x40)\n      dup1\n      swap2\n      sub\n      swap1\n      log1\n        /* \"contracts/Doc_Signing_M.sol\":2177:2947  function updateMerkleRoot(bytes32 _newRoot) public onlyAdmin {... */\n      pop\n      jump\t// out\n        /* \"contracts/Doc_Signing_M.sol\":975:1010  uint256 public totalDocumentsSigned */\n    tag_46:\n      sload(0x06)\n      dup2\n      jump\t// out\n        /* \"contracts/Doc_Signing_M.sol\":6122:6238  function getWhitelistedAccounts() public view returns (address[] memory) {... */\n    tag_50:\n        /* \"contracts/Doc_Signing_M.sol\":6177:6193  address[] memory */\n      0x60\n        /* \"contracts/Doc_Signing_M.sol\":6212:6231  whitelistedAccounts */\n      0x05\n        /* \"contracts/Doc_Signing_M.sol\":6205:6231  return whitelistedAccounts */\n      dup1\n      sload\n      dup1\n      0x20\n      mul\n      0x20\n      add\n      mload(0x40)\n      swap1\n      dup2\n      add\n      0x40\n      mstore\n      dup1\n      swap3\n      swap2\n      swap1\n      dup2\n      dup2\n      mstore\n      0x20\n      add\n      dup3\n      dup1\n      sload\n      dup1\n      iszero\n      tag_125\n      jumpi\n      0x20\n      mul\n      dup3\n      add\n      swap2\n      swap1\n      0x00\n      mstore\n      keccak256(0x00, 0x20)\n      swap1\n    tag_126:\n      dup2\n      0x00\n      swap1\n      sload\n      swap1\n      0x0100\n      exp\n      swap1\n      div\n      0xffffffffffffffffffffffffffffffffffffffff\n      and\n      0xffffffffffffffffffffffffffffffffffffffff\n      and\n      dup2\n      mstore\n      0x20\n      add\n      swap1\n      0x01\n      add\n      swap1\n      dup1\n      dup4\n      gt\n      tag_126\n      jumpi\n    tag_125:\n      pop\n      pop\n      pop\n      pop\n      pop\n      swap1\n      pop\n        /* \"contracts/Doc_Signing_M.sol\":6122:6238  function getWhitelistedAccounts() public view returns (address[] memory) {... */\n      swap1\n      jump\t// out\n        /* \"contracts/Doc_Signing_M.sol\":4818:5017  function addAdmin(address account) public onlyOwner {... */\n    tag_55:\n        /* \"contracts/Doc_Signing_M.sol\":1396:1401  owner */\n      0x00\n      dup1\n      sload\n      swap1\n      0x0100\n      exp\n      swap1\n      div\n      0xffffffffffffffffffffffffffffffffffffffff\n      and\n        /* \"contracts/Doc_Signing_M.sol\":1382:1401  msg.sender == owner */\n      0xffffffffffffffffffffffffffffffffffffffff\n      and\n        /* \"contracts/Doc_Signing_M.sol\":1382:1392  msg.sender */\n      caller\n        /* \"contracts/Doc_Signing_M.sol\":1382:1401  msg.sender == owner */\n      0xffffffffffffffffffffffffffffffffffffffff\n      and\n      eq\n        /* \"contracts/Doc_Signing_M.sol\":1374:1444  require(msg.sender == owner, \"Only the owner can perform this action\") */\n      tag_128\n      jumpi\n      mload(0x40)\n      0x08c379a000000000000000000000000000000000000000000000000000000000\n      dup2\n      mstore\n      0x04\n      add\n      tag_129\n      swap1\n      tag_91\n      jump\t// in\n    tag_129:\n      mload(0x40)\n      dup1\n      swap2\n      sub\n      swap1\n      revert\n    tag_128:\n        /* \"contracts/Doc_Signing_M.sol\":4889:4895  admins */\n      0x03\n        /* \"contracts/Doc_Signing_M.sol\":4889:4904  admins[account] */\n      0x00\n        /* \"contracts/Doc_Signing_M.sol\":4896:4903  account */\n      dup3\n        /* \"contracts/Doc_Signing_M.sol\":4889:4904  admins[account] */\n      0xffffffffffffffffffffffffffffffffffffffff\n      and\n      0xffffffffffffffffffffffffffffffffffffffff\n      and\n      dup2\n      mstore\n      0x20\n      add\n      swap1\n      dup2\n      mstore\n      0x20\n      add\n      0x00\n      keccak256\n      0x00\n      swap1\n      sload\n      swap1\n      0x0100\n      exp\n      swap1\n      div\n      0xff\n      and\n        /* \"contracts/Doc_Signing_M.sol\":4888:4904  !admins[account] */\n      iszero\n        /* \"contracts/Doc_Signing_M.sol\":4880:4936  require(!admins[account], \"Address is already an admin\") */\n      tag_131\n      jumpi\n      mload(0x40)\n      0x08c379a000000000000000000000000000000000000000000000000000000000\n      dup2\n      mstore\n      0x04\n      add\n      tag_132\n      swap1\n      tag_133\n      jump\t// in\n    tag_132:\n      mload(0x40)\n      dup1\n      swap2\n      sub\n      swap1\n      revert\n    tag_131:\n        /* \"contracts/Doc_Signing_M.sol\":4964:4968  true */\n      0x01\n        /* \"contracts/Doc_Signing_M.sol\":4946:4952  admins */\n      0x03\n        /* \"contracts/Doc_Signing_M.sol\":4946:4961  admins[account] */\n      0x00\n        /* \"contracts/Doc_Signing_M.sol\":4953:4960  account */\n      dup4\n        /* \"contracts/Doc_Signing_M.sol\":4946:4961  admins[account] */\n      0xffffffffffffffffffffffffffffffffffffffff\n      and\n      0xffffffffffffffffffffffffffffffffffffffff\n      and\n      dup2\n      mstore\n      0x20\n      add\n      swap1\n      dup2\n      mstore\n      0x20\n      add\n      0x00\n      keccak256\n      0x00\n        /* \"contracts/Doc_Signing_M.sol\":4946:4968  admins[account] = true */\n      0x0100\n      exp\n      dup2\n      sload\n      dup2\n      0xff\n      mul\n      not\n      and\n      swap1\n      dup4\n      iszero\n      iszero\n      mul\n      or\n      swap1\n      sstore\n      pop\n        /* \"contracts/Doc_Signing_M.sol\":4996:5003  account */\n      dup1\n        /* \"contracts/Doc_Signing_M.sol\":4983:5010  AdminUpdated(account, true) */\n      0xffffffffffffffffffffffffffffffffffffffff\n      and\n      0x235bc17e7930760029e9f4d860a2a8089976de5b381cf8380fc11c1d88a11133\n        /* \"contracts/Doc_Signing_M.sol\":5005:5009  true */\n      0x01\n        /* \"contracts/Doc_Signing_M.sol\":4983:5010  AdminUpdated(account, true) */\n      mload(0x40)\n      tag_134\n      swap2\n      swap1\n      tag_40\n      jump\t// in\n    tag_134:\n      mload(0x40)\n      dup1\n      swap2\n      sub\n      swap1\n      log2\n        /* \"contracts/Doc_Signing_M.sol\":4818:5017  function addAdmin(address account) public onlyOwner {... */\n      pop\n      jump\t// out\n        /* \"contracts/Doc_Signing_M.sol\":6383:6974  function addMultipleToWhitelist(address[] calldata accounts)... */\n    tag_59:\n        /* \"contracts/Doc_Signing_M.sol\":1574:1580  admins */\n      0x03\n        /* \"contracts/Doc_Signing_M.sol\":1574:1592  admins[msg.sender] */\n      0x00\n        /* \"contracts/Doc_Signing_M.sol\":1581:1591  msg.sender */\n      caller\n        /* \"contracts/Doc_Signing_M.sol\":1574:1592  admins[msg.sender] */\n      0xffffffffffffffffffffffffffffffffffffffff\n      and\n      0xffffffffffffffffffffffffffffffffffffffff\n      and\n      dup2\n      mstore\n      0x20\n      add\n      swap1\n      dup2\n      mstore\n      0x20\n      add\n      0x00\n      keccak256\n      0x00\n      swap1\n      sload\n      swap1\n      0x0100\n      exp\n      swap1\n      div\n      0xff\n      and\n        /* \"contracts/Doc_Signing_M.sol\":1574:1615  admins[msg.sender] || msg.sender == owner */\n      dup1\n      tag_136\n      jumpi\n      pop\n        /* \"contracts/Doc_Signing_M.sol\":1610:1615  owner */\n      0x00\n      dup1\n      sload\n      swap1\n      0x0100\n      exp\n      swap1\n      div\n      0xffffffffffffffffffffffffffffffffffffffff\n      and\n        /* \"contracts/Doc_Signing_M.sol\":1596:1615  msg.sender == owner */\n      0xffffffffffffffffffffffffffffffffffffffff\n      and\n        /* \"contracts/Doc_Signing_M.sol\":1596:1606  msg.sender */\n      caller\n        /* \"contracts/Doc_Signing_M.sol\":1596:1615  msg.sender == owner */\n      0xffffffffffffffffffffffffffffffffffffffff\n      and\n      eq\n        /* \"contracts/Doc_Signing_M.sol\":1574:1615  admins[msg.sender] || msg.sender == owner */\n    tag_136:\n        /* \"contracts/Doc_Signing_M.sol\":1553:1678  require(... */\n      tag_137\n      jumpi\n      mload(0x40)\n      0x08c379a000000000000000000000000000000000000000000000000000000000\n      dup2\n      mstore\n      0x04\n      add\n      tag_138\n      swap1\n      tag_101\n      jump\t// in\n    tag_138:\n      mload(0x40)\n      dup1\n      swap2\n      sub\n      swap1\n      revert\n    tag_137:\n        /* \"contracts/Doc_Signing_M.sol\":6496:6505  uint256 i */\n      0x00\n        /* \"contracts/Doc_Signing_M.sol\":6491:6968  for (uint256 i = 0; i < accounts.length; i++) {... */\n    tag_140:\n        /* \"contracts/Doc_Signing_M.sol\":6515:6523  accounts */\n      dup3\n      dup3\n        /* \"contracts/Doc_Signing_M.sol\":6515:6530  accounts.length */\n      swap1\n      pop\n        /* \"contracts/Doc_Signing_M.sol\":6511:6512  i */\n      dup2\n        /* \"contracts/Doc_Signing_M.sol\":6511:6530  i < accounts.length */\n      lt\n        /* \"contracts/Doc_Signing_M.sol\":6491:6968  for (uint256 i = 0; i < accounts.length; i++) {... */\n      iszero\n      tag_141\n      jumpi\n        /* \"contracts/Doc_Signing_M.sol\":6551:6566  address account */\n      0x00\n        /* \"contracts/Doc_Signing_M.sol\":6569:6577  accounts */\n      dup4\n      dup4\n        /* \"contracts/Doc_Signing_M.sol\":6578:6579  i */\n      dup4\n        /* \"contracts/Doc_Signing_M.sol\":6569:6580  accounts[i] */\n      dup2\n      dup2\n      lt\n      tag_143\n      jumpi\n      tag_144\n      tag_108\n      jump\t// in\n    tag_144:\n    tag_143:\n      swap1\n      pop\n      0x20\n      mul\n      add\n      0x20\n      dup2\n      add\n      swap1\n      tag_145\n      swap2\n      swap1\n      tag_30\n      jump\t// in\n    tag_145:\n        /* \"contracts/Doc_Signing_M.sol\":6551:6580  address account = accounts[i] */\n      swap1\n      pop\n        /* \"contracts/Doc_Signing_M.sol\":6600:6615  manualWhitelist */\n      0x02\n        /* \"contracts/Doc_Signing_M.sol\":6600:6624  manualWhitelist[account] */\n      0x00\n        /* \"contracts/Doc_Signing_M.sol\":6616:6623  account */\n      dup3\n        /* \"contracts/Doc_Signing_M.sol\":6600:6624  manualWhitelist[account] */\n      0xffffffffffffffffffffffffffffffffffffffff\n      and\n      0xffffffffffffffffffffffffffffffffffffffff\n      and\n      dup2\n      mstore\n      0x20\n      add\n      swap1\n      dup2\n      mstore\n      0x20\n      add\n      0x00\n      keccak256\n      0x00\n      swap1\n      sload\n      swap1\n      0x0100\n      exp\n      swap1\n      div\n      0xff\n      and\n        /* \"contracts/Doc_Signing_M.sol\":6595:6958  if (!manualWhitelist[account]) {... */\n      tag_146\n      jumpi\n        /* \"contracts/Doc_Signing_M.sol\":6671:6675  true */\n      0x01\n        /* \"contracts/Doc_Signing_M.sol\":6644:6659  manualWhitelist */\n      0x02\n        /* \"contracts/Doc_Signing_M.sol\":6644:6668  manualWhitelist[account] */\n      0x00\n        /* \"contracts/Doc_Signing_M.sol\":6660:6667  account */\n      dup4\n        /* \"contracts/Doc_Signing_M.sol\":6644:6668  manualWhitelist[account] */\n      0xffffffffffffffffffffffffffffffffffffffff\n      and\n      0xffffffffffffffffffffffffffffffffffffffff\n      and\n      dup2\n      mstore\n      0x20\n      add\n      swap1\n      dup2\n      mstore\n      0x20\n      add\n      0x00\n      keccak256\n      0x00\n        /* \"contracts/Doc_Signing_M.sol\":6644:6675  manualWhitelist[account] = true */\n      0x0100\n      exp\n      dup2\n      sload\n      dup2\n      0xff\n      mul\n      not\n      and\n      swap1\n      dup4\n      iszero\n      iszero\n      mul\n      or\n      swap1\n      sstore\n      pop\n        /* \"contracts/Doc_Signing_M.sol\":6729:6730  0 */\n      0x00\n        /* \"contracts/Doc_Signing_M.sol\":6698:6716  whitelistTimestamp */\n      0x04\n        /* \"contracts/Doc_Signing_M.sol\":6698:6725  whitelistTimestamp[account] */\n      0x00\n        /* \"contracts/Doc_Signing_M.sol\":6717:6724  account */\n      dup4\n        /* \"contracts/Doc_Signing_M.sol\":6698:6725  whitelistTimestamp[account] */\n      0xffffffffffffffffffffffffffffffffffffffff\n      and\n      0xffffffffffffffffffffffffffffffffffffffff\n      and\n      dup2\n      mstore\n      0x20\n      add\n      swap1\n      dup2\n      mstore\n      0x20\n      add\n      0x00\n      keccak256\n      sload\n        /* \"contracts/Doc_Signing_M.sol\":6698:6730  whitelistTimestamp[account] == 0 */\n      sub\n        /* \"contracts/Doc_Signing_M.sol\":6694:6944  if (whitelistTimestamp[account] == 0) {... */\n      tag_147\n      jumpi\n        /* \"contracts/Doc_Signing_M.sol\":6784:6799  block.timestamp */\n      timestamp\n        /* \"contracts/Doc_Signing_M.sol\":6754:6772  whitelistTimestamp */\n      0x04\n        /* \"contracts/Doc_Signing_M.sol\":6754:6781  whitelistTimestamp[account] */\n      0x00\n        /* \"contracts/Doc_Signing_M.sol\":6773:6780  account */\n      dup4\n        /* \"contracts/Doc_Signing_M.sol\":6754:6781  whitelistTimestamp[account] */\n      0xffffffffffffffffffffffffffffffffffffffff\n      and\n      0xffffffffffffffffffffffffffffffffffffffff\n      and\n      dup2\n      mstore\n      0x20\n      add\n      swap1\n      dup2\n      mstore\n      0x20\n      add\n      0x00\n      keccak256\n        /* \"contracts/Doc_Signing_M.sol\":6754:6799  whitelistTimestamp[account] = block.timestamp */\n      dup2\n      swap1\n      sstore\n      pop\n        /* \"contracts/Doc_Signing_M.sol\":6821:6840  whitelistedAccounts */\n      0x05\n        /* \"contracts/Doc_Signing_M.sol\":6846:6853  account */\n      dup2\n        /* \"contracts/Doc_Signing_M.sol\":6821:6854  whitelistedAccounts.push(account) */\n      swap1\n      dup1\n      0x01\n      dup2\n      sload\n      add\n      dup1\n      dup3\n      sstore\n      dup1\n      swap2\n      pop\n      pop\n      0x01\n      swap1\n      sub\n      swap1\n      0x00\n      mstore\n      keccak256(0x00, 0x20)\n      add\n      0x00\n      swap1\n      swap2\n      swap1\n      swap2\n      swap1\n      swap2\n      0x0100\n      exp\n      dup2\n      sload\n      dup2\n      0xffffffffffffffffffffffffffffffffffffffff\n      mul\n      not\n      and\n      swap1\n      dup4\n      0xffffffffffffffffffffffffffffffffffffffff\n      and\n      mul\n      or\n      swap1\n      sstore\n      pop\n        /* \"contracts/Doc_Signing_M.sol\":6900:6907  account */\n      dup1\n        /* \"contracts/Doc_Signing_M.sol\":6881:6925  AccountWhitelisted(account, block.timestamp) */\n      0xffffffffffffffffffffffffffffffffffffffff\n      and\n      0xa49883ca390454a7ad754a5c01f6b92c7467a5daa38c2a935fbfb93f8bb2530f\n        /* \"contracts/Doc_Signing_M.sol\":6909:6924  block.timestamp */\n      timestamp\n        /* \"contracts/Doc_Signing_M.sol\":6881:6925  AccountWhitelisted(account, block.timestamp) */\n      mload(0x40)\n      tag_149\n      swap2\n      swap1\n      tag_48\n      jump\t// in\n    tag_149:\n      mload(0x40)\n      dup1\n      swap2\n      sub\n      swap1\n      log2\n        /* \"contracts/Doc_Signing_M.sol\":6694:6944  if (whitelistTimestamp[account] == 0) {... */\n    tag_147:\n        /* \"contracts/Doc_Signing_M.sol\":6595:6958  if (!manualWhitelist[account]) {... */\n    tag_146:\n        /* \"contracts/Doc_Signing_M.sol\":6537:6968  {... */\n      pop\n        /* \"contracts/Doc_Signing_M.sol\":6532:6535  i++ */\n      dup1\n      dup1\n      0x01\n      add\n      swap2\n      pop\n      pop\n        /* \"contracts/Doc_Signing_M.sol\":6491:6968  for (uint256 i = 0; i < accounts.length; i++) {... */\n      jump(tag_140)\n    tag_141:\n      pop\n        /* \"contracts/Doc_Signing_M.sol\":6383:6974  function addMultipleToWhitelist(address[] calldata accounts)... */\n      pop\n      pop\n      jump\t// out\n        /* \"contracts/Doc_Signing_M.sol\":458:478  address public owner */\n    tag_61:\n      0x00\n      dup1\n      sload\n      swap1\n      0x0100\n      exp\n      swap1\n      div\n      0xffffffffffffffffffffffffffffffffffffffff\n      and\n      dup2\n      jump\t// out\n        /* \"contracts/Doc_Signing_M.sol\":3788:4255  function whitelistAndTrack(bytes32[] calldata proof) public {... */\n    tag_66:\n        /* \"contracts/Doc_Signing_M.sol\":3866:3898  isWhitelisted(proof, msg.sender) */\n      tag_151\n        /* \"contracts/Doc_Signing_M.sol\":3880:3885  proof */\n      dup3\n      dup3\n        /* \"contracts/Doc_Signing_M.sol\":3887:3897  msg.sender */\n      caller\n        /* \"contracts/Doc_Signing_M.sol\":3866:3879  isWhitelisted */\n      tag_81\n        /* \"contracts/Doc_Signing_M.sol\":3866:3898  isWhitelisted(proof, msg.sender) */\n      jump\t// in\n    tag_151:\n        /* \"contracts/Doc_Signing_M.sol\":3858:3928  require(isWhitelisted(proof, msg.sender), \"Caller is not whitelisted\") */\n      tag_152\n      jumpi\n      mload(0x40)\n      0x08c379a000000000000000000000000000000000000000000000000000000000\n      dup2\n      mstore\n      0x04\n      add\n      tag_153\n      swap1\n      tag_154\n      jump\t// in\n    tag_153:\n      mload(0x40)\n      dup1\n      swap2\n      sub\n      swap1\n      revert\n    tag_152:\n        /* \"contracts/Doc_Signing_M.sol\":4057:4058  0 */\n      0x00\n        /* \"contracts/Doc_Signing_M.sol\":4023:4041  whitelistTimestamp */\n      0x04\n        /* \"contracts/Doc_Signing_M.sol\":4023:4053  whitelistTimestamp[msg.sender] */\n      0x00\n        /* \"contracts/Doc_Signing_M.sol\":4042:4052  msg.sender */\n      caller\n        /* \"contracts/Doc_Signing_M.sol\":4023:4053  whitelistTimestamp[msg.sender] */\n      0xffffffffffffffffffffffffffffffffffffffff\n      and\n      0xffffffffffffffffffffffffffffffffffffffff\n      and\n      dup2\n      mstore\n      0x20\n      add\n      swap1\n      dup2\n      mstore\n      0x20\n      add\n      0x00\n      keccak256\n      sload\n        /* \"contracts/Doc_Signing_M.sol\":4023:4058  whitelistTimestamp[msg.sender] == 0 */\n      sub\n        /* \"contracts/Doc_Signing_M.sol\":4019:4249  if (whitelistTimestamp[msg.sender] == 0) {... */\n      tag_155\n      jumpi\n        /* \"contracts/Doc_Signing_M.sol\":4107:4122  block.timestamp */\n      timestamp\n        /* \"contracts/Doc_Signing_M.sol\":4074:4092  whitelistTimestamp */\n      0x04\n        /* \"contracts/Doc_Signing_M.sol\":4074:4104  whitelistTimestamp[msg.sender] */\n      0x00\n        /* \"contracts/Doc_Signing_M.sol\":4093:4103  msg.sender */\n      caller\n        /* \"contracts/Doc_Signing_M.sol\":4074:4104  whitelistTimestamp[msg.sender] */\n      0xffffffffffffffffffffffffffffffffffffffff\n      and\n      0xffffffffffffffffffffffffffffffffffffffff\n      and\n      dup2\n      mstore\n      0x20\n      add\n      swap1\n      dup2\n      mstore\n      0x20\n      add\n      0x00\n      keccak256\n        /* \"contracts/Doc_Signing_M.sol\":4074:4122  whitelistTimestamp[msg.sender] = block.timestamp */\n      dup2\n      swap1\n      sstore\n      pop\n        /* \"contracts/Doc_Signing_M.sol\":4136:4155  whitelistedAccounts */\n      0x05\n        /* \"contracts/Doc_Signing_M.sol\":4161:4171  msg.sender */\n      caller\n        /* \"contracts/Doc_Signing_M.sol\":4136:4172  whitelistedAccounts.push(msg.sender) */\n      swap1\n      dup1\n      0x01\n      dup2\n      sload\n      add\n      dup1\n      dup3\n      sstore\n      dup1\n      swap2\n      pop\n      pop\n      0x01\n      swap1\n      sub\n      swap1\n      0x00\n      mstore\n      keccak256(0x00, 0x20)\n      add\n      0x00\n      swap1\n      swap2\n      swap1\n      swap2\n      swap1\n      swap2\n      0x0100\n      exp\n      dup2\n      sload\n      dup2\n      0xffffffffffffffffffffffffffffffffffffffff\n      mul\n      not\n      and\n      swap1\n      dup4\n      0xffffffffffffffffffffffffffffffffffffffff\n      and\n      mul\n      or\n      swap1\n      sstore\n      pop\n        /* \"contracts/Doc_Signing_M.sol\":4210:4220  msg.sender */\n      caller\n        /* \"contracts/Doc_Signing_M.sol\":4191:4238  AccountWhitelisted(msg.sender, block.timestamp) */\n      0xffffffffffffffffffffffffffffffffffffffff\n      and\n      0xa49883ca390454a7ad754a5c01f6b92c7467a5daa38c2a935fbfb93f8bb2530f\n        /* \"contracts/Doc_Signing_M.sol\":4222:4237  block.timestamp */\n      timestamp\n        /* \"contracts/Doc_Signing_M.sol\":4191:4238  AccountWhitelisted(msg.sender, block.timestamp) */\n      mload(0x40)\n      tag_157\n      swap2\n      swap1\n      tag_48\n      jump\t// in\n    tag_157:\n      mload(0x40)\n      dup1\n      swap2\n      sub\n      swap1\n      log2\n        /* \"contracts/Doc_Signing_M.sol\":4019:4249  if (whitelistTimestamp[msg.sender] == 0) {... */\n    tag_155:\n        /* \"contracts/Doc_Signing_M.sol\":3788:4255  function whitelistAndTrack(bytes32[] calldata proof) public {... */\n      pop\n      pop\n      jump\t// out\n        /* \"contracts/Doc_Signing_M.sol\":4369:4709  function signDocument(bytes32[] calldata proof) public {... */\n    tag_69:\n        /* \"contracts/Doc_Signing_M.sol\":4442:4474  isWhitelisted(proof, msg.sender) */\n      tag_159\n        /* \"contracts/Doc_Signing_M.sol\":4456:4461  proof */\n      dup3\n      dup3\n        /* \"contracts/Doc_Signing_M.sol\":4463:4473  msg.sender */\n      caller\n        /* \"contracts/Doc_Signing_M.sol\":4442:4455  isWhitelisted */\n      tag_81\n        /* \"contracts/Doc_Signing_M.sol\":4442:4474  isWhitelisted(proof, msg.sender) */\n      jump\t// in\n    tag_159:\n        /* \"contracts/Doc_Signing_M.sol\":4434:4504  require(isWhitelisted(proof, msg.sender), \"Caller is not whitelisted\") */\n      tag_160\n      jumpi\n      mload(0x40)\n      0x08c379a000000000000000000000000000000000000000000000000000000000\n      dup2\n      mstore\n      0x04\n      add\n      tag_161\n      swap1\n      tag_154\n      jump\t// in\n    tag_161:\n      mload(0x40)\n      dup1\n      swap2\n      sub\n      swap1\n      revert\n    tag_160:\n        /* \"contracts/Doc_Signing_M.sol\":4592:4593  1 */\n      0x01\n        /* \"contracts/Doc_Signing_M.sol\":4568:4588  totalDocumentsSigned */\n      0x06\n      0x00\n        /* \"contracts/Doc_Signing_M.sol\":4568:4593  totalDocumentsSigned += 1 */\n      dup3\n      dup3\n      sload\n      tag_162\n      swap2\n      swap1\n      tag_163\n      jump\t// in\n    tag_162:\n      swap3\n      pop\n      pop\n      dup2\n      swap1\n      sstore\n      pop\n        /* \"contracts/Doc_Signing_M.sol\":4674:4684  msg.sender */\n      caller\n        /* \"contracts/Doc_Signing_M.sol\":4659:4702  DocumentSigned(msg.sender, block.timestamp) */\n      0xffffffffffffffffffffffffffffffffffffffff\n      and\n      0xda29567229e1b858992f983785638370913b8134292eea489d9ccfc8f9711d98\n        /* \"contracts/Doc_Signing_M.sol\":4686:4701  block.timestamp */\n      timestamp\n        /* \"contracts/Doc_Signing_M.sol\":4659:4702  DocumentSigned(msg.sender, block.timestamp) */\n      mload(0x40)\n      tag_164\n      swap2\n      swap1\n      tag_48\n      jump\t// in\n    tag_164:\n      mload(0x40)\n      dup1\n      swap2\n      sub\n      swap1\n      log2\n        /* \"contracts/Doc_Signing_M.sol\":4369:4709  function signDocument(bytes32[] calldata proof) public {... */\n      pop\n      pop\n      jump\t// out\n        /* \"contracts/Doc_Signing_M.sol\":794:847  mapping(address => uint256) public whitelistTimestamp */\n    tag_72:\n      mstore(0x20, 0x04)\n      dup1\n      0x00\n      mstore\n      keccak256(0x00, 0x40)\n      0x00\n      swap2\n      pop\n      swap1\n      pop\n      sload\n      dup2\n      jump\t// out\n        /* \"contracts/Doc_Signing_M.sol\":607:654  mapping(address => bool) public manualWhitelist */\n    tag_76:\n      mstore(0x20, 0x02)\n      dup1\n      0x00\n      mstore\n      keccak256(0x00, 0x40)\n      0x00\n      swap2\n      pop\n      sload\n      swap1\n      0x0100\n      exp\n      swap1\n      div\n      0xff\n      and\n      dup2\n      jump\t// out\n        /* \"contracts/Doc_Signing_M.sol\":3217:3655  function isWhitelisted(bytes32[] calldata proof, address account)... */\n    tag_81:\n        /* \"contracts/Doc_Signing_M.sol\":3328:3332  bool */\n      0x00\n        /* \"contracts/Doc_Signing_M.sol\":3411:3426  manualWhitelist */\n      0x02\n        /* \"contracts/Doc_Signing_M.sol\":3411:3435  manualWhitelist[account] */\n      0x00\n        /* \"contracts/Doc_Signing_M.sol\":3427:3434  account */\n      dup4\n        /* \"contracts/Doc_Signing_M.sol\":3411:3435  manualWhitelist[account] */\n      0xffffffffffffffffffffffffffffffffffffffff\n      and\n      0xffffffffffffffffffffffffffffffffffffffff\n      and\n      dup2\n      mstore\n      0x20\n      add\n      swap1\n      dup2\n      mstore\n      0x20\n      add\n      0x00\n      keccak256\n      0x00\n      swap1\n      sload\n      swap1\n      0x0100\n      exp\n      swap1\n      div\n      0xff\n      and\n        /* \"contracts/Doc_Signing_M.sol\":3407:3473  if (manualWhitelist[account]) {... */\n      iszero\n      tag_166\n      jumpi\n        /* \"contracts/Doc_Signing_M.sol\":3458:3462  true */\n      0x01\n        /* \"contracts/Doc_Signing_M.sol\":3451:3462  return true */\n      swap1\n      pop\n      jump(tag_165)\n        /* \"contracts/Doc_Signing_M.sol\":3407:3473  if (manualWhitelist[account]) {... */\n    tag_166:\n        /* \"contracts/Doc_Signing_M.sol\":3537:3549  bytes32 leaf */\n      0x00\n        /* \"contracts/Doc_Signing_M.sol\":3579:3586  account */\n      dup3\n        /* \"contracts/Doc_Signing_M.sol\":3562:3587  abi.encodePacked(account) */\n      add(0x20, mload(0x40))\n      tag_167\n      swap2\n      swap1\n      tag_168\n      jump\t// in\n    tag_167:\n      mload(0x40)\n      0x20\n      dup2\n      dup4\n      sub\n      sub\n      dup2\n      mstore\n      swap1\n      0x40\n      mstore\n        /* \"contracts/Doc_Signing_M.sol\":3552:3588  keccak256(abi.encodePacked(account)) */\n      dup1\n      mload\n      swap1\n      0x20\n      add\n      keccak256\n        /* \"contracts/Doc_Signing_M.sol\":3537:3588  bytes32 leaf = keccak256(abi.encodePacked(account)) */\n      swap1\n      pop\n        /* \"contracts/Doc_Signing_M.sol\":3605:3648  MerkleProof.verify(proof, merkleRoot, leaf) */\n      tag_169\n        /* \"contracts/Doc_Signing_M.sol\":3624:3629  proof */\n      dup6\n      dup6\n        /* \"contracts/Doc_Signing_M.sol\":3605:3648  MerkleProof.verify(proof, merkleRoot, leaf) */\n      dup1\n      dup1\n      0x20\n      mul\n      0x20\n      add\n      mload(0x40)\n      swap1\n      dup2\n      add\n      0x40\n      mstore\n      dup1\n      swap4\n      swap3\n      swap2\n      swap1\n      dup2\n      dup2\n      mstore\n      0x20\n      add\n      dup4\n      dup4\n      0x20\n      mul\n      dup1\n      dup3\n      dup5\n      calldatacopy\n      0x00\n      dup2\n      dup5\n      add\n      mstore\n      not(0x1f)\n      0x1f\n      dup3\n      add\n      and\n      swap1\n      pop\n      dup1\n      dup4\n      add\n      swap3\n      pop\n      pop\n      pop\n      pop\n      pop\n      pop\n      pop\n        /* \"contracts/Doc_Signing_M.sol\":3631:3641  merkleRoot */\n      sload(0x01)\n        /* \"contracts/Doc_Signing_M.sol\":3643:3647  leaf */\n      dup4\n        /* \"contracts/Doc_Signing_M.sol\":3605:3623  MerkleProof.verify */\n      tag_170\n        /* \"contracts/Doc_Signing_M.sol\":3605:3648  MerkleProof.verify(proof, merkleRoot, leaf) */\n      jump\t// in\n    tag_169:\n        /* \"contracts/Doc_Signing_M.sol\":3598:3648  return MerkleProof.verify(proof, merkleRoot, leaf) */\n      swap2\n      pop\n      pop\n        /* \"contracts/Doc_Signing_M.sol\":3217:3655  function isWhitelisted(bytes32[] calldata proof, address account)... */\n    tag_165:\n      swap4\n      swap3\n      pop\n      pop\n      pop\n      jump\t// out\n        /* \"contracts/Doc_Signing_M.sol\":5447:6002  function addToWhitelist(address account) public onlyAdmin {... */\n    tag_85:\n        /* \"contracts/Doc_Signing_M.sol\":1574:1580  admins */\n      0x03\n        /* \"contracts/Doc_Signing_M.sol\":1574:1592  admins[msg.sender] */\n      0x00\n        /* \"contracts/Doc_Signing_M.sol\":1581:1591  msg.sender */\n      caller\n        /* \"contracts/Doc_Signing_M.sol\":1574:1592  admins[msg.sender] */\n      0xffffffffffffffffffffffffffffffffffffffff\n      and\n      0xffffffffffffffffffffffffffffffffffffffff\n      and\n      dup2\n      mstore\n      0x20\n      add\n      swap1\n      dup2\n      mstore\n      0x20\n      add\n      0x00\n      keccak256\n      0x00\n      swap1\n      sload\n      swap1\n      0x0100\n      exp\n      swap1\n      div\n      0xff\n      and\n        /* \"contracts/Doc_Signing_M.sol\":1574:1615  admins[msg.sender] || msg.sender == owner */\n      dup1\n      tag_172\n      jumpi\n      pop\n        /* \"contracts/Doc_Signing_M.sol\":1610:1615  owner */\n      0x00\n      dup1\n      sload\n      swap1\n      0x0100\n      exp\n      swap1\n      div\n      0xffffffffffffffffffffffffffffffffffffffff\n      and\n        /* \"contracts/Doc_Signing_M.sol\":1596:1615  msg.sender == owner */\n      0xffffffffffffffffffffffffffffffffffffffff\n      and\n        /* \"contracts/Doc_Signing_M.sol\":1596:1606  msg.sender */\n      caller\n        /* \"contracts/Doc_Signing_M.sol\":1596:1615  msg.sender == owner */\n      0xffffffffffffffffffffffffffffffffffffffff\n      and\n      eq\n        /* \"contracts/Doc_Signing_M.sol\":1574:1615  admins[msg.sender] || msg.sender == owner */\n    tag_172:\n        /* \"contracts/Doc_Signing_M.sol\":1553:1678  require(... */\n      tag_173\n      jumpi\n      mload(0x40)\n      0x08c379a000000000000000000000000000000000000000000000000000000000\n      dup2\n      mstore\n      0x04\n      add\n      tag_174\n      swap1\n      tag_101\n      jump\t// in\n    tag_174:\n      mload(0x40)\n      dup1\n      swap2\n      sub\n      swap1\n      revert\n    tag_173:\n        /* \"contracts/Doc_Signing_M.sol\":5537:5552  manualWhitelist */\n      0x02\n        /* \"contracts/Doc_Signing_M.sol\":5537:5561  manualWhitelist[account] */\n      0x00\n        /* \"contracts/Doc_Signing_M.sol\":5553:5560  account */\n      dup3\n        /* \"contracts/Doc_Signing_M.sol\":5537:5561  manualWhitelist[account] */\n      0xffffffffffffffffffffffffffffffffffffffff\n      and\n      0xffffffffffffffffffffffffffffffffffffffff\n      and\n      dup2\n      mstore\n      0x20\n      add\n      swap1\n      dup2\n      mstore\n      0x20\n      add\n      0x00\n      keccak256\n      0x00\n      swap1\n      sload\n      swap1\n      0x0100\n      exp\n      swap1\n      div\n      0xff\n      and\n        /* \"contracts/Doc_Signing_M.sol\":5536:5561  !manualWhitelist[account] */\n      iszero\n        /* \"contracts/Doc_Signing_M.sol\":5515:5626  require(... */\n      tag_176\n      jumpi\n      mload(0x40)\n      0x08c379a000000000000000000000000000000000000000000000000000000000\n      dup2\n      mstore\n      0x04\n      add\n      tag_177\n      swap1\n      tag_178\n      jump\t// in\n    tag_177:\n      mload(0x40)\n      dup1\n      swap2\n      sub\n      swap1\n      revert\n    tag_176:\n        /* \"contracts/Doc_Signing_M.sol\":5707:5711  true */\n      0x01\n        /* \"contracts/Doc_Signing_M.sol\":5680:5695  manualWhitelist */\n      0x02\n        /* \"contracts/Doc_Signing_M.sol\":5680:5704  manualWhitelist[account] */\n      0x00\n        /* \"contracts/Doc_Signing_M.sol\":5696:5703  account */\n      dup4\n        /* \"contracts/Doc_Signing_M.sol\":5680:5704  manualWhitelist[account] */\n      0xffffffffffffffffffffffffffffffffffffffff\n      and\n      0xffffffffffffffffffffffffffffffffffffffff\n      and\n      dup2\n      mstore\n      0x20\n      add\n      swap1\n      dup2\n      mstore\n      0x20\n      add\n      0x00\n      keccak256\n      0x00\n        /* \"contracts/Doc_Signing_M.sol\":5680:5711  manualWhitelist[account] = true */\n      0x0100\n      exp\n      dup2\n      sload\n      dup2\n      0xff\n      mul\n      not\n      and\n      swap1\n      dup4\n      iszero\n      iszero\n      mul\n      or\n      swap1\n      sstore\n      pop\n        /* \"contracts/Doc_Signing_M.sol\":5816:5817  0 */\n      0x00\n        /* \"contracts/Doc_Signing_M.sol\":5785:5803  whitelistTimestamp */\n      0x04\n        /* \"contracts/Doc_Signing_M.sol\":5785:5812  whitelistTimestamp[account] */\n      0x00\n        /* \"contracts/Doc_Signing_M.sol\":5804:5811  account */\n      dup4\n        /* \"contracts/Doc_Signing_M.sol\":5785:5812  whitelistTimestamp[account] */\n      0xffffffffffffffffffffffffffffffffffffffff\n      and\n      0xffffffffffffffffffffffffffffffffffffffff\n      and\n      dup2\n      mstore\n      0x20\n      add\n      swap1\n      dup2\n      mstore\n      0x20\n      add\n      0x00\n      keccak256\n      sload\n        /* \"contracts/Doc_Signing_M.sol\":5785:5817  whitelistTimestamp[account] == 0 */\n      sub\n        /* \"contracts/Doc_Signing_M.sol\":5781:5936  if (whitelistTimestamp[account] == 0) {... */\n      tag_179\n      jumpi\n        /* \"contracts/Doc_Signing_M.sol\":5863:5878  block.timestamp */\n      timestamp\n        /* \"contracts/Doc_Signing_M.sol\":5833:5851  whitelistTimestamp */\n      0x04\n        /* \"contracts/Doc_Signing_M.sol\":5833:5860  whitelistTimestamp[account] */\n      0x00\n        /* \"contracts/Doc_Signing_M.sol\":5852:5859  account */\n      dup4\n        /* \"contracts/Doc_Signing_M.sol\":5833:5860  whitelistTimestamp[account] */\n      0xffffffffffffffffffffffffffffffffffffffff\n      and\n      0xffffffffffffffffffffffffffffffffffffffff\n      and\n      dup2\n      mstore\n      0x20\n      add\n      swap1\n      dup2\n      mstore\n      0x20\n      add\n      0x00\n      keccak256\n        /* \"contracts/Doc_Signing_M.sol\":5833:5878  whitelistTimestamp[account] = block.timestamp */\n      dup2\n      swap1\n      sstore\n      pop\n        /* \"contracts/Doc_Signing_M.sol\":5892:5911  whitelistedAccounts */\n      0x05\n        /* \"contracts/Doc_Signing_M.sol\":5917:5924  account */\n      dup2\n        /* \"contracts/Doc_Signing_M.sol\":5892:5925  whitelistedAccounts.push(account) */\n      swap1\n      dup1\n      0x01\n      dup2\n      sload\n      add\n      dup1\n      dup3\n      sstore\n      dup1\n      swap2\n      pop\n      pop\n      0x01\n      swap1\n      sub\n      swap1\n      0x00\n      mstore\n      keccak256(0x00, 0x20)\n      add\n      0x00\n      swap1\n      swap2\n      swap1\n      swap2\n      swap1\n      swap2\n      0x0100\n      exp\n      dup2\n      sload\n      dup2\n      0xffffffffffffffffffffffffffffffffffffffff\n      mul\n      not\n      and\n      swap1\n      dup4\n      0xffffffffffffffffffffffffffffffffffffffff\n      and\n      mul\n      or\n      swap1\n      sstore\n      pop\n        /* \"contracts/Doc_Signing_M.sol\":5781:5936  if (whitelistTimestamp[account] == 0) {... */\n    tag_179:\n        /* \"contracts/Doc_Signing_M.sol\":5970:5977  account */\n      dup1\n        /* \"contracts/Doc_Signing_M.sol\":5951:5995  AccountWhitelisted(account, block.timestamp) */\n      0xffffffffffffffffffffffffffffffffffffffff\n      and\n      0xa49883ca390454a7ad754a5c01f6b92c7467a5daa38c2a935fbfb93f8bb2530f\n        /* \"contracts/Doc_Signing_M.sol\":5979:5994  block.timestamp */\n      timestamp\n        /* \"contracts/Doc_Signing_M.sol\":5951:5995  AccountWhitelisted(account, block.timestamp) */\n      mload(0x40)\n      tag_181\n      swap2\n      swap1\n      tag_48\n      jump\t// in\n    tag_181:\n      mload(0x40)\n      dup1\n      swap2\n      sub\n      swap1\n      log2\n        /* \"contracts/Doc_Signing_M.sol\":5447:6002  function addToWhitelist(address account) public onlyAdmin {... */\n      pop\n      jump\t// out\n        /* \"@openzeppelin/contracts/utils/cryptography/MerkleProof.sol\":1902:2056  function verify(bytes32[] memory proof, bytes32 root, bytes32 leaf) internal pure returns (bool) {... */\n    tag_170:\n        /* \"@openzeppelin/contracts/utils/cryptography/MerkleProof.sol\":1993:1997  bool */\n      0x00\n        /* \"@openzeppelin/contracts/utils/cryptography/MerkleProof.sol\":2045:2049  root */\n      dup3\n        /* \"@openzeppelin/contracts/utils/cryptography/MerkleProof.sol\":2016:2041  processProof(proof, leaf) */\n      tag_183\n        /* \"@openzeppelin/contracts/utils/cryptography/MerkleProof.sol\":2029:2034  proof */\n      dup6\n        /* \"@openzeppelin/contracts/utils/cryptography/MerkleProof.sol\":2036:2040  leaf */\n      dup5\n        /* \"@openzeppelin/contracts/utils/cryptography/MerkleProof.sol\":2016:2028  processProof */\n      tag_184\n        /* \"@openzeppelin/contracts/utils/cryptography/MerkleProof.sol\":2016:2041  processProof(proof, leaf) */\n      jump\t// in\n    tag_183:\n        /* \"@openzeppelin/contracts/utils/cryptography/MerkleProof.sol\":2016:2049  processProof(proof, leaf) == root */\n      eq\n        /* \"@openzeppelin/contracts/utils/cryptography/MerkleProof.sol\":2009:2049  return processProof(proof, leaf) == root */\n      swap1\n      pop\n        /* \"@openzeppelin/contracts/utils/cryptography/MerkleProof.sol\":1902:2056  function verify(bytes32[] memory proof, bytes32 root, bytes32 leaf) internal pure returns (bool) {... */\n      swap4\n      swap3\n      pop\n      pop\n      pop\n      jump\t// out\n        /* \"@openzeppelin/contracts/utils/cryptography/MerkleProof.sol\":2457:2765  function processProof(bytes32[] memory proof, bytes32 leaf) internal pure returns (bytes32) {... */\n    tag_184:\n        /* \"@openzeppelin/contracts/utils/cryptography/MerkleProof.sol\":2540:2547  bytes32 */\n      0x00\n        /* \"@openzeppelin/contracts/utils/cryptography/MerkleProof.sol\":2559:2579  bytes32 computedHash */\n      dup1\n        /* \"@openzeppelin/contracts/utils/cryptography/MerkleProof.sol\":2582:2586  leaf */\n      dup3\n        /* \"@openzeppelin/contracts/utils/cryptography/MerkleProof.sol\":2559:2586  bytes32 computedHash = leaf */\n      swap1\n      pop\n        /* \"@openzeppelin/contracts/utils/cryptography/MerkleProof.sol\":2601:2610  uint256 i */\n      0x00\n        /* \"@openzeppelin/contracts/utils/cryptography/MerkleProof.sol\":2596:2730  for (uint256 i = 0; i < proof.length; i++) {... */\n    tag_186:\n        /* \"@openzeppelin/contracts/utils/cryptography/MerkleProof.sol\":2620:2625  proof */\n      dup5\n        /* \"@openzeppelin/contracts/utils/cryptography/MerkleProof.sol\":2620:2632  proof.length */\n      mload\n        /* \"@openzeppelin/contracts/utils/cryptography/MerkleProof.sol\":2616:2617  i */\n      dup2\n        /* \"@openzeppelin/contracts/utils/cryptography/MerkleProof.sol\":2616:2632  i < proof.length */\n      lt\n        /* \"@openzeppelin/contracts/utils/cryptography/MerkleProof.sol\":2596:2730  for (uint256 i = 0; i < proof.length; i++) {... */\n      iszero\n      tag_187\n      jumpi\n        /* \"@openzeppelin/contracts/utils/cryptography/MerkleProof.sol\":2668:2719  Hashes.commutativeKeccak256(computedHash, proof[i]) */\n      tag_189\n        /* \"@openzeppelin/contracts/utils/cryptography/MerkleProof.sol\":2696:2708  computedHash */\n      dup3\n        /* \"@openzeppelin/contracts/utils/cryptography/MerkleProof.sol\":2710:2715  proof */\n      dup7\n        /* \"@openzeppelin/contracts/utils/cryptography/MerkleProof.sol\":2716:2717  i */\n      dup4\n        /* \"@openzeppelin/contracts/utils/cryptography/MerkleProof.sol\":2710:2718  proof[i] */\n      dup2\n      mload\n      dup2\n      lt\n      tag_190\n      jumpi\n      tag_191\n      tag_108\n      jump\t// in\n    tag_191:\n    tag_190:\n      0x20\n      mul\n      0x20\n      add\n      add\n      mload\n        /* \"@openzeppelin/contracts/utils/cryptography/MerkleProof.sol\":2668:2695  Hashes.commutativeKeccak256 */\n      tag_192\n        /* \"@openzeppelin/contracts/utils/cryptography/MerkleProof.sol\":2668:2719  Hashes.commutativeKeccak256(computedHash, proof[i]) */\n      jump\t// in\n    tag_189:\n        /* \"@openzeppelin/contracts/utils/cryptography/MerkleProof.sol\":2653:2719  computedHash = Hashes.commutativeKeccak256(computedHash, proof[i]) */\n      swap2\n      pop\n        /* \"@openzeppelin/contracts/utils/cryptography/MerkleProof.sol\":2634:2637  i++ */\n      dup1\n      dup1\n      0x01\n      add\n      swap2\n      pop\n      pop\n        /* \"@openzeppelin/contracts/utils/cryptography/MerkleProof.sol\":2596:2730  for (uint256 i = 0; i < proof.length; i++) {... */\n      jump(tag_186)\n    tag_187:\n      pop\n        /* \"@openzeppelin/contracts/utils/cryptography/MerkleProof.sol\":2746:2758  computedHash */\n      dup1\n        /* \"@openzeppelin/contracts/utils/cryptography/MerkleProof.sol\":2739:2758  return computedHash */\n      swap2\n      pop\n      pop\n        /* \"@openzeppelin/contracts/utils/cryptography/MerkleProof.sol\":2457:2765  function processProof(bytes32[] memory proof, bytes32 leaf) internal pure returns (bytes32) {... */\n      swap3\n      swap2\n      pop\n      pop\n      jump\t// out\n        /* \"@openzeppelin/contracts/utils/cryptography/Hashes.sol\":504:673  function commutativeKeccak256(bytes32 a, bytes32 b) internal pure returns (bytes32) {... */\n    tag_192:\n        /* \"@openzeppelin/contracts/utils/cryptography/Hashes.sol\":579:586  bytes32 */\n      0x00\n        /* \"@openzeppelin/contracts/utils/cryptography/Hashes.sol\":609:610  b */\n      dup2\n        /* \"@openzeppelin/contracts/utils/cryptography/Hashes.sol\":605:606  a */\n      dup4\n        /* \"@openzeppelin/contracts/utils/cryptography/Hashes.sol\":605:610  a < b */\n      lt\n        /* \"@openzeppelin/contracts/utils/cryptography/Hashes.sol\":605:666  a < b ? _efficientKeccak256(a, b) : _efficientKeccak256(b, a) */\n      tag_194\n      jumpi\n        /* \"@openzeppelin/contracts/utils/cryptography/Hashes.sol\":641:666  _efficientKeccak256(b, a) */\n      tag_195\n        /* \"@openzeppelin/contracts/utils/cryptography/Hashes.sol\":661:662  b */\n      dup3\n        /* \"@openzeppelin/contracts/utils/cryptography/Hashes.sol\":664:665  a */\n      dup5\n        /* \"@openzeppelin/contracts/utils/cryptography/Hashes.sol\":641:660  _efficientKeccak256 */\n      tag_196\n        /* \"@openzeppelin/contracts/utils/cryptography/Hashes.sol\":641:666  _efficientKeccak256(b, a) */\n      jump\t// in\n    tag_195:\n        /* \"@openzeppelin/contracts/utils/cryptography/Hashes.sol\":605:666  a < b ? _efficientKeccak256(a, b) : _efficientKeccak256(b, a) */\n      jump(tag_197)\n    tag_194:\n        /* \"@openzeppelin/contracts/utils/cryptography/Hashes.sol\":613:638  _efficientKeccak256(a, b) */\n      tag_198\n        /* \"@openzeppelin/contracts/utils/cryptography/Hashes.sol\":633:634  a */\n      dup4\n        /* \"@openzeppelin/contracts/utils/cryptography/Hashes.sol\":636:637  b */\n      dup4\n        /* \"@openzeppelin/contracts/utils/cryptography/Hashes.sol\":613:632  _efficientKeccak256 */\n      tag_196\n        /* \"@openzeppelin/contracts/utils/cryptography/Hashes.sol\":613:638  _efficientKeccak256(a, b) */\n      jump\t// in\n    tag_198:\n        /* \"@openzeppelin/contracts/utils/cryptography/Hashes.sol\":605:666  a < b ? _efficientKeccak256(a, b) : _efficientKeccak256(b, a) */\n    tag_197:\n        /* \"@openzeppelin/contracts/utils/cryptography/Hashes.sol\":598:666  return a < b ? _efficientKeccak256(a, b) : _efficientKeccak256(b, a) */\n      swap1\n      pop\n        /* \"@openzeppelin/contracts/utils/cryptography/Hashes.sol\":504:673  function commutativeKeccak256(bytes32 a, bytes32 b) internal pure returns (bytes32) {... */\n      swap3\n      swap2\n      pop\n      pop\n      jump\t// out\n        /* \"@openzeppelin/contracts/utils/cryptography/Hashes.sol\":793:1032  function _efficientKeccak256(bytes32 a, bytes32 b) private pure returns (bytes32 value) {... */\n    tag_196:\n        /* \"@openzeppelin/contracts/utils/cryptography/Hashes.sol\":866:879  bytes32 value */\n      0x00\n        /* \"@openzeppelin/contracts/utils/cryptography/Hashes.sol\":943:944  a */\n      dup3\n        /* \"@openzeppelin/contracts/utils/cryptography/Hashes.sol\":937:941  0x00 */\n      0x00\n        /* \"@openzeppelin/contracts/utils/cryptography/Hashes.sol\":930:945  mstore(0x00, a) */\n      mstore\n        /* \"@openzeppelin/contracts/utils/cryptography/Hashes.sol\":971:972  b */\n      dup2\n        /* \"@openzeppelin/contracts/utils/cryptography/Hashes.sol\":965:969  0x20 */\n      0x20\n        /* \"@openzeppelin/contracts/utils/cryptography/Hashes.sol\":958:973  mstore(0x20, b) */\n      mstore\n        /* \"@openzeppelin/contracts/utils/cryptography/Hashes.sol\":1011:1015  0x40 */\n      0x40\n        /* \"@openzeppelin/contracts/utils/cryptography/Hashes.sol\":1005:1009  0x00 */\n      0x00\n        /* \"@openzeppelin/contracts/utils/cryptography/Hashes.sol\":995:1016  keccak256(0x00, 0x40) */\n      keccak256\n        /* \"@openzeppelin/contracts/utils/cryptography/Hashes.sol\":986:1016  value := keccak256(0x00, 0x40) */\n      swap1\n      pop\n        /* \"@openzeppelin/contracts/utils/cryptography/Hashes.sol\":793:1032  function _efficientKeccak256(bytes32 a, bytes32 b) private pure returns (bytes32 value) {... */\n      swap3\n      swap2\n      pop\n      pop\n      jump\t// out\n    tag_111:\n      pop\n      dup1\n      sload\n      0x00\n      dup3\n      sstore\n      swap1\n      0x00\n      mstore\n      keccak256(0x00, 0x20)\n      swap1\n      dup2\n      add\n      swap1\n      tag_201\n      swap2\n      swap1\n      tag_202\n      jump\t// in\n    tag_201:\n      pop\n      jump\t// out\n    tag_202:\n    tag_203:\n      dup1\n      dup3\n      gt\n      iszero\n      tag_204\n      jumpi\n      0x00\n      dup2\n      0x00\n      swap1\n      sstore\n      pop\n      0x01\n      add\n      jump(tag_203)\n    tag_204:\n      pop\n      swap1\n      jump\t// out\n        /* \"#utility.yul\":88:205   */\n    tag_206:\n        /* \"#utility.yul\":197:198   */\n      0x00\n        /* \"#utility.yul\":194:195   */\n      dup1\n        /* \"#utility.yul\":187:199   */\n      revert\n        /* \"#utility.yul\":211:328   */\n    tag_207:\n        /* \"#utility.yul\":320:321   */\n      0x00\n        /* \"#utility.yul\":317:318   */\n      dup1\n        /* \"#utility.yul\":310:322   */\n      revert\n        /* \"#utility.yul\":334:411   */\n    tag_208:\n        /* \"#utility.yul\":371:378   */\n      0x00\n        /* \"#utility.yul\":400:405   */\n      dup2\n        /* \"#utility.yul\":389:405   */\n      swap1\n      pop\n        /* \"#utility.yul\":334:411   */\n      swap2\n      swap1\n      pop\n      jump\t// out\n        /* \"#utility.yul\":417:539   */\n    tag_209:\n        /* \"#utility.yul\":490:514   */\n      tag_259\n        /* \"#utility.yul\":508:513   */\n      dup2\n        /* \"#utility.yul\":490:514   */\n      tag_208\n      jump\t// in\n    tag_259:\n        /* \"#utility.yul\":483:488   */\n      dup2\n        /* \"#utility.yul\":480:515   */\n      eq\n        /* \"#utility.yul\":470:533   */\n      tag_260\n      jumpi\n        /* \"#utility.yul\":529:530   */\n      0x00\n        /* \"#utility.yul\":526:527   */\n      dup1\n        /* \"#utility.yul\":519:531   */\n      revert\n        /* \"#utility.yul\":470:533   */\n    tag_260:\n        /* \"#utility.yul\":417:539   */\n      pop\n      jump\t// out\n        /* \"#utility.yul\":545:684   */\n    tag_210:\n        /* \"#utility.yul\":591:596   */\n      0x00\n        /* \"#utility.yul\":629:635   */\n      dup2\n        /* \"#utility.yul\":616:636   */\n      calldataload\n        /* \"#utility.yul\":607:636   */\n      swap1\n      pop\n        /* \"#utility.yul\":645:678   */\n      tag_262\n        /* \"#utility.yul\":672:677   */\n      dup2\n        /* \"#utility.yul\":645:678   */\n      tag_209\n      jump\t// in\n    tag_262:\n        /* \"#utility.yul\":545:684   */\n      swap3\n      swap2\n      pop\n      pop\n      jump\t// out\n        /* \"#utility.yul\":690:1019   */\n    tag_24:\n        /* \"#utility.yul\":749:755   */\n      0x00\n        /* \"#utility.yul\":798:800   */\n      0x20\n        /* \"#utility.yul\":786:795   */\n      dup3\n        /* \"#utility.yul\":777:784   */\n      dup5\n        /* \"#utility.yul\":773:796   */\n      sub\n        /* \"#utility.yul\":769:801   */\n      slt\n        /* \"#utility.yul\":766:885   */\n      iszero\n      tag_264\n      jumpi\n        /* \"#utility.yul\":804:883   */\n      tag_265\n      tag_206\n      jump\t// in\n    tag_265:\n        /* \"#utility.yul\":766:885   */\n    tag_264:\n        /* \"#utility.yul\":924:925   */\n      0x00\n        /* \"#utility.yul\":949:1002   */\n      tag_266\n        /* \"#utility.yul\":994:1001   */\n      dup5\n        /* \"#utility.yul\":985:991   */\n      dup3\n        /* \"#utility.yul\":974:983   */\n      dup6\n        /* \"#utility.yul\":970:992   */\n      add\n        /* \"#utility.yul\":949:1002   */\n      tag_210\n      jump\t// in\n    tag_266:\n        /* \"#utility.yul\":939:1002   */\n      swap2\n      pop\n        /* \"#utility.yul\":895:1012   */\n      pop\n        /* \"#utility.yul\":690:1019   */\n      swap3\n      swap2\n      pop\n      pop\n      jump\t// out\n        /* \"#utility.yul\":1025:1151   */\n    tag_211:\n        /* \"#utility.yul\":1062:1069   */\n      0x00\n        /* \"#utility.yul\":1102:1144   */\n      0xffffffffffffffffffffffffffffffffffffffff\n        /* \"#utility.yul\":1095:1100   */\n      dup3\n        /* \"#utility.yul\":1091:1145   */\n      and\n        /* \"#utility.yul\":1080:1145   */\n      swap1\n      pop\n        /* \"#utility.yul\":1025:1151   */\n      swap2\n      swap1\n      pop\n      jump\t// out\n        /* \"#utility.yul\":1157:1253   */\n    tag_212:\n        /* \"#utility.yul\":1194:1201   */\n      0x00\n        /* \"#utility.yul\":1223:1247   */\n      tag_269\n        /* \"#utility.yul\":1241:1246   */\n      dup3\n        /* \"#utility.yul\":1223:1247   */\n      tag_211\n      jump\t// in\n    tag_269:\n        /* \"#utility.yul\":1212:1247   */\n      swap1\n      pop\n        /* \"#utility.yul\":1157:1253   */\n      swap2\n      swap1\n      pop\n      jump\t// out\n        /* \"#utility.yul\":1259:1377   */\n    tag_213:\n        /* \"#utility.yul\":1346:1370   */\n      tag_271\n        /* \"#utility.yul\":1364:1369   */\n      dup2\n        /* \"#utility.yul\":1346:1370   */\n      tag_212\n      jump\t// in\n    tag_271:\n        /* \"#utility.yul\":1341:1344   */\n      dup3\n        /* \"#utility.yul\":1334:1371   */\n      mstore\n        /* \"#utility.yul\":1259:1377   */\n      pop\n      pop\n      jump\t// out\n        /* \"#utility.yul\":1383:1605   */\n    tag_27:\n        /* \"#utility.yul\":1476:1480   */\n      0x00\n        /* \"#utility.yul\":1514:1516   */\n      0x20\n        /* \"#utility.yul\":1503:1512   */\n      dup3\n        /* \"#utility.yul\":1499:1517   */\n      add\n        /* \"#utility.yul\":1491:1517   */\n      swap1\n      pop\n        /* \"#utility.yul\":1527:1598   */\n      tag_273\n        /* \"#utility.yul\":1595:1596   */\n      0x00\n        /* \"#utility.yul\":1584:1593   */\n      dup4\n        /* \"#utility.yul\":1580:1597   */\n      add\n        /* \"#utility.yul\":1571:1577   */\n      dup5\n        /* \"#utility.yul\":1527:1598   */\n      tag_213\n      jump\t// in\n    tag_273:\n        /* \"#utility.yul\":1383:1605   */\n      swap3\n      swap2\n      pop\n      pop\n      jump\t// out\n        /* \"#utility.yul\":1611:1733   */\n    tag_214:\n        /* \"#utility.yul\":1684:1708   */\n      tag_275\n        /* \"#utility.yul\":1702:1707   */\n      dup2\n        /* \"#utility.yul\":1684:1708   */\n      tag_212\n      jump\t// in\n    tag_275:\n        /* \"#utility.yul\":1677:1682   */\n      dup2\n        /* \"#utility.yul\":1674:1709   */\n      eq\n        /* \"#utility.yul\":1664:1727   */\n      tag_276\n      jumpi\n        /* \"#utility.yul\":1723:1724   */\n      0x00\n        /* \"#utility.yul\":1720:1721   */\n      dup1\n        /* \"#utility.yul\":1713:1725   */\n      revert\n        /* \"#utility.yul\":1664:1727   */\n    tag_276:\n        /* \"#utility.yul\":1611:1733   */\n      pop\n      jump\t// out\n        /* \"#utility.yul\":1739:1878   */\n    tag_215:\n        /* \"#utility.yul\":1785:1790   */\n      0x00\n        /* \"#utility.yul\":1823:1829   */\n      dup2\n        /* \"#utility.yul\":1810:1830   */\n      calldataload\n        /* \"#utility.yul\":1801:1830   */\n      swap1\n      pop\n        /* \"#utility.yul\":1839:1872   */\n      tag_278\n        /* \"#utility.yul\":1866:1871   */\n      dup2\n        /* \"#utility.yul\":1839:1872   */\n      tag_214\n      jump\t// in\n    tag_278:\n        /* \"#utility.yul\":1739:1878   */\n      swap3\n      swap2\n      pop\n      pop\n      jump\t// out\n        /* \"#utility.yul\":1884:2213   */\n    tag_30:\n        /* \"#utility.yul\":1943:1949   */\n      0x00\n        /* \"#utility.yul\":1992:1994   */\n      0x20\n        /* \"#utility.yul\":1980:1989   */\n      dup3\n        /* \"#utility.yul\":1971:1978   */\n      dup5\n        /* \"#utility.yul\":1967:1990   */\n      sub\n        /* \"#utility.yul\":1963:1995   */\n      slt\n        /* \"#utility.yul\":1960:2079   */\n      iszero\n      tag_280\n      jumpi\n        /* \"#utility.yul\":1998:2077   */\n      tag_281\n      tag_206\n      jump\t// in\n    tag_281:\n        /* \"#utility.yul\":1960:2079   */\n    tag_280:\n        /* \"#utility.yul\":2118:2119   */\n      0x00\n        /* \"#utility.yul\":2143:2196   */\n      tag_282\n        /* \"#utility.yul\":2188:2195   */\n      dup5\n        /* \"#utility.yul\":2179:2185   */\n      dup3\n        /* \"#utility.yul\":2168:2177   */\n      dup6\n        /* \"#utility.yul\":2164:2186   */\n      add\n        /* \"#utility.yul\":2143:2196   */\n      tag_215\n      jump\t// in\n    tag_282:\n        /* \"#utility.yul\":2133:2196   */\n      swap2\n      pop\n        /* \"#utility.yul\":2089:2206   */\n      pop\n        /* \"#utility.yul\":1884:2213   */\n      swap3\n      swap2\n      pop\n      pop\n      jump\t// out\n        /* \"#utility.yul\":2219:2296   */\n    tag_216:\n        /* \"#utility.yul\":2256:2263   */\n      0x00\n        /* \"#utility.yul\":2285:2290   */\n      dup2\n        /* \"#utility.yul\":2274:2290   */\n      swap1\n      pop\n        /* \"#utility.yul\":2219:2296   */\n      swap2\n      swap1\n      pop\n      jump\t// out\n        /* \"#utility.yul\":2302:2420   */\n    tag_217:\n        /* \"#utility.yul\":2389:2413   */\n      tag_285\n        /* \"#utility.yul\":2407:2412   */\n      dup2\n        /* \"#utility.yul\":2389:2413   */\n      tag_216\n      jump\t// in\n    tag_285:\n        /* \"#utility.yul\":2384:2387   */\n      dup3\n        /* \"#utility.yul\":2377:2414   */\n      mstore\n        /* \"#utility.yul\":2302:2420   */\n      pop\n      pop\n      jump\t// out\n        /* \"#utility.yul\":2426:2648   */\n    tag_35:\n        /* \"#utility.yul\":2519:2523   */\n      0x00\n        /* \"#utility.yul\":2557:2559   */\n      0x20\n        /* \"#utility.yul\":2546:2555   */\n      dup3\n        /* \"#utility.yul\":2542:2560   */\n      add\n        /* \"#utility.yul\":2534:2560   */\n      swap1\n      pop\n        /* \"#utility.yul\":2570:2641   */\n      tag_287\n        /* \"#utility.yul\":2638:2639   */\n      0x00\n        /* \"#utility.yul\":2627:2636   */\n      dup4\n        /* \"#utility.yul\":2623:2640   */\n      add\n        /* \"#utility.yul\":2614:2620   */\n      dup5\n        /* \"#utility.yul\":2570:2641   */\n      tag_217\n      jump\t// in\n    tag_287:\n        /* \"#utility.yul\":2426:2648   */\n      swap3\n      swap2\n      pop\n      pop\n      jump\t// out\n        /* \"#utility.yul\":2654:2744   */\n    tag_218:\n        /* \"#utility.yul\":2688:2695   */\n      0x00\n        /* \"#utility.yul\":2731:2736   */\n      dup2\n        /* \"#utility.yul\":2724:2737   */\n      iszero\n        /* \"#utility.yul\":2717:2738   */\n      iszero\n        /* \"#utility.yul\":2706:2738   */\n      swap1\n      pop\n        /* \"#utility.yul\":2654:2744   */\n      swap2\n      swap1\n      pop\n      jump\t// out\n        /* \"#utility.yul\":2750:2859   */\n    tag_219:\n        /* \"#utility.yul\":2831:2852   */\n      tag_290\n        /* \"#utility.yul\":2846:2851   */\n      dup2\n        /* \"#utility.yul\":2831:2852   */\n      tag_218\n      jump\t// in\n    tag_290:\n        /* \"#utility.yul\":2826:2829   */\n      dup3\n        /* \"#utility.yul\":2819:2853   */\n      mstore\n        /* \"#utility.yul\":2750:2859   */\n      pop\n      pop\n      jump\t// out\n        /* \"#utility.yul\":2865:3075   */\n    tag_40:\n        /* \"#utility.yul\":2952:2956   */\n      0x00\n        /* \"#utility.yul\":2990:2992   */\n      0x20\n        /* \"#utility.yul\":2979:2988   */\n      dup3\n        /* \"#utility.yul\":2975:2993   */\n      add\n        /* \"#utility.yul\":2967:2993   */\n      swap1\n      pop\n        /* \"#utility.yul\":3003:3068   */\n      tag_292\n        /* \"#utility.yul\":3065:3066   */\n      0x00\n        /* \"#utility.yul\":3054:3063   */\n      dup4\n        /* \"#utility.yul\":3050:3067   */\n      add\n        /* \"#utility.yul\":3041:3047   */\n      dup5\n        /* \"#utility.yul\":3003:3068   */\n      tag_219\n      jump\t// in\n    tag_292:\n        /* \"#utility.yul\":2865:3075   */\n      swap3\n      swap2\n      pop\n      pop\n      jump\t// out\n        /* \"#utility.yul\":3081:3203   */\n    tag_220:\n        /* \"#utility.yul\":3154:3178   */\n      tag_294\n        /* \"#utility.yul\":3172:3177   */\n      dup2\n        /* \"#utility.yul\":3154:3178   */\n      tag_216\n      jump\t// in\n    tag_294:\n        /* \"#utility.yul\":3147:3152   */\n      dup2\n        /* \"#utility.yul\":3144:3179   */\n      eq\n        /* \"#utility.yul\":3134:3197   */\n      tag_295\n      jumpi\n        /* \"#utility.yul\":3193:3194   */\n      0x00\n        /* \"#utility.yul\":3190:3191   */\n      dup1\n        /* \"#utility.yul\":3183:3195   */\n      revert\n        /* \"#utility.yul\":3134:3197   */\n    tag_295:\n        /* \"#utility.yul\":3081:3203   */\n      pop\n      jump\t// out\n        /* \"#utility.yul\":3209:3348   */\n    tag_221:\n        /* \"#utility.yul\":3255:3260   */\n      0x00\n        /* \"#utility.yul\":3293:3299   */\n      dup2\n        /* \"#utility.yul\":3280:3300   */\n      calldataload\n        /* \"#utility.yul\":3271:3300   */\n      swap1\n      pop\n        /* \"#utility.yul\":3309:3342   */\n      tag_297\n        /* \"#utility.yul\":3336:3341   */\n      dup2\n        /* \"#utility.yul\":3309:3342   */\n      tag_220\n      jump\t// in\n    tag_297:\n        /* \"#utility.yul\":3209:3348   */\n      swap3\n      swap2\n      pop\n      pop\n      jump\t// out\n        /* \"#utility.yul\":3354:3683   */\n    tag_43:\n        /* \"#utility.yul\":3413:3419   */\n      0x00\n        /* \"#utility.yul\":3462:3464   */\n      0x20\n        /* \"#utility.yul\":3450:3459   */\n      dup3\n        /* \"#utility.yul\":3441:3448   */\n      dup5\n        /* \"#utility.yul\":3437:3460   */\n      sub\n        /* \"#utility.yul\":3433:3465   */\n      slt\n        /* \"#utility.yul\":3430:3549   */\n      iszero\n      tag_299\n      jumpi\n        /* \"#utility.yul\":3468:3547   */\n      tag_300\n      tag_206\n      jump\t// in\n    tag_300:\n        /* \"#utility.yul\":3430:3549   */\n    tag_299:\n        /* \"#utility.yul\":3588:3589   */\n      0x00\n        /* \"#utility.yul\":3613:3666   */\n      tag_301\n        /* \"#utility.yul\":3658:3665   */\n      dup5\n        /* \"#utility.yul\":3649:3655   */\n      dup3\n        /* \"#utility.yul\":3638:3647   */\n      dup6\n        /* \"#utility.yul\":3634:3656   */\n      add\n        /* \"#utility.yul\":3613:3666   */\n      tag_221\n      jump\t// in\n    tag_301:\n        /* \"#utility.yul\":3603:3666   */\n      swap2\n      pop\n        /* \"#utility.yul\":3559:3676   */\n      pop\n        /* \"#utility.yul\":3354:3683   */\n      swap3\n      swap2\n      pop\n      pop\n      jump\t// out\n        /* \"#utility.yul\":3689:3807   */\n    tag_222:\n        /* \"#utility.yul\":3776:3800   */\n      tag_303\n        /* \"#utility.yul\":3794:3799   */\n      dup2\n        /* \"#utility.yul\":3776:3800   */\n      tag_208\n      jump\t// in\n    tag_303:\n        /* \"#utility.yul\":3771:3774   */\n      dup3\n        /* \"#utility.yul\":3764:3801   */\n      mstore\n        /* \"#utility.yul\":3689:3807   */\n      pop\n      pop\n      jump\t// out\n        /* \"#utility.yul\":3813:4035   */\n    tag_48:\n        /* \"#utility.yul\":3906:3910   */\n      0x00\n        /* \"#utility.yul\":3944:3946   */\n      0x20\n        /* \"#utility.yul\":3933:3942   */\n      dup3\n        /* \"#utility.yul\":3929:3947   */\n      add\n        /* \"#utility.yul\":3921:3947   */\n      swap1\n      pop\n        /* \"#utility.yul\":3957:4028   */\n      tag_305\n        /* \"#utility.yul\":4025:4026   */\n      0x00\n        /* \"#utility.yul\":4014:4023   */\n      dup4\n        /* \"#utility.yul\":4010:4027   */\n      add\n        /* \"#utility.yul\":4001:4007   */\n      dup5\n        /* \"#utility.yul\":3957:4028   */\n      tag_222\n      jump\t// in\n    tag_305:\n        /* \"#utility.yul\":3813:4035   */\n      swap3\n      swap2\n      pop\n      pop\n      jump\t// out\n        /* \"#utility.yul\":4041:4155   */\n    tag_223:\n        /* \"#utility.yul\":4108:4114   */\n      0x00\n        /* \"#utility.yul\":4142:4147   */\n      dup2\n        /* \"#utility.yul\":4136:4148   */\n      mload\n        /* \"#utility.yul\":4126:4148   */\n      swap1\n      pop\n        /* \"#utility.yul\":4041:4155   */\n      swap2\n      swap1\n      pop\n      jump\t// out\n        /* \"#utility.yul\":4161:4345   */\n    tag_224:\n        /* \"#utility.yul\":4260:4271   */\n      0x00\n        /* \"#utility.yul\":4294:4300   */\n      dup3\n        /* \"#utility.yul\":4289:4292   */\n      dup3\n        /* \"#utility.yul\":4282:4301   */\n      mstore\n        /* \"#utility.yul\":4334:4338   */\n      0x20\n        /* \"#utility.yul\":4329:4332   */\n      dup3\n        /* \"#utility.yul\":4325:4339   */\n      add\n        /* \"#utility.yul\":4310:4339   */\n      swap1\n      pop\n        /* \"#utility.yul\":4161:4345   */\n      swap3\n      swap2\n      pop\n      pop\n      jump\t// out\n        /* \"#utility.yul\":4351:4483   */\n    tag_225:\n        /* \"#utility.yul\":4418:4422   */\n      0x00\n        /* \"#utility.yul\":4441:4444   */\n      dup2\n        /* \"#utility.yul\":4433:4444   */\n      swap1\n      pop\n        /* \"#utility.yul\":4471:4475   */\n      0x20\n        /* \"#utility.yul\":4466:4469   */\n      dup3\n        /* \"#utility.yul\":4462:4476   */\n      add\n        /* \"#utility.yul\":4454:4476   */\n      swap1\n      pop\n        /* \"#utility.yul\":4351:4483   */\n      swap2\n      swap1\n      pop\n      jump\t// out\n        /* \"#utility.yul\":4489:4597   */\n    tag_226:\n        /* \"#utility.yul\":4566:4590   */\n      tag_310\n        /* \"#utility.yul\":4584:4589   */\n      dup2\n        /* \"#utility.yul\":4566:4590   */\n      tag_212\n      jump\t// in\n    tag_310:\n        /* \"#utility.yul\":4561:4564   */\n      dup3\n        /* \"#utility.yul\":4554:4591   */\n      mstore\n        /* \"#utility.yul\":4489:4597   */\n      pop\n      pop\n      jump\t// out\n        /* \"#utility.yul\":4603:4782   */\n    tag_227:\n        /* \"#utility.yul\":4672:4682   */\n      0x00\n        /* \"#utility.yul\":4693:4739   */\n      tag_312\n        /* \"#utility.yul\":4735:4738   */\n      dup4\n        /* \"#utility.yul\":4727:4733   */\n      dup4\n        /* \"#utility.yul\":4693:4739   */\n      tag_226\n      jump\t// in\n    tag_312:\n        /* \"#utility.yul\":4771:4775   */\n      0x20\n        /* \"#utility.yul\":4766:4769   */\n      dup4\n        /* \"#utility.yul\":4762:4776   */\n      add\n        /* \"#utility.yul\":4748:4776   */\n      swap1\n      pop\n        /* \"#utility.yul\":4603:4782   */\n      swap3\n      swap2\n      pop\n      pop\n      jump\t// out\n        /* \"#utility.yul\":4788:4901   */\n    tag_228:\n        /* \"#utility.yul\":4858:4862   */\n      0x00\n        /* \"#utility.yul\":4890:4894   */\n      0x20\n        /* \"#utility.yul\":4885:4888   */\n      dup3\n        /* \"#utility.yul\":4881:4895   */\n      add\n        /* \"#utility.yul\":4873:4895   */\n      swap1\n      pop\n        /* \"#utility.yul\":4788:4901   */\n      swap2\n      swap1\n      pop\n      jump\t// out\n        /* \"#utility.yul\":4937:5669   */\n    tag_229:\n        /* \"#utility.yul\":5056:5059   */\n      0x00\n        /* \"#utility.yul\":5085:5139   */\n      tag_315\n        /* \"#utility.yul\":5133:5138   */\n      dup3\n        /* \"#utility.yul\":5085:5139   */\n      tag_223\n      jump\t// in\n    tag_315:\n        /* \"#utility.yul\":5155:5241   */\n      tag_316\n        /* \"#utility.yul\":5234:5240   */\n      dup2\n        /* \"#utility.yul\":5229:5232   */\n      dup6\n        /* \"#utility.yul\":5155:5241   */\n      tag_224\n      jump\t// in\n    tag_316:\n        /* \"#utility.yul\":5148:5241   */\n      swap4\n      pop\n        /* \"#utility.yul\":5265:5321   */\n      tag_317\n        /* \"#utility.yul\":5315:5320   */\n      dup4\n        /* \"#utility.yul\":5265:5321   */\n      tag_225\n      jump\t// in\n    tag_317:\n        /* \"#utility.yul\":5344:5351   */\n      dup1\n        /* \"#utility.yul\":5375:5376   */\n      0x00\n        /* \"#utility.yul\":5360:5644   */\n    tag_318:\n        /* \"#utility.yul\":5385:5391   */\n      dup4\n        /* \"#utility.yul\":5382:5383   */\n      dup2\n        /* \"#utility.yul\":5379:5392   */\n      lt\n        /* \"#utility.yul\":5360:5644   */\n      iszero\n      tag_320\n      jumpi\n        /* \"#utility.yul\":5461:5467   */\n      dup2\n        /* \"#utility.yul\":5455:5468   */\n      mload\n        /* \"#utility.yul\":5488:5551   */\n      tag_321\n        /* \"#utility.yul\":5547:5550   */\n      dup9\n        /* \"#utility.yul\":5532:5545   */\n      dup3\n        /* \"#utility.yul\":5488:5551   */\n      tag_227\n      jump\t// in\n    tag_321:\n        /* \"#utility.yul\":5481:5551   */\n      swap8\n      pop\n        /* \"#utility.yul\":5574:5634   */\n      tag_322\n        /* \"#utility.yul\":5627:5633   */\n      dup4\n        /* \"#utility.yul\":5574:5634   */\n      tag_228\n      jump\t// in\n    tag_322:\n        /* \"#utility.yul\":5564:5634   */\n      swap3\n      pop\n        /* \"#utility.yul\":5420:5644   */\n      pop\n        /* \"#utility.yul\":5407:5408   */\n      0x01\n        /* \"#utility.yul\":5404:5405   */\n      dup2\n        /* \"#utility.yul\":5400:5409   */\n      add\n        /* \"#utility.yul\":5395:5409   */\n      swap1\n      pop\n        /* \"#utility.yul\":5360:5644   */\n      jump(tag_318)\n    tag_320:\n        /* \"#utility.yul\":5364:5378   */\n      pop\n        /* \"#utility.yul\":5660:5663   */\n      dup6\n        /* \"#utility.yul\":5653:5663   */\n      swap4\n      pop\n        /* \"#utility.yul\":5061:5669   */\n      pop\n      pop\n      pop\n        /* \"#utility.yul\":4937:5669   */\n      swap3\n      swap2\n      pop\n      pop\n      jump\t// out\n        /* \"#utility.yul\":5675:6048   */\n    tag_52:\n        /* \"#utility.yul\":5818:5822   */\n      0x00\n        /* \"#utility.yul\":5856:5858   */\n      0x20\n        /* \"#utility.yul\":5845:5854   */\n      dup3\n        /* \"#utility.yul\":5841:5859   */\n      add\n        /* \"#utility.yul\":5833:5859   */\n      swap1\n      pop\n        /* \"#utility.yul\":5905:5914   */\n      dup2\n        /* \"#utility.yul\":5899:5903   */\n      dup2\n        /* \"#utility.yul\":5895:5915   */\n      sub\n        /* \"#utility.yul\":5891:5892   */\n      0x00\n        /* \"#utility.yul\":5880:5889   */\n      dup4\n        /* \"#utility.yul\":5876:5893   */\n      add\n        /* \"#utility.yul\":5869:5916   */\n      mstore\n        /* \"#utility.yul\":5933:6041   */\n      tag_324\n        /* \"#utility.yul\":6036:6040   */\n      dup2\n        /* \"#utility.yul\":6027:6033   */\n      dup5\n        /* \"#utility.yul\":5933:6041   */\n      tag_229\n      jump\t// in\n    tag_324:\n        /* \"#utility.yul\":5925:6041   */\n      swap1\n      pop\n        /* \"#utility.yul\":5675:6048   */\n      swap3\n      swap2\n      pop\n      pop\n      jump\t// out\n        /* \"#utility.yul\":6054:6171   */\n    tag_230:\n        /* \"#utility.yul\":6163:6164   */\n      0x00\n        /* \"#utility.yul\":6160:6161   */\n      dup1\n        /* \"#utility.yul\":6153:6165   */\n      revert\n        /* \"#utility.yul\":6177:6294   */\n    tag_231:\n        /* \"#utility.yul\":6286:6287   */\n      0x00\n        /* \"#utility.yul\":6283:6284   */\n      dup1\n        /* \"#utility.yul\":6276:6288   */\n      revert\n        /* \"#utility.yul\":6300:6417   */\n    tag_232:\n        /* \"#utility.yul\":6409:6410   */\n      0x00\n        /* \"#utility.yul\":6406:6407   */\n      dup1\n        /* \"#utility.yul\":6399:6411   */\n      revert\n        /* \"#utility.yul\":6440:7008   */\n    tag_233:\n        /* \"#utility.yul\":6513:6521   */\n      0x00\n        /* \"#utility.yul\":6523:6529   */\n      dup1\n        /* \"#utility.yul\":6573:6576   */\n      dup4\n        /* \"#utility.yul\":6566:6570   */\n      0x1f\n        /* \"#utility.yul\":6558:6564   */\n      dup5\n        /* \"#utility.yul\":6554:6571   */\n      add\n        /* \"#utility.yul\":6550:6577   */\n      slt\n        /* \"#utility.yul\":6540:6662   */\n      tag_329\n      jumpi\n        /* \"#utility.yul\":6581:6660   */\n      tag_330\n      tag_230\n      jump\t// in\n    tag_330:\n        /* \"#utility.yul\":6540:6662   */\n    tag_329:\n        /* \"#utility.yul\":6694:6700   */\n      dup3\n        /* \"#utility.yul\":6681:6701   */\n      calldataload\n        /* \"#utility.yul\":6671:6701   */\n      swap1\n      pop\n        /* \"#utility.yul\":6724:6742   */\n      0xffffffffffffffff\n        /* \"#utility.yul\":6716:6722   */\n      dup2\n        /* \"#utility.yul\":6713:6743   */\n      gt\n        /* \"#utility.yul\":6710:6827   */\n      iszero\n      tag_331\n      jumpi\n        /* \"#utility.yul\":6746:6825   */\n      tag_332\n      tag_231\n      jump\t// in\n    tag_332:\n        /* \"#utility.yul\":6710:6827   */\n    tag_331:\n        /* \"#utility.yul\":6860:6864   */\n      0x20\n        /* \"#utility.yul\":6852:6858   */\n      dup4\n        /* \"#utility.yul\":6848:6865   */\n      add\n        /* \"#utility.yul\":6836:6865   */\n      swap2\n      pop\n        /* \"#utility.yul\":6914:6917   */\n      dup4\n        /* \"#utility.yul\":6906:6910   */\n      0x20\n        /* \"#utility.yul\":6898:6904   */\n      dup3\n        /* \"#utility.yul\":6894:6911   */\n      mul\n        /* \"#utility.yul\":6884:6892   */\n      dup4\n        /* \"#utility.yul\":6880:6912   */\n      add\n        /* \"#utility.yul\":6877:6918   */\n      gt\n        /* \"#utility.yul\":6874:7002   */\n      iszero\n      tag_333\n      jumpi\n        /* \"#utility.yul\":6921:7000   */\n      tag_334\n      tag_232\n      jump\t// in\n    tag_334:\n        /* \"#utility.yul\":6874:7002   */\n    tag_333:\n        /* \"#utility.yul\":6440:7008   */\n      swap3\n      pop\n      swap3\n      swap1\n      pop\n      jump\t// out\n        /* \"#utility.yul\":7014:7573   */\n    tag_58:\n        /* \"#utility.yul\":7100:7106   */\n      0x00\n        /* \"#utility.yul\":7108:7114   */\n      dup1\n        /* \"#utility.yul\":7157:7159   */\n      0x20\n        /* \"#utility.yul\":7145:7154   */\n      dup4\n        /* \"#utility.yul\":7136:7143   */\n      dup6\n        /* \"#utility.yul\":7132:7155   */\n      sub\n        /* \"#utility.yul\":7128:7160   */\n      slt\n        /* \"#utility.yul\":7125:7244   */\n      iszero\n      tag_336\n      jumpi\n        /* \"#utility.yul\":7163:7242   */\n      tag_337\n      tag_206\n      jump\t// in\n    tag_337:\n        /* \"#utility.yul\":7125:7244   */\n    tag_336:\n        /* \"#utility.yul\":7311:7312   */\n      0x00\n        /* \"#utility.yul\":7300:7309   */\n      dup4\n        /* \"#utility.yul\":7296:7313   */\n      add\n        /* \"#utility.yul\":7283:7314   */\n      calldataload\n        /* \"#utility.yul\":7341:7359   */\n      0xffffffffffffffff\n        /* \"#utility.yul\":7333:7339   */\n      dup2\n        /* \"#utility.yul\":7330:7360   */\n      gt\n        /* \"#utility.yul\":7327:7444   */\n      iszero\n      tag_338\n      jumpi\n        /* \"#utility.yul\":7363:7442   */\n      tag_339\n      tag_207\n      jump\t// in\n    tag_339:\n        /* \"#utility.yul\":7327:7444   */\n    tag_338:\n        /* \"#utility.yul\":7476:7556   */\n      tag_340\n        /* \"#utility.yul\":7548:7555   */\n      dup6\n        /* \"#utility.yul\":7539:7545   */\n      dup3\n        /* \"#utility.yul\":7528:7537   */\n      dup7\n        /* \"#utility.yul\":7524:7546   */\n      add\n        /* \"#utility.yul\":7476:7556   */\n      tag_233\n      jump\t// in\n    tag_340:\n        /* \"#utility.yul\":7458:7556   */\n      swap3\n      pop\n      swap3\n      pop\n        /* \"#utility.yul\":7254:7566   */\n      pop\n        /* \"#utility.yul\":7014:7573   */\n      swap3\n      pop\n      swap3\n      swap1\n      pop\n      jump\t// out\n        /* \"#utility.yul\":7596:8164   */\n    tag_234:\n        /* \"#utility.yul\":7669:7677   */\n      0x00\n        /* \"#utility.yul\":7679:7685   */\n      dup1\n        /* \"#utility.yul\":7729:7732   */\n      dup4\n        /* \"#utility.yul\":7722:7726   */\n      0x1f\n        /* \"#utility.yul\":7714:7720   */\n      dup5\n        /* \"#utility.yul\":7710:7727   */\n      add\n        /* \"#utility.yul\":7706:7733   */\n      slt\n        /* \"#utility.yul\":7696:7818   */\n      tag_342\n      jumpi\n        /* \"#utility.yul\":7737:7816   */\n      tag_343\n      tag_230\n      jump\t// in\n    tag_343:\n        /* \"#utility.yul\":7696:7818   */\n    tag_342:\n        /* \"#utility.yul\":7850:7856   */\n      dup3\n        /* \"#utility.yul\":7837:7857   */\n      calldataload\n        /* \"#utility.yul\":7827:7857   */\n      swap1\n      pop\n        /* \"#utility.yul\":7880:7898   */\n      0xffffffffffffffff\n        /* \"#utility.yul\":7872:7878   */\n      dup2\n        /* \"#utility.yul\":7869:7899   */\n      gt\n        /* \"#utility.yul\":7866:7983   */\n      iszero\n      tag_344\n      jumpi\n        /* \"#utility.yul\":7902:7981   */\n      tag_345\n      tag_231\n      jump\t// in\n    tag_345:\n        /* \"#utility.yul\":7866:7983   */\n    tag_344:\n        /* \"#utility.yul\":8016:8020   */\n      0x20\n        /* \"#utility.yul\":8008:8014   */\n      dup4\n        /* \"#utility.yul\":8004:8021   */\n      add\n        /* \"#utility.yul\":7992:8021   */\n      swap2\n      pop\n        /* \"#utility.yul\":8070:8073   */\n      dup4\n        /* \"#utility.yul\":8062:8066   */\n      0x20\n        /* \"#utility.yul\":8054:8060   */\n      dup3\n        /* \"#utility.yul\":8050:8067   */\n      mul\n        /* \"#utility.yul\":8040:8048   */\n      dup4\n        /* \"#utility.yul\":8036:8068   */\n      add\n        /* \"#utility.yul\":8033:8074   */\n      gt\n        /* \"#utility.yul\":8030:8158   */\n      iszero\n      tag_346\n      jumpi\n        /* \"#utility.yul\":8077:8156   */\n      tag_347\n      tag_232\n      jump\t// in\n    tag_347:\n        /* \"#utility.yul\":8030:8158   */\n    tag_346:\n        /* \"#utility.yul\":7596:8164   */\n      swap3\n      pop\n      swap3\n      swap1\n      pop\n      jump\t// out\n        /* \"#utility.yul\":8170:8729   */\n    tag_65:\n        /* \"#utility.yul\":8256:8262   */\n      0x00\n        /* \"#utility.yul\":8264:8270   */\n      dup1\n        /* \"#utility.yul\":8313:8315   */\n      0x20\n        /* \"#utility.yul\":8301:8310   */\n      dup4\n        /* \"#utility.yul\":8292:8299   */\n      dup6\n        /* \"#utility.yul\":8288:8311   */\n      sub\n        /* \"#utility.yul\":8284:8316   */\n      slt\n        /* \"#utility.yul\":8281:8400   */\n      iszero\n      tag_349\n      jumpi\n        /* \"#utility.yul\":8319:8398   */\n      tag_350\n      tag_206\n      jump\t// in\n    tag_350:\n        /* \"#utility.yul\":8281:8400   */\n    tag_349:\n        /* \"#utility.yul\":8467:8468   */\n      0x00\n        /* \"#utility.yul\":8456:8465   */\n      dup4\n        /* \"#utility.yul\":8452:8469   */\n      add\n        /* \"#utility.yul\":8439:8470   */\n      calldataload\n        /* \"#utility.yul\":8497:8515   */\n      0xffffffffffffffff\n        /* \"#utility.yul\":8489:8495   */\n      dup2\n        /* \"#utility.yul\":8486:8516   */\n      gt\n        /* \"#utility.yul\":8483:8600   */\n      iszero\n      tag_351\n      jumpi\n        /* \"#utility.yul\":8519:8598   */\n      tag_352\n      tag_207\n      jump\t// in\n    tag_352:\n        /* \"#utility.yul\":8483:8600   */\n    tag_351:\n        /* \"#utility.yul\":8632:8712   */\n      tag_353\n        /* \"#utility.yul\":8704:8711   */\n      dup6\n        /* \"#utility.yul\":8695:8701   */\n      dup3\n        /* \"#utility.yul\":8684:8693   */\n      dup7\n        /* \"#utility.yul\":8680:8702   */\n      add\n        /* \"#utility.yul\":8632:8712   */\n      tag_234\n      jump\t// in\n    tag_353:\n        /* \"#utility.yul\":8614:8712   */\n      swap3\n      pop\n      swap3\n      pop\n        /* \"#utility.yul\":8410:8722   */\n      pop\n        /* \"#utility.yul\":8170:8729   */\n      swap3\n      pop\n      swap3\n      swap1\n      pop\n      jump\t// out\n        /* \"#utility.yul\":8735:9439   */\n    tag_80:\n        /* \"#utility.yul\":8830:8836   */\n      0x00\n        /* \"#utility.yul\":8838:8844   */\n      dup1\n        /* \"#utility.yul\":8846:8852   */\n      0x00\n        /* \"#utility.yul\":8895:8897   */\n      0x40\n        /* \"#utility.yul\":8883:8892   */\n      dup5\n        /* \"#utility.yul\":8874:8881   */\n      dup7\n        /* \"#utility.yul\":8870:8893   */\n      sub\n        /* \"#utility.yul\":8866:8898   */\n      slt\n        /* \"#utility.yul\":8863:8982   */\n      iszero\n      tag_355\n      jumpi\n        /* \"#utility.yul\":8901:8980   */\n      tag_356\n      tag_206\n      jump\t// in\n    tag_356:\n        /* \"#utility.yul\":8863:8982   */\n    tag_355:\n        /* \"#utility.yul\":9049:9050   */\n      0x00\n        /* \"#utility.yul\":9038:9047   */\n      dup5\n        /* \"#utility.yul\":9034:9051   */\n      add\n        /* \"#utility.yul\":9021:9052   */\n      calldataload\n        /* \"#utility.yul\":9079:9097   */\n      0xffffffffffffffff\n        /* \"#utility.yul\":9071:9077   */\n      dup2\n        /* \"#utility.yul\":9068:9098   */\n      gt\n        /* \"#utility.yul\":9065:9182   */\n      iszero\n      tag_357\n      jumpi\n        /* \"#utility.yul\":9101:9180   */\n      tag_358\n      tag_207\n      jump\t// in\n    tag_358:\n        /* \"#utility.yul\":9065:9182   */\n    tag_357:\n        /* \"#utility.yul\":9214:9294   */\n      tag_359\n        /* \"#utility.yul\":9286:9293   */\n      dup7\n        /* \"#utility.yul\":9277:9283   */\n      dup3\n        /* \"#utility.yul\":9266:9275   */\n      dup8\n        /* \"#utility.yul\":9262:9284   */\n      add\n        /* \"#utility.yul\":9214:9294   */\n      tag_234\n      jump\t// in\n    tag_359:\n        /* \"#utility.yul\":9196:9294   */\n      swap4\n      pop\n      swap4\n      pop\n        /* \"#utility.yul\":8992:9304   */\n      pop\n        /* \"#utility.yul\":9343:9345   */\n      0x20\n        /* \"#utility.yul\":9369:9422   */\n      tag_360\n        /* \"#utility.yul\":9414:9421   */\n      dup7\n        /* \"#utility.yul\":9405:9411   */\n      dup3\n        /* \"#utility.yul\":9394:9403   */\n      dup8\n        /* \"#utility.yul\":9390:9412   */\n      add\n        /* \"#utility.yul\":9369:9422   */\n      tag_215\n      jump\t// in\n    tag_360:\n        /* \"#utility.yul\":9359:9422   */\n      swap2\n      pop\n        /* \"#utility.yul\":9314:9432   */\n      pop\n        /* \"#utility.yul\":8735:9439   */\n      swap3\n      pop\n      swap3\n      pop\n      swap3\n      jump\t// out\n        /* \"#utility.yul\":9445:9614   */\n    tag_235:\n        /* \"#utility.yul\":9529:9540   */\n      0x00\n        /* \"#utility.yul\":9563:9569   */\n      dup3\n        /* \"#utility.yul\":9558:9561   */\n      dup3\n        /* \"#utility.yul\":9551:9570   */\n      mstore\n        /* \"#utility.yul\":9603:9607   */\n      0x20\n        /* \"#utility.yul\":9598:9601   */\n      dup3\n        /* \"#utility.yul\":9594:9608   */\n      add\n        /* \"#utility.yul\":9579:9608   */\n      swap1\n      pop\n        /* \"#utility.yul\":9445:9614   */\n      swap3\n      swap2\n      pop\n      pop\n      jump\t// out\n        /* \"#utility.yul\":9620:9845   */\n    tag_236:\n        /* \"#utility.yul\":9760:9794   */\n      0x4f6e6c7920746865206f776e65722063616e20706572666f726d207468697320\n        /* \"#utility.yul\":9756:9757   */\n      0x00\n        /* \"#utility.yul\":9748:9754   */\n      dup3\n        /* \"#utility.yul\":9744:9758   */\n      add\n        /* \"#utility.yul\":9737:9795   */\n      mstore\n        /* \"#utility.yul\":9829:9837   */\n      0x616374696f6e0000000000000000000000000000000000000000000000000000\n        /* \"#utility.yul\":9824:9826   */\n      0x20\n        /* \"#utility.yul\":9816:9822   */\n      dup3\n        /* \"#utility.yul\":9812:9827   */\n      add\n        /* \"#utility.yul\":9805:9838   */\n      mstore\n        /* \"#utility.yul\":9620:9845   */\n      pop\n      jump\t// out\n        /* \"#utility.yul\":9851:10217   */\n    tag_237:\n        /* \"#utility.yul\":9993:9996   */\n      0x00\n        /* \"#utility.yul\":10014:10081   */\n      tag_364\n        /* \"#utility.yul\":10078:10080   */\n      0x26\n        /* \"#utility.yul\":10073:10076   */\n      dup4\n        /* \"#utility.yul\":10014:10081   */\n      tag_235\n      jump\t// in\n    tag_364:\n        /* \"#utility.yul\":10007:10081   */\n      swap2\n      pop\n        /* \"#utility.yul\":10090:10183   */\n      tag_365\n        /* \"#utility.yul\":10179:10182   */\n      dup3\n        /* \"#utility.yul\":10090:10183   */\n      tag_236\n      jump\t// in\n    tag_365:\n        /* \"#utility.yul\":10208:10210   */\n      0x40\n        /* \"#utility.yul\":10203:10206   */\n      dup3\n        /* \"#utility.yul\":10199:10211   */\n      add\n        /* \"#utility.yul\":10192:10211   */\n      swap1\n      pop\n        /* \"#utility.yul\":9851:10217   */\n      swap2\n      swap1\n      pop\n      jump\t// out\n        /* \"#utility.yul\":10223:10642   */\n    tag_91:\n        /* \"#utility.yul\":10389:10393   */\n      0x00\n        /* \"#utility.yul\":10427:10429   */\n      0x20\n        /* \"#utility.yul\":10416:10425   */\n      dup3\n        /* \"#utility.yul\":10412:10430   */\n      add\n        /* \"#utility.yul\":10404:10430   */\n      swap1\n      pop\n        /* \"#utility.yul\":10476:10485   */\n      dup2\n        /* \"#utility.yul\":10470:10474   */\n      dup2\n        /* \"#utility.yul\":10466:10486   */\n      sub\n        /* \"#utility.yul\":10462:10463   */\n      0x00\n        /* \"#utility.yul\":10451:10460   */\n      dup4\n        /* \"#utility.yul\":10447:10464   */\n      add\n        /* \"#utility.yul\":10440:10487   */\n      mstore\n        /* \"#utility.yul\":10504:10635   */\n      tag_367\n        /* \"#utility.yul\":10630:10634   */\n      dup2\n        /* \"#utility.yul\":10504:10635   */\n      tag_237\n      jump\t// in\n    tag_367:\n        /* \"#utility.yul\":10496:10635   */\n      swap1\n      pop\n        /* \"#utility.yul\":10223:10642   */\n      swap2\n      swap1\n      pop\n      jump\t// out\n        /* \"#utility.yul\":10648:10821   */\n    tag_238:\n        /* \"#utility.yul\":10788:10813   */\n      0x41646472657373206973206e6f7420616e2061646d696e000000000000000000\n        /* \"#utility.yul\":10784:10785   */\n      0x00\n        /* \"#utility.yul\":10776:10782   */\n      dup3\n        /* \"#utility.yul\":10772:10786   */\n      add\n        /* \"#utility.yul\":10765:10814   */\n      mstore\n        /* \"#utility.yul\":10648:10821   */\n      pop\n      jump\t// out\n        /* \"#utility.yul\":10827:11193   */\n    tag_239:\n        /* \"#utility.yul\":10969:10972   */\n      0x00\n        /* \"#utility.yul\":10990:11057   */\n      tag_370\n        /* \"#utility.yul\":11054:11056   */\n      0x17\n        /* \"#utility.yul\":11049:11052   */\n      dup4\n        /* \"#utility.yul\":10990:11057   */\n      tag_235\n      jump\t// in\n    tag_370:\n        /* \"#utility.yul\":10983:11057   */\n      swap2\n      pop\n        /* \"#utility.yul\":11066:11159   */\n      tag_371\n        /* \"#utility.yul\":11155:11158   */\n      dup3\n        /* \"#utility.yul\":11066:11159   */\n      tag_238\n      jump\t// in\n    tag_371:\n        /* \"#utility.yul\":11184:11186   */\n      0x20\n        /* \"#utility.yul\":11179:11182   */\n      dup3\n        /* \"#utility.yul\":11175:11187   */\n      add\n        /* \"#utility.yul\":11168:11187   */\n      swap1\n      pop\n        /* \"#utility.yul\":10827:11193   */\n      swap2\n      swap1\n      pop\n      jump\t// out\n        /* \"#utility.yul\":11199:11618   */\n    tag_95:\n        /* \"#utility.yul\":11365:11369   */\n      0x00\n        /* \"#utility.yul\":11403:11405   */\n      0x20\n        /* \"#utility.yul\":11392:11401   */\n      dup3\n        /* \"#utility.yul\":11388:11406   */\n      add\n        /* \"#utility.yul\":11380:11406   */\n      swap1\n      pop\n        /* \"#utility.yul\":11452:11461   */\n      dup2\n        /* \"#utility.yul\":11446:11450   */\n      dup2\n        /* \"#utility.yul\":11442:11462   */\n      sub\n        /* \"#utility.yul\":11438:11439   */\n      0x00\n        /* \"#utility.yul\":11427:11436   */\n      dup4\n        /* \"#utility.yul\":11423:11440   */\n      add\n        /* \"#utility.yul\":11416:11463   */\n      mstore\n        /* \"#utility.yul\":11480:11611   */\n      tag_373\n        /* \"#utility.yul\":11606:11610   */\n      dup2\n        /* \"#utility.yul\":11480:11611   */\n      tag_239\n      jump\t// in\n    tag_373:\n        /* \"#utility.yul\":11472:11611   */\n      swap1\n      pop\n        /* \"#utility.yul\":11199:11618   */\n      swap2\n      swap1\n      pop\n      jump\t// out\n        /* \"#utility.yul\":11624:11848   */\n    tag_240:\n        /* \"#utility.yul\":11764:11798   */\n      0x4f6e6c7920616e2061646d696e2063616e20706572666f726d20746869732061\n        /* \"#utility.yul\":11760:11761   */\n      0x00\n        /* \"#utility.yul\":11752:11758   */\n      dup3\n        /* \"#utility.yul\":11748:11762   */\n      add\n        /* \"#utility.yul\":11741:11799   */\n      mstore\n        /* \"#utility.yul\":11833:11840   */\n      0x6374696f6e000000000000000000000000000000000000000000000000000000\n        /* \"#utility.yul\":11828:11830   */\n      0x20\n        /* \"#utility.yul\":11820:11826   */\n      dup3\n        /* \"#utility.yul\":11816:11831   */\n      add\n        /* \"#utility.yul\":11809:11841   */\n      mstore\n        /* \"#utility.yul\":11624:11848   */\n      pop\n      jump\t// out\n        /* \"#utility.yul\":11854:12220   */\n    tag_241:\n        /* \"#utility.yul\":11996:11999   */\n      0x00\n        /* \"#utility.yul\":12017:12084   */\n      tag_376\n        /* \"#utility.yul\":12081:12083   */\n      0x25\n        /* \"#utility.yul\":12076:12079   */\n      dup4\n        /* \"#utility.yul\":12017:12084   */\n      tag_235\n      jump\t// in\n    tag_376:\n        /* \"#utility.yul\":12010:12084   */\n      swap2\n      pop\n        /* \"#utility.yul\":12093:12186   */\n      tag_377\n        /* \"#utility.yul\":12182:12185   */\n      dup3\n        /* \"#utility.yul\":12093:12186   */\n      tag_240\n      jump\t// in\n    tag_377:\n        /* \"#utility.yul\":12211:12213   */\n      0x40\n        /* \"#utility.yul\":12206:12209   */\n      dup3\n        /* \"#utility.yul\":12202:12214   */\n      add\n        /* \"#utility.yul\":12195:12214   */\n      swap1\n      pop\n        /* \"#utility.yul\":11854:12220   */\n      swap2\n      swap1\n      pop\n      jump\t// out\n        /* \"#utility.yul\":12226:12645   */\n    tag_101:\n        /* \"#utility.yul\":12392:12396   */\n      0x00\n        /* \"#utility.yul\":12430:12432   */\n      0x20\n        /* \"#utility.yul\":12419:12428   */\n      dup3\n        /* \"#utility.yul\":12415:12433   */\n      add\n        /* \"#utility.yul\":12407:12433   */\n      swap1\n      pop\n        /* \"#utility.yul\":12479:12488   */\n      dup2\n        /* \"#utility.yul\":12473:12477   */\n      dup2\n        /* \"#utility.yul\":12469:12489   */\n      sub\n        /* \"#utility.yul\":12465:12466   */\n      0x00\n        /* \"#utility.yul\":12454:12463   */\n      dup4\n        /* \"#utility.yul\":12450:12467   */\n      add\n        /* \"#utility.yul\":12443:12490   */\n      mstore\n        /* \"#utility.yul\":12507:12638   */\n      tag_379\n        /* \"#utility.yul\":12633:12637   */\n      dup2\n        /* \"#utility.yul\":12507:12638   */\n      tag_241\n      jump\t// in\n    tag_379:\n        /* \"#utility.yul\":12499:12638   */\n      swap1\n      pop\n        /* \"#utility.yul\":12226:12645   */\n      swap2\n      swap1\n      pop\n      jump\t// out\n        /* \"#utility.yul\":12651:12831   */\n    tag_108:\n        /* \"#utility.yul\":12699:12776   */\n      0x4e487b7100000000000000000000000000000000000000000000000000000000\n        /* \"#utility.yul\":12696:12697   */\n      0x00\n        /* \"#utility.yul\":12689:12777   */\n      mstore\n        /* \"#utility.yul\":12796:12800   */\n      0x32\n        /* \"#utility.yul\":12793:12794   */\n      0x04\n        /* \"#utility.yul\":12786:12801   */\n      mstore\n        /* \"#utility.yul\":12820:12824   */\n      0x24\n        /* \"#utility.yul\":12817:12818   */\n      0x00\n        /* \"#utility.yul\":12810:12825   */\n      revert\n        /* \"#utility.yul\":12837:13014   */\n    tag_242:\n        /* \"#utility.yul\":12977:13006   */\n      0x4164647265737320697320616c726561647920616e2061646d696e0000000000\n        /* \"#utility.yul\":12973:12974   */\n      0x00\n        /* \"#utility.yul\":12965:12971   */\n      dup3\n        /* \"#utility.yul\":12961:12975   */\n      add\n        /* \"#utility.yul\":12954:13007   */\n      mstore\n        /* \"#utility.yul\":12837:13014   */\n      pop\n      jump\t// out\n        /* \"#utility.yul\":13020:13386   */\n    tag_243:\n        /* \"#utility.yul\":13162:13165   */\n      0x00\n        /* \"#utility.yul\":13183:13250   */\n      tag_383\n        /* \"#utility.yul\":13247:13249   */\n      0x1b\n        /* \"#utility.yul\":13242:13245   */\n      dup4\n        /* \"#utility.yul\":13183:13250   */\n      tag_235\n      jump\t// in\n    tag_383:\n        /* \"#utility.yul\":13176:13250   */\n      swap2\n      pop\n        /* \"#utility.yul\":13259:13352   */\n      tag_384\n        /* \"#utility.yul\":13348:13351   */\n      dup3\n        /* \"#utility.yul\":13259:13352   */\n      tag_242\n      jump\t// in\n    tag_384:\n        /* \"#utility.yul\":13377:13379   */\n      0x20\n        /* \"#utility.yul\":13372:13375   */\n      dup3\n        /* \"#utility.yul\":13368:13380   */\n      add\n        /* \"#utility.yul\":13361:13380   */\n      swap1\n      pop\n        /* \"#utility.yul\":13020:13386   */\n      swap2\n      swap1\n      pop\n      jump\t// out\n        /* \"#utility.yul\":13392:13811   */\n    tag_133:\n        /* \"#utility.yul\":13558:13562   */\n      0x00\n        /* \"#utility.yul\":13596:13598   */\n      0x20\n        /* \"#utility.yul\":13585:13594   */\n      dup3\n        /* \"#utility.yul\":13581:13599   */\n      add\n        /* \"#utility.yul\":13573:13599   */\n      swap1\n      pop\n        /* \"#utility.yul\":13645:13654   */\n      dup2\n        /* \"#utility.yul\":13639:13643   */\n      dup2\n        /* \"#utility.yul\":13635:13655   */\n      sub\n        /* \"#utility.yul\":13631:13632   */\n      0x00\n        /* \"#utility.yul\":13620:13629   */\n      dup4\n        /* \"#utility.yul\":13616:13633   */\n      add\n        /* \"#utility.yul\":13609:13656   */\n      mstore\n        /* \"#utility.yul\":13673:13804   */\n      tag_386\n        /* \"#utility.yul\":13799:13803   */\n      dup2\n        /* \"#utility.yul\":13673:13804   */\n      tag_243\n      jump\t// in\n    tag_386:\n        /* \"#utility.yul\":13665:13804   */\n      swap1\n      pop\n        /* \"#utility.yul\":13392:13811   */\n      swap2\n      swap1\n      pop\n      jump\t// out\n        /* \"#utility.yul\":13817:13992   */\n    tag_244:\n        /* \"#utility.yul\":13957:13984   */\n      0x43616c6c6572206973206e6f742077686974656c697374656400000000000000\n        /* \"#utility.yul\":13953:13954   */\n      0x00\n        /* \"#utility.yul\":13945:13951   */\n      dup3\n        /* \"#utility.yul\":13941:13955   */\n      add\n        /* \"#utility.yul\":13934:13985   */\n      mstore\n        /* \"#utility.yul\":13817:13992   */\n      pop\n      jump\t// out\n        /* \"#utility.yul\":13998:14364   */\n    tag_245:\n        /* \"#utility.yul\":14140:14143   */\n      0x00\n        /* \"#utility.yul\":14161:14228   */\n      tag_389\n        /* \"#utility.yul\":14225:14227   */\n      0x19\n        /* \"#utility.yul\":14220:14223   */\n      dup4\n        /* \"#utility.yul\":14161:14228   */\n      tag_235\n      jump\t// in\n    tag_389:\n        /* \"#utility.yul\":14154:14228   */\n      swap2\n      pop\n        /* \"#utility.yul\":14237:14330   */\n      tag_390\n        /* \"#utility.yul\":14326:14329   */\n      dup3\n        /* \"#utility.yul\":14237:14330   */\n      tag_244\n      jump\t// in\n    tag_390:\n        /* \"#utility.yul\":14355:14357   */\n      0x20\n        /* \"#utility.yul\":14350:14353   */\n      dup3\n        /* \"#utility.yul\":14346:14358   */\n      add\n        /* \"#utility.yul\":14339:14358   */\n      swap1\n      pop\n        /* \"#utility.yul\":13998:14364   */\n      swap2\n      swap1\n      pop\n      jump\t// out\n        /* \"#utility.yul\":14370:14789   */\n    tag_154:\n        /* \"#utility.yul\":14536:14540   */\n      0x00\n        /* \"#utility.yul\":14574:14576   */\n      0x20\n        /* \"#utility.yul\":14563:14572   */\n      dup3\n        /* \"#utility.yul\":14559:14577   */\n      add\n        /* \"#utility.yul\":14551:14577   */\n      swap1\n      pop\n        /* \"#utility.yul\":14623:14632   */\n      dup2\n        /* \"#utility.yul\":14617:14621   */\n      dup2\n        /* \"#utility.yul\":14613:14633   */\n      sub\n        /* \"#utility.yul\":14609:14610   */\n      0x00\n        /* \"#utility.yul\":14598:14607   */\n      dup4\n        /* \"#utility.yul\":14594:14611   */\n      add\n        /* \"#utility.yul\":14587:14634   */\n      mstore\n        /* \"#utility.yul\":14651:14782   */\n      tag_392\n        /* \"#utility.yul\":14777:14781   */\n      dup2\n        /* \"#utility.yul\":14651:14782   */\n      tag_245\n      jump\t// in\n    tag_392:\n        /* \"#utility.yul\":14643:14782   */\n      swap1\n      pop\n        /* \"#utility.yul\":14370:14789   */\n      swap2\n      swap1\n      pop\n      jump\t// out\n        /* \"#utility.yul\":14795:14975   */\n    tag_246:\n        /* \"#utility.yul\":14843:14920   */\n      0x4e487b7100000000000000000000000000000000000000000000000000000000\n        /* \"#utility.yul\":14840:14841   */\n      0x00\n        /* \"#utility.yul\":14833:14921   */\n      mstore\n        /* \"#utility.yul\":14940:14944   */\n      0x11\n        /* \"#utility.yul\":14937:14938   */\n      0x04\n        /* \"#utility.yul\":14930:14945   */\n      mstore\n        /* \"#utility.yul\":14964:14968   */\n      0x24\n        /* \"#utility.yul\":14961:14962   */\n      0x00\n        /* \"#utility.yul\":14954:14969   */\n      revert\n        /* \"#utility.yul\":14981:15172   */\n    tag_163:\n        /* \"#utility.yul\":15021:15024   */\n      0x00\n        /* \"#utility.yul\":15040:15060   */\n      tag_395\n        /* \"#utility.yul\":15058:15059   */\n      dup3\n        /* \"#utility.yul\":15040:15060   */\n      tag_208\n      jump\t// in\n    tag_395:\n        /* \"#utility.yul\":15035:15060   */\n      swap2\n      pop\n        /* \"#utility.yul\":15074:15094   */\n      tag_396\n        /* \"#utility.yul\":15092:15093   */\n      dup4\n        /* \"#utility.yul\":15074:15094   */\n      tag_208\n      jump\t// in\n    tag_396:\n        /* \"#utility.yul\":15069:15094   */\n      swap3\n      pop\n        /* \"#utility.yul\":15117:15118   */\n      dup3\n        /* \"#utility.yul\":15114:15115   */\n      dup3\n        /* \"#utility.yul\":15110:15119   */\n      add\n        /* \"#utility.yul\":15103:15119   */\n      swap1\n      pop\n        /* \"#utility.yul\":15138:15141   */\n      dup1\n        /* \"#utility.yul\":15135:15136   */\n      dup3\n        /* \"#utility.yul\":15132:15142   */\n      gt\n        /* \"#utility.yul\":15129:15165   */\n      iszero\n      tag_397\n      jumpi\n        /* \"#utility.yul\":15145:15163   */\n      tag_398\n      tag_246\n      jump\t// in\n    tag_398:\n        /* \"#utility.yul\":15129:15165   */\n    tag_397:\n        /* \"#utility.yul\":14981:15172   */\n      swap3\n      swap2\n      pop\n      pop\n      jump\t// out\n        /* \"#utility.yul\":15178:15272   */\n    tag_247:\n        /* \"#utility.yul\":15211:15219   */\n      0x00\n        /* \"#utility.yul\":15259:15264   */\n      dup2\n        /* \"#utility.yul\":15255:15257   */\n      0x60\n        /* \"#utility.yul\":15251:15265   */\n      shl\n        /* \"#utility.yul\":15230:15265   */\n      swap1\n      pop\n        /* \"#utility.yul\":15178:15272   */\n      swap2\n      swap1\n      pop\n      jump\t// out\n        /* \"#utility.yul\":15278:15372   */\n    tag_248:\n        /* \"#utility.yul\":15317:15324   */\n      0x00\n        /* \"#utility.yul\":15346:15366   */\n      tag_401\n        /* \"#utility.yul\":15360:15365   */\n      dup3\n        /* \"#utility.yul\":15346:15366   */\n      tag_247\n      jump\t// in\n    tag_401:\n        /* \"#utility.yul\":15335:15366   */\n      swap1\n      pop\n        /* \"#utility.yul\":15278:15372   */\n      swap2\n      swap1\n      pop\n      jump\t// out\n        /* \"#utility.yul\":15378:15478   */\n    tag_249:\n        /* \"#utility.yul\":15417:15424   */\n      0x00\n        /* \"#utility.yul\":15446:15472   */\n      tag_403\n        /* \"#utility.yul\":15466:15471   */\n      dup3\n        /* \"#utility.yul\":15446:15472   */\n      tag_248\n      jump\t// in\n    tag_403:\n        /* \"#utility.yul\":15435:15472   */\n      swap1\n      pop\n        /* \"#utility.yul\":15378:15478   */\n      swap2\n      swap1\n      pop\n      jump\t// out\n        /* \"#utility.yul\":15484:15641   */\n    tag_250:\n        /* \"#utility.yul\":15589:15634   */\n      tag_405\n        /* \"#utility.yul\":15609:15633   */\n      tag_406\n        /* \"#utility.yul\":15627:15632   */\n      dup3\n        /* \"#utility.yul\":15609:15633   */\n      tag_212\n      jump\t// in\n    tag_406:\n        /* \"#utility.yul\":15589:15634   */\n      tag_249\n      jump\t// in\n    tag_405:\n        /* \"#utility.yul\":15584:15587   */\n      dup3\n        /* \"#utility.yul\":15577:15635   */\n      mstore\n        /* \"#utility.yul\":15484:15641   */\n      pop\n      pop\n      jump\t// out\n        /* \"#utility.yul\":15647:15903   */\n    tag_168:\n        /* \"#utility.yul\":15759:15762   */\n      0x00\n        /* \"#utility.yul\":15774:15849   */\n      tag_408\n        /* \"#utility.yul\":15845:15848   */\n      dup3\n        /* \"#utility.yul\":15836:15842   */\n      dup5\n        /* \"#utility.yul\":15774:15849   */\n      tag_250\n      jump\t// in\n    tag_408:\n        /* \"#utility.yul\":15874:15876   */\n      0x14\n        /* \"#utility.yul\":15869:15872   */\n      dup3\n        /* \"#utility.yul\":15865:15877   */\n      add\n        /* \"#utility.yul\":15858:15877   */\n      swap2\n      pop\n        /* \"#utility.yul\":15894:15897   */\n      dup2\n        /* \"#utility.yul\":15887:15897   */\n      swap1\n      pop\n        /* \"#utility.yul\":15647:15903   */\n      swap3\n      swap2\n      pop\n      pop\n      jump\t// out\n        /* \"#utility.yul\":15909:16135   */\n    tag_251:\n        /* \"#utility.yul\":16049:16083   */\n      0x4164647265737320697320616c7265616479206d616e75616c6c792077686974\n        /* \"#utility.yul\":16045:16046   */\n      0x00\n        /* \"#utility.yul\":16037:16043   */\n      dup3\n        /* \"#utility.yul\":16033:16047   */\n      add\n        /* \"#utility.yul\":16026:16084   */\n      mstore\n        /* \"#utility.yul\":16118:16127   */\n      0x656c697374656400000000000000000000000000000000000000000000000000\n        /* \"#utility.yul\":16113:16115   */\n      0x20\n        /* \"#utility.yul\":16105:16111   */\n      dup3\n        /* \"#utility.yul\":16101:16116   */\n      add\n        /* \"#utility.yul\":16094:16128   */\n      mstore\n        /* \"#utility.yul\":15909:16135   */\n      pop\n      jump\t// out\n        /* \"#utility.yul\":16141:16507   */\n    tag_252:\n        /* \"#utility.yul\":16283:16286   */\n      0x00\n        /* \"#utility.yul\":16304:16371   */\n      tag_411\n        /* \"#utility.yul\":16368:16370   */\n      0x27\n        /* \"#utility.yul\":16363:16366   */\n      dup4\n        /* \"#utility.yul\":16304:16371   */\n      tag_235\n      jump\t// in\n    tag_411:\n        /* \"#utility.yul\":16297:16371   */\n      swap2\n      pop\n        /* \"#utility.yul\":16380:16473   */\n      tag_412\n        /* \"#utility.yul\":16469:16472   */\n      dup3\n        /* \"#utility.yul\":16380:16473   */\n      tag_251\n      jump\t// in\n    tag_412:\n        /* \"#utility.yul\":16498:16500   */\n      0x40\n        /* \"#utility.yul\":16493:16496   */\n      dup3\n        /* \"#utility.yul\":16489:16501   */\n      add\n        /* \"#utility.yul\":16482:16501   */\n      swap1\n      pop\n        /* \"#utility.yul\":16141:16507   */\n      swap2\n      swap1\n      pop\n      jump\t// out\n        /* \"#utility.yul\":16513:16932   */\n    tag_178:\n        /* \"#utility.yul\":16679:16683   */\n      0x00\n        /* \"#utility.yul\":16717:16719   */\n      0x20\n        /* \"#utility.yul\":16706:16715   */\n      dup3\n        /* \"#utility.yul\":16702:16720   */\n      add\n        /* \"#utility.yul\":16694:16720   */\n      swap1\n      pop\n        /* \"#utility.yul\":16766:16775   */\n      dup2\n        /* \"#utility.yul\":16760:16764   */\n      dup2\n        /* \"#utility.yul\":16756:16776   */\n      sub\n        /* \"#utility.yul\":16752:16753   */\n      0x00\n        /* \"#utility.yul\":16741:16750   */\n      dup4\n        /* \"#utility.yul\":16737:16754   */\n      add\n        /* \"#utility.yul\":16730:16777   */\n      mstore\n        /* \"#utility.yul\":16794:16925   */\n      tag_414\n        /* \"#utility.yul\":16920:16924   */\n      dup2\n        /* \"#utility.yul\":16794:16925   */\n      tag_252\n      jump\t// in\n    tag_414:\n        /* \"#utility.yul\":16786:16925   */\n      swap1\n      pop\n        /* \"#utility.yul\":16513:16932   */\n      swap2\n      swap1\n      pop\n      jump\t// out\n\n    auxdata: 0xa26469706673582212200be3cadfe68c352e34944bd836c15fb84c080df1502a74936e5f29b9fd3ce6da64736f6c634300081a0033\n}\n",
				"bytecode": {
					"linkReferences": {},
					"object": "6080604052348015600e575f80fd5b50604051611e50380380611e508339818101604052810190602e919060ab565b335f806101000a81548173ffffffffffffffffffffffffffffffffffffffff021916908373ffffffffffffffffffffffffffffffffffffffff160217905550806001819055505060d1565b5f80fd5b5f819050919050565b608d81607d565b81146096575f80fd5b50565b5f8151905060a5816086565b92915050565b5f6020828403121560bd5760bc6079565b5b5f60c8848285016099565b91505092915050565b611d72806100de5f395ff3fe608060405234801561000f575f80fd5b50600436106100fe575f3560e01c80638401f8d111610095578063a4ec8d2211610064578063a4ec8d2214610282578063d9e9c978146102b2578063debefaa6146102e2578063e43252d714610312576100fe565b80638401f8d1146102105780638da5cb5b1461022c578063956aad881461024a578063a407e49614610266576100fe565b80634783f0ef116100d15780634783f0ef1461019c5780635a521883146101b85780635c9c66c6146101d657806370480275146101f4576100fe565b80630b207ec9146101025780631785f53c146101325780632eb4a7ab1461014e578063429b62e51461016c575b5f80fd5b61011c60048036038101906101179190611525565b61032e565b604051610129919061158f565b60405180910390f35b61014c600480360381019061014791906115d2565b610369565b005b610156610524565b6040516101639190611615565b60405180910390f35b610186600480360381019061018191906115d2565b61052a565b6040516101939190611648565b60405180910390f35b6101b660048036038101906101b1919061168b565b610547565b005b6101c0610861565b6040516101cd91906116c5565b60405180910390f35b6101de610867565b6040516101eb9190611795565b60405180910390f35b61020e600480360381019061020991906115d2565b6108f2565b005b61022a60048036038101906102259190611816565b610ab0565b005b610234610db2565b604051610241919061158f565b60405180910390f35b610264600480360381019061025f91906118b6565b610dd5565b005b610280600480360381019061027b91906118b6565b610f58565b005b61029c600480360381019061029791906115d2565b61100d565b6040516102a991906116c5565b60405180910390f35b6102cc60048036038101906102c791906115d2565b611022565b6040516102d99190611648565b60405180910390f35b6102fc60048036038101906102f79190611901565b61103f565b6040516103099190611648565b60405180910390f35b61032c600480360381019061032791906115d2565b61111a565b005b6005818154811061033d575f80fd5b905f5260205f20015f915054906101000a900473ffffffffffffffffffffffffffffffffffffffff1681565b5f8054906101000a900473ffffffffffffffffffffffffffffffffffffffff1673ffffffffffffffffffffffffffffffffffffffff163373ffffffffffffffffffffffffffffffffffffffff16146103f6576040517f08c379a00000000000000000000000000000000000000000000000000000000081526004016103ed906119de565b60405180910390fd5b60035f8273ffffffffffffffffffffffffffffffffffffffff1673ffffffffffffffffffffffffffffffffffffffff1681526020019081526020015f205f9054906101000a900460ff1661047f576040517f08c379a000000000000000000000000000000000000000000000000000000000815260040161047690611a46565b60405180910390fd5b5f60035f8373ffffffffffffffffffffffffffffffffffffffff1673ffffffffffffffffffffffffffffffffffffffff1681526020019081526020015f205f6101000a81548160ff0219169083151502179055508073ffffffffffffffffffffffffffffffffffffffff167f235bc17e7930760029e9f4d860a2a8089976de5b381cf8380fc11c1d88a111335f6040516105199190611648565b60405180910390a250565b60015481565b6003602052805f5260405f205f915054906101000a900460ff1681565b60035f3373ffffffffffffffffffffffffffffffffffffffff1673ffffffffffffffffffffffffffffffffffffffff1681526020019081526020015f205f9054906101000a900460ff16806105e657505f8054906101000a900473ffffffffffffffffffffffffffffffffffffffff1673ffffffffffffffffffffffffffffffffffffffff163373ffffffffffffffffffffffffffffffffffffffff16145b610625576040517f08c379a000000000000000000000000000000000000000000000000000000000815260040161061c90611ad4565b60405180910390fd5b806001819055505f5b6005805490508110156106d7575f60025f6005848154811061065357610652611af2565b5b905f5260205f20015f9054906101000a900473ffffffffffffffffffffffffffffffffffffffff1673ffffffffffffffffffffffffffffffffffffffff1673ffffffffffffffffffffffffffffffffffffffff1681526020019081526020015f205f6101000a81548160ff021916908315150217905550808060010191505061062e565b5060055f6106e591906114b1565b5f5b6005805490508110156108265760025f6005838154811061070b5761070a611af2565b5b905f5260205f20015f9054906101000a900473ffffffffffffffffffffffffffffffffffffffff1673ffffffffffffffffffffffffffffffffffffffff1673ffffffffffffffffffffffffffffffffffffffff1681526020019081526020015f205f9054906101000a900460ff161561081957600580828154811061079357610792611af2565b5b905f5260205f20015f9054906101000a900473ffffffffffffffffffffffffffffffffffffffff16908060018154018082558091505060019003905f5260205f20015f9091909190916101000a81548173ffffffffffffffffffffffffffffffffffffffff021916908373ffffffffffffffffffffffffffffffffffffffff1602179055505b80806001019150506106e7565b507f90004c04698bc3322499a575ed3752dd4abf33e0a7294c06a787a0fe01bea941816040516108569190611615565b60405180910390a150565b60065481565b606060058054806020026020016040519081016040528092919081815260200182805480156108e857602002820191905f5260205f20905b815f9054906101000a900473ffffffffffffffffffffffffffffffffffffffff1673ffffffffffffffffffffffffffffffffffffffff168152602001906001019080831161089f575b5050505050905090565b5f8054906101000a900473ffffffffffffffffffffffffffffffffffffffff1673ffffffffffffffffffffffffffffffffffffffff163373ffffffffffffffffffffffffffffffffffffffff161461097f576040517f08c379a0000000000000000000000000000000000000000000000000000000008152600401610976906119de565b60405180910390fd5b60035f8273ffffffffffffffffffffffffffffffffffffffff1673ffffffffffffffffffffffffffffffffffffffff1681526020019081526020015f205f9054906101000a900460ff1615610a09576040517f08c379a0000000000000000000000000000000000000000000000000000000008152600401610a0090611b69565b60405180910390fd5b600160035f8373ffffffffffffffffffffffffffffffffffffffff1673ffffffffffffffffffffffffffffffffffffffff1681526020019081526020015f205f6101000a81548160ff0219169083151502179055508073ffffffffffffffffffffffffffffffffffffffff167f235bc17e7930760029e9f4d860a2a8089976de5b381cf8380fc11c1d88a111336001604051610aa59190611648565b60405180910390a250565b60035f3373ffffffffffffffffffffffffffffffffffffffff1673ffffffffffffffffffffffffffffffffffffffff1681526020019081526020015f205f9054906101000a900460ff1680610b4f57505f8054906101000a900473ffffffffffffffffffffffffffffffffffffffff1673ffffffffffffffffffffffffffffffffffffffff163373ffffffffffffffffffffffffffffffffffffffff16145b610b8e576040517f08c379a0000000000000000000000000000000000000000000000000000000008152600401610b8590611ad4565b60405180910390fd5b5f5b82829050811015610dad575f838383818110610baf57610bae611af2565b5b9050602002016020810190610bc491906115d2565b905060025f8273ffffffffffffffffffffffffffffffffffffffff1673ffffffffffffffffffffffffffffffffffffffff1681526020019081526020015f205f9054906101000a900460ff16610d9f57600160025f8373ffffffffffffffffffffffffffffffffffffffff1673ffffffffffffffffffffffffffffffffffffffff1681526020019081526020015f205f6101000a81548160ff0219169083151502179055505f60045f8373ffffffffffffffffffffffffffffffffffffffff1673ffffffffffffffffffffffffffffffffffffffff1681526020019081526020015f205403610d9e574260045f8373ffffffffffffffffffffffffffffffffffffffff1673ffffffffffffffffffffffffffffffffffffffff1681526020019081526020015f2081905550600581908060018154018082558091505060019003905f5260205f20015f9091909190916101000a81548173ffffffffffffffffffffffffffffffffffffffff021916908373ffffffffffffffffffffffffffffffffffffffff1602179055508073ffffffffffffffffffffffffffffffffffffffff167fa49883ca390454a7ad754a5c01f6b92c7467a5daa38c2a935fbfb93f8bb2530f42604051610d9591906116c5565b60405180910390a25b5b508080600101915050610b90565b505050565b5f8054906101000a900473ffffffffffffffffffffffffffffffffffffffff1681565b610de082823361103f565b610e1f576040517f08c379a0000000000000000000000000000000000000000000000000000000008152600401610e1690611bd1565b60405180910390fd5b5f60045f3373ffffffffffffffffffffffffffffffffffffffff1673ffffffffffffffffffffffffffffffffffffffff1681526020019081526020015f205403610f54574260045f3373ffffffffffffffffffffffffffffffffffffffff1673ffffffffffffffffffffffffffffffffffffffff1681526020019081526020015f2081905550600533908060018154018082558091505060019003905f5260205f20015f9091909190916101000a81548173ffffffffffffffffffffffffffffffffffffffff021916908373ffffffffffffffffffffffffffffffffffffffff1602179055503373ffffffffffffffffffffffffffffffffffffffff167fa49883ca390454a7ad754a5c01f6b92c7467a5daa38c2a935fbfb93f8bb2530f42604051610f4b91906116c5565b60405180910390a25b5050565b610f6382823361103f565b610fa2576040517f08c379a0000000000000000000000000000000000000000000000000000000008152600401610f9990611bd1565b60405180910390fd5b600160065f828254610fb49190611c1c565b925050819055503373ffffffffffffffffffffffffffffffffffffffff167fda29567229e1b858992f983785638370913b8134292eea489d9ccfc8f9711d984260405161100191906116c5565b60405180910390a25050565b6004602052805f5260405f205f915090505481565b6002602052805f5260405f205f915054906101000a900460ff1681565b5f60025f8373ffffffffffffffffffffffffffffffffffffffff1673ffffffffffffffffffffffffffffffffffffffff1681526020019081526020015f205f9054906101000a900460ff16156110985760019050611113565b5f826040516020016110aa9190611c94565b60405160208183030381529060405280519060200120905061110f8585808060200260200160405190810160405280939291908181526020018383602002808284375f81840152601f19601f820116905080830192505050505050506001548361140f565b9150505b9392505050565b60035f3373ffffffffffffffffffffffffffffffffffffffff1673ffffffffffffffffffffffffffffffffffffffff1681526020019081526020015f205f9054906101000a900460ff16806111b957505f8054906101000a900473ffffffffffffffffffffffffffffffffffffffff1673ffffffffffffffffffffffffffffffffffffffff163373ffffffffffffffffffffffffffffffffffffffff16145b6111f8576040517f08c379a00000000000000000000000000000000000000000000000000000000081526004016111ef90611ad4565b60405180910390fd5b60025f8273ffffffffffffffffffffffffffffffffffffffff1673ffffffffffffffffffffffffffffffffffffffff1681526020019081526020015f205f9054906101000a900460ff1615611282576040517f08c379a000000000000000000000000000000000000000000000000000000000815260040161127990611d1e565b60405180910390fd5b600160025f8373ffffffffffffffffffffffffffffffffffffffff1673ffffffffffffffffffffffffffffffffffffffff1681526020019081526020015f205f6101000a81548160ff0219169083151502179055505f60045f8373ffffffffffffffffffffffffffffffffffffffff1673ffffffffffffffffffffffffffffffffffffffff1681526020019081526020015f2054036113be574260045f8373ffffffffffffffffffffffffffffffffffffffff1673ffffffffffffffffffffffffffffffffffffffff1681526020019081526020015f2081905550600581908060018154018082558091505060019003905f5260205f20015f9091909190916101000a81548173ffffffffffffffffffffffffffffffffffffffff021916908373ffffffffffffffffffffffffffffffffffffffff1602179055505b8073ffffffffffffffffffffffffffffffffffffffff167fa49883ca390454a7ad754a5c01f6b92c7467a5daa38c2a935fbfb93f8bb2530f4260405161140491906116c5565b60405180910390a250565b5f8261141b8584611425565b1490509392505050565b5f808290505f5b8451811015611468576114598286838151811061144c5761144b611af2565b5b6020026020010151611473565b9150808060010191505061142c565b508091505092915050565b5f81831061148a57611485828461149d565b611495565b611494838361149d565b5b905092915050565b5f825f528160205260405f20905092915050565b5080545f8255905f5260205f20908101906114cc91906114cf565b50565b5b808211156114e6575f815f9055506001016114d0565b5090565b5f80fd5b5f80fd5b5f819050919050565b611504816114f2565b811461150e575f80fd5b50565b5f8135905061151f816114fb565b92915050565b5f6020828403121561153a576115396114ea565b5b5f61154784828501611511565b91505092915050565b5f73ffffffffffffffffffffffffffffffffffffffff82169050919050565b5f61157982611550565b9050919050565b6115898161156f565b82525050565b5f6020820190506115a25f830184611580565b92915050565b6115b18161156f565b81146115bb575f80fd5b50565b5f813590506115cc816115a8565b92915050565b5f602082840312156115e7576115e66114ea565b5b5f6115f4848285016115be565b91505092915050565b5f819050919050565b61160f816115fd565b82525050565b5f6020820190506116285f830184611606565b92915050565b5f8115159050919050565b6116428161162e565b82525050565b5f60208201905061165b5f830184611639565b92915050565b61166a816115fd565b8114611674575f80fd5b50565b5f8135905061168581611661565b92915050565b5f602082840312156116a05761169f6114ea565b5b5f6116ad84828501611677565b91505092915050565b6116bf816114f2565b82525050565b5f6020820190506116d85f8301846116b6565b92915050565b5f81519050919050565b5f82825260208201905092915050565b5f819050602082019050919050565b6117108161156f565b82525050565b5f6117218383611707565b60208301905092915050565b5f602082019050919050565b5f611743826116de565b61174d81856116e8565b9350611758836116f8565b805f5b8381101561178857815161176f8882611716565b975061177a8361172d565b92505060018101905061175b565b5085935050505092915050565b5f6020820190508181035f8301526117ad8184611739565b905092915050565b5f80fd5b5f80fd5b5f80fd5b5f8083601f8401126117d6576117d56117b5565b5b8235905067ffffffffffffffff8111156117f3576117f26117b9565b5b60208301915083602082028301111561180f5761180e6117bd565b5b9250929050565b5f806020838503121561182c5761182b6114ea565b5b5f83013567ffffffffffffffff811115611849576118486114ee565b5b611855858286016117c1565b92509250509250929050565b5f8083601f840112611876576118756117b5565b5b8235905067ffffffffffffffff811115611893576118926117b9565b5b6020830191508360208202830111156118af576118ae6117bd565b5b9250929050565b5f80602083850312156118cc576118cb6114ea565b5b5f83013567ffffffffffffffff8111156118e9576118e86114ee565b5b6118f585828601611861565b92509250509250929050565b5f805f60408486031215611918576119176114ea565b5b5f84013567ffffffffffffffff811115611935576119346114ee565b5b61194186828701611861565b93509350506020611954868287016115be565b9150509250925092565b5f82825260208201905092915050565b7f4f6e6c7920746865206f776e65722063616e20706572666f726d2074686973205f8201527f616374696f6e0000000000000000000000000000000000000000000000000000602082015250565b5f6119c860268361195e565b91506119d38261196e565b604082019050919050565b5f6020820190508181035f8301526119f5816119bc565b9050919050565b7f41646472657373206973206e6f7420616e2061646d696e0000000000000000005f82015250565b5f611a3060178361195e565b9150611a3b826119fc565b602082019050919050565b5f6020820190508181035f830152611a5d81611a24565b9050919050565b7f4f6e6c7920616e2061646d696e2063616e20706572666f726d207468697320615f8201527f6374696f6e000000000000000000000000000000000000000000000000000000602082015250565b5f611abe60258361195e565b9150611ac982611a64565b604082019050919050565b5f6020820190508181035f830152611aeb81611ab2565b9050919050565b7f4e487b71000000000000000000000000000000000000000000000000000000005f52603260045260245ffd5b7f4164647265737320697320616c726561647920616e2061646d696e00000000005f82015250565b5f611b53601b8361195e565b9150611b5e82611b1f565b602082019050919050565b5f6020820190508181035f830152611b8081611b47565b9050919050565b7f43616c6c6572206973206e6f742077686974656c6973746564000000000000005f82015250565b5f611bbb60198361195e565b9150611bc682611b87565b602082019050919050565b5f6020820190508181035f830152611be881611baf565b9050919050565b7f4e487b71000000000000000000000000000000000000000000000000000000005f52601160045260245ffd5b5f611c26826114f2565b9150611c31836114f2565b9250828201905080821115611c4957611c48611bef565b5b92915050565b5f8160601b9050919050565b5f611c6582611c4f565b9050919050565b5f611c7682611c5b565b9050919050565b611c8e611c898261156f565b611c6c565b82525050565b5f611c9f8284611c7d565b60148201915081905092915050565b7f4164647265737320697320616c7265616479206d616e75616c6c7920776869745f8201527f656c697374656400000000000000000000000000000000000000000000000000602082015250565b5f611d0860278361195e565b9150611d1382611cae565b604082019050919050565b5f6020820190508181035f830152611d3581611cfc565b905091905056fea26469706673582212200be3cadfe68c352e34944bd836c15fb84c080df1502a74936e5f29b9fd3ce6da64736f6c634300081a0033",
					"opcodes": "PUSH1 0x80 PUSH1 0x40 MSTORE CALLVALUE DUP1 ISZERO PUSH1 0xE JUMPI PUSH0 DUP1 REVERT JUMPDEST POP PUSH1 0x40 MLOAD PUSH2 0x1E50 CODESIZE SUB DUP1 PUSH2 0x1E50 DUP4 CODECOPY DUP2 DUP2 ADD PUSH1 0x40 MSTORE DUP2 ADD SWAP1 PUSH1 0x2E SWAP2 SWAP1 PUSH1 0xAB JUMP JUMPDEST CALLER PUSH0 DUP1 PUSH2 0x100 EXP DUP2 SLOAD DUP2 PUSH20 0xFFFFFFFFFFFFFFFFFFFFFFFFFFFFFFFFFFFFFFFF MUL NOT AND SWAP1 DUP4 PUSH20 0xFFFFFFFFFFFFFFFFFFFFFFFFFFFFFFFFFFFFFFFF AND MUL OR SWAP1 SSTORE POP DUP1 PUSH1 0x1 DUP2 SWAP1 SSTORE POP POP PUSH1 0xD1 JUMP JUMPDEST PUSH0 DUP1 REVERT JUMPDEST PUSH0 DUP2 SWAP1 POP SWAP2 SWAP1 POP JUMP JUMPDEST PUSH1 0x8D DUP2 PUSH1 0x7D JUMP JUMPDEST DUP2 EQ PUSH1 0x96 JUMPI PUSH0 DUP1 REVERT JUMPDEST POP JUMP JUMPDEST PUSH0 DUP2 MLOAD SWAP1 POP PUSH1 0xA5 DUP2 PUSH1 0x86 JUMP JUMPDEST SWAP3 SWAP2 POP POP JUMP JUMPDEST PUSH0 PUSH1 0x20 DUP3 DUP5 SUB SLT ISZERO PUSH1 0xBD JUMPI PUSH1 0xBC PUSH1 0x79 JUMP JUMPDEST JUMPDEST PUSH0 PUSH1 0xC8 DUP5 DUP3 DUP6 ADD PUSH1 0x99 JUMP JUMPDEST SWAP2 POP POP SWAP3 SWAP2 POP POP JUMP JUMPDEST PUSH2 0x1D72 DUP1 PUSH2 0xDE PUSH0 CODECOPY PUSH0 RETURN INVALID PUSH1 0x80 PUSH1 0x40 MSTORE CALLVALUE DUP1 ISZERO PUSH2 0xF JUMPI PUSH0 DUP1 REVERT JUMPDEST POP PUSH1 0x4 CALLDATASIZE LT PUSH2 0xFE JUMPI PUSH0 CALLDATALOAD PUSH1 0xE0 SHR DUP1 PUSH4 0x8401F8D1 GT PUSH2 0x95 JUMPI DUP1 PUSH4 0xA4EC8D22 GT PUSH2 0x64 JUMPI DUP1 PUSH4 0xA4EC8D22 EQ PUSH2 0x282 JUMPI DUP1 PUSH4 0xD9E9C978 EQ PUSH2 0x2B2 JUMPI DUP1 PUSH4 0xDEBEFAA6 EQ PUSH2 0x2E2 JUMPI DUP1 PUSH4 0xE43252D7 EQ PUSH2 0x312 JUMPI PUSH2 0xFE JUMP JUMPDEST DUP1 PUSH4 0x8401F8D1 EQ PUSH2 0x210 JUMPI DUP1 PUSH4 0x8DA5CB5B EQ PUSH2 0x22C JUMPI DUP1 PUSH4 0x956AAD88 EQ PUSH2 0x24A JUMPI DUP1 PUSH4 0xA407E496 EQ PUSH2 0x266 JUMPI PUSH2 0xFE JUMP JUMPDEST DUP1 PUSH4 0x4783F0EF GT PUSH2 0xD1 JUMPI DUP1 PUSH4 0x4783F0EF EQ PUSH2 0x19C JUMPI DUP1 PUSH4 0x5A521883 EQ PUSH2 0x1B8 JUMPI DUP1 PUSH4 0x5C9C66C6 EQ PUSH2 0x1D6 JUMPI DUP1 PUSH4 0x70480275 EQ PUSH2 0x1F4 JUMPI PUSH2 0xFE JUMP JUMPDEST DUP1 PUSH4 0xB207EC9 EQ PUSH2 0x102 JUMPI DUP1 PUSH4 0x1785F53C EQ PUSH2 0x132 JUMPI DUP1 PUSH4 0x2EB4A7AB EQ PUSH2 0x14E JUMPI DUP1 PUSH4 0x429B62E5 EQ PUSH2 0x16C JUMPI JUMPDEST PUSH0 DUP1 REVERT JUMPDEST PUSH2 0x11C PUSH1 0x4 DUP1 CALLDATASIZE SUB DUP2 ADD SWAP1 PUSH2 0x117 SWAP2 SWAP1 PUSH2 0x1525 JUMP JUMPDEST PUSH2 0x32E JUMP JUMPDEST PUSH1 0x40 MLOAD PUSH2 0x129 SWAP2 SWAP1 PUSH2 0x158F JUMP JUMPDEST PUSH1 0x40 MLOAD DUP1 SWAP2 SUB SWAP1 RETURN JUMPDEST PUSH2 0x14C PUSH1 0x4 DUP1 CALLDATASIZE SUB DUP2 ADD SWAP1 PUSH2 0x147 SWAP2 SWAP1 PUSH2 0x15D2 JUMP JUMPDEST PUSH2 0x369 JUMP JUMPDEST STOP JUMPDEST PUSH2 0x156 PUSH2 0x524 JUMP JUMPDEST PUSH1 0x40 MLOAD PUSH2 0x163 SWAP2 SWAP1 PUSH2 0x1615 JUMP JUMPDEST PUSH1 0x40 MLOAD DUP1 SWAP2 SUB SWAP1 RETURN JUMPDEST PUSH2 0x186 PUSH1 0x4 DUP1 CALLDATASIZE SUB DUP2 ADD SWAP1 PUSH2 0x181 SWAP2 SWAP1 PUSH2 0x15D2 JUMP JUMPDEST PUSH2 0x52A JUMP JUMPDEST PUSH1 0x40 MLOAD PUSH2 0x193 SWAP2 SWAP1 PUSH2 0x1648 JUMP JUMPDEST PUSH1 0x40 MLOAD DUP1 SWAP2 SUB SWAP1 RETURN JUMPDEST PUSH2 0x1B6 PUSH1 0x4 DUP1 CALLDATASIZE SUB DUP2 ADD SWAP1 PUSH2 0x1B1 SWAP2 SWAP1 PUSH2 0x168B JUMP JUMPDEST PUSH2 0x547 JUMP JUMPDEST STOP JUMPDEST PUSH2 0x1C0 PUSH2 0x861 JUMP JUMPDEST PUSH1 0x40 MLOAD PUSH2 0x1CD SWAP2 SWAP1 PUSH2 0x16C5 JUMP JUMPDEST PUSH1 0x40 MLOAD DUP1 SWAP2 SUB SWAP1 RETURN JUMPDEST PUSH2 0x1DE PUSH2 0x867 JUMP JUMPDEST PUSH1 0x40 MLOAD PUSH2 0x1EB SWAP2 SWAP1 PUSH2 0x1795 JUMP JUMPDEST PUSH1 0x40 MLOAD DUP1 SWAP2 SUB SWAP1 RETURN JUMPDEST PUSH2 0x20E PUSH1 0x4 DUP1 CALLDATASIZE SUB DUP2 ADD SWAP1 PUSH2 0x209 SWAP2 SWAP1 PUSH2 0x15D2 JUMP JUMPDEST PUSH2 0x8F2 JUMP JUMPDEST STOP JUMPDEST PUSH2 0x22A PUSH1 0x4 DUP1 CALLDATASIZE SUB DUP2 ADD SWAP1 PUSH2 0x225 SWAP2 SWAP1 PUSH2 0x1816 JUMP JUMPDEST PUSH2 0xAB0 JUMP JUMPDEST STOP JUMPDEST PUSH2 0x234 PUSH2 0xDB2 JUMP JUMPDEST PUSH1 0x40 MLOAD PUSH2 0x241 SWAP2 SWAP1 PUSH2 0x158F JUMP JUMPDEST PUSH1 0x40 MLOAD DUP1 SWAP2 SUB SWAP1 RETURN JUMPDEST PUSH2 0x264 PUSH1 0x4 DUP1 CALLDATASIZE SUB DUP2 ADD SWAP1 PUSH2 0x25F SWAP2 SWAP1 PUSH2 0x18B6 JUMP JUMPDEST PUSH2 0xDD5 JUMP JUMPDEST STOP JUMPDEST PUSH2 0x280 PUSH1 0x4 DUP1 CALLDATASIZE SUB DUP2 ADD SWAP1 PUSH2 0x27B SWAP2 SWAP1 PUSH2 0x18B6 JUMP JUMPDEST PUSH2 0xF58 JUMP JUMPDEST STOP JUMPDEST PUSH2 0x29C PUSH1 0x4 DUP1 CALLDATASIZE SUB DUP2 ADD SWAP1 PUSH2 0x297 SWAP2 SWAP1 PUSH2 0x15D2 JUMP JUMPDEST PUSH2 0x100D JUMP JUMPDEST PUSH1 0x40 MLOAD PUSH2 0x2A9 SWAP2 SWAP1 PUSH2 0x16C5 JUMP JUMPDEST PUSH1 0x40 MLOAD DUP1 SWAP2 SUB SWAP1 RETURN JUMPDEST PUSH2 0x2CC PUSH1 0x4 DUP1 CALLDATASIZE SUB DUP2 ADD SWAP1 PUSH2 0x2C7 SWAP2 SWAP1 PUSH2 0x15D2 JUMP JUMPDEST PUSH2 0x1022 JUMP JUMPDEST PUSH1 0x40 MLOAD PUSH2 0x2D9 SWAP2 SWAP1 PUSH2 0x1648 JUMP JUMPDEST PUSH1 0x40 MLOAD DUP1 SWAP2 SUB SWAP1 RETURN JUMPDEST PUSH2 0x2FC PUSH1 0x4 DUP1 CALLDATASIZE SUB DUP2 ADD SWAP1 PUSH2 0x2F7 SWAP2 SWAP1 PUSH2 0x1901 JUMP JUMPDEST PUSH2 0x103F JUMP JUMPDEST PUSH1 0x40 MLOAD PUSH2 0x309 SWAP2 SWAP1 PUSH2 0x1648 JUMP JUMPDEST PUSH1 0x40 MLOAD DUP1 SWAP2 SUB SWAP1 RETURN JUMPDEST PUSH2 0x32C PUSH1 0x4 DUP1 CALLDATASIZE SUB DUP2 ADD SWAP1 PUSH2 0x327 SWAP2 SWAP1 PUSH2 0x15D2 JUMP JUMPDEST PUSH2 0x111A JUMP JUMPDEST STOP JUMPDEST PUSH1 0x5 DUP2 DUP2 SLOAD DUP2 LT PUSH2 0x33D JUMPI PUSH0 DUP1 REVERT JUMPDEST SWAP1 PUSH0 MSTORE PUSH1 0x20 PUSH0 KECCAK256 ADD PUSH0 SWAP2 POP SLOAD SWAP1 PUSH2 0x100 EXP SWAP1 DIV PUSH20 0xFFFFFFFFFFFFFFFFFFFFFFFFFFFFFFFFFFFFFFFF AND DUP2 JUMP JUMPDEST PUSH0 DUP1 SLOAD SWAP1 PUSH2 0x100 EXP SWAP1 DIV PUSH20 0xFFFFFFFFFFFFFFFFFFFFFFFFFFFFFFFFFFFFFFFF AND PUSH20 0xFFFFFFFFFFFFFFFFFFFFFFFFFFFFFFFFFFFFFFFF AND CALLER PUSH20 0xFFFFFFFFFFFFFFFFFFFFFFFFFFFFFFFFFFFFFFFF AND EQ PUSH2 0x3F6 JUMPI PUSH1 0x40 MLOAD PUSH32 0x8C379A000000000000000000000000000000000000000000000000000000000 DUP2 MSTORE PUSH1 0x4 ADD PUSH2 0x3ED SWAP1 PUSH2 0x19DE JUMP JUMPDEST PUSH1 0x40 MLOAD DUP1 SWAP2 SUB SWAP1 REVERT JUMPDEST PUSH1 0x3 PUSH0 DUP3 PUSH20 0xFFFFFFFFFFFFFFFFFFFFFFFFFFFFFFFFFFFFFFFF AND PUSH20 0xFFFFFFFFFFFFFFFFFFFFFFFFFFFFFFFFFFFFFFFF AND DUP2 MSTORE PUSH1 0x20 ADD SWAP1 DUP2 MSTORE PUSH1 0x20 ADD PUSH0 KECCAK256 PUSH0 SWAP1 SLOAD SWAP1 PUSH2 0x100 EXP SWAP1 DIV PUSH1 0xFF AND PUSH2 0x47F JUMPI PUSH1 0x40 MLOAD PUSH32 0x8C379A000000000000000000000000000000000000000000000000000000000 DUP2 MSTORE PUSH1 0x4 ADD PUSH2 0x476 SWAP1 PUSH2 0x1A46 JUMP JUMPDEST PUSH1 0x40 MLOAD DUP1 SWAP2 SUB SWAP1 REVERT JUMPDEST PUSH0 PUSH1 0x3 PUSH0 DUP4 PUSH20 0xFFFFFFFFFFFFFFFFFFFFFFFFFFFFFFFFFFFFFFFF AND PUSH20 0xFFFFFFFFFFFFFFFFFFFFFFFFFFFFFFFFFFFFFFFF AND DUP2 MSTORE PUSH1 0x20 ADD SWAP1 DUP2 MSTORE PUSH1 0x20 ADD PUSH0 KECCAK256 PUSH0 PUSH2 0x100 EXP DUP2 SLOAD DUP2 PUSH1 0xFF MUL NOT AND SWAP1 DUP4 ISZERO ISZERO MUL OR SWAP1 SSTORE POP DUP1 PUSH20 0xFFFFFFFFFFFFFFFFFFFFFFFFFFFFFFFFFFFFFFFF AND PUSH32 0x235BC17E7930760029E9F4D860A2A8089976DE5B381CF8380FC11C1D88A11133 PUSH0 PUSH1 0x40 MLOAD PUSH2 0x519 SWAP2 SWAP1 PUSH2 0x1648 JUMP JUMPDEST PUSH1 0x40 MLOAD DUP1 SWAP2 SUB SWAP1 LOG2 POP JUMP JUMPDEST PUSH1 0x1 SLOAD DUP2 JUMP JUMPDEST PUSH1 0x3 PUSH1 0x20 MSTORE DUP1 PUSH0 MSTORE PUSH1 0x40 PUSH0 KECCAK256 PUSH0 SWAP2 POP SLOAD SWAP1 PUSH2 0x100 EXP SWAP1 DIV PUSH1 0xFF AND DUP2 JUMP JUMPDEST PUSH1 0x3 PUSH0 CALLER PUSH20 0xFFFFFFFFFFFFFFFFFFFFFFFFFFFFFFFFFFFFFFFF AND PUSH20 0xFFFFFFFFFFFFFFFFFFFFFFFFFFFFFFFFFFFFFFFF AND DUP2 MSTORE PUSH1 0x20 ADD SWAP1 DUP2 MSTORE PUSH1 0x20 ADD PUSH0 KECCAK256 PUSH0 SWAP1 SLOAD SWAP1 PUSH2 0x100 EXP SWAP1 DIV PUSH1 0xFF AND DUP1 PUSH2 0x5E6 JUMPI POP PUSH0 DUP1 SLOAD SWAP1 PUSH2 0x100 EXP SWAP1 DIV PUSH20 0xFFFFFFFFFFFFFFFFFFFFFFFFFFFFFFFFFFFFFFFF AND PUSH20 0xFFFFFFFFFFFFFFFFFFFFFFFFFFFFFFFFFFFFFFFF AND CALLER PUSH20 0xFFFFFFFFFFFFFFFFFFFFFFFFFFFFFFFFFFFFFFFF AND EQ JUMPDEST PUSH2 0x625 JUMPI PUSH1 0x40 MLOAD PUSH32 0x8C379A000000000000000000000000000000000000000000000000000000000 DUP2 MSTORE PUSH1 0x4 ADD PUSH2 0x61C SWAP1 PUSH2 0x1AD4 JUMP JUMPDEST PUSH1 0x40 MLOAD DUP1 SWAP2 SUB SWAP1 REVERT JUMPDEST DUP1 PUSH1 0x1 DUP2 SWAP1 SSTORE POP PUSH0 JUMPDEST PUSH1 0x5 DUP1 SLOAD SWAP1 POP DUP2 LT ISZERO PUSH2 0x6D7 JUMPI PUSH0 PUSH1 0x2 PUSH0 PUSH1 0x5 DUP5 DUP2 SLOAD DUP2 LT PUSH2 0x653 JUMPI PUSH2 0x652 PUSH2 0x1AF2 JUMP JUMPDEST JUMPDEST SWAP1 PUSH0 MSTORE PUSH1 0x20 PUSH0 KECCAK256 ADD PUSH0 SWAP1 SLOAD SWAP1 PUSH2 0x100 EXP SWAP1 DIV PUSH20 0xFFFFFFFFFFFFFFFFFFFFFFFFFFFFFFFFFFFFFFFF AND PUSH20 0xFFFFFFFFFFFFFFFFFFFFFFFFFFFFFFFFFFFFFFFF AND PUSH20 0xFFFFFFFFFFFFFFFFFFFFFFFFFFFFFFFFFFFFFFFF AND DUP2 MSTORE PUSH1 0x20 ADD SWAP1 DUP2 MSTORE PUSH1 0x20 ADD PUSH0 KECCAK256 PUSH0 PUSH2 0x100 EXP DUP2 SLOAD DUP2 PUSH1 0xFF MUL NOT AND SWAP1 DUP4 ISZERO ISZERO MUL OR SWAP1 SSTORE POP DUP1 DUP1 PUSH1 0x1 ADD SWAP2 POP POP PUSH2 0x62E JUMP JUMPDEST POP PUSH1 0x5 PUSH0 PUSH2 0x6E5 SWAP2 SWAP1 PUSH2 0x14B1 JUMP JUMPDEST PUSH0 JUMPDEST PUSH1 0x5 DUP1 SLOAD SWAP1 POP DUP2 LT ISZERO PUSH2 0x826 JUMPI PUSH1 0x2 PUSH0 PUSH1 0x5 DUP4 DUP2 SLOAD DUP2 LT PUSH2 0x70B JUMPI PUSH2 0x70A PUSH2 0x1AF2 JUMP JUMPDEST JUMPDEST SWAP1 PUSH0 MSTORE PUSH1 0x20 PUSH0 KECCAK256 ADD PUSH0 SWAP1 SLOAD SWAP1 PUSH2 0x100 EXP SWAP1 DIV PUSH20 0xFFFFFFFFFFFFFFFFFFFFFFFFFFFFFFFFFFFFFFFF AND PUSH20 0xFFFFFFFFFFFFFFFFFFFFFFFFFFFFFFFFFFFFFFFF AND PUSH20 0xFFFFFFFFFFFFFFFFFFFFFFFFFFFFFFFFFFFFFFFF AND DUP2 MSTORE PUSH1 0x20 ADD SWAP1 DUP2 MSTORE PUSH1 0x20 ADD PUSH0 KECCAK256 PUSH0 SWAP1 SLOAD SWAP1 PUSH2 0x100 EXP SWAP1 DIV PUSH1 0xFF AND ISZERO PUSH2 0x819 JUMPI PUSH1 0x5 DUP1 DUP3 DUP2 SLOAD DUP2 LT PUSH2 0x793 JUMPI PUSH2 0x792 PUSH2 0x1AF2 JUMP JUMPDEST JUMPDEST SWAP1 PUSH0 MSTORE PUSH1 0x20 PUSH0 KECCAK256 ADD PUSH0 SWAP1 SLOAD SWAP1 PUSH2 0x100 EXP SWAP1 DIV PUSH20 0xFFFFFFFFFFFFFFFFFFFFFFFFFFFFFFFFFFFFFFFF AND SWAP1 DUP1 PUSH1 0x1 DUP2 SLOAD ADD DUP1 DUP3 SSTORE DUP1 SWAP2 POP POP PUSH1 0x1 SWAP1 SUB SWAP1 PUSH0 MSTORE PUSH1 0x20 PUSH0 KECCAK256 ADD PUSH0 SWAP1 SWAP2 SWAP1 SWAP2 SWAP1 SWAP2 PUSH2 0x100 EXP DUP2 SLOAD DUP2 PUSH20 0xFFFFFFFFFFFFFFFFFFFFFFFFFFFFFFFFFFFFFFFF MUL NOT AND SWAP1 DUP4 PUSH20 0xFFFFFFFFFFFFFFFFFFFFFFFFFFFFFFFFFFFFFFFF AND MUL OR SWAP1 SSTORE POP JUMPDEST DUP1 DUP1 PUSH1 0x1 ADD SWAP2 POP POP PUSH2 0x6E7 JUMP JUMPDEST POP PUSH32 0x90004C04698BC3322499A575ED3752DD4ABF33E0A7294C06A787A0FE01BEA941 DUP2 PUSH1 0x40 MLOAD PUSH2 0x856 SWAP2 SWAP1 PUSH2 0x1615 JUMP JUMPDEST PUSH1 0x40 MLOAD DUP1 SWAP2 SUB SWAP1 LOG1 POP JUMP JUMPDEST PUSH1 0x6 SLOAD DUP2 JUMP JUMPDEST PUSH1 0x60 PUSH1 0x5 DUP1 SLOAD DUP1 PUSH1 0x20 MUL PUSH1 0x20 ADD PUSH1 0x40 MLOAD SWAP1 DUP2 ADD PUSH1 0x40 MSTORE DUP1 SWAP3 SWAP2 SWAP1 DUP2 DUP2 MSTORE PUSH1 0x20 ADD DUP3 DUP1 SLOAD DUP1 ISZERO PUSH2 0x8E8 JUMPI PUSH1 0x20 MUL DUP3 ADD SWAP2 SWAP1 PUSH0 MSTORE PUSH1 0x20 PUSH0 KECCAK256 SWAP1 JUMPDEST DUP2 PUSH0 SWAP1 SLOAD SWAP1 PUSH2 0x100 EXP SWAP1 DIV PUSH20 0xFFFFFFFFFFFFFFFFFFFFFFFFFFFFFFFFFFFFFFFF AND PUSH20 0xFFFFFFFFFFFFFFFFFFFFFFFFFFFFFFFFFFFFFFFF AND DUP2 MSTORE PUSH1 0x20 ADD SWAP1 PUSH1 0x1 ADD SWAP1 DUP1 DUP4 GT PUSH2 0x89F JUMPI JUMPDEST POP POP POP POP POP SWAP1 POP SWAP1 JUMP JUMPDEST PUSH0 DUP1 SLOAD SWAP1 PUSH2 0x100 EXP SWAP1 DIV PUSH20 0xFFFFFFFFFFFFFFFFFFFFFFFFFFFFFFFFFFFFFFFF AND PUSH20 0xFFFFFFFFFFFFFFFFFFFFFFFFFFFFFFFFFFFFFFFF AND CALLER PUSH20 0xFFFFFFFFFFFFFFFFFFFFFFFFFFFFFFFFFFFFFFFF AND EQ PUSH2 0x97F JUMPI PUSH1 0x40 MLOAD PUSH32 0x8C379A000000000000000000000000000000000000000000000000000000000 DUP2 MSTORE PUSH1 0x4 ADD PUSH2 0x976 SWAP1 PUSH2 0x19DE JUMP JUMPDEST PUSH1 0x40 MLOAD DUP1 SWAP2 SUB SWAP1 REVERT JUMPDEST PUSH1 0x3 PUSH0 DUP3 PUSH20 0xFFFFFFFFFFFFFFFFFFFFFFFFFFFFFFFFFFFFFFFF AND PUSH20 0xFFFFFFFFFFFFFFFFFFFFFFFFFFFFFFFFFFFFFFFF AND DUP2 MSTORE PUSH1 0x20 ADD SWAP1 DUP2 MSTORE PUSH1 0x20 ADD PUSH0 KECCAK256 PUSH0 SWAP1 SLOAD SWAP1 PUSH2 0x100 EXP SWAP1 DIV PUSH1 0xFF AND ISZERO PUSH2 0xA09 JUMPI PUSH1 0x40 MLOAD PUSH32 0x8C379A000000000000000000000000000000000000000000000000000000000 DUP2 MSTORE PUSH1 0x4 ADD PUSH2 0xA00 SWAP1 PUSH2 0x1B69 JUMP JUMPDEST PUSH1 0x40 MLOAD DUP1 SWAP2 SUB SWAP1 REVERT JUMPDEST PUSH1 0x1 PUSH1 0x3 PUSH0 DUP4 PUSH20 0xFFFFFFFFFFFFFFFFFFFFFFFFFFFFFFFFFFFFFFFF AND PUSH20 0xFFFFFFFFFFFFFFFFFFFFFFFFFFFFFFFFFFFFFFFF AND DUP2 MSTORE PUSH1 0x20 ADD SWAP1 DUP2 MSTORE PUSH1 0x20 ADD PUSH0 KECCAK256 PUSH0 PUSH2 0x100 EXP DUP2 SLOAD DUP2 PUSH1 0xFF MUL NOT AND SWAP1 DUP4 ISZERO ISZERO MUL OR SWAP1 SSTORE POP DUP1 PUSH20 0xFFFFFFFFFFFFFFFFFFFFFFFFFFFFFFFFFFFFFFFF AND PUSH32 0x235BC17E7930760029E9F4D860A2A8089976DE5B381CF8380FC11C1D88A11133 PUSH1 0x1 PUSH1 0x40 MLOAD PUSH2 0xAA5 SWAP2 SWAP1 PUSH2 0x1648 JUMP JUMPDEST PUSH1 0x40 MLOAD DUP1 SWAP2 SUB SWAP1 LOG2 POP JUMP JUMPDEST PUSH1 0x3 PUSH0 CALLER PUSH20 0xFFFFFFFFFFFFFFFFFFFFFFFFFFFFFFFFFFFFFFFF AND PUSH20 0xFFFFFFFFFFFFFFFFFFFFFFFFFFFFFFFFFFFFFFFF AND DUP2 MSTORE PUSH1 0x20 ADD SWAP1 DUP2 MSTORE PUSH1 0x20 ADD PUSH0 KECCAK256 PUSH0 SWAP1 SLOAD SWAP1 PUSH2 0x100 EXP SWAP1 DIV PUSH1 0xFF AND DUP1 PUSH2 0xB4F JUMPI POP PUSH0 DUP1 SLOAD SWAP1 PUSH2 0x100 EXP SWAP1 DIV PUSH20 0xFFFFFFFFFFFFFFFFFFFFFFFFFFFFFFFFFFFFFFFF AND PUSH20 0xFFFFFFFFFFFFFFFFFFFFFFFFFFFFFFFFFFFFFFFF AND CALLER PUSH20 0xFFFFFFFFFFFFFFFFFFFFFFFFFFFFFFFFFFFFFFFF AND EQ JUMPDEST PUSH2 0xB8E JUMPI PUSH1 0x40 MLOAD PUSH32 0x8C379A000000000000000000000000000000000000000000000000000000000 DUP2 MSTORE PUSH1 0x4 ADD PUSH2 0xB85 SWAP1 PUSH2 0x1AD4 JUMP JUMPDEST PUSH1 0x40 MLOAD DUP1 SWAP2 SUB SWAP1 REVERT JUMPDEST PUSH0 JUMPDEST DUP3 DUP3 SWAP1 POP DUP2 LT ISZERO PUSH2 0xDAD JUMPI PUSH0 DUP4 DUP4 DUP4 DUP2 DUP2 LT PUSH2 0xBAF JUMPI PUSH2 0xBAE PUSH2 0x1AF2 JUMP JUMPDEST JUMPDEST SWAP1 POP PUSH1 0x20 MUL ADD PUSH1 0x20 DUP2 ADD SWAP1 PUSH2 0xBC4 SWAP2 SWAP1 PUSH2 0x15D2 JUMP JUMPDEST SWAP1 POP PUSH1 0x2 PUSH0 DUP3 PUSH20 0xFFFFFFFFFFFFFFFFFFFFFFFFFFFFFFFFFFFFFFFF AND PUSH20 0xFFFFFFFFFFFFFFFFFFFFFFFFFFFFFFFFFFFFFFFF AND DUP2 MSTORE PUSH1 0x20 ADD SWAP1 DUP2 MSTORE PUSH1 0x20 ADD PUSH0 KECCAK256 PUSH0 SWAP1 SLOAD SWAP1 PUSH2 0x100 EXP SWAP1 DIV PUSH1 0xFF AND PUSH2 0xD9F JUMPI PUSH1 0x1 PUSH1 0x2 PUSH0 DUP4 PUSH20 0xFFFFFFFFFFFFFFFFFFFFFFFFFFFFFFFFFFFFFFFF AND PUSH20 0xFFFFFFFFFFFFFFFFFFFFFFFFFFFFFFFFFFFFFFFF AND DUP2 MSTORE PUSH1 0x20 ADD SWAP1 DUP2 MSTORE PUSH1 0x20 ADD PUSH0 KECCAK256 PUSH0 PUSH2 0x100 EXP DUP2 SLOAD DUP2 PUSH1 0xFF MUL NOT AND SWAP1 DUP4 ISZERO ISZERO MUL OR SWAP1 SSTORE POP PUSH0 PUSH1 0x4 PUSH0 DUP4 PUSH20 0xFFFFFFFFFFFFFFFFFFFFFFFFFFFFFFFFFFFFFFFF AND PUSH20 0xFFFFFFFFFFFFFFFFFFFFFFFFFFFFFFFFFFFFFFFF AND DUP2 MSTORE PUSH1 0x20 ADD SWAP1 DUP2 MSTORE PUSH1 0x20 ADD PUSH0 KECCAK256 SLOAD SUB PUSH2 0xD9E JUMPI TIMESTAMP PUSH1 0x4 PUSH0 DUP4 PUSH20 0xFFFFFFFFFFFFFFFFFFFFFFFFFFFFFFFFFFFFFFFF AND PUSH20 0xFFFFFFFFFFFFFFFFFFFFFFFFFFFFFFFFFFFFFFFF AND DUP2 MSTORE PUSH1 0x20 ADD SWAP1 DUP2 MSTORE PUSH1 0x20 ADD PUSH0 KECCAK256 DUP2 SWAP1 SSTORE POP PUSH1 0x5 DUP2 SWAP1 DUP1 PUSH1 0x1 DUP2 SLOAD ADD DUP1 DUP3 SSTORE DUP1 SWAP2 POP POP PUSH1 0x1 SWAP1 SUB SWAP1 PUSH0 MSTORE PUSH1 0x20 PUSH0 KECCAK256 ADD PUSH0 SWAP1 SWAP2 SWAP1 SWAP2 SWAP1 SWAP2 PUSH2 0x100 EXP DUP2 SLOAD DUP2 PUSH20 0xFFFFFFFFFFFFFFFFFFFFFFFFFFFFFFFFFFFFFFFF MUL NOT AND SWAP1 DUP4 PUSH20 0xFFFFFFFFFFFFFFFFFFFFFFFFFFFFFFFFFFFFFFFF AND MUL OR SWAP1 SSTORE POP DUP1 PUSH20 0xFFFFFFFFFFFFFFFFFFFFFFFFFFFFFFFFFFFFFFFF AND PUSH32 0xA49883CA390454A7AD754A5C01F6B92C7467A5DAA38C2A935FBFB93F8BB2530F TIMESTAMP PUSH1 0x40 MLOAD PUSH2 0xD95 SWAP2 SWAP1 PUSH2 0x16C5 JUMP JUMPDEST PUSH1 0x40 MLOAD DUP1 SWAP2 SUB SWAP1 LOG2 JUMPDEST JUMPDEST POP DUP1 DUP1 PUSH1 0x1 ADD SWAP2 POP POP PUSH2 0xB90 JUMP JUMPDEST POP POP POP JUMP JUMPDEST PUSH0 DUP1 SLOAD SWAP1 PUSH2 0x100 EXP SWAP1 DIV PUSH20 0xFFFFFFFFFFFFFFFFFFFFFFFFFFFFFFFFFFFFFFFF AND DUP2 JUMP JUMPDEST PUSH2 0xDE0 DUP3 DUP3 CALLER PUSH2 0x103F JUMP JUMPDEST PUSH2 0xE1F JUMPI PUSH1 0x40 MLOAD PUSH32 0x8C379A000000000000000000000000000000000000000000000000000000000 DUP2 MSTORE PUSH1 0x4 ADD PUSH2 0xE16 SWAP1 PUSH2 0x1BD1 JUMP JUMPDEST PUSH1 0x40 MLOAD DUP1 SWAP2 SUB SWAP1 REVERT JUMPDEST PUSH0 PUSH1 0x4 PUSH0 CALLER PUSH20 0xFFFFFFFFFFFFFFFFFFFFFFFFFFFFFFFFFFFFFFFF AND PUSH20 0xFFFFFFFFFFFFFFFFFFFFFFFFFFFFFFFFFFFFFFFF AND DUP2 MSTORE PUSH1 0x20 ADD SWAP1 DUP2 MSTORE PUSH1 0x20 ADD PUSH0 KECCAK256 SLOAD SUB PUSH2 0xF54 JUMPI TIMESTAMP PUSH1 0x4 PUSH0 CALLER PUSH20 0xFFFFFFFFFFFFFFFFFFFFFFFFFFFFFFFFFFFFFFFF AND PUSH20 0xFFFFFFFFFFFFFFFFFFFFFFFFFFFFFFFFFFFFFFFF AND DUP2 MSTORE PUSH1 0x20 ADD SWAP1 DUP2 MSTORE PUSH1 0x20 ADD PUSH0 KECCAK256 DUP2 SWAP1 SSTORE POP PUSH1 0x5 CALLER SWAP1 DUP1 PUSH1 0x1 DUP2 SLOAD ADD DUP1 DUP3 SSTORE DUP1 SWAP2 POP POP PUSH1 0x1 SWAP1 SUB SWAP1 PUSH0 MSTORE PUSH1 0x20 PUSH0 KECCAK256 ADD PUSH0 SWAP1 SWAP2 SWAP1 SWAP2 SWAP1 SWAP2 PUSH2 0x100 EXP DUP2 SLOAD DUP2 PUSH20 0xFFFFFFFFFFFFFFFFFFFFFFFFFFFFFFFFFFFFFFFF MUL NOT AND SWAP1 DUP4 PUSH20 0xFFFFFFFFFFFFFFFFFFFFFFFFFFFFFFFFFFFFFFFF AND MUL OR SWAP1 SSTORE POP CALLER PUSH20 0xFFFFFFFFFFFFFFFFFFFFFFFFFFFFFFFFFFFFFFFF AND PUSH32 0xA49883CA390454A7AD754A5C01F6B92C7467A5DAA38C2A935FBFB93F8BB2530F TIMESTAMP PUSH1 0x40 MLOAD PUSH2 0xF4B SWAP2 SWAP1 PUSH2 0x16C5 JUMP JUMPDEST PUSH1 0x40 MLOAD DUP1 SWAP2 SUB SWAP1 LOG2 JUMPDEST POP POP JUMP JUMPDEST PUSH2 0xF63 DUP3 DUP3 CALLER PUSH2 0x103F JUMP JUMPDEST PUSH2 0xFA2 JUMPI PUSH1 0x40 MLOAD PUSH32 0x8C379A000000000000000000000000000000000000000000000000000000000 DUP2 MSTORE PUSH1 0x4 ADD PUSH2 0xF99 SWAP1 PUSH2 0x1BD1 JUMP JUMPDEST PUSH1 0x40 MLOAD DUP1 SWAP2 SUB SWAP1 REVERT JUMPDEST PUSH1 0x1 PUSH1 0x6 PUSH0 DUP3 DUP3 SLOAD PUSH2 0xFB4 SWAP2 SWAP1 PUSH2 0x1C1C JUMP JUMPDEST SWAP3 POP POP DUP2 SWAP1 SSTORE POP CALLER PUSH20 0xFFFFFFFFFFFFFFFFFFFFFFFFFFFFFFFFFFFFFFFF AND PUSH32 0xDA29567229E1B858992F983785638370913B8134292EEA489D9CCFC8F9711D98 TIMESTAMP PUSH1 0x40 MLOAD PUSH2 0x1001 SWAP2 SWAP1 PUSH2 0x16C5 JUMP JUMPDEST PUSH1 0x40 MLOAD DUP1 SWAP2 SUB SWAP1 LOG2 POP POP JUMP JUMPDEST PUSH1 0x4 PUSH1 0x20 MSTORE DUP1 PUSH0 MSTORE PUSH1 0x40 PUSH0 KECCAK256 PUSH0 SWAP2 POP SWAP1 POP SLOAD DUP2 JUMP JUMPDEST PUSH1 0x2 PUSH1 0x20 MSTORE DUP1 PUSH0 MSTORE PUSH1 0x40 PUSH0 KECCAK256 PUSH0 SWAP2 POP SLOAD SWAP1 PUSH2 0x100 EXP SWAP1 DIV PUSH1 0xFF AND DUP2 JUMP JUMPDEST PUSH0 PUSH1 0x2 PUSH0 DUP4 PUSH20 0xFFFFFFFFFFFFFFFFFFFFFFFFFFFFFFFFFFFFFFFF AND PUSH20 0xFFFFFFFFFFFFFFFFFFFFFFFFFFFFFFFFFFFFFFFF AND DUP2 MSTORE PUSH1 0x20 ADD SWAP1 DUP2 MSTORE PUSH1 0x20 ADD PUSH0 KECCAK256 PUSH0 SWAP1 SLOAD SWAP1 PUSH2 0x100 EXP SWAP1 DIV PUSH1 0xFF AND ISZERO PUSH2 0x1098 JUMPI PUSH1 0x1 SWAP1 POP PUSH2 0x1113 JUMP JUMPDEST PUSH0 DUP3 PUSH1 0x40 MLOAD PUSH1 0x20 ADD PUSH2 0x10AA SWAP2 SWAP1 PUSH2 0x1C94 JUMP JUMPDEST PUSH1 0x40 MLOAD PUSH1 0x20 DUP2 DUP4 SUB SUB DUP2 MSTORE SWAP1 PUSH1 0x40 MSTORE DUP1 MLOAD SWAP1 PUSH1 0x20 ADD KECCAK256 SWAP1 POP PUSH2 0x110F DUP6 DUP6 DUP1 DUP1 PUSH1 0x20 MUL PUSH1 0x20 ADD PUSH1 0x40 MLOAD SWAP1 DUP2 ADD PUSH1 0x40 MSTORE DUP1 SWAP4 SWAP3 SWAP2 SWAP1 DUP2 DUP2 MSTORE PUSH1 0x20 ADD DUP4 DUP4 PUSH1 0x20 MUL DUP1 DUP3 DUP5 CALLDATACOPY PUSH0 DUP2 DUP5 ADD MSTORE PUSH1 0x1F NOT PUSH1 0x1F DUP3 ADD AND SWAP1 POP DUP1 DUP4 ADD SWAP3 POP POP POP POP POP POP POP PUSH1 0x1 SLOAD DUP4 PUSH2 0x140F JUMP JUMPDEST SWAP2 POP POP JUMPDEST SWAP4 SWAP3 POP POP POP JUMP JUMPDEST PUSH1 0x3 PUSH0 CALLER PUSH20 0xFFFFFFFFFFFFFFFFFFFFFFFFFFFFFFFFFFFFFFFF AND PUSH20 0xFFFFFFFFFFFFFFFFFFFFFFFFFFFFFFFFFFFFFFFF AND DUP2 MSTORE PUSH1 0x20 ADD SWAP1 DUP2 MSTORE PUSH1 0x20 ADD PUSH0 KECCAK256 PUSH0 SWAP1 SLOAD SWAP1 PUSH2 0x100 EXP SWAP1 DIV PUSH1 0xFF AND DUP1 PUSH2 0x11B9 JUMPI POP PUSH0 DUP1 SLOAD SWAP1 PUSH2 0x100 EXP SWAP1 DIV PUSH20 0xFFFFFFFFFFFFFFFFFFFFFFFFFFFFFFFFFFFFFFFF AND PUSH20 0xFFFFFFFFFFFFFFFFFFFFFFFFFFFFFFFFFFFFFFFF AND CALLER PUSH20 0xFFFFFFFFFFFFFFFFFFFFFFFFFFFFFFFFFFFFFFFF AND EQ JUMPDEST PUSH2 0x11F8 JUMPI PUSH1 0x40 MLOAD PUSH32 0x8C379A000000000000000000000000000000000000000000000000000000000 DUP2 MSTORE PUSH1 0x4 ADD PUSH2 0x11EF SWAP1 PUSH2 0x1AD4 JUMP JUMPDEST PUSH1 0x40 MLOAD DUP1 SWAP2 SUB SWAP1 REVERT JUMPDEST PUSH1 0x2 PUSH0 DUP3 PUSH20 0xFFFFFFFFFFFFFFFFFFFFFFFFFFFFFFFFFFFFFFFF AND PUSH20 0xFFFFFFFFFFFFFFFFFFFFFFFFFFFFFFFFFFFFFFFF AND DUP2 MSTORE PUSH1 0x20 ADD SWAP1 DUP2 MSTORE PUSH1 0x20 ADD PUSH0 KECCAK256 PUSH0 SWAP1 SLOAD SWAP1 PUSH2 0x100 EXP SWAP1 DIV PUSH1 0xFF AND ISZERO PUSH2 0x1282 JUMPI PUSH1 0x40 MLOAD PUSH32 0x8C379A000000000000000000000000000000000000000000000000000000000 DUP2 MSTORE PUSH1 0x4 ADD PUSH2 0x1279 SWAP1 PUSH2 0x1D1E JUMP JUMPDEST PUSH1 0x40 MLOAD DUP1 SWAP2 SUB SWAP1 REVERT JUMPDEST PUSH1 0x1 PUSH1 0x2 PUSH0 DUP4 PUSH20 0xFFFFFFFFFFFFFFFFFFFFFFFFFFFFFFFFFFFFFFFF AND PUSH20 0xFFFFFFFFFFFFFFFFFFFFFFFFFFFFFFFFFFFFFFFF AND DUP2 MSTORE PUSH1 0x20 ADD SWAP1 DUP2 MSTORE PUSH1 0x20 ADD PUSH0 KECCAK256 PUSH0 PUSH2 0x100 EXP DUP2 SLOAD DUP2 PUSH1 0xFF MUL NOT AND SWAP1 DUP4 ISZERO ISZERO MUL OR SWAP1 SSTORE POP PUSH0 PUSH1 0x4 PUSH0 DUP4 PUSH20 0xFFFFFFFFFFFFFFFFFFFFFFFFFFFFFFFFFFFFFFFF AND PUSH20 0xFFFFFFFFFFFFFFFFFFFFFFFFFFFFFFFFFFFFFFFF AND DUP2 MSTORE PUSH1 0x20 ADD SWAP1 DUP2 MSTORE PUSH1 0x20 ADD PUSH0 KECCAK256 SLOAD SUB PUSH2 0x13BE JUMPI TIMESTAMP PUSH1 0x4 PUSH0 DUP4 PUSH20 0xFFFFFFFFFFFFFFFFFFFFFFFFFFFFFFFFFFFFFFFF AND PUSH20 0xFFFFFFFFFFFFFFFFFFFFFFFFFFFFFFFFFFFFFFFF AND DUP2 MSTORE PUSH1 0x20 ADD SWAP1 DUP2 MSTORE PUSH1 0x20 ADD PUSH0 KECCAK256 DUP2 SWAP1 SSTORE POP PUSH1 0x5 DUP2 SWAP1 DUP1 PUSH1 0x1 DUP2 SLOAD ADD DUP1 DUP3 SSTORE DUP1 SWAP2 POP POP PUSH1 0x1 SWAP1 SUB SWAP1 PUSH0 MSTORE PUSH1 0x20 PUSH0 KECCAK256 ADD PUSH0 SWAP1 SWAP2 SWAP1 SWAP2 SWAP1 SWAP2 PUSH2 0x100 EXP DUP2 SLOAD DUP2 PUSH20 0xFFFFFFFFFFFFFFFFFFFFFFFFFFFFFFFFFFFFFFFF MUL NOT AND SWAP1 DUP4 PUSH20 0xFFFFFFFFFFFFFFFFFFFFFFFFFFFFFFFFFFFFFFFF AND MUL OR SWAP1 SSTORE POP JUMPDEST DUP1 PUSH20 0xFFFFFFFFFFFFFFFFFFFFFFFFFFFFFFFFFFFFFFFF AND PUSH32 0xA49883CA390454A7AD754A5C01F6B92C7467A5DAA38C2A935FBFB93F8BB2530F TIMESTAMP PUSH1 0x40 MLOAD PUSH2 0x1404 SWAP2 SWAP1 PUSH2 0x16C5 JUMP JUMPDEST PUSH1 0x40 MLOAD DUP1 SWAP2 SUB SWAP1 LOG2 POP JUMP JUMPDEST PUSH0 DUP3 PUSH2 0x141B DUP6 DUP5 PUSH2 0x1425 JUMP JUMPDEST EQ SWAP1 POP SWAP4 SWAP3 POP POP POP JUMP JUMPDEST PUSH0 DUP1 DUP3 SWAP1 POP PUSH0 JUMPDEST DUP5 MLOAD DUP2 LT ISZERO PUSH2 0x1468 JUMPI PUSH2 0x1459 DUP3 DUP7 DUP4 DUP2 MLOAD DUP2 LT PUSH2 0x144C JUMPI PUSH2 0x144B PUSH2 0x1AF2 JUMP JUMPDEST JUMPDEST PUSH1 0x20 MUL PUSH1 0x20 ADD ADD MLOAD PUSH2 0x1473 JUMP JUMPDEST SWAP2 POP DUP1 DUP1 PUSH1 0x1 ADD SWAP2 POP POP PUSH2 0x142C JUMP JUMPDEST POP DUP1 SWAP2 POP POP SWAP3 SWAP2 POP POP JUMP JUMPDEST PUSH0 DUP2 DUP4 LT PUSH2 0x148A JUMPI PUSH2 0x1485 DUP3 DUP5 PUSH2 0x149D JUMP JUMPDEST PUSH2 0x1495 JUMP JUMPDEST PUSH2 0x1494 DUP4 DUP4 PUSH2 0x149D JUMP JUMPDEST JUMPDEST SWAP1 POP SWAP3 SWAP2 POP POP JUMP JUMPDEST PUSH0 DUP3 PUSH0 MSTORE DUP2 PUSH1 0x20 MSTORE PUSH1 0x40 PUSH0 KECCAK256 SWAP1 POP SWAP3 SWAP2 POP POP JUMP JUMPDEST POP DUP1 SLOAD PUSH0 DUP3 SSTORE SWAP1 PUSH0 MSTORE PUSH1 0x20 PUSH0 KECCAK256 SWAP1 DUP2 ADD SWAP1 PUSH2 0x14CC SWAP2 SWAP1 PUSH2 0x14CF JUMP JUMPDEST POP JUMP JUMPDEST JUMPDEST DUP1 DUP3 GT ISZERO PUSH2 0x14E6 JUMPI PUSH0 DUP2 PUSH0 SWAP1 SSTORE POP PUSH1 0x1 ADD PUSH2 0x14D0 JUMP JUMPDEST POP SWAP1 JUMP JUMPDEST PUSH0 DUP1 REVERT JUMPDEST PUSH0 DUP1 REVERT JUMPDEST PUSH0 DUP2 SWAP1 POP SWAP2 SWAP1 POP JUMP JUMPDEST PUSH2 0x1504 DUP2 PUSH2 0x14F2 JUMP JUMPDEST DUP2 EQ PUSH2 0x150E JUMPI PUSH0 DUP1 REVERT JUMPDEST POP JUMP JUMPDEST PUSH0 DUP2 CALLDATALOAD SWAP1 POP PUSH2 0x151F DUP2 PUSH2 0x14FB JUMP JUMPDEST SWAP3 SWAP2 POP POP JUMP JUMPDEST PUSH0 PUSH1 0x20 DUP3 DUP5 SUB SLT ISZERO PUSH2 0x153A JUMPI PUSH2 0x1539 PUSH2 0x14EA JUMP JUMPDEST JUMPDEST PUSH0 PUSH2 0x1547 DUP5 DUP3 DUP6 ADD PUSH2 0x1511 JUMP JUMPDEST SWAP2 POP POP SWAP3 SWAP2 POP POP JUMP JUMPDEST PUSH0 PUSH20 0xFFFFFFFFFFFFFFFFFFFFFFFFFFFFFFFFFFFFFFFF DUP3 AND SWAP1 POP SWAP2 SWAP1 POP JUMP JUMPDEST PUSH0 PUSH2 0x1579 DUP3 PUSH2 0x1550 JUMP JUMPDEST SWAP1 POP SWAP2 SWAP1 POP JUMP JUMPDEST PUSH2 0x1589 DUP2 PUSH2 0x156F JUMP JUMPDEST DUP3 MSTORE POP POP JUMP JUMPDEST PUSH0 PUSH1 0x20 DUP3 ADD SWAP1 POP PUSH2 0x15A2 PUSH0 DUP4 ADD DUP5 PUSH2 0x1580 JUMP JUMPDEST SWAP3 SWAP2 POP POP JUMP JUMPDEST PUSH2 0x15B1 DUP2 PUSH2 0x156F JUMP JUMPDEST DUP2 EQ PUSH2 0x15BB JUMPI PUSH0 DUP1 REVERT JUMPDEST POP JUMP JUMPDEST PUSH0 DUP2 CALLDATALOAD SWAP1 POP PUSH2 0x15CC DUP2 PUSH2 0x15A8 JUMP JUMPDEST SWAP3 SWAP2 POP POP JUMP JUMPDEST PUSH0 PUSH1 0x20 DUP3 DUP5 SUB SLT ISZERO PUSH2 0x15E7 JUMPI PUSH2 0x15E6 PUSH2 0x14EA JUMP JUMPDEST JUMPDEST PUSH0 PUSH2 0x15F4 DUP5 DUP3 DUP6 ADD PUSH2 0x15BE JUMP JUMPDEST SWAP2 POP POP SWAP3 SWAP2 POP POP JUMP JUMPDEST PUSH0 DUP2 SWAP1 POP SWAP2 SWAP1 POP JUMP JUMPDEST PUSH2 0x160F DUP2 PUSH2 0x15FD JUMP JUMPDEST DUP3 MSTORE POP POP JUMP JUMPDEST PUSH0 PUSH1 0x20 DUP3 ADD SWAP1 POP PUSH2 0x1628 PUSH0 DUP4 ADD DUP5 PUSH2 0x1606 JUMP JUMPDEST SWAP3 SWAP2 POP POP JUMP JUMPDEST PUSH0 DUP2 ISZERO ISZERO SWAP1 POP SWAP2 SWAP1 POP JUMP JUMPDEST PUSH2 0x1642 DUP2 PUSH2 0x162E JUMP JUMPDEST DUP3 MSTORE POP POP JUMP JUMPDEST PUSH0 PUSH1 0x20 DUP3 ADD SWAP1 POP PUSH2 0x165B PUSH0 DUP4 ADD DUP5 PUSH2 0x1639 JUMP JUMPDEST SWAP3 SWAP2 POP POP JUMP JUMPDEST PUSH2 0x166A DUP2 PUSH2 0x15FD JUMP JUMPDEST DUP2 EQ PUSH2 0x1674 JUMPI PUSH0 DUP1 REVERT JUMPDEST POP JUMP JUMPDEST PUSH0 DUP2 CALLDATALOAD SWAP1 POP PUSH2 0x1685 DUP2 PUSH2 0x1661 JUMP JUMPDEST SWAP3 SWAP2 POP POP JUMP JUMPDEST PUSH0 PUSH1 0x20 DUP3 DUP5 SUB SLT ISZERO PUSH2 0x16A0 JUMPI PUSH2 0x169F PUSH2 0x14EA JUMP JUMPDEST JUMPDEST PUSH0 PUSH2 0x16AD DUP5 DUP3 DUP6 ADD PUSH2 0x1677 JUMP JUMPDEST SWAP2 POP POP SWAP3 SWAP2 POP POP JUMP JUMPDEST PUSH2 0x16BF DUP2 PUSH2 0x14F2 JUMP JUMPDEST DUP3 MSTORE POP POP JUMP JUMPDEST PUSH0 PUSH1 0x20 DUP3 ADD SWAP1 POP PUSH2 0x16D8 PUSH0 DUP4 ADD DUP5 PUSH2 0x16B6 JUMP JUMPDEST SWAP3 SWAP2 POP POP JUMP JUMPDEST PUSH0 DUP2 MLOAD SWAP1 POP SWAP2 SWAP1 POP JUMP JUMPDEST PUSH0 DUP3 DUP3 MSTORE PUSH1 0x20 DUP3 ADD SWAP1 POP SWAP3 SWAP2 POP POP JUMP JUMPDEST PUSH0 DUP2 SWAP1 POP PUSH1 0x20 DUP3 ADD SWAP1 POP SWAP2 SWAP1 POP JUMP JUMPDEST PUSH2 0x1710 DUP2 PUSH2 0x156F JUMP JUMPDEST DUP3 MSTORE POP POP JUMP JUMPDEST PUSH0 PUSH2 0x1721 DUP4 DUP4 PUSH2 0x1707 JUMP JUMPDEST PUSH1 0x20 DUP4 ADD SWAP1 POP SWAP3 SWAP2 POP POP JUMP JUMPDEST PUSH0 PUSH1 0x20 DUP3 ADD SWAP1 POP SWAP2 SWAP1 POP JUMP JUMPDEST PUSH0 PUSH2 0x1743 DUP3 PUSH2 0x16DE JUMP JUMPDEST PUSH2 0x174D DUP2 DUP6 PUSH2 0x16E8 JUMP JUMPDEST SWAP4 POP PUSH2 0x1758 DUP4 PUSH2 0x16F8 JUMP JUMPDEST DUP1 PUSH0 JUMPDEST DUP4 DUP2 LT ISZERO PUSH2 0x1788 JUMPI DUP2 MLOAD PUSH2 0x176F DUP9 DUP3 PUSH2 0x1716 JUMP JUMPDEST SWAP8 POP PUSH2 0x177A DUP4 PUSH2 0x172D JUMP JUMPDEST SWAP3 POP POP PUSH1 0x1 DUP2 ADD SWAP1 POP PUSH2 0x175B JUMP JUMPDEST POP DUP6 SWAP4 POP POP POP POP SWAP3 SWAP2 POP POP JUMP JUMPDEST PUSH0 PUSH1 0x20 DUP3 ADD SWAP1 POP DUP2 DUP2 SUB PUSH0 DUP4 ADD MSTORE PUSH2 0x17AD DUP2 DUP5 PUSH2 0x1739 JUMP JUMPDEST SWAP1 POP SWAP3 SWAP2 POP POP JUMP JUMPDEST PUSH0 DUP1 REVERT JUMPDEST PUSH0 DUP1 REVERT JUMPDEST PUSH0 DUP1 REVERT JUMPDEST PUSH0 DUP1 DUP4 PUSH1 0x1F DUP5 ADD SLT PUSH2 0x17D6 JUMPI PUSH2 0x17D5 PUSH2 0x17B5 JUMP JUMPDEST JUMPDEST DUP3 CALLDATALOAD SWAP1 POP PUSH8 0xFFFFFFFFFFFFFFFF DUP2 GT ISZERO PUSH2 0x17F3 JUMPI PUSH2 0x17F2 PUSH2 0x17B9 JUMP JUMPDEST JUMPDEST PUSH1 0x20 DUP4 ADD SWAP2 POP DUP4 PUSH1 0x20 DUP3 MUL DUP4 ADD GT ISZERO PUSH2 0x180F JUMPI PUSH2 0x180E PUSH2 0x17BD JUMP JUMPDEST JUMPDEST SWAP3 POP SWAP3 SWAP1 POP JUMP JUMPDEST PUSH0 DUP1 PUSH1 0x20 DUP4 DUP6 SUB SLT ISZERO PUSH2 0x182C JUMPI PUSH2 0x182B PUSH2 0x14EA JUMP JUMPDEST JUMPDEST PUSH0 DUP4 ADD CALLDATALOAD PUSH8 0xFFFFFFFFFFFFFFFF DUP2 GT ISZERO PUSH2 0x1849 JUMPI PUSH2 0x1848 PUSH2 0x14EE JUMP JUMPDEST JUMPDEST PUSH2 0x1855 DUP6 DUP3 DUP7 ADD PUSH2 0x17C1 JUMP JUMPDEST SWAP3 POP SWAP3 POP POP SWAP3 POP SWAP3 SWAP1 POP JUMP JUMPDEST PUSH0 DUP1 DUP4 PUSH1 0x1F DUP5 ADD SLT PUSH2 0x1876 JUMPI PUSH2 0x1875 PUSH2 0x17B5 JUMP JUMPDEST JUMPDEST DUP3 CALLDATALOAD SWAP1 POP PUSH8 0xFFFFFFFFFFFFFFFF DUP2 GT ISZERO PUSH2 0x1893 JUMPI PUSH2 0x1892 PUSH2 0x17B9 JUMP JUMPDEST JUMPDEST PUSH1 0x20 DUP4 ADD SWAP2 POP DUP4 PUSH1 0x20 DUP3 MUL DUP4 ADD GT ISZERO PUSH2 0x18AF JUMPI PUSH2 0x18AE PUSH2 0x17BD JUMP JUMPDEST JUMPDEST SWAP3 POP SWAP3 SWAP1 POP JUMP JUMPDEST PUSH0 DUP1 PUSH1 0x20 DUP4 DUP6 SUB SLT ISZERO PUSH2 0x18CC JUMPI PUSH2 0x18CB PUSH2 0x14EA JUMP JUMPDEST JUMPDEST PUSH0 DUP4 ADD CALLDATALOAD PUSH8 0xFFFFFFFFFFFFFFFF DUP2 GT ISZERO PUSH2 0x18E9 JUMPI PUSH2 0x18E8 PUSH2 0x14EE JUMP JUMPDEST JUMPDEST PUSH2 0x18F5 DUP6 DUP3 DUP7 ADD PUSH2 0x1861 JUMP JUMPDEST SWAP3 POP SWAP3 POP POP SWAP3 POP SWAP3 SWAP1 POP JUMP JUMPDEST PUSH0 DUP1 PUSH0 PUSH1 0x40 DUP5 DUP7 SUB SLT ISZERO PUSH2 0x1918 JUMPI PUSH2 0x1917 PUSH2 0x14EA JUMP JUMPDEST JUMPDEST PUSH0 DUP5 ADD CALLDATALOAD PUSH8 0xFFFFFFFFFFFFFFFF DUP2 GT ISZERO PUSH2 0x1935 JUMPI PUSH2 0x1934 PUSH2 0x14EE JUMP JUMPDEST JUMPDEST PUSH2 0x1941 DUP7 DUP3 DUP8 ADD PUSH2 0x1861 JUMP JUMPDEST SWAP4 POP SWAP4 POP POP PUSH1 0x20 PUSH2 0x1954 DUP7 DUP3 DUP8 ADD PUSH2 0x15BE JUMP JUMPDEST SWAP2 POP POP SWAP3 POP SWAP3 POP SWAP3 JUMP JUMPDEST PUSH0 DUP3 DUP3 MSTORE PUSH1 0x20 DUP3 ADD SWAP1 POP SWAP3 SWAP2 POP POP JUMP JUMPDEST PUSH32 0x4F6E6C7920746865206F776E65722063616E20706572666F726D207468697320 PUSH0 DUP3 ADD MSTORE PUSH32 0x616374696F6E0000000000000000000000000000000000000000000000000000 PUSH1 0x20 DUP3 ADD MSTORE POP JUMP JUMPDEST PUSH0 PUSH2 0x19C8 PUSH1 0x26 DUP4 PUSH2 0x195E JUMP JUMPDEST SWAP2 POP PUSH2 0x19D3 DUP3 PUSH2 0x196E JUMP JUMPDEST PUSH1 0x40 DUP3 ADD SWAP1 POP SWAP2 SWAP1 POP JUMP JUMPDEST PUSH0 PUSH1 0x20 DUP3 ADD SWAP1 POP DUP2 DUP2 SUB PUSH0 DUP4 ADD MSTORE PUSH2 0x19F5 DUP2 PUSH2 0x19BC JUMP JUMPDEST SWAP1 POP SWAP2 SWAP1 POP JUMP JUMPDEST PUSH32 0x41646472657373206973206E6F7420616E2061646D696E000000000000000000 PUSH0 DUP3 ADD MSTORE POP JUMP JUMPDEST PUSH0 PUSH2 0x1A30 PUSH1 0x17 DUP4 PUSH2 0x195E JUMP JUMPDEST SWAP2 POP PUSH2 0x1A3B DUP3 PUSH2 0x19FC JUMP JUMPDEST PUSH1 0x20 DUP3 ADD SWAP1 POP SWAP2 SWAP1 POP JUMP JUMPDEST PUSH0 PUSH1 0x20 DUP3 ADD SWAP1 POP DUP2 DUP2 SUB PUSH0 DUP4 ADD MSTORE PUSH2 0x1A5D DUP2 PUSH2 0x1A24 JUMP JUMPDEST SWAP1 POP SWAP2 SWAP1 POP JUMP JUMPDEST PUSH32 0x4F6E6C7920616E2061646D696E2063616E20706572666F726D20746869732061 PUSH0 DUP3 ADD MSTORE PUSH32 0x6374696F6E000000000000000000000000000000000000000000000000000000 PUSH1 0x20 DUP3 ADD MSTORE POP JUMP JUMPDEST PUSH0 PUSH2 0x1ABE PUSH1 0x25 DUP4 PUSH2 0x195E JUMP JUMPDEST SWAP2 POP PUSH2 0x1AC9 DUP3 PUSH2 0x1A64 JUMP JUMPDEST PUSH1 0x40 DUP3 ADD SWAP1 POP SWAP2 SWAP1 POP JUMP JUMPDEST PUSH0 PUSH1 0x20 DUP3 ADD SWAP1 POP DUP2 DUP2 SUB PUSH0 DUP4 ADD MSTORE PUSH2 0x1AEB DUP2 PUSH2 0x1AB2 JUMP JUMPDEST SWAP1 POP SWAP2 SWAP1 POP JUMP JUMPDEST PUSH32 0x4E487B7100000000000000000000000000000000000000000000000000000000 PUSH0 MSTORE PUSH1 0x32 PUSH1 0x4 MSTORE PUSH1 0x24 PUSH0 REVERT JUMPDEST PUSH32 0x4164647265737320697320616C726561647920616E2061646D696E0000000000 PUSH0 DUP3 ADD MSTORE POP JUMP JUMPDEST PUSH0 PUSH2 0x1B53 PUSH1 0x1B DUP4 PUSH2 0x195E JUMP JUMPDEST SWAP2 POP PUSH2 0x1B5E DUP3 PUSH2 0x1B1F JUMP JUMPDEST PUSH1 0x20 DUP3 ADD SWAP1 POP SWAP2 SWAP1 POP JUMP JUMPDEST PUSH0 PUSH1 0x20 DUP3 ADD SWAP1 POP DUP2 DUP2 SUB PUSH0 DUP4 ADD MSTORE PUSH2 0x1B80 DUP2 PUSH2 0x1B47 JUMP JUMPDEST SWAP1 POP SWAP2 SWAP1 POP JUMP JUMPDEST PUSH32 0x43616C6C6572206973206E6F742077686974656C697374656400000000000000 PUSH0 DUP3 ADD MSTORE POP JUMP JUMPDEST PUSH0 PUSH2 0x1BBB PUSH1 0x19 DUP4 PUSH2 0x195E JUMP JUMPDEST SWAP2 POP PUSH2 0x1BC6 DUP3 PUSH2 0x1B87 JUMP JUMPDEST PUSH1 0x20 DUP3 ADD SWAP1 POP SWAP2 SWAP1 POP JUMP JUMPDEST PUSH0 PUSH1 0x20 DUP3 ADD SWAP1 POP DUP2 DUP2 SUB PUSH0 DUP4 ADD MSTORE PUSH2 0x1BE8 DUP2 PUSH2 0x1BAF JUMP JUMPDEST SWAP1 POP SWAP2 SWAP1 POP JUMP JUMPDEST PUSH32 0x4E487B7100000000000000000000000000000000000000000000000000000000 PUSH0 MSTORE PUSH1 0x11 PUSH1 0x4 MSTORE PUSH1 0x24 PUSH0 REVERT JUMPDEST PUSH0 PUSH2 0x1C26 DUP3 PUSH2 0x14F2 JUMP JUMPDEST SWAP2 POP PUSH2 0x1C31 DUP4 PUSH2 0x14F2 JUMP JUMPDEST SWAP3 POP DUP3 DUP3 ADD SWAP1 POP DUP1 DUP3 GT ISZERO PUSH2 0x1C49 JUMPI PUSH2 0x1C48 PUSH2 0x1BEF JUMP JUMPDEST JUMPDEST SWAP3 SWAP2 POP POP JUMP JUMPDEST PUSH0 DUP2 PUSH1 0x60 SHL SWAP1 POP SWAP2 SWAP1 POP JUMP JUMPDEST PUSH0 PUSH2 0x1C65 DUP3 PUSH2 0x1C4F JUMP JUMPDEST SWAP1 POP SWAP2 SWAP1 POP JUMP JUMPDEST PUSH0 PUSH2 0x1C76 DUP3 PUSH2 0x1C5B JUMP JUMPDEST SWAP1 POP SWAP2 SWAP1 POP JUMP JUMPDEST PUSH2 0x1C8E PUSH2 0x1C89 DUP3 PUSH2 0x156F JUMP JUMPDEST PUSH2 0x1C6C JUMP JUMPDEST DUP3 MSTORE POP POP JUMP JUMPDEST PUSH0 PUSH2 0x1C9F DUP3 DUP5 PUSH2 0x1C7D JUMP JUMPDEST PUSH1 0x14 DUP3 ADD SWAP2 POP DUP2 SWAP1 POP SWAP3 SWAP2 POP POP JUMP JUMPDEST PUSH32 0x4164647265737320697320616C7265616479206D616E75616C6C792077686974 PUSH0 DUP3 ADD MSTORE PUSH32 0x656C697374656400000000000000000000000000000000000000000000000000 PUSH1 0x20 DUP3 ADD MSTORE POP JUMP JUMPDEST PUSH0 PUSH2 0x1D08 PUSH1 0x27 DUP4 PUSH2 0x195E JUMP JUMPDEST SWAP2 POP PUSH2 0x1D13 DUP3 PUSH2 0x1CAE JUMP JUMPDEST PUSH1 0x40 DUP3 ADD SWAP1 POP SWAP2 SWAP1 POP JUMP JUMPDEST PUSH0 PUSH1 0x20 DUP3 ADD SWAP1 POP DUP2 DUP2 SUB PUSH0 DUP4 ADD MSTORE PUSH2 0x1D35 DUP2 PUSH2 0x1CFC JUMP JUMPDEST SWAP1 POP SWAP2 SWAP1 POP JUMP INVALID LOG2 PUSH5 0x6970667358 0x22 SLT KECCAK256 SIGNEXTEND 0xE3 0xCA 0xDF 0xE6 DUP13 CALLDATALOAD 0x2E CALLVALUE SWAP5 0x4B 0xD8 CALLDATASIZE 0xC1 PUSH0 0xB8 0x4C ADDMOD 0xD CALL POP 0x2A PUSH21 0x936E5F29B9FD3CE6DA64736F6C634300081A003300 "
				},
				"gasEstimates": {
					"creation": {
						"codeDepositCost": "1507600",
						"executionCost": "infinite",
						"totalCost": "infinite"
					},
					"external": {
						"addAdmin(address)": "30879",
						"addMultipleToWhitelist(address[])": "infinite",
						"addToWhitelist(address)": "106102",
						"admins(address)": "2923",
						"getWhitelistedAccounts()": "infinite",
						"isWhitelisted(bytes32[],address)": "infinite",
						"manualWhitelist(address)": "2877",
						"merkleRoot()": "2493",
						"owner()": "2550",
						"removeAdmin(address)": "30831",
						"signDocument(bytes32[])": "infinite",
						"totalDocumentsSigned()": "2470",
						"updateMerkleRoot(bytes32)": "infinite",
						"whitelistAndTrack(bytes32[])": "infinite",
						"whitelistTimestamp(address)": "2824",
						"whitelistedAccounts(uint256)": "4968"
					}
				},
				"methodIdentifiers": {
					"addAdmin(address)": "70480275",
					"addMultipleToWhitelist(address[])": "8401f8d1",
					"addToWhitelist(address)": "e43252d7",
					"admins(address)": "429b62e5",
					"getWhitelistedAccounts()": "5c9c66c6",
					"isWhitelisted(bytes32[],address)": "debefaa6",
					"manualWhitelist(address)": "d9e9c978",
					"merkleRoot()": "2eb4a7ab",
					"owner()": "8da5cb5b",
					"removeAdmin(address)": "1785f53c",
					"signDocument(bytes32[])": "a407e496",
					"totalDocumentsSigned()": "5a521883",
					"updateMerkleRoot(bytes32)": "4783f0ef",
					"whitelistAndTrack(bytes32[])": "956aad88",
					"whitelistTimestamp(address)": "a4ec8d22",
					"whitelistedAccounts(uint256)": "0b207ec9"
				}
			},
			"storageLayout": {
				"storage": [
					{
						"astId": 1118,
						"contract": "contracts/Doc_Signing_M.sol:MerkleDocumentSigning",
						"label": "owner",
						"offset": 0,
						"slot": "0",
						"type": "t_address"
					},
					{
						"astId": 1120,
						"contract": "contracts/Doc_Signing_M.sol:MerkleDocumentSigning",
						"label": "merkleRoot",
						"offset": 0,
						"slot": "1",
						"type": "t_bytes32"
					},
					{
						"astId": 1124,
						"contract": "contracts/Doc_Signing_M.sol:MerkleDocumentSigning",
						"label": "manualWhitelist",
						"offset": 0,
						"slot": "2",
						"type": "t_mapping(t_address,t_bool)"
					},
					{
						"astId": 1128,
						"contract": "contracts/Doc_Signing_M.sol:MerkleDocumentSigning",
						"label": "admins",
						"offset": 0,
						"slot": "3",
						"type": "t_mapping(t_address,t_bool)"
					},
					{
						"astId": 1132,
						"contract": "contracts/Doc_Signing_M.sol:MerkleDocumentSigning",
						"label": "whitelistTimestamp",
						"offset": 0,
						"slot": "4",
						"type": "t_mapping(t_address,t_uint256)"
					},
					{
						"astId": 1135,
						"contract": "contracts/Doc_Signing_M.sol:MerkleDocumentSigning",
						"label": "whitelistedAccounts",
						"offset": 0,
						"slot": "5",
						"type": "t_array(t_address)dyn_storage"
					},
					{
						"astId": 1137,
						"contract": "contracts/Doc_Signing_M.sol:MerkleDocumentSigning",
						"label": "totalDocumentsSigned",
						"offset": 0,
						"slot": "6",
						"type": "t_uint256"
					}
				],
				"types": {
					"t_address": {
						"encoding": "inplace",
						"label": "address",
						"numberOfBytes": "20"
					},
					"t_array(t_address)dyn_storage": {
						"base": "t_address",
						"encoding": "dynamic_array",
						"label": "address[]",
						"numberOfBytes": "32"
					},
					"t_bool": {
						"encoding": "inplace",
						"label": "bool",
						"numberOfBytes": "1"
					},
					"t_bytes32": {
						"encoding": "inplace",
						"label": "bytes32",
						"numberOfBytes": "32"
					},
					"t_mapping(t_address,t_bool)": {
						"encoding": "mapping",
						"key": "t_address",
						"label": "mapping(address => bool)",
						"numberOfBytes": "32",
						"value": "t_bool"
					},
					"t_mapping(t_address,t_uint256)": {
						"encoding": "mapping",
						"key": "t_address",
						"label": "mapping(address => uint256)",
						"numberOfBytes": "32",
						"value": "t_uint256"
					},
					"t_uint256": {
						"encoding": "inplace",
						"label": "uint256",
						"numberOfBytes": "32"
					}
				}
			},
			"userdoc": {
				"kind": "user",
				"methods": {
					"updateMerkleRoot(bytes32)": {
						"notice": "Resets the manual whitelist and whitelistedAccounts list, but retains manual whitelisted accounts."
					}
				},
				"version": 1
			}
		}
	}
}