{
	"contracts/Te.sol": {
		"MerkleDocumentSigning": {
			"abi": [
				{
					"inputs": [
						{
							"internalType": "bytes32",
							"name": "_merkleRoot",
							"type": "bytes32"
						}
					],
					"stateMutability": "nonpayable",
					"type": "constructor"
				},
				{
					"anonymous": false,
					"inputs": [
						{
							"indexed": true,
							"internalType": "address",
							"name": "account",
							"type": "address"
						},
						{
							"indexed": false,
							"internalType": "uint256",
							"name": "timestamp",
							"type": "uint256"
						}
					],
					"name": "AccountWhitelisted",
					"type": "event"
				},
				{
					"anonymous": false,
					"inputs": [
						{
							"indexed": true,
							"internalType": "address",
							"name": "admin",
							"type": "address"
						},
						{
							"indexed": false,
							"internalType": "bool",
							"name": "isAdded",
							"type": "bool"
						}
					],
					"name": "AdminUpdated",
					"type": "event"
				},
				{
					"anonymous": false,
					"inputs": [
						{
							"indexed": true,
							"internalType": "address",
							"name": "signer",
							"type": "address"
						},
						{
							"indexed": false,
							"internalType": "uint256",
							"name": "timestamp",
							"type": "uint256"
						}
					],
					"name": "DocumentSigned",
					"type": "event"
				},
				{
					"anonymous": false,
					"inputs": [
						{
							"indexed": false,
							"internalType": "bytes32",
							"name": "newRoot",
							"type": "bytes32"
						}
					],
					"name": "MerkleRootUpdated",
					"type": "event"
				},
				{
					"inputs": [
						{
							"internalType": "address",
							"name": "account",
							"type": "address"
						}
					],
					"name": "addAdmin",
					"outputs": [],
					"stateMutability": "nonpayable",
					"type": "function"
				},
				{
					"inputs": [
						{
							"internalType": "address",
							"name": "account",
							"type": "address"
						}
					],
					"name": "addToWhitelist",
					"outputs": [],
					"stateMutability": "nonpayable",
					"type": "function"
				},
				{
					"inputs": [
						{
							"internalType": "address",
							"name": "",
							"type": "address"
						}
					],
					"name": "admins",
					"outputs": [
						{
							"internalType": "bool",
							"name": "",
							"type": "bool"
						}
					],
					"stateMutability": "view",
					"type": "function"
				},
				{
					"inputs": [],
					"name": "getWhitelistedAccounts",
					"outputs": [
						{
							"internalType": "address[]",
							"name": "",
							"type": "address[]"
						}
					],
					"stateMutability": "view",
					"type": "function"
				},
				{
					"inputs": [
						{
							"internalType": "bytes32[]",
							"name": "proof",
							"type": "bytes32[]"
						},
						{
							"internalType": "address",
							"name": "account",
							"type": "address"
						}
					],
					"name": "isWhitelisted",
					"outputs": [
						{
							"internalType": "bool",
							"name": "",
							"type": "bool"
						}
					],
					"stateMutability": "view",
					"type": "function"
				},
				{
					"inputs": [
						{
							"internalType": "address",
							"name": "",
							"type": "address"
						}
					],
					"name": "manualWhitelist",
					"outputs": [
						{
							"internalType": "bool",
							"name": "",
							"type": "bool"
						}
					],
					"stateMutability": "view",
					"type": "function"
				},
				{
					"inputs": [],
					"name": "merkleRoot",
					"outputs": [
						{
							"internalType": "bytes32",
							"name": "",
							"type": "bytes32"
						}
					],
					"stateMutability": "view",
					"type": "function"
				},
				{
					"inputs": [],
					"name": "owner",
					"outputs": [
						{
							"internalType": "address",
							"name": "",
							"type": "address"
						}
					],
					"stateMutability": "view",
					"type": "function"
				},
				{
					"inputs": [
						{
							"internalType": "address",
							"name": "account",
							"type": "address"
						}
					],
					"name": "removeAdmin",
					"outputs": [],
					"stateMutability": "nonpayable",
					"type": "function"
				},
				{
					"inputs": [
						{
							"internalType": "bytes32[]",
							"name": "proof",
							"type": "bytes32[]"
						}
					],
					"name": "signDocument",
					"outputs": [],
					"stateMutability": "nonpayable",
					"type": "function"
				},
				{
					"inputs": [],
					"name": "totalDocumentsSigned",
					"outputs": [
						{
							"internalType": "uint256",
							"name": "",
							"type": "uint256"
						}
					],
					"stateMutability": "view",
					"type": "function"
				},
				{
					"inputs": [
						{
							"internalType": "bytes32",
							"name": "_newRoot",
							"type": "bytes32"
						}
					],
					"name": "updateMerkleRoot",
					"outputs": [],
					"stateMutability": "nonpayable",
					"type": "function"
				},
				{
					"inputs": [
						{
							"internalType": "bytes32[]",
							"name": "proof",
							"type": "bytes32[]"
						}
					],
					"name": "whitelistAndTrack",
					"outputs": [],
					"stateMutability": "nonpayable",
					"type": "function"
				},
				{
					"inputs": [
						{
							"internalType": "address",
							"name": "",
							"type": "address"
						}
					],
					"name": "whitelistTimestamp",
					"outputs": [
						{
							"internalType": "uint256",
							"name": "",
							"type": "uint256"
						}
					],
					"stateMutability": "view",
					"type": "function"
				},
				{
					"inputs": [
						{
							"internalType": "uint256",
							"name": "",
							"type": "uint256"
						}
					],
					"name": "whitelistedAccounts",
					"outputs": [
						{
							"internalType": "address",
							"name": "",
							"type": "address"
						}
					],
					"stateMutability": "view",
					"type": "function"
				}
			],
			"devdoc": {
				"details": "A contract that manages a whitelist using Merkle Trees and manual mapping.       Whitelisted users can sign documents, and admins can manage accounts.",
				"kind": "dev",
				"methods": {
					"addAdmin(address)": {
						"details": "Add an admin account.",
						"params": {
							"account": "Address to grant admin rights."
						}
					},
					"addToWhitelist(address)": {
						"details": "Add an account to the manual whitelist.",
						"params": {
							"account": "Address to whitelist."
						}
					},
					"constructor": {
						"details": "Constructor initializes the owner and Merkle Root.",
						"params": {
							"_merkleRoot": "Initial Merkle Root."
						}
					},
					"getWhitelistedAccounts()": {
						"details": "Get all whitelisted accounts.",
						"returns": {
							"_0": "address[] Array of whitelisted accounts."
						}
					},
					"isWhitelisted(bytes32[],address)": {
						"details": "Verifies if an account is whitelisted using Merkle Proof or manual mapping.",
						"params": {
							"account": "Address to verify.",
							"proof": "Merkle Proof provided by the user."
						},
						"returns": {
							"_0": "bool Returns true if the address is whitelisted."
						}
					},
					"removeAdmin(address)": {
						"details": "Remove an admin account.",
						"params": {
							"account": "Address to revoke admin rights."
						}
					},
					"signDocument(bytes32[])": {
						"details": "Sign a document if the caller is whitelisted.",
						"params": {
							"proof": "Merkle Proof."
						}
					},
					"updateMerkleRoot(bytes32)": {
						"details": "Updates the Merkle Root and resets whitelist tracking.",
						"params": {
							"_newRoot": "The new Merkle Root."
						}
					},
					"whitelistAndTrack(bytes32[])": {
						"details": "Whitelist and track the caller if verified using a Merkle Proof.",
						"params": {
							"proof": "Merkle Proof."
						}
					}
				},
				"title": "MerkleDocumentSigning",
				"version": 1
			},
			"evm": {
				"assembly": "    /* \"contracts/Te.sol\":403:6317  contract MerkleDocumentSigning {... */\n  mstore(0x40, 0x80)\n    /* \"contracts/Te.sol\":1849:1954  constructor(bytes32 _merkleRoot) {... */\n  callvalue\n  dup1\n  iszero\n  tag_1\n  jumpi\n  0x00\n  dup1\n  revert\ntag_1:\n  pop\n  mload(0x40)\n  sub(codesize, bytecodeSize)\n  dup1\n  bytecodeSize\n  dup4\n  codecopy\n  dup2\n  dup2\n  add\n  0x40\n  mstore\n  dup2\n  add\n  swap1\n  tag_2\n  swap2\n  swap1\n  tag_3\n  jump\t// in\ntag_2:\n    /* \"contracts/Te.sol\":1901:1911  msg.sender */\n  caller\n    /* \"contracts/Te.sol\":1893:1898  owner */\n  0x00\n  dup1\n    /* \"contracts/Te.sol\":1893:1911  owner = msg.sender */\n  0x0100\n  exp\n  dup2\n  sload\n  dup2\n  0xffffffffffffffffffffffffffffffffffffffff\n  mul\n  not\n  and\n  swap1\n  dup4\n  0xffffffffffffffffffffffffffffffffffffffff\n  and\n  mul\n  or\n  swap1\n  sstore\n  pop\n    /* \"contracts/Te.sol\":1935:1946  _merkleRoot */\n  dup1\n    /* \"contracts/Te.sol\":1922:1932  merkleRoot */\n  0x01\n    /* \"contracts/Te.sol\":1922:1946  merkleRoot = _merkleRoot */\n  dup2\n  swap1\n  sstore\n  pop\n    /* \"contracts/Te.sol\":1849:1954  constructor(bytes32 _merkleRoot) {... */\n  pop\n    /* \"contracts/Te.sol\":403:6317  contract MerkleDocumentSigning {... */\n  jump(tag_6)\n    /* \"#utility.yul\":88:205   */\ntag_8:\n    /* \"#utility.yul\":197:198   */\n  0x00\n    /* \"#utility.yul\":194:195   */\n  dup1\n    /* \"#utility.yul\":187:199   */\n  revert\n    /* \"#utility.yul\":334:411   */\ntag_10:\n    /* \"#utility.yul\":371:378   */\n  0x00\n    /* \"#utility.yul\":400:405   */\n  dup2\n    /* \"#utility.yul\":389:405   */\n  swap1\n  pop\n    /* \"#utility.yul\":334:411   */\n  swap2\n  swap1\n  pop\n  jump\t// out\n    /* \"#utility.yul\":417:539   */\ntag_11:\n    /* \"#utility.yul\":490:514   */\n  tag_19\n    /* \"#utility.yul\":508:513   */\n  dup2\n    /* \"#utility.yul\":490:514   */\n  tag_10\n  jump\t// in\ntag_19:\n    /* \"#utility.yul\":483:488   */\n  dup2\n    /* \"#utility.yul\":480:515   */\n  eq\n    /* \"#utility.yul\":470:533   */\n  tag_20\n  jumpi\n    /* \"#utility.yul\":529:530   */\n  0x00\n    /* \"#utility.yul\":526:527   */\n  dup1\n    /* \"#utility.yul\":519:531   */\n  revert\n    /* \"#utility.yul\":470:533   */\ntag_20:\n    /* \"#utility.yul\":417:539   */\n  pop\n  jump\t// out\n    /* \"#utility.yul\":545:688   */\ntag_12:\n    /* \"#utility.yul\":602:607   */\n  0x00\n    /* \"#utility.yul\":633:639   */\n  dup2\n    /* \"#utility.yul\":627:640   */\n  mload\n    /* \"#utility.yul\":618:640   */\n  swap1\n  pop\n    /* \"#utility.yul\":649:682   */\n  tag_22\n    /* \"#utility.yul\":676:681   */\n  dup2\n    /* \"#utility.yul\":649:682   */\n  tag_11\n  jump\t// in\ntag_22:\n    /* \"#utility.yul\":545:688   */\n  swap3\n  swap2\n  pop\n  pop\n  jump\t// out\n    /* \"#utility.yul\":694:1045   */\ntag_3:\n    /* \"#utility.yul\":764:770   */\n  0x00\n    /* \"#utility.yul\":813:815   */\n  0x20\n    /* \"#utility.yul\":801:810   */\n  dup3\n    /* \"#utility.yul\":792:799   */\n  dup5\n    /* \"#utility.yul\":788:811   */\n  sub\n    /* \"#utility.yul\":784:816   */\n  slt\n    /* \"#utility.yul\":781:900   */\n  iszero\n  tag_24\n  jumpi\n    /* \"#utility.yul\":819:898   */\n  tag_25\n  tag_8\n  jump\t// in\ntag_25:\n    /* \"#utility.yul\":781:900   */\ntag_24:\n    /* \"#utility.yul\":939:940   */\n  0x00\n    /* \"#utility.yul\":964:1028   */\n  tag_26\n    /* \"#utility.yul\":1020:1027   */\n  dup5\n    /* \"#utility.yul\":1011:1017   */\n  dup3\n    /* \"#utility.yul\":1000:1009   */\n  dup6\n    /* \"#utility.yul\":996:1018   */\n  add\n    /* \"#utility.yul\":964:1028   */\n  tag_12\n  jump\t// in\ntag_26:\n    /* \"#utility.yul\":954:1028   */\n  swap2\n  pop\n    /* \"#utility.yul\":910:1038   */\n  pop\n    /* \"#utility.yul\":694:1045   */\n  swap3\n  swap2\n  pop\n  pop\n  jump\t// out\n    /* \"contracts/Te.sol\":403:6317  contract MerkleDocumentSigning {... */\ntag_6:\n  dataSize(sub_0)\n  dup1\n  dataOffset(sub_0)\n  0x00\n  codecopy\n  0x00\n  return\nstop\n\nsub_0: assembly {\n        /* \"contracts/Te.sol\":403:6317  contract MerkleDocumentSigning {... */\n      mstore(0x40, 0x80)\n      callvalue\n      dup1\n      iszero\n      tag_1\n      jumpi\n      0x00\n      dup1\n      revert\n    tag_1:\n      pop\n      jumpi(tag_2, lt(calldatasize, 0x04))\n      shr(0xe0, calldataload(0x00))\n      dup1\n      0x70480275\n      gt\n      tag_18\n      jumpi\n      dup1\n      0xa4ec8d22\n      gt\n      tag_19\n      jumpi\n      dup1\n      0xa4ec8d22\n      eq\n      tag_14\n      jumpi\n      dup1\n      0xd9e9c978\n      eq\n      tag_15\n      jumpi\n      dup1\n      0xdebefaa6\n      eq\n      tag_16\n      jumpi\n      dup1\n      0xe43252d7\n      eq\n      tag_17\n      jumpi\n      jump(tag_2)\n    tag_19:\n      dup1\n      0x70480275\n      eq\n      tag_10\n      jumpi\n      dup1\n      0x8da5cb5b\n      eq\n      tag_11\n      jumpi\n      dup1\n      0x956aad88\n      eq\n      tag_12\n      jumpi\n      dup1\n      0xa407e496\n      eq\n      tag_13\n      jumpi\n      jump(tag_2)\n    tag_18:\n      dup1\n      0x429b62e5\n      gt\n      tag_20\n      jumpi\n      dup1\n      0x429b62e5\n      eq\n      tag_6\n      jumpi\n      dup1\n      0x4783f0ef\n      eq\n      tag_7\n      jumpi\n      dup1\n      0x5a521883\n      eq\n      tag_8\n      jumpi\n      dup1\n      0x5c9c66c6\n      eq\n      tag_9\n      jumpi\n      jump(tag_2)\n    tag_20:\n      dup1\n      0x0b207ec9\n      eq\n      tag_3\n      jumpi\n      dup1\n      0x1785f53c\n      eq\n      tag_4\n      jumpi\n      dup1\n      0x2eb4a7ab\n      eq\n      tag_5\n      jumpi\n    tag_2:\n      0x00\n      dup1\n      revert\n        /* \"contracts/Te.sol\":922:958  address[] public whitelistedAccounts */\n    tag_3:\n      tag_21\n      0x04\n      dup1\n      calldatasize\n      sub\n      dup2\n      add\n      swap1\n      tag_22\n      swap2\n      swap1\n      tag_23\n      jump\t// in\n    tag_22:\n      tag_24\n      jump\t// in\n    tag_21:\n      mload(0x40)\n      tag_25\n      swap2\n      swap1\n      tag_26\n      jump\t// in\n    tag_25:\n      mload(0x40)\n      dup1\n      swap2\n      sub\n      swap1\n      return\n        /* \"contracts/Te.sol\":5209:5412  function removeAdmin(address account) public onlyOwner {... */\n    tag_4:\n      tag_27\n      0x04\n      dup1\n      calldatasize\n      sub\n      dup2\n      add\n      swap1\n      tag_28\n      swap2\n      swap1\n      tag_29\n      jump\t// in\n    tag_28:\n      tag_30\n      jump\t// in\n    tag_27:\n      stop\n        /* \"contracts/Te.sol\":532:557  bytes32 public merkleRoot */\n    tag_5:\n      tag_31\n      tag_32\n      jump\t// in\n    tag_31:\n      mload(0x40)\n      tag_33\n      swap2\n      swap1\n      tag_34\n      jump\t// in\n    tag_33:\n      mload(0x40)\n      dup1\n      swap2\n      sub\n      swap1\n      return\n        /* \"contracts/Te.sol\":714:752  mapping(address => bool) public admins */\n    tag_6:\n      tag_35\n      0x04\n      dup1\n      calldatasize\n      sub\n      dup2\n      add\n      swap1\n      tag_36\n      swap2\n      swap1\n      tag_29\n      jump\t// in\n    tag_36:\n      tag_37\n      jump\t// in\n    tag_35:\n      mload(0x40)\n      tag_38\n      swap2\n      swap1\n      tag_39\n      jump\t// in\n    tag_38:\n      mload(0x40)\n      dup1\n      swap2\n      sub\n      swap1\n      return\n        /* \"contracts/Te.sol\":2208:2992  function updateMerkleRoot(bytes32 _newRoot) public onlyAdmin {... */\n    tag_7:\n      tag_40\n      0x04\n      dup1\n      calldatasize\n      sub\n      dup2\n      add\n      swap1\n      tag_41\n      swap2\n      swap1\n      tag_42\n      jump\t// in\n    tag_41:\n      tag_43\n      jump\t// in\n    tag_40:\n      stop\n        /* \"contracts/Te.sol\":1006:1041  uint256 public totalDocumentsSigned */\n    tag_8:\n      tag_44\n      tag_45\n      jump\t// in\n    tag_44:\n      mload(0x40)\n      tag_46\n      swap2\n      swap1\n      tag_47\n      jump\t// in\n    tag_46:\n      mload(0x40)\n      dup1\n      swap2\n      sub\n      swap1\n      return\n        /* \"contracts/Te.sol\":6196:6314  function getWhitelistedAccounts() public view returns (address[] memory) {... */\n    tag_9:\n      tag_48\n      tag_49\n      jump\t// in\n    tag_48:\n      mload(0x40)\n      tag_50\n      swap2\n      swap1\n      tag_51\n      jump\t// in\n    tag_50:\n      mload(0x40)\n      dup1\n      swap2\n      sub\n      swap1\n      return\n        /* \"contracts/Te.sol\":4887:5090  function addAdmin(address account) public onlyOwner {... */\n    tag_10:\n      tag_52\n      0x04\n      dup1\n      calldatasize\n      sub\n      dup2\n      add\n      swap1\n      tag_53\n      swap2\n      swap1\n      tag_29\n      jump\t// in\n    tag_53:\n      tag_54\n      jump\t// in\n    tag_52:\n      stop\n        /* \"contracts/Te.sol\":471:491  address public owner */\n    tag_11:\n      tag_55\n      tag_56\n      jump\t// in\n    tag_55:\n      mload(0x40)\n      tag_57\n      swap2\n      swap1\n      tag_26\n      jump\t// in\n    tag_57:\n      mload(0x40)\n      dup1\n      swap2\n      sub\n      swap1\n      return\n        /* \"contracts/Te.sol\":3828:4304  function whitelistAndTrack(bytes32[] calldata proof) public {... */\n    tag_12:\n      tag_58\n      0x04\n      dup1\n      calldatasize\n      sub\n      dup2\n      add\n      swap1\n      tag_59\n      swap2\n      swap1\n      tag_60\n      jump\t// in\n    tag_59:\n      tag_61\n      jump\t// in\n    tag_58:\n      stop\n        /* \"contracts/Te.sol\":4424:4772  function signDocument(bytes32[] calldata proof) public {... */\n    tag_13:\n      tag_62\n      0x04\n      dup1\n      calldatasize\n      sub\n      dup2\n      add\n      swap1\n      tag_63\n      swap2\n      swap1\n      tag_60\n      jump\t// in\n    tag_63:\n      tag_64\n      jump\t// in\n    tag_62:\n      stop\n        /* \"contracts/Te.sol\":819:872  mapping(address => uint256) public whitelistTimestamp */\n    tag_14:\n      tag_65\n      0x04\n      dup1\n      calldatasize\n      sub\n      dup2\n      add\n      swap1\n      tag_66\n      swap2\n      swap1\n      tag_29\n      jump\t// in\n    tag_66:\n      tag_67\n      jump\t// in\n    tag_65:\n      mload(0x40)\n      tag_68\n      swap2\n      swap1\n      tag_47\n      jump\t// in\n    tag_68:\n      mload(0x40)\n      dup1\n      swap2\n      sub\n      swap1\n      return\n        /* \"contracts/Te.sol\":626:673  mapping(address => bool) public manualWhitelist */\n    tag_15:\n      tag_69\n      0x04\n      dup1\n      calldatasize\n      sub\n      dup2\n      add\n      swap1\n      tag_70\n      swap2\n      swap1\n      tag_29\n      jump\t// in\n    tag_70:\n      tag_71\n      jump\t// in\n    tag_69:\n      mload(0x40)\n      tag_72\n      swap2\n      swap1\n      tag_39\n      jump\t// in\n    tag_72:\n      mload(0x40)\n      dup1\n      swap2\n      sub\n      swap1\n      return\n        /* \"contracts/Te.sol\":3270:3689  function isWhitelisted(bytes32[] calldata proof, address account) public view returns (bool) {... */\n    tag_16:\n      tag_73\n      0x04\n      dup1\n      calldatasize\n      sub\n      dup2\n      add\n      swap1\n      tag_74\n      swap2\n      swap1\n      tag_75\n      jump\t// in\n    tag_74:\n      tag_76\n      jump\t// in\n    tag_73:\n      mload(0x40)\n      tag_77\n      swap2\n      swap1\n      tag_39\n      jump\t// in\n    tag_77:\n      mload(0x40)\n      dup1\n      swap2\n      sub\n      swap1\n      return\n        /* \"contracts/Te.sol\":5536:6070  function addToWhitelist(address account) public onlyAdmin {... */\n    tag_17:\n      tag_78\n      0x04\n      dup1\n      calldatasize\n      sub\n      dup2\n      add\n      swap1\n      tag_79\n      swap2\n      swap1\n      tag_29\n      jump\t// in\n    tag_79:\n      tag_80\n      jump\t// in\n    tag_78:\n      stop\n        /* \"contracts/Te.sol\":922:958  address[] public whitelistedAccounts */\n    tag_24:\n      0x05\n      dup2\n      dup2\n      sload\n      dup2\n      lt\n      tag_81\n      jumpi\n      0x00\n      dup1\n      revert\n    tag_81:\n      swap1\n      0x00\n      mstore\n      keccak256(0x00, 0x20)\n      add\n      0x00\n      swap2\n      pop\n      sload\n      swap1\n      0x0100\n      exp\n      swap1\n      div\n      0xffffffffffffffffffffffffffffffffffffffff\n      and\n      dup2\n      jump\t// out\n        /* \"contracts/Te.sol\":5209:5412  function removeAdmin(address account) public onlyOwner {... */\n    tag_30:\n        /* \"contracts/Te.sol\":1437:1442  owner */\n      0x00\n      dup1\n      sload\n      swap1\n      0x0100\n      exp\n      swap1\n      div\n      0xffffffffffffffffffffffffffffffffffffffff\n      and\n        /* \"contracts/Te.sol\":1423:1442  msg.sender == owner */\n      0xffffffffffffffffffffffffffffffffffffffff\n      and\n        /* \"contracts/Te.sol\":1423:1433  msg.sender */\n      caller\n        /* \"contracts/Te.sol\":1423:1442  msg.sender == owner */\n      0xffffffffffffffffffffffffffffffffffffffff\n      and\n      eq\n        /* \"contracts/Te.sol\":1415:1485  require(msg.sender == owner, \"Only the owner can perform this action\") */\n      tag_84\n      jumpi\n      mload(0x40)\n      0x08c379a000000000000000000000000000000000000000000000000000000000\n      dup2\n      mstore\n      0x04\n      add\n      tag_85\n      swap1\n      tag_86\n      jump\t// in\n    tag_85:\n      mload(0x40)\n      dup1\n      swap2\n      sub\n      swap1\n      revert\n    tag_84:\n        /* \"contracts/Te.sol\":5283:5289  admins */\n      0x03\n        /* \"contracts/Te.sol\":5283:5298  admins[account] */\n      0x00\n        /* \"contracts/Te.sol\":5290:5297  account */\n      dup3\n        /* \"contracts/Te.sol\":5283:5298  admins[account] */\n      0xffffffffffffffffffffffffffffffffffffffff\n      and\n      0xffffffffffffffffffffffffffffffffffffffff\n      and\n      dup2\n      mstore\n      0x20\n      add\n      swap1\n      dup2\n      mstore\n      0x20\n      add\n      0x00\n      keccak256\n      0x00\n      swap1\n      sload\n      swap1\n      0x0100\n      exp\n      swap1\n      div\n      0xff\n      and\n        /* \"contracts/Te.sol\":5275:5326  require(admins[account], \"Address is not an admin\") */\n      tag_88\n      jumpi\n      mload(0x40)\n      0x08c379a000000000000000000000000000000000000000000000000000000000\n      dup2\n      mstore\n      0x04\n      add\n      tag_89\n      swap1\n      tag_90\n      jump\t// in\n    tag_89:\n      mload(0x40)\n      dup1\n      swap2\n      sub\n      swap1\n      revert\n    tag_88:\n        /* \"contracts/Te.sol\":5355:5360  false */\n      0x00\n        /* \"contracts/Te.sol\":5337:5343  admins */\n      0x03\n        /* \"contracts/Te.sol\":5337:5352  admins[account] */\n      0x00\n        /* \"contracts/Te.sol\":5344:5351  account */\n      dup4\n        /* \"contracts/Te.sol\":5337:5352  admins[account] */\n      0xffffffffffffffffffffffffffffffffffffffff\n      and\n      0xffffffffffffffffffffffffffffffffffffffff\n      and\n      dup2\n      mstore\n      0x20\n      add\n      swap1\n      dup2\n      mstore\n      0x20\n      add\n      0x00\n      keccak256\n      0x00\n        /* \"contracts/Te.sol\":5337:5360  admins[account] = false */\n      0x0100\n      exp\n      dup2\n      sload\n      dup2\n      0xff\n      mul\n      not\n      and\n      swap1\n      dup4\n      iszero\n      iszero\n      mul\n      or\n      swap1\n      sstore\n      pop\n        /* \"contracts/Te.sol\":5389:5396  account */\n      dup1\n        /* \"contracts/Te.sol\":5376:5404  AdminUpdated(account, false) */\n      0xffffffffffffffffffffffffffffffffffffffff\n      and\n      0x235bc17e7930760029e9f4d860a2a8089976de5b381cf8380fc11c1d88a11133\n        /* \"contracts/Te.sol\":5398:5403  false */\n      0x00\n        /* \"contracts/Te.sol\":5376:5404  AdminUpdated(account, false) */\n      mload(0x40)\n      tag_91\n      swap2\n      swap1\n      tag_39\n      jump\t// in\n    tag_91:\n      mload(0x40)\n      dup1\n      swap2\n      sub\n      swap1\n      log2\n        /* \"contracts/Te.sol\":5209:5412  function removeAdmin(address account) public onlyOwner {... */\n      pop\n      jump\t// out\n        /* \"contracts/Te.sol\":532:557  bytes32 public merkleRoot */\n    tag_32:\n      sload(0x01)\n      dup2\n      jump\t// out\n        /* \"contracts/Te.sol\":714:752  mapping(address => bool) public admins */\n    tag_37:\n      mstore(0x20, 0x03)\n      dup1\n      0x00\n      mstore\n      keccak256(0x00, 0x40)\n      0x00\n      swap2\n      pop\n      sload\n      swap1\n      0x0100\n      exp\n      swap1\n      div\n      0xff\n      and\n      dup2\n      jump\t// out\n        /* \"contracts/Te.sol\":2208:2992  function updateMerkleRoot(bytes32 _newRoot) public onlyAdmin {... */\n    tag_43:\n        /* \"contracts/Te.sol\":1608:1614  admins */\n      0x03\n        /* \"contracts/Te.sol\":1608:1626  admins[msg.sender] */\n      0x00\n        /* \"contracts/Te.sol\":1615:1625  msg.sender */\n      caller\n        /* \"contracts/Te.sol\":1608:1626  admins[msg.sender] */\n      0xffffffffffffffffffffffffffffffffffffffff\n      and\n      0xffffffffffffffffffffffffffffffffffffffff\n      and\n      dup2\n      mstore\n      0x20\n      add\n      swap1\n      dup2\n      mstore\n      0x20\n      add\n      0x00\n      keccak256\n      0x00\n      swap1\n      sload\n      swap1\n      0x0100\n      exp\n      swap1\n      div\n      0xff\n      and\n        /* \"contracts/Te.sol\":1608:1649  admins[msg.sender] || msg.sender == owner */\n      dup1\n      tag_93\n      jumpi\n      pop\n        /* \"contracts/Te.sol\":1644:1649  owner */\n      0x00\n      dup1\n      sload\n      swap1\n      0x0100\n      exp\n      swap1\n      div\n      0xffffffffffffffffffffffffffffffffffffffff\n      and\n        /* \"contracts/Te.sol\":1630:1649  msg.sender == owner */\n      0xffffffffffffffffffffffffffffffffffffffff\n      and\n        /* \"contracts/Te.sol\":1630:1640  msg.sender */\n      caller\n        /* \"contracts/Te.sol\":1630:1649  msg.sender == owner */\n      0xffffffffffffffffffffffffffffffffffffffff\n      and\n      eq\n        /* \"contracts/Te.sol\":1608:1649  admins[msg.sender] || msg.sender == owner */\n    tag_93:\n        /* \"contracts/Te.sol\":1600:1691  require(admins[msg.sender] || msg.sender == owner, \"Only an admin can perform this action\") */\n      tag_94\n      jumpi\n      mload(0x40)\n      0x08c379a000000000000000000000000000000000000000000000000000000000\n      dup2\n      mstore\n      0x04\n      add\n      tag_95\n      swap1\n      tag_96\n      jump\t// in\n    tag_95:\n      mload(0x40)\n      dup1\n      swap2\n      sub\n      swap1\n      revert\n    tag_94:\n        /* \"contracts/Te.sol\":2293:2301  _newRoot */\n      dup1\n        /* \"contracts/Te.sol\":2280:2290  merkleRoot */\n      0x01\n        /* \"contracts/Te.sol\":2280:2301  merkleRoot = _newRoot */\n      dup2\n      swap1\n      sstore\n      pop\n        /* \"contracts/Te.sol\":2383:2389  uint i */\n      0x00\n        /* \"contracts/Te.sol\":2378:2506  for (uint i = 0; i < whitelistedAccounts.length; i++) {... */\n    tag_98:\n        /* \"contracts/Te.sol\":2399:2418  whitelistedAccounts */\n      0x05\n        /* \"contracts/Te.sol\":2399:2425  whitelistedAccounts.length */\n      dup1\n      sload\n      swap1\n      pop\n        /* \"contracts/Te.sol\":2395:2396  i */\n      dup2\n        /* \"contracts/Te.sol\":2395:2425  i < whitelistedAccounts.length */\n      lt\n        /* \"contracts/Te.sol\":2378:2506  for (uint i = 0; i < whitelistedAccounts.length; i++) {... */\n      iszero\n      tag_99\n      jumpi\n        /* \"contracts/Te.sol\":2489:2494  false */\n      0x00\n        /* \"contracts/Te.sol\":2447:2462  manualWhitelist */\n      0x02\n        /* \"contracts/Te.sol\":2447:2486  manualWhitelist[whitelistedAccounts[i]] */\n      0x00\n        /* \"contracts/Te.sol\":2463:2482  whitelistedAccounts */\n      0x05\n        /* \"contracts/Te.sol\":2483:2484  i */\n      dup5\n        /* \"contracts/Te.sol\":2463:2485  whitelistedAccounts[i] */\n      dup2\n      sload\n      dup2\n      lt\n      tag_101\n      jumpi\n      tag_102\n      tag_103\n      jump\t// in\n    tag_102:\n    tag_101:\n      swap1\n      0x00\n      mstore\n      keccak256(0x00, 0x20)\n      add\n      0x00\n      swap1\n      sload\n      swap1\n      0x0100\n      exp\n      swap1\n      div\n      0xffffffffffffffffffffffffffffffffffffffff\n      and\n        /* \"contracts/Te.sol\":2447:2486  manualWhitelist[whitelistedAccounts[i]] */\n      0xffffffffffffffffffffffffffffffffffffffff\n      and\n      0xffffffffffffffffffffffffffffffffffffffff\n      and\n      dup2\n      mstore\n      0x20\n      add\n      swap1\n      dup2\n      mstore\n      0x20\n      add\n      0x00\n      keccak256\n      0x00\n        /* \"contracts/Te.sol\":2447:2494  manualWhitelist[whitelistedAccounts[i]] = false */\n      0x0100\n      exp\n      dup2\n      sload\n      dup2\n      0xff\n      mul\n      not\n      and\n      swap1\n      dup4\n      iszero\n      iszero\n      mul\n      or\n      swap1\n      sstore\n      pop\n        /* \"contracts/Te.sol\":2427:2430  i++ */\n      dup1\n      dup1\n      0x01\n      add\n      swap2\n      pop\n      pop\n        /* \"contracts/Te.sol\":2378:2506  for (uint i = 0; i < whitelistedAccounts.length; i++) {... */\n      jump(tag_98)\n    tag_99:\n      pop\n        /* \"contracts/Te.sol\":2576:2595  whitelistedAccounts */\n      0x05\n      0x00\n        /* \"contracts/Te.sol\":2569:2595  delete whitelistedAccounts */\n      tag_105\n      swap2\n      swap1\n      tag_106\n      jump\t// in\n    tag_105:\n        /* \"contracts/Te.sol\":2690:2696  uint i */\n      0x00\n        /* \"contracts/Te.sol\":2685:2893  for (uint i = 0; i < whitelistedAccounts.length; i++) {... */\n    tag_107:\n        /* \"contracts/Te.sol\":2706:2725  whitelistedAccounts */\n      0x05\n        /* \"contracts/Te.sol\":2706:2732  whitelistedAccounts.length */\n      dup1\n      sload\n      swap1\n      pop\n        /* \"contracts/Te.sol\":2702:2703  i */\n      dup2\n        /* \"contracts/Te.sol\":2702:2732  i < whitelistedAccounts.length */\n      lt\n        /* \"contracts/Te.sol\":2685:2893  for (uint i = 0; i < whitelistedAccounts.length; i++) {... */\n      iszero\n      tag_108\n      jumpi\n        /* \"contracts/Te.sol\":2758:2773  manualWhitelist */\n      0x02\n        /* \"contracts/Te.sol\":2758:2797  manualWhitelist[whitelistedAccounts[i]] */\n      0x00\n        /* \"contracts/Te.sol\":2774:2793  whitelistedAccounts */\n      0x05\n        /* \"contracts/Te.sol\":2794:2795  i */\n      dup4\n        /* \"contracts/Te.sol\":2774:2796  whitelistedAccounts[i] */\n      dup2\n      sload\n      dup2\n      lt\n      tag_110\n      jumpi\n      tag_111\n      tag_103\n      jump\t// in\n    tag_111:\n    tag_110:\n      swap1\n      0x00\n      mstore\n      keccak256(0x00, 0x20)\n      add\n      0x00\n      swap1\n      sload\n      swap1\n      0x0100\n      exp\n      swap1\n      div\n      0xffffffffffffffffffffffffffffffffffffffff\n      and\n        /* \"contracts/Te.sol\":2758:2797  manualWhitelist[whitelistedAccounts[i]] */\n      0xffffffffffffffffffffffffffffffffffffffff\n      and\n      0xffffffffffffffffffffffffffffffffffffffff\n      and\n      dup2\n      mstore\n      0x20\n      add\n      swap1\n      dup2\n      mstore\n      0x20\n      add\n      0x00\n      keccak256\n      0x00\n      swap1\n      sload\n      swap1\n      0x0100\n      exp\n      swap1\n      div\n      0xff\n      and\n        /* \"contracts/Te.sol\":2754:2882  if (manualWhitelist[whitelistedAccounts[i]]) {... */\n      iszero\n      tag_113\n      jumpi\n        /* \"contracts/Te.sol\":2818:2837  whitelistedAccounts */\n      0x05\n        /* \"contracts/Te.sol\":2843:2862  whitelistedAccounts */\n      dup1\n        /* \"contracts/Te.sol\":2863:2864  i */\n      dup3\n        /* \"contracts/Te.sol\":2843:2865  whitelistedAccounts[i] */\n      dup2\n      sload\n      dup2\n      lt\n      tag_114\n      jumpi\n      tag_115\n      tag_103\n      jump\t// in\n    tag_115:\n    tag_114:\n      swap1\n      0x00\n      mstore\n      keccak256(0x00, 0x20)\n      add\n      0x00\n      swap1\n      sload\n      swap1\n      0x0100\n      exp\n      swap1\n      div\n      0xffffffffffffffffffffffffffffffffffffffff\n      and\n        /* \"contracts/Te.sol\":2818:2866  whitelistedAccounts.push(whitelistedAccounts[i]) */\n      swap1\n      dup1\n      0x01\n      dup2\n      sload\n      add\n      dup1\n      dup3\n      sstore\n      dup1\n      swap2\n      pop\n      pop\n      0x01\n      swap1\n      sub\n      swap1\n      0x00\n      mstore\n      keccak256(0x00, 0x20)\n      add\n      0x00\n      swap1\n      swap2\n      swap1\n      swap2\n      swap1\n      swap2\n      0x0100\n      exp\n      dup2\n      sload\n      dup2\n      0xffffffffffffffffffffffffffffffffffffffff\n      mul\n      not\n      and\n      swap1\n      dup4\n      0xffffffffffffffffffffffffffffffffffffffff\n      and\n      mul\n      or\n      swap1\n      sstore\n      pop\n        /* \"contracts/Te.sol\":2754:2882  if (manualWhitelist[whitelistedAccounts[i]]) {... */\n    tag_113:\n        /* \"contracts/Te.sol\":2734:2737  i++ */\n      dup1\n      dup1\n      0x01\n      add\n      swap2\n      pop\n      pop\n        /* \"contracts/Te.sol\":2685:2893  for (uint i = 0; i < whitelistedAccounts.length; i++) {... */\n      jump(tag_107)\n    tag_108:\n      pop\n        /* \"contracts/Te.sol\":2957:2984  MerkleRootUpdated(_newRoot) */\n      0x90004c04698bc3322499a575ed3752dd4abf33e0a7294c06a787a0fe01bea941\n        /* \"contracts/Te.sol\":2975:2983  _newRoot */\n      dup2\n        /* \"contracts/Te.sol\":2957:2984  MerkleRootUpdated(_newRoot) */\n      mload(0x40)\n      tag_118\n      swap2\n      swap1\n      tag_34\n      jump\t// in\n    tag_118:\n      mload(0x40)\n      dup1\n      swap2\n      sub\n      swap1\n      log1\n        /* \"contracts/Te.sol\":2208:2992  function updateMerkleRoot(bytes32 _newRoot) public onlyAdmin {... */\n      pop\n      jump\t// out\n        /* \"contracts/Te.sol\":1006:1041  uint256 public totalDocumentsSigned */\n    tag_45:\n      sload(0x06)\n      dup2\n      jump\t// out\n        /* \"contracts/Te.sol\":6196:6314  function getWhitelistedAccounts() public view returns (address[] memory) {... */\n    tag_49:\n        /* \"contracts/Te.sol\":6251:6267  address[] memory */\n      0x60\n        /* \"contracts/Te.sol\":6287:6306  whitelistedAccounts */\n      0x05\n        /* \"contracts/Te.sol\":6280:6306  return whitelistedAccounts */\n      dup1\n      sload\n      dup1\n      0x20\n      mul\n      0x20\n      add\n      mload(0x40)\n      swap1\n      dup2\n      add\n      0x40\n      mstore\n      dup1\n      swap3\n      swap2\n      swap1\n      dup2\n      dup2\n      mstore\n      0x20\n      add\n      dup3\n      dup1\n      sload\n      dup1\n      iszero\n      tag_120\n      jumpi\n      0x20\n      mul\n      dup3\n      add\n      swap2\n      swap1\n      0x00\n      mstore\n      keccak256(0x00, 0x20)\n      swap1\n    tag_121:\n      dup2\n      0x00\n      swap1\n      sload\n      swap1\n      0x0100\n      exp\n      swap1\n      div\n      0xffffffffffffffffffffffffffffffffffffffff\n      and\n      0xffffffffffffffffffffffffffffffffffffffff\n      and\n      dup2\n      mstore\n      0x20\n      add\n      swap1\n      0x01\n      add\n      swap1\n      dup1\n      dup4\n      gt\n      tag_121\n      jumpi\n    tag_120:\n      pop\n      pop\n      pop\n      pop\n      pop\n      swap1\n      pop\n        /* \"contracts/Te.sol\":6196:6314  function getWhitelistedAccounts() public view returns (address[] memory) {... */\n      swap1\n      jump\t// out\n        /* \"contracts/Te.sol\":4887:5090  function addAdmin(address account) public onlyOwner {... */\n    tag_54:\n        /* \"contracts/Te.sol\":1437:1442  owner */\n      0x00\n      dup1\n      sload\n      swap1\n      0x0100\n      exp\n      swap1\n      div\n      0xffffffffffffffffffffffffffffffffffffffff\n      and\n        /* \"contracts/Te.sol\":1423:1442  msg.sender == owner */\n      0xffffffffffffffffffffffffffffffffffffffff\n      and\n        /* \"contracts/Te.sol\":1423:1433  msg.sender */\n      caller\n        /* \"contracts/Te.sol\":1423:1442  msg.sender == owner */\n      0xffffffffffffffffffffffffffffffffffffffff\n      and\n      eq\n        /* \"contracts/Te.sol\":1415:1485  require(msg.sender == owner, \"Only the owner can perform this action\") */\n      tag_123\n      jumpi\n      mload(0x40)\n      0x08c379a000000000000000000000000000000000000000000000000000000000\n      dup2\n      mstore\n      0x04\n      add\n      tag_124\n      swap1\n      tag_86\n      jump\t// in\n    tag_124:\n      mload(0x40)\n      dup1\n      swap2\n      sub\n      swap1\n      revert\n    tag_123:\n        /* \"contracts/Te.sol\":4959:4965  admins */\n      0x03\n        /* \"contracts/Te.sol\":4959:4974  admins[account] */\n      0x00\n        /* \"contracts/Te.sol\":4966:4973  account */\n      dup3\n        /* \"contracts/Te.sol\":4959:4974  admins[account] */\n      0xffffffffffffffffffffffffffffffffffffffff\n      and\n      0xffffffffffffffffffffffffffffffffffffffff\n      and\n      dup2\n      mstore\n      0x20\n      add\n      swap1\n      dup2\n      mstore\n      0x20\n      add\n      0x00\n      keccak256\n      0x00\n      swap1\n      sload\n      swap1\n      0x0100\n      exp\n      swap1\n      div\n      0xff\n      and\n        /* \"contracts/Te.sol\":4958:4974  !admins[account] */\n      iszero\n        /* \"contracts/Te.sol\":4950:5006  require(!admins[account], \"Address is already an admin\") */\n      tag_126\n      jumpi\n      mload(0x40)\n      0x08c379a000000000000000000000000000000000000000000000000000000000\n      dup2\n      mstore\n      0x04\n      add\n      tag_127\n      swap1\n      tag_128\n      jump\t// in\n    tag_127:\n      mload(0x40)\n      dup1\n      swap2\n      sub\n      swap1\n      revert\n    tag_126:\n        /* \"contracts/Te.sol\":5035:5039  true */\n      0x01\n        /* \"contracts/Te.sol\":5017:5023  admins */\n      0x03\n        /* \"contracts/Te.sol\":5017:5032  admins[account] */\n      0x00\n        /* \"contracts/Te.sol\":5024:5031  account */\n      dup4\n        /* \"contracts/Te.sol\":5017:5032  admins[account] */\n      0xffffffffffffffffffffffffffffffffffffffff\n      and\n      0xffffffffffffffffffffffffffffffffffffffff\n      and\n      dup2\n      mstore\n      0x20\n      add\n      swap1\n      dup2\n      mstore\n      0x20\n      add\n      0x00\n      keccak256\n      0x00\n        /* \"contracts/Te.sol\":5017:5039  admins[account] = true */\n      0x0100\n      exp\n      dup2\n      sload\n      dup2\n      0xff\n      mul\n      not\n      and\n      swap1\n      dup4\n      iszero\n      iszero\n      mul\n      or\n      swap1\n      sstore\n      pop\n        /* \"contracts/Te.sol\":5068:5075  account */\n      dup1\n        /* \"contracts/Te.sol\":5055:5082  AdminUpdated(account, true) */\n      0xffffffffffffffffffffffffffffffffffffffff\n      and\n      0x235bc17e7930760029e9f4d860a2a8089976de5b381cf8380fc11c1d88a11133\n        /* \"contracts/Te.sol\":5077:5081  true */\n      0x01\n        /* \"contracts/Te.sol\":5055:5082  AdminUpdated(account, true) */\n      mload(0x40)\n      tag_129\n      swap2\n      swap1\n      tag_39\n      jump\t// in\n    tag_129:\n      mload(0x40)\n      dup1\n      swap2\n      sub\n      swap1\n      log2\n        /* \"contracts/Te.sol\":4887:5090  function addAdmin(address account) public onlyOwner {... */\n      pop\n      jump\t// out\n        /* \"contracts/Te.sol\":471:491  address public owner */\n    tag_56:\n      0x00\n      dup1\n      sload\n      swap1\n      0x0100\n      exp\n      swap1\n      div\n      0xffffffffffffffffffffffffffffffffffffffff\n      and\n      dup2\n      jump\t// out\n        /* \"contracts/Te.sol\":3828:4304  function whitelistAndTrack(bytes32[] calldata proof) public {... */\n    tag_61:\n        /* \"contracts/Te.sol\":3907:3939  isWhitelisted(proof, msg.sender) */\n      tag_131\n        /* \"contracts/Te.sol\":3921:3926  proof */\n      dup3\n      dup3\n        /* \"contracts/Te.sol\":3928:3938  msg.sender */\n      caller\n        /* \"contracts/Te.sol\":3907:3920  isWhitelisted */\n      tag_76\n        /* \"contracts/Te.sol\":3907:3939  isWhitelisted(proof, msg.sender) */\n      jump\t// in\n    tag_131:\n        /* \"contracts/Te.sol\":3899:3969  require(isWhitelisted(proof, msg.sender), \"Caller is not whitelisted\") */\n      tag_132\n      jumpi\n      mload(0x40)\n      0x08c379a000000000000000000000000000000000000000000000000000000000\n      dup2\n      mstore\n      0x04\n      add\n      tag_133\n      swap1\n      tag_134\n      jump\t// in\n    tag_133:\n      mload(0x40)\n      dup1\n      swap2\n      sub\n      swap1\n      revert\n    tag_132:\n        /* \"contracts/Te.sol\":4101:4102  0 */\n      0x00\n        /* \"contracts/Te.sol\":4067:4085  whitelistTimestamp */\n      0x04\n        /* \"contracts/Te.sol\":4067:4097  whitelistTimestamp[msg.sender] */\n      0x00\n        /* \"contracts/Te.sol\":4086:4096  msg.sender */\n      caller\n        /* \"contracts/Te.sol\":4067:4097  whitelistTimestamp[msg.sender] */\n      0xffffffffffffffffffffffffffffffffffffffff\n      and\n      0xffffffffffffffffffffffffffffffffffffffff\n      and\n      dup2\n      mstore\n      0x20\n      add\n      swap1\n      dup2\n      mstore\n      0x20\n      add\n      0x00\n      keccak256\n      sload\n        /* \"contracts/Te.sol\":4067:4102  whitelistTimestamp[msg.sender] == 0 */\n      sub\n        /* \"contracts/Te.sol\":4063:4297  if (whitelistTimestamp[msg.sender] == 0) {... */\n      tag_135\n      jumpi\n        /* \"contracts/Te.sol\":4152:4167  block.timestamp */\n      timestamp\n        /* \"contracts/Te.sol\":4119:4137  whitelistTimestamp */\n      0x04\n        /* \"contracts/Te.sol\":4119:4149  whitelistTimestamp[msg.sender] */\n      0x00\n        /* \"contracts/Te.sol\":4138:4148  msg.sender */\n      caller\n        /* \"contracts/Te.sol\":4119:4149  whitelistTimestamp[msg.sender] */\n      0xffffffffffffffffffffffffffffffffffffffff\n      and\n      0xffffffffffffffffffffffffffffffffffffffff\n      and\n      dup2\n      mstore\n      0x20\n      add\n      swap1\n      dup2\n      mstore\n      0x20\n      add\n      0x00\n      keccak256\n        /* \"contracts/Te.sol\":4119:4167  whitelistTimestamp[msg.sender] = block.timestamp */\n      dup2\n      swap1\n      sstore\n      pop\n        /* \"contracts/Te.sol\":4182:4201  whitelistedAccounts */\n      0x05\n        /* \"contracts/Te.sol\":4207:4217  msg.sender */\n      caller\n        /* \"contracts/Te.sol\":4182:4218  whitelistedAccounts.push(msg.sender) */\n      swap1\n      dup1\n      0x01\n      dup2\n      sload\n      add\n      dup1\n      dup3\n      sstore\n      dup1\n      swap2\n      pop\n      pop\n      0x01\n      swap1\n      sub\n      swap1\n      0x00\n      mstore\n      keccak256(0x00, 0x20)\n      add\n      0x00\n      swap1\n      swap2\n      swap1\n      swap2\n      swap1\n      swap2\n      0x0100\n      exp\n      dup2\n      sload\n      dup2\n      0xffffffffffffffffffffffffffffffffffffffff\n      mul\n      not\n      and\n      swap1\n      dup4\n      0xffffffffffffffffffffffffffffffffffffffff\n      and\n      mul\n      or\n      swap1\n      sstore\n      pop\n        /* \"contracts/Te.sol\":4257:4267  msg.sender */\n      caller\n        /* \"contracts/Te.sol\":4238:4285  AccountWhitelisted(msg.sender, block.timestamp) */\n      0xffffffffffffffffffffffffffffffffffffffff\n      and\n      0xa49883ca390454a7ad754a5c01f6b92c7467a5daa38c2a935fbfb93f8bb2530f\n        /* \"contracts/Te.sol\":4269:4284  block.timestamp */\n      timestamp\n        /* \"contracts/Te.sol\":4238:4285  AccountWhitelisted(msg.sender, block.timestamp) */\n      mload(0x40)\n      tag_137\n      swap2\n      swap1\n      tag_47\n      jump\t// in\n    tag_137:\n      mload(0x40)\n      dup1\n      swap2\n      sub\n      swap1\n      log2\n        /* \"contracts/Te.sol\":4063:4297  if (whitelistTimestamp[msg.sender] == 0) {... */\n    tag_135:\n        /* \"contracts/Te.sol\":3828:4304  function whitelistAndTrack(bytes32[] calldata proof) public {... */\n      pop\n      pop\n      jump\t// out\n        /* \"contracts/Te.sol\":4424:4772  function signDocument(bytes32[] calldata proof) public {... */\n    tag_64:\n        /* \"contracts/Te.sol\":4498:4530  isWhitelisted(proof, msg.sender) */\n      tag_139\n        /* \"contracts/Te.sol\":4512:4517  proof */\n      dup3\n      dup3\n        /* \"contracts/Te.sol\":4519:4529  msg.sender */\n      caller\n        /* \"contracts/Te.sol\":4498:4511  isWhitelisted */\n      tag_76\n        /* \"contracts/Te.sol\":4498:4530  isWhitelisted(proof, msg.sender) */\n      jump\t// in\n    tag_139:\n        /* \"contracts/Te.sol\":4490:4560  require(isWhitelisted(proof, msg.sender), \"Caller is not whitelisted\") */\n      tag_140\n      jumpi\n      mload(0x40)\n      0x08c379a000000000000000000000000000000000000000000000000000000000\n      dup2\n      mstore\n      0x04\n      add\n      tag_141\n      swap1\n      tag_134\n      jump\t// in\n    tag_141:\n      mload(0x40)\n      dup1\n      swap2\n      sub\n      swap1\n      revert\n    tag_140:\n        /* \"contracts/Te.sol\":4651:4652  1 */\n      0x01\n        /* \"contracts/Te.sol\":4627:4647  totalDocumentsSigned */\n      0x06\n      0x00\n        /* \"contracts/Te.sol\":4627:4652  totalDocumentsSigned += 1 */\n      dup3\n      dup3\n      sload\n      tag_142\n      swap2\n      swap1\n      tag_143\n      jump\t// in\n    tag_142:\n      swap3\n      pop\n      pop\n      dup2\n      swap1\n      sstore\n      pop\n        /* \"contracts/Te.sol\":4736:4746  msg.sender */\n      caller\n        /* \"contracts/Te.sol\":4721:4764  DocumentSigned(msg.sender, block.timestamp) */\n      0xffffffffffffffffffffffffffffffffffffffff\n      and\n      0xda29567229e1b858992f983785638370913b8134292eea489d9ccfc8f9711d98\n        /* \"contracts/Te.sol\":4748:4763  block.timestamp */\n      timestamp\n        /* \"contracts/Te.sol\":4721:4764  DocumentSigned(msg.sender, block.timestamp) */\n      mload(0x40)\n      tag_144\n      swap2\n      swap1\n      tag_47\n      jump\t// in\n    tag_144:\n      mload(0x40)\n      dup1\n      swap2\n      sub\n      swap1\n      log2\n        /* \"contracts/Te.sol\":4424:4772  function signDocument(bytes32[] calldata proof) public {... */\n      pop\n      pop\n      jump\t// out\n        /* \"contracts/Te.sol\":819:872  mapping(address => uint256) public whitelistTimestamp */\n    tag_67:\n      mstore(0x20, 0x04)\n      dup1\n      0x00\n      mstore\n      keccak256(0x00, 0x40)\n      0x00\n      swap2\n      pop\n      swap1\n      pop\n      sload\n      dup2\n      jump\t// out\n        /* \"contracts/Te.sol\":626:673  mapping(address => bool) public manualWhitelist */\n    tag_71:\n      mstore(0x20, 0x02)\n      dup1\n      0x00\n      mstore\n      keccak256(0x00, 0x40)\n      0x00\n      swap2\n      pop\n      sload\n      swap1\n      0x0100\n      exp\n      swap1\n      div\n      0xff\n      and\n      dup2\n      jump\t// out\n        /* \"contracts/Te.sol\":3270:3689  function isWhitelisted(bytes32[] calldata proof, address account) public view returns (bool) {... */\n    tag_76:\n        /* \"contracts/Te.sol\":3357:3361  bool */\n      0x00\n        /* \"contracts/Te.sol\":3438:3453  manualWhitelist */\n      0x02\n        /* \"contracts/Te.sol\":3438:3462  manualWhitelist[account] */\n      0x00\n        /* \"contracts/Te.sol\":3454:3461  account */\n      dup4\n        /* \"contracts/Te.sol\":3438:3462  manualWhitelist[account] */\n      0xffffffffffffffffffffffffffffffffffffffff\n      and\n      0xffffffffffffffffffffffffffffffffffffffff\n      and\n      dup2\n      mstore\n      0x20\n      add\n      swap1\n      dup2\n      mstore\n      0x20\n      add\n      0x00\n      keccak256\n      0x00\n      swap1\n      sload\n      swap1\n      0x0100\n      exp\n      swap1\n      div\n      0xff\n      and\n        /* \"contracts/Te.sol\":3434:3502  if (manualWhitelist[account]) {... */\n      iszero\n      tag_146\n      jumpi\n        /* \"contracts/Te.sol\":3486:3490  true */\n      0x01\n        /* \"contracts/Te.sol\":3479:3490  return true */\n      swap1\n      pop\n      jump(tag_145)\n        /* \"contracts/Te.sol\":3434:3502  if (manualWhitelist[account]) {... */\n    tag_146:\n        /* \"contracts/Te.sol\":3569:3581  bytes32 leaf */\n      0x00\n        /* \"contracts/Te.sol\":3611:3618  account */\n      dup3\n        /* \"contracts/Te.sol\":3594:3619  abi.encodePacked(account) */\n      add(0x20, mload(0x40))\n      tag_147\n      swap2\n      swap1\n      tag_148\n      jump\t// in\n    tag_147:\n      mload(0x40)\n      0x20\n      dup2\n      dup4\n      sub\n      sub\n      dup2\n      mstore\n      swap1\n      0x40\n      mstore\n        /* \"contracts/Te.sol\":3584:3620  keccak256(abi.encodePacked(account)) */\n      dup1\n      mload\n      swap1\n      0x20\n      add\n      keccak256\n        /* \"contracts/Te.sol\":3569:3620  bytes32 leaf = keccak256(abi.encodePacked(account)) */\n      swap1\n      pop\n        /* \"contracts/Te.sol\":3638:3681  MerkleProof.verify(proof, merkleRoot, leaf) */\n      tag_149\n        /* \"contracts/Te.sol\":3657:3662  proof */\n      dup6\n      dup6\n        /* \"contracts/Te.sol\":3638:3681  MerkleProof.verify(proof, merkleRoot, leaf) */\n      dup1\n      dup1\n      0x20\n      mul\n      0x20\n      add\n      mload(0x40)\n      swap1\n      dup2\n      add\n      0x40\n      mstore\n      dup1\n      swap4\n      swap3\n      swap2\n      swap1\n      dup2\n      dup2\n      mstore\n      0x20\n      add\n      dup4\n      dup4\n      0x20\n      mul\n      dup1\n      dup3\n      dup5\n      calldatacopy\n      0x00\n      dup2\n      dup5\n      add\n      mstore\n      not(0x1f)\n      0x1f\n      dup3\n      add\n      and\n      swap1\n      pop\n      dup1\n      dup4\n      add\n      swap3\n      pop\n      pop\n      pop\n      pop\n      pop\n      pop\n      pop\n        /* \"contracts/Te.sol\":3664:3674  merkleRoot */\n      sload(0x01)\n        /* \"contracts/Te.sol\":3676:3680  leaf */\n      dup4\n        /* \"contracts/Te.sol\":3638:3656  MerkleProof.verify */\n      tag_150\n        /* \"contracts/Te.sol\":3638:3681  MerkleProof.verify(proof, merkleRoot, leaf) */\n      jump\t// in\n    tag_149:\n        /* \"contracts/Te.sol\":3631:3681  return MerkleProof.verify(proof, merkleRoot, leaf) */\n      swap2\n      pop\n      pop\n        /* \"contracts/Te.sol\":3270:3689  function isWhitelisted(bytes32[] calldata proof, address account) public view returns (bool) {... */\n    tag_145:\n      swap4\n      swap3\n      pop\n      pop\n      pop\n      jump\t// out\n        /* \"contracts/Te.sol\":5536:6070  function addToWhitelist(address account) public onlyAdmin {... */\n    tag_80:\n        /* \"contracts/Te.sol\":1608:1614  admins */\n      0x03\n        /* \"contracts/Te.sol\":1608:1626  admins[msg.sender] */\n      0x00\n        /* \"contracts/Te.sol\":1615:1625  msg.sender */\n      caller\n        /* \"contracts/Te.sol\":1608:1626  admins[msg.sender] */\n      0xffffffffffffffffffffffffffffffffffffffff\n      and\n      0xffffffffffffffffffffffffffffffffffffffff\n      and\n      dup2\n      mstore\n      0x20\n      add\n      swap1\n      dup2\n      mstore\n      0x20\n      add\n      0x00\n      keccak256\n      0x00\n      swap1\n      sload\n      swap1\n      0x0100\n      exp\n      swap1\n      div\n      0xff\n      and\n        /* \"contracts/Te.sol\":1608:1649  admins[msg.sender] || msg.sender == owner */\n      dup1\n      tag_152\n      jumpi\n      pop\n        /* \"contracts/Te.sol\":1644:1649  owner */\n      0x00\n      dup1\n      sload\n      swap1\n      0x0100\n      exp\n      swap1\n      div\n      0xffffffffffffffffffffffffffffffffffffffff\n      and\n        /* \"contracts/Te.sol\":1630:1649  msg.sender == owner */\n      0xffffffffffffffffffffffffffffffffffffffff\n      and\n        /* \"contracts/Te.sol\":1630:1640  msg.sender */\n      caller\n        /* \"contracts/Te.sol\":1630:1649  msg.sender == owner */\n      0xffffffffffffffffffffffffffffffffffffffff\n      and\n      eq\n        /* \"contracts/Te.sol\":1608:1649  admins[msg.sender] || msg.sender == owner */\n    tag_152:\n        /* \"contracts/Te.sol\":1600:1691  require(admins[msg.sender] || msg.sender == owner, \"Only an admin can perform this action\") */\n      tag_153\n      jumpi\n      mload(0x40)\n      0x08c379a000000000000000000000000000000000000000000000000000000000\n      dup2\n      mstore\n      0x04\n      add\n      tag_154\n      swap1\n      tag_96\n      jump\t// in\n    tag_154:\n      mload(0x40)\n      dup1\n      swap2\n      sub\n      swap1\n      revert\n    tag_153:\n        /* \"contracts/Te.sol\":5614:5629  manualWhitelist */\n      0x02\n        /* \"contracts/Te.sol\":5614:5638  manualWhitelist[account] */\n      0x00\n        /* \"contracts/Te.sol\":5630:5637  account */\n      dup3\n        /* \"contracts/Te.sol\":5614:5638  manualWhitelist[account] */\n      0xffffffffffffffffffffffffffffffffffffffff\n      and\n      0xffffffffffffffffffffffffffffffffffffffff\n      and\n      dup2\n      mstore\n      0x20\n      add\n      swap1\n      dup2\n      mstore\n      0x20\n      add\n      0x00\n      keccak256\n      0x00\n      swap1\n      sload\n      swap1\n      0x0100\n      exp\n      swap1\n      div\n      0xff\n      and\n        /* \"contracts/Te.sol\":5613:5638  !manualWhitelist[account] */\n      iszero\n        /* \"contracts/Te.sol\":5605:5682  require(!manualWhitelist[account], \"Address is already manually whitelisted\") */\n      tag_156\n      jumpi\n      mload(0x40)\n      0x08c379a000000000000000000000000000000000000000000000000000000000\n      dup2\n      mstore\n      0x04\n      add\n      tag_157\n      swap1\n      tag_158\n      jump\t// in\n    tag_157:\n      mload(0x40)\n      dup1\n      swap2\n      sub\n      swap1\n      revert\n    tag_156:\n        /* \"contracts/Te.sol\":5766:5770  true */\n      0x01\n        /* \"contracts/Te.sol\":5739:5754  manualWhitelist */\n      0x02\n        /* \"contracts/Te.sol\":5739:5763  manualWhitelist[account] */\n      0x00\n        /* \"contracts/Te.sol\":5755:5762  account */\n      dup4\n        /* \"contracts/Te.sol\":5739:5763  manualWhitelist[account] */\n      0xffffffffffffffffffffffffffffffffffffffff\n      and\n      0xffffffffffffffffffffffffffffffffffffffff\n      and\n      dup2\n      mstore\n      0x20\n      add\n      swap1\n      dup2\n      mstore\n      0x20\n      add\n      0x00\n      keccak256\n      0x00\n        /* \"contracts/Te.sol\":5739:5770  manualWhitelist[account] = true */\n      0x0100\n      exp\n      dup2\n      sload\n      dup2\n      0xff\n      mul\n      not\n      and\n      swap1\n      dup4\n      iszero\n      iszero\n      mul\n      or\n      swap1\n      sstore\n      pop\n        /* \"contracts/Te.sol\":5878:5879  0 */\n      0x00\n        /* \"contracts/Te.sol\":5847:5865  whitelistTimestamp */\n      0x04\n        /* \"contracts/Te.sol\":5847:5874  whitelistTimestamp[account] */\n      0x00\n        /* \"contracts/Te.sol\":5866:5873  account */\n      dup4\n        /* \"contracts/Te.sol\":5847:5874  whitelistTimestamp[account] */\n      0xffffffffffffffffffffffffffffffffffffffff\n      and\n      0xffffffffffffffffffffffffffffffffffffffff\n      and\n      dup2\n      mstore\n      0x20\n      add\n      swap1\n      dup2\n      mstore\n      0x20\n      add\n      0x00\n      keccak256\n      sload\n        /* \"contracts/Te.sol\":5847:5879  whitelistTimestamp[account] == 0 */\n      sub\n        /* \"contracts/Te.sol\":5843:6001  if (whitelistTimestamp[account] == 0) {... */\n      tag_159\n      jumpi\n        /* \"contracts/Te.sol\":5926:5941  block.timestamp */\n      timestamp\n        /* \"contracts/Te.sol\":5896:5914  whitelistTimestamp */\n      0x04\n        /* \"contracts/Te.sol\":5896:5923  whitelistTimestamp[account] */\n      0x00\n        /* \"contracts/Te.sol\":5915:5922  account */\n      dup4\n        /* \"contracts/Te.sol\":5896:5923  whitelistTimestamp[account] */\n      0xffffffffffffffffffffffffffffffffffffffff\n      and\n      0xffffffffffffffffffffffffffffffffffffffff\n      and\n      dup2\n      mstore\n      0x20\n      add\n      swap1\n      dup2\n      mstore\n      0x20\n      add\n      0x00\n      keccak256\n        /* \"contracts/Te.sol\":5896:5941  whitelistTimestamp[account] = block.timestamp */\n      dup2\n      swap1\n      sstore\n      pop\n        /* \"contracts/Te.sol\":5956:5975  whitelistedAccounts */\n      0x05\n        /* \"contracts/Te.sol\":5981:5988  account */\n      dup2\n        /* \"contracts/Te.sol\":5956:5989  whitelistedAccounts.push(account) */\n      swap1\n      dup1\n      0x01\n      dup2\n      sload\n      add\n      dup1\n      dup3\n      sstore\n      dup1\n      swap2\n      pop\n      pop\n      0x01\n      swap1\n      sub\n      swap1\n      0x00\n      mstore\n      keccak256(0x00, 0x20)\n      add\n      0x00\n      swap1\n      swap2\n      swap1\n      swap2\n      swap1\n      swap2\n      0x0100\n      exp\n      dup2\n      sload\n      dup2\n      0xffffffffffffffffffffffffffffffffffffffff\n      mul\n      not\n      and\n      swap1\n      dup4\n      0xffffffffffffffffffffffffffffffffffffffff\n      and\n      mul\n      or\n      swap1\n      sstore\n      pop\n        /* \"contracts/Te.sol\":5843:6001  if (whitelistTimestamp[account] == 0) {... */\n    tag_159:\n        /* \"contracts/Te.sol\":6037:6044  account */\n      dup1\n        /* \"contracts/Te.sol\":6018:6062  AccountWhitelisted(account, block.timestamp) */\n      0xffffffffffffffffffffffffffffffffffffffff\n      and\n      0xa49883ca390454a7ad754a5c01f6b92c7467a5daa38c2a935fbfb93f8bb2530f\n        /* \"contracts/Te.sol\":6046:6061  block.timestamp */\n      timestamp\n        /* \"contracts/Te.sol\":6018:6062  AccountWhitelisted(account, block.timestamp) */\n      mload(0x40)\n      tag_161\n      swap2\n      swap1\n      tag_47\n      jump\t// in\n    tag_161:\n      mload(0x40)\n      dup1\n      swap2\n      sub\n      swap1\n      log2\n        /* \"contracts/Te.sol\":5536:6070  function addToWhitelist(address account) public onlyAdmin {... */\n      pop\n      jump\t// out\n        /* \"@openzeppelin/contracts/utils/cryptography/MerkleProof.sol\":1902:2056  function verify(bytes32[] memory proof, bytes32 root, bytes32 leaf) internal pure returns (bool) {... */\n    tag_150:\n        /* \"@openzeppelin/contracts/utils/cryptography/MerkleProof.sol\":1993:1997  bool */\n      0x00\n        /* \"@openzeppelin/contracts/utils/cryptography/MerkleProof.sol\":2045:2049  root */\n      dup3\n        /* \"@openzeppelin/contracts/utils/cryptography/MerkleProof.sol\":2016:2041  processProof(proof, leaf) */\n      tag_163\n        /* \"@openzeppelin/contracts/utils/cryptography/MerkleProof.sol\":2029:2034  proof */\n      dup6\n        /* \"@openzeppelin/contracts/utils/cryptography/MerkleProof.sol\":2036:2040  leaf */\n      dup5\n        /* \"@openzeppelin/contracts/utils/cryptography/MerkleProof.sol\":2016:2028  processProof */\n      tag_164\n        /* \"@openzeppelin/contracts/utils/cryptography/MerkleProof.sol\":2016:2041  processProof(proof, leaf) */\n      jump\t// in\n    tag_163:\n        /* \"@openzeppelin/contracts/utils/cryptography/MerkleProof.sol\":2016:2049  processProof(proof, leaf) == root */\n      eq\n        /* \"@openzeppelin/contracts/utils/cryptography/MerkleProof.sol\":2009:2049  return processProof(proof, leaf) == root */\n      swap1\n      pop\n        /* \"@openzeppelin/contracts/utils/cryptography/MerkleProof.sol\":1902:2056  function verify(bytes32[] memory proof, bytes32 root, bytes32 leaf) internal pure returns (bool) {... */\n      swap4\n      swap3\n      pop\n      pop\n      pop\n      jump\t// out\n        /* \"@openzeppelin/contracts/utils/cryptography/MerkleProof.sol\":2457:2765  function processProof(bytes32[] memory proof, bytes32 leaf) internal pure returns (bytes32) {... */\n    tag_164:\n        /* \"@openzeppelin/contracts/utils/cryptography/MerkleProof.sol\":2540:2547  bytes32 */\n      0x00\n        /* \"@openzeppelin/contracts/utils/cryptography/MerkleProof.sol\":2559:2579  bytes32 computedHash */\n      dup1\n        /* \"@openzeppelin/contracts/utils/cryptography/MerkleProof.sol\":2582:2586  leaf */\n      dup3\n        /* \"@openzeppelin/contracts/utils/cryptography/MerkleProof.sol\":2559:2586  bytes32 computedHash = leaf */\n      swap1\n      pop\n        /* \"@openzeppelin/contracts/utils/cryptography/MerkleProof.sol\":2601:2610  uint256 i */\n      0x00\n        /* \"@openzeppelin/contracts/utils/cryptography/MerkleProof.sol\":2596:2730  for (uint256 i = 0; i < proof.length; i++) {... */\n    tag_166:\n        /* \"@openzeppelin/contracts/utils/cryptography/MerkleProof.sol\":2620:2625  proof */\n      dup5\n        /* \"@openzeppelin/contracts/utils/cryptography/MerkleProof.sol\":2620:2632  proof.length */\n      mload\n        /* \"@openzeppelin/contracts/utils/cryptography/MerkleProof.sol\":2616:2617  i */\n      dup2\n        /* \"@openzeppelin/contracts/utils/cryptography/MerkleProof.sol\":2616:2632  i < proof.length */\n      lt\n        /* \"@openzeppelin/contracts/utils/cryptography/MerkleProof.sol\":2596:2730  for (uint256 i = 0; i < proof.length; i++) {... */\n      iszero\n      tag_167\n      jumpi\n        /* \"@openzeppelin/contracts/utils/cryptography/MerkleProof.sol\":2668:2719  Hashes.commutativeKeccak256(computedHash, proof[i]) */\n      tag_169\n        /* \"@openzeppelin/contracts/utils/cryptography/MerkleProof.sol\":2696:2708  computedHash */\n      dup3\n        /* \"@openzeppelin/contracts/utils/cryptography/MerkleProof.sol\":2710:2715  proof */\n      dup7\n        /* \"@openzeppelin/contracts/utils/cryptography/MerkleProof.sol\":2716:2717  i */\n      dup4\n        /* \"@openzeppelin/contracts/utils/cryptography/MerkleProof.sol\":2710:2718  proof[i] */\n      dup2\n      mload\n      dup2\n      lt\n      tag_170\n      jumpi\n      tag_171\n      tag_103\n      jump\t// in\n    tag_171:\n    tag_170:\n      0x20\n      mul\n      0x20\n      add\n      add\n      mload\n        /* \"@openzeppelin/contracts/utils/cryptography/MerkleProof.sol\":2668:2695  Hashes.commutativeKeccak256 */\n      tag_172\n        /* \"@openzeppelin/contracts/utils/cryptography/MerkleProof.sol\":2668:2719  Hashes.commutativeKeccak256(computedHash, proof[i]) */\n      jump\t// in\n    tag_169:\n        /* \"@openzeppelin/contracts/utils/cryptography/MerkleProof.sol\":2653:2719  computedHash = Hashes.commutativeKeccak256(computedHash, proof[i]) */\n      swap2\n      pop\n        /* \"@openzeppelin/contracts/utils/cryptography/MerkleProof.sol\":2634:2637  i++ */\n      dup1\n      dup1\n      0x01\n      add\n      swap2\n      pop\n      pop\n        /* \"@openzeppelin/contracts/utils/cryptography/MerkleProof.sol\":2596:2730  for (uint256 i = 0; i < proof.length; i++) {... */\n      jump(tag_166)\n    tag_167:\n      pop\n        /* \"@openzeppelin/contracts/utils/cryptography/MerkleProof.sol\":2746:2758  computedHash */\n      dup1\n        /* \"@openzeppelin/contracts/utils/cryptography/MerkleProof.sol\":2739:2758  return computedHash */\n      swap2\n      pop\n      pop\n        /* \"@openzeppelin/contracts/utils/cryptography/MerkleProof.sol\":2457:2765  function processProof(bytes32[] memory proof, bytes32 leaf) internal pure returns (bytes32) {... */\n      swap3\n      swap2\n      pop\n      pop\n      jump\t// out\n        /* \"@openzeppelin/contracts/utils/cryptography/Hashes.sol\":504:673  function commutativeKeccak256(bytes32 a, bytes32 b) internal pure returns (bytes32) {... */\n    tag_172:\n        /* \"@openzeppelin/contracts/utils/cryptography/Hashes.sol\":579:586  bytes32 */\n      0x00\n        /* \"@openzeppelin/contracts/utils/cryptography/Hashes.sol\":609:610  b */\n      dup2\n        /* \"@openzeppelin/contracts/utils/cryptography/Hashes.sol\":605:606  a */\n      dup4\n        /* \"@openzeppelin/contracts/utils/cryptography/Hashes.sol\":605:610  a < b */\n      lt\n        /* \"@openzeppelin/contracts/utils/cryptography/Hashes.sol\":605:666  a < b ? _efficientKeccak256(a, b) : _efficientKeccak256(b, a) */\n      tag_174\n      jumpi\n        /* \"@openzeppelin/contracts/utils/cryptography/Hashes.sol\":641:666  _efficientKeccak256(b, a) */\n      tag_175\n        /* \"@openzeppelin/contracts/utils/cryptography/Hashes.sol\":661:662  b */\n      dup3\n        /* \"@openzeppelin/contracts/utils/cryptography/Hashes.sol\":664:665  a */\n      dup5\n        /* \"@openzeppelin/contracts/utils/cryptography/Hashes.sol\":641:660  _efficientKeccak256 */\n      tag_176\n        /* \"@openzeppelin/contracts/utils/cryptography/Hashes.sol\":641:666  _efficientKeccak256(b, a) */\n      jump\t// in\n    tag_175:\n        /* \"@openzeppelin/contracts/utils/cryptography/Hashes.sol\":605:666  a < b ? _efficientKeccak256(a, b) : _efficientKeccak256(b, a) */\n      jump(tag_177)\n    tag_174:\n        /* \"@openzeppelin/contracts/utils/cryptography/Hashes.sol\":613:638  _efficientKeccak256(a, b) */\n      tag_178\n        /* \"@openzeppelin/contracts/utils/cryptography/Hashes.sol\":633:634  a */\n      dup4\n        /* \"@openzeppelin/contracts/utils/cryptography/Hashes.sol\":636:637  b */\n      dup4\n        /* \"@openzeppelin/contracts/utils/cryptography/Hashes.sol\":613:632  _efficientKeccak256 */\n      tag_176\n        /* \"@openzeppelin/contracts/utils/cryptography/Hashes.sol\":613:638  _efficientKeccak256(a, b) */\n      jump\t// in\n    tag_178:\n        /* \"@openzeppelin/contracts/utils/cryptography/Hashes.sol\":605:666  a < b ? _efficientKeccak256(a, b) : _efficientKeccak256(b, a) */\n    tag_177:\n        /* \"@openzeppelin/contracts/utils/cryptography/Hashes.sol\":598:666  return a < b ? _efficientKeccak256(a, b) : _efficientKeccak256(b, a) */\n      swap1\n      pop\n        /* \"@openzeppelin/contracts/utils/cryptography/Hashes.sol\":504:673  function commutativeKeccak256(bytes32 a, bytes32 b) internal pure returns (bytes32) {... */\n      swap3\n      swap2\n      pop\n      pop\n      jump\t// out\n        /* \"@openzeppelin/contracts/utils/cryptography/Hashes.sol\":793:1032  function _efficientKeccak256(bytes32 a, bytes32 b) private pure returns (bytes32 value) {... */\n    tag_176:\n        /* \"@openzeppelin/contracts/utils/cryptography/Hashes.sol\":866:879  bytes32 value */\n      0x00\n        /* \"@openzeppelin/contracts/utils/cryptography/Hashes.sol\":943:944  a */\n      dup3\n        /* \"@openzeppelin/contracts/utils/cryptography/Hashes.sol\":937:941  0x00 */\n      0x00\n        /* \"@openzeppelin/contracts/utils/cryptography/Hashes.sol\":930:945  mstore(0x00, a) */\n      mstore\n        /* \"@openzeppelin/contracts/utils/cryptography/Hashes.sol\":971:972  b */\n      dup2\n        /* \"@openzeppelin/contracts/utils/cryptography/Hashes.sol\":965:969  0x20 */\n      0x20\n        /* \"@openzeppelin/contracts/utils/cryptography/Hashes.sol\":958:973  mstore(0x20, b) */\n      mstore\n        /* \"@openzeppelin/contracts/utils/cryptography/Hashes.sol\":1011:1015  0x40 */\n      0x40\n        /* \"@openzeppelin/contracts/utils/cryptography/Hashes.sol\":1005:1009  0x00 */\n      0x00\n        /* \"@openzeppelin/contracts/utils/cryptography/Hashes.sol\":995:1016  keccak256(0x00, 0x40) */\n      keccak256\n        /* \"@openzeppelin/contracts/utils/cryptography/Hashes.sol\":986:1016  value := keccak256(0x00, 0x40) */\n      swap1\n      pop\n        /* \"@openzeppelin/contracts/utils/cryptography/Hashes.sol\":793:1032  function _efficientKeccak256(bytes32 a, bytes32 b) private pure returns (bytes32 value) {... */\n      swap3\n      swap2\n      pop\n      pop\n      jump\t// out\n    tag_106:\n      pop\n      dup1\n      sload\n      0x00\n      dup3\n      sstore\n      swap1\n      0x00\n      mstore\n      keccak256(0x00, 0x20)\n      swap1\n      dup2\n      add\n      swap1\n      tag_181\n      swap2\n      swap1\n      tag_182\n      jump\t// in\n    tag_181:\n      pop\n      jump\t// out\n    tag_182:\n    tag_183:\n      dup1\n      dup3\n      gt\n      iszero\n      tag_184\n      jumpi\n      0x00\n      dup2\n      0x00\n      swap1\n      sstore\n      pop\n      0x01\n      add\n      jump(tag_183)\n    tag_184:\n      pop\n      swap1\n      jump\t// out\n        /* \"#utility.yul\":88:205   */\n    tag_186:\n        /* \"#utility.yul\":197:198   */\n      0x00\n        /* \"#utility.yul\":194:195   */\n      dup1\n        /* \"#utility.yul\":187:199   */\n      revert\n        /* \"#utility.yul\":211:328   */\n    tag_187:\n        /* \"#utility.yul\":320:321   */\n      0x00\n        /* \"#utility.yul\":317:318   */\n      dup1\n        /* \"#utility.yul\":310:322   */\n      revert\n        /* \"#utility.yul\":334:411   */\n    tag_188:\n        /* \"#utility.yul\":371:378   */\n      0x00\n        /* \"#utility.yul\":400:405   */\n      dup2\n        /* \"#utility.yul\":389:405   */\n      swap1\n      pop\n        /* \"#utility.yul\":334:411   */\n      swap2\n      swap1\n      pop\n      jump\t// out\n        /* \"#utility.yul\":417:539   */\n    tag_189:\n        /* \"#utility.yul\":490:514   */\n      tag_238\n        /* \"#utility.yul\":508:513   */\n      dup2\n        /* \"#utility.yul\":490:514   */\n      tag_188\n      jump\t// in\n    tag_238:\n        /* \"#utility.yul\":483:488   */\n      dup2\n        /* \"#utility.yul\":480:515   */\n      eq\n        /* \"#utility.yul\":470:533   */\n      tag_239\n      jumpi\n        /* \"#utility.yul\":529:530   */\n      0x00\n        /* \"#utility.yul\":526:527   */\n      dup1\n        /* \"#utility.yul\":519:531   */\n      revert\n        /* \"#utility.yul\":470:533   */\n    tag_239:\n        /* \"#utility.yul\":417:539   */\n      pop\n      jump\t// out\n        /* \"#utility.yul\":545:684   */\n    tag_190:\n        /* \"#utility.yul\":591:596   */\n      0x00\n        /* \"#utility.yul\":629:635   */\n      dup2\n        /* \"#utility.yul\":616:636   */\n      calldataload\n        /* \"#utility.yul\":607:636   */\n      swap1\n      pop\n        /* \"#utility.yul\":645:678   */\n      tag_241\n        /* \"#utility.yul\":672:677   */\n      dup2\n        /* \"#utility.yul\":645:678   */\n      tag_189\n      jump\t// in\n    tag_241:\n        /* \"#utility.yul\":545:684   */\n      swap3\n      swap2\n      pop\n      pop\n      jump\t// out\n        /* \"#utility.yul\":690:1019   */\n    tag_23:\n        /* \"#utility.yul\":749:755   */\n      0x00\n        /* \"#utility.yul\":798:800   */\n      0x20\n        /* \"#utility.yul\":786:795   */\n      dup3\n        /* \"#utility.yul\":777:784   */\n      dup5\n        /* \"#utility.yul\":773:796   */\n      sub\n        /* \"#utility.yul\":769:801   */\n      slt\n        /* \"#utility.yul\":766:885   */\n      iszero\n      tag_243\n      jumpi\n        /* \"#utility.yul\":804:883   */\n      tag_244\n      tag_186\n      jump\t// in\n    tag_244:\n        /* \"#utility.yul\":766:885   */\n    tag_243:\n        /* \"#utility.yul\":924:925   */\n      0x00\n        /* \"#utility.yul\":949:1002   */\n      tag_245\n        /* \"#utility.yul\":994:1001   */\n      dup5\n        /* \"#utility.yul\":985:991   */\n      dup3\n        /* \"#utility.yul\":974:983   */\n      dup6\n        /* \"#utility.yul\":970:992   */\n      add\n        /* \"#utility.yul\":949:1002   */\n      tag_190\n      jump\t// in\n    tag_245:\n        /* \"#utility.yul\":939:1002   */\n      swap2\n      pop\n        /* \"#utility.yul\":895:1012   */\n      pop\n        /* \"#utility.yul\":690:1019   */\n      swap3\n      swap2\n      pop\n      pop\n      jump\t// out\n        /* \"#utility.yul\":1025:1151   */\n    tag_191:\n        /* \"#utility.yul\":1062:1069   */\n      0x00\n        /* \"#utility.yul\":1102:1144   */\n      0xffffffffffffffffffffffffffffffffffffffff\n        /* \"#utility.yul\":1095:1100   */\n      dup3\n        /* \"#utility.yul\":1091:1145   */\n      and\n        /* \"#utility.yul\":1080:1145   */\n      swap1\n      pop\n        /* \"#utility.yul\":1025:1151   */\n      swap2\n      swap1\n      pop\n      jump\t// out\n        /* \"#utility.yul\":1157:1253   */\n    tag_192:\n        /* \"#utility.yul\":1194:1201   */\n      0x00\n        /* \"#utility.yul\":1223:1247   */\n      tag_248\n        /* \"#utility.yul\":1241:1246   */\n      dup3\n        /* \"#utility.yul\":1223:1247   */\n      tag_191\n      jump\t// in\n    tag_248:\n        /* \"#utility.yul\":1212:1247   */\n      swap1\n      pop\n        /* \"#utility.yul\":1157:1253   */\n      swap2\n      swap1\n      pop\n      jump\t// out\n        /* \"#utility.yul\":1259:1377   */\n    tag_193:\n        /* \"#utility.yul\":1346:1370   */\n      tag_250\n        /* \"#utility.yul\":1364:1369   */\n      dup2\n        /* \"#utility.yul\":1346:1370   */\n      tag_192\n      jump\t// in\n    tag_250:\n        /* \"#utility.yul\":1341:1344   */\n      dup3\n        /* \"#utility.yul\":1334:1371   */\n      mstore\n        /* \"#utility.yul\":1259:1377   */\n      pop\n      pop\n      jump\t// out\n        /* \"#utility.yul\":1383:1605   */\n    tag_26:\n        /* \"#utility.yul\":1476:1480   */\n      0x00\n        /* \"#utility.yul\":1514:1516   */\n      0x20\n        /* \"#utility.yul\":1503:1512   */\n      dup3\n        /* \"#utility.yul\":1499:1517   */\n      add\n        /* \"#utility.yul\":1491:1517   */\n      swap1\n      pop\n        /* \"#utility.yul\":1527:1598   */\n      tag_252\n        /* \"#utility.yul\":1595:1596   */\n      0x00\n        /* \"#utility.yul\":1584:1593   */\n      dup4\n        /* \"#utility.yul\":1580:1597   */\n      add\n        /* \"#utility.yul\":1571:1577   */\n      dup5\n        /* \"#utility.yul\":1527:1598   */\n      tag_193\n      jump\t// in\n    tag_252:\n        /* \"#utility.yul\":1383:1605   */\n      swap3\n      swap2\n      pop\n      pop\n      jump\t// out\n        /* \"#utility.yul\":1611:1733   */\n    tag_194:\n        /* \"#utility.yul\":1684:1708   */\n      tag_254\n        /* \"#utility.yul\":1702:1707   */\n      dup2\n        /* \"#utility.yul\":1684:1708   */\n      tag_192\n      jump\t// in\n    tag_254:\n        /* \"#utility.yul\":1677:1682   */\n      dup2\n        /* \"#utility.yul\":1674:1709   */\n      eq\n        /* \"#utility.yul\":1664:1727   */\n      tag_255\n      jumpi\n        /* \"#utility.yul\":1723:1724   */\n      0x00\n        /* \"#utility.yul\":1720:1721   */\n      dup1\n        /* \"#utility.yul\":1713:1725   */\n      revert\n        /* \"#utility.yul\":1664:1727   */\n    tag_255:\n        /* \"#utility.yul\":1611:1733   */\n      pop\n      jump\t// out\n        /* \"#utility.yul\":1739:1878   */\n    tag_195:\n        /* \"#utility.yul\":1785:1790   */\n      0x00\n        /* \"#utility.yul\":1823:1829   */\n      dup2\n        /* \"#utility.yul\":1810:1830   */\n      calldataload\n        /* \"#utility.yul\":1801:1830   */\n      swap1\n      pop\n        /* \"#utility.yul\":1839:1872   */\n      tag_257\n        /* \"#utility.yul\":1866:1871   */\n      dup2\n        /* \"#utility.yul\":1839:1872   */\n      tag_194\n      jump\t// in\n    tag_257:\n        /* \"#utility.yul\":1739:1878   */\n      swap3\n      swap2\n      pop\n      pop\n      jump\t// out\n        /* \"#utility.yul\":1884:2213   */\n    tag_29:\n        /* \"#utility.yul\":1943:1949   */\n      0x00\n        /* \"#utility.yul\":1992:1994   */\n      0x20\n        /* \"#utility.yul\":1980:1989   */\n      dup3\n        /* \"#utility.yul\":1971:1978   */\n      dup5\n        /* \"#utility.yul\":1967:1990   */\n      sub\n        /* \"#utility.yul\":1963:1995   */\n      slt\n        /* \"#utility.yul\":1960:2079   */\n      iszero\n      tag_259\n      jumpi\n        /* \"#utility.yul\":1998:2077   */\n      tag_260\n      tag_186\n      jump\t// in\n    tag_260:\n        /* \"#utility.yul\":1960:2079   */\n    tag_259:\n        /* \"#utility.yul\":2118:2119   */\n      0x00\n        /* \"#utility.yul\":2143:2196   */\n      tag_261\n        /* \"#utility.yul\":2188:2195   */\n      dup5\n        /* \"#utility.yul\":2179:2185   */\n      dup3\n        /* \"#utility.yul\":2168:2177   */\n      dup6\n        /* \"#utility.yul\":2164:2186   */\n      add\n        /* \"#utility.yul\":2143:2196   */\n      tag_195\n      jump\t// in\n    tag_261:\n        /* \"#utility.yul\":2133:2196   */\n      swap2\n      pop\n        /* \"#utility.yul\":2089:2206   */\n      pop\n        /* \"#utility.yul\":1884:2213   */\n      swap3\n      swap2\n      pop\n      pop\n      jump\t// out\n        /* \"#utility.yul\":2219:2296   */\n    tag_196:\n        /* \"#utility.yul\":2256:2263   */\n      0x00\n        /* \"#utility.yul\":2285:2290   */\n      dup2\n        /* \"#utility.yul\":2274:2290   */\n      swap1\n      pop\n        /* \"#utility.yul\":2219:2296   */\n      swap2\n      swap1\n      pop\n      jump\t// out\n        /* \"#utility.yul\":2302:2420   */\n    tag_197:\n        /* \"#utility.yul\":2389:2413   */\n      tag_264\n        /* \"#utility.yul\":2407:2412   */\n      dup2\n        /* \"#utility.yul\":2389:2413   */\n      tag_196\n      jump\t// in\n    tag_264:\n        /* \"#utility.yul\":2384:2387   */\n      dup3\n        /* \"#utility.yul\":2377:2414   */\n      mstore\n        /* \"#utility.yul\":2302:2420   */\n      pop\n      pop\n      jump\t// out\n        /* \"#utility.yul\":2426:2648   */\n    tag_34:\n        /* \"#utility.yul\":2519:2523   */\n      0x00\n        /* \"#utility.yul\":2557:2559   */\n      0x20\n        /* \"#utility.yul\":2546:2555   */\n      dup3\n        /* \"#utility.yul\":2542:2560   */\n      add\n        /* \"#utility.yul\":2534:2560   */\n      swap1\n      pop\n        /* \"#utility.yul\":2570:2641   */\n      tag_266\n        /* \"#utility.yul\":2638:2639   */\n      0x00\n        /* \"#utility.yul\":2627:2636   */\n      dup4\n        /* \"#utility.yul\":2623:2640   */\n      add\n        /* \"#utility.yul\":2614:2620   */\n      dup5\n        /* \"#utility.yul\":2570:2641   */\n      tag_197\n      jump\t// in\n    tag_266:\n        /* \"#utility.yul\":2426:2648   */\n      swap3\n      swap2\n      pop\n      pop\n      jump\t// out\n        /* \"#utility.yul\":2654:2744   */\n    tag_198:\n        /* \"#utility.yul\":2688:2695   */\n      0x00\n        /* \"#utility.yul\":2731:2736   */\n      dup2\n        /* \"#utility.yul\":2724:2737   */\n      iszero\n        /* \"#utility.yul\":2717:2738   */\n      iszero\n        /* \"#utility.yul\":2706:2738   */\n      swap1\n      pop\n        /* \"#utility.yul\":2654:2744   */\n      swap2\n      swap1\n      pop\n      jump\t// out\n        /* \"#utility.yul\":2750:2859   */\n    tag_199:\n        /* \"#utility.yul\":2831:2852   */\n      tag_269\n        /* \"#utility.yul\":2846:2851   */\n      dup2\n        /* \"#utility.yul\":2831:2852   */\n      tag_198\n      jump\t// in\n    tag_269:\n        /* \"#utility.yul\":2826:2829   */\n      dup3\n        /* \"#utility.yul\":2819:2853   */\n      mstore\n        /* \"#utility.yul\":2750:2859   */\n      pop\n      pop\n      jump\t// out\n        /* \"#utility.yul\":2865:3075   */\n    tag_39:\n        /* \"#utility.yul\":2952:2956   */\n      0x00\n        /* \"#utility.yul\":2990:2992   */\n      0x20\n        /* \"#utility.yul\":2979:2988   */\n      dup3\n        /* \"#utility.yul\":2975:2993   */\n      add\n        /* \"#utility.yul\":2967:2993   */\n      swap1\n      pop\n        /* \"#utility.yul\":3003:3068   */\n      tag_271\n        /* \"#utility.yul\":3065:3066   */\n      0x00\n        /* \"#utility.yul\":3054:3063   */\n      dup4\n        /* \"#utility.yul\":3050:3067   */\n      add\n        /* \"#utility.yul\":3041:3047   */\n      dup5\n        /* \"#utility.yul\":3003:3068   */\n      tag_199\n      jump\t// in\n    tag_271:\n        /* \"#utility.yul\":2865:3075   */\n      swap3\n      swap2\n      pop\n      pop\n      jump\t// out\n        /* \"#utility.yul\":3081:3203   */\n    tag_200:\n        /* \"#utility.yul\":3154:3178   */\n      tag_273\n        /* \"#utility.yul\":3172:3177   */\n      dup2\n        /* \"#utility.yul\":3154:3178   */\n      tag_196\n      jump\t// in\n    tag_273:\n        /* \"#utility.yul\":3147:3152   */\n      dup2\n        /* \"#utility.yul\":3144:3179   */\n      eq\n        /* \"#utility.yul\":3134:3197   */\n      tag_274\n      jumpi\n        /* \"#utility.yul\":3193:3194   */\n      0x00\n        /* \"#utility.yul\":3190:3191   */\n      dup1\n        /* \"#utility.yul\":3183:3195   */\n      revert\n        /* \"#utility.yul\":3134:3197   */\n    tag_274:\n        /* \"#utility.yul\":3081:3203   */\n      pop\n      jump\t// out\n        /* \"#utility.yul\":3209:3348   */\n    tag_201:\n        /* \"#utility.yul\":3255:3260   */\n      0x00\n        /* \"#utility.yul\":3293:3299   */\n      dup2\n        /* \"#utility.yul\":3280:3300   */\n      calldataload\n        /* \"#utility.yul\":3271:3300   */\n      swap1\n      pop\n        /* \"#utility.yul\":3309:3342   */\n      tag_276\n        /* \"#utility.yul\":3336:3341   */\n      dup2\n        /* \"#utility.yul\":3309:3342   */\n      tag_200\n      jump\t// in\n    tag_276:\n        /* \"#utility.yul\":3209:3348   */\n      swap3\n      swap2\n      pop\n      pop\n      jump\t// out\n        /* \"#utility.yul\":3354:3683   */\n    tag_42:\n        /* \"#utility.yul\":3413:3419   */\n      0x00\n        /* \"#utility.yul\":3462:3464   */\n      0x20\n        /* \"#utility.yul\":3450:3459   */\n      dup3\n        /* \"#utility.yul\":3441:3448   */\n      dup5\n        /* \"#utility.yul\":3437:3460   */\n      sub\n        /* \"#utility.yul\":3433:3465   */\n      slt\n        /* \"#utility.yul\":3430:3549   */\n      iszero\n      tag_278\n      jumpi\n        /* \"#utility.yul\":3468:3547   */\n      tag_279\n      tag_186\n      jump\t// in\n    tag_279:\n        /* \"#utility.yul\":3430:3549   */\n    tag_278:\n        /* \"#utility.yul\":3588:3589   */\n      0x00\n        /* \"#utility.yul\":3613:3666   */\n      tag_280\n        /* \"#utility.yul\":3658:3665   */\n      dup5\n        /* \"#utility.yul\":3649:3655   */\n      dup3\n        /* \"#utility.yul\":3638:3647   */\n      dup6\n        /* \"#utility.yul\":3634:3656   */\n      add\n        /* \"#utility.yul\":3613:3666   */\n      tag_201\n      jump\t// in\n    tag_280:\n        /* \"#utility.yul\":3603:3666   */\n      swap2\n      pop\n        /* \"#utility.yul\":3559:3676   */\n      pop\n        /* \"#utility.yul\":3354:3683   */\n      swap3\n      swap2\n      pop\n      pop\n      jump\t// out\n        /* \"#utility.yul\":3689:3807   */\n    tag_202:\n        /* \"#utility.yul\":3776:3800   */\n      tag_282\n        /* \"#utility.yul\":3794:3799   */\n      dup2\n        /* \"#utility.yul\":3776:3800   */\n      tag_188\n      jump\t// in\n    tag_282:\n        /* \"#utility.yul\":3771:3774   */\n      dup3\n        /* \"#utility.yul\":3764:3801   */\n      mstore\n        /* \"#utility.yul\":3689:3807   */\n      pop\n      pop\n      jump\t// out\n        /* \"#utility.yul\":3813:4035   */\n    tag_47:\n        /* \"#utility.yul\":3906:3910   */\n      0x00\n        /* \"#utility.yul\":3944:3946   */\n      0x20\n        /* \"#utility.yul\":3933:3942   */\n      dup3\n        /* \"#utility.yul\":3929:3947   */\n      add\n        /* \"#utility.yul\":3921:3947   */\n      swap1\n      pop\n        /* \"#utility.yul\":3957:4028   */\n      tag_284\n        /* \"#utility.yul\":4025:4026   */\n      0x00\n        /* \"#utility.yul\":4014:4023   */\n      dup4\n        /* \"#utility.yul\":4010:4027   */\n      add\n        /* \"#utility.yul\":4001:4007   */\n      dup5\n        /* \"#utility.yul\":3957:4028   */\n      tag_202\n      jump\t// in\n    tag_284:\n        /* \"#utility.yul\":3813:4035   */\n      swap3\n      swap2\n      pop\n      pop\n      jump\t// out\n        /* \"#utility.yul\":4041:4155   */\n    tag_203:\n        /* \"#utility.yul\":4108:4114   */\n      0x00\n        /* \"#utility.yul\":4142:4147   */\n      dup2\n        /* \"#utility.yul\":4136:4148   */\n      mload\n        /* \"#utility.yul\":4126:4148   */\n      swap1\n      pop\n        /* \"#utility.yul\":4041:4155   */\n      swap2\n      swap1\n      pop\n      jump\t// out\n        /* \"#utility.yul\":4161:4345   */\n    tag_204:\n        /* \"#utility.yul\":4260:4271   */\n      0x00\n        /* \"#utility.yul\":4294:4300   */\n      dup3\n        /* \"#utility.yul\":4289:4292   */\n      dup3\n        /* \"#utility.yul\":4282:4301   */\n      mstore\n        /* \"#utility.yul\":4334:4338   */\n      0x20\n        /* \"#utility.yul\":4329:4332   */\n      dup3\n        /* \"#utility.yul\":4325:4339   */\n      add\n        /* \"#utility.yul\":4310:4339   */\n      swap1\n      pop\n        /* \"#utility.yul\":4161:4345   */\n      swap3\n      swap2\n      pop\n      pop\n      jump\t// out\n        /* \"#utility.yul\":4351:4483   */\n    tag_205:\n        /* \"#utility.yul\":4418:4422   */\n      0x00\n        /* \"#utility.yul\":4441:4444   */\n      dup2\n        /* \"#utility.yul\":4433:4444   */\n      swap1\n      pop\n        /* \"#utility.yul\":4471:4475   */\n      0x20\n        /* \"#utility.yul\":4466:4469   */\n      dup3\n        /* \"#utility.yul\":4462:4476   */\n      add\n        /* \"#utility.yul\":4454:4476   */\n      swap1\n      pop\n        /* \"#utility.yul\":4351:4483   */\n      swap2\n      swap1\n      pop\n      jump\t// out\n        /* \"#utility.yul\":4489:4597   */\n    tag_206:\n        /* \"#utility.yul\":4566:4590   */\n      tag_289\n        /* \"#utility.yul\":4584:4589   */\n      dup2\n        /* \"#utility.yul\":4566:4590   */\n      tag_192\n      jump\t// in\n    tag_289:\n        /* \"#utility.yul\":4561:4564   */\n      dup3\n        /* \"#utility.yul\":4554:4591   */\n      mstore\n        /* \"#utility.yul\":4489:4597   */\n      pop\n      pop\n      jump\t// out\n        /* \"#utility.yul\":4603:4782   */\n    tag_207:\n        /* \"#utility.yul\":4672:4682   */\n      0x00\n        /* \"#utility.yul\":4693:4739   */\n      tag_291\n        /* \"#utility.yul\":4735:4738   */\n      dup4\n        /* \"#utility.yul\":4727:4733   */\n      dup4\n        /* \"#utility.yul\":4693:4739   */\n      tag_206\n      jump\t// in\n    tag_291:\n        /* \"#utility.yul\":4771:4775   */\n      0x20\n        /* \"#utility.yul\":4766:4769   */\n      dup4\n        /* \"#utility.yul\":4762:4776   */\n      add\n        /* \"#utility.yul\":4748:4776   */\n      swap1\n      pop\n        /* \"#utility.yul\":4603:4782   */\n      swap3\n      swap2\n      pop\n      pop\n      jump\t// out\n        /* \"#utility.yul\":4788:4901   */\n    tag_208:\n        /* \"#utility.yul\":4858:4862   */\n      0x00\n        /* \"#utility.yul\":4890:4894   */\n      0x20\n        /* \"#utility.yul\":4885:4888   */\n      dup3\n        /* \"#utility.yul\":4881:4895   */\n      add\n        /* \"#utility.yul\":4873:4895   */\n      swap1\n      pop\n        /* \"#utility.yul\":4788:4901   */\n      swap2\n      swap1\n      pop\n      jump\t// out\n        /* \"#utility.yul\":4937:5669   */\n    tag_209:\n        /* \"#utility.yul\":5056:5059   */\n      0x00\n        /* \"#utility.yul\":5085:5139   */\n      tag_294\n        /* \"#utility.yul\":5133:5138   */\n      dup3\n        /* \"#utility.yul\":5085:5139   */\n      tag_203\n      jump\t// in\n    tag_294:\n        /* \"#utility.yul\":5155:5241   */\n      tag_295\n        /* \"#utility.yul\":5234:5240   */\n      dup2\n        /* \"#utility.yul\":5229:5232   */\n      dup6\n        /* \"#utility.yul\":5155:5241   */\n      tag_204\n      jump\t// in\n    tag_295:\n        /* \"#utility.yul\":5148:5241   */\n      swap4\n      pop\n        /* \"#utility.yul\":5265:5321   */\n      tag_296\n        /* \"#utility.yul\":5315:5320   */\n      dup4\n        /* \"#utility.yul\":5265:5321   */\n      tag_205\n      jump\t// in\n    tag_296:\n        /* \"#utility.yul\":5344:5351   */\n      dup1\n        /* \"#utility.yul\":5375:5376   */\n      0x00\n        /* \"#utility.yul\":5360:5644   */\n    tag_297:\n        /* \"#utility.yul\":5385:5391   */\n      dup4\n        /* \"#utility.yul\":5382:5383   */\n      dup2\n        /* \"#utility.yul\":5379:5392   */\n      lt\n        /* \"#utility.yul\":5360:5644   */\n      iszero\n      tag_299\n      jumpi\n        /* \"#utility.yul\":5461:5467   */\n      dup2\n        /* \"#utility.yul\":5455:5468   */\n      mload\n        /* \"#utility.yul\":5488:5551   */\n      tag_300\n        /* \"#utility.yul\":5547:5550   */\n      dup9\n        /* \"#utility.yul\":5532:5545   */\n      dup3\n        /* \"#utility.yul\":5488:5551   */\n      tag_207\n      jump\t// in\n    tag_300:\n        /* \"#utility.yul\":5481:5551   */\n      swap8\n      pop\n        /* \"#utility.yul\":5574:5634   */\n      tag_301\n        /* \"#utility.yul\":5627:5633   */\n      dup4\n        /* \"#utility.yul\":5574:5634   */\n      tag_208\n      jump\t// in\n    tag_301:\n        /* \"#utility.yul\":5564:5634   */\n      swap3\n      pop\n        /* \"#utility.yul\":5420:5644   */\n      pop\n        /* \"#utility.yul\":5407:5408   */\n      0x01\n        /* \"#utility.yul\":5404:5405   */\n      dup2\n        /* \"#utility.yul\":5400:5409   */\n      add\n        /* \"#utility.yul\":5395:5409   */\n      swap1\n      pop\n        /* \"#utility.yul\":5360:5644   */\n      jump(tag_297)\n    tag_299:\n        /* \"#utility.yul\":5364:5378   */\n      pop\n        /* \"#utility.yul\":5660:5663   */\n      dup6\n        /* \"#utility.yul\":5653:5663   */\n      swap4\n      pop\n        /* \"#utility.yul\":5061:5669   */\n      pop\n      pop\n      pop\n        /* \"#utility.yul\":4937:5669   */\n      swap3\n      swap2\n      pop\n      pop\n      jump\t// out\n        /* \"#utility.yul\":5675:6048   */\n    tag_51:\n        /* \"#utility.yul\":5818:5822   */\n      0x00\n        /* \"#utility.yul\":5856:5858   */\n      0x20\n        /* \"#utility.yul\":5845:5854   */\n      dup3\n        /* \"#utility.yul\":5841:5859   */\n      add\n        /* \"#utility.yul\":5833:5859   */\n      swap1\n      pop\n        /* \"#utility.yul\":5905:5914   */\n      dup2\n        /* \"#utility.yul\":5899:5903   */\n      dup2\n        /* \"#utility.yul\":5895:5915   */\n      sub\n        /* \"#utility.yul\":5891:5892   */\n      0x00\n        /* \"#utility.yul\":5880:5889   */\n      dup4\n        /* \"#utility.yul\":5876:5893   */\n      add\n        /* \"#utility.yul\":5869:5916   */\n      mstore\n        /* \"#utility.yul\":5933:6041   */\n      tag_303\n        /* \"#utility.yul\":6036:6040   */\n      dup2\n        /* \"#utility.yul\":6027:6033   */\n      dup5\n        /* \"#utility.yul\":5933:6041   */\n      tag_209\n      jump\t// in\n    tag_303:\n        /* \"#utility.yul\":5925:6041   */\n      swap1\n      pop\n        /* \"#utility.yul\":5675:6048   */\n      swap3\n      swap2\n      pop\n      pop\n      jump\t// out\n        /* \"#utility.yul\":6054:6171   */\n    tag_210:\n        /* \"#utility.yul\":6163:6164   */\n      0x00\n        /* \"#utility.yul\":6160:6161   */\n      dup1\n        /* \"#utility.yul\":6153:6165   */\n      revert\n        /* \"#utility.yul\":6177:6294   */\n    tag_211:\n        /* \"#utility.yul\":6286:6287   */\n      0x00\n        /* \"#utility.yul\":6283:6284   */\n      dup1\n        /* \"#utility.yul\":6276:6288   */\n      revert\n        /* \"#utility.yul\":6300:6417   */\n    tag_212:\n        /* \"#utility.yul\":6409:6410   */\n      0x00\n        /* \"#utility.yul\":6406:6407   */\n      dup1\n        /* \"#utility.yul\":6399:6411   */\n      revert\n        /* \"#utility.yul\":6440:7008   */\n    tag_213:\n        /* \"#utility.yul\":6513:6521   */\n      0x00\n        /* \"#utility.yul\":6523:6529   */\n      dup1\n        /* \"#utility.yul\":6573:6576   */\n      dup4\n        /* \"#utility.yul\":6566:6570   */\n      0x1f\n        /* \"#utility.yul\":6558:6564   */\n      dup5\n        /* \"#utility.yul\":6554:6571   */\n      add\n        /* \"#utility.yul\":6550:6577   */\n      slt\n        /* \"#utility.yul\":6540:6662   */\n      tag_308\n      jumpi\n        /* \"#utility.yul\":6581:6660   */\n      tag_309\n      tag_210\n      jump\t// in\n    tag_309:\n        /* \"#utility.yul\":6540:6662   */\n    tag_308:\n        /* \"#utility.yul\":6694:6700   */\n      dup3\n        /* \"#utility.yul\":6681:6701   */\n      calldataload\n        /* \"#utility.yul\":6671:6701   */\n      swap1\n      pop\n        /* \"#utility.yul\":6724:6742   */\n      0xffffffffffffffff\n        /* \"#utility.yul\":6716:6722   */\n      dup2\n        /* \"#utility.yul\":6713:6743   */\n      gt\n        /* \"#utility.yul\":6710:6827   */\n      iszero\n      tag_310\n      jumpi\n        /* \"#utility.yul\":6746:6825   */\n      tag_311\n      tag_211\n      jump\t// in\n    tag_311:\n        /* \"#utility.yul\":6710:6827   */\n    tag_310:\n        /* \"#utility.yul\":6860:6864   */\n      0x20\n        /* \"#utility.yul\":6852:6858   */\n      dup4\n        /* \"#utility.yul\":6848:6865   */\n      add\n        /* \"#utility.yul\":6836:6865   */\n      swap2\n      pop\n        /* \"#utility.yul\":6914:6917   */\n      dup4\n        /* \"#utility.yul\":6906:6910   */\n      0x20\n        /* \"#utility.yul\":6898:6904   */\n      dup3\n        /* \"#utility.yul\":6894:6911   */\n      mul\n        /* \"#utility.yul\":6884:6892   */\n      dup4\n        /* \"#utility.yul\":6880:6912   */\n      add\n        /* \"#utility.yul\":6877:6918   */\n      gt\n        /* \"#utility.yul\":6874:7002   */\n      iszero\n      tag_312\n      jumpi\n        /* \"#utility.yul\":6921:7000   */\n      tag_313\n      tag_212\n      jump\t// in\n    tag_313:\n        /* \"#utility.yul\":6874:7002   */\n    tag_312:\n        /* \"#utility.yul\":6440:7008   */\n      swap3\n      pop\n      swap3\n      swap1\n      pop\n      jump\t// out\n        /* \"#utility.yul\":7014:7573   */\n    tag_60:\n        /* \"#utility.yul\":7100:7106   */\n      0x00\n        /* \"#utility.yul\":7108:7114   */\n      dup1\n        /* \"#utility.yul\":7157:7159   */\n      0x20\n        /* \"#utility.yul\":7145:7154   */\n      dup4\n        /* \"#utility.yul\":7136:7143   */\n      dup6\n        /* \"#utility.yul\":7132:7155   */\n      sub\n        /* \"#utility.yul\":7128:7160   */\n      slt\n        /* \"#utility.yul\":7125:7244   */\n      iszero\n      tag_315\n      jumpi\n        /* \"#utility.yul\":7163:7242   */\n      tag_316\n      tag_186\n      jump\t// in\n    tag_316:\n        /* \"#utility.yul\":7125:7244   */\n    tag_315:\n        /* \"#utility.yul\":7311:7312   */\n      0x00\n        /* \"#utility.yul\":7300:7309   */\n      dup4\n        /* \"#utility.yul\":7296:7313   */\n      add\n        /* \"#utility.yul\":7283:7314   */\n      calldataload\n        /* \"#utility.yul\":7341:7359   */\n      0xffffffffffffffff\n        /* \"#utility.yul\":7333:7339   */\n      dup2\n        /* \"#utility.yul\":7330:7360   */\n      gt\n        /* \"#utility.yul\":7327:7444   */\n      iszero\n      tag_317\n      jumpi\n        /* \"#utility.yul\":7363:7442   */\n      tag_318\n      tag_187\n      jump\t// in\n    tag_318:\n        /* \"#utility.yul\":7327:7444   */\n    tag_317:\n        /* \"#utility.yul\":7476:7556   */\n      tag_319\n        /* \"#utility.yul\":7548:7555   */\n      dup6\n        /* \"#utility.yul\":7539:7545   */\n      dup3\n        /* \"#utility.yul\":7528:7537   */\n      dup7\n        /* \"#utility.yul\":7524:7546   */\n      add\n        /* \"#utility.yul\":7476:7556   */\n      tag_213\n      jump\t// in\n    tag_319:\n        /* \"#utility.yul\":7458:7556   */\n      swap3\n      pop\n      swap3\n      pop\n        /* \"#utility.yul\":7254:7566   */\n      pop\n        /* \"#utility.yul\":7014:7573   */\n      swap3\n      pop\n      swap3\n      swap1\n      pop\n      jump\t// out\n        /* \"#utility.yul\":7579:8283   */\n    tag_75:\n        /* \"#utility.yul\":7674:7680   */\n      0x00\n        /* \"#utility.yul\":7682:7688   */\n      dup1\n        /* \"#utility.yul\":7690:7696   */\n      0x00\n        /* \"#utility.yul\":7739:7741   */\n      0x40\n        /* \"#utility.yul\":7727:7736   */\n      dup5\n        /* \"#utility.yul\":7718:7725   */\n      dup7\n        /* \"#utility.yul\":7714:7737   */\n      sub\n        /* \"#utility.yul\":7710:7742   */\n      slt\n        /* \"#utility.yul\":7707:7826   */\n      iszero\n      tag_321\n      jumpi\n        /* \"#utility.yul\":7745:7824   */\n      tag_322\n      tag_186\n      jump\t// in\n    tag_322:\n        /* \"#utility.yul\":7707:7826   */\n    tag_321:\n        /* \"#utility.yul\":7893:7894   */\n      0x00\n        /* \"#utility.yul\":7882:7891   */\n      dup5\n        /* \"#utility.yul\":7878:7895   */\n      add\n        /* \"#utility.yul\":7865:7896   */\n      calldataload\n        /* \"#utility.yul\":7923:7941   */\n      0xffffffffffffffff\n        /* \"#utility.yul\":7915:7921   */\n      dup2\n        /* \"#utility.yul\":7912:7942   */\n      gt\n        /* \"#utility.yul\":7909:8026   */\n      iszero\n      tag_323\n      jumpi\n        /* \"#utility.yul\":7945:8024   */\n      tag_324\n      tag_187\n      jump\t// in\n    tag_324:\n        /* \"#utility.yul\":7909:8026   */\n    tag_323:\n        /* \"#utility.yul\":8058:8138   */\n      tag_325\n        /* \"#utility.yul\":8130:8137   */\n      dup7\n        /* \"#utility.yul\":8121:8127   */\n      dup3\n        /* \"#utility.yul\":8110:8119   */\n      dup8\n        /* \"#utility.yul\":8106:8128   */\n      add\n        /* \"#utility.yul\":8058:8138   */\n      tag_213\n      jump\t// in\n    tag_325:\n        /* \"#utility.yul\":8040:8138   */\n      swap4\n      pop\n      swap4\n      pop\n        /* \"#utility.yul\":7836:8148   */\n      pop\n        /* \"#utility.yul\":8187:8189   */\n      0x20\n        /* \"#utility.yul\":8213:8266   */\n      tag_326\n        /* \"#utility.yul\":8258:8265   */\n      dup7\n        /* \"#utility.yul\":8249:8255   */\n      dup3\n        /* \"#utility.yul\":8238:8247   */\n      dup8\n        /* \"#utility.yul\":8234:8256   */\n      add\n        /* \"#utility.yul\":8213:8266   */\n      tag_195\n      jump\t// in\n    tag_326:\n        /* \"#utility.yul\":8203:8266   */\n      swap2\n      pop\n        /* \"#utility.yul\":8158:8276   */\n      pop\n        /* \"#utility.yul\":7579:8283   */\n      swap3\n      pop\n      swap3\n      pop\n      swap3\n      jump\t// out\n        /* \"#utility.yul\":8289:8458   */\n    tag_214:\n        /* \"#utility.yul\":8373:8384   */\n      0x00\n        /* \"#utility.yul\":8407:8413   */\n      dup3\n        /* \"#utility.yul\":8402:8405   */\n      dup3\n        /* \"#utility.yul\":8395:8414   */\n      mstore\n        /* \"#utility.yul\":8447:8451   */\n      0x20\n        /* \"#utility.yul\":8442:8445   */\n      dup3\n        /* \"#utility.yul\":8438:8452   */\n      add\n        /* \"#utility.yul\":8423:8452   */\n      swap1\n      pop\n        /* \"#utility.yul\":8289:8458   */\n      swap3\n      swap2\n      pop\n      pop\n      jump\t// out\n        /* \"#utility.yul\":8464:8689   */\n    tag_215:\n        /* \"#utility.yul\":8604:8638   */\n      0x4f6e6c7920746865206f776e65722063616e20706572666f726d207468697320\n        /* \"#utility.yul\":8600:8601   */\n      0x00\n        /* \"#utility.yul\":8592:8598   */\n      dup3\n        /* \"#utility.yul\":8588:8602   */\n      add\n        /* \"#utility.yul\":8581:8639   */\n      mstore\n        /* \"#utility.yul\":8673:8681   */\n      0x616374696f6e0000000000000000000000000000000000000000000000000000\n        /* \"#utility.yul\":8668:8670   */\n      0x20\n        /* \"#utility.yul\":8660:8666   */\n      dup3\n        /* \"#utility.yul\":8656:8671   */\n      add\n        /* \"#utility.yul\":8649:8682   */\n      mstore\n        /* \"#utility.yul\":8464:8689   */\n      pop\n      jump\t// out\n        /* \"#utility.yul\":8695:9061   */\n    tag_216:\n        /* \"#utility.yul\":8837:8840   */\n      0x00\n        /* \"#utility.yul\":8858:8925   */\n      tag_330\n        /* \"#utility.yul\":8922:8924   */\n      0x26\n        /* \"#utility.yul\":8917:8920   */\n      dup4\n        /* \"#utility.yul\":8858:8925   */\n      tag_214\n      jump\t// in\n    tag_330:\n        /* \"#utility.yul\":8851:8925   */\n      swap2\n      pop\n        /* \"#utility.yul\":8934:9027   */\n      tag_331\n        /* \"#utility.yul\":9023:9026   */\n      dup3\n        /* \"#utility.yul\":8934:9027   */\n      tag_215\n      jump\t// in\n    tag_331:\n        /* \"#utility.yul\":9052:9054   */\n      0x40\n        /* \"#utility.yul\":9047:9050   */\n      dup3\n        /* \"#utility.yul\":9043:9055   */\n      add\n        /* \"#utility.yul\":9036:9055   */\n      swap1\n      pop\n        /* \"#utility.yul\":8695:9061   */\n      swap2\n      swap1\n      pop\n      jump\t// out\n        /* \"#utility.yul\":9067:9486   */\n    tag_86:\n        /* \"#utility.yul\":9233:9237   */\n      0x00\n        /* \"#utility.yul\":9271:9273   */\n      0x20\n        /* \"#utility.yul\":9260:9269   */\n      dup3\n        /* \"#utility.yul\":9256:9274   */\n      add\n        /* \"#utility.yul\":9248:9274   */\n      swap1\n      pop\n        /* \"#utility.yul\":9320:9329   */\n      dup2\n        /* \"#utility.yul\":9314:9318   */\n      dup2\n        /* \"#utility.yul\":9310:9330   */\n      sub\n        /* \"#utility.yul\":9306:9307   */\n      0x00\n        /* \"#utility.yul\":9295:9304   */\n      dup4\n        /* \"#utility.yul\":9291:9308   */\n      add\n        /* \"#utility.yul\":9284:9331   */\n      mstore\n        /* \"#utility.yul\":9348:9479   */\n      tag_333\n        /* \"#utility.yul\":9474:9478   */\n      dup2\n        /* \"#utility.yul\":9348:9479   */\n      tag_216\n      jump\t// in\n    tag_333:\n        /* \"#utility.yul\":9340:9479   */\n      swap1\n      pop\n        /* \"#utility.yul\":9067:9486   */\n      swap2\n      swap1\n      pop\n      jump\t// out\n        /* \"#utility.yul\":9492:9665   */\n    tag_217:\n        /* \"#utility.yul\":9632:9657   */\n      0x41646472657373206973206e6f7420616e2061646d696e000000000000000000\n        /* \"#utility.yul\":9628:9629   */\n      0x00\n        /* \"#utility.yul\":9620:9626   */\n      dup3\n        /* \"#utility.yul\":9616:9630   */\n      add\n        /* \"#utility.yul\":9609:9658   */\n      mstore\n        /* \"#utility.yul\":9492:9665   */\n      pop\n      jump\t// out\n        /* \"#utility.yul\":9671:10037   */\n    tag_218:\n        /* \"#utility.yul\":9813:9816   */\n      0x00\n        /* \"#utility.yul\":9834:9901   */\n      tag_336\n        /* \"#utility.yul\":9898:9900   */\n      0x17\n        /* \"#utility.yul\":9893:9896   */\n      dup4\n        /* \"#utility.yul\":9834:9901   */\n      tag_214\n      jump\t// in\n    tag_336:\n        /* \"#utility.yul\":9827:9901   */\n      swap2\n      pop\n        /* \"#utility.yul\":9910:10003   */\n      tag_337\n        /* \"#utility.yul\":9999:10002   */\n      dup3\n        /* \"#utility.yul\":9910:10003   */\n      tag_217\n      jump\t// in\n    tag_337:\n        /* \"#utility.yul\":10028:10030   */\n      0x20\n        /* \"#utility.yul\":10023:10026   */\n      dup3\n        /* \"#utility.yul\":10019:10031   */\n      add\n        /* \"#utility.yul\":10012:10031   */\n      swap1\n      pop\n        /* \"#utility.yul\":9671:10037   */\n      swap2\n      swap1\n      pop\n      jump\t// out\n        /* \"#utility.yul\":10043:10462   */\n    tag_90:\n        /* \"#utility.yul\":10209:10213   */\n      0x00\n        /* \"#utility.yul\":10247:10249   */\n      0x20\n        /* \"#utility.yul\":10236:10245   */\n      dup3\n        /* \"#utility.yul\":10232:10250   */\n      add\n        /* \"#utility.yul\":10224:10250   */\n      swap1\n      pop\n        /* \"#utility.yul\":10296:10305   */\n      dup2\n        /* \"#utility.yul\":10290:10294   */\n      dup2\n        /* \"#utility.yul\":10286:10306   */\n      sub\n        /* \"#utility.yul\":10282:10283   */\n      0x00\n        /* \"#utility.yul\":10271:10280   */\n      dup4\n        /* \"#utility.yul\":10267:10284   */\n      add\n        /* \"#utility.yul\":10260:10307   */\n      mstore\n        /* \"#utility.yul\":10324:10455   */\n      tag_339\n        /* \"#utility.yul\":10450:10454   */\n      dup2\n        /* \"#utility.yul\":10324:10455   */\n      tag_218\n      jump\t// in\n    tag_339:\n        /* \"#utility.yul\":10316:10455   */\n      swap1\n      pop\n        /* \"#utility.yul\":10043:10462   */\n      swap2\n      swap1\n      pop\n      jump\t// out\n        /* \"#utility.yul\":10468:10692   */\n    tag_219:\n        /* \"#utility.yul\":10608:10642   */\n      0x4f6e6c7920616e2061646d696e2063616e20706572666f726d20746869732061\n        /* \"#utility.yul\":10604:10605   */\n      0x00\n        /* \"#utility.yul\":10596:10602   */\n      dup3\n        /* \"#utility.yul\":10592:10606   */\n      add\n        /* \"#utility.yul\":10585:10643   */\n      mstore\n        /* \"#utility.yul\":10677:10684   */\n      0x6374696f6e000000000000000000000000000000000000000000000000000000\n        /* \"#utility.yul\":10672:10674   */\n      0x20\n        /* \"#utility.yul\":10664:10670   */\n      dup3\n        /* \"#utility.yul\":10660:10675   */\n      add\n        /* \"#utility.yul\":10653:10685   */\n      mstore\n        /* \"#utility.yul\":10468:10692   */\n      pop\n      jump\t// out\n        /* \"#utility.yul\":10698:11064   */\n    tag_220:\n        /* \"#utility.yul\":10840:10843   */\n      0x00\n        /* \"#utility.yul\":10861:10928   */\n      tag_342\n        /* \"#utility.yul\":10925:10927   */\n      0x25\n        /* \"#utility.yul\":10920:10923   */\n      dup4\n        /* \"#utility.yul\":10861:10928   */\n      tag_214\n      jump\t// in\n    tag_342:\n        /* \"#utility.yul\":10854:10928   */\n      swap2\n      pop\n        /* \"#utility.yul\":10937:11030   */\n      tag_343\n        /* \"#utility.yul\":11026:11029   */\n      dup3\n        /* \"#utility.yul\":10937:11030   */\n      tag_219\n      jump\t// in\n    tag_343:\n        /* \"#utility.yul\":11055:11057   */\n      0x40\n        /* \"#utility.yul\":11050:11053   */\n      dup3\n        /* \"#utility.yul\":11046:11058   */\n      add\n        /* \"#utility.yul\":11039:11058   */\n      swap1\n      pop\n        /* \"#utility.yul\":10698:11064   */\n      swap2\n      swap1\n      pop\n      jump\t// out\n        /* \"#utility.yul\":11070:11489   */\n    tag_96:\n        /* \"#utility.yul\":11236:11240   */\n      0x00\n        /* \"#utility.yul\":11274:11276   */\n      0x20\n        /* \"#utility.yul\":11263:11272   */\n      dup3\n        /* \"#utility.yul\":11259:11277   */\n      add\n        /* \"#utility.yul\":11251:11277   */\n      swap1\n      pop\n        /* \"#utility.yul\":11323:11332   */\n      dup2\n        /* \"#utility.yul\":11317:11321   */\n      dup2\n        /* \"#utility.yul\":11313:11333   */\n      sub\n        /* \"#utility.yul\":11309:11310   */\n      0x00\n        /* \"#utility.yul\":11298:11307   */\n      dup4\n        /* \"#utility.yul\":11294:11311   */\n      add\n        /* \"#utility.yul\":11287:11334   */\n      mstore\n        /* \"#utility.yul\":11351:11482   */\n      tag_345\n        /* \"#utility.yul\":11477:11481   */\n      dup2\n        /* \"#utility.yul\":11351:11482   */\n      tag_220\n      jump\t// in\n    tag_345:\n        /* \"#utility.yul\":11343:11482   */\n      swap1\n      pop\n        /* \"#utility.yul\":11070:11489   */\n      swap2\n      swap1\n      pop\n      jump\t// out\n        /* \"#utility.yul\":11495:11675   */\n    tag_103:\n        /* \"#utility.yul\":11543:11620   */\n      0x4e487b7100000000000000000000000000000000000000000000000000000000\n        /* \"#utility.yul\":11540:11541   */\n      0x00\n        /* \"#utility.yul\":11533:11621   */\n      mstore\n        /* \"#utility.yul\":11640:11644   */\n      0x32\n        /* \"#utility.yul\":11637:11638   */\n      0x04\n        /* \"#utility.yul\":11630:11645   */\n      mstore\n        /* \"#utility.yul\":11664:11668   */\n      0x24\n        /* \"#utility.yul\":11661:11662   */\n      0x00\n        /* \"#utility.yul\":11654:11669   */\n      revert\n        /* \"#utility.yul\":11681:11858   */\n    tag_221:\n        /* \"#utility.yul\":11821:11850   */\n      0x4164647265737320697320616c726561647920616e2061646d696e0000000000\n        /* \"#utility.yul\":11817:11818   */\n      0x00\n        /* \"#utility.yul\":11809:11815   */\n      dup3\n        /* \"#utility.yul\":11805:11819   */\n      add\n        /* \"#utility.yul\":11798:11851   */\n      mstore\n        /* \"#utility.yul\":11681:11858   */\n      pop\n      jump\t// out\n        /* \"#utility.yul\":11864:12230   */\n    tag_222:\n        /* \"#utility.yul\":12006:12009   */\n      0x00\n        /* \"#utility.yul\":12027:12094   */\n      tag_349\n        /* \"#utility.yul\":12091:12093   */\n      0x1b\n        /* \"#utility.yul\":12086:12089   */\n      dup4\n        /* \"#utility.yul\":12027:12094   */\n      tag_214\n      jump\t// in\n    tag_349:\n        /* \"#utility.yul\":12020:12094   */\n      swap2\n      pop\n        /* \"#utility.yul\":12103:12196   */\n      tag_350\n        /* \"#utility.yul\":12192:12195   */\n      dup3\n        /* \"#utility.yul\":12103:12196   */\n      tag_221\n      jump\t// in\n    tag_350:\n        /* \"#utility.yul\":12221:12223   */\n      0x20\n        /* \"#utility.yul\":12216:12219   */\n      dup3\n        /* \"#utility.yul\":12212:12224   */\n      add\n        /* \"#utility.yul\":12205:12224   */\n      swap1\n      pop\n        /* \"#utility.yul\":11864:12230   */\n      swap2\n      swap1\n      pop\n      jump\t// out\n        /* \"#utility.yul\":12236:12655   */\n    tag_128:\n        /* \"#utility.yul\":12402:12406   */\n      0x00\n        /* \"#utility.yul\":12440:12442   */\n      0x20\n        /* \"#utility.yul\":12429:12438   */\n      dup3\n        /* \"#utility.yul\":12425:12443   */\n      add\n        /* \"#utility.yul\":12417:12443   */\n      swap1\n      pop\n        /* \"#utility.yul\":12489:12498   */\n      dup2\n        /* \"#utility.yul\":12483:12487   */\n      dup2\n        /* \"#utility.yul\":12479:12499   */\n      sub\n        /* \"#utility.yul\":12475:12476   */\n      0x00\n        /* \"#utility.yul\":12464:12473   */\n      dup4\n        /* \"#utility.yul\":12460:12477   */\n      add\n        /* \"#utility.yul\":12453:12500   */\n      mstore\n        /* \"#utility.yul\":12517:12648   */\n      tag_352\n        /* \"#utility.yul\":12643:12647   */\n      dup2\n        /* \"#utility.yul\":12517:12648   */\n      tag_222\n      jump\t// in\n    tag_352:\n        /* \"#utility.yul\":12509:12648   */\n      swap1\n      pop\n        /* \"#utility.yul\":12236:12655   */\n      swap2\n      swap1\n      pop\n      jump\t// out\n        /* \"#utility.yul\":12661:12836   */\n    tag_223:\n        /* \"#utility.yul\":12801:12828   */\n      0x43616c6c6572206973206e6f742077686974656c697374656400000000000000\n        /* \"#utility.yul\":12797:12798   */\n      0x00\n        /* \"#utility.yul\":12789:12795   */\n      dup3\n        /* \"#utility.yul\":12785:12799   */\n      add\n        /* \"#utility.yul\":12778:12829   */\n      mstore\n        /* \"#utility.yul\":12661:12836   */\n      pop\n      jump\t// out\n        /* \"#utility.yul\":12842:13208   */\n    tag_224:\n        /* \"#utility.yul\":12984:12987   */\n      0x00\n        /* \"#utility.yul\":13005:13072   */\n      tag_355\n        /* \"#utility.yul\":13069:13071   */\n      0x19\n        /* \"#utility.yul\":13064:13067   */\n      dup4\n        /* \"#utility.yul\":13005:13072   */\n      tag_214\n      jump\t// in\n    tag_355:\n        /* \"#utility.yul\":12998:13072   */\n      swap2\n      pop\n        /* \"#utility.yul\":13081:13174   */\n      tag_356\n        /* \"#utility.yul\":13170:13173   */\n      dup3\n        /* \"#utility.yul\":13081:13174   */\n      tag_223\n      jump\t// in\n    tag_356:\n        /* \"#utility.yul\":13199:13201   */\n      0x20\n        /* \"#utility.yul\":13194:13197   */\n      dup3\n        /* \"#utility.yul\":13190:13202   */\n      add\n        /* \"#utility.yul\":13183:13202   */\n      swap1\n      pop\n        /* \"#utility.yul\":12842:13208   */\n      swap2\n      swap1\n      pop\n      jump\t// out\n        /* \"#utility.yul\":13214:13633   */\n    tag_134:\n        /* \"#utility.yul\":13380:13384   */\n      0x00\n        /* \"#utility.yul\":13418:13420   */\n      0x20\n        /* \"#utility.yul\":13407:13416   */\n      dup3\n        /* \"#utility.yul\":13403:13421   */\n      add\n        /* \"#utility.yul\":13395:13421   */\n      swap1\n      pop\n        /* \"#utility.yul\":13467:13476   */\n      dup2\n        /* \"#utility.yul\":13461:13465   */\n      dup2\n        /* \"#utility.yul\":13457:13477   */\n      sub\n        /* \"#utility.yul\":13453:13454   */\n      0x00\n        /* \"#utility.yul\":13442:13451   */\n      dup4\n        /* \"#utility.yul\":13438:13455   */\n      add\n        /* \"#utility.yul\":13431:13478   */\n      mstore\n        /* \"#utility.yul\":13495:13626   */\n      tag_358\n        /* \"#utility.yul\":13621:13625   */\n      dup2\n        /* \"#utility.yul\":13495:13626   */\n      tag_224\n      jump\t// in\n    tag_358:\n        /* \"#utility.yul\":13487:13626   */\n      swap1\n      pop\n        /* \"#utility.yul\":13214:13633   */\n      swap2\n      swap1\n      pop\n      jump\t// out\n        /* \"#utility.yul\":13639:13819   */\n    tag_225:\n        /* \"#utility.yul\":13687:13764   */\n      0x4e487b7100000000000000000000000000000000000000000000000000000000\n        /* \"#utility.yul\":13684:13685   */\n      0x00\n        /* \"#utility.yul\":13677:13765   */\n      mstore\n        /* \"#utility.yul\":13784:13788   */\n      0x11\n        /* \"#utility.yul\":13781:13782   */\n      0x04\n        /* \"#utility.yul\":13774:13789   */\n      mstore\n        /* \"#utility.yul\":13808:13812   */\n      0x24\n        /* \"#utility.yul\":13805:13806   */\n      0x00\n        /* \"#utility.yul\":13798:13813   */\n      revert\n        /* \"#utility.yul\":13825:14016   */\n    tag_143:\n        /* \"#utility.yul\":13865:13868   */\n      0x00\n        /* \"#utility.yul\":13884:13904   */\n      tag_361\n        /* \"#utility.yul\":13902:13903   */\n      dup3\n        /* \"#utility.yul\":13884:13904   */\n      tag_188\n      jump\t// in\n    tag_361:\n        /* \"#utility.yul\":13879:13904   */\n      swap2\n      pop\n        /* \"#utility.yul\":13918:13938   */\n      tag_362\n        /* \"#utility.yul\":13936:13937   */\n      dup4\n        /* \"#utility.yul\":13918:13938   */\n      tag_188\n      jump\t// in\n    tag_362:\n        /* \"#utility.yul\":13913:13938   */\n      swap3\n      pop\n        /* \"#utility.yul\":13961:13962   */\n      dup3\n        /* \"#utility.yul\":13958:13959   */\n      dup3\n        /* \"#utility.yul\":13954:13963   */\n      add\n        /* \"#utility.yul\":13947:13963   */\n      swap1\n      pop\n        /* \"#utility.yul\":13982:13985   */\n      dup1\n        /* \"#utility.yul\":13979:13980   */\n      dup3\n        /* \"#utility.yul\":13976:13986   */\n      gt\n        /* \"#utility.yul\":13973:14009   */\n      iszero\n      tag_363\n      jumpi\n        /* \"#utility.yul\":13989:14007   */\n      tag_364\n      tag_225\n      jump\t// in\n    tag_364:\n        /* \"#utility.yul\":13973:14009   */\n    tag_363:\n        /* \"#utility.yul\":13825:14016   */\n      swap3\n      swap2\n      pop\n      pop\n      jump\t// out\n        /* \"#utility.yul\":14022:14116   */\n    tag_226:\n        /* \"#utility.yul\":14055:14063   */\n      0x00\n        /* \"#utility.yul\":14103:14108   */\n      dup2\n        /* \"#utility.yul\":14099:14101   */\n      0x60\n        /* \"#utility.yul\":14095:14109   */\n      shl\n        /* \"#utility.yul\":14074:14109   */\n      swap1\n      pop\n        /* \"#utility.yul\":14022:14116   */\n      swap2\n      swap1\n      pop\n      jump\t// out\n        /* \"#utility.yul\":14122:14216   */\n    tag_227:\n        /* \"#utility.yul\":14161:14168   */\n      0x00\n        /* \"#utility.yul\":14190:14210   */\n      tag_367\n        /* \"#utility.yul\":14204:14209   */\n      dup3\n        /* \"#utility.yul\":14190:14210   */\n      tag_226\n      jump\t// in\n    tag_367:\n        /* \"#utility.yul\":14179:14210   */\n      swap1\n      pop\n        /* \"#utility.yul\":14122:14216   */\n      swap2\n      swap1\n      pop\n      jump\t// out\n        /* \"#utility.yul\":14222:14322   */\n    tag_228:\n        /* \"#utility.yul\":14261:14268   */\n      0x00\n        /* \"#utility.yul\":14290:14316   */\n      tag_369\n        /* \"#utility.yul\":14310:14315   */\n      dup3\n        /* \"#utility.yul\":14290:14316   */\n      tag_227\n      jump\t// in\n    tag_369:\n        /* \"#utility.yul\":14279:14316   */\n      swap1\n      pop\n        /* \"#utility.yul\":14222:14322   */\n      swap2\n      swap1\n      pop\n      jump\t// out\n        /* \"#utility.yul\":14328:14485   */\n    tag_229:\n        /* \"#utility.yul\":14433:14478   */\n      tag_371\n        /* \"#utility.yul\":14453:14477   */\n      tag_372\n        /* \"#utility.yul\":14471:14476   */\n      dup3\n        /* \"#utility.yul\":14453:14477   */\n      tag_192\n      jump\t// in\n    tag_372:\n        /* \"#utility.yul\":14433:14478   */\n      tag_228\n      jump\t// in\n    tag_371:\n        /* \"#utility.yul\":14428:14431   */\n      dup3\n        /* \"#utility.yul\":14421:14479   */\n      mstore\n        /* \"#utility.yul\":14328:14485   */\n      pop\n      pop\n      jump\t// out\n        /* \"#utility.yul\":14491:14747   */\n    tag_148:\n        /* \"#utility.yul\":14603:14606   */\n      0x00\n        /* \"#utility.yul\":14618:14693   */\n      tag_374\n        /* \"#utility.yul\":14689:14692   */\n      dup3\n        /* \"#utility.yul\":14680:14686   */\n      dup5\n        /* \"#utility.yul\":14618:14693   */\n      tag_229\n      jump\t// in\n    tag_374:\n        /* \"#utility.yul\":14718:14720   */\n      0x14\n        /* \"#utility.yul\":14713:14716   */\n      dup3\n        /* \"#utility.yul\":14709:14721   */\n      add\n        /* \"#utility.yul\":14702:14721   */\n      swap2\n      pop\n        /* \"#utility.yul\":14738:14741   */\n      dup2\n        /* \"#utility.yul\":14731:14741   */\n      swap1\n      pop\n        /* \"#utility.yul\":14491:14747   */\n      swap3\n      swap2\n      pop\n      pop\n      jump\t// out\n        /* \"#utility.yul\":14753:14979   */\n    tag_230:\n        /* \"#utility.yul\":14893:14927   */\n      0x4164647265737320697320616c7265616479206d616e75616c6c792077686974\n        /* \"#utility.yul\":14889:14890   */\n      0x00\n        /* \"#utility.yul\":14881:14887   */\n      dup3\n        /* \"#utility.yul\":14877:14891   */\n      add\n        /* \"#utility.yul\":14870:14928   */\n      mstore\n        /* \"#utility.yul\":14962:14971   */\n      0x656c697374656400000000000000000000000000000000000000000000000000\n        /* \"#utility.yul\":14957:14959   */\n      0x20\n        /* \"#utility.yul\":14949:14955   */\n      dup3\n        /* \"#utility.yul\":14945:14960   */\n      add\n        /* \"#utility.yul\":14938:14972   */\n      mstore\n        /* \"#utility.yul\":14753:14979   */\n      pop\n      jump\t// out\n        /* \"#utility.yul\":14985:15351   */\n    tag_231:\n        /* \"#utility.yul\":15127:15130   */\n      0x00\n        /* \"#utility.yul\":15148:15215   */\n      tag_377\n        /* \"#utility.yul\":15212:15214   */\n      0x27\n        /* \"#utility.yul\":15207:15210   */\n      dup4\n        /* \"#utility.yul\":15148:15215   */\n      tag_214\n      jump\t// in\n    tag_377:\n        /* \"#utility.yul\":15141:15215   */\n      swap2\n      pop\n        /* \"#utility.yul\":15224:15317   */\n      tag_378\n        /* \"#utility.yul\":15313:15316   */\n      dup3\n        /* \"#utility.yul\":15224:15317   */\n      tag_230\n      jump\t// in\n    tag_378:\n        /* \"#utility.yul\":15342:15344   */\n      0x40\n        /* \"#utility.yul\":15337:15340   */\n      dup3\n        /* \"#utility.yul\":15333:15345   */\n      add\n        /* \"#utility.yul\":15326:15345   */\n      swap1\n      pop\n        /* \"#utility.yul\":14985:15351   */\n      swap2\n      swap1\n      pop\n      jump\t// out\n        /* \"#utility.yul\":15357:15776   */\n    tag_158:\n        /* \"#utility.yul\":15523:15527   */\n      0x00\n        /* \"#utility.yul\":15561:15563   */\n      0x20\n        /* \"#utility.yul\":15550:15559   */\n      dup3\n        /* \"#utility.yul\":15546:15564   */\n      add\n        /* \"#utility.yul\":15538:15564   */\n      swap1\n      pop\n        /* \"#utility.yul\":15610:15619   */\n      dup2\n        /* \"#utility.yul\":15604:15608   */\n      dup2\n        /* \"#utility.yul\":15600:15620   */\n      sub\n        /* \"#utility.yul\":15596:15597   */\n      0x00\n        /* \"#utility.yul\":15585:15594   */\n      dup4\n        /* \"#utility.yul\":15581:15598   */\n      add\n        /* \"#utility.yul\":15574:15621   */\n      mstore\n        /* \"#utility.yul\":15638:15769   */\n      tag_380\n        /* \"#utility.yul\":15764:15768   */\n      dup2\n        /* \"#utility.yul\":15638:15769   */\n      tag_231\n      jump\t// in\n    tag_380:\n        /* \"#utility.yul\":15630:15769   */\n      swap1\n      pop\n        /* \"#utility.yul\":15357:15776   */\n      swap2\n      swap1\n      pop\n      jump\t// out\n\n    auxdata: 0xa2646970667358221220e96b2fcffbfc9641bab3eaec036772579db9672cb23c22a03cf8a41f25da315564736f6c634300081a0033\n}\n",
				"bytecode": {
					"linkReferences": {},
					"object": "6080604052348015600e575f80fd5b50604051611a87380380611a878339818101604052810190602e919060ab565b335f806101000a81548173ffffffffffffffffffffffffffffffffffffffff021916908373ffffffffffffffffffffffffffffffffffffffff160217905550806001819055505060d1565b5f80fd5b5f819050919050565b608d81607d565b81146096575f80fd5b50565b5f8151905060a5816086565b92915050565b5f6020828403121560bd5760bc6079565b5b5f60c8848285016099565b91505092915050565b6119a9806100de5f395ff3fe608060405234801561000f575f80fd5b50600436106100f3575f3560e01c80637048027511610095578063a4ec8d2211610064578063a4ec8d221461025b578063d9e9c9781461028b578063debefaa6146102bb578063e43252d7146102eb576100f3565b806370480275146101e95780638da5cb5b14610205578063956aad8814610223578063a407e4961461023f576100f3565b8063429b62e5116100d1578063429b62e5146101615780634783f0ef146101915780635a521883146101ad5780635c9c66c6146101cb576100f3565b80630b207ec9146100f75780631785f53c146101275780632eb4a7ab14610143575b5f80fd5b610111600480360381019061010c91906111fc565b610307565b60405161011e9190611266565b60405180910390f35b610141600480360381019061013c91906112a9565b610342565b005b61014b6104fd565b60405161015891906112ec565b60405180910390f35b61017b600480360381019061017691906112a9565b610503565b604051610188919061131f565b60405180910390f35b6101ab60048036038101906101a69190611362565b610520565b005b6101b561083a565b6040516101c2919061139c565b60405180910390f35b6101d3610840565b6040516101e0919061146c565b60405180910390f35b61020360048036038101906101fe91906112a9565b6108cb565b005b61020d610a89565b60405161021a9190611266565b60405180910390f35b61023d600480360381019061023891906114ed565b610aac565b005b610259600480360381019061025491906114ed565b610c2f565b005b610275600480360381019061027091906112a9565b610ce4565b604051610282919061139c565b60405180910390f35b6102a560048036038101906102a091906112a9565b610cf9565b6040516102b2919061131f565b60405180910390f35b6102d560048036038101906102d09190611538565b610d16565b6040516102e2919061131f565b60405180910390f35b610305600480360381019061030091906112a9565b610df1565b005b60058181548110610316575f80fd5b905f5260205f20015f915054906101000a900473ffffffffffffffffffffffffffffffffffffffff1681565b5f8054906101000a900473ffffffffffffffffffffffffffffffffffffffff1673ffffffffffffffffffffffffffffffffffffffff163373ffffffffffffffffffffffffffffffffffffffff16146103cf576040517f08c379a00000000000000000000000000000000000000000000000000000000081526004016103c690611615565b60405180910390fd5b60035f8273ffffffffffffffffffffffffffffffffffffffff1673ffffffffffffffffffffffffffffffffffffffff1681526020019081526020015f205f9054906101000a900460ff16610458576040517f08c379a000000000000000000000000000000000000000000000000000000000815260040161044f9061167d565b60405180910390fd5b5f60035f8373ffffffffffffffffffffffffffffffffffffffff1673ffffffffffffffffffffffffffffffffffffffff1681526020019081526020015f205f6101000a81548160ff0219169083151502179055508073ffffffffffffffffffffffffffffffffffffffff167f235bc17e7930760029e9f4d860a2a8089976de5b381cf8380fc11c1d88a111335f6040516104f2919061131f565b60405180910390a250565b60015481565b6003602052805f5260405f205f915054906101000a900460ff1681565b60035f3373ffffffffffffffffffffffffffffffffffffffff1673ffffffffffffffffffffffffffffffffffffffff1681526020019081526020015f205f9054906101000a900460ff16806105bf57505f8054906101000a900473ffffffffffffffffffffffffffffffffffffffff1673ffffffffffffffffffffffffffffffffffffffff163373ffffffffffffffffffffffffffffffffffffffff16145b6105fe576040517f08c379a00000000000000000000000000000000000000000000000000000000081526004016105f59061170b565b60405180910390fd5b806001819055505f5b6005805490508110156106b0575f60025f6005848154811061062c5761062b611729565b5b905f5260205f20015f9054906101000a900473ffffffffffffffffffffffffffffffffffffffff1673ffffffffffffffffffffffffffffffffffffffff1673ffffffffffffffffffffffffffffffffffffffff1681526020019081526020015f205f6101000a81548160ff0219169083151502179055508080600101915050610607565b5060055f6106be9190611188565b5f5b6005805490508110156107ff5760025f600583815481106106e4576106e3611729565b5b905f5260205f20015f9054906101000a900473ffffffffffffffffffffffffffffffffffffffff1673ffffffffffffffffffffffffffffffffffffffff1673ffffffffffffffffffffffffffffffffffffffff1681526020019081526020015f205f9054906101000a900460ff16156107f257600580828154811061076c5761076b611729565b5b905f5260205f20015f9054906101000a900473ffffffffffffffffffffffffffffffffffffffff16908060018154018082558091505060019003905f5260205f20015f9091909190916101000a81548173ffffffffffffffffffffffffffffffffffffffff021916908373ffffffffffffffffffffffffffffffffffffffff1602179055505b80806001019150506106c0565b507f90004c04698bc3322499a575ed3752dd4abf33e0a7294c06a787a0fe01bea9418160405161082f91906112ec565b60405180910390a150565b60065481565b606060058054806020026020016040519081016040528092919081815260200182805480156108c157602002820191905f5260205f20905b815f9054906101000a900473ffffffffffffffffffffffffffffffffffffffff1673ffffffffffffffffffffffffffffffffffffffff1681526020019060010190808311610878575b5050505050905090565b5f8054906101000a900473ffffffffffffffffffffffffffffffffffffffff1673ffffffffffffffffffffffffffffffffffffffff163373ffffffffffffffffffffffffffffffffffffffff1614610958576040517f08c379a000000000000000000000000000000000000000000000000000000000815260040161094f90611615565b60405180910390fd5b60035f8273ffffffffffffffffffffffffffffffffffffffff1673ffffffffffffffffffffffffffffffffffffffff1681526020019081526020015f205f9054906101000a900460ff16156109e2576040517f08c379a00000000000000000000000000000000000000000000000000000000081526004016109d9906117a0565b60405180910390fd5b600160035f8373ffffffffffffffffffffffffffffffffffffffff1673ffffffffffffffffffffffffffffffffffffffff1681526020019081526020015f205f6101000a81548160ff0219169083151502179055508073ffffffffffffffffffffffffffffffffffffffff167f235bc17e7930760029e9f4d860a2a8089976de5b381cf8380fc11c1d88a111336001604051610a7e919061131f565b60405180910390a250565b5f8054906101000a900473ffffffffffffffffffffffffffffffffffffffff1681565b610ab7828233610d16565b610af6576040517f08c379a0000000000000000000000000000000000000000000000000000000008152600401610aed90611808565b60405180910390fd5b5f60045f3373ffffffffffffffffffffffffffffffffffffffff1673ffffffffffffffffffffffffffffffffffffffff1681526020019081526020015f205403610c2b574260045f3373ffffffffffffffffffffffffffffffffffffffff1673ffffffffffffffffffffffffffffffffffffffff1681526020019081526020015f2081905550600533908060018154018082558091505060019003905f5260205f20015f9091909190916101000a81548173ffffffffffffffffffffffffffffffffffffffff021916908373ffffffffffffffffffffffffffffffffffffffff1602179055503373ffffffffffffffffffffffffffffffffffffffff167fa49883ca390454a7ad754a5c01f6b92c7467a5daa38c2a935fbfb93f8bb2530f42604051610c22919061139c565b60405180910390a25b5050565b610c3a828233610d16565b610c79576040517f08c379a0000000000000000000000000000000000000000000000000000000008152600401610c7090611808565b60405180910390fd5b600160065f828254610c8b9190611853565b925050819055503373ffffffffffffffffffffffffffffffffffffffff167fda29567229e1b858992f983785638370913b8134292eea489d9ccfc8f9711d9842604051610cd8919061139c565b60405180910390a25050565b6004602052805f5260405f205f915090505481565b6002602052805f5260405f205f915054906101000a900460ff1681565b5f60025f8373ffffffffffffffffffffffffffffffffffffffff1673ffffffffffffffffffffffffffffffffffffffff1681526020019081526020015f205f9054906101000a900460ff1615610d6f5760019050610dea565b5f82604051602001610d8191906118cb565b604051602081830303815290604052805190602001209050610de68585808060200260200160405190810160405280939291908181526020018383602002808284375f81840152601f19601f82011690508083019250505050505050600154836110e6565b9150505b9392505050565b60035f3373ffffffffffffffffffffffffffffffffffffffff1673ffffffffffffffffffffffffffffffffffffffff1681526020019081526020015f205f9054906101000a900460ff1680610e9057505f8054906101000a900473ffffffffffffffffffffffffffffffffffffffff1673ffffffffffffffffffffffffffffffffffffffff163373ffffffffffffffffffffffffffffffffffffffff16145b610ecf576040517f08c379a0000000000000000000000000000000000000000000000000000000008152600401610ec69061170b565b60405180910390fd5b60025f8273ffffffffffffffffffffffffffffffffffffffff1673ffffffffffffffffffffffffffffffffffffffff1681526020019081526020015f205f9054906101000a900460ff1615610f59576040517f08c379a0000000000000000000000000000000000000000000000000000000008152600401610f5090611955565b60405180910390fd5b600160025f8373ffffffffffffffffffffffffffffffffffffffff1673ffffffffffffffffffffffffffffffffffffffff1681526020019081526020015f205f6101000a81548160ff0219169083151502179055505f60045f8373ffffffffffffffffffffffffffffffffffffffff1673ffffffffffffffffffffffffffffffffffffffff1681526020019081526020015f205403611095574260045f8373ffffffffffffffffffffffffffffffffffffffff1673ffffffffffffffffffffffffffffffffffffffff1681526020019081526020015f2081905550600581908060018154018082558091505060019003905f5260205f20015f9091909190916101000a81548173ffffffffffffffffffffffffffffffffffffffff021916908373ffffffffffffffffffffffffffffffffffffffff1602179055505b8073ffffffffffffffffffffffffffffffffffffffff167fa49883ca390454a7ad754a5c01f6b92c7467a5daa38c2a935fbfb93f8bb2530f426040516110db919061139c565b60405180910390a250565b5f826110f285846110fc565b1490509392505050565b5f808290505f5b845181101561113f576111308286838151811061112357611122611729565b5b602002602001015161114a565b91508080600101915050611103565b508091505092915050565b5f8183106111615761115c8284611174565b61116c565b61116b8383611174565b5b905092915050565b5f825f528160205260405f20905092915050565b5080545f8255905f5260205f20908101906111a391906111a6565b50565b5b808211156111bd575f815f9055506001016111a7565b5090565b5f80fd5b5f80fd5b5f819050919050565b6111db816111c9565b81146111e5575f80fd5b50565b5f813590506111f6816111d2565b92915050565b5f60208284031215611211576112106111c1565b5b5f61121e848285016111e8565b91505092915050565b5f73ffffffffffffffffffffffffffffffffffffffff82169050919050565b5f61125082611227565b9050919050565b61126081611246565b82525050565b5f6020820190506112795f830184611257565b92915050565b61128881611246565b8114611292575f80fd5b50565b5f813590506112a38161127f565b92915050565b5f602082840312156112be576112bd6111c1565b5b5f6112cb84828501611295565b91505092915050565b5f819050919050565b6112e6816112d4565b82525050565b5f6020820190506112ff5f8301846112dd565b92915050565b5f8115159050919050565b61131981611305565b82525050565b5f6020820190506113325f830184611310565b92915050565b611341816112d4565b811461134b575f80fd5b50565b5f8135905061135c81611338565b92915050565b5f60208284031215611377576113766111c1565b5b5f6113848482850161134e565b91505092915050565b611396816111c9565b82525050565b5f6020820190506113af5f83018461138d565b92915050565b5f81519050919050565b5f82825260208201905092915050565b5f819050602082019050919050565b6113e781611246565b82525050565b5f6113f883836113de565b60208301905092915050565b5f602082019050919050565b5f61141a826113b5565b61142481856113bf565b935061142f836113cf565b805f5b8381101561145f57815161144688826113ed565b975061145183611404565b925050600181019050611432565b5085935050505092915050565b5f6020820190508181035f8301526114848184611410565b905092915050565b5f80fd5b5f80fd5b5f80fd5b5f8083601f8401126114ad576114ac61148c565b5b8235905067ffffffffffffffff8111156114ca576114c9611490565b5b6020830191508360208202830111156114e6576114e5611494565b5b9250929050565b5f8060208385031215611503576115026111c1565b5b5f83013567ffffffffffffffff8111156115205761151f6111c5565b5b61152c85828601611498565b92509250509250929050565b5f805f6040848603121561154f5761154e6111c1565b5b5f84013567ffffffffffffffff81111561156c5761156b6111c5565b5b61157886828701611498565b9350935050602061158b86828701611295565b9150509250925092565b5f82825260208201905092915050565b7f4f6e6c7920746865206f776e65722063616e20706572666f726d2074686973205f8201527f616374696f6e0000000000000000000000000000000000000000000000000000602082015250565b5f6115ff602683611595565b915061160a826115a5565b604082019050919050565b5f6020820190508181035f83015261162c816115f3565b9050919050565b7f41646472657373206973206e6f7420616e2061646d696e0000000000000000005f82015250565b5f611667601783611595565b915061167282611633565b602082019050919050565b5f6020820190508181035f8301526116948161165b565b9050919050565b7f4f6e6c7920616e2061646d696e2063616e20706572666f726d207468697320615f8201527f6374696f6e000000000000000000000000000000000000000000000000000000602082015250565b5f6116f5602583611595565b91506117008261169b565b604082019050919050565b5f6020820190508181035f830152611722816116e9565b9050919050565b7f4e487b71000000000000000000000000000000000000000000000000000000005f52603260045260245ffd5b7f4164647265737320697320616c726561647920616e2061646d696e00000000005f82015250565b5f61178a601b83611595565b915061179582611756565b602082019050919050565b5f6020820190508181035f8301526117b78161177e565b9050919050565b7f43616c6c6572206973206e6f742077686974656c6973746564000000000000005f82015250565b5f6117f2601983611595565b91506117fd826117be565b602082019050919050565b5f6020820190508181035f83015261181f816117e6565b9050919050565b7f4e487b71000000000000000000000000000000000000000000000000000000005f52601160045260245ffd5b5f61185d826111c9565b9150611868836111c9565b92508282019050808211156118805761187f611826565b5b92915050565b5f8160601b9050919050565b5f61189c82611886565b9050919050565b5f6118ad82611892565b9050919050565b6118c56118c082611246565b6118a3565b82525050565b5f6118d682846118b4565b60148201915081905092915050565b7f4164647265737320697320616c7265616479206d616e75616c6c7920776869745f8201527f656c697374656400000000000000000000000000000000000000000000000000602082015250565b5f61193f602783611595565b915061194a826118e5565b604082019050919050565b5f6020820190508181035f83015261196c81611933565b905091905056fea2646970667358221220e96b2fcffbfc9641bab3eaec036772579db9672cb23c22a03cf8a41f25da315564736f6c634300081a0033",
					"opcodes": "PUSH1 0x80 PUSH1 0x40 MSTORE CALLVALUE DUP1 ISZERO PUSH1 0xE JUMPI PUSH0 DUP1 REVERT JUMPDEST POP PUSH1 0x40 MLOAD PUSH2 0x1A87 CODESIZE SUB DUP1 PUSH2 0x1A87 DUP4 CODECOPY DUP2 DUP2 ADD PUSH1 0x40 MSTORE DUP2 ADD SWAP1 PUSH1 0x2E SWAP2 SWAP1 PUSH1 0xAB JUMP JUMPDEST CALLER PUSH0 DUP1 PUSH2 0x100 EXP DUP2 SLOAD DUP2 PUSH20 0xFFFFFFFFFFFFFFFFFFFFFFFFFFFFFFFFFFFFFFFF MUL NOT AND SWAP1 DUP4 PUSH20 0xFFFFFFFFFFFFFFFFFFFFFFFFFFFFFFFFFFFFFFFF AND MUL OR SWAP1 SSTORE POP DUP1 PUSH1 0x1 DUP2 SWAP1 SSTORE POP POP PUSH1 0xD1 JUMP JUMPDEST PUSH0 DUP1 REVERT JUMPDEST PUSH0 DUP2 SWAP1 POP SWAP2 SWAP1 POP JUMP JUMPDEST PUSH1 0x8D DUP2 PUSH1 0x7D JUMP JUMPDEST DUP2 EQ PUSH1 0x96 JUMPI PUSH0 DUP1 REVERT JUMPDEST POP JUMP JUMPDEST PUSH0 DUP2 MLOAD SWAP1 POP PUSH1 0xA5 DUP2 PUSH1 0x86 JUMP JUMPDEST SWAP3 SWAP2 POP POP JUMP JUMPDEST PUSH0 PUSH1 0x20 DUP3 DUP5 SUB SLT ISZERO PUSH1 0xBD JUMPI PUSH1 0xBC PUSH1 0x79 JUMP JUMPDEST JUMPDEST PUSH0 PUSH1 0xC8 DUP5 DUP3 DUP6 ADD PUSH1 0x99 JUMP JUMPDEST SWAP2 POP POP SWAP3 SWAP2 POP POP JUMP JUMPDEST PUSH2 0x19A9 DUP1 PUSH2 0xDE PUSH0 CODECOPY PUSH0 RETURN INVALID PUSH1 0x80 PUSH1 0x40 MSTORE CALLVALUE DUP1 ISZERO PUSH2 0xF JUMPI PUSH0 DUP1 REVERT JUMPDEST POP PUSH1 0x4 CALLDATASIZE LT PUSH2 0xF3 JUMPI PUSH0 CALLDATALOAD PUSH1 0xE0 SHR DUP1 PUSH4 0x70480275 GT PUSH2 0x95 JUMPI DUP1 PUSH4 0xA4EC8D22 GT PUSH2 0x64 JUMPI DUP1 PUSH4 0xA4EC8D22 EQ PUSH2 0x25B JUMPI DUP1 PUSH4 0xD9E9C978 EQ PUSH2 0x28B JUMPI DUP1 PUSH4 0xDEBEFAA6 EQ PUSH2 0x2BB JUMPI DUP1 PUSH4 0xE43252D7 EQ PUSH2 0x2EB JUMPI PUSH2 0xF3 JUMP JUMPDEST DUP1 PUSH4 0x70480275 EQ PUSH2 0x1E9 JUMPI DUP1 PUSH4 0x8DA5CB5B EQ PUSH2 0x205 JUMPI DUP1 PUSH4 0x956AAD88 EQ PUSH2 0x223 JUMPI DUP1 PUSH4 0xA407E496 EQ PUSH2 0x23F JUMPI PUSH2 0xF3 JUMP JUMPDEST DUP1 PUSH4 0x429B62E5 GT PUSH2 0xD1 JUMPI DUP1 PUSH4 0x429B62E5 EQ PUSH2 0x161 JUMPI DUP1 PUSH4 0x4783F0EF EQ PUSH2 0x191 JUMPI DUP1 PUSH4 0x5A521883 EQ PUSH2 0x1AD JUMPI DUP1 PUSH4 0x5C9C66C6 EQ PUSH2 0x1CB JUMPI PUSH2 0xF3 JUMP JUMPDEST DUP1 PUSH4 0xB207EC9 EQ PUSH2 0xF7 JUMPI DUP1 PUSH4 0x1785F53C EQ PUSH2 0x127 JUMPI DUP1 PUSH4 0x2EB4A7AB EQ PUSH2 0x143 JUMPI JUMPDEST PUSH0 DUP1 REVERT JUMPDEST PUSH2 0x111 PUSH1 0x4 DUP1 CALLDATASIZE SUB DUP2 ADD SWAP1 PUSH2 0x10C SWAP2 SWAP1 PUSH2 0x11FC JUMP JUMPDEST PUSH2 0x307 JUMP JUMPDEST PUSH1 0x40 MLOAD PUSH2 0x11E SWAP2 SWAP1 PUSH2 0x1266 JUMP JUMPDEST PUSH1 0x40 MLOAD DUP1 SWAP2 SUB SWAP1 RETURN JUMPDEST PUSH2 0x141 PUSH1 0x4 DUP1 CALLDATASIZE SUB DUP2 ADD SWAP1 PUSH2 0x13C SWAP2 SWAP1 PUSH2 0x12A9 JUMP JUMPDEST PUSH2 0x342 JUMP JUMPDEST STOP JUMPDEST PUSH2 0x14B PUSH2 0x4FD JUMP JUMPDEST PUSH1 0x40 MLOAD PUSH2 0x158 SWAP2 SWAP1 PUSH2 0x12EC JUMP JUMPDEST PUSH1 0x40 MLOAD DUP1 SWAP2 SUB SWAP1 RETURN JUMPDEST PUSH2 0x17B PUSH1 0x4 DUP1 CALLDATASIZE SUB DUP2 ADD SWAP1 PUSH2 0x176 SWAP2 SWAP1 PUSH2 0x12A9 JUMP JUMPDEST PUSH2 0x503 JUMP JUMPDEST PUSH1 0x40 MLOAD PUSH2 0x188 SWAP2 SWAP1 PUSH2 0x131F JUMP JUMPDEST PUSH1 0x40 MLOAD DUP1 SWAP2 SUB SWAP1 RETURN JUMPDEST PUSH2 0x1AB PUSH1 0x4 DUP1 CALLDATASIZE SUB DUP2 ADD SWAP1 PUSH2 0x1A6 SWAP2 SWAP1 PUSH2 0x1362 JUMP JUMPDEST PUSH2 0x520 JUMP JUMPDEST STOP JUMPDEST PUSH2 0x1B5 PUSH2 0x83A JUMP JUMPDEST PUSH1 0x40 MLOAD PUSH2 0x1C2 SWAP2 SWAP1 PUSH2 0x139C JUMP JUMPDEST PUSH1 0x40 MLOAD DUP1 SWAP2 SUB SWAP1 RETURN JUMPDEST PUSH2 0x1D3 PUSH2 0x840 JUMP JUMPDEST PUSH1 0x40 MLOAD PUSH2 0x1E0 SWAP2 SWAP1 PUSH2 0x146C JUMP JUMPDEST PUSH1 0x40 MLOAD DUP1 SWAP2 SUB SWAP1 RETURN JUMPDEST PUSH2 0x203 PUSH1 0x4 DUP1 CALLDATASIZE SUB DUP2 ADD SWAP1 PUSH2 0x1FE SWAP2 SWAP1 PUSH2 0x12A9 JUMP JUMPDEST PUSH2 0x8CB JUMP JUMPDEST STOP JUMPDEST PUSH2 0x20D PUSH2 0xA89 JUMP JUMPDEST PUSH1 0x40 MLOAD PUSH2 0x21A SWAP2 SWAP1 PUSH2 0x1266 JUMP JUMPDEST PUSH1 0x40 MLOAD DUP1 SWAP2 SUB SWAP1 RETURN JUMPDEST PUSH2 0x23D PUSH1 0x4 DUP1 CALLDATASIZE SUB DUP2 ADD SWAP1 PUSH2 0x238 SWAP2 SWAP1 PUSH2 0x14ED JUMP JUMPDEST PUSH2 0xAAC JUMP JUMPDEST STOP JUMPDEST PUSH2 0x259 PUSH1 0x4 DUP1 CALLDATASIZE SUB DUP2 ADD SWAP1 PUSH2 0x254 SWAP2 SWAP1 PUSH2 0x14ED JUMP JUMPDEST PUSH2 0xC2F JUMP JUMPDEST STOP JUMPDEST PUSH2 0x275 PUSH1 0x4 DUP1 CALLDATASIZE SUB DUP2 ADD SWAP1 PUSH2 0x270 SWAP2 SWAP1 PUSH2 0x12A9 JUMP JUMPDEST PUSH2 0xCE4 JUMP JUMPDEST PUSH1 0x40 MLOAD PUSH2 0x282 SWAP2 SWAP1 PUSH2 0x139C JUMP JUMPDEST PUSH1 0x40 MLOAD DUP1 SWAP2 SUB SWAP1 RETURN JUMPDEST PUSH2 0x2A5 PUSH1 0x4 DUP1 CALLDATASIZE SUB DUP2 ADD SWAP1 PUSH2 0x2A0 SWAP2 SWAP1 PUSH2 0x12A9 JUMP JUMPDEST PUSH2 0xCF9 JUMP JUMPDEST PUSH1 0x40 MLOAD PUSH2 0x2B2 SWAP2 SWAP1 PUSH2 0x131F JUMP JUMPDEST PUSH1 0x40 MLOAD DUP1 SWAP2 SUB SWAP1 RETURN JUMPDEST PUSH2 0x2D5 PUSH1 0x4 DUP1 CALLDATASIZE SUB DUP2 ADD SWAP1 PUSH2 0x2D0 SWAP2 SWAP1 PUSH2 0x1538 JUMP JUMPDEST PUSH2 0xD16 JUMP JUMPDEST PUSH1 0x40 MLOAD PUSH2 0x2E2 SWAP2 SWAP1 PUSH2 0x131F JUMP JUMPDEST PUSH1 0x40 MLOAD DUP1 SWAP2 SUB SWAP1 RETURN JUMPDEST PUSH2 0x305 PUSH1 0x4 DUP1 CALLDATASIZE SUB DUP2 ADD SWAP1 PUSH2 0x300 SWAP2 SWAP1 PUSH2 0x12A9 JUMP JUMPDEST PUSH2 0xDF1 JUMP JUMPDEST STOP JUMPDEST PUSH1 0x5 DUP2 DUP2 SLOAD DUP2 LT PUSH2 0x316 JUMPI PUSH0 DUP1 REVERT JUMPDEST SWAP1 PUSH0 MSTORE PUSH1 0x20 PUSH0 KECCAK256 ADD PUSH0 SWAP2 POP SLOAD SWAP1 PUSH2 0x100 EXP SWAP1 DIV PUSH20 0xFFFFFFFFFFFFFFFFFFFFFFFFFFFFFFFFFFFFFFFF AND DUP2 JUMP JUMPDEST PUSH0 DUP1 SLOAD SWAP1 PUSH2 0x100 EXP SWAP1 DIV PUSH20 0xFFFFFFFFFFFFFFFFFFFFFFFFFFFFFFFFFFFFFFFF AND PUSH20 0xFFFFFFFFFFFFFFFFFFFFFFFFFFFFFFFFFFFFFFFF AND CALLER PUSH20 0xFFFFFFFFFFFFFFFFFFFFFFFFFFFFFFFFFFFFFFFF AND EQ PUSH2 0x3CF JUMPI PUSH1 0x40 MLOAD PUSH32 0x8C379A000000000000000000000000000000000000000000000000000000000 DUP2 MSTORE PUSH1 0x4 ADD PUSH2 0x3C6 SWAP1 PUSH2 0x1615 JUMP JUMPDEST PUSH1 0x40 MLOAD DUP1 SWAP2 SUB SWAP1 REVERT JUMPDEST PUSH1 0x3 PUSH0 DUP3 PUSH20 0xFFFFFFFFFFFFFFFFFFFFFFFFFFFFFFFFFFFFFFFF AND PUSH20 0xFFFFFFFFFFFFFFFFFFFFFFFFFFFFFFFFFFFFFFFF AND DUP2 MSTORE PUSH1 0x20 ADD SWAP1 DUP2 MSTORE PUSH1 0x20 ADD PUSH0 KECCAK256 PUSH0 SWAP1 SLOAD SWAP1 PUSH2 0x100 EXP SWAP1 DIV PUSH1 0xFF AND PUSH2 0x458 JUMPI PUSH1 0x40 MLOAD PUSH32 0x8C379A000000000000000000000000000000000000000000000000000000000 DUP2 MSTORE PUSH1 0x4 ADD PUSH2 0x44F SWAP1 PUSH2 0x167D JUMP JUMPDEST PUSH1 0x40 MLOAD DUP1 SWAP2 SUB SWAP1 REVERT JUMPDEST PUSH0 PUSH1 0x3 PUSH0 DUP4 PUSH20 0xFFFFFFFFFFFFFFFFFFFFFFFFFFFFFFFFFFFFFFFF AND PUSH20 0xFFFFFFFFFFFFFFFFFFFFFFFFFFFFFFFFFFFFFFFF AND DUP2 MSTORE PUSH1 0x20 ADD SWAP1 DUP2 MSTORE PUSH1 0x20 ADD PUSH0 KECCAK256 PUSH0 PUSH2 0x100 EXP DUP2 SLOAD DUP2 PUSH1 0xFF MUL NOT AND SWAP1 DUP4 ISZERO ISZERO MUL OR SWAP1 SSTORE POP DUP1 PUSH20 0xFFFFFFFFFFFFFFFFFFFFFFFFFFFFFFFFFFFFFFFF AND PUSH32 0x235BC17E7930760029E9F4D860A2A8089976DE5B381CF8380FC11C1D88A11133 PUSH0 PUSH1 0x40 MLOAD PUSH2 0x4F2 SWAP2 SWAP1 PUSH2 0x131F JUMP JUMPDEST PUSH1 0x40 MLOAD DUP1 SWAP2 SUB SWAP1 LOG2 POP JUMP JUMPDEST PUSH1 0x1 SLOAD DUP2 JUMP JUMPDEST PUSH1 0x3 PUSH1 0x20 MSTORE DUP1 PUSH0 MSTORE PUSH1 0x40 PUSH0 KECCAK256 PUSH0 SWAP2 POP SLOAD SWAP1 PUSH2 0x100 EXP SWAP1 DIV PUSH1 0xFF AND DUP2 JUMP JUMPDEST PUSH1 0x3 PUSH0 CALLER PUSH20 0xFFFFFFFFFFFFFFFFFFFFFFFFFFFFFFFFFFFFFFFF AND PUSH20 0xFFFFFFFFFFFFFFFFFFFFFFFFFFFFFFFFFFFFFFFF AND DUP2 MSTORE PUSH1 0x20 ADD SWAP1 DUP2 MSTORE PUSH1 0x20 ADD PUSH0 KECCAK256 PUSH0 SWAP1 SLOAD SWAP1 PUSH2 0x100 EXP SWAP1 DIV PUSH1 0xFF AND DUP1 PUSH2 0x5BF JUMPI POP PUSH0 DUP1 SLOAD SWAP1 PUSH2 0x100 EXP SWAP1 DIV PUSH20 0xFFFFFFFFFFFFFFFFFFFFFFFFFFFFFFFFFFFFFFFF AND PUSH20 0xFFFFFFFFFFFFFFFFFFFFFFFFFFFFFFFFFFFFFFFF AND CALLER PUSH20 0xFFFFFFFFFFFFFFFFFFFFFFFFFFFFFFFFFFFFFFFF AND EQ JUMPDEST PUSH2 0x5FE JUMPI PUSH1 0x40 MLOAD PUSH32 0x8C379A000000000000000000000000000000000000000000000000000000000 DUP2 MSTORE PUSH1 0x4 ADD PUSH2 0x5F5 SWAP1 PUSH2 0x170B JUMP JUMPDEST PUSH1 0x40 MLOAD DUP1 SWAP2 SUB SWAP1 REVERT JUMPDEST DUP1 PUSH1 0x1 DUP2 SWAP1 SSTORE POP PUSH0 JUMPDEST PUSH1 0x5 DUP1 SLOAD SWAP1 POP DUP2 LT ISZERO PUSH2 0x6B0 JUMPI PUSH0 PUSH1 0x2 PUSH0 PUSH1 0x5 DUP5 DUP2 SLOAD DUP2 LT PUSH2 0x62C JUMPI PUSH2 0x62B PUSH2 0x1729 JUMP JUMPDEST JUMPDEST SWAP1 PUSH0 MSTORE PUSH1 0x20 PUSH0 KECCAK256 ADD PUSH0 SWAP1 SLOAD SWAP1 PUSH2 0x100 EXP SWAP1 DIV PUSH20 0xFFFFFFFFFFFFFFFFFFFFFFFFFFFFFFFFFFFFFFFF AND PUSH20 0xFFFFFFFFFFFFFFFFFFFFFFFFFFFFFFFFFFFFFFFF AND PUSH20 0xFFFFFFFFFFFFFFFFFFFFFFFFFFFFFFFFFFFFFFFF AND DUP2 MSTORE PUSH1 0x20 ADD SWAP1 DUP2 MSTORE PUSH1 0x20 ADD PUSH0 KECCAK256 PUSH0 PUSH2 0x100 EXP DUP2 SLOAD DUP2 PUSH1 0xFF MUL NOT AND SWAP1 DUP4 ISZERO ISZERO MUL OR SWAP1 SSTORE POP DUP1 DUP1 PUSH1 0x1 ADD SWAP2 POP POP PUSH2 0x607 JUMP JUMPDEST POP PUSH1 0x5 PUSH0 PUSH2 0x6BE SWAP2 SWAP1 PUSH2 0x1188 JUMP JUMPDEST PUSH0 JUMPDEST PUSH1 0x5 DUP1 SLOAD SWAP1 POP DUP2 LT ISZERO PUSH2 0x7FF JUMPI PUSH1 0x2 PUSH0 PUSH1 0x5 DUP4 DUP2 SLOAD DUP2 LT PUSH2 0x6E4 JUMPI PUSH2 0x6E3 PUSH2 0x1729 JUMP JUMPDEST JUMPDEST SWAP1 PUSH0 MSTORE PUSH1 0x20 PUSH0 KECCAK256 ADD PUSH0 SWAP1 SLOAD SWAP1 PUSH2 0x100 EXP SWAP1 DIV PUSH20 0xFFFFFFFFFFFFFFFFFFFFFFFFFFFFFFFFFFFFFFFF AND PUSH20 0xFFFFFFFFFFFFFFFFFFFFFFFFFFFFFFFFFFFFFFFF AND PUSH20 0xFFFFFFFFFFFFFFFFFFFFFFFFFFFFFFFFFFFFFFFF AND DUP2 MSTORE PUSH1 0x20 ADD SWAP1 DUP2 MSTORE PUSH1 0x20 ADD PUSH0 KECCAK256 PUSH0 SWAP1 SLOAD SWAP1 PUSH2 0x100 EXP SWAP1 DIV PUSH1 0xFF AND ISZERO PUSH2 0x7F2 JUMPI PUSH1 0x5 DUP1 DUP3 DUP2 SLOAD DUP2 LT PUSH2 0x76C JUMPI PUSH2 0x76B PUSH2 0x1729 JUMP JUMPDEST JUMPDEST SWAP1 PUSH0 MSTORE PUSH1 0x20 PUSH0 KECCAK256 ADD PUSH0 SWAP1 SLOAD SWAP1 PUSH2 0x100 EXP SWAP1 DIV PUSH20 0xFFFFFFFFFFFFFFFFFFFFFFFFFFFFFFFFFFFFFFFF AND SWAP1 DUP1 PUSH1 0x1 DUP2 SLOAD ADD DUP1 DUP3 SSTORE DUP1 SWAP2 POP POP PUSH1 0x1 SWAP1 SUB SWAP1 PUSH0 MSTORE PUSH1 0x20 PUSH0 KECCAK256 ADD PUSH0 SWAP1 SWAP2 SWAP1 SWAP2 SWAP1 SWAP2 PUSH2 0x100 EXP DUP2 SLOAD DUP2 PUSH20 0xFFFFFFFFFFFFFFFFFFFFFFFFFFFFFFFFFFFFFFFF MUL NOT AND SWAP1 DUP4 PUSH20 0xFFFFFFFFFFFFFFFFFFFFFFFFFFFFFFFFFFFFFFFF AND MUL OR SWAP1 SSTORE POP JUMPDEST DUP1 DUP1 PUSH1 0x1 ADD SWAP2 POP POP PUSH2 0x6C0 JUMP JUMPDEST POP PUSH32 0x90004C04698BC3322499A575ED3752DD4ABF33E0A7294C06A787A0FE01BEA941 DUP2 PUSH1 0x40 MLOAD PUSH2 0x82F SWAP2 SWAP1 PUSH2 0x12EC JUMP JUMPDEST PUSH1 0x40 MLOAD DUP1 SWAP2 SUB SWAP1 LOG1 POP JUMP JUMPDEST PUSH1 0x6 SLOAD DUP2 JUMP JUMPDEST PUSH1 0x60 PUSH1 0x5 DUP1 SLOAD DUP1 PUSH1 0x20 MUL PUSH1 0x20 ADD PUSH1 0x40 MLOAD SWAP1 DUP2 ADD PUSH1 0x40 MSTORE DUP1 SWAP3 SWAP2 SWAP1 DUP2 DUP2 MSTORE PUSH1 0x20 ADD DUP3 DUP1 SLOAD DUP1 ISZERO PUSH2 0x8C1 JUMPI PUSH1 0x20 MUL DUP3 ADD SWAP2 SWAP1 PUSH0 MSTORE PUSH1 0x20 PUSH0 KECCAK256 SWAP1 JUMPDEST DUP2 PUSH0 SWAP1 SLOAD SWAP1 PUSH2 0x100 EXP SWAP1 DIV PUSH20 0xFFFFFFFFFFFFFFFFFFFFFFFFFFFFFFFFFFFFFFFF AND PUSH20 0xFFFFFFFFFFFFFFFFFFFFFFFFFFFFFFFFFFFFFFFF AND DUP2 MSTORE PUSH1 0x20 ADD SWAP1 PUSH1 0x1 ADD SWAP1 DUP1 DUP4 GT PUSH2 0x878 JUMPI JUMPDEST POP POP POP POP POP SWAP1 POP SWAP1 JUMP JUMPDEST PUSH0 DUP1 SLOAD SWAP1 PUSH2 0x100 EXP SWAP1 DIV PUSH20 0xFFFFFFFFFFFFFFFFFFFFFFFFFFFFFFFFFFFFFFFF AND PUSH20 0xFFFFFFFFFFFFFFFFFFFFFFFFFFFFFFFFFFFFFFFF AND CALLER PUSH20 0xFFFFFFFFFFFFFFFFFFFFFFFFFFFFFFFFFFFFFFFF AND EQ PUSH2 0x958 JUMPI PUSH1 0x40 MLOAD PUSH32 0x8C379A000000000000000000000000000000000000000000000000000000000 DUP2 MSTORE PUSH1 0x4 ADD PUSH2 0x94F SWAP1 PUSH2 0x1615 JUMP JUMPDEST PUSH1 0x40 MLOAD DUP1 SWAP2 SUB SWAP1 REVERT JUMPDEST PUSH1 0x3 PUSH0 DUP3 PUSH20 0xFFFFFFFFFFFFFFFFFFFFFFFFFFFFFFFFFFFFFFFF AND PUSH20 0xFFFFFFFFFFFFFFFFFFFFFFFFFFFFFFFFFFFFFFFF AND DUP2 MSTORE PUSH1 0x20 ADD SWAP1 DUP2 MSTORE PUSH1 0x20 ADD PUSH0 KECCAK256 PUSH0 SWAP1 SLOAD SWAP1 PUSH2 0x100 EXP SWAP1 DIV PUSH1 0xFF AND ISZERO PUSH2 0x9E2 JUMPI PUSH1 0x40 MLOAD PUSH32 0x8C379A000000000000000000000000000000000000000000000000000000000 DUP2 MSTORE PUSH1 0x4 ADD PUSH2 0x9D9 SWAP1 PUSH2 0x17A0 JUMP JUMPDEST PUSH1 0x40 MLOAD DUP1 SWAP2 SUB SWAP1 REVERT JUMPDEST PUSH1 0x1 PUSH1 0x3 PUSH0 DUP4 PUSH20 0xFFFFFFFFFFFFFFFFFFFFFFFFFFFFFFFFFFFFFFFF AND PUSH20 0xFFFFFFFFFFFFFFFFFFFFFFFFFFFFFFFFFFFFFFFF AND DUP2 MSTORE PUSH1 0x20 ADD SWAP1 DUP2 MSTORE PUSH1 0x20 ADD PUSH0 KECCAK256 PUSH0 PUSH2 0x100 EXP DUP2 SLOAD DUP2 PUSH1 0xFF MUL NOT AND SWAP1 DUP4 ISZERO ISZERO MUL OR SWAP1 SSTORE POP DUP1 PUSH20 0xFFFFFFFFFFFFFFFFFFFFFFFFFFFFFFFFFFFFFFFF AND PUSH32 0x235BC17E7930760029E9F4D860A2A8089976DE5B381CF8380FC11C1D88A11133 PUSH1 0x1 PUSH1 0x40 MLOAD PUSH2 0xA7E SWAP2 SWAP1 PUSH2 0x131F JUMP JUMPDEST PUSH1 0x40 MLOAD DUP1 SWAP2 SUB SWAP1 LOG2 POP JUMP JUMPDEST PUSH0 DUP1 SLOAD SWAP1 PUSH2 0x100 EXP SWAP1 DIV PUSH20 0xFFFFFFFFFFFFFFFFFFFFFFFFFFFFFFFFFFFFFFFF AND DUP2 JUMP JUMPDEST PUSH2 0xAB7 DUP3 DUP3 CALLER PUSH2 0xD16 JUMP JUMPDEST PUSH2 0xAF6 JUMPI PUSH1 0x40 MLOAD PUSH32 0x8C379A000000000000000000000000000000000000000000000000000000000 DUP2 MSTORE PUSH1 0x4 ADD PUSH2 0xAED SWAP1 PUSH2 0x1808 JUMP JUMPDEST PUSH1 0x40 MLOAD DUP1 SWAP2 SUB SWAP1 REVERT JUMPDEST PUSH0 PUSH1 0x4 PUSH0 CALLER PUSH20 0xFFFFFFFFFFFFFFFFFFFFFFFFFFFFFFFFFFFFFFFF AND PUSH20 0xFFFFFFFFFFFFFFFFFFFFFFFFFFFFFFFFFFFFFFFF AND DUP2 MSTORE PUSH1 0x20 ADD SWAP1 DUP2 MSTORE PUSH1 0x20 ADD PUSH0 KECCAK256 SLOAD SUB PUSH2 0xC2B JUMPI TIMESTAMP PUSH1 0x4 PUSH0 CALLER PUSH20 0xFFFFFFFFFFFFFFFFFFFFFFFFFFFFFFFFFFFFFFFF AND PUSH20 0xFFFFFFFFFFFFFFFFFFFFFFFFFFFFFFFFFFFFFFFF AND DUP2 MSTORE PUSH1 0x20 ADD SWAP1 DUP2 MSTORE PUSH1 0x20 ADD PUSH0 KECCAK256 DUP2 SWAP1 SSTORE POP PUSH1 0x5 CALLER SWAP1 DUP1 PUSH1 0x1 DUP2 SLOAD ADD DUP1 DUP3 SSTORE DUP1 SWAP2 POP POP PUSH1 0x1 SWAP1 SUB SWAP1 PUSH0 MSTORE PUSH1 0x20 PUSH0 KECCAK256 ADD PUSH0 SWAP1 SWAP2 SWAP1 SWAP2 SWAP1 SWAP2 PUSH2 0x100 EXP DUP2 SLOAD DUP2 PUSH20 0xFFFFFFFFFFFFFFFFFFFFFFFFFFFFFFFFFFFFFFFF MUL NOT AND SWAP1 DUP4 PUSH20 0xFFFFFFFFFFFFFFFFFFFFFFFFFFFFFFFFFFFFFFFF AND MUL OR SWAP1 SSTORE POP CALLER PUSH20 0xFFFFFFFFFFFFFFFFFFFFFFFFFFFFFFFFFFFFFFFF AND PUSH32 0xA49883CA390454A7AD754A5C01F6B92C7467A5DAA38C2A935FBFB93F8BB2530F TIMESTAMP PUSH1 0x40 MLOAD PUSH2 0xC22 SWAP2 SWAP1 PUSH2 0x139C JUMP JUMPDEST PUSH1 0x40 MLOAD DUP1 SWAP2 SUB SWAP1 LOG2 JUMPDEST POP POP JUMP JUMPDEST PUSH2 0xC3A DUP3 DUP3 CALLER PUSH2 0xD16 JUMP JUMPDEST PUSH2 0xC79 JUMPI PUSH1 0x40 MLOAD PUSH32 0x8C379A000000000000000000000000000000000000000000000000000000000 DUP2 MSTORE PUSH1 0x4 ADD PUSH2 0xC70 SWAP1 PUSH2 0x1808 JUMP JUMPDEST PUSH1 0x40 MLOAD DUP1 SWAP2 SUB SWAP1 REVERT JUMPDEST PUSH1 0x1 PUSH1 0x6 PUSH0 DUP3 DUP3 SLOAD PUSH2 0xC8B SWAP2 SWAP1 PUSH2 0x1853 JUMP JUMPDEST SWAP3 POP POP DUP2 SWAP1 SSTORE POP CALLER PUSH20 0xFFFFFFFFFFFFFFFFFFFFFFFFFFFFFFFFFFFFFFFF AND PUSH32 0xDA29567229E1B858992F983785638370913B8134292EEA489D9CCFC8F9711D98 TIMESTAMP PUSH1 0x40 MLOAD PUSH2 0xCD8 SWAP2 SWAP1 PUSH2 0x139C JUMP JUMPDEST PUSH1 0x40 MLOAD DUP1 SWAP2 SUB SWAP1 LOG2 POP POP JUMP JUMPDEST PUSH1 0x4 PUSH1 0x20 MSTORE DUP1 PUSH0 MSTORE PUSH1 0x40 PUSH0 KECCAK256 PUSH0 SWAP2 POP SWAP1 POP SLOAD DUP2 JUMP JUMPDEST PUSH1 0x2 PUSH1 0x20 MSTORE DUP1 PUSH0 MSTORE PUSH1 0x40 PUSH0 KECCAK256 PUSH0 SWAP2 POP SLOAD SWAP1 PUSH2 0x100 EXP SWAP1 DIV PUSH1 0xFF AND DUP2 JUMP JUMPDEST PUSH0 PUSH1 0x2 PUSH0 DUP4 PUSH20 0xFFFFFFFFFFFFFFFFFFFFFFFFFFFFFFFFFFFFFFFF AND PUSH20 0xFFFFFFFFFFFFFFFFFFFFFFFFFFFFFFFFFFFFFFFF AND DUP2 MSTORE PUSH1 0x20 ADD SWAP1 DUP2 MSTORE PUSH1 0x20 ADD PUSH0 KECCAK256 PUSH0 SWAP1 SLOAD SWAP1 PUSH2 0x100 EXP SWAP1 DIV PUSH1 0xFF AND ISZERO PUSH2 0xD6F JUMPI PUSH1 0x1 SWAP1 POP PUSH2 0xDEA JUMP JUMPDEST PUSH0 DUP3 PUSH1 0x40 MLOAD PUSH1 0x20 ADD PUSH2 0xD81 SWAP2 SWAP1 PUSH2 0x18CB JUMP JUMPDEST PUSH1 0x40 MLOAD PUSH1 0x20 DUP2 DUP4 SUB SUB DUP2 MSTORE SWAP1 PUSH1 0x40 MSTORE DUP1 MLOAD SWAP1 PUSH1 0x20 ADD KECCAK256 SWAP1 POP PUSH2 0xDE6 DUP6 DUP6 DUP1 DUP1 PUSH1 0x20 MUL PUSH1 0x20 ADD PUSH1 0x40 MLOAD SWAP1 DUP2 ADD PUSH1 0x40 MSTORE DUP1 SWAP4 SWAP3 SWAP2 SWAP1 DUP2 DUP2 MSTORE PUSH1 0x20 ADD DUP4 DUP4 PUSH1 0x20 MUL DUP1 DUP3 DUP5 CALLDATACOPY PUSH0 DUP2 DUP5 ADD MSTORE PUSH1 0x1F NOT PUSH1 0x1F DUP3 ADD AND SWAP1 POP DUP1 DUP4 ADD SWAP3 POP POP POP POP POP POP POP PUSH1 0x1 SLOAD DUP4 PUSH2 0x10E6 JUMP JUMPDEST SWAP2 POP POP JUMPDEST SWAP4 SWAP3 POP POP POP JUMP JUMPDEST PUSH1 0x3 PUSH0 CALLER PUSH20 0xFFFFFFFFFFFFFFFFFFFFFFFFFFFFFFFFFFFFFFFF AND PUSH20 0xFFFFFFFFFFFFFFFFFFFFFFFFFFFFFFFFFFFFFFFF AND DUP2 MSTORE PUSH1 0x20 ADD SWAP1 DUP2 MSTORE PUSH1 0x20 ADD PUSH0 KECCAK256 PUSH0 SWAP1 SLOAD SWAP1 PUSH2 0x100 EXP SWAP1 DIV PUSH1 0xFF AND DUP1 PUSH2 0xE90 JUMPI POP PUSH0 DUP1 SLOAD SWAP1 PUSH2 0x100 EXP SWAP1 DIV PUSH20 0xFFFFFFFFFFFFFFFFFFFFFFFFFFFFFFFFFFFFFFFF AND PUSH20 0xFFFFFFFFFFFFFFFFFFFFFFFFFFFFFFFFFFFFFFFF AND CALLER PUSH20 0xFFFFFFFFFFFFFFFFFFFFFFFFFFFFFFFFFFFFFFFF AND EQ JUMPDEST PUSH2 0xECF JUMPI PUSH1 0x40 MLOAD PUSH32 0x8C379A000000000000000000000000000000000000000000000000000000000 DUP2 MSTORE PUSH1 0x4 ADD PUSH2 0xEC6 SWAP1 PUSH2 0x170B JUMP JUMPDEST PUSH1 0x40 MLOAD DUP1 SWAP2 SUB SWAP1 REVERT JUMPDEST PUSH1 0x2 PUSH0 DUP3 PUSH20 0xFFFFFFFFFFFFFFFFFFFFFFFFFFFFFFFFFFFFFFFF AND PUSH20 0xFFFFFFFFFFFFFFFFFFFFFFFFFFFFFFFFFFFFFFFF AND DUP2 MSTORE PUSH1 0x20 ADD SWAP1 DUP2 MSTORE PUSH1 0x20 ADD PUSH0 KECCAK256 PUSH0 SWAP1 SLOAD SWAP1 PUSH2 0x100 EXP SWAP1 DIV PUSH1 0xFF AND ISZERO PUSH2 0xF59 JUMPI PUSH1 0x40 MLOAD PUSH32 0x8C379A000000000000000000000000000000000000000000000000000000000 DUP2 MSTORE PUSH1 0x4 ADD PUSH2 0xF50 SWAP1 PUSH2 0x1955 JUMP JUMPDEST PUSH1 0x40 MLOAD DUP1 SWAP2 SUB SWAP1 REVERT JUMPDEST PUSH1 0x1 PUSH1 0x2 PUSH0 DUP4 PUSH20 0xFFFFFFFFFFFFFFFFFFFFFFFFFFFFFFFFFFFFFFFF AND PUSH20 0xFFFFFFFFFFFFFFFFFFFFFFFFFFFFFFFFFFFFFFFF AND DUP2 MSTORE PUSH1 0x20 ADD SWAP1 DUP2 MSTORE PUSH1 0x20 ADD PUSH0 KECCAK256 PUSH0 PUSH2 0x100 EXP DUP2 SLOAD DUP2 PUSH1 0xFF MUL NOT AND SWAP1 DUP4 ISZERO ISZERO MUL OR SWAP1 SSTORE POP PUSH0 PUSH1 0x4 PUSH0 DUP4 PUSH20 0xFFFFFFFFFFFFFFFFFFFFFFFFFFFFFFFFFFFFFFFF AND PUSH20 0xFFFFFFFFFFFFFFFFFFFFFFFFFFFFFFFFFFFFFFFF AND DUP2 MSTORE PUSH1 0x20 ADD SWAP1 DUP2 MSTORE PUSH1 0x20 ADD PUSH0 KECCAK256 SLOAD SUB PUSH2 0x1095 JUMPI TIMESTAMP PUSH1 0x4 PUSH0 DUP4 PUSH20 0xFFFFFFFFFFFFFFFFFFFFFFFFFFFFFFFFFFFFFFFF AND PUSH20 0xFFFFFFFFFFFFFFFFFFFFFFFFFFFFFFFFFFFFFFFF AND DUP2 MSTORE PUSH1 0x20 ADD SWAP1 DUP2 MSTORE PUSH1 0x20 ADD PUSH0 KECCAK256 DUP2 SWAP1 SSTORE POP PUSH1 0x5 DUP2 SWAP1 DUP1 PUSH1 0x1 DUP2 SLOAD ADD DUP1 DUP3 SSTORE DUP1 SWAP2 POP POP PUSH1 0x1 SWAP1 SUB SWAP1 PUSH0 MSTORE PUSH1 0x20 PUSH0 KECCAK256 ADD PUSH0 SWAP1 SWAP2 SWAP1 SWAP2 SWAP1 SWAP2 PUSH2 0x100 EXP DUP2 SLOAD DUP2 PUSH20 0xFFFFFFFFFFFFFFFFFFFFFFFFFFFFFFFFFFFFFFFF MUL NOT AND SWAP1 DUP4 PUSH20 0xFFFFFFFFFFFFFFFFFFFFFFFFFFFFFFFFFFFFFFFF AND MUL OR SWAP1 SSTORE POP JUMPDEST DUP1 PUSH20 0xFFFFFFFFFFFFFFFFFFFFFFFFFFFFFFFFFFFFFFFF AND PUSH32 0xA49883CA390454A7AD754A5C01F6B92C7467A5DAA38C2A935FBFB93F8BB2530F TIMESTAMP PUSH1 0x40 MLOAD PUSH2 0x10DB SWAP2 SWAP1 PUSH2 0x139C JUMP JUMPDEST PUSH1 0x40 MLOAD DUP1 SWAP2 SUB SWAP1 LOG2 POP JUMP JUMPDEST PUSH0 DUP3 PUSH2 0x10F2 DUP6 DUP5 PUSH2 0x10FC JUMP JUMPDEST EQ SWAP1 POP SWAP4 SWAP3 POP POP POP JUMP JUMPDEST PUSH0 DUP1 DUP3 SWAP1 POP PUSH0 JUMPDEST DUP5 MLOAD DUP2 LT ISZERO PUSH2 0x113F JUMPI PUSH2 0x1130 DUP3 DUP7 DUP4 DUP2 MLOAD DUP2 LT PUSH2 0x1123 JUMPI PUSH2 0x1122 PUSH2 0x1729 JUMP JUMPDEST JUMPDEST PUSH1 0x20 MUL PUSH1 0x20 ADD ADD MLOAD PUSH2 0x114A JUMP JUMPDEST SWAP2 POP DUP1 DUP1 PUSH1 0x1 ADD SWAP2 POP POP PUSH2 0x1103 JUMP JUMPDEST POP DUP1 SWAP2 POP POP SWAP3 SWAP2 POP POP JUMP JUMPDEST PUSH0 DUP2 DUP4 LT PUSH2 0x1161 JUMPI PUSH2 0x115C DUP3 DUP5 PUSH2 0x1174 JUMP JUMPDEST PUSH2 0x116C JUMP JUMPDEST PUSH2 0x116B DUP4 DUP4 PUSH2 0x1174 JUMP JUMPDEST JUMPDEST SWAP1 POP SWAP3 SWAP2 POP POP JUMP JUMPDEST PUSH0 DUP3 PUSH0 MSTORE DUP2 PUSH1 0x20 MSTORE PUSH1 0x40 PUSH0 KECCAK256 SWAP1 POP SWAP3 SWAP2 POP POP JUMP JUMPDEST POP DUP1 SLOAD PUSH0 DUP3 SSTORE SWAP1 PUSH0 MSTORE PUSH1 0x20 PUSH0 KECCAK256 SWAP1 DUP2 ADD SWAP1 PUSH2 0x11A3 SWAP2 SWAP1 PUSH2 0x11A6 JUMP JUMPDEST POP JUMP JUMPDEST JUMPDEST DUP1 DUP3 GT ISZERO PUSH2 0x11BD JUMPI PUSH0 DUP2 PUSH0 SWAP1 SSTORE POP PUSH1 0x1 ADD PUSH2 0x11A7 JUMP JUMPDEST POP SWAP1 JUMP JUMPDEST PUSH0 DUP1 REVERT JUMPDEST PUSH0 DUP1 REVERT JUMPDEST PUSH0 DUP2 SWAP1 POP SWAP2 SWAP1 POP JUMP JUMPDEST PUSH2 0x11DB DUP2 PUSH2 0x11C9 JUMP JUMPDEST DUP2 EQ PUSH2 0x11E5 JUMPI PUSH0 DUP1 REVERT JUMPDEST POP JUMP JUMPDEST PUSH0 DUP2 CALLDATALOAD SWAP1 POP PUSH2 0x11F6 DUP2 PUSH2 0x11D2 JUMP JUMPDEST SWAP3 SWAP2 POP POP JUMP JUMPDEST PUSH0 PUSH1 0x20 DUP3 DUP5 SUB SLT ISZERO PUSH2 0x1211 JUMPI PUSH2 0x1210 PUSH2 0x11C1 JUMP JUMPDEST JUMPDEST PUSH0 PUSH2 0x121E DUP5 DUP3 DUP6 ADD PUSH2 0x11E8 JUMP JUMPDEST SWAP2 POP POP SWAP3 SWAP2 POP POP JUMP JUMPDEST PUSH0 PUSH20 0xFFFFFFFFFFFFFFFFFFFFFFFFFFFFFFFFFFFFFFFF DUP3 AND SWAP1 POP SWAP2 SWAP1 POP JUMP JUMPDEST PUSH0 PUSH2 0x1250 DUP3 PUSH2 0x1227 JUMP JUMPDEST SWAP1 POP SWAP2 SWAP1 POP JUMP JUMPDEST PUSH2 0x1260 DUP2 PUSH2 0x1246 JUMP JUMPDEST DUP3 MSTORE POP POP JUMP JUMPDEST PUSH0 PUSH1 0x20 DUP3 ADD SWAP1 POP PUSH2 0x1279 PUSH0 DUP4 ADD DUP5 PUSH2 0x1257 JUMP JUMPDEST SWAP3 SWAP2 POP POP JUMP JUMPDEST PUSH2 0x1288 DUP2 PUSH2 0x1246 JUMP JUMPDEST DUP2 EQ PUSH2 0x1292 JUMPI PUSH0 DUP1 REVERT JUMPDEST POP JUMP JUMPDEST PUSH0 DUP2 CALLDATALOAD SWAP1 POP PUSH2 0x12A3 DUP2 PUSH2 0x127F JUMP JUMPDEST SWAP3 SWAP2 POP POP JUMP JUMPDEST PUSH0 PUSH1 0x20 DUP3 DUP5 SUB SLT ISZERO PUSH2 0x12BE JUMPI PUSH2 0x12BD PUSH2 0x11C1 JUMP JUMPDEST JUMPDEST PUSH0 PUSH2 0x12CB DUP5 DUP3 DUP6 ADD PUSH2 0x1295 JUMP JUMPDEST SWAP2 POP POP SWAP3 SWAP2 POP POP JUMP JUMPDEST PUSH0 DUP2 SWAP1 POP SWAP2 SWAP1 POP JUMP JUMPDEST PUSH2 0x12E6 DUP2 PUSH2 0x12D4 JUMP JUMPDEST DUP3 MSTORE POP POP JUMP JUMPDEST PUSH0 PUSH1 0x20 DUP3 ADD SWAP1 POP PUSH2 0x12FF PUSH0 DUP4 ADD DUP5 PUSH2 0x12DD JUMP JUMPDEST SWAP3 SWAP2 POP POP JUMP JUMPDEST PUSH0 DUP2 ISZERO ISZERO SWAP1 POP SWAP2 SWAP1 POP JUMP JUMPDEST PUSH2 0x1319 DUP2 PUSH2 0x1305 JUMP JUMPDEST DUP3 MSTORE POP POP JUMP JUMPDEST PUSH0 PUSH1 0x20 DUP3 ADD SWAP1 POP PUSH2 0x1332 PUSH0 DUP4 ADD DUP5 PUSH2 0x1310 JUMP JUMPDEST SWAP3 SWAP2 POP POP JUMP JUMPDEST PUSH2 0x1341 DUP2 PUSH2 0x12D4 JUMP JUMPDEST DUP2 EQ PUSH2 0x134B JUMPI PUSH0 DUP1 REVERT JUMPDEST POP JUMP JUMPDEST PUSH0 DUP2 CALLDATALOAD SWAP1 POP PUSH2 0x135C DUP2 PUSH2 0x1338 JUMP JUMPDEST SWAP3 SWAP2 POP POP JUMP JUMPDEST PUSH0 PUSH1 0x20 DUP3 DUP5 SUB SLT ISZERO PUSH2 0x1377 JUMPI PUSH2 0x1376 PUSH2 0x11C1 JUMP JUMPDEST JUMPDEST PUSH0 PUSH2 0x1384 DUP5 DUP3 DUP6 ADD PUSH2 0x134E JUMP JUMPDEST SWAP2 POP POP SWAP3 SWAP2 POP POP JUMP JUMPDEST PUSH2 0x1396 DUP2 PUSH2 0x11C9 JUMP JUMPDEST DUP3 MSTORE POP POP JUMP JUMPDEST PUSH0 PUSH1 0x20 DUP3 ADD SWAP1 POP PUSH2 0x13AF PUSH0 DUP4 ADD DUP5 PUSH2 0x138D JUMP JUMPDEST SWAP3 SWAP2 POP POP JUMP JUMPDEST PUSH0 DUP2 MLOAD SWAP1 POP SWAP2 SWAP1 POP JUMP JUMPDEST PUSH0 DUP3 DUP3 MSTORE PUSH1 0x20 DUP3 ADD SWAP1 POP SWAP3 SWAP2 POP POP JUMP JUMPDEST PUSH0 DUP2 SWAP1 POP PUSH1 0x20 DUP3 ADD SWAP1 POP SWAP2 SWAP1 POP JUMP JUMPDEST PUSH2 0x13E7 DUP2 PUSH2 0x1246 JUMP JUMPDEST DUP3 MSTORE POP POP JUMP JUMPDEST PUSH0 PUSH2 0x13F8 DUP4 DUP4 PUSH2 0x13DE JUMP JUMPDEST PUSH1 0x20 DUP4 ADD SWAP1 POP SWAP3 SWAP2 POP POP JUMP JUMPDEST PUSH0 PUSH1 0x20 DUP3 ADD SWAP1 POP SWAP2 SWAP1 POP JUMP JUMPDEST PUSH0 PUSH2 0x141A DUP3 PUSH2 0x13B5 JUMP JUMPDEST PUSH2 0x1424 DUP2 DUP6 PUSH2 0x13BF JUMP JUMPDEST SWAP4 POP PUSH2 0x142F DUP4 PUSH2 0x13CF JUMP JUMPDEST DUP1 PUSH0 JUMPDEST DUP4 DUP2 LT ISZERO PUSH2 0x145F JUMPI DUP2 MLOAD PUSH2 0x1446 DUP9 DUP3 PUSH2 0x13ED JUMP JUMPDEST SWAP8 POP PUSH2 0x1451 DUP4 PUSH2 0x1404 JUMP JUMPDEST SWAP3 POP POP PUSH1 0x1 DUP2 ADD SWAP1 POP PUSH2 0x1432 JUMP JUMPDEST POP DUP6 SWAP4 POP POP POP POP SWAP3 SWAP2 POP POP JUMP JUMPDEST PUSH0 PUSH1 0x20 DUP3 ADD SWAP1 POP DUP2 DUP2 SUB PUSH0 DUP4 ADD MSTORE PUSH2 0x1484 DUP2 DUP5 PUSH2 0x1410 JUMP JUMPDEST SWAP1 POP SWAP3 SWAP2 POP POP JUMP JUMPDEST PUSH0 DUP1 REVERT JUMPDEST PUSH0 DUP1 REVERT JUMPDEST PUSH0 DUP1 REVERT JUMPDEST PUSH0 DUP1 DUP4 PUSH1 0x1F DUP5 ADD SLT PUSH2 0x14AD JUMPI PUSH2 0x14AC PUSH2 0x148C JUMP JUMPDEST JUMPDEST DUP3 CALLDATALOAD SWAP1 POP PUSH8 0xFFFFFFFFFFFFFFFF DUP2 GT ISZERO PUSH2 0x14CA JUMPI PUSH2 0x14C9 PUSH2 0x1490 JUMP JUMPDEST JUMPDEST PUSH1 0x20 DUP4 ADD SWAP2 POP DUP4 PUSH1 0x20 DUP3 MUL DUP4 ADD GT ISZERO PUSH2 0x14E6 JUMPI PUSH2 0x14E5 PUSH2 0x1494 JUMP JUMPDEST JUMPDEST SWAP3 POP SWAP3 SWAP1 POP JUMP JUMPDEST PUSH0 DUP1 PUSH1 0x20 DUP4 DUP6 SUB SLT ISZERO PUSH2 0x1503 JUMPI PUSH2 0x1502 PUSH2 0x11C1 JUMP JUMPDEST JUMPDEST PUSH0 DUP4 ADD CALLDATALOAD PUSH8 0xFFFFFFFFFFFFFFFF DUP2 GT ISZERO PUSH2 0x1520 JUMPI PUSH2 0x151F PUSH2 0x11C5 JUMP JUMPDEST JUMPDEST PUSH2 0x152C DUP6 DUP3 DUP7 ADD PUSH2 0x1498 JUMP JUMPDEST SWAP3 POP SWAP3 POP POP SWAP3 POP SWAP3 SWAP1 POP JUMP JUMPDEST PUSH0 DUP1 PUSH0 PUSH1 0x40 DUP5 DUP7 SUB SLT ISZERO PUSH2 0x154F JUMPI PUSH2 0x154E PUSH2 0x11C1 JUMP JUMPDEST JUMPDEST PUSH0 DUP5 ADD CALLDATALOAD PUSH8 0xFFFFFFFFFFFFFFFF DUP2 GT ISZERO PUSH2 0x156C JUMPI PUSH2 0x156B PUSH2 0x11C5 JUMP JUMPDEST JUMPDEST PUSH2 0x1578 DUP7 DUP3 DUP8 ADD PUSH2 0x1498 JUMP JUMPDEST SWAP4 POP SWAP4 POP POP PUSH1 0x20 PUSH2 0x158B DUP7 DUP3 DUP8 ADD PUSH2 0x1295 JUMP JUMPDEST SWAP2 POP POP SWAP3 POP SWAP3 POP SWAP3 JUMP JUMPDEST PUSH0 DUP3 DUP3 MSTORE PUSH1 0x20 DUP3 ADD SWAP1 POP SWAP3 SWAP2 POP POP JUMP JUMPDEST PUSH32 0x4F6E6C7920746865206F776E65722063616E20706572666F726D207468697320 PUSH0 DUP3 ADD MSTORE PUSH32 0x616374696F6E0000000000000000000000000000000000000000000000000000 PUSH1 0x20 DUP3 ADD MSTORE POP JUMP JUMPDEST PUSH0 PUSH2 0x15FF PUSH1 0x26 DUP4 PUSH2 0x1595 JUMP JUMPDEST SWAP2 POP PUSH2 0x160A DUP3 PUSH2 0x15A5 JUMP JUMPDEST PUSH1 0x40 DUP3 ADD SWAP1 POP SWAP2 SWAP1 POP JUMP JUMPDEST PUSH0 PUSH1 0x20 DUP3 ADD SWAP1 POP DUP2 DUP2 SUB PUSH0 DUP4 ADD MSTORE PUSH2 0x162C DUP2 PUSH2 0x15F3 JUMP JUMPDEST SWAP1 POP SWAP2 SWAP1 POP JUMP JUMPDEST PUSH32 0x41646472657373206973206E6F7420616E2061646D696E000000000000000000 PUSH0 DUP3 ADD MSTORE POP JUMP JUMPDEST PUSH0 PUSH2 0x1667 PUSH1 0x17 DUP4 PUSH2 0x1595 JUMP JUMPDEST SWAP2 POP PUSH2 0x1672 DUP3 PUSH2 0x1633 JUMP JUMPDEST PUSH1 0x20 DUP3 ADD SWAP1 POP SWAP2 SWAP1 POP JUMP JUMPDEST PUSH0 PUSH1 0x20 DUP3 ADD SWAP1 POP DUP2 DUP2 SUB PUSH0 DUP4 ADD MSTORE PUSH2 0x1694 DUP2 PUSH2 0x165B JUMP JUMPDEST SWAP1 POP SWAP2 SWAP1 POP JUMP JUMPDEST PUSH32 0x4F6E6C7920616E2061646D696E2063616E20706572666F726D20746869732061 PUSH0 DUP3 ADD MSTORE PUSH32 0x6374696F6E000000000000000000000000000000000000000000000000000000 PUSH1 0x20 DUP3 ADD MSTORE POP JUMP JUMPDEST PUSH0 PUSH2 0x16F5 PUSH1 0x25 DUP4 PUSH2 0x1595 JUMP JUMPDEST SWAP2 POP PUSH2 0x1700 DUP3 PUSH2 0x169B JUMP JUMPDEST PUSH1 0x40 DUP3 ADD SWAP1 POP SWAP2 SWAP1 POP JUMP JUMPDEST PUSH0 PUSH1 0x20 DUP3 ADD SWAP1 POP DUP2 DUP2 SUB PUSH0 DUP4 ADD MSTORE PUSH2 0x1722 DUP2 PUSH2 0x16E9 JUMP JUMPDEST SWAP1 POP SWAP2 SWAP1 POP JUMP JUMPDEST PUSH32 0x4E487B7100000000000000000000000000000000000000000000000000000000 PUSH0 MSTORE PUSH1 0x32 PUSH1 0x4 MSTORE PUSH1 0x24 PUSH0 REVERT JUMPDEST PUSH32 0x4164647265737320697320616C726561647920616E2061646D696E0000000000 PUSH0 DUP3 ADD MSTORE POP JUMP JUMPDEST PUSH0 PUSH2 0x178A PUSH1 0x1B DUP4 PUSH2 0x1595 JUMP JUMPDEST SWAP2 POP PUSH2 0x1795 DUP3 PUSH2 0x1756 JUMP JUMPDEST PUSH1 0x20 DUP3 ADD SWAP1 POP SWAP2 SWAP1 POP JUMP JUMPDEST PUSH0 PUSH1 0x20 DUP3 ADD SWAP1 POP DUP2 DUP2 SUB PUSH0 DUP4 ADD MSTORE PUSH2 0x17B7 DUP2 PUSH2 0x177E JUMP JUMPDEST SWAP1 POP SWAP2 SWAP1 POP JUMP JUMPDEST PUSH32 0x43616C6C6572206973206E6F742077686974656C697374656400000000000000 PUSH0 DUP3 ADD MSTORE POP JUMP JUMPDEST PUSH0 PUSH2 0x17F2 PUSH1 0x19 DUP4 PUSH2 0x1595 JUMP JUMPDEST SWAP2 POP PUSH2 0x17FD DUP3 PUSH2 0x17BE JUMP JUMPDEST PUSH1 0x20 DUP3 ADD SWAP1 POP SWAP2 SWAP1 POP JUMP JUMPDEST PUSH0 PUSH1 0x20 DUP3 ADD SWAP1 POP DUP2 DUP2 SUB PUSH0 DUP4 ADD MSTORE PUSH2 0x181F DUP2 PUSH2 0x17E6 JUMP JUMPDEST SWAP1 POP SWAP2 SWAP1 POP JUMP JUMPDEST PUSH32 0x4E487B7100000000000000000000000000000000000000000000000000000000 PUSH0 MSTORE PUSH1 0x11 PUSH1 0x4 MSTORE PUSH1 0x24 PUSH0 REVERT JUMPDEST PUSH0 PUSH2 0x185D DUP3 PUSH2 0x11C9 JUMP JUMPDEST SWAP2 POP PUSH2 0x1868 DUP4 PUSH2 0x11C9 JUMP JUMPDEST SWAP3 POP DUP3 DUP3 ADD SWAP1 POP DUP1 DUP3 GT ISZERO PUSH2 0x1880 JUMPI PUSH2 0x187F PUSH2 0x1826 JUMP JUMPDEST JUMPDEST SWAP3 SWAP2 POP POP JUMP JUMPDEST PUSH0 DUP2 PUSH1 0x60 SHL SWAP1 POP SWAP2 SWAP1 POP JUMP JUMPDEST PUSH0 PUSH2 0x189C DUP3 PUSH2 0x1886 JUMP JUMPDEST SWAP1 POP SWAP2 SWAP1 POP JUMP JUMPDEST PUSH0 PUSH2 0x18AD DUP3 PUSH2 0x1892 JUMP JUMPDEST SWAP1 POP SWAP2 SWAP1 POP JUMP JUMPDEST PUSH2 0x18C5 PUSH2 0x18C0 DUP3 PUSH2 0x1246 JUMP JUMPDEST PUSH2 0x18A3 JUMP JUMPDEST DUP3 MSTORE POP POP JUMP JUMPDEST PUSH0 PUSH2 0x18D6 DUP3 DUP5 PUSH2 0x18B4 JUMP JUMPDEST PUSH1 0x14 DUP3 ADD SWAP2 POP DUP2 SWAP1 POP SWAP3 SWAP2 POP POP JUMP JUMPDEST PUSH32 0x4164647265737320697320616C7265616479206D616E75616C6C792077686974 PUSH0 DUP3 ADD MSTORE PUSH32 0x656C697374656400000000000000000000000000000000000000000000000000 PUSH1 0x20 DUP3 ADD MSTORE POP JUMP JUMPDEST PUSH0 PUSH2 0x193F PUSH1 0x27 DUP4 PUSH2 0x1595 JUMP JUMPDEST SWAP2 POP PUSH2 0x194A DUP3 PUSH2 0x18E5 JUMP JUMPDEST PUSH1 0x40 DUP3 ADD SWAP1 POP SWAP2 SWAP1 POP JUMP JUMPDEST PUSH0 PUSH1 0x20 DUP3 ADD SWAP1 POP DUP2 DUP2 SUB PUSH0 DUP4 ADD MSTORE PUSH2 0x196C DUP2 PUSH2 0x1933 JUMP JUMPDEST SWAP1 POP SWAP2 SWAP1 POP JUMP INVALID LOG2 PUSH5 0x6970667358 0x22 SLT KECCAK256 0xE9 PUSH12 0x2FCFFBFC9641BAB3EAEC0367 PUSH19 0x579DB9672CB23C22A03CF8A41F25DA31556473 PUSH16 0x6C634300081A00330000000000000000 "
				},
				"gasEstimates": {
					"creation": {
						"codeDepositCost": "1313800",
						"executionCost": "infinite",
						"totalCost": "infinite"
					},
					"external": {
						"addAdmin(address)": "30813",
						"addToWhitelist(address)": "106102",
						"admins(address)": "2856",
						"getWhitelistedAccounts()": "infinite",
						"isWhitelisted(bytes32[],address)": "infinite",
						"manualWhitelist(address)": "2877",
						"merkleRoot()": "2493",
						"owner()": "2550",
						"removeAdmin(address)": "30831",
						"signDocument(bytes32[])": "infinite",
						"totalDocumentsSigned()": "2492",
						"updateMerkleRoot(bytes32)": "infinite",
						"whitelistAndTrack(bytes32[])": "infinite",
						"whitelistTimestamp(address)": "2824",
						"whitelistedAccounts(uint256)": "4968"
					}
				},
				"methodIdentifiers": {
					"addAdmin(address)": "70480275",
					"addToWhitelist(address)": "e43252d7",
					"admins(address)": "429b62e5",
					"getWhitelistedAccounts()": "5c9c66c6",
					"isWhitelisted(bytes32[],address)": "debefaa6",
					"manualWhitelist(address)": "d9e9c978",
					"merkleRoot()": "2eb4a7ab",
					"owner()": "8da5cb5b",
					"removeAdmin(address)": "1785f53c",
					"signDocument(bytes32[])": "a407e496",
					"totalDocumentsSigned()": "5a521883",
					"updateMerkleRoot(bytes32)": "4783f0ef",
					"whitelistAndTrack(bytes32[])": "956aad88",
					"whitelistTimestamp(address)": "a4ec8d22",
					"whitelistedAccounts(uint256)": "0b207ec9"
				}
			},
			"storageLayout": {
				"storage": [
					{
						"astId": 1118,
						"contract": "contracts/Te.sol:MerkleDocumentSigning",
						"label": "owner",
						"offset": 0,
						"slot": "0",
						"type": "t_address"
					},
					{
						"astId": 1120,
						"contract": "contracts/Te.sol:MerkleDocumentSigning",
						"label": "merkleRoot",
						"offset": 0,
						"slot": "1",
						"type": "t_bytes32"
					},
					{
						"astId": 1124,
						"contract": "contracts/Te.sol:MerkleDocumentSigning",
						"label": "manualWhitelist",
						"offset": 0,
						"slot": "2",
						"type": "t_mapping(t_address,t_bool)"
					},
					{
						"astId": 1128,
						"contract": "contracts/Te.sol:MerkleDocumentSigning",
						"label": "admins",
						"offset": 0,
						"slot": "3",
						"type": "t_mapping(t_address,t_bool)"
					},
					{
						"astId": 1132,
						"contract": "contracts/Te.sol:MerkleDocumentSigning",
						"label": "whitelistTimestamp",
						"offset": 0,
						"slot": "4",
						"type": "t_mapping(t_address,t_uint256)"
					},
					{
						"astId": 1135,
						"contract": "contracts/Te.sol:MerkleDocumentSigning",
						"label": "whitelistedAccounts",
						"offset": 0,
						"slot": "5",
						"type": "t_array(t_address)dyn_storage"
					},
					{
						"astId": 1137,
						"contract": "contracts/Te.sol:MerkleDocumentSigning",
						"label": "totalDocumentsSigned",
						"offset": 0,
						"slot": "6",
						"type": "t_uint256"
					}
				],
				"types": {
					"t_address": {
						"encoding": "inplace",
						"label": "address",
						"numberOfBytes": "20"
					},
					"t_array(t_address)dyn_storage": {
						"base": "t_address",
						"encoding": "dynamic_array",
						"label": "address[]",
						"numberOfBytes": "32"
					},
					"t_bool": {
						"encoding": "inplace",
						"label": "bool",
						"numberOfBytes": "1"
					},
					"t_bytes32": {
						"encoding": "inplace",
						"label": "bytes32",
						"numberOfBytes": "32"
					},
					"t_mapping(t_address,t_bool)": {
						"encoding": "mapping",
						"key": "t_address",
						"label": "mapping(address => bool)",
						"numberOfBytes": "32",
						"value": "t_bool"
					},
					"t_mapping(t_address,t_uint256)": {
						"encoding": "mapping",
						"key": "t_address",
						"label": "mapping(address => uint256)",
						"numberOfBytes": "32",
						"value": "t_uint256"
					},
					"t_uint256": {
						"encoding": "inplace",
						"label": "uint256",
						"numberOfBytes": "32"
					}
				}
			},
			"userdoc": {
				"kind": "user",
				"methods": {
					"updateMerkleRoot(bytes32)": {
						"notice": "Resets the manual whitelist and whitelistedAccounts list, but retains manual whitelisted accounts."
					}
				},
				"version": 1
			}
		}
	}
}