{
	"contracts/RockPaperScissors.sol": {
		"RockPaperScissors": {
			"abi": [
				{
					"inputs": [
						{
							"internalType": "address",
							"name": "_vrfCoordinator",
							"type": "address"
						},
						{
							"internalType": "address",
							"name": "_linkToken",
							"type": "address"
						},
						{
							"internalType": "bytes32",
							"name": "_keyHash",
							"type": "bytes32"
						},
						{
							"internalType": "uint256",
							"name": "_fee",
							"type": "uint256"
						},
						{
							"internalType": "address",
							"name": "_tokenAddress",
							"type": "address"
						}
					],
					"stateMutability": "nonpayable",
					"type": "constructor"
				},
				{
					"anonymous": false,
					"inputs": [
						{
							"indexed": true,
							"internalType": "address",
							"name": "winner",
							"type": "address"
						},
						{
							"indexed": false,
							"internalType": "uint256",
							"name": "reward",
							"type": "uint256"
						}
					],
					"name": "GameCompleted",
					"type": "event"
				},
				{
					"anonymous": false,
					"inputs": [
						{
							"indexed": true,
							"internalType": "address",
							"name": "player1",
							"type": "address"
						}
					],
					"name": "GameStarted",
					"type": "event"
				},
				{
					"inputs": [],
					"name": "betAmount",
					"outputs": [
						{
							"internalType": "uint256",
							"name": "",
							"type": "uint256"
						}
					],
					"stateMutability": "view",
					"type": "function"
				},
				{
					"inputs": [],
					"name": "gameComplete",
					"outputs": [
						{
							"internalType": "bool",
							"name": "",
							"type": "bool"
						}
					],
					"stateMutability": "view",
					"type": "function"
				},
				{
					"inputs": [
						{
							"internalType": "enum RockPaperScissors.Move",
							"name": "_move",
							"type": "uint8"
						}
					],
					"name": "play",
					"outputs": [],
					"stateMutability": "payable",
					"type": "function"
				},
				{
					"inputs": [
						{
							"internalType": "enum RockPaperScissors.Move",
							"name": "_move",
							"type": "uint8"
						},
						{
							"internalType": "uint256",
							"name": "tokenAmount",
							"type": "uint256"
						}
					],
					"name": "playWithTokens",
					"outputs": [],
					"stateMutability": "nonpayable",
					"type": "function"
				},
				{
					"inputs": [],
					"name": "player1",
					"outputs": [
						{
							"internalType": "address payable",
							"name": "",
							"type": "address"
						}
					],
					"stateMutability": "view",
					"type": "function"
				},
				{
					"inputs": [],
					"name": "player2",
					"outputs": [
						{
							"internalType": "address payable",
							"name": "",
							"type": "address"
						}
					],
					"stateMutability": "view",
					"type": "function"
				},
				{
					"inputs": [],
					"name": "randomResult",
					"outputs": [
						{
							"internalType": "uint256",
							"name": "",
							"type": "uint256"
						}
					],
					"stateMutability": "view",
					"type": "function"
				},
				{
					"inputs": [
						{
							"internalType": "bytes32",
							"name": "requestId",
							"type": "bytes32"
						},
						{
							"internalType": "uint256",
							"name": "randomness",
							"type": "uint256"
						}
					],
					"name": "rawFulfillRandomness",
					"outputs": [],
					"stateMutability": "nonpayable",
					"type": "function"
				},
				{
					"inputs": [],
					"name": "token",
					"outputs": [
						{
							"internalType": "contract IERC20",
							"name": "",
							"type": "address"
						}
					],
					"stateMutability": "view",
					"type": "function"
				},
				{
					"inputs": [],
					"name": "withdrawLink",
					"outputs": [],
					"stateMutability": "nonpayable",
					"type": "function"
				}
			],
			"devdoc": {
				"kind": "dev",
				"methods": {},
				"version": 1
			},
			"evm": {
				"assembly": "    /* \"contracts/RockPaperScissors.sol\":182:5072  contract RockPaperScissors is VRFConsumerBase {... */\n  mstore(0x40, 0xc0)\n    /* \"contracts/RockPaperScissors.sol\":1069:1504  constructor(... */\n  callvalue\n  dup1\n  iszero\n  tag_1\n  jumpi\n  0x00\n  dup1\n  revert\ntag_1:\n  pop\n  mload(0x40)\n  sub(codesize, bytecodeSize)\n  dup1\n  bytecodeSize\n  dup4\n  codecopy\n  dup2\n  dup2\n  add\n  0x40\n  mstore\n  dup2\n  add\n  swap1\n  tag_2\n  swap2\n  swap1\n  tag_3\n  jump\t// in\ntag_2:\n    /* \"contracts/RockPaperScissors.sol\":1263:1278  _vrfCoordinator */\n  dup5\n    /* \"contracts/RockPaperScissors.sol\":1280:1290  _linkToken */\n  dup5\n    /* \"@chainlink/contracts/src/v0.8/VRFConsumerBase.sol\":9323:9338  _vrfCoordinator */\n  dup2\n    /* \"@chainlink/contracts/src/v0.8/VRFConsumerBase.sol\":9306:9338  vrfCoordinator = _vrfCoordinator */\n  0xffffffffffffffffffffffffffffffffffffffff\n  and\n  0xa0\n  dup2\n  0xffffffffffffffffffffffffffffffffffffffff\n  and\n  dup2\n  mstore\n  pop\n  pop\n    /* \"@chainlink/contracts/src/v0.8/VRFConsumerBase.sol\":9370:9375  _link */\n  dup1\n    /* \"@chainlink/contracts/src/v0.8/VRFConsumerBase.sol\":9344:9376  LINK = LinkTokenInterface(_link) */\n  0xffffffffffffffffffffffffffffffffffffffff\n  and\n  0x80\n  dup2\n  0xffffffffffffffffffffffffffffffffffffffff\n  and\n  dup2\n  mstore\n  pop\n  pop\n    /* \"@chainlink/contracts/src/v0.8/VRFConsumerBase.sol\":9248:9381  constructor(address _vrfCoordinator, address _link) {... */\n  pop\n  pop\n    /* \"contracts/RockPaperScissors.sol\":1319:1327  _keyHash */\n  dup3\n    /* \"contracts/RockPaperScissors.sol\":1309:1316  keyHash */\n  0x01\n    /* \"contracts/RockPaperScissors.sol\":1309:1327  keyHash = _keyHash */\n  dup2\n  swap1\n  sstore\n  pop\n    /* \"contracts/RockPaperScissors.sol\":1376:1380  _fee */\n  dup2\n    /* \"contracts/RockPaperScissors.sol\":1370:1373  fee */\n  0x02\n    /* \"contracts/RockPaperScissors.sol\":1370:1380  fee = _fee */\n  dup2\n  swap1\n  sstore\n  pop\n    /* \"contracts/RockPaperScissors.sol\":1451:1464  _tokenAddress */\n  dup1\n    /* \"contracts/RockPaperScissors.sol\":1436:1441  token */\n  0x03\n  0x00\n    /* \"contracts/RockPaperScissors.sol\":1436:1465  token = IERC20(_tokenAddress) */\n  0x0100\n  exp\n  dup2\n  sload\n  dup2\n  0xffffffffffffffffffffffffffffffffffffffff\n  mul\n  not\n  and\n  swap1\n  dup4\n  0xffffffffffffffffffffffffffffffffffffffff\n  and\n  mul\n  or\n  swap1\n  sstore\n  pop\n    /* \"contracts/RockPaperScissors.sol\":1069:1504  constructor(... */\n  pop\n  pop\n  pop\n  pop\n  pop\n    /* \"contracts/RockPaperScissors.sol\":182:5072  contract RockPaperScissors is VRFConsumerBase {... */\n  jump(tag_8)\n    /* \"#utility.yul\":88:205   */\ntag_10:\n    /* \"#utility.yul\":197:198   */\n  0x00\n    /* \"#utility.yul\":194:195   */\n  dup1\n    /* \"#utility.yul\":187:199   */\n  revert\n    /* \"#utility.yul\":334:460   */\ntag_12:\n    /* \"#utility.yul\":371:378   */\n  0x00\n    /* \"#utility.yul\":411:453   */\n  0xffffffffffffffffffffffffffffffffffffffff\n    /* \"#utility.yul\":404:409   */\n  dup3\n    /* \"#utility.yul\":400:454   */\n  and\n    /* \"#utility.yul\":389:454   */\n  swap1\n  pop\n    /* \"#utility.yul\":334:460   */\n  swap2\n  swap1\n  pop\n  jump\t// out\n    /* \"#utility.yul\":466:562   */\ntag_13:\n    /* \"#utility.yul\":503:510   */\n  0x00\n    /* \"#utility.yul\":532:556   */\n  tag_28\n    /* \"#utility.yul\":550:555   */\n  dup3\n    /* \"#utility.yul\":532:556   */\n  tag_12\n  jump\t// in\ntag_28:\n    /* \"#utility.yul\":521:556   */\n  swap1\n  pop\n    /* \"#utility.yul\":466:562   */\n  swap2\n  swap1\n  pop\n  jump\t// out\n    /* \"#utility.yul\":568:690   */\ntag_14:\n    /* \"#utility.yul\":641:665   */\n  tag_30\n    /* \"#utility.yul\":659:664   */\n  dup2\n    /* \"#utility.yul\":641:665   */\n  tag_13\n  jump\t// in\ntag_30:\n    /* \"#utility.yul\":634:639   */\n  dup2\n    /* \"#utility.yul\":631:666   */\n  eq\n    /* \"#utility.yul\":621:684   */\n  tag_31\n  jumpi\n    /* \"#utility.yul\":680:681   */\n  0x00\n    /* \"#utility.yul\":677:678   */\n  dup1\n    /* \"#utility.yul\":670:682   */\n  revert\n    /* \"#utility.yul\":621:684   */\ntag_31:\n    /* \"#utility.yul\":568:690   */\n  pop\n  jump\t// out\n    /* \"#utility.yul\":696:839   */\ntag_15:\n    /* \"#utility.yul\":753:758   */\n  0x00\n    /* \"#utility.yul\":784:790   */\n  dup2\n    /* \"#utility.yul\":778:791   */\n  mload\n    /* \"#utility.yul\":769:791   */\n  swap1\n  pop\n    /* \"#utility.yul\":800:833   */\n  tag_33\n    /* \"#utility.yul\":827:832   */\n  dup2\n    /* \"#utility.yul\":800:833   */\n  tag_14\n  jump\t// in\ntag_33:\n    /* \"#utility.yul\":696:839   */\n  swap3\n  swap2\n  pop\n  pop\n  jump\t// out\n    /* \"#utility.yul\":845:922   */\ntag_16:\n    /* \"#utility.yul\":882:889   */\n  0x00\n    /* \"#utility.yul\":911:916   */\n  dup2\n    /* \"#utility.yul\":900:916   */\n  swap1\n  pop\n    /* \"#utility.yul\":845:922   */\n  swap2\n  swap1\n  pop\n  jump\t// out\n    /* \"#utility.yul\":928:1050   */\ntag_17:\n    /* \"#utility.yul\":1001:1025   */\n  tag_36\n    /* \"#utility.yul\":1019:1024   */\n  dup2\n    /* \"#utility.yul\":1001:1025   */\n  tag_16\n  jump\t// in\ntag_36:\n    /* \"#utility.yul\":994:999   */\n  dup2\n    /* \"#utility.yul\":991:1026   */\n  eq\n    /* \"#utility.yul\":981:1044   */\n  tag_37\n  jumpi\n    /* \"#utility.yul\":1040:1041   */\n  0x00\n    /* \"#utility.yul\":1037:1038   */\n  dup1\n    /* \"#utility.yul\":1030:1042   */\n  revert\n    /* \"#utility.yul\":981:1044   */\ntag_37:\n    /* \"#utility.yul\":928:1050   */\n  pop\n  jump\t// out\n    /* \"#utility.yul\":1056:1199   */\ntag_18:\n    /* \"#utility.yul\":1113:1118   */\n  0x00\n    /* \"#utility.yul\":1144:1150   */\n  dup2\n    /* \"#utility.yul\":1138:1151   */\n  mload\n    /* \"#utility.yul\":1129:1151   */\n  swap1\n  pop\n    /* \"#utility.yul\":1160:1193   */\n  tag_39\n    /* \"#utility.yul\":1187:1192   */\n  dup2\n    /* \"#utility.yul\":1160:1193   */\n  tag_17\n  jump\t// in\ntag_39:\n    /* \"#utility.yul\":1056:1199   */\n  swap3\n  swap2\n  pop\n  pop\n  jump\t// out\n    /* \"#utility.yul\":1205:1282   */\ntag_19:\n    /* \"#utility.yul\":1242:1249   */\n  0x00\n    /* \"#utility.yul\":1271:1276   */\n  dup2\n    /* \"#utility.yul\":1260:1276   */\n  swap1\n  pop\n    /* \"#utility.yul\":1205:1282   */\n  swap2\n  swap1\n  pop\n  jump\t// out\n    /* \"#utility.yul\":1288:1410   */\ntag_20:\n    /* \"#utility.yul\":1361:1385   */\n  tag_42\n    /* \"#utility.yul\":1379:1384   */\n  dup2\n    /* \"#utility.yul\":1361:1385   */\n  tag_19\n  jump\t// in\ntag_42:\n    /* \"#utility.yul\":1354:1359   */\n  dup2\n    /* \"#utility.yul\":1351:1386   */\n  eq\n    /* \"#utility.yul\":1341:1404   */\n  tag_43\n  jumpi\n    /* \"#utility.yul\":1400:1401   */\n  0x00\n    /* \"#utility.yul\":1397:1398   */\n  dup1\n    /* \"#utility.yul\":1390:1402   */\n  revert\n    /* \"#utility.yul\":1341:1404   */\ntag_43:\n    /* \"#utility.yul\":1288:1410   */\n  pop\n  jump\t// out\n    /* \"#utility.yul\":1416:1559   */\ntag_21:\n    /* \"#utility.yul\":1473:1478   */\n  0x00\n    /* \"#utility.yul\":1504:1510   */\n  dup2\n    /* \"#utility.yul\":1498:1511   */\n  mload\n    /* \"#utility.yul\":1489:1511   */\n  swap1\n  pop\n    /* \"#utility.yul\":1520:1553   */\n  tag_45\n    /* \"#utility.yul\":1547:1552   */\n  dup2\n    /* \"#utility.yul\":1520:1553   */\n  tag_20\n  jump\t// in\ntag_45:\n    /* \"#utility.yul\":1416:1559   */\n  swap3\n  swap2\n  pop\n  pop\n  jump\t// out\n    /* \"#utility.yul\":1565:2542   */\ntag_3:\n    /* \"#utility.yul\":1671:1677   */\n  0x00\n    /* \"#utility.yul\":1679:1685   */\n  dup1\n    /* \"#utility.yul\":1687:1693   */\n  0x00\n    /* \"#utility.yul\":1695:1701   */\n  dup1\n    /* \"#utility.yul\":1703:1709   */\n  0x00\n    /* \"#utility.yul\":1752:1755   */\n  0xa0\n    /* \"#utility.yul\":1740:1749   */\n  dup7\n    /* \"#utility.yul\":1731:1738   */\n  dup9\n    /* \"#utility.yul\":1727:1750   */\n  sub\n    /* \"#utility.yul\":1723:1756   */\n  slt\n    /* \"#utility.yul\":1720:1840   */\n  iszero\n  tag_47\n  jumpi\n    /* \"#utility.yul\":1759:1838   */\n  tag_48\n  tag_10\n  jump\t// in\ntag_48:\n    /* \"#utility.yul\":1720:1840   */\ntag_47:\n    /* \"#utility.yul\":1879:1880   */\n  0x00\n    /* \"#utility.yul\":1904:1968   */\n  tag_49\n    /* \"#utility.yul\":1960:1967   */\n  dup9\n    /* \"#utility.yul\":1951:1957   */\n  dup3\n    /* \"#utility.yul\":1940:1949   */\n  dup10\n    /* \"#utility.yul\":1936:1958   */\n  add\n    /* \"#utility.yul\":1904:1968   */\n  tag_15\n  jump\t// in\ntag_49:\n    /* \"#utility.yul\":1894:1968   */\n  swap6\n  pop\n    /* \"#utility.yul\":1850:1978   */\n  pop\n    /* \"#utility.yul\":2017:2019   */\n  0x20\n    /* \"#utility.yul\":2043:2107   */\n  tag_50\n    /* \"#utility.yul\":2099:2106   */\n  dup9\n    /* \"#utility.yul\":2090:2096   */\n  dup3\n    /* \"#utility.yul\":2079:2088   */\n  dup10\n    /* \"#utility.yul\":2075:2097   */\n  add\n    /* \"#utility.yul\":2043:2107   */\n  tag_15\n  jump\t// in\ntag_50:\n    /* \"#utility.yul\":2033:2107   */\n  swap5\n  pop\n    /* \"#utility.yul\":1988:2117   */\n  pop\n    /* \"#utility.yul\":2156:2158   */\n  0x40\n    /* \"#utility.yul\":2182:2246   */\n  tag_51\n    /* \"#utility.yul\":2238:2245   */\n  dup9\n    /* \"#utility.yul\":2229:2235   */\n  dup3\n    /* \"#utility.yul\":2218:2227   */\n  dup10\n    /* \"#utility.yul\":2214:2236   */\n  add\n    /* \"#utility.yul\":2182:2246   */\n  tag_18\n  jump\t// in\ntag_51:\n    /* \"#utility.yul\":2172:2246   */\n  swap4\n  pop\n    /* \"#utility.yul\":2127:2256   */\n  pop\n    /* \"#utility.yul\":2295:2297   */\n  0x60\n    /* \"#utility.yul\":2321:2385   */\n  tag_52\n    /* \"#utility.yul\":2377:2384   */\n  dup9\n    /* \"#utility.yul\":2368:2374   */\n  dup3\n    /* \"#utility.yul\":2357:2366   */\n  dup10\n    /* \"#utility.yul\":2353:2375   */\n  add\n    /* \"#utility.yul\":2321:2385   */\n  tag_21\n  jump\t// in\ntag_52:\n    /* \"#utility.yul\":2311:2385   */\n  swap3\n  pop\n    /* \"#utility.yul\":2266:2395   */\n  pop\n    /* \"#utility.yul\":2434:2437   */\n  0x80\n    /* \"#utility.yul\":2461:2525   */\n  tag_53\n    /* \"#utility.yul\":2517:2524   */\n  dup9\n    /* \"#utility.yul\":2508:2514   */\n  dup3\n    /* \"#utility.yul\":2497:2506   */\n  dup10\n    /* \"#utility.yul\":2493:2515   */\n  add\n    /* \"#utility.yul\":2461:2525   */\n  tag_15\n  jump\t// in\ntag_53:\n    /* \"#utility.yul\":2451:2525   */\n  swap2\n  pop\n    /* \"#utility.yul\":2405:2535   */\n  pop\n    /* \"#utility.yul\":1565:2542   */\n  swap3\n  swap6\n  pop\n  swap3\n  swap6\n  swap1\n  swap4\n  pop\n  jump\t// out\n    /* \"contracts/RockPaperScissors.sol\":182:5072  contract RockPaperScissors is VRFConsumerBase {... */\ntag_8:\n  mload(0x80)\n  mload(0xa0)\n  codecopy(0x00, dataOffset(sub_0), dataSize(sub_0))\n  0x00\n  assignImmutable(\"0x6dbb33232cde86c8a04f90a8bed9fc1c5ef520188a14538d96eb100d69bc2a94\")\n  0x00\n  assignImmutable(\"0xb2219b801710730437d0358146c829b62297a059eceaa0b40b27aea2daecf595\")\n  return(0x00, dataSize(sub_0))\nstop\n\nsub_0: assembly {\n        /* \"contracts/RockPaperScissors.sol\":182:5072  contract RockPaperScissors is VRFConsumerBase {... */\n      mstore(0x40, 0x80)\n      jumpi(tag_1, lt(calldatasize, 0x04))\n      shr(0xe0, calldataload(0x00))\n      dup1\n      0x94985ddd\n      gt\n      tag_12\n      jumpi\n      dup1\n      0x94985ddd\n      eq\n      tag_7\n      jumpi\n      dup1\n      0xb63b6df3\n      eq\n      tag_8\n      jumpi\n      dup1\n      0xd24257c0\n      eq\n      tag_9\n      jumpi\n      dup1\n      0xd30895e4\n      eq\n      tag_10\n      jumpi\n      dup1\n      0xfc0c546a\n      eq\n      tag_11\n      jumpi\n      jump(tag_1)\n    tag_12:\n      dup1\n      0x42619f66\n      eq\n      tag_2\n      jumpi\n      dup1\n      0x4d0d75b5\n      eq\n      tag_3\n      jumpi\n      dup1\n      0x53a04b05\n      eq\n      tag_4\n      jumpi\n      dup1\n      0x59a5f12d\n      eq\n      tag_5\n      jumpi\n      dup1\n      0x8dc654a2\n      eq\n      tag_6\n      jumpi\n    tag_1:\n      0x00\n      dup1\n      revert\n        /* \"contracts/RockPaperScissors.sol\":812:839  uint256 public randomResult */\n    tag_2:\n      callvalue\n      dup1\n      iszero\n      tag_13\n      jumpi\n      0x00\n      dup1\n      revert\n    tag_13:\n      pop\n      tag_14\n      tag_15\n      jump\t// in\n    tag_14:\n      mload(0x40)\n      tag_16\n      swap2\n      swap1\n      tag_17\n      jump\t// in\n    tag_16:\n      mload(0x40)\n      dup1\n      swap2\n      sub\n      swap1\n      return\n        /* \"contracts/RockPaperScissors.sol\":781:805  bool public gameComplete */\n    tag_3:\n      callvalue\n      dup1\n      iszero\n      tag_18\n      jumpi\n      0x00\n      dup1\n      revert\n    tag_18:\n      pop\n      tag_19\n      tag_20\n      jump\t// in\n    tag_19:\n      mload(0x40)\n      tag_21\n      swap2\n      swap1\n      tag_22\n      jump\t// in\n    tag_21:\n      mload(0x40)\n      dup1\n      swap2\n      sub\n      swap1\n      return\n        /* \"contracts/RockPaperScissors.sol\":1568:2238  function play(Move _move) public payable {... */\n    tag_4:\n      tag_23\n      0x04\n      dup1\n      calldatasize\n      sub\n      dup2\n      add\n      swap1\n      tag_24\n      swap2\n      swap1\n      tag_25\n      jump\t// in\n    tag_24:\n      tag_26\n      jump\t// in\n    tag_23:\n      stop\n        /* \"contracts/RockPaperScissors.sol\":713:743  address payable public player2 */\n    tag_5:\n      callvalue\n      dup1\n      iszero\n      tag_27\n      jumpi\n      0x00\n      dup1\n      revert\n    tag_27:\n      pop\n      tag_28\n      tag_29\n      jump\t// in\n    tag_28:\n      mload(0x40)\n      tag_30\n      swap2\n      swap1\n      tag_31\n      jump\t// in\n    tag_30:\n      mload(0x40)\n      dup1\n      swap2\n      sub\n      swap1\n      return\n        /* \"contracts/RockPaperScissors.sol\":4932:5069  function withdrawLink() public {... */\n    tag_6:\n      callvalue\n      dup1\n      iszero\n      tag_32\n      jumpi\n      0x00\n      dup1\n      revert\n    tag_32:\n      pop\n      tag_33\n      tag_34\n      jump\t// in\n    tag_33:\n      stop\n        /* \"@chainlink/contracts/src/v0.8/VRFConsumerBase.sol\":9576:9783  function rawFulfillRandomness(bytes32 requestId, uint256 randomness) external {... */\n    tag_7:\n      callvalue\n      dup1\n      iszero\n      tag_35\n      jumpi\n      0x00\n      dup1\n      revert\n    tag_35:\n      pop\n      tag_36\n      0x04\n      dup1\n      calldatasize\n      sub\n      dup2\n      add\n      swap1\n      tag_37\n      swap2\n      swap1\n      tag_38\n      jump\t// in\n    tag_37:\n      tag_39\n      jump\t// in\n    tag_36:\n      stop\n        /* \"contracts/RockPaperScissors.sol\":4005:4854  function playWithTokens(Move _move, uint256 tokenAmount) public {... */\n    tag_8:\n      callvalue\n      dup1\n      iszero\n      tag_40\n      jumpi\n      0x00\n      dup1\n      revert\n    tag_40:\n      pop\n      tag_41\n      0x04\n      dup1\n      calldatasize\n      sub\n      dup2\n      add\n      swap1\n      tag_42\n      swap2\n      swap1\n      tag_43\n      jump\t// in\n    tag_42:\n      tag_44\n      jump\t// in\n    tag_41:\n      stop\n        /* \"contracts/RockPaperScissors.sol\":350:398  uint256 public constant betAmount = 0.0001 ether */\n    tag_9:\n      callvalue\n      dup1\n      iszero\n      tag_45\n      jumpi\n      0x00\n      dup1\n      revert\n    tag_45:\n      pop\n      tag_46\n      tag_47\n      jump\t// in\n    tag_46:\n      mload(0x40)\n      tag_48\n      swap2\n      swap1\n      tag_17\n      jump\t// in\n    tag_48:\n      mload(0x40)\n      dup1\n      swap2\n      sub\n      swap1\n      return\n        /* \"contracts/RockPaperScissors.sol\":676:706  address payable public player1 */\n    tag_10:\n      callvalue\n      dup1\n      iszero\n      tag_49\n      jumpi\n      0x00\n      dup1\n      revert\n    tag_49:\n      pop\n      tag_50\n      tag_51\n      jump\t// in\n    tag_50:\n      mload(0x40)\n      tag_52\n      swap2\n      swap1\n      tag_31\n      jump\t// in\n    tag_52:\n      mload(0x40)\n      dup1\n      swap2\n      sub\n      swap1\n      return\n        /* \"contracts/RockPaperScissors.sol\":619:638  IERC20 public token */\n    tag_11:\n      callvalue\n      dup1\n      iszero\n      tag_53\n      jumpi\n      0x00\n      dup1\n      revert\n    tag_53:\n      pop\n      tag_54\n      tag_55\n      jump\t// in\n    tag_54:\n      mload(0x40)\n      tag_56\n      swap2\n      swap1\n      tag_57\n      jump\t// in\n    tag_56:\n      mload(0x40)\n      dup1\n      swap2\n      sub\n      swap1\n      return\n        /* \"contracts/RockPaperScissors.sol\":812:839  uint256 public randomResult */\n    tag_15:\n      sload(0x06)\n      dup2\n      jump\t// out\n        /* \"contracts/RockPaperScissors.sol\":781:805  bool public gameComplete */\n    tag_20:\n      0x05\n      0x15\n      swap1\n      sload\n      swap1\n      0x0100\n      exp\n      swap1\n      div\n      0xff\n      and\n      dup2\n      jump\t// out\n        /* \"contracts/RockPaperScissors.sol\":1568:2238  function play(Move _move) public payable {... */\n    tag_26:\n        /* \"contracts/RockPaperScissors.sol\":386:398  0.0001 ether */\n      0x5af3107a4000\n        /* \"contracts/RockPaperScissors.sol\":1628:1637  msg.value */\n      callvalue\n        /* \"contracts/RockPaperScissors.sol\":1628:1650  msg.value == betAmount */\n      eq\n        /* \"contracts/RockPaperScissors.sol\":1620:1675  require(msg.value == betAmount, \"Incorrect bet amount\") */\n      tag_59\n      jumpi\n      mload(0x40)\n      0x08c379a000000000000000000000000000000000000000000000000000000000\n      dup2\n      mstore\n      0x04\n      add\n      tag_60\n      swap1\n      tag_61\n      jump\t// in\n    tag_60:\n      mload(0x40)\n      dup1\n      swap2\n      sub\n      swap1\n      revert\n    tag_59:\n        /* \"contracts/RockPaperScissors.sol\":1734:1735  0 */\n      0x00\n        /* \"contracts/RockPaperScissors.sol\":1715:1736  player1 == address(0) */\n      0xffffffffffffffffffffffffffffffffffffffff\n      and\n        /* \"contracts/RockPaperScissors.sol\":1715:1722  player1 */\n      0x04\n      0x00\n      swap1\n      sload\n      swap1\n      0x0100\n      exp\n      swap1\n      div\n      0xffffffffffffffffffffffffffffffffffffffff\n      and\n        /* \"contracts/RockPaperScissors.sol\":1715:1736  player1 == address(0) */\n      0xffffffffffffffffffffffffffffffffffffffff\n      and\n      sub\n        /* \"contracts/RockPaperScissors.sol\":1711:2231  if (player1 == address(0)) {... */\n      tag_62\n      jumpi\n        /* \"contracts/RockPaperScissors.sol\":1771:1781  msg.sender */\n      caller\n        /* \"contracts/RockPaperScissors.sol\":1753:1760  player1 */\n      0x04\n      0x00\n        /* \"contracts/RockPaperScissors.sol\":1753:1782  player1 = payable(msg.sender) */\n      0x0100\n      exp\n      dup2\n      sload\n      dup2\n      0xffffffffffffffffffffffffffffffffffffffff\n      mul\n      not\n      and\n      swap1\n      dup4\n      0xffffffffffffffffffffffffffffffffffffffff\n      and\n      mul\n      or\n      swap1\n      sstore\n      pop\n        /* \"contracts/RockPaperScissors.sol\":1838:1843  _move */\n      dup1\n        /* \"contracts/RockPaperScissors.sol\":1824:1835  player1Move */\n      0x05\n      0x14\n        /* \"contracts/RockPaperScissors.sol\":1824:1843  player1Move = _move */\n      0x0100\n      exp\n      dup2\n      sload\n      dup2\n      0xff\n      mul\n      not\n      and\n      swap1\n      dup4\n      0x02\n      dup2\n      gt\n      iszero\n      tag_63\n      jumpi\n      tag_64\n      tag_65\n      jump\t// in\n    tag_64:\n    tag_63:\n      mul\n      or\n      swap1\n      sstore\n      pop\n        /* \"contracts/RockPaperScissors.sol\":1902:1909  player1 */\n      0x04\n      0x00\n      swap1\n      sload\n      swap1\n      0x0100\n      exp\n      swap1\n      div\n      0xffffffffffffffffffffffffffffffffffffffff\n      and\n        /* \"contracts/RockPaperScissors.sol\":1890:1910  GameStarted(player1) */\n      0xffffffffffffffffffffffffffffffffffffffff\n      and\n      0x67cf7f1535e1c1323fe4e76266f7d55f0c1f67fdf449db65e014f9d35881514d\n      mload(0x40)\n      mload(0x40)\n      dup1\n      swap2\n      sub\n      swap1\n      log2\n        /* \"contracts/RockPaperScissors.sol\":1711:2231  if (player1 == address(0)) {... */\n      jump(tag_66)\n    tag_62:\n        /* \"contracts/RockPaperScissors.sol\":1977:1978  0 */\n      0x00\n        /* \"contracts/RockPaperScissors.sol\":1958:1979  player2 == address(0) */\n      0xffffffffffffffffffffffffffffffffffffffff\n      and\n        /* \"contracts/RockPaperScissors.sol\":1958:1965  player2 */\n      0x05\n      0x00\n      swap1\n      sload\n      swap1\n      0x0100\n      exp\n      swap1\n      div\n      0xffffffffffffffffffffffffffffffffffffffff\n      and\n        /* \"contracts/RockPaperScissors.sol\":1958:1979  player2 == address(0) */\n      0xffffffffffffffffffffffffffffffffffffffff\n      and\n      sub\n        /* \"contracts/RockPaperScissors.sol\":1954:2231  if (player2 == address(0)) {... */\n      tag_67\n      jumpi\n        /* \"contracts/RockPaperScissors.sol\":2014:2024  msg.sender */\n      caller\n        /* \"contracts/RockPaperScissors.sol\":1996:2003  player2 */\n      0x05\n      0x00\n        /* \"contracts/RockPaperScissors.sol\":1996:2025  player2 = payable(msg.sender) */\n      0x0100\n      exp\n      dup2\n      sload\n      dup2\n      0xffffffffffffffffffffffffffffffffffffffff\n      mul\n      not\n      and\n      swap1\n      dup4\n      0xffffffffffffffffffffffffffffffffffffffff\n      and\n      mul\n      or\n      swap1\n      sstore\n      pop\n        /* \"contracts/RockPaperScissors.sol\":2067:2095  requestRandomnessForWinner() */\n      tag_68\n        /* \"contracts/RockPaperScissors.sol\":2067:2093  requestRandomnessForWinner */\n      tag_69\n        /* \"contracts/RockPaperScissors.sol\":2067:2095  requestRandomnessForWinner() */\n      jump\t// in\n    tag_68:\n      pop\n        /* \"contracts/RockPaperScissors.sol\":1954:2231  if (player2 == address(0)) {... */\n      jump(tag_70)\n    tag_67:\n        /* \"contracts/RockPaperScissors.sol\":2171:2219  revert(\"Game in progress. Wait for completion.\") */\n      mload(0x40)\n      0x08c379a000000000000000000000000000000000000000000000000000000000\n      dup2\n      mstore\n      0x04\n      add\n      tag_71\n      swap1\n      tag_72\n      jump\t// in\n    tag_71:\n      mload(0x40)\n      dup1\n      swap2\n      sub\n      swap1\n      revert\n        /* \"contracts/RockPaperScissors.sol\":1954:2231  if (player2 == address(0)) {... */\n    tag_70:\n        /* \"contracts/RockPaperScissors.sol\":1711:2231  if (player1 == address(0)) {... */\n    tag_66:\n        /* \"contracts/RockPaperScissors.sol\":1568:2238  function play(Move _move) public payable {... */\n      pop\n      jump\t// out\n        /* \"contracts/RockPaperScissors.sol\":713:743  address payable public player2 */\n    tag_29:\n      0x05\n      0x00\n      swap1\n      sload\n      swap1\n      0x0100\n      exp\n      swap1\n      div\n      0xffffffffffffffffffffffffffffffffffffffff\n      and\n      dup2\n      jump\t// out\n        /* \"contracts/RockPaperScissors.sol\":4932:5069  function withdrawLink() public {... */\n    tag_34:\n        /* \"contracts/RockPaperScissors.sol\":4982:4986  LINK */\n      immutable(\"0xb2219b801710730437d0358146c829b62297a059eceaa0b40b27aea2daecf595\")\n        /* \"contracts/RockPaperScissors.sol\":4982:4995  LINK.transfer */\n      0xffffffffffffffffffffffffffffffffffffffff\n      and\n      0xa9059cbb\n        /* \"contracts/RockPaperScissors.sol\":4996:5006  msg.sender */\n      caller\n        /* \"contracts/RockPaperScissors.sol\":5008:5012  LINK */\n      immutable(\"0xb2219b801710730437d0358146c829b62297a059eceaa0b40b27aea2daecf595\")\n        /* \"contracts/RockPaperScissors.sol\":5008:5022  LINK.balanceOf */\n      0xffffffffffffffffffffffffffffffffffffffff\n      and\n      0x70a08231\n        /* \"contracts/RockPaperScissors.sol\":5031:5035  this */\n      address\n        /* \"contracts/RockPaperScissors.sol\":5008:5037  LINK.balanceOf(address(this)) */\n      mload(0x40)\n      dup3\n      0xffffffff\n      and\n      0xe0\n      shl\n      dup2\n      mstore\n      0x04\n      add\n      tag_74\n      swap2\n      swap1\n      tag_75\n      jump\t// in\n    tag_74:\n      0x20\n      mload(0x40)\n      dup1\n      dup4\n      sub\n      dup2\n      dup7\n      gas\n      staticcall\n      iszero\n      dup1\n      iszero\n      tag_77\n      jumpi\n      returndatasize\n      0x00\n      dup1\n      returndatacopy\n      revert(0x00, returndatasize)\n    tag_77:\n      pop\n      pop\n      pop\n      pop\n      mload(0x40)\n      returndatasize\n      not(0x1f)\n      0x1f\n      dup3\n      add\n      and\n      dup3\n      add\n      dup1\n      0x40\n      mstore\n      pop\n      dup2\n      add\n      swap1\n      tag_78\n      swap2\n      swap1\n      tag_79\n      jump\t// in\n    tag_78:\n        /* \"contracts/RockPaperScissors.sol\":4982:5038  LINK.transfer(msg.sender, LINK.balanceOf(address(this))) */\n      mload(0x40)\n      dup4\n      0xffffffff\n      and\n      0xe0\n      shl\n      dup2\n      mstore\n      0x04\n      add\n      tag_80\n      swap3\n      swap2\n      swap1\n      tag_81\n      jump\t// in\n    tag_80:\n      0x20\n      mload(0x40)\n      dup1\n      dup4\n      sub\n      dup2\n      0x00\n      dup8\n      gas\n      call\n      iszero\n      dup1\n      iszero\n      tag_83\n      jumpi\n      returndatasize\n      0x00\n      dup1\n      returndatacopy\n      revert(0x00, returndatasize)\n    tag_83:\n      pop\n      pop\n      pop\n      pop\n      mload(0x40)\n      returndatasize\n      not(0x1f)\n      0x1f\n      dup3\n      add\n      and\n      dup3\n      add\n      dup1\n      0x40\n      mstore\n      pop\n      dup2\n      add\n      swap1\n      tag_84\n      swap2\n      swap1\n      tag_85\n      jump\t// in\n    tag_84:\n        /* \"contracts/RockPaperScissors.sol\":4974:5061  require(LINK.transfer(msg.sender, LINK.balanceOf(address(this))), \"Unable to transfer\") */\n      tag_86\n      jumpi\n      mload(0x40)\n      0x08c379a000000000000000000000000000000000000000000000000000000000\n      dup2\n      mstore\n      0x04\n      add\n      tag_87\n      swap1\n      tag_88\n      jump\t// in\n    tag_87:\n      mload(0x40)\n      dup1\n      swap2\n      sub\n      swap1\n      revert\n    tag_86:\n        /* \"contracts/RockPaperScissors.sol\":4932:5069  function withdrawLink() public {... */\n      jump\t// out\n        /* \"@chainlink/contracts/src/v0.8/VRFConsumerBase.sol\":9576:9783  function rawFulfillRandomness(bytes32 requestId, uint256 randomness) external {... */\n    tag_39:\n        /* \"@chainlink/contracts/src/v0.8/VRFConsumerBase.sol\":9682:9696  vrfCoordinator */\n      immutable(\"0x6dbb33232cde86c8a04f90a8bed9fc1c5ef520188a14538d96eb100d69bc2a94\")\n        /* \"@chainlink/contracts/src/v0.8/VRFConsumerBase.sol\":9668:9696  msg.sender == vrfCoordinator */\n      0xffffffffffffffffffffffffffffffffffffffff\n      and\n        /* \"@chainlink/contracts/src/v0.8/VRFConsumerBase.sol\":9668:9678  msg.sender */\n      caller\n        /* \"@chainlink/contracts/src/v0.8/VRFConsumerBase.sol\":9668:9696  msg.sender == vrfCoordinator */\n      0xffffffffffffffffffffffffffffffffffffffff\n      and\n      eq\n        /* \"@chainlink/contracts/src/v0.8/VRFConsumerBase.sol\":9660:9732  require(msg.sender == vrfCoordinator, \"Only VRFCoordinator can fulfill\") */\n      tag_90\n      jumpi\n      mload(0x40)\n      0x08c379a000000000000000000000000000000000000000000000000000000000\n      dup2\n      mstore\n      0x04\n      add\n      tag_91\n      swap1\n      tag_92\n      jump\t// in\n    tag_91:\n      mload(0x40)\n      dup1\n      swap2\n      sub\n      swap1\n      revert\n    tag_90:\n        /* \"@chainlink/contracts/src/v0.8/VRFConsumerBase.sol\":9738:9778  fulfillRandomness(requestId, randomness) */\n      tag_93\n        /* \"@chainlink/contracts/src/v0.8/VRFConsumerBase.sol\":9756:9765  requestId */\n      dup3\n        /* \"@chainlink/contracts/src/v0.8/VRFConsumerBase.sol\":9767:9777  randomness */\n      dup3\n        /* \"@chainlink/contracts/src/v0.8/VRFConsumerBase.sol\":9738:9755  fulfillRandomness */\n      tag_94\n        /* \"@chainlink/contracts/src/v0.8/VRFConsumerBase.sol\":9738:9778  fulfillRandomness(requestId, randomness) */\n      jump\t// in\n    tag_93:\n        /* \"@chainlink/contracts/src/v0.8/VRFConsumerBase.sol\":9576:9783  function rawFulfillRandomness(bytes32 requestId, uint256 randomness) external {... */\n      pop\n      pop\n      jump\t// out\n        /* \"contracts/RockPaperScissors.sol\":4005:4854  function playWithTokens(Move _move, uint256 tokenAmount) public {... */\n    tag_44:\n        /* \"contracts/RockPaperScissors.sol\":4119:4130  tokenAmount */\n      dup1\n        /* \"contracts/RockPaperScissors.sol\":4088:4093  token */\n      0x03\n      0x00\n      swap1\n      sload\n      swap1\n      0x0100\n      exp\n      swap1\n      div\n      0xffffffffffffffffffffffffffffffffffffffff\n      and\n        /* \"contracts/RockPaperScissors.sol\":4088:4103  token.balanceOf */\n      0xffffffffffffffffffffffffffffffffffffffff\n      and\n      0x70a08231\n        /* \"contracts/RockPaperScissors.sol\":4104:4114  msg.sender */\n      caller\n        /* \"contracts/RockPaperScissors.sol\":4088:4115  token.balanceOf(msg.sender) */\n      mload(0x40)\n      dup3\n      0xffffffff\n      and\n      0xe0\n      shl\n      dup2\n      mstore\n      0x04\n      add\n      tag_96\n      swap2\n      swap1\n      tag_75\n      jump\t// in\n    tag_96:\n      0x20\n      mload(0x40)\n      dup1\n      dup4\n      sub\n      dup2\n      dup7\n      gas\n      staticcall\n      iszero\n      dup1\n      iszero\n      tag_98\n      jumpi\n      returndatasize\n      0x00\n      dup1\n      returndatacopy\n      revert(0x00, returndatasize)\n    tag_98:\n      pop\n      pop\n      pop\n      pop\n      mload(0x40)\n      returndatasize\n      not(0x1f)\n      0x1f\n      dup3\n      add\n      and\n      dup3\n      add\n      dup1\n      0x40\n      mstore\n      pop\n      dup2\n      add\n      swap1\n      tag_99\n      swap2\n      swap1\n      tag_79\n      jump\t// in\n    tag_99:\n        /* \"contracts/RockPaperScissors.sol\":4088:4130  token.balanceOf(msg.sender) >= tokenAmount */\n      lt\n      iszero\n        /* \"contracts/RockPaperScissors.sol\":4080:4161  require(token.balanceOf(msg.sender) >= tokenAmount, \"Insufficient token balance\") */\n      tag_100\n      jumpi\n      mload(0x40)\n      0x08c379a000000000000000000000000000000000000000000000000000000000\n      dup2\n      mstore\n      0x04\n      add\n      tag_101\n      swap1\n      tag_102\n      jump\t// in\n    tag_101:\n      mload(0x40)\n      dup1\n      swap2\n      sub\n      swap1\n      revert\n    tag_100:\n        /* \"contracts/RockPaperScissors.sol\":386:398  0.0001 ether */\n      0x5af3107a4000\n        /* \"contracts/RockPaperScissors.sol\":4180:4191  tokenAmount */\n      dup2\n        /* \"contracts/RockPaperScissors.sol\":4180:4204  tokenAmount == betAmount */\n      eq\n        /* \"contracts/RockPaperScissors.sol\":4172:4231  require(tokenAmount == betAmount, \"Incorrect token amount\") */\n      tag_103\n      jumpi\n      mload(0x40)\n      0x08c379a000000000000000000000000000000000000000000000000000000000\n      dup2\n      mstore\n      0x04\n      add\n      tag_104\n      swap1\n      tag_105\n      jump\t// in\n    tag_104:\n      mload(0x40)\n      dup1\n      swap2\n      sub\n      swap1\n      revert\n    tag_103:\n        /* \"contracts/RockPaperScissors.sol\":4244:4249  token */\n      0x03\n      0x00\n      swap1\n      sload\n      swap1\n      0x0100\n      exp\n      swap1\n      div\n      0xffffffffffffffffffffffffffffffffffffffff\n      and\n        /* \"contracts/RockPaperScissors.sol\":4244:4262  token.transferFrom */\n      0xffffffffffffffffffffffffffffffffffffffff\n      and\n      0x23b872dd\n        /* \"contracts/RockPaperScissors.sol\":4263:4273  msg.sender */\n      caller\n        /* \"contracts/RockPaperScissors.sol\":4283:4287  this */\n      address\n        /* \"contracts/RockPaperScissors.sol\":4290:4301  tokenAmount */\n      dup5\n        /* \"contracts/RockPaperScissors.sol\":4244:4302  token.transferFrom(msg.sender, address(this), tokenAmount) */\n      mload(0x40)\n      dup5\n      0xffffffff\n      and\n      0xe0\n      shl\n      dup2\n      mstore\n      0x04\n      add\n      tag_106\n      swap4\n      swap3\n      swap2\n      swap1\n      tag_107\n      jump\t// in\n    tag_106:\n      0x20\n      mload(0x40)\n      dup1\n      dup4\n      sub\n      dup2\n      0x00\n      dup8\n      gas\n      call\n      iszero\n      dup1\n      iszero\n      tag_109\n      jumpi\n      returndatasize\n      0x00\n      dup1\n      returndatacopy\n      revert(0x00, returndatasize)\n    tag_109:\n      pop\n      pop\n      pop\n      pop\n      mload(0x40)\n      returndatasize\n      not(0x1f)\n      0x1f\n      dup3\n      add\n      and\n      dup3\n      add\n      dup1\n      0x40\n      mstore\n      pop\n      dup2\n      add\n      swap1\n      tag_110\n      swap2\n      swap1\n      tag_85\n      jump\t// in\n    tag_110:\n      pop\n        /* \"contracts/RockPaperScissors.sol\":4366:4367  0 */\n      0x00\n        /* \"contracts/RockPaperScissors.sol\":4347:4368  player1 == address(0) */\n      0xffffffffffffffffffffffffffffffffffffffff\n      and\n        /* \"contracts/RockPaperScissors.sol\":4347:4354  player1 */\n      0x04\n      0x00\n      swap1\n      sload\n      swap1\n      0x0100\n      exp\n      swap1\n      div\n      0xffffffffffffffffffffffffffffffffffffffff\n      and\n        /* \"contracts/RockPaperScissors.sol\":4347:4368  player1 == address(0) */\n      0xffffffffffffffffffffffffffffffffffffffff\n      and\n      sub\n        /* \"contracts/RockPaperScissors.sol\":4343:4847  if (player1 == address(0)) {... */\n      tag_111\n      jumpi\n        /* \"contracts/RockPaperScissors.sol\":4403:4413  msg.sender */\n      caller\n        /* \"contracts/RockPaperScissors.sol\":4385:4392  player1 */\n      0x04\n      0x00\n        /* \"contracts/RockPaperScissors.sol\":4385:4414  player1 = payable(msg.sender) */\n      0x0100\n      exp\n      dup2\n      sload\n      dup2\n      0xffffffffffffffffffffffffffffffffffffffff\n      mul\n      not\n      and\n      swap1\n      dup4\n      0xffffffffffffffffffffffffffffffffffffffff\n      and\n      mul\n      or\n      swap1\n      sstore\n      pop\n        /* \"contracts/RockPaperScissors.sol\":4460:4465  _move */\n      dup2\n        /* \"contracts/RockPaperScissors.sol\":4446:4457  player1Move */\n      0x05\n      0x14\n        /* \"contracts/RockPaperScissors.sol\":4446:4465  player1Move = _move */\n      0x0100\n      exp\n      dup2\n      sload\n      dup2\n      0xff\n      mul\n      not\n      and\n      swap1\n      dup4\n      0x02\n      dup2\n      gt\n      iszero\n      tag_112\n      jumpi\n      tag_113\n      tag_65\n      jump\t// in\n    tag_113:\n    tag_112:\n      mul\n      or\n      swap1\n      sstore\n      pop\n        /* \"contracts/RockPaperScissors.sol\":4524:4531  player1 */\n      0x04\n      0x00\n      swap1\n      sload\n      swap1\n      0x0100\n      exp\n      swap1\n      div\n      0xffffffffffffffffffffffffffffffffffffffff\n      and\n        /* \"contracts/RockPaperScissors.sol\":4512:4532  GameStarted(player1) */\n      0xffffffffffffffffffffffffffffffffffffffff\n      and\n      0x67cf7f1535e1c1323fe4e76266f7d55f0c1f67fdf449db65e014f9d35881514d\n      mload(0x40)\n      mload(0x40)\n      dup1\n      swap2\n      sub\n      swap1\n      log2\n        /* \"contracts/RockPaperScissors.sol\":4343:4847  if (player1 == address(0)) {... */\n      jump(tag_114)\n    tag_111:\n        /* \"contracts/RockPaperScissors.sol\":4599:4600  0 */\n      0x00\n        /* \"contracts/RockPaperScissors.sol\":4580:4601  player2 == address(0) */\n      0xffffffffffffffffffffffffffffffffffffffff\n      and\n        /* \"contracts/RockPaperScissors.sol\":4580:4587  player2 */\n      0x05\n      0x00\n      swap1\n      sload\n      swap1\n      0x0100\n      exp\n      swap1\n      div\n      0xffffffffffffffffffffffffffffffffffffffff\n      and\n        /* \"contracts/RockPaperScissors.sol\":4580:4601  player2 == address(0) */\n      0xffffffffffffffffffffffffffffffffffffffff\n      and\n      sub\n        /* \"contracts/RockPaperScissors.sol\":4576:4847  if (player2 == address(0)) {... */\n      tag_115\n      jumpi\n        /* \"contracts/RockPaperScissors.sol\":4636:4646  msg.sender */\n      caller\n        /* \"contracts/RockPaperScissors.sol\":4618:4625  player2 */\n      0x05\n      0x00\n        /* \"contracts/RockPaperScissors.sol\":4618:4647  player2 = payable(msg.sender) */\n      0x0100\n      exp\n      dup2\n      sload\n      dup2\n      0xffffffffffffffffffffffffffffffffffffffff\n      mul\n      not\n      and\n      swap1\n      dup4\n      0xffffffffffffffffffffffffffffffffffffffff\n      and\n      mul\n      or\n      swap1\n      sstore\n      pop\n        /* \"contracts/RockPaperScissors.sol\":4679:4707  requestRandomnessForWinner() */\n      tag_116\n        /* \"contracts/RockPaperScissors.sol\":4679:4705  requestRandomnessForWinner */\n      tag_69\n        /* \"contracts/RockPaperScissors.sol\":4679:4707  requestRandomnessForWinner() */\n      jump\t// in\n    tag_116:\n      pop\n        /* \"contracts/RockPaperScissors.sol\":4576:4847  if (player2 == address(0)) {... */\n      jump(tag_117)\n    tag_115:\n        /* \"contracts/RockPaperScissors.sol\":4787:4835  revert(\"Game in progress. Wait for completion.\") */\n      mload(0x40)\n      0x08c379a000000000000000000000000000000000000000000000000000000000\n      dup2\n      mstore\n      0x04\n      add\n      tag_118\n      swap1\n      tag_72\n      jump\t// in\n    tag_118:\n      mload(0x40)\n      dup1\n      swap2\n      sub\n      swap1\n      revert\n        /* \"contracts/RockPaperScissors.sol\":4576:4847  if (player2 == address(0)) {... */\n    tag_117:\n        /* \"contracts/RockPaperScissors.sol\":4343:4847  if (player1 == address(0)) {... */\n    tag_114:\n        /* \"contracts/RockPaperScissors.sol\":4005:4854  function playWithTokens(Move _move, uint256 tokenAmount) public {... */\n      pop\n      pop\n      jump\t// out\n        /* \"contracts/RockPaperScissors.sol\":350:398  uint256 public constant betAmount = 0.0001 ether */\n    tag_47:\n        /* \"contracts/RockPaperScissors.sol\":386:398  0.0001 ether */\n      0x5af3107a4000\n        /* \"contracts/RockPaperScissors.sol\":350:398  uint256 public constant betAmount = 0.0001 ether */\n      dup2\n      jump\t// out\n        /* \"contracts/RockPaperScissors.sol\":676:706  address payable public player1 */\n    tag_51:\n      0x04\n      0x00\n      swap1\n      sload\n      swap1\n      0x0100\n      exp\n      swap1\n      div\n      0xffffffffffffffffffffffffffffffffffffffff\n      and\n      dup2\n      jump\t// out\n        /* \"contracts/RockPaperScissors.sol\":619:638  IERC20 public token */\n    tag_55:\n      0x03\n      0x00\n      swap1\n      sload\n      swap1\n      0x0100\n      exp\n      swap1\n      div\n      0xffffffffffffffffffffffffffffffffffffffff\n      and\n      dup2\n      jump\t// out\n        /* \"contracts/RockPaperScissors.sol\":2316:2582  function requestRandomnessForWinner() private returns (bytes32 requestId) {... */\n    tag_69:\n        /* \"contracts/RockPaperScissors.sol\":2371:2388  bytes32 requestId */\n      0x00\n        /* \"contracts/RockPaperScissors.sol\":2442:2445  fee */\n      sload(0x02)\n        /* \"contracts/RockPaperScissors.sol\":2409:2413  LINK */\n      immutable(\"0xb2219b801710730437d0358146c829b62297a059eceaa0b40b27aea2daecf595\")\n        /* \"contracts/RockPaperScissors.sol\":2409:2423  LINK.balanceOf */\n      0xffffffffffffffffffffffffffffffffffffffff\n      and\n      0x70a08231\n        /* \"contracts/RockPaperScissors.sol\":2432:2436  this */\n      address\n        /* \"contracts/RockPaperScissors.sol\":2409:2438  LINK.balanceOf(address(this)) */\n      mload(0x40)\n      dup3\n      0xffffffff\n      and\n      0xe0\n      shl\n      dup2\n      mstore\n      0x04\n      add\n      tag_120\n      swap2\n      swap1\n      tag_75\n      jump\t// in\n    tag_120:\n      0x20\n      mload(0x40)\n      dup1\n      dup4\n      sub\n      dup2\n      dup7\n      gas\n      staticcall\n      iszero\n      dup1\n      iszero\n      tag_122\n      jumpi\n      returndatasize\n      0x00\n      dup1\n      returndatacopy\n      revert(0x00, returndatasize)\n    tag_122:\n      pop\n      pop\n      pop\n      pop\n      mload(0x40)\n      returndatasize\n      not(0x1f)\n      0x1f\n      dup3\n      add\n      and\n      dup3\n      add\n      dup1\n      0x40\n      mstore\n      pop\n      dup2\n      add\n      swap1\n      tag_123\n      swap2\n      swap1\n      tag_79\n      jump\t// in\n    tag_123:\n        /* \"contracts/RockPaperScissors.sol\":2409:2445  LINK.balanceOf(address(this)) >= fee */\n      lt\n      iszero\n        /* \"contracts/RockPaperScissors.sol\":2401:2487  require(LINK.balanceOf(address(this)) >= fee, \"Not enough LINK to request randomness\") */\n      tag_124\n      jumpi\n      mload(0x40)\n      0x08c379a000000000000000000000000000000000000000000000000000000000\n      dup2\n      mstore\n      0x04\n      add\n      tag_125\n      swap1\n      tag_126\n      jump\t// in\n    tag_125:\n      mload(0x40)\n      dup1\n      swap2\n      sub\n      swap1\n      revert\n    tag_124:\n        /* \"contracts/RockPaperScissors.sol\":2505:2536  requestRandomness(keyHash, fee) */\n      tag_127\n        /* \"contracts/RockPaperScissors.sol\":2523:2530  keyHash */\n      sload(0x01)\n        /* \"contracts/RockPaperScissors.sol\":2532:2535  fee */\n      sload(0x02)\n        /* \"contracts/RockPaperScissors.sol\":2505:2522  requestRandomness */\n      tag_128\n        /* \"contracts/RockPaperScissors.sol\":2505:2536  requestRandomness(keyHash, fee) */\n      jump\t// in\n    tag_127:\n        /* \"contracts/RockPaperScissors.sol\":2498:2536  return requestRandomness(keyHash, fee) */\n      swap1\n      pop\n        /* \"contracts/RockPaperScissors.sol\":2316:2582  function requestRandomnessForWinner() private returns (bytes32 requestId) {... */\n      swap1\n      jump\t// out\n        /* \"contracts/RockPaperScissors.sol\":2718:2956  function fulfillRandomness(bytes32 /* requestId */, uint256 randomness) internal override {... */\n    tag_94:\n        /* \"contracts/RockPaperScissors.sol\":2847:2848  3 */\n      0x03\n        /* \"contracts/RockPaperScissors.sol\":2834:2844  randomness */\n      dup2\n        /* \"contracts/RockPaperScissors.sol\":2834:2848  randomness % 3 */\n      tag_130\n      swap2\n      swap1\n      tag_131\n      jump\t// in\n    tag_130:\n        /* \"contracts/RockPaperScissors.sol\":2819:2831  randomResult */\n      0x06\n        /* \"contracts/RockPaperScissors.sol\":2819:2848  randomResult = randomness % 3 */\n      dup2\n      swap1\n      sstore\n      pop\n        /* \"contracts/RockPaperScissors.sol\":2898:2913  _decideWinner() */\n      tag_132\n        /* \"contracts/RockPaperScissors.sol\":2898:2911  _decideWinner */\n      tag_133\n        /* \"contracts/RockPaperScissors.sol\":2898:2913  _decideWinner() */\n      jump\t// in\n    tag_132:\n        /* \"contracts/RockPaperScissors.sol\":2718:2956  function fulfillRandomness(bytes32 /* requestId */, uint256 randomness) internal override {... */\n      pop\n      pop\n      jump\t// out\n        /* \"@chainlink/contracts/src/v0.8/VRFConsumerBase.sol\":7732:8752  function requestRandomness(bytes32 _keyHash, uint256 _fee) internal returns (bytes32 requestId) {... */\n    tag_128:\n        /* \"@chainlink/contracts/src/v0.8/VRFConsumerBase.sol\":7809:7826  bytes32 requestId */\n      0x00\n        /* \"@chainlink/contracts/src/v0.8/VRFConsumerBase.sol\":7834:7838  LINK */\n      immutable(\"0xb2219b801710730437d0358146c829b62297a059eceaa0b40b27aea2daecf595\")\n        /* \"@chainlink/contracts/src/v0.8/VRFConsumerBase.sol\":7834:7854  LINK.transferAndCall */\n      0xffffffffffffffffffffffffffffffffffffffff\n      and\n      0x4000aea0\n        /* \"@chainlink/contracts/src/v0.8/VRFConsumerBase.sol\":7855:7869  vrfCoordinator */\n      immutable(\"0x6dbb33232cde86c8a04f90a8bed9fc1c5ef520188a14538d96eb100d69bc2a94\")\n        /* \"@chainlink/contracts/src/v0.8/VRFConsumerBase.sol\":7871:7875  _fee */\n      dup5\n        /* \"@chainlink/contracts/src/v0.8/VRFConsumerBase.sol\":7888:7896  _keyHash */\n      dup7\n        /* \"@chainlink/contracts/src/v0.8/VRFConsumerBase.sol\":6589:6590  0 */\n      0x00\n        /* \"@chainlink/contracts/src/v0.8/VRFConsumerBase.sol\":7877:7920  abi.encode(_keyHash, USER_SEED_PLACEHOLDER) */\n      add(0x20, mload(0x40))\n      tag_135\n      swap3\n      swap2\n      swap1\n      tag_136\n      jump\t// in\n    tag_135:\n      mload(0x40)\n      0x20\n      dup2\n      dup4\n      sub\n      sub\n      dup2\n      mstore\n      swap1\n      0x40\n      mstore\n        /* \"@chainlink/contracts/src/v0.8/VRFConsumerBase.sol\":7834:7921  LINK.transferAndCall(vrfCoordinator, _fee, abi.encode(_keyHash, USER_SEED_PLACEHOLDER)) */\n      mload(0x40)\n      dup5\n      0xffffffff\n      and\n      0xe0\n      shl\n      dup2\n      mstore\n      0x04\n      add\n      tag_137\n      swap4\n      swap3\n      swap2\n      swap1\n      tag_138\n      jump\t// in\n    tag_137:\n      0x20\n      mload(0x40)\n      dup1\n      dup4\n      sub\n      dup2\n      0x00\n      dup8\n      gas\n      call\n      iszero\n      dup1\n      iszero\n      tag_140\n      jumpi\n      returndatasize\n      0x00\n      dup1\n      returndatacopy\n      revert(0x00, returndatasize)\n    tag_140:\n      pop\n      pop\n      pop\n      pop\n      mload(0x40)\n      returndatasize\n      not(0x1f)\n      0x1f\n      dup3\n      add\n      and\n      dup3\n      add\n      dup1\n      0x40\n      mstore\n      pop\n      dup2\n      add\n      swap1\n      tag_141\n      swap2\n      swap1\n      tag_85\n      jump\t// in\n    tag_141:\n      pop\n        /* \"@chainlink/contracts/src/v0.8/VRFConsumerBase.sol\":8152:8167  uint256 vRFSeed */\n      0x00\n        /* \"@chainlink/contracts/src/v0.8/VRFConsumerBase.sol\":8170:8252  makeVRFInputSeed(_keyHash, USER_SEED_PLACEHOLDER, address(this), nonces[_keyHash]) */\n      tag_142\n        /* \"@chainlink/contracts/src/v0.8/VRFConsumerBase.sol\":8187:8195  _keyHash */\n      dup5\n        /* \"@chainlink/contracts/src/v0.8/VRFConsumerBase.sol\":6589:6590  0 */\n      0x00\n        /* \"@chainlink/contracts/src/v0.8/VRFConsumerBase.sol\":8228:8232  this */\n      address\n        /* \"@chainlink/contracts/src/v0.8/VRFConsumerBase.sol\":8235:8241  nonces */\n      0x00\n        /* \"@chainlink/contracts/src/v0.8/VRFConsumerBase.sol\":8235:8251  nonces[_keyHash] */\n      dup1\n        /* \"@chainlink/contracts/src/v0.8/VRFConsumerBase.sol\":8242:8250  _keyHash */\n      dup10\n        /* \"@chainlink/contracts/src/v0.8/VRFConsumerBase.sol\":8235:8251  nonces[_keyHash] */\n      dup2\n      mstore\n      0x20\n      add\n      swap1\n      dup2\n      mstore\n      0x20\n      add\n      0x00\n      keccak256\n      sload\n        /* \"@chainlink/contracts/src/v0.8/VRFConsumerBase.sol\":8170:8186  makeVRFInputSeed */\n      tag_143\n        /* \"@chainlink/contracts/src/v0.8/VRFConsumerBase.sol\":8170:8252  makeVRFInputSeed(_keyHash, USER_SEED_PLACEHOLDER, address(this), nonces[_keyHash]) */\n      jump\t// in\n    tag_142:\n        /* \"@chainlink/contracts/src/v0.8/VRFConsumerBase.sol\":8152:8252  uint256 vRFSeed = makeVRFInputSeed(_keyHash, USER_SEED_PLACEHOLDER, address(this), nonces[_keyHash]) */\n      swap1\n      pop\n        /* \"@chainlink/contracts/src/v0.8/VRFConsumerBase.sol\":8701:8702  1 */\n      0x01\n        /* \"@chainlink/contracts/src/v0.8/VRFConsumerBase.sol\":8682:8688  nonces */\n      0x00\n        /* \"@chainlink/contracts/src/v0.8/VRFConsumerBase.sol\":8682:8698  nonces[_keyHash] */\n      dup1\n        /* \"@chainlink/contracts/src/v0.8/VRFConsumerBase.sol\":8689:8697  _keyHash */\n      dup7\n        /* \"@chainlink/contracts/src/v0.8/VRFConsumerBase.sol\":8682:8698  nonces[_keyHash] */\n      dup2\n      mstore\n      0x20\n      add\n      swap1\n      dup2\n      mstore\n      0x20\n      add\n      0x00\n      keccak256\n      sload\n        /* \"@chainlink/contracts/src/v0.8/VRFConsumerBase.sol\":8682:8702  nonces[_keyHash] + 1 */\n      tag_144\n      swap2\n      swap1\n      tag_145\n      jump\t// in\n    tag_144:\n        /* \"@chainlink/contracts/src/v0.8/VRFConsumerBase.sol\":8663:8669  nonces */\n      0x00\n        /* \"@chainlink/contracts/src/v0.8/VRFConsumerBase.sol\":8663:8679  nonces[_keyHash] */\n      dup1\n        /* \"@chainlink/contracts/src/v0.8/VRFConsumerBase.sol\":8670:8678  _keyHash */\n      dup7\n        /* \"@chainlink/contracts/src/v0.8/VRFConsumerBase.sol\":8663:8679  nonces[_keyHash] */\n      dup2\n      mstore\n      0x20\n      add\n      swap1\n      dup2\n      mstore\n      0x20\n      add\n      0x00\n      keccak256\n        /* \"@chainlink/contracts/src/v0.8/VRFConsumerBase.sol\":8663:8702  nonces[_keyHash] = nonces[_keyHash] + 1 */\n      dup2\n      swap1\n      sstore\n      pop\n        /* \"@chainlink/contracts/src/v0.8/VRFConsumerBase.sol\":8715:8747  makeRequestId(_keyHash, vRFSeed) */\n      tag_146\n        /* \"@chainlink/contracts/src/v0.8/VRFConsumerBase.sol\":8729:8737  _keyHash */\n      dup5\n        /* \"@chainlink/contracts/src/v0.8/VRFConsumerBase.sol\":8739:8746  vRFSeed */\n      dup3\n        /* \"@chainlink/contracts/src/v0.8/VRFConsumerBase.sol\":8715:8728  makeRequestId */\n      tag_147\n        /* \"@chainlink/contracts/src/v0.8/VRFConsumerBase.sol\":8715:8747  makeRequestId(_keyHash, vRFSeed) */\n      jump\t// in\n    tag_146:\n        /* \"@chainlink/contracts/src/v0.8/VRFConsumerBase.sol\":8708:8747  return makeRequestId(_keyHash, vRFSeed) */\n      swap2\n      pop\n      pop\n        /* \"@chainlink/contracts/src/v0.8/VRFConsumerBase.sol\":7732:8752  function requestRandomness(bytes32 _keyHash, uint256 _fee) internal returns (bytes32 requestId) {... */\n      swap3\n      swap2\n      pop\n      pop\n      jump\t// out\n        /* \"contracts/RockPaperScissors.sol\":3027:3951  function _decideWinner() private {... */\n    tag_133:\n        /* \"contracts/RockPaperScissors.sol\":3080:3092  gameComplete */\n      0x05\n      0x15\n      swap1\n      sload\n      swap1\n      0x0100\n      exp\n      swap1\n      div\n      0xff\n      and\n        /* \"contracts/RockPaperScissors.sol\":3079:3092  !gameComplete */\n      iszero\n        /* \"contracts/RockPaperScissors.sol\":3071:3118  require(!gameComplete, \"Game already complete\") */\n      tag_149\n      jumpi\n      mload(0x40)\n      0x08c379a000000000000000000000000000000000000000000000000000000000\n      dup2\n      mstore\n      0x04\n      add\n      tag_150\n      swap1\n      tag_151\n      jump\t// in\n    tag_150:\n      mload(0x40)\n      dup1\n      swap2\n      sub\n      swap1\n      revert\n    tag_149:\n        /* \"contracts/RockPaperScissors.sol\":3179:3183  true */\n      0x01\n        /* \"contracts/RockPaperScissors.sol\":3164:3176  gameComplete */\n      0x05\n      0x15\n        /* \"contracts/RockPaperScissors.sol\":3164:3183  gameComplete = true */\n      0x0100\n      exp\n      dup2\n      sload\n      dup2\n      0xff\n      mul\n      not\n      and\n      swap1\n      dup4\n      iszero\n      iszero\n      mul\n      or\n      swap1\n      sstore\n      pop\n        /* \"contracts/RockPaperScissors.sol\":3226:3248  address payable winner */\n      0x00\n        /* \"contracts/RockPaperScissors.sol\":3281:3282  0 */\n      dup1\n        /* \"contracts/RockPaperScissors.sol\":3265:3277  randomResult */\n      sload(0x06)\n        /* \"contracts/RockPaperScissors.sol\":3265:3282  randomResult == 0 */\n      sub\n        /* \"contracts/RockPaperScissors.sol\":3261:3616  if (randomResult == 0) {... */\n      tag_152\n      jumpi\n        /* \"contracts/RockPaperScissors.sol\":3354:3361  player1 */\n      0x04\n      0x00\n      swap1\n      sload\n      swap1\n      0x0100\n      exp\n      swap1\n      div\n      0xffffffffffffffffffffffffffffffffffffffff\n      and\n        /* \"contracts/RockPaperScissors.sol\":3354:3370  player1.transfer */\n      0xffffffffffffffffffffffffffffffffffffffff\n      and\n        /* \"contracts/RockPaperScissors.sol\":3354:3381  player1.transfer(betAmount) */\n      0x08fc\n        /* \"contracts/RockPaperScissors.sol\":386:398  0.0001 ether */\n      0x5af3107a4000\n        /* \"contracts/RockPaperScissors.sol\":3354:3381  player1.transfer(betAmount) */\n      swap1\n      dup2\n      iszero\n      mul\n      swap1\n      mload(0x40)\n      0x00\n      mload(0x40)\n      dup1\n      dup4\n      sub\n      dup2\n      dup6\n      dup9\n      dup9\n      call\n      swap4\n      pop\n      pop\n      pop\n      pop\n      iszero\n      dup1\n      iszero\n      tag_154\n      jumpi\n      returndatasize\n      0x00\n      dup1\n      returndatacopy\n      revert(0x00, returndatasize)\n    tag_154:\n      pop\n        /* \"contracts/RockPaperScissors.sol\":3396:3403  player2 */\n      0x05\n      0x00\n      swap1\n      sload\n      swap1\n      0x0100\n      exp\n      swap1\n      div\n      0xffffffffffffffffffffffffffffffffffffffff\n      and\n        /* \"contracts/RockPaperScissors.sol\":3396:3412  player2.transfer */\n      0xffffffffffffffffffffffffffffffffffffffff\n      and\n        /* \"contracts/RockPaperScissors.sol\":3396:3423  player2.transfer(betAmount) */\n      0x08fc\n        /* \"contracts/RockPaperScissors.sol\":386:398  0.0001 ether */\n      0x5af3107a4000\n        /* \"contracts/RockPaperScissors.sol\":3396:3423  player2.transfer(betAmount) */\n      swap1\n      dup2\n      iszero\n      mul\n      swap1\n      mload(0x40)\n      0x00\n      mload(0x40)\n      dup1\n      dup4\n      sub\n      dup2\n      dup6\n      dup9\n      dup9\n      call\n      swap4\n      pop\n      pop\n      pop\n      pop\n      iszero\n      dup1\n      iszero\n      tag_156\n      jumpi\n      returndatasize\n      0x00\n      dup1\n      returndatacopy\n      revert(0x00, returndatasize)\n    tag_156:\n      pop\n        /* \"contracts/RockPaperScissors.sol\":3261:3616  if (randomResult == 0) {... */\n      jump(tag_157)\n    tag_152:\n        /* \"contracts/RockPaperScissors.sol\":3461:3462  1 */\n      0x01\n        /* \"contracts/RockPaperScissors.sol\":3445:3457  randomResult */\n      sload(0x06)\n        /* \"contracts/RockPaperScissors.sol\":3445:3462  randomResult == 1 */\n      sub\n        /* \"contracts/RockPaperScissors.sol\":3441:3616  if (randomResult == 1) {... */\n      tag_158\n      jumpi\n        /* \"contracts/RockPaperScissors.sol\":3518:3525  player1 */\n      0x04\n      0x00\n      swap1\n      sload\n      swap1\n      0x0100\n      exp\n      swap1\n      div\n      0xffffffffffffffffffffffffffffffffffffffff\n      and\n        /* \"contracts/RockPaperScissors.sol\":3509:3525  winner = player1 */\n      swap1\n      pop\n        /* \"contracts/RockPaperScissors.sol\":3441:3616  if (randomResult == 1) {... */\n      jump(tag_159)\n    tag_158:\n        /* \"contracts/RockPaperScissors.sol\":3597:3604  player2 */\n      0x05\n      0x00\n      swap1\n      sload\n      swap1\n      0x0100\n      exp\n      swap1\n      div\n      0xffffffffffffffffffffffffffffffffffffffff\n      and\n        /* \"contracts/RockPaperScissors.sol\":3588:3604  winner = player2 */\n      swap1\n      pop\n        /* \"contracts/RockPaperScissors.sol\":3441:3616  if (randomResult == 1) {... */\n    tag_159:\n        /* \"contracts/RockPaperScissors.sol\":3261:3616  if (randomResult == 0) {... */\n    tag_157:\n        /* \"contracts/RockPaperScissors.sol\":3704:3705  0 */\n      0x00\n        /* \"contracts/RockPaperScissors.sol\":3686:3706  winner != address(0) */\n      0xffffffffffffffffffffffffffffffffffffffff\n      and\n        /* \"contracts/RockPaperScissors.sol\":3686:3692  winner */\n      dup2\n        /* \"contracts/RockPaperScissors.sol\":3686:3706  winner != address(0) */\n      0xffffffffffffffffffffffffffffffffffffffff\n      and\n      eq\n        /* \"contracts/RockPaperScissors.sol\":3682:3944  if (winner != address(0)) {... */\n      tag_160\n      jumpi\n        /* \"contracts/RockPaperScissors.sol\":3723:3737  uint256 reward */\n      0x00\n        /* \"contracts/RockPaperScissors.sol\":3752:3753  2 */\n      0x02\n        /* \"contracts/RockPaperScissors.sol\":386:398  0.0001 ether */\n      0x5af3107a4000\n        /* \"contracts/RockPaperScissors.sol\":3740:3753  betAmount * 2 */\n      tag_161\n      swap2\n      swap1\n      tag_162\n      jump\t// in\n    tag_161:\n        /* \"contracts/RockPaperScissors.sol\":3723:3753  uint256 reward = betAmount * 2 */\n      swap1\n      pop\n        /* \"contracts/RockPaperScissors.sol\":3795:3801  winner */\n      dup2\n        /* \"contracts/RockPaperScissors.sol\":3795:3810  winner.transfer */\n      0xffffffffffffffffffffffffffffffffffffffff\n      and\n        /* \"contracts/RockPaperScissors.sol\":3795:3818  winner.transfer(reward) */\n      0x08fc\n        /* \"contracts/RockPaperScissors.sol\":3811:3817  reward */\n      dup3\n        /* \"contracts/RockPaperScissors.sol\":3795:3818  winner.transfer(reward) */\n      swap1\n      dup2\n      iszero\n      mul\n      swap1\n      mload(0x40)\n      0x00\n      mload(0x40)\n      dup1\n      dup4\n      sub\n      dup2\n      dup6\n      dup9\n      dup9\n      call\n      swap4\n      pop\n      pop\n      pop\n      pop\n      iszero\n      dup1\n      iszero\n      tag_164\n      jumpi\n      returndatasize\n      0x00\n      dup1\n      returndatacopy\n      revert(0x00, returndatasize)\n    tag_164:\n      pop\n        /* \"contracts/RockPaperScissors.sol\":3886:3892  winner */\n      dup2\n        /* \"contracts/RockPaperScissors.sol\":3872:3901  GameCompleted(winner, reward) */\n      0xffffffffffffffffffffffffffffffffffffffff\n      and\n      0x8ab3a19ccf89d2ab7a1babe9f0dc4d37e5d5ab8a7d6850e70041fd7ff3258955\n        /* \"contracts/RockPaperScissors.sol\":3894:3900  reward */\n      dup3\n        /* \"contracts/RockPaperScissors.sol\":3872:3901  GameCompleted(winner, reward) */\n      mload(0x40)\n      tag_165\n      swap2\n      swap1\n      tag_17\n      jump\t// in\n    tag_165:\n      mload(0x40)\n      dup1\n      swap2\n      sub\n      swap1\n      log2\n        /* \"contracts/RockPaperScissors.sol\":3708:3944  {... */\n      pop\n        /* \"contracts/RockPaperScissors.sol\":3682:3944  if (winner != address(0)) {... */\n    tag_160:\n        /* \"contracts/RockPaperScissors.sol\":3060:3951  {... */\n      pop\n        /* \"contracts/RockPaperScissors.sol\":3027:3951  function _decideWinner() private {... */\n      jump\t// out\n        /* \"@chainlink/contracts/src/v0.8/VRFRequestIDBase.sol\":796:1036  function makeVRFInputSeed(... */\n    tag_143:\n        /* \"@chainlink/contracts/src/v0.8/VRFRequestIDBase.sol\":938:945  uint256 */\n      0x00\n        /* \"@chainlink/contracts/src/v0.8/VRFRequestIDBase.sol\":989:997  _keyHash */\n      dup5\n        /* \"@chainlink/contracts/src/v0.8/VRFRequestIDBase.sol\":999:1008  _userSeed */\n      dup5\n        /* \"@chainlink/contracts/src/v0.8/VRFRequestIDBase.sol\":1010:1020  _requester */\n      dup5\n        /* \"@chainlink/contracts/src/v0.8/VRFRequestIDBase.sol\":1022:1028  _nonce */\n      dup5\n        /* \"@chainlink/contracts/src/v0.8/VRFRequestIDBase.sol\":978:1029  abi.encode(_keyHash, _userSeed, _requester, _nonce) */\n      add(0x20, mload(0x40))\n      tag_167\n      swap5\n      swap4\n      swap3\n      swap2\n      swap1\n      tag_168\n      jump\t// in\n    tag_167:\n      mload(0x40)\n      0x20\n      dup2\n      dup4\n      sub\n      sub\n      dup2\n      mstore\n      swap1\n      0x40\n      mstore\n        /* \"@chainlink/contracts/src/v0.8/VRFRequestIDBase.sol\":968:1030  keccak256(abi.encode(_keyHash, _userSeed, _requester, _nonce)) */\n      dup1\n      mload\n      swap1\n      0x20\n      add\n      keccak256\n        /* \"@chainlink/contracts/src/v0.8/VRFRequestIDBase.sol\":960:1031  uint256(keccak256(abi.encode(_keyHash, _userSeed, _requester, _nonce))) */\n      0x00\n      shr\n        /* \"@chainlink/contracts/src/v0.8/VRFRequestIDBase.sol\":953:1031  return uint256(keccak256(abi.encode(_keyHash, _userSeed, _requester, _nonce))) */\n      swap1\n      pop\n        /* \"@chainlink/contracts/src/v0.8/VRFRequestIDBase.sol\":796:1036  function makeVRFInputSeed(... */\n      swap5\n      swap4\n      pop\n      pop\n      pop\n      pop\n      jump\t// out\n        /* \"@chainlink/contracts/src/v0.8/VRFRequestIDBase.sol\":1416:1582  function makeRequestId(bytes32 _keyHash, uint256 _vRFInputSeed) internal pure returns (bytes32) {... */\n    tag_147:\n        /* \"@chainlink/contracts/src/v0.8/VRFRequestIDBase.sol\":1503:1510  bytes32 */\n      0x00\n        /* \"@chainlink/contracts/src/v0.8/VRFRequestIDBase.sol\":1552:1560  _keyHash */\n      dup3\n        /* \"@chainlink/contracts/src/v0.8/VRFRequestIDBase.sol\":1562:1575  _vRFInputSeed */\n      dup3\n        /* \"@chainlink/contracts/src/v0.8/VRFRequestIDBase.sol\":1535:1576  abi.encodePacked(_keyHash, _vRFInputSeed) */\n      add(0x20, mload(0x40))\n      tag_170\n      swap3\n      swap2\n      swap1\n      tag_171\n      jump\t// in\n    tag_170:\n      mload(0x40)\n      0x20\n      dup2\n      dup4\n      sub\n      sub\n      dup2\n      mstore\n      swap1\n      0x40\n      mstore\n        /* \"@chainlink/contracts/src/v0.8/VRFRequestIDBase.sol\":1525:1577  keccak256(abi.encodePacked(_keyHash, _vRFInputSeed)) */\n      dup1\n      mload\n      swap1\n      0x20\n      add\n      keccak256\n        /* \"@chainlink/contracts/src/v0.8/VRFRequestIDBase.sol\":1518:1577  return keccak256(abi.encodePacked(_keyHash, _vRFInputSeed)) */\n      swap1\n      pop\n        /* \"@chainlink/contracts/src/v0.8/VRFRequestIDBase.sol\":1416:1582  function makeRequestId(bytes32 _keyHash, uint256 _vRFInputSeed) internal pure returns (bytes32) {... */\n      swap3\n      swap2\n      pop\n      pop\n      jump\t// out\n        /* \"#utility.yul\":7:84   */\n    tag_172:\n        /* \"#utility.yul\":44:51   */\n      0x00\n        /* \"#utility.yul\":73:78   */\n      dup2\n        /* \"#utility.yul\":62:78   */\n      swap1\n      pop\n        /* \"#utility.yul\":7:84   */\n      swap2\n      swap1\n      pop\n      jump\t// out\n        /* \"#utility.yul\":90:208   */\n    tag_173:\n        /* \"#utility.yul\":177:201   */\n      tag_231\n        /* \"#utility.yul\":195:200   */\n      dup2\n        /* \"#utility.yul\":177:201   */\n      tag_172\n      jump\t// in\n    tag_231:\n        /* \"#utility.yul\":172:175   */\n      dup3\n        /* \"#utility.yul\":165:202   */\n      mstore\n        /* \"#utility.yul\":90:208   */\n      pop\n      pop\n      jump\t// out\n        /* \"#utility.yul\":214:436   */\n    tag_17:\n        /* \"#utility.yul\":307:311   */\n      0x00\n        /* \"#utility.yul\":345:347   */\n      0x20\n        /* \"#utility.yul\":334:343   */\n      dup3\n        /* \"#utility.yul\":330:348   */\n      add\n        /* \"#utility.yul\":322:348   */\n      swap1\n      pop\n        /* \"#utility.yul\":358:429   */\n      tag_233\n        /* \"#utility.yul\":426:427   */\n      0x00\n        /* \"#utility.yul\":415:424   */\n      dup4\n        /* \"#utility.yul\":411:428   */\n      add\n        /* \"#utility.yul\":402:408   */\n      dup5\n        /* \"#utility.yul\":358:429   */\n      tag_173\n      jump\t// in\n    tag_233:\n        /* \"#utility.yul\":214:436   */\n      swap3\n      swap2\n      pop\n      pop\n      jump\t// out\n        /* \"#utility.yul\":442:532   */\n    tag_174:\n        /* \"#utility.yul\":476:483   */\n      0x00\n        /* \"#utility.yul\":519:524   */\n      dup2\n        /* \"#utility.yul\":512:525   */\n      iszero\n        /* \"#utility.yul\":505:526   */\n      iszero\n        /* \"#utility.yul\":494:526   */\n      swap1\n      pop\n        /* \"#utility.yul\":442:532   */\n      swap2\n      swap1\n      pop\n      jump\t// out\n        /* \"#utility.yul\":538:647   */\n    tag_175:\n        /* \"#utility.yul\":619:640   */\n      tag_236\n        /* \"#utility.yul\":634:639   */\n      dup2\n        /* \"#utility.yul\":619:640   */\n      tag_174\n      jump\t// in\n    tag_236:\n        /* \"#utility.yul\":614:617   */\n      dup3\n        /* \"#utility.yul\":607:641   */\n      mstore\n        /* \"#utility.yul\":538:647   */\n      pop\n      pop\n      jump\t// out\n        /* \"#utility.yul\":653:863   */\n    tag_22:\n        /* \"#utility.yul\":740:744   */\n      0x00\n        /* \"#utility.yul\":778:780   */\n      0x20\n        /* \"#utility.yul\":767:776   */\n      dup3\n        /* \"#utility.yul\":763:781   */\n      add\n        /* \"#utility.yul\":755:781   */\n      swap1\n      pop\n        /* \"#utility.yul\":791:856   */\n      tag_238\n        /* \"#utility.yul\":853:854   */\n      0x00\n        /* \"#utility.yul\":842:851   */\n      dup4\n        /* \"#utility.yul\":838:855   */\n      add\n        /* \"#utility.yul\":829:835   */\n      dup5\n        /* \"#utility.yul\":791:856   */\n      tag_175\n      jump\t// in\n    tag_238:\n        /* \"#utility.yul\":653:863   */\n      swap3\n      swap2\n      pop\n      pop\n      jump\t// out\n        /* \"#utility.yul\":950:1067   */\n    tag_177:\n        /* \"#utility.yul\":1059:1060   */\n      0x00\n        /* \"#utility.yul\":1056:1057   */\n      dup1\n        /* \"#utility.yul\":1049:1061   */\n      revert\n        /* \"#utility.yul\":1196:1303   */\n    tag_179:\n        /* \"#utility.yul\":1277:1278   */\n      0x03\n        /* \"#utility.yul\":1270:1275   */\n      dup2\n        /* \"#utility.yul\":1267:1279   */\n      lt\n        /* \"#utility.yul\":1257:1297   */\n      tag_243\n      jumpi\n        /* \"#utility.yul\":1293:1294   */\n      0x00\n        /* \"#utility.yul\":1290:1291   */\n      dup1\n        /* \"#utility.yul\":1283:1295   */\n      revert\n        /* \"#utility.yul\":1257:1297   */\n    tag_243:\n        /* \"#utility.yul\":1196:1303   */\n      pop\n      jump\t// out\n        /* \"#utility.yul\":1309:1464   */\n    tag_180:\n        /* \"#utility.yul\":1363:1368   */\n      0x00\n        /* \"#utility.yul\":1401:1407   */\n      dup2\n        /* \"#utility.yul\":1388:1408   */\n      calldataload\n        /* \"#utility.yul\":1379:1408   */\n      swap1\n      pop\n        /* \"#utility.yul\":1417:1458   */\n      tag_245\n        /* \"#utility.yul\":1452:1457   */\n      dup2\n        /* \"#utility.yul\":1417:1458   */\n      tag_179\n      jump\t// in\n    tag_245:\n        /* \"#utility.yul\":1309:1464   */\n      swap3\n      swap2\n      pop\n      pop\n      jump\t// out\n        /* \"#utility.yul\":1470:1815   */\n    tag_25:\n        /* \"#utility.yul\":1537:1543   */\n      0x00\n        /* \"#utility.yul\":1586:1588   */\n      0x20\n        /* \"#utility.yul\":1574:1583   */\n      dup3\n        /* \"#utility.yul\":1565:1572   */\n      dup5\n        /* \"#utility.yul\":1561:1584   */\n      sub\n        /* \"#utility.yul\":1557:1589   */\n      slt\n        /* \"#utility.yul\":1554:1673   */\n      iszero\n      tag_247\n      jumpi\n        /* \"#utility.yul\":1592:1671   */\n      tag_248\n      tag_177\n      jump\t// in\n    tag_248:\n        /* \"#utility.yul\":1554:1673   */\n    tag_247:\n        /* \"#utility.yul\":1712:1713   */\n      0x00\n        /* \"#utility.yul\":1737:1798   */\n      tag_249\n        /* \"#utility.yul\":1790:1797   */\n      dup5\n        /* \"#utility.yul\":1781:1787   */\n      dup3\n        /* \"#utility.yul\":1770:1779   */\n      dup6\n        /* \"#utility.yul\":1766:1788   */\n      add\n        /* \"#utility.yul\":1737:1798   */\n      tag_180\n      jump\t// in\n    tag_249:\n        /* \"#utility.yul\":1727:1798   */\n      swap2\n      pop\n        /* \"#utility.yul\":1683:1808   */\n      pop\n        /* \"#utility.yul\":1470:1815   */\n      swap3\n      swap2\n      pop\n      pop\n      jump\t// out\n        /* \"#utility.yul\":1821:1947   */\n    tag_181:\n        /* \"#utility.yul\":1858:1865   */\n      0x00\n        /* \"#utility.yul\":1898:1940   */\n      0xffffffffffffffffffffffffffffffffffffffff\n        /* \"#utility.yul\":1891:1896   */\n      dup3\n        /* \"#utility.yul\":1887:1941   */\n      and\n        /* \"#utility.yul\":1876:1941   */\n      swap1\n      pop\n        /* \"#utility.yul\":1821:1947   */\n      swap2\n      swap1\n      pop\n      jump\t// out\n        /* \"#utility.yul\":1953:2057   */\n    tag_182:\n        /* \"#utility.yul\":1998:2005   */\n      0x00\n        /* \"#utility.yul\":2027:2051   */\n      tag_252\n        /* \"#utility.yul\":2045:2050   */\n      dup3\n        /* \"#utility.yul\":2027:2051   */\n      tag_181\n      jump\t// in\n    tag_252:\n        /* \"#utility.yul\":2016:2051   */\n      swap1\n      pop\n        /* \"#utility.yul\":1953:2057   */\n      swap2\n      swap1\n      pop\n      jump\t// out\n        /* \"#utility.yul\":2063:2205   */\n    tag_183:\n        /* \"#utility.yul\":2166:2198   */\n      tag_254\n        /* \"#utility.yul\":2192:2197   */\n      dup2\n        /* \"#utility.yul\":2166:2198   */\n      tag_182\n      jump\t// in\n    tag_254:\n        /* \"#utility.yul\":2161:2164   */\n      dup3\n        /* \"#utility.yul\":2154:2199   */\n      mstore\n        /* \"#utility.yul\":2063:2205   */\n      pop\n      pop\n      jump\t// out\n        /* \"#utility.yul\":2211:2465   */\n    tag_31:\n        /* \"#utility.yul\":2320:2324   */\n      0x00\n        /* \"#utility.yul\":2358:2360   */\n      0x20\n        /* \"#utility.yul\":2347:2356   */\n      dup3\n        /* \"#utility.yul\":2343:2361   */\n      add\n        /* \"#utility.yul\":2335:2361   */\n      swap1\n      pop\n        /* \"#utility.yul\":2371:2458   */\n      tag_256\n        /* \"#utility.yul\":2455:2456   */\n      0x00\n        /* \"#utility.yul\":2444:2453   */\n      dup4\n        /* \"#utility.yul\":2440:2457   */\n      add\n        /* \"#utility.yul\":2431:2437   */\n      dup5\n        /* \"#utility.yul\":2371:2458   */\n      tag_183\n      jump\t// in\n    tag_256:\n        /* \"#utility.yul\":2211:2465   */\n      swap3\n      swap2\n      pop\n      pop\n      jump\t// out\n        /* \"#utility.yul\":2471:2548   */\n    tag_184:\n        /* \"#utility.yul\":2508:2515   */\n      0x00\n        /* \"#utility.yul\":2537:2542   */\n      dup2\n        /* \"#utility.yul\":2526:2542   */\n      swap1\n      pop\n        /* \"#utility.yul\":2471:2548   */\n      swap2\n      swap1\n      pop\n      jump\t// out\n        /* \"#utility.yul\":2554:2676   */\n    tag_185:\n        /* \"#utility.yul\":2627:2651   */\n      tag_259\n        /* \"#utility.yul\":2645:2650   */\n      dup2\n        /* \"#utility.yul\":2627:2651   */\n      tag_184\n      jump\t// in\n    tag_259:\n        /* \"#utility.yul\":2620:2625   */\n      dup2\n        /* \"#utility.yul\":2617:2652   */\n      eq\n        /* \"#utility.yul\":2607:2670   */\n      tag_260\n      jumpi\n        /* \"#utility.yul\":2666:2667   */\n      0x00\n        /* \"#utility.yul\":2663:2664   */\n      dup1\n        /* \"#utility.yul\":2656:2668   */\n      revert\n        /* \"#utility.yul\":2607:2670   */\n    tag_260:\n        /* \"#utility.yul\":2554:2676   */\n      pop\n      jump\t// out\n        /* \"#utility.yul\":2682:2821   */\n    tag_186:\n        /* \"#utility.yul\":2728:2733   */\n      0x00\n        /* \"#utility.yul\":2766:2772   */\n      dup2\n        /* \"#utility.yul\":2753:2773   */\n      calldataload\n        /* \"#utility.yul\":2744:2773   */\n      swap1\n      pop\n        /* \"#utility.yul\":2782:2815   */\n      tag_262\n        /* \"#utility.yul\":2809:2814   */\n      dup2\n        /* \"#utility.yul\":2782:2815   */\n      tag_185\n      jump\t// in\n    tag_262:\n        /* \"#utility.yul\":2682:2821   */\n      swap3\n      swap2\n      pop\n      pop\n      jump\t// out\n        /* \"#utility.yul\":2827:2949   */\n    tag_187:\n        /* \"#utility.yul\":2900:2924   */\n      tag_264\n        /* \"#utility.yul\":2918:2923   */\n      dup2\n        /* \"#utility.yul\":2900:2924   */\n      tag_172\n      jump\t// in\n    tag_264:\n        /* \"#utility.yul\":2893:2898   */\n      dup2\n        /* \"#utility.yul\":2890:2925   */\n      eq\n        /* \"#utility.yul\":2880:2943   */\n      tag_265\n      jumpi\n        /* \"#utility.yul\":2939:2940   */\n      0x00\n        /* \"#utility.yul\":2936:2937   */\n      dup1\n        /* \"#utility.yul\":2929:2941   */\n      revert\n        /* \"#utility.yul\":2880:2943   */\n    tag_265:\n        /* \"#utility.yul\":2827:2949   */\n      pop\n      jump\t// out\n        /* \"#utility.yul\":2955:3094   */\n    tag_188:\n        /* \"#utility.yul\":3001:3006   */\n      0x00\n        /* \"#utility.yul\":3039:3045   */\n      dup2\n        /* \"#utility.yul\":3026:3046   */\n      calldataload\n        /* \"#utility.yul\":3017:3046   */\n      swap1\n      pop\n        /* \"#utility.yul\":3055:3088   */\n      tag_267\n        /* \"#utility.yul\":3082:3087   */\n      dup2\n        /* \"#utility.yul\":3055:3088   */\n      tag_187\n      jump\t// in\n    tag_267:\n        /* \"#utility.yul\":2955:3094   */\n      swap3\n      swap2\n      pop\n      pop\n      jump\t// out\n        /* \"#utility.yul\":3100:3574   */\n    tag_38:\n        /* \"#utility.yul\":3168:3174   */\n      0x00\n        /* \"#utility.yul\":3176:3182   */\n      dup1\n        /* \"#utility.yul\":3225:3227   */\n      0x40\n        /* \"#utility.yul\":3213:3222   */\n      dup4\n        /* \"#utility.yul\":3204:3211   */\n      dup6\n        /* \"#utility.yul\":3200:3223   */\n      sub\n        /* \"#utility.yul\":3196:3228   */\n      slt\n        /* \"#utility.yul\":3193:3312   */\n      iszero\n      tag_269\n      jumpi\n        /* \"#utility.yul\":3231:3310   */\n      tag_270\n      tag_177\n      jump\t// in\n    tag_270:\n        /* \"#utility.yul\":3193:3312   */\n    tag_269:\n        /* \"#utility.yul\":3351:3352   */\n      0x00\n        /* \"#utility.yul\":3376:3429   */\n      tag_271\n        /* \"#utility.yul\":3421:3428   */\n      dup6\n        /* \"#utility.yul\":3412:3418   */\n      dup3\n        /* \"#utility.yul\":3401:3410   */\n      dup7\n        /* \"#utility.yul\":3397:3419   */\n      add\n        /* \"#utility.yul\":3376:3429   */\n      tag_186\n      jump\t// in\n    tag_271:\n        /* \"#utility.yul\":3366:3429   */\n      swap3\n      pop\n        /* \"#utility.yul\":3322:3439   */\n      pop\n        /* \"#utility.yul\":3478:3480   */\n      0x20\n        /* \"#utility.yul\":3504:3557   */\n      tag_272\n        /* \"#utility.yul\":3549:3556   */\n      dup6\n        /* \"#utility.yul\":3540:3546   */\n      dup3\n        /* \"#utility.yul\":3529:3538   */\n      dup7\n        /* \"#utility.yul\":3525:3547   */\n      add\n        /* \"#utility.yul\":3504:3557   */\n      tag_188\n      jump\t// in\n    tag_272:\n        /* \"#utility.yul\":3494:3557   */\n      swap2\n      pop\n        /* \"#utility.yul\":3449:3567   */\n      pop\n        /* \"#utility.yul\":3100:3574   */\n      swap3\n      pop\n      swap3\n      swap1\n      pop\n      jump\t// out\n        /* \"#utility.yul\":3580:4070   */\n    tag_43:\n        /* \"#utility.yul\":3656:3662   */\n      0x00\n        /* \"#utility.yul\":3664:3670   */\n      dup1\n        /* \"#utility.yul\":3713:3715   */\n      0x40\n        /* \"#utility.yul\":3701:3710   */\n      dup4\n        /* \"#utility.yul\":3692:3699   */\n      dup6\n        /* \"#utility.yul\":3688:3711   */\n      sub\n        /* \"#utility.yul\":3684:3716   */\n      slt\n        /* \"#utility.yul\":3681:3800   */\n      iszero\n      tag_274\n      jumpi\n        /* \"#utility.yul\":3719:3798   */\n      tag_275\n      tag_177\n      jump\t// in\n    tag_275:\n        /* \"#utility.yul\":3681:3800   */\n    tag_274:\n        /* \"#utility.yul\":3839:3840   */\n      0x00\n        /* \"#utility.yul\":3864:3925   */\n      tag_276\n        /* \"#utility.yul\":3917:3924   */\n      dup6\n        /* \"#utility.yul\":3908:3914   */\n      dup3\n        /* \"#utility.yul\":3897:3906   */\n      dup7\n        /* \"#utility.yul\":3893:3915   */\n      add\n        /* \"#utility.yul\":3864:3925   */\n      tag_180\n      jump\t// in\n    tag_276:\n        /* \"#utility.yul\":3854:3925   */\n      swap3\n      pop\n        /* \"#utility.yul\":3810:3935   */\n      pop\n        /* \"#utility.yul\":3974:3976   */\n      0x20\n        /* \"#utility.yul\":4000:4053   */\n      tag_277\n        /* \"#utility.yul\":4045:4052   */\n      dup6\n        /* \"#utility.yul\":4036:4042   */\n      dup3\n        /* \"#utility.yul\":4025:4034   */\n      dup7\n        /* \"#utility.yul\":4021:4043   */\n      add\n        /* \"#utility.yul\":4000:4053   */\n      tag_188\n      jump\t// in\n    tag_277:\n        /* \"#utility.yul\":3990:4053   */\n      swap2\n      pop\n        /* \"#utility.yul\":3945:4063   */\n      pop\n        /* \"#utility.yul\":3580:4070   */\n      swap3\n      pop\n      swap3\n      swap1\n      pop\n      jump\t// out\n        /* \"#utility.yul\":4076:4136   */\n    tag_189:\n        /* \"#utility.yul\":4104:4107   */\n      0x00\n        /* \"#utility.yul\":4125:4130   */\n      dup2\n        /* \"#utility.yul\":4118:4130   */\n      swap1\n      pop\n        /* \"#utility.yul\":4076:4136   */\n      swap2\n      swap1\n      pop\n      jump\t// out\n        /* \"#utility.yul\":4142:4284   */\n    tag_190:\n        /* \"#utility.yul\":4192:4201   */\n      0x00\n        /* \"#utility.yul\":4225:4278   */\n      tag_280\n        /* \"#utility.yul\":4243:4277   */\n      tag_281\n        /* \"#utility.yul\":4252:4276   */\n      tag_282\n        /* \"#utility.yul\":4270:4275   */\n      dup5\n        /* \"#utility.yul\":4252:4276   */\n      tag_181\n      jump\t// in\n    tag_282:\n        /* \"#utility.yul\":4243:4277   */\n      tag_189\n      jump\t// in\n    tag_281:\n        /* \"#utility.yul\":4225:4278   */\n      tag_181\n      jump\t// in\n    tag_280:\n        /* \"#utility.yul\":4212:4278   */\n      swap1\n      pop\n        /* \"#utility.yul\":4142:4284   */\n      swap2\n      swap1\n      pop\n      jump\t// out\n        /* \"#utility.yul\":4290:4416   */\n    tag_191:\n        /* \"#utility.yul\":4340:4349   */\n      0x00\n        /* \"#utility.yul\":4373:4410   */\n      tag_284\n        /* \"#utility.yul\":4404:4409   */\n      dup3\n        /* \"#utility.yul\":4373:4410   */\n      tag_190\n      jump\t// in\n    tag_284:\n        /* \"#utility.yul\":4360:4410   */\n      swap1\n      pop\n        /* \"#utility.yul\":4290:4416   */\n      swap2\n      swap1\n      pop\n      jump\t// out\n        /* \"#utility.yul\":4422:4562   */\n    tag_192:\n        /* \"#utility.yul\":4486:4495   */\n      0x00\n        /* \"#utility.yul\":4519:4556   */\n      tag_286\n        /* \"#utility.yul\":4550:4555   */\n      dup3\n        /* \"#utility.yul\":4519:4556   */\n      tag_191\n      jump\t// in\n    tag_286:\n        /* \"#utility.yul\":4506:4556   */\n      swap1\n      pop\n        /* \"#utility.yul\":4422:4562   */\n      swap2\n      swap1\n      pop\n      jump\t// out\n        /* \"#utility.yul\":4568:4727   */\n    tag_193:\n        /* \"#utility.yul\":4669:4720   */\n      tag_288\n        /* \"#utility.yul\":4714:4719   */\n      dup2\n        /* \"#utility.yul\":4669:4720   */\n      tag_192\n      jump\t// in\n    tag_288:\n        /* \"#utility.yul\":4664:4667   */\n      dup3\n        /* \"#utility.yul\":4657:4721   */\n      mstore\n        /* \"#utility.yul\":4568:4727   */\n      pop\n      pop\n      jump\t// out\n        /* \"#utility.yul\":4733:4983   */\n    tag_57:\n        /* \"#utility.yul\":4840:4844   */\n      0x00\n        /* \"#utility.yul\":4878:4880   */\n      0x20\n        /* \"#utility.yul\":4867:4876   */\n      dup3\n        /* \"#utility.yul\":4863:4881   */\n      add\n        /* \"#utility.yul\":4855:4881   */\n      swap1\n      pop\n        /* \"#utility.yul\":4891:4976   */\n      tag_290\n        /* \"#utility.yul\":4973:4974   */\n      0x00\n        /* \"#utility.yul\":4962:4971   */\n      dup4\n        /* \"#utility.yul\":4958:4975   */\n      add\n        /* \"#utility.yul\":4949:4955   */\n      dup5\n        /* \"#utility.yul\":4891:4976   */\n      tag_193\n      jump\t// in\n    tag_290:\n        /* \"#utility.yul\":4733:4983   */\n      swap3\n      swap2\n      pop\n      pop\n      jump\t// out\n        /* \"#utility.yul\":4989:5158   */\n    tag_194:\n        /* \"#utility.yul\":5073:5084   */\n      0x00\n        /* \"#utility.yul\":5107:5113   */\n      dup3\n        /* \"#utility.yul\":5102:5105   */\n      dup3\n        /* \"#utility.yul\":5095:5114   */\n      mstore\n        /* \"#utility.yul\":5147:5151   */\n      0x20\n        /* \"#utility.yul\":5142:5145   */\n      dup3\n        /* \"#utility.yul\":5138:5152   */\n      add\n        /* \"#utility.yul\":5123:5152   */\n      swap1\n      pop\n        /* \"#utility.yul\":4989:5158   */\n      swap3\n      swap2\n      pop\n      pop\n      jump\t// out\n        /* \"#utility.yul\":5164:5334   */\n    tag_195:\n        /* \"#utility.yul\":5304:5326   */\n      0x496e636f72726563742062657420616d6f756e74000000000000000000000000\n        /* \"#utility.yul\":5300:5301   */\n      0x00\n        /* \"#utility.yul\":5292:5298   */\n      dup3\n        /* \"#utility.yul\":5288:5302   */\n      add\n        /* \"#utility.yul\":5281:5327   */\n      mstore\n        /* \"#utility.yul\":5164:5334   */\n      pop\n      jump\t// out\n        /* \"#utility.yul\":5340:5706   */\n    tag_196:\n        /* \"#utility.yul\":5482:5485   */\n      0x00\n        /* \"#utility.yul\":5503:5570   */\n      tag_294\n        /* \"#utility.yul\":5567:5569   */\n      0x14\n        /* \"#utility.yul\":5562:5565   */\n      dup4\n        /* \"#utility.yul\":5503:5570   */\n      tag_194\n      jump\t// in\n    tag_294:\n        /* \"#utility.yul\":5496:5570   */\n      swap2\n      pop\n        /* \"#utility.yul\":5579:5672   */\n      tag_295\n        /* \"#utility.yul\":5668:5671   */\n      dup3\n        /* \"#utility.yul\":5579:5672   */\n      tag_195\n      jump\t// in\n    tag_295:\n        /* \"#utility.yul\":5697:5699   */\n      0x20\n        /* \"#utility.yul\":5692:5695   */\n      dup3\n        /* \"#utility.yul\":5688:5700   */\n      add\n        /* \"#utility.yul\":5681:5700   */\n      swap1\n      pop\n        /* \"#utility.yul\":5340:5706   */\n      swap2\n      swap1\n      pop\n      jump\t// out\n        /* \"#utility.yul\":5712:6131   */\n    tag_61:\n        /* \"#utility.yul\":5878:5882   */\n      0x00\n        /* \"#utility.yul\":5916:5918   */\n      0x20\n        /* \"#utility.yul\":5905:5914   */\n      dup3\n        /* \"#utility.yul\":5901:5919   */\n      add\n        /* \"#utility.yul\":5893:5919   */\n      swap1\n      pop\n        /* \"#utility.yul\":5965:5974   */\n      dup2\n        /* \"#utility.yul\":5959:5963   */\n      dup2\n        /* \"#utility.yul\":5955:5975   */\n      sub\n        /* \"#utility.yul\":5951:5952   */\n      0x00\n        /* \"#utility.yul\":5940:5949   */\n      dup4\n        /* \"#utility.yul\":5936:5953   */\n      add\n        /* \"#utility.yul\":5929:5976   */\n      mstore\n        /* \"#utility.yul\":5993:6124   */\n      tag_297\n        /* \"#utility.yul\":6119:6123   */\n      dup2\n        /* \"#utility.yul\":5993:6124   */\n      tag_196\n      jump\t// in\n    tag_297:\n        /* \"#utility.yul\":5985:6124   */\n      swap1\n      pop\n        /* \"#utility.yul\":5712:6131   */\n      swap2\n      swap1\n      pop\n      jump\t// out\n        /* \"#utility.yul\":6137:6317   */\n    tag_65:\n        /* \"#utility.yul\":6185:6262   */\n      0x4e487b7100000000000000000000000000000000000000000000000000000000\n        /* \"#utility.yul\":6182:6183   */\n      0x00\n        /* \"#utility.yul\":6175:6263   */\n      mstore\n        /* \"#utility.yul\":6282:6286   */\n      0x21\n        /* \"#utility.yul\":6279:6280   */\n      0x04\n        /* \"#utility.yul\":6272:6287   */\n      mstore\n        /* \"#utility.yul\":6306:6310   */\n      0x24\n        /* \"#utility.yul\":6303:6304   */\n      0x00\n        /* \"#utility.yul\":6296:6311   */\n      revert\n        /* \"#utility.yul\":6323:6548   */\n    tag_197:\n        /* \"#utility.yul\":6463:6497   */\n      0x47616d6520696e2070726f67726573732e205761697420666f7220636f6d706c\n        /* \"#utility.yul\":6459:6460   */\n      0x00\n        /* \"#utility.yul\":6451:6457   */\n      dup3\n        /* \"#utility.yul\":6447:6461   */\n      add\n        /* \"#utility.yul\":6440:6498   */\n      mstore\n        /* \"#utility.yul\":6532:6540   */\n      0x6574696f6e2e0000000000000000000000000000000000000000000000000000\n        /* \"#utility.yul\":6527:6529   */\n      0x20\n        /* \"#utility.yul\":6519:6525   */\n      dup3\n        /* \"#utility.yul\":6515:6530   */\n      add\n        /* \"#utility.yul\":6508:6541   */\n      mstore\n        /* \"#utility.yul\":6323:6548   */\n      pop\n      jump\t// out\n        /* \"#utility.yul\":6554:6920   */\n    tag_198:\n        /* \"#utility.yul\":6696:6699   */\n      0x00\n        /* \"#utility.yul\":6717:6784   */\n      tag_301\n        /* \"#utility.yul\":6781:6783   */\n      0x26\n        /* \"#utility.yul\":6776:6779   */\n      dup4\n        /* \"#utility.yul\":6717:6784   */\n      tag_194\n      jump\t// in\n    tag_301:\n        /* \"#utility.yul\":6710:6784   */\n      swap2\n      pop\n        /* \"#utility.yul\":6793:6886   */\n      tag_302\n        /* \"#utility.yul\":6882:6885   */\n      dup3\n        /* \"#utility.yul\":6793:6886   */\n      tag_197\n      jump\t// in\n    tag_302:\n        /* \"#utility.yul\":6911:6913   */\n      0x40\n        /* \"#utility.yul\":6906:6909   */\n      dup3\n        /* \"#utility.yul\":6902:6914   */\n      add\n        /* \"#utility.yul\":6895:6914   */\n      swap1\n      pop\n        /* \"#utility.yul\":6554:6920   */\n      swap2\n      swap1\n      pop\n      jump\t// out\n        /* \"#utility.yul\":6926:7345   */\n    tag_72:\n        /* \"#utility.yul\":7092:7096   */\n      0x00\n        /* \"#utility.yul\":7130:7132   */\n      0x20\n        /* \"#utility.yul\":7119:7128   */\n      dup3\n        /* \"#utility.yul\":7115:7133   */\n      add\n        /* \"#utility.yul\":7107:7133   */\n      swap1\n      pop\n        /* \"#utility.yul\":7179:7188   */\n      dup2\n        /* \"#utility.yul\":7173:7177   */\n      dup2\n        /* \"#utility.yul\":7169:7189   */\n      sub\n        /* \"#utility.yul\":7165:7166   */\n      0x00\n        /* \"#utility.yul\":7154:7163   */\n      dup4\n        /* \"#utility.yul\":7150:7167   */\n      add\n        /* \"#utility.yul\":7143:7190   */\n      mstore\n        /* \"#utility.yul\":7207:7338   */\n      tag_304\n        /* \"#utility.yul\":7333:7337   */\n      dup2\n        /* \"#utility.yul\":7207:7338   */\n      tag_198\n      jump\t// in\n    tag_304:\n        /* \"#utility.yul\":7199:7338   */\n      swap1\n      pop\n        /* \"#utility.yul\":6926:7345   */\n      swap2\n      swap1\n      pop\n      jump\t// out\n        /* \"#utility.yul\":7351:7447   */\n    tag_199:\n        /* \"#utility.yul\":7388:7395   */\n      0x00\n        /* \"#utility.yul\":7417:7441   */\n      tag_306\n        /* \"#utility.yul\":7435:7440   */\n      dup3\n        /* \"#utility.yul\":7417:7441   */\n      tag_181\n      jump\t// in\n    tag_306:\n        /* \"#utility.yul\":7406:7441   */\n      swap1\n      pop\n        /* \"#utility.yul\":7351:7447   */\n      swap2\n      swap1\n      pop\n      jump\t// out\n        /* \"#utility.yul\":7453:7571   */\n    tag_200:\n        /* \"#utility.yul\":7540:7564   */\n      tag_308\n        /* \"#utility.yul\":7558:7563   */\n      dup2\n        /* \"#utility.yul\":7540:7564   */\n      tag_199\n      jump\t// in\n    tag_308:\n        /* \"#utility.yul\":7535:7538   */\n      dup3\n        /* \"#utility.yul\":7528:7565   */\n      mstore\n        /* \"#utility.yul\":7453:7571   */\n      pop\n      pop\n      jump\t// out\n        /* \"#utility.yul\":7577:7799   */\n    tag_75:\n        /* \"#utility.yul\":7670:7674   */\n      0x00\n        /* \"#utility.yul\":7708:7710   */\n      0x20\n        /* \"#utility.yul\":7697:7706   */\n      dup3\n        /* \"#utility.yul\":7693:7711   */\n      add\n        /* \"#utility.yul\":7685:7711   */\n      swap1\n      pop\n        /* \"#utility.yul\":7721:7792   */\n      tag_310\n        /* \"#utility.yul\":7789:7790   */\n      0x00\n        /* \"#utility.yul\":7778:7787   */\n      dup4\n        /* \"#utility.yul\":7774:7791   */\n      add\n        /* \"#utility.yul\":7765:7771   */\n      dup5\n        /* \"#utility.yul\":7721:7792   */\n      tag_200\n      jump\t// in\n    tag_310:\n        /* \"#utility.yul\":7577:7799   */\n      swap3\n      swap2\n      pop\n      pop\n      jump\t// out\n        /* \"#utility.yul\":7805:7948   */\n    tag_201:\n        /* \"#utility.yul\":7862:7867   */\n      0x00\n        /* \"#utility.yul\":7893:7899   */\n      dup2\n        /* \"#utility.yul\":7887:7900   */\n      mload\n        /* \"#utility.yul\":7878:7900   */\n      swap1\n      pop\n        /* \"#utility.yul\":7909:7942   */\n      tag_312\n        /* \"#utility.yul\":7936:7941   */\n      dup2\n        /* \"#utility.yul\":7909:7942   */\n      tag_187\n      jump\t// in\n    tag_312:\n        /* \"#utility.yul\":7805:7948   */\n      swap3\n      swap2\n      pop\n      pop\n      jump\t// out\n        /* \"#utility.yul\":7954:8305   */\n    tag_79:\n        /* \"#utility.yul\":8024:8030   */\n      0x00\n        /* \"#utility.yul\":8073:8075   */\n      0x20\n        /* \"#utility.yul\":8061:8070   */\n      dup3\n        /* \"#utility.yul\":8052:8059   */\n      dup5\n        /* \"#utility.yul\":8048:8071   */\n      sub\n        /* \"#utility.yul\":8044:8076   */\n      slt\n        /* \"#utility.yul\":8041:8160   */\n      iszero\n      tag_314\n      jumpi\n        /* \"#utility.yul\":8079:8158   */\n      tag_315\n      tag_177\n      jump\t// in\n    tag_315:\n        /* \"#utility.yul\":8041:8160   */\n    tag_314:\n        /* \"#utility.yul\":8199:8200   */\n      0x00\n        /* \"#utility.yul\":8224:8288   */\n      tag_316\n        /* \"#utility.yul\":8280:8287   */\n      dup5\n        /* \"#utility.yul\":8271:8277   */\n      dup3\n        /* \"#utility.yul\":8260:8269   */\n      dup6\n        /* \"#utility.yul\":8256:8278   */\n      add\n        /* \"#utility.yul\":8224:8288   */\n      tag_201\n      jump\t// in\n    tag_316:\n        /* \"#utility.yul\":8214:8288   */\n      swap2\n      pop\n        /* \"#utility.yul\":8170:8298   */\n      pop\n        /* \"#utility.yul\":7954:8305   */\n      swap3\n      swap2\n      pop\n      pop\n      jump\t// out\n        /* \"#utility.yul\":8311:8643   */\n    tag_81:\n        /* \"#utility.yul\":8432:8436   */\n      0x00\n        /* \"#utility.yul\":8470:8472   */\n      0x40\n        /* \"#utility.yul\":8459:8468   */\n      dup3\n        /* \"#utility.yul\":8455:8473   */\n      add\n        /* \"#utility.yul\":8447:8473   */\n      swap1\n      pop\n        /* \"#utility.yul\":8483:8554   */\n      tag_318\n        /* \"#utility.yul\":8551:8552   */\n      0x00\n        /* \"#utility.yul\":8540:8549   */\n      dup4\n        /* \"#utility.yul\":8536:8553   */\n      add\n        /* \"#utility.yul\":8527:8533   */\n      dup6\n        /* \"#utility.yul\":8483:8554   */\n      tag_200\n      jump\t// in\n    tag_318:\n        /* \"#utility.yul\":8564:8636   */\n      tag_319\n        /* \"#utility.yul\":8632:8634   */\n      0x20\n        /* \"#utility.yul\":8621:8630   */\n      dup4\n        /* \"#utility.yul\":8617:8635   */\n      add\n        /* \"#utility.yul\":8608:8614   */\n      dup5\n        /* \"#utility.yul\":8564:8636   */\n      tag_173\n      jump\t// in\n    tag_319:\n        /* \"#utility.yul\":8311:8643   */\n      swap4\n      swap3\n      pop\n      pop\n      pop\n      jump\t// out\n        /* \"#utility.yul\":8649:8765   */\n    tag_202:\n        /* \"#utility.yul\":8719:8740   */\n      tag_321\n        /* \"#utility.yul\":8734:8739   */\n      dup2\n        /* \"#utility.yul\":8719:8740   */\n      tag_174\n      jump\t// in\n    tag_321:\n        /* \"#utility.yul\":8712:8717   */\n      dup2\n        /* \"#utility.yul\":8709:8741   */\n      eq\n        /* \"#utility.yul\":8699:8759   */\n      tag_322\n      jumpi\n        /* \"#utility.yul\":8755:8756   */\n      0x00\n        /* \"#utility.yul\":8752:8753   */\n      dup1\n        /* \"#utility.yul\":8745:8757   */\n      revert\n        /* \"#utility.yul\":8699:8759   */\n    tag_322:\n        /* \"#utility.yul\":8649:8765   */\n      pop\n      jump\t// out\n        /* \"#utility.yul\":8771:8908   */\n    tag_203:\n        /* \"#utility.yul\":8825:8830   */\n      0x00\n        /* \"#utility.yul\":8856:8862   */\n      dup2\n        /* \"#utility.yul\":8850:8863   */\n      mload\n        /* \"#utility.yul\":8841:8863   */\n      swap1\n      pop\n        /* \"#utility.yul\":8872:8902   */\n      tag_324\n        /* \"#utility.yul\":8896:8901   */\n      dup2\n        /* \"#utility.yul\":8872:8902   */\n      tag_202\n      jump\t// in\n    tag_324:\n        /* \"#utility.yul\":8771:8908   */\n      swap3\n      swap2\n      pop\n      pop\n      jump\t// out\n        /* \"#utility.yul\":8914:9259   */\n    tag_85:\n        /* \"#utility.yul\":8981:8987   */\n      0x00\n        /* \"#utility.yul\":9030:9032   */\n      0x20\n        /* \"#utility.yul\":9018:9027   */\n      dup3\n        /* \"#utility.yul\":9009:9016   */\n      dup5\n        /* \"#utility.yul\":9005:9028   */\n      sub\n        /* \"#utility.yul\":9001:9033   */\n      slt\n        /* \"#utility.yul\":8998:9117   */\n      iszero\n      tag_326\n      jumpi\n        /* \"#utility.yul\":9036:9115   */\n      tag_327\n      tag_177\n      jump\t// in\n    tag_327:\n        /* \"#utility.yul\":8998:9117   */\n    tag_326:\n        /* \"#utility.yul\":9156:9157   */\n      0x00\n        /* \"#utility.yul\":9181:9242   */\n      tag_328\n        /* \"#utility.yul\":9234:9241   */\n      dup5\n        /* \"#utility.yul\":9225:9231   */\n      dup3\n        /* \"#utility.yul\":9214:9223   */\n      dup6\n        /* \"#utility.yul\":9210:9232   */\n      add\n        /* \"#utility.yul\":9181:9242   */\n      tag_203\n      jump\t// in\n    tag_328:\n        /* \"#utility.yul\":9171:9242   */\n      swap2\n      pop\n        /* \"#utility.yul\":9127:9252   */\n      pop\n        /* \"#utility.yul\":8914:9259   */\n      swap3\n      swap2\n      pop\n      pop\n      jump\t// out\n        /* \"#utility.yul\":9265:9433   */\n    tag_204:\n        /* \"#utility.yul\":9405:9425   */\n      0x556e61626c6520746f207472616e736665720000000000000000000000000000\n        /* \"#utility.yul\":9401:9402   */\n      0x00\n        /* \"#utility.yul\":9393:9399   */\n      dup3\n        /* \"#utility.yul\":9389:9403   */\n      add\n        /* \"#utility.yul\":9382:9426   */\n      mstore\n        /* \"#utility.yul\":9265:9433   */\n      pop\n      jump\t// out\n        /* \"#utility.yul\":9439:9805   */\n    tag_205:\n        /* \"#utility.yul\":9581:9584   */\n      0x00\n        /* \"#utility.yul\":9602:9669   */\n      tag_331\n        /* \"#utility.yul\":9666:9668   */\n      0x12\n        /* \"#utility.yul\":9661:9664   */\n      dup4\n        /* \"#utility.yul\":9602:9669   */\n      tag_194\n      jump\t// in\n    tag_331:\n        /* \"#utility.yul\":9595:9669   */\n      swap2\n      pop\n        /* \"#utility.yul\":9678:9771   */\n      tag_332\n        /* \"#utility.yul\":9767:9770   */\n      dup3\n        /* \"#utility.yul\":9678:9771   */\n      tag_204\n      jump\t// in\n    tag_332:\n        /* \"#utility.yul\":9796:9798   */\n      0x20\n        /* \"#utility.yul\":9791:9794   */\n      dup3\n        /* \"#utility.yul\":9787:9799   */\n      add\n        /* \"#utility.yul\":9780:9799   */\n      swap1\n      pop\n        /* \"#utility.yul\":9439:9805   */\n      swap2\n      swap1\n      pop\n      jump\t// out\n        /* \"#utility.yul\":9811:10230   */\n    tag_88:\n        /* \"#utility.yul\":9977:9981   */\n      0x00\n        /* \"#utility.yul\":10015:10017   */\n      0x20\n        /* \"#utility.yul\":10004:10013   */\n      dup3\n        /* \"#utility.yul\":10000:10018   */\n      add\n        /* \"#utility.yul\":9992:10018   */\n      swap1\n      pop\n        /* \"#utility.yul\":10064:10073   */\n      dup2\n        /* \"#utility.yul\":10058:10062   */\n      dup2\n        /* \"#utility.yul\":10054:10074   */\n      sub\n        /* \"#utility.yul\":10050:10051   */\n      0x00\n        /* \"#utility.yul\":10039:10048   */\n      dup4\n        /* \"#utility.yul\":10035:10052   */\n      add\n        /* \"#utility.yul\":10028:10075   */\n      mstore\n        /* \"#utility.yul\":10092:10223   */\n      tag_334\n        /* \"#utility.yul\":10218:10222   */\n      dup2\n        /* \"#utility.yul\":10092:10223   */\n      tag_205\n      jump\t// in\n    tag_334:\n        /* \"#utility.yul\":10084:10223   */\n      swap1\n      pop\n        /* \"#utility.yul\":9811:10230   */\n      swap2\n      swap1\n      pop\n      jump\t// out\n        /* \"#utility.yul\":10236:10417   */\n    tag_206:\n        /* \"#utility.yul\":10376:10409   */\n      0x4f6e6c7920565246436f6f7264696e61746f722063616e2066756c66696c6c00\n        /* \"#utility.yul\":10372:10373   */\n      0x00\n        /* \"#utility.yul\":10364:10370   */\n      dup3\n        /* \"#utility.yul\":10360:10374   */\n      add\n        /* \"#utility.yul\":10353:10410   */\n      mstore\n        /* \"#utility.yul\":10236:10417   */\n      pop\n      jump\t// out\n        /* \"#utility.yul\":10423:10789   */\n    tag_207:\n        /* \"#utility.yul\":10565:10568   */\n      0x00\n        /* \"#utility.yul\":10586:10653   */\n      tag_337\n        /* \"#utility.yul\":10650:10652   */\n      0x1f\n        /* \"#utility.yul\":10645:10648   */\n      dup4\n        /* \"#utility.yul\":10586:10653   */\n      tag_194\n      jump\t// in\n    tag_337:\n        /* \"#utility.yul\":10579:10653   */\n      swap2\n      pop\n        /* \"#utility.yul\":10662:10755   */\n      tag_338\n        /* \"#utility.yul\":10751:10754   */\n      dup3\n        /* \"#utility.yul\":10662:10755   */\n      tag_206\n      jump\t// in\n    tag_338:\n        /* \"#utility.yul\":10780:10782   */\n      0x20\n        /* \"#utility.yul\":10775:10778   */\n      dup3\n        /* \"#utility.yul\":10771:10783   */\n      add\n        /* \"#utility.yul\":10764:10783   */\n      swap1\n      pop\n        /* \"#utility.yul\":10423:10789   */\n      swap2\n      swap1\n      pop\n      jump\t// out\n        /* \"#utility.yul\":10795:11214   */\n    tag_92:\n        /* \"#utility.yul\":10961:10965   */\n      0x00\n        /* \"#utility.yul\":10999:11001   */\n      0x20\n        /* \"#utility.yul\":10988:10997   */\n      dup3\n        /* \"#utility.yul\":10984:11002   */\n      add\n        /* \"#utility.yul\":10976:11002   */\n      swap1\n      pop\n        /* \"#utility.yul\":11048:11057   */\n      dup2\n        /* \"#utility.yul\":11042:11046   */\n      dup2\n        /* \"#utility.yul\":11038:11058   */\n      sub\n        /* \"#utility.yul\":11034:11035   */\n      0x00\n        /* \"#utility.yul\":11023:11032   */\n      dup4\n        /* \"#utility.yul\":11019:11036   */\n      add\n        /* \"#utility.yul\":11012:11059   */\n      mstore\n        /* \"#utility.yul\":11076:11207   */\n      tag_340\n        /* \"#utility.yul\":11202:11206   */\n      dup2\n        /* \"#utility.yul\":11076:11207   */\n      tag_207\n      jump\t// in\n    tag_340:\n        /* \"#utility.yul\":11068:11207   */\n      swap1\n      pop\n        /* \"#utility.yul\":10795:11214   */\n      swap2\n      swap1\n      pop\n      jump\t// out\n        /* \"#utility.yul\":11220:11396   */\n    tag_208:\n        /* \"#utility.yul\":11360:11388   */\n      0x496e73756666696369656e7420746f6b656e2062616c616e6365000000000000\n        /* \"#utility.yul\":11356:11357   */\n      0x00\n        /* \"#utility.yul\":11348:11354   */\n      dup3\n        /* \"#utility.yul\":11344:11358   */\n      add\n        /* \"#utility.yul\":11337:11389   */\n      mstore\n        /* \"#utility.yul\":11220:11396   */\n      pop\n      jump\t// out\n        /* \"#utility.yul\":11402:11768   */\n    tag_209:\n        /* \"#utility.yul\":11544:11547   */\n      0x00\n        /* \"#utility.yul\":11565:11632   */\n      tag_343\n        /* \"#utility.yul\":11629:11631   */\n      0x1a\n        /* \"#utility.yul\":11624:11627   */\n      dup4\n        /* \"#utility.yul\":11565:11632   */\n      tag_194\n      jump\t// in\n    tag_343:\n        /* \"#utility.yul\":11558:11632   */\n      swap2\n      pop\n        /* \"#utility.yul\":11641:11734   */\n      tag_344\n        /* \"#utility.yul\":11730:11733   */\n      dup3\n        /* \"#utility.yul\":11641:11734   */\n      tag_208\n      jump\t// in\n    tag_344:\n        /* \"#utility.yul\":11759:11761   */\n      0x20\n        /* \"#utility.yul\":11754:11757   */\n      dup3\n        /* \"#utility.yul\":11750:11762   */\n      add\n        /* \"#utility.yul\":11743:11762   */\n      swap1\n      pop\n        /* \"#utility.yul\":11402:11768   */\n      swap2\n      swap1\n      pop\n      jump\t// out\n        /* \"#utility.yul\":11774:12193   */\n    tag_102:\n        /* \"#utility.yul\":11940:11944   */\n      0x00\n        /* \"#utility.yul\":11978:11980   */\n      0x20\n        /* \"#utility.yul\":11967:11976   */\n      dup3\n        /* \"#utility.yul\":11963:11981   */\n      add\n        /* \"#utility.yul\":11955:11981   */\n      swap1\n      pop\n        /* \"#utility.yul\":12027:12036   */\n      dup2\n        /* \"#utility.yul\":12021:12025   */\n      dup2\n        /* \"#utility.yul\":12017:12037   */\n      sub\n        /* \"#utility.yul\":12013:12014   */\n      0x00\n        /* \"#utility.yul\":12002:12011   */\n      dup4\n        /* \"#utility.yul\":11998:12015   */\n      add\n        /* \"#utility.yul\":11991:12038   */\n      mstore\n        /* \"#utility.yul\":12055:12186   */\n      tag_346\n        /* \"#utility.yul\":12181:12185   */\n      dup2\n        /* \"#utility.yul\":12055:12186   */\n      tag_209\n      jump\t// in\n    tag_346:\n        /* \"#utility.yul\":12047:12186   */\n      swap1\n      pop\n        /* \"#utility.yul\":11774:12193   */\n      swap2\n      swap1\n      pop\n      jump\t// out\n        /* \"#utility.yul\":12199:12371   */\n    tag_210:\n        /* \"#utility.yul\":12339:12363   */\n      0x496e636f727265637420746f6b656e20616d6f756e7400000000000000000000\n        /* \"#utility.yul\":12335:12336   */\n      0x00\n        /* \"#utility.yul\":12327:12333   */\n      dup3\n        /* \"#utility.yul\":12323:12337   */\n      add\n        /* \"#utility.yul\":12316:12364   */\n      mstore\n        /* \"#utility.yul\":12199:12371   */\n      pop\n      jump\t// out\n        /* \"#utility.yul\":12377:12743   */\n    tag_211:\n        /* \"#utility.yul\":12519:12522   */\n      0x00\n        /* \"#utility.yul\":12540:12607   */\n      tag_349\n        /* \"#utility.yul\":12604:12606   */\n      0x16\n        /* \"#utility.yul\":12599:12602   */\n      dup4\n        /* \"#utility.yul\":12540:12607   */\n      tag_194\n      jump\t// in\n    tag_349:\n        /* \"#utility.yul\":12533:12607   */\n      swap2\n      pop\n        /* \"#utility.yul\":12616:12709   */\n      tag_350\n        /* \"#utility.yul\":12705:12708   */\n      dup3\n        /* \"#utility.yul\":12616:12709   */\n      tag_210\n      jump\t// in\n    tag_350:\n        /* \"#utility.yul\":12734:12736   */\n      0x20\n        /* \"#utility.yul\":12729:12732   */\n      dup3\n        /* \"#utility.yul\":12725:12737   */\n      add\n        /* \"#utility.yul\":12718:12737   */\n      swap1\n      pop\n        /* \"#utility.yul\":12377:12743   */\n      swap2\n      swap1\n      pop\n      jump\t// out\n        /* \"#utility.yul\":12749:13168   */\n    tag_105:\n        /* \"#utility.yul\":12915:12919   */\n      0x00\n        /* \"#utility.yul\":12953:12955   */\n      0x20\n        /* \"#utility.yul\":12942:12951   */\n      dup3\n        /* \"#utility.yul\":12938:12956   */\n      add\n        /* \"#utility.yul\":12930:12956   */\n      swap1\n      pop\n        /* \"#utility.yul\":13002:13011   */\n      dup2\n        /* \"#utility.yul\":12996:13000   */\n      dup2\n        /* \"#utility.yul\":12992:13012   */\n      sub\n        /* \"#utility.yul\":12988:12989   */\n      0x00\n        /* \"#utility.yul\":12977:12986   */\n      dup4\n        /* \"#utility.yul\":12973:12990   */\n      add\n        /* \"#utility.yul\":12966:13013   */\n      mstore\n        /* \"#utility.yul\":13030:13161   */\n      tag_352\n        /* \"#utility.yul\":13156:13160   */\n      dup2\n        /* \"#utility.yul\":13030:13161   */\n      tag_211\n      jump\t// in\n    tag_352:\n        /* \"#utility.yul\":13022:13161   */\n      swap1\n      pop\n        /* \"#utility.yul\":12749:13168   */\n      swap2\n      swap1\n      pop\n      jump\t// out\n        /* \"#utility.yul\":13174:13616   */\n    tag_107:\n        /* \"#utility.yul\":13323:13327   */\n      0x00\n        /* \"#utility.yul\":13361:13363   */\n      0x60\n        /* \"#utility.yul\":13350:13359   */\n      dup3\n        /* \"#utility.yul\":13346:13364   */\n      add\n        /* \"#utility.yul\":13338:13364   */\n      swap1\n      pop\n        /* \"#utility.yul\":13374:13445   */\n      tag_354\n        /* \"#utility.yul\":13442:13443   */\n      0x00\n        /* \"#utility.yul\":13431:13440   */\n      dup4\n        /* \"#utility.yul\":13427:13444   */\n      add\n        /* \"#utility.yul\":13418:13424   */\n      dup7\n        /* \"#utility.yul\":13374:13445   */\n      tag_200\n      jump\t// in\n    tag_354:\n        /* \"#utility.yul\":13455:13527   */\n      tag_355\n        /* \"#utility.yul\":13523:13525   */\n      0x20\n        /* \"#utility.yul\":13512:13521   */\n      dup4\n        /* \"#utility.yul\":13508:13526   */\n      add\n        /* \"#utility.yul\":13499:13505   */\n      dup6\n        /* \"#utility.yul\":13455:13527   */\n      tag_200\n      jump\t// in\n    tag_355:\n        /* \"#utility.yul\":13537:13609   */\n      tag_356\n        /* \"#utility.yul\":13605:13607   */\n      0x40\n        /* \"#utility.yul\":13594:13603   */\n      dup4\n        /* \"#utility.yul\":13590:13608   */\n      add\n        /* \"#utility.yul\":13581:13587   */\n      dup5\n        /* \"#utility.yul\":13537:13609   */\n      tag_173\n      jump\t// in\n    tag_356:\n        /* \"#utility.yul\":13174:13616   */\n      swap5\n      swap4\n      pop\n      pop\n      pop\n      pop\n      jump\t// out\n        /* \"#utility.yul\":13622:13846   */\n    tag_212:\n        /* \"#utility.yul\":13762:13796   */\n      0x4e6f7420656e6f756768204c494e4b20746f20726571756573742072616e646f\n        /* \"#utility.yul\":13758:13759   */\n      0x00\n        /* \"#utility.yul\":13750:13756   */\n      dup3\n        /* \"#utility.yul\":13746:13760   */\n      add\n        /* \"#utility.yul\":13739:13797   */\n      mstore\n        /* \"#utility.yul\":13831:13838   */\n      0x6d6e657373000000000000000000000000000000000000000000000000000000\n        /* \"#utility.yul\":13826:13828   */\n      0x20\n        /* \"#utility.yul\":13818:13824   */\n      dup3\n        /* \"#utility.yul\":13814:13829   */\n      add\n        /* \"#utility.yul\":13807:13839   */\n      mstore\n        /* \"#utility.yul\":13622:13846   */\n      pop\n      jump\t// out\n        /* \"#utility.yul\":13852:14218   */\n    tag_213:\n        /* \"#utility.yul\":13994:13997   */\n      0x00\n        /* \"#utility.yul\":14015:14082   */\n      tag_359\n        /* \"#utility.yul\":14079:14081   */\n      0x25\n        /* \"#utility.yul\":14074:14077   */\n      dup4\n        /* \"#utility.yul\":14015:14082   */\n      tag_194\n      jump\t// in\n    tag_359:\n        /* \"#utility.yul\":14008:14082   */\n      swap2\n      pop\n        /* \"#utility.yul\":14091:14184   */\n      tag_360\n        /* \"#utility.yul\":14180:14183   */\n      dup3\n        /* \"#utility.yul\":14091:14184   */\n      tag_212\n      jump\t// in\n    tag_360:\n        /* \"#utility.yul\":14209:14211   */\n      0x40\n        /* \"#utility.yul\":14204:14207   */\n      dup3\n        /* \"#utility.yul\":14200:14212   */\n      add\n        /* \"#utility.yul\":14193:14212   */\n      swap1\n      pop\n        /* \"#utility.yul\":13852:14218   */\n      swap2\n      swap1\n      pop\n      jump\t// out\n        /* \"#utility.yul\":14224:14643   */\n    tag_126:\n        /* \"#utility.yul\":14390:14394   */\n      0x00\n        /* \"#utility.yul\":14428:14430   */\n      0x20\n        /* \"#utility.yul\":14417:14426   */\n      dup3\n        /* \"#utility.yul\":14413:14431   */\n      add\n        /* \"#utility.yul\":14405:14431   */\n      swap1\n      pop\n        /* \"#utility.yul\":14477:14486   */\n      dup2\n        /* \"#utility.yul\":14471:14475   */\n      dup2\n        /* \"#utility.yul\":14467:14487   */\n      sub\n        /* \"#utility.yul\":14463:14464   */\n      0x00\n        /* \"#utility.yul\":14452:14461   */\n      dup4\n        /* \"#utility.yul\":14448:14465   */\n      add\n        /* \"#utility.yul\":14441:14488   */\n      mstore\n        /* \"#utility.yul\":14505:14636   */\n      tag_362\n        /* \"#utility.yul\":14631:14635   */\n      dup2\n        /* \"#utility.yul\":14505:14636   */\n      tag_213\n      jump\t// in\n    tag_362:\n        /* \"#utility.yul\":14497:14636   */\n      swap1\n      pop\n        /* \"#utility.yul\":14224:14643   */\n      swap2\n      swap1\n      pop\n      jump\t// out\n        /* \"#utility.yul\":14649:14829   */\n    tag_214:\n        /* \"#utility.yul\":14697:14774   */\n      0x4e487b7100000000000000000000000000000000000000000000000000000000\n        /* \"#utility.yul\":14694:14695   */\n      0x00\n        /* \"#utility.yul\":14687:14775   */\n      mstore\n        /* \"#utility.yul\":14794:14798   */\n      0x12\n        /* \"#utility.yul\":14791:14792   */\n      0x04\n        /* \"#utility.yul\":14784:14799   */\n      mstore\n        /* \"#utility.yul\":14818:14822   */\n      0x24\n        /* \"#utility.yul\":14815:14816   */\n      0x00\n        /* \"#utility.yul\":14808:14823   */\n      revert\n        /* \"#utility.yul\":14835:15011   */\n    tag_131:\n        /* \"#utility.yul\":14867:14868   */\n      0x00\n        /* \"#utility.yul\":14884:14904   */\n      tag_365\n        /* \"#utility.yul\":14902:14903   */\n      dup3\n        /* \"#utility.yul\":14884:14904   */\n      tag_172\n      jump\t// in\n    tag_365:\n        /* \"#utility.yul\":14879:14904   */\n      swap2\n      pop\n        /* \"#utility.yul\":14918:14938   */\n      tag_366\n        /* \"#utility.yul\":14936:14937   */\n      dup4\n        /* \"#utility.yul\":14918:14938   */\n      tag_172\n      jump\t// in\n    tag_366:\n        /* \"#utility.yul\":14913:14938   */\n      swap3\n      pop\n        /* \"#utility.yul\":14957:14958   */\n      dup3\n        /* \"#utility.yul\":14947:14982   */\n      tag_367\n      jumpi\n        /* \"#utility.yul\":14962:14980   */\n      tag_368\n      tag_214\n      jump\t// in\n    tag_368:\n        /* \"#utility.yul\":14947:14982   */\n    tag_367:\n        /* \"#utility.yul\":15003:15004   */\n      dup3\n        /* \"#utility.yul\":15000:15001   */\n      dup3\n        /* \"#utility.yul\":14996:15005   */\n      mod\n        /* \"#utility.yul\":14991:15005   */\n      swap1\n      pop\n        /* \"#utility.yul\":14835:15011   */\n      swap3\n      swap2\n      pop\n      pop\n      jump\t// out\n        /* \"#utility.yul\":15017:15135   */\n    tag_215:\n        /* \"#utility.yul\":15104:15128   */\n      tag_370\n        /* \"#utility.yul\":15122:15127   */\n      dup2\n        /* \"#utility.yul\":15104:15128   */\n      tag_184\n      jump\t// in\n    tag_370:\n        /* \"#utility.yul\":15099:15102   */\n      dup3\n        /* \"#utility.yul\":15092:15129   */\n      mstore\n        /* \"#utility.yul\":15017:15135   */\n      pop\n      pop\n      jump\t// out\n        /* \"#utility.yul\":15141:15473   */\n    tag_136:\n        /* \"#utility.yul\":15262:15266   */\n      0x00\n        /* \"#utility.yul\":15300:15302   */\n      0x40\n        /* \"#utility.yul\":15289:15298   */\n      dup3\n        /* \"#utility.yul\":15285:15303   */\n      add\n        /* \"#utility.yul\":15277:15303   */\n      swap1\n      pop\n        /* \"#utility.yul\":15313:15384   */\n      tag_372\n        /* \"#utility.yul\":15381:15382   */\n      0x00\n        /* \"#utility.yul\":15370:15379   */\n      dup4\n        /* \"#utility.yul\":15366:15383   */\n      add\n        /* \"#utility.yul\":15357:15363   */\n      dup6\n        /* \"#utility.yul\":15313:15384   */\n      tag_215\n      jump\t// in\n    tag_372:\n        /* \"#utility.yul\":15394:15466   */\n      tag_373\n        /* \"#utility.yul\":15462:15464   */\n      0x20\n        /* \"#utility.yul\":15451:15460   */\n      dup4\n        /* \"#utility.yul\":15447:15465   */\n      add\n        /* \"#utility.yul\":15438:15444   */\n      dup5\n        /* \"#utility.yul\":15394:15466   */\n      tag_173\n      jump\t// in\n    tag_373:\n        /* \"#utility.yul\":15141:15473   */\n      swap4\n      swap3\n      pop\n      pop\n      pop\n      jump\t// out\n        /* \"#utility.yul\":15479:15577   */\n    tag_216:\n        /* \"#utility.yul\":15530:15536   */\n      0x00\n        /* \"#utility.yul\":15564:15569   */\n      dup2\n        /* \"#utility.yul\":15558:15570   */\n      mload\n        /* \"#utility.yul\":15548:15570   */\n      swap1\n      pop\n        /* \"#utility.yul\":15479:15577   */\n      swap2\n      swap1\n      pop\n      jump\t// out\n        /* \"#utility.yul\":15583:15751   */\n    tag_217:\n        /* \"#utility.yul\":15666:15677   */\n      0x00\n        /* \"#utility.yul\":15700:15706   */\n      dup3\n        /* \"#utility.yul\":15695:15698   */\n      dup3\n        /* \"#utility.yul\":15688:15707   */\n      mstore\n        /* \"#utility.yul\":15740:15744   */\n      0x20\n        /* \"#utility.yul\":15735:15738   */\n      dup3\n        /* \"#utility.yul\":15731:15745   */\n      add\n        /* \"#utility.yul\":15716:15745   */\n      swap1\n      pop\n        /* \"#utility.yul\":15583:15751   */\n      swap3\n      swap2\n      pop\n      pop\n      jump\t// out\n        /* \"#utility.yul\":15757:15896   */\n    tag_218:\n        /* \"#utility.yul\":15846:15852   */\n      dup3\n        /* \"#utility.yul\":15841:15844   */\n      dup2\n        /* \"#utility.yul\":15836:15839   */\n      dup4\n        /* \"#utility.yul\":15830:15853   */\n      mcopy\n        /* \"#utility.yul\":15887:15888   */\n      0x00\n        /* \"#utility.yul\":15878:15884   */\n      dup4\n        /* \"#utility.yul\":15873:15876   */\n      dup4\n        /* \"#utility.yul\":15869:15885   */\n      add\n        /* \"#utility.yul\":15862:15889   */\n      mstore\n        /* \"#utility.yul\":15757:15896   */\n      pop\n      pop\n      pop\n      jump\t// out\n        /* \"#utility.yul\":15902:16004   */\n    tag_219:\n        /* \"#utility.yul\":15943:15949   */\n      0x00\n        /* \"#utility.yul\":15994:15996   */\n      0x1f\n        /* \"#utility.yul\":15990:15997   */\n      not\n        /* \"#utility.yul\":15985:15987   */\n      0x1f\n        /* \"#utility.yul\":15978:15983   */\n      dup4\n        /* \"#utility.yul\":15974:15988   */\n      add\n        /* \"#utility.yul\":15970:15998   */\n      and\n        /* \"#utility.yul\":15960:15998   */\n      swap1\n      pop\n        /* \"#utility.yul\":15902:16004   */\n      swap2\n      swap1\n      pop\n      jump\t// out\n        /* \"#utility.yul\":16010:16383   */\n    tag_220:\n        /* \"#utility.yul\":16096:16099   */\n      0x00\n        /* \"#utility.yul\":16124:16162   */\n      tag_379\n        /* \"#utility.yul\":16156:16161   */\n      dup3\n        /* \"#utility.yul\":16124:16162   */\n      tag_216\n      jump\t// in\n    tag_379:\n        /* \"#utility.yul\":16178:16248   */\n      tag_380\n        /* \"#utility.yul\":16241:16247   */\n      dup2\n        /* \"#utility.yul\":16236:16239   */\n      dup6\n        /* \"#utility.yul\":16178:16248   */\n      tag_217\n      jump\t// in\n    tag_380:\n        /* \"#utility.yul\":16171:16248   */\n      swap4\n      pop\n        /* \"#utility.yul\":16257:16322   */\n      tag_381\n        /* \"#utility.yul\":16315:16321   */\n      dup2\n        /* \"#utility.yul\":16310:16313   */\n      dup6\n        /* \"#utility.yul\":16303:16307   */\n      0x20\n        /* \"#utility.yul\":16296:16301   */\n      dup7\n        /* \"#utility.yul\":16292:16308   */\n      add\n        /* \"#utility.yul\":16257:16322   */\n      tag_218\n      jump\t// in\n    tag_381:\n        /* \"#utility.yul\":16347:16376   */\n      tag_382\n        /* \"#utility.yul\":16369:16375   */\n      dup2\n        /* \"#utility.yul\":16347:16376   */\n      tag_219\n      jump\t// in\n    tag_382:\n        /* \"#utility.yul\":16342:16345   */\n      dup5\n        /* \"#utility.yul\":16338:16377   */\n      add\n        /* \"#utility.yul\":16331:16377   */\n      swap2\n      pop\n        /* \"#utility.yul\":16100:16383   */\n      pop\n        /* \"#utility.yul\":16010:16383   */\n      swap3\n      swap2\n      pop\n      pop\n      jump\t// out\n        /* \"#utility.yul\":16389:16918   */\n    tag_138:\n        /* \"#utility.yul\":16556:16560   */\n      0x00\n        /* \"#utility.yul\":16594:16596   */\n      0x60\n        /* \"#utility.yul\":16583:16592   */\n      dup3\n        /* \"#utility.yul\":16579:16597   */\n      add\n        /* \"#utility.yul\":16571:16597   */\n      swap1\n      pop\n        /* \"#utility.yul\":16607:16678   */\n      tag_384\n        /* \"#utility.yul\":16675:16676   */\n      0x00\n        /* \"#utility.yul\":16664:16673   */\n      dup4\n        /* \"#utility.yul\":16660:16677   */\n      add\n        /* \"#utility.yul\":16651:16657   */\n      dup7\n        /* \"#utility.yul\":16607:16678   */\n      tag_200\n      jump\t// in\n    tag_384:\n        /* \"#utility.yul\":16688:16760   */\n      tag_385\n        /* \"#utility.yul\":16756:16758   */\n      0x20\n        /* \"#utility.yul\":16745:16754   */\n      dup4\n        /* \"#utility.yul\":16741:16759   */\n      add\n        /* \"#utility.yul\":16732:16738   */\n      dup6\n        /* \"#utility.yul\":16688:16760   */\n      tag_173\n      jump\t// in\n    tag_385:\n        /* \"#utility.yul\":16807:16816   */\n      dup2\n        /* \"#utility.yul\":16801:16805   */\n      dup2\n        /* \"#utility.yul\":16797:16817   */\n      sub\n        /* \"#utility.yul\":16792:16794   */\n      0x40\n        /* \"#utility.yul\":16781:16790   */\n      dup4\n        /* \"#utility.yul\":16777:16795   */\n      add\n        /* \"#utility.yul\":16770:16818   */\n      mstore\n        /* \"#utility.yul\":16835:16911   */\n      tag_386\n        /* \"#utility.yul\":16906:16910   */\n      dup2\n        /* \"#utility.yul\":16897:16903   */\n      dup5\n        /* \"#utility.yul\":16835:16911   */\n      tag_220\n      jump\t// in\n    tag_386:\n        /* \"#utility.yul\":16827:16911   */\n      swap1\n      pop\n        /* \"#utility.yul\":16389:16918   */\n      swap5\n      swap4\n      pop\n      pop\n      pop\n      pop\n      jump\t// out\n        /* \"#utility.yul\":16924:17104   */\n    tag_221:\n        /* \"#utility.yul\":16972:17049   */\n      0x4e487b7100000000000000000000000000000000000000000000000000000000\n        /* \"#utility.yul\":16969:16970   */\n      0x00\n        /* \"#utility.yul\":16962:17050   */\n      mstore\n        /* \"#utility.yul\":17069:17073   */\n      0x11\n        /* \"#utility.yul\":17066:17067   */\n      0x04\n        /* \"#utility.yul\":17059:17074   */\n      mstore\n        /* \"#utility.yul\":17093:17097   */\n      0x24\n        /* \"#utility.yul\":17090:17091   */\n      0x00\n        /* \"#utility.yul\":17083:17098   */\n      revert\n        /* \"#utility.yul\":17110:17301   */\n    tag_145:\n        /* \"#utility.yul\":17150:17153   */\n      0x00\n        /* \"#utility.yul\":17169:17189   */\n      tag_389\n        /* \"#utility.yul\":17187:17188   */\n      dup3\n        /* \"#utility.yul\":17169:17189   */\n      tag_172\n      jump\t// in\n    tag_389:\n        /* \"#utility.yul\":17164:17189   */\n      swap2\n      pop\n        /* \"#utility.yul\":17203:17223   */\n      tag_390\n        /* \"#utility.yul\":17221:17222   */\n      dup4\n        /* \"#utility.yul\":17203:17223   */\n      tag_172\n      jump\t// in\n    tag_390:\n        /* \"#utility.yul\":17198:17223   */\n      swap3\n      pop\n        /* \"#utility.yul\":17246:17247   */\n      dup3\n        /* \"#utility.yul\":17243:17244   */\n      dup3\n        /* \"#utility.yul\":17239:17248   */\n      add\n        /* \"#utility.yul\":17232:17248   */\n      swap1\n      pop\n        /* \"#utility.yul\":17267:17270   */\n      dup1\n        /* \"#utility.yul\":17264:17265   */\n      dup3\n        /* \"#utility.yul\":17261:17271   */\n      gt\n        /* \"#utility.yul\":17258:17294   */\n      iszero\n      tag_391\n      jumpi\n        /* \"#utility.yul\":17274:17292   */\n      tag_392\n      tag_221\n      jump\t// in\n    tag_392:\n        /* \"#utility.yul\":17258:17294   */\n    tag_391:\n        /* \"#utility.yul\":17110:17301   */\n      swap3\n      swap2\n      pop\n      pop\n      jump\t// out\n        /* \"#utility.yul\":17307:17478   */\n    tag_222:\n        /* \"#utility.yul\":17447:17470   */\n      0x47616d6520616c726561647920636f6d706c6574650000000000000000000000\n        /* \"#utility.yul\":17443:17444   */\n      0x00\n        /* \"#utility.yul\":17435:17441   */\n      dup3\n        /* \"#utility.yul\":17431:17445   */\n      add\n        /* \"#utility.yul\":17424:17471   */\n      mstore\n        /* \"#utility.yul\":17307:17478   */\n      pop\n      jump\t// out\n        /* \"#utility.yul\":17484:17850   */\n    tag_223:\n        /* \"#utility.yul\":17626:17629   */\n      0x00\n        /* \"#utility.yul\":17647:17714   */\n      tag_395\n        /* \"#utility.yul\":17711:17713   */\n      0x15\n        /* \"#utility.yul\":17706:17709   */\n      dup4\n        /* \"#utility.yul\":17647:17714   */\n      tag_194\n      jump\t// in\n    tag_395:\n        /* \"#utility.yul\":17640:17714   */\n      swap2\n      pop\n        /* \"#utility.yul\":17723:17816   */\n      tag_396\n        /* \"#utility.yul\":17812:17815   */\n      dup3\n        /* \"#utility.yul\":17723:17816   */\n      tag_222\n      jump\t// in\n    tag_396:\n        /* \"#utility.yul\":17841:17843   */\n      0x20\n        /* \"#utility.yul\":17836:17839   */\n      dup3\n        /* \"#utility.yul\":17832:17844   */\n      add\n        /* \"#utility.yul\":17825:17844   */\n      swap1\n      pop\n        /* \"#utility.yul\":17484:17850   */\n      swap2\n      swap1\n      pop\n      jump\t// out\n        /* \"#utility.yul\":17856:18275   */\n    tag_151:\n        /* \"#utility.yul\":18022:18026   */\n      0x00\n        /* \"#utility.yul\":18060:18062   */\n      0x20\n        /* \"#utility.yul\":18049:18058   */\n      dup3\n        /* \"#utility.yul\":18045:18063   */\n      add\n        /* \"#utility.yul\":18037:18063   */\n      swap1\n      pop\n        /* \"#utility.yul\":18109:18118   */\n      dup2\n        /* \"#utility.yul\":18103:18107   */\n      dup2\n        /* \"#utility.yul\":18099:18119   */\n      sub\n        /* \"#utility.yul\":18095:18096   */\n      0x00\n        /* \"#utility.yul\":18084:18093   */\n      dup4\n        /* \"#utility.yul\":18080:18097   */\n      add\n        /* \"#utility.yul\":18073:18120   */\n      mstore\n        /* \"#utility.yul\":18137:18268   */\n      tag_398\n        /* \"#utility.yul\":18263:18267   */\n      dup2\n        /* \"#utility.yul\":18137:18268   */\n      tag_223\n      jump\t// in\n    tag_398:\n        /* \"#utility.yul\":18129:18268   */\n      swap1\n      pop\n        /* \"#utility.yul\":17856:18275   */\n      swap2\n      swap1\n      pop\n      jump\t// out\n        /* \"#utility.yul\":18281:18691   */\n    tag_162:\n        /* \"#utility.yul\":18321:18328   */\n      0x00\n        /* \"#utility.yul\":18344:18364   */\n      tag_400\n        /* \"#utility.yul\":18362:18363   */\n      dup3\n        /* \"#utility.yul\":18344:18364   */\n      tag_172\n      jump\t// in\n    tag_400:\n        /* \"#utility.yul\":18339:18364   */\n      swap2\n      pop\n        /* \"#utility.yul\":18378:18398   */\n      tag_401\n        /* \"#utility.yul\":18396:18397   */\n      dup4\n        /* \"#utility.yul\":18378:18398   */\n      tag_172\n      jump\t// in\n    tag_401:\n        /* \"#utility.yul\":18373:18398   */\n      swap3\n      pop\n        /* \"#utility.yul\":18433:18434   */\n      dup3\n        /* \"#utility.yul\":18430:18431   */\n      dup3\n        /* \"#utility.yul\":18426:18435   */\n      mul\n        /* \"#utility.yul\":18455:18485   */\n      tag_402\n        /* \"#utility.yul\":18473:18484   */\n      dup2\n        /* \"#utility.yul\":18455:18485   */\n      tag_172\n      jump\t// in\n    tag_402:\n        /* \"#utility.yul\":18444:18485   */\n      swap2\n      pop\n        /* \"#utility.yul\":18634:18635   */\n      dup3\n        /* \"#utility.yul\":18625:18632   */\n      dup3\n        /* \"#utility.yul\":18621:18636   */\n      div\n        /* \"#utility.yul\":18618:18619   */\n      dup5\n        /* \"#utility.yul\":18615:18637   */\n      eq\n        /* \"#utility.yul\":18595:18596   */\n      dup4\n        /* \"#utility.yul\":18588:18597   */\n      iszero\n        /* \"#utility.yul\":18568:18651   */\n      or\n        /* \"#utility.yul\":18545:18684   */\n      tag_403\n      jumpi\n        /* \"#utility.yul\":18664:18682   */\n      tag_404\n      tag_221\n      jump\t// in\n    tag_404:\n        /* \"#utility.yul\":18545:18684   */\n    tag_403:\n        /* \"#utility.yul\":18329:18691   */\n      pop\n        /* \"#utility.yul\":18281:18691   */\n      swap3\n      swap2\n      pop\n      pop\n      jump\t// out\n        /* \"#utility.yul\":18697:19250   */\n    tag_168:\n        /* \"#utility.yul\":18874:18878   */\n      0x00\n        /* \"#utility.yul\":18912:18915   */\n      0x80\n        /* \"#utility.yul\":18901:18910   */\n      dup3\n        /* \"#utility.yul\":18897:18916   */\n      add\n        /* \"#utility.yul\":18889:18916   */\n      swap1\n      pop\n        /* \"#utility.yul\":18926:18997   */\n      tag_406\n        /* \"#utility.yul\":18994:18995   */\n      0x00\n        /* \"#utility.yul\":18983:18992   */\n      dup4\n        /* \"#utility.yul\":18979:18996   */\n      add\n        /* \"#utility.yul\":18970:18976   */\n      dup8\n        /* \"#utility.yul\":18926:18997   */\n      tag_215\n      jump\t// in\n    tag_406:\n        /* \"#utility.yul\":19007:19079   */\n      tag_407\n        /* \"#utility.yul\":19075:19077   */\n      0x20\n        /* \"#utility.yul\":19064:19073   */\n      dup4\n        /* \"#utility.yul\":19060:19078   */\n      add\n        /* \"#utility.yul\":19051:19057   */\n      dup7\n        /* \"#utility.yul\":19007:19079   */\n      tag_173\n      jump\t// in\n    tag_407:\n        /* \"#utility.yul\":19089:19161   */\n      tag_408\n        /* \"#utility.yul\":19157:19159   */\n      0x40\n        /* \"#utility.yul\":19146:19155   */\n      dup4\n        /* \"#utility.yul\":19142:19160   */\n      add\n        /* \"#utility.yul\":19133:19139   */\n      dup6\n        /* \"#utility.yul\":19089:19161   */\n      tag_200\n      jump\t// in\n    tag_408:\n        /* \"#utility.yul\":19171:19243   */\n      tag_409\n        /* \"#utility.yul\":19239:19241   */\n      0x60\n        /* \"#utility.yul\":19228:19237   */\n      dup4\n        /* \"#utility.yul\":19224:19242   */\n      add\n        /* \"#utility.yul\":19215:19221   */\n      dup5\n        /* \"#utility.yul\":19171:19243   */\n      tag_173\n      jump\t// in\n    tag_409:\n        /* \"#utility.yul\":18697:19250   */\n      swap6\n      swap5\n      pop\n      pop\n      pop\n      pop\n      pop\n      jump\t// out\n        /* \"#utility.yul\":19256:19335   */\n    tag_224:\n        /* \"#utility.yul\":19295:19302   */\n      0x00\n        /* \"#utility.yul\":19324:19329   */\n      dup2\n        /* \"#utility.yul\":19313:19329   */\n      swap1\n      pop\n        /* \"#utility.yul\":19256:19335   */\n      swap2\n      swap1\n      pop\n      jump\t// out\n        /* \"#utility.yul\":19341:19498   */\n    tag_225:\n        /* \"#utility.yul\":19446:19491   */\n      tag_412\n        /* \"#utility.yul\":19466:19490   */\n      tag_413\n        /* \"#utility.yul\":19484:19489   */\n      dup3\n        /* \"#utility.yul\":19466:19490   */\n      tag_184\n      jump\t// in\n    tag_413:\n        /* \"#utility.yul\":19446:19491   */\n      tag_224\n      jump\t// in\n    tag_412:\n        /* \"#utility.yul\":19441:19444   */\n      dup3\n        /* \"#utility.yul\":19434:19492   */\n      mstore\n        /* \"#utility.yul\":19341:19498   */\n      pop\n      pop\n      jump\t// out\n        /* \"#utility.yul\":19504:19583   */\n    tag_226:\n        /* \"#utility.yul\":19543:19550   */\n      0x00\n        /* \"#utility.yul\":19572:19577   */\n      dup2\n        /* \"#utility.yul\":19561:19577   */\n      swap1\n      pop\n        /* \"#utility.yul\":19504:19583   */\n      swap2\n      swap1\n      pop\n      jump\t// out\n        /* \"#utility.yul\":19589:19746   */\n    tag_227:\n        /* \"#utility.yul\":19694:19739   */\n      tag_416\n        /* \"#utility.yul\":19714:19738   */\n      tag_417\n        /* \"#utility.yul\":19732:19737   */\n      dup3\n        /* \"#utility.yul\":19714:19738   */\n      tag_172\n      jump\t// in\n    tag_417:\n        /* \"#utility.yul\":19694:19739   */\n      tag_226\n      jump\t// in\n    tag_416:\n        /* \"#utility.yul\":19689:19692   */\n      dup3\n        /* \"#utility.yul\":19682:19740   */\n      mstore\n        /* \"#utility.yul\":19589:19746   */\n      pop\n      pop\n      jump\t// out\n        /* \"#utility.yul\":19752:20149   */\n    tag_171:\n        /* \"#utility.yul\":19892:19895   */\n      0x00\n        /* \"#utility.yul\":19907:19982   */\n      tag_419\n        /* \"#utility.yul\":19978:19981   */\n      dup3\n        /* \"#utility.yul\":19969:19975   */\n      dup6\n        /* \"#utility.yul\":19907:19982   */\n      tag_225\n      jump\t// in\n    tag_419:\n        /* \"#utility.yul\":20007:20009   */\n      0x20\n        /* \"#utility.yul\":20002:20005   */\n      dup3\n        /* \"#utility.yul\":19998:20010   */\n      add\n        /* \"#utility.yul\":19991:20010   */\n      swap2\n      pop\n        /* \"#utility.yul\":20020:20095   */\n      tag_420\n        /* \"#utility.yul\":20091:20094   */\n      dup3\n        /* \"#utility.yul\":20082:20088   */\n      dup5\n        /* \"#utility.yul\":20020:20095   */\n      tag_227\n      jump\t// in\n    tag_420:\n        /* \"#utility.yul\":20120:20122   */\n      0x20\n        /* \"#utility.yul\":20115:20118   */\n      dup3\n        /* \"#utility.yul\":20111:20123   */\n      add\n        /* \"#utility.yul\":20104:20123   */\n      swap2\n      pop\n        /* \"#utility.yul\":20140:20143   */\n      dup2\n        /* \"#utility.yul\":20133:20143   */\n      swap1\n      pop\n        /* \"#utility.yul\":19752:20149   */\n      swap4\n      swap3\n      pop\n      pop\n      pop\n      jump\t// out\n\n    auxdata: 0xa2646970667358221220f14ecbc614def9db15ec175d057f4d49272546690fdd77d57242ec93b0cbb6e864736f6c634300081a0033\n}\n",
				"bytecode": {
					"linkReferences": {},
					"object": "60c060405234801561000f575f80fd5b50604051611c93380380611c93833981810160405281019061003191906101b9565b84848173ffffffffffffffffffffffffffffffffffffffff1660a08173ffffffffffffffffffffffffffffffffffffffff16815250508073ffffffffffffffffffffffffffffffffffffffff1660808173ffffffffffffffffffffffffffffffffffffffff1681525050505082600181905550816002819055508060035f6101000a81548173ffffffffffffffffffffffffffffffffffffffff021916908373ffffffffffffffffffffffffffffffffffffffff1602179055505050505050610230565b5f80fd5b5f73ffffffffffffffffffffffffffffffffffffffff82169050919050565b5f610122826100f9565b9050919050565b61013281610118565b811461013c575f80fd5b50565b5f8151905061014d81610129565b92915050565b5f819050919050565b61016581610153565b811461016f575f80fd5b50565b5f815190506101808161015c565b92915050565b5f819050919050565b61019881610186565b81146101a2575f80fd5b50565b5f815190506101b38161018f565b92915050565b5f805f805f60a086880312156101d2576101d16100f5565b5b5f6101df8882890161013f565b95505060206101f08882890161013f565b945050604061020188828901610172565b9350506060610212888289016101a5565b92505060806102238882890161013f565b9150509295509295909350565b60805160a051611a2661026d5f395f81816106150152610c1c01525f81816104a2015281816104df01528181610ad40152610be00152611a265ff3fe608060405260043610610090575f3560e01c806394985ddd1161005857806394985ddd14610144578063b63b6df31461016c578063d24257c014610194578063d30895e4146101be578063fc0c546a146101e857610090565b806342619f66146100945780634d0d75b5146100be57806353a04b05146100e857806359a5f12d146101045780638dc654a21461012e575b5f80fd5b34801561009f575f80fd5b506100a8610212565b6040516100b5919061102d565b60405180910390f35b3480156100c9575f80fd5b506100d2610218565b6040516100df9190611060565b60405180910390f35b61010260048036038101906100fd91906110a0565b61022b565b005b34801561010f575f80fd5b5061011861047b565b604051610125919061110a565b60405180910390f35b348015610139575f80fd5b506101426104a0565b005b34801561014f575f80fd5b5061016a60048036038101906101659190611180565b610613565b005b348015610177575f80fd5b50610192600480360381019061018d91906111be565b6106af565b005b34801561019f575f80fd5b506101a8610a7a565b6040516101b5919061102d565b60405180910390f35b3480156101c9575f80fd5b506101d2610a84565b6040516101df919061110a565b60405180910390f35b3480156101f3575f80fd5b506101fc610aa9565b6040516102099190611257565b60405180910390f35b60065481565b600560159054906101000a900460ff1681565b655af3107a40003414610273576040517f08c379a000000000000000000000000000000000000000000000000000000000815260040161026a906112ca565b60405180910390fd5b5f73ffffffffffffffffffffffffffffffffffffffff1660045f9054906101000a900473ffffffffffffffffffffffffffffffffffffffff1673ffffffffffffffffffffffffffffffffffffffff160361039a573360045f6101000a81548173ffffffffffffffffffffffffffffffffffffffff021916908373ffffffffffffffffffffffffffffffffffffffff16021790555080600560146101000a81548160ff0219169083600281111561032c5761032b6112e8565b5b021790555060045f9054906101000a900473ffffffffffffffffffffffffffffffffffffffff1673ffffffffffffffffffffffffffffffffffffffff167f67cf7f1535e1c1323fe4e76266f7d55f0c1f67fdf449db65e014f9d35881514d60405160405180910390a2610478565b5f73ffffffffffffffffffffffffffffffffffffffff1660055f9054906101000a900473ffffffffffffffffffffffffffffffffffffffff1673ffffffffffffffffffffffffffffffffffffffff160361043c573360055f6101000a81548173ffffffffffffffffffffffffffffffffffffffff021916908373ffffffffffffffffffffffffffffffffffffffff160217905550610436610ace565b50610477565b6040517f08c379a000000000000000000000000000000000000000000000000000000000815260040161046e90611385565b60405180910390fd5b5b50565b60055f9054906101000a900473ffffffffffffffffffffffffffffffffffffffff1681565b7f000000000000000000000000000000000000000000000000000000000000000073ffffffffffffffffffffffffffffffffffffffff1663a9059cbb337f000000000000000000000000000000000000000000000000000000000000000073ffffffffffffffffffffffffffffffffffffffff166370a08231306040518263ffffffff1660e01b815260040161053691906113c3565b602060405180830381865afa158015610551573d5f803e3d5ffd5b505050506040513d601f19601f8201168201806040525081019061057591906113f0565b6040518363ffffffff1660e01b815260040161059292919061141b565b6020604051808303815f875af11580156105ae573d5f803e3d5ffd5b505050506040513d601f19601f820116820180604052508101906105d2919061146c565b610611576040517f08c379a0000000000000000000000000000000000000000000000000000000008152600401610608906114e1565b60405180910390fd5b565b7f000000000000000000000000000000000000000000000000000000000000000073ffffffffffffffffffffffffffffffffffffffff163373ffffffffffffffffffffffffffffffffffffffff16146106a1576040517f08c379a000000000000000000000000000000000000000000000000000000000815260040161069890611549565b60405180910390fd5b6106ab8282610bbe565b5050565b8060035f9054906101000a900473ffffffffffffffffffffffffffffffffffffffff1673ffffffffffffffffffffffffffffffffffffffff166370a08231336040518263ffffffff1660e01b815260040161070a91906113c3565b602060405180830381865afa158015610725573d5f803e3d5ffd5b505050506040513d601f19601f8201168201806040525081019061074991906113f0565b101561078a576040517f08c379a0000000000000000000000000000000000000000000000000000000008152600401610781906115b1565b60405180910390fd5b655af3107a400081146107d2576040517f08c379a00000000000000000000000000000000000000000000000000000000081526004016107c990611619565b60405180910390fd5b60035f9054906101000a900473ffffffffffffffffffffffffffffffffffffffff1673ffffffffffffffffffffffffffffffffffffffff166323b872dd3330846040518463ffffffff1660e01b815260040161083093929190611637565b6020604051808303815f875af115801561084c573d5f803e3d5ffd5b505050506040513d601f19601f82011682018060405250810190610870919061146c565b505f73ffffffffffffffffffffffffffffffffffffffff1660045f9054906101000a900473ffffffffffffffffffffffffffffffffffffffff1673ffffffffffffffffffffffffffffffffffffffff1603610998573360045f6101000a81548173ffffffffffffffffffffffffffffffffffffffff021916908373ffffffffffffffffffffffffffffffffffffffff16021790555081600560146101000a81548160ff0219169083600281111561092a576109296112e8565b5b021790555060045f9054906101000a900473ffffffffffffffffffffffffffffffffffffffff1673ffffffffffffffffffffffffffffffffffffffff167f67cf7f1535e1c1323fe4e76266f7d55f0c1f67fdf449db65e014f9d35881514d60405160405180910390a2610a76565b5f73ffffffffffffffffffffffffffffffffffffffff1660055f9054906101000a900473ffffffffffffffffffffffffffffffffffffffff1673ffffffffffffffffffffffffffffffffffffffff1603610a3a573360055f6101000a81548173ffffffffffffffffffffffffffffffffffffffff021916908373ffffffffffffffffffffffffffffffffffffffff160217905550610a34610ace565b50610a75565b6040517f08c379a0000000000000000000000000000000000000000000000000000000008152600401610a6c90611385565b60405180910390fd5b5b5050565b655af3107a400081565b60045f9054906101000a900473ffffffffffffffffffffffffffffffffffffffff1681565b60035f9054906101000a900473ffffffffffffffffffffffffffffffffffffffff1681565b5f6002547f000000000000000000000000000000000000000000000000000000000000000073ffffffffffffffffffffffffffffffffffffffff166370a08231306040518263ffffffff1660e01b8152600401610b2b91906113c3565b602060405180830381865afa158015610b46573d5f803e3d5ffd5b505050506040513d601f19601f82011682018060405250810190610b6a91906113f0565b1015610bab576040517f08c379a0000000000000000000000000000000000000000000000000000000008152600401610ba2906116dc565b60405180910390fd5b610bb9600154600254610bdd565b905090565b600381610bcb9190611727565b600681905550610bd9610d20565b5050565b5f7f000000000000000000000000000000000000000000000000000000000000000073ffffffffffffffffffffffffffffffffffffffff16634000aea07f000000000000000000000000000000000000000000000000000000000000000084865f604051602001610c4f929190611766565b6040516020818303038152906040526040518463ffffffff1660e01b8152600401610c7c939291906117fd565b6020604051808303815f875af1158015610c98573d5f803e3d5ffd5b505050506040513d601f19601f82011682018060405250810190610cbc919061146c565b505f610cda845f305f808981526020019081526020015f2054610fa9565b905060015f808681526020019081526020015f2054610cf99190611866565b5f808681526020019081526020015f2081905550610d178482610fe3565b91505092915050565b600560159054906101000a900460ff1615610d70576040517f08c379a0000000000000000000000000000000000000000000000000000000008152600401610d67906118e3565b60405180910390fd5b6001600560156101000a81548160ff0219169083151502179055505f8060065403610e705760045f9054906101000a900473ffffffffffffffffffffffffffffffffffffffff1673ffffffffffffffffffffffffffffffffffffffff166108fc655af3107a400090811502906040515f60405180830381858888f19350505050158015610dff573d5f803e3d5ffd5b5060055f9054906101000a900473ffffffffffffffffffffffffffffffffffffffff1673ffffffffffffffffffffffffffffffffffffffff166108fc655af3107a400090811502906040515f60405180830381858888f19350505050158015610e6a573d5f803e3d5ffd5b50610ec9565b600160065403610ea35760045f9054906101000a900473ffffffffffffffffffffffffffffffffffffffff169050610ec8565b60055f9054906101000a900473ffffffffffffffffffffffffffffffffffffffff1690505b5b5f73ffffffffffffffffffffffffffffffffffffffff168173ffffffffffffffffffffffffffffffffffffffff1614610fa6575f6002655af3107a4000610f109190611901565b90508173ffffffffffffffffffffffffffffffffffffffff166108fc8290811502906040515f60405180830381858888f19350505050158015610f55573d5f803e3d5ffd5b508173ffffffffffffffffffffffffffffffffffffffff167f8ab3a19ccf89d2ab7a1babe9f0dc4d37e5d5ab8a7d6850e70041fd7ff325895582604051610f9c919061102d565b60405180910390a2505b50565b5f84848484604051602001610fc19493929190611942565b604051602081830303815290604052805190602001205f1c9050949350505050565b5f8282604051602001610ff79291906119c5565b60405160208183030381529060405280519060200120905092915050565b5f819050919050565b61102781611015565b82525050565b5f6020820190506110405f83018461101e565b92915050565b5f8115159050919050565b61105a81611046565b82525050565b5f6020820190506110735f830184611051565b92915050565b5f80fd5b60038110611089575f80fd5b50565b5f8135905061109a8161107d565b92915050565b5f602082840312156110b5576110b4611079565b5b5f6110c28482850161108c565b91505092915050565b5f73ffffffffffffffffffffffffffffffffffffffff82169050919050565b5f6110f4826110cb565b9050919050565b611104816110ea565b82525050565b5f60208201905061111d5f8301846110fb565b92915050565b5f819050919050565b61113581611123565b811461113f575f80fd5b50565b5f813590506111508161112c565b92915050565b61115f81611015565b8114611169575f80fd5b50565b5f8135905061117a81611156565b92915050565b5f806040838503121561119657611195611079565b5b5f6111a385828601611142565b92505060206111b48582860161116c565b9150509250929050565b5f80604083850312156111d4576111d3611079565b5b5f6111e18582860161108c565b92505060206111f28582860161116c565b9150509250929050565b5f819050919050565b5f61121f61121a611215846110cb565b6111fc565b6110cb565b9050919050565b5f61123082611205565b9050919050565b5f61124182611226565b9050919050565b61125181611237565b82525050565b5f60208201905061126a5f830184611248565b92915050565b5f82825260208201905092915050565b7f496e636f72726563742062657420616d6f756e740000000000000000000000005f82015250565b5f6112b4601483611270565b91506112bf82611280565b602082019050919050565b5f6020820190508181035f8301526112e1816112a8565b9050919050565b7f4e487b71000000000000000000000000000000000000000000000000000000005f52602160045260245ffd5b7f47616d6520696e2070726f67726573732e205761697420666f7220636f6d706c5f8201527f6574696f6e2e0000000000000000000000000000000000000000000000000000602082015250565b5f61136f602683611270565b915061137a82611315565b604082019050919050565b5f6020820190508181035f83015261139c81611363565b9050919050565b5f6113ad826110cb565b9050919050565b6113bd816113a3565b82525050565b5f6020820190506113d65f8301846113b4565b92915050565b5f815190506113ea81611156565b92915050565b5f6020828403121561140557611404611079565b5b5f611412848285016113dc565b91505092915050565b5f60408201905061142e5f8301856113b4565b61143b602083018461101e565b9392505050565b61144b81611046565b8114611455575f80fd5b50565b5f8151905061146681611442565b92915050565b5f6020828403121561148157611480611079565b5b5f61148e84828501611458565b91505092915050565b7f556e61626c6520746f207472616e7366657200000000000000000000000000005f82015250565b5f6114cb601283611270565b91506114d682611497565b602082019050919050565b5f6020820190508181035f8301526114f8816114bf565b9050919050565b7f4f6e6c7920565246436f6f7264696e61746f722063616e2066756c66696c6c005f82015250565b5f611533601f83611270565b915061153e826114ff565b602082019050919050565b5f6020820190508181035f83015261156081611527565b9050919050565b7f496e73756666696369656e7420746f6b656e2062616c616e63650000000000005f82015250565b5f61159b601a83611270565b91506115a682611567565b602082019050919050565b5f6020820190508181035f8301526115c88161158f565b9050919050565b7f496e636f727265637420746f6b656e20616d6f756e74000000000000000000005f82015250565b5f611603601683611270565b915061160e826115cf565b602082019050919050565b5f6020820190508181035f830152611630816115f7565b9050919050565b5f60608201905061164a5f8301866113b4565b61165760208301856113b4565b611664604083018461101e565b949350505050565b7f4e6f7420656e6f756768204c494e4b20746f20726571756573742072616e646f5f8201527f6d6e657373000000000000000000000000000000000000000000000000000000602082015250565b5f6116c6602583611270565b91506116d18261166c565b604082019050919050565b5f6020820190508181035f8301526116f3816116ba565b9050919050565b7f4e487b71000000000000000000000000000000000000000000000000000000005f52601260045260245ffd5b5f61173182611015565b915061173c83611015565b92508261174c5761174b6116fa565b5b828206905092915050565b61176081611123565b82525050565b5f6040820190506117795f830185611757565b611786602083018461101e565b9392505050565b5f81519050919050565b5f82825260208201905092915050565b8281835e5f83830152505050565b5f601f19601f8301169050919050565b5f6117cf8261178d565b6117d98185611797565b93506117e98185602086016117a7565b6117f2816117b5565b840191505092915050565b5f6060820190506118105f8301866113b4565b61181d602083018561101e565b818103604083015261182f81846117c5565b9050949350505050565b7f4e487b71000000000000000000000000000000000000000000000000000000005f52601160045260245ffd5b5f61187082611015565b915061187b83611015565b925082820190508082111561189357611892611839565b5b92915050565b7f47616d6520616c726561647920636f6d706c65746500000000000000000000005f82015250565b5f6118cd601583611270565b91506118d882611899565b602082019050919050565b5f6020820190508181035f8301526118fa816118c1565b9050919050565b5f61190b82611015565b915061191683611015565b925082820261192481611015565b9150828204841483151761193b5761193a611839565b5b5092915050565b5f6080820190506119555f830187611757565b611962602083018661101e565b61196f60408301856113b4565b61197c606083018461101e565b95945050505050565b5f819050919050565b61199f61199a82611123565b611985565b82525050565b5f819050919050565b6119bf6119ba82611015565b6119a5565b82525050565b5f6119d0828561198e565b6020820191506119e082846119ae565b602082019150819050939250505056fea2646970667358221220f14ecbc614def9db15ec175d057f4d49272546690fdd77d57242ec93b0cbb6e864736f6c634300081a0033",
					"opcodes": "PUSH1 0xC0 PUSH1 0x40 MSTORE CALLVALUE DUP1 ISZERO PUSH2 0xF JUMPI PUSH0 DUP1 REVERT JUMPDEST POP PUSH1 0x40 MLOAD PUSH2 0x1C93 CODESIZE SUB DUP1 PUSH2 0x1C93 DUP4 CODECOPY DUP2 DUP2 ADD PUSH1 0x40 MSTORE DUP2 ADD SWAP1 PUSH2 0x31 SWAP2 SWAP1 PUSH2 0x1B9 JUMP JUMPDEST DUP5 DUP5 DUP2 PUSH20 0xFFFFFFFFFFFFFFFFFFFFFFFFFFFFFFFFFFFFFFFF AND PUSH1 0xA0 DUP2 PUSH20 0xFFFFFFFFFFFFFFFFFFFFFFFFFFFFFFFFFFFFFFFF AND DUP2 MSTORE POP POP DUP1 PUSH20 0xFFFFFFFFFFFFFFFFFFFFFFFFFFFFFFFFFFFFFFFF AND PUSH1 0x80 DUP2 PUSH20 0xFFFFFFFFFFFFFFFFFFFFFFFFFFFFFFFFFFFFFFFF AND DUP2 MSTORE POP POP POP POP DUP3 PUSH1 0x1 DUP2 SWAP1 SSTORE POP DUP2 PUSH1 0x2 DUP2 SWAP1 SSTORE POP DUP1 PUSH1 0x3 PUSH0 PUSH2 0x100 EXP DUP2 SLOAD DUP2 PUSH20 0xFFFFFFFFFFFFFFFFFFFFFFFFFFFFFFFFFFFFFFFF MUL NOT AND SWAP1 DUP4 PUSH20 0xFFFFFFFFFFFFFFFFFFFFFFFFFFFFFFFFFFFFFFFF AND MUL OR SWAP1 SSTORE POP POP POP POP POP POP PUSH2 0x230 JUMP JUMPDEST PUSH0 DUP1 REVERT JUMPDEST PUSH0 PUSH20 0xFFFFFFFFFFFFFFFFFFFFFFFFFFFFFFFFFFFFFFFF DUP3 AND SWAP1 POP SWAP2 SWAP1 POP JUMP JUMPDEST PUSH0 PUSH2 0x122 DUP3 PUSH2 0xF9 JUMP JUMPDEST SWAP1 POP SWAP2 SWAP1 POP JUMP JUMPDEST PUSH2 0x132 DUP2 PUSH2 0x118 JUMP JUMPDEST DUP2 EQ PUSH2 0x13C JUMPI PUSH0 DUP1 REVERT JUMPDEST POP JUMP JUMPDEST PUSH0 DUP2 MLOAD SWAP1 POP PUSH2 0x14D DUP2 PUSH2 0x129 JUMP JUMPDEST SWAP3 SWAP2 POP POP JUMP JUMPDEST PUSH0 DUP2 SWAP1 POP SWAP2 SWAP1 POP JUMP JUMPDEST PUSH2 0x165 DUP2 PUSH2 0x153 JUMP JUMPDEST DUP2 EQ PUSH2 0x16F JUMPI PUSH0 DUP1 REVERT JUMPDEST POP JUMP JUMPDEST PUSH0 DUP2 MLOAD SWAP1 POP PUSH2 0x180 DUP2 PUSH2 0x15C JUMP JUMPDEST SWAP3 SWAP2 POP POP JUMP JUMPDEST PUSH0 DUP2 SWAP1 POP SWAP2 SWAP1 POP JUMP JUMPDEST PUSH2 0x198 DUP2 PUSH2 0x186 JUMP JUMPDEST DUP2 EQ PUSH2 0x1A2 JUMPI PUSH0 DUP1 REVERT JUMPDEST POP JUMP JUMPDEST PUSH0 DUP2 MLOAD SWAP1 POP PUSH2 0x1B3 DUP2 PUSH2 0x18F JUMP JUMPDEST SWAP3 SWAP2 POP POP JUMP JUMPDEST PUSH0 DUP1 PUSH0 DUP1 PUSH0 PUSH1 0xA0 DUP7 DUP9 SUB SLT ISZERO PUSH2 0x1D2 JUMPI PUSH2 0x1D1 PUSH2 0xF5 JUMP JUMPDEST JUMPDEST PUSH0 PUSH2 0x1DF DUP9 DUP3 DUP10 ADD PUSH2 0x13F JUMP JUMPDEST SWAP6 POP POP PUSH1 0x20 PUSH2 0x1F0 DUP9 DUP3 DUP10 ADD PUSH2 0x13F JUMP JUMPDEST SWAP5 POP POP PUSH1 0x40 PUSH2 0x201 DUP9 DUP3 DUP10 ADD PUSH2 0x172 JUMP JUMPDEST SWAP4 POP POP PUSH1 0x60 PUSH2 0x212 DUP9 DUP3 DUP10 ADD PUSH2 0x1A5 JUMP JUMPDEST SWAP3 POP POP PUSH1 0x80 PUSH2 0x223 DUP9 DUP3 DUP10 ADD PUSH2 0x13F JUMP JUMPDEST SWAP2 POP POP SWAP3 SWAP6 POP SWAP3 SWAP6 SWAP1 SWAP4 POP JUMP JUMPDEST PUSH1 0x80 MLOAD PUSH1 0xA0 MLOAD PUSH2 0x1A26 PUSH2 0x26D PUSH0 CODECOPY PUSH0 DUP2 DUP2 PUSH2 0x615 ADD MSTORE PUSH2 0xC1C ADD MSTORE PUSH0 DUP2 DUP2 PUSH2 0x4A2 ADD MSTORE DUP2 DUP2 PUSH2 0x4DF ADD MSTORE DUP2 DUP2 PUSH2 0xAD4 ADD MSTORE PUSH2 0xBE0 ADD MSTORE PUSH2 0x1A26 PUSH0 RETURN INVALID PUSH1 0x80 PUSH1 0x40 MSTORE PUSH1 0x4 CALLDATASIZE LT PUSH2 0x90 JUMPI PUSH0 CALLDATALOAD PUSH1 0xE0 SHR DUP1 PUSH4 0x94985DDD GT PUSH2 0x58 JUMPI DUP1 PUSH4 0x94985DDD EQ PUSH2 0x144 JUMPI DUP1 PUSH4 0xB63B6DF3 EQ PUSH2 0x16C JUMPI DUP1 PUSH4 0xD24257C0 EQ PUSH2 0x194 JUMPI DUP1 PUSH4 0xD30895E4 EQ PUSH2 0x1BE JUMPI DUP1 PUSH4 0xFC0C546A EQ PUSH2 0x1E8 JUMPI PUSH2 0x90 JUMP JUMPDEST DUP1 PUSH4 0x42619F66 EQ PUSH2 0x94 JUMPI DUP1 PUSH4 0x4D0D75B5 EQ PUSH2 0xBE JUMPI DUP1 PUSH4 0x53A04B05 EQ PUSH2 0xE8 JUMPI DUP1 PUSH4 0x59A5F12D EQ PUSH2 0x104 JUMPI DUP1 PUSH4 0x8DC654A2 EQ PUSH2 0x12E JUMPI JUMPDEST PUSH0 DUP1 REVERT JUMPDEST CALLVALUE DUP1 ISZERO PUSH2 0x9F JUMPI PUSH0 DUP1 REVERT JUMPDEST POP PUSH2 0xA8 PUSH2 0x212 JUMP JUMPDEST PUSH1 0x40 MLOAD PUSH2 0xB5 SWAP2 SWAP1 PUSH2 0x102D JUMP JUMPDEST PUSH1 0x40 MLOAD DUP1 SWAP2 SUB SWAP1 RETURN JUMPDEST CALLVALUE DUP1 ISZERO PUSH2 0xC9 JUMPI PUSH0 DUP1 REVERT JUMPDEST POP PUSH2 0xD2 PUSH2 0x218 JUMP JUMPDEST PUSH1 0x40 MLOAD PUSH2 0xDF SWAP2 SWAP1 PUSH2 0x1060 JUMP JUMPDEST PUSH1 0x40 MLOAD DUP1 SWAP2 SUB SWAP1 RETURN JUMPDEST PUSH2 0x102 PUSH1 0x4 DUP1 CALLDATASIZE SUB DUP2 ADD SWAP1 PUSH2 0xFD SWAP2 SWAP1 PUSH2 0x10A0 JUMP JUMPDEST PUSH2 0x22B JUMP JUMPDEST STOP JUMPDEST CALLVALUE DUP1 ISZERO PUSH2 0x10F JUMPI PUSH0 DUP1 REVERT JUMPDEST POP PUSH2 0x118 PUSH2 0x47B JUMP JUMPDEST PUSH1 0x40 MLOAD PUSH2 0x125 SWAP2 SWAP1 PUSH2 0x110A JUMP JUMPDEST PUSH1 0x40 MLOAD DUP1 SWAP2 SUB SWAP1 RETURN JUMPDEST CALLVALUE DUP1 ISZERO PUSH2 0x139 JUMPI PUSH0 DUP1 REVERT JUMPDEST POP PUSH2 0x142 PUSH2 0x4A0 JUMP JUMPDEST STOP JUMPDEST CALLVALUE DUP1 ISZERO PUSH2 0x14F JUMPI PUSH0 DUP1 REVERT JUMPDEST POP PUSH2 0x16A PUSH1 0x4 DUP1 CALLDATASIZE SUB DUP2 ADD SWAP1 PUSH2 0x165 SWAP2 SWAP1 PUSH2 0x1180 JUMP JUMPDEST PUSH2 0x613 JUMP JUMPDEST STOP JUMPDEST CALLVALUE DUP1 ISZERO PUSH2 0x177 JUMPI PUSH0 DUP1 REVERT JUMPDEST POP PUSH2 0x192 PUSH1 0x4 DUP1 CALLDATASIZE SUB DUP2 ADD SWAP1 PUSH2 0x18D SWAP2 SWAP1 PUSH2 0x11BE JUMP JUMPDEST PUSH2 0x6AF JUMP JUMPDEST STOP JUMPDEST CALLVALUE DUP1 ISZERO PUSH2 0x19F JUMPI PUSH0 DUP1 REVERT JUMPDEST POP PUSH2 0x1A8 PUSH2 0xA7A JUMP JUMPDEST PUSH1 0x40 MLOAD PUSH2 0x1B5 SWAP2 SWAP1 PUSH2 0x102D JUMP JUMPDEST PUSH1 0x40 MLOAD DUP1 SWAP2 SUB SWAP1 RETURN JUMPDEST CALLVALUE DUP1 ISZERO PUSH2 0x1C9 JUMPI PUSH0 DUP1 REVERT JUMPDEST POP PUSH2 0x1D2 PUSH2 0xA84 JUMP JUMPDEST PUSH1 0x40 MLOAD PUSH2 0x1DF SWAP2 SWAP1 PUSH2 0x110A JUMP JUMPDEST PUSH1 0x40 MLOAD DUP1 SWAP2 SUB SWAP1 RETURN JUMPDEST CALLVALUE DUP1 ISZERO PUSH2 0x1F3 JUMPI PUSH0 DUP1 REVERT JUMPDEST POP PUSH2 0x1FC PUSH2 0xAA9 JUMP JUMPDEST PUSH1 0x40 MLOAD PUSH2 0x209 SWAP2 SWAP1 PUSH2 0x1257 JUMP JUMPDEST PUSH1 0x40 MLOAD DUP1 SWAP2 SUB SWAP1 RETURN JUMPDEST PUSH1 0x6 SLOAD DUP2 JUMP JUMPDEST PUSH1 0x5 PUSH1 0x15 SWAP1 SLOAD SWAP1 PUSH2 0x100 EXP SWAP1 DIV PUSH1 0xFF AND DUP2 JUMP JUMPDEST PUSH6 0x5AF3107A4000 CALLVALUE EQ PUSH2 0x273 JUMPI PUSH1 0x40 MLOAD PUSH32 0x8C379A000000000000000000000000000000000000000000000000000000000 DUP2 MSTORE PUSH1 0x4 ADD PUSH2 0x26A SWAP1 PUSH2 0x12CA JUMP JUMPDEST PUSH1 0x40 MLOAD DUP1 SWAP2 SUB SWAP1 REVERT JUMPDEST PUSH0 PUSH20 0xFFFFFFFFFFFFFFFFFFFFFFFFFFFFFFFFFFFFFFFF AND PUSH1 0x4 PUSH0 SWAP1 SLOAD SWAP1 PUSH2 0x100 EXP SWAP1 DIV PUSH20 0xFFFFFFFFFFFFFFFFFFFFFFFFFFFFFFFFFFFFFFFF AND PUSH20 0xFFFFFFFFFFFFFFFFFFFFFFFFFFFFFFFFFFFFFFFF AND SUB PUSH2 0x39A JUMPI CALLER PUSH1 0x4 PUSH0 PUSH2 0x100 EXP DUP2 SLOAD DUP2 PUSH20 0xFFFFFFFFFFFFFFFFFFFFFFFFFFFFFFFFFFFFFFFF MUL NOT AND SWAP1 DUP4 PUSH20 0xFFFFFFFFFFFFFFFFFFFFFFFFFFFFFFFFFFFFFFFF AND MUL OR SWAP1 SSTORE POP DUP1 PUSH1 0x5 PUSH1 0x14 PUSH2 0x100 EXP DUP2 SLOAD DUP2 PUSH1 0xFF MUL NOT AND SWAP1 DUP4 PUSH1 0x2 DUP2 GT ISZERO PUSH2 0x32C JUMPI PUSH2 0x32B PUSH2 0x12E8 JUMP JUMPDEST JUMPDEST MUL OR SWAP1 SSTORE POP PUSH1 0x4 PUSH0 SWAP1 SLOAD SWAP1 PUSH2 0x100 EXP SWAP1 DIV PUSH20 0xFFFFFFFFFFFFFFFFFFFFFFFFFFFFFFFFFFFFFFFF AND PUSH20 0xFFFFFFFFFFFFFFFFFFFFFFFFFFFFFFFFFFFFFFFF AND PUSH32 0x67CF7F1535E1C1323FE4E76266F7D55F0C1F67FDF449DB65E014F9D35881514D PUSH1 0x40 MLOAD PUSH1 0x40 MLOAD DUP1 SWAP2 SUB SWAP1 LOG2 PUSH2 0x478 JUMP JUMPDEST PUSH0 PUSH20 0xFFFFFFFFFFFFFFFFFFFFFFFFFFFFFFFFFFFFFFFF AND PUSH1 0x5 PUSH0 SWAP1 SLOAD SWAP1 PUSH2 0x100 EXP SWAP1 DIV PUSH20 0xFFFFFFFFFFFFFFFFFFFFFFFFFFFFFFFFFFFFFFFF AND PUSH20 0xFFFFFFFFFFFFFFFFFFFFFFFFFFFFFFFFFFFFFFFF AND SUB PUSH2 0x43C JUMPI CALLER PUSH1 0x5 PUSH0 PUSH2 0x100 EXP DUP2 SLOAD DUP2 PUSH20 0xFFFFFFFFFFFFFFFFFFFFFFFFFFFFFFFFFFFFFFFF MUL NOT AND SWAP1 DUP4 PUSH20 0xFFFFFFFFFFFFFFFFFFFFFFFFFFFFFFFFFFFFFFFF AND MUL OR SWAP1 SSTORE POP PUSH2 0x436 PUSH2 0xACE JUMP JUMPDEST POP PUSH2 0x477 JUMP JUMPDEST PUSH1 0x40 MLOAD PUSH32 0x8C379A000000000000000000000000000000000000000000000000000000000 DUP2 MSTORE PUSH1 0x4 ADD PUSH2 0x46E SWAP1 PUSH2 0x1385 JUMP JUMPDEST PUSH1 0x40 MLOAD DUP1 SWAP2 SUB SWAP1 REVERT JUMPDEST JUMPDEST POP JUMP JUMPDEST PUSH1 0x5 PUSH0 SWAP1 SLOAD SWAP1 PUSH2 0x100 EXP SWAP1 DIV PUSH20 0xFFFFFFFFFFFFFFFFFFFFFFFFFFFFFFFFFFFFFFFF AND DUP2 JUMP JUMPDEST PUSH32 0x0 PUSH20 0xFFFFFFFFFFFFFFFFFFFFFFFFFFFFFFFFFFFFFFFF AND PUSH4 0xA9059CBB CALLER PUSH32 0x0 PUSH20 0xFFFFFFFFFFFFFFFFFFFFFFFFFFFFFFFFFFFFFFFF AND PUSH4 0x70A08231 ADDRESS PUSH1 0x40 MLOAD DUP3 PUSH4 0xFFFFFFFF AND PUSH1 0xE0 SHL DUP2 MSTORE PUSH1 0x4 ADD PUSH2 0x536 SWAP2 SWAP1 PUSH2 0x13C3 JUMP JUMPDEST PUSH1 0x20 PUSH1 0x40 MLOAD DUP1 DUP4 SUB DUP2 DUP7 GAS STATICCALL ISZERO DUP1 ISZERO PUSH2 0x551 JUMPI RETURNDATASIZE PUSH0 DUP1 RETURNDATACOPY RETURNDATASIZE PUSH0 REVERT JUMPDEST POP POP POP POP PUSH1 0x40 MLOAD RETURNDATASIZE PUSH1 0x1F NOT PUSH1 0x1F DUP3 ADD AND DUP3 ADD DUP1 PUSH1 0x40 MSTORE POP DUP2 ADD SWAP1 PUSH2 0x575 SWAP2 SWAP1 PUSH2 0x13F0 JUMP JUMPDEST PUSH1 0x40 MLOAD DUP4 PUSH4 0xFFFFFFFF AND PUSH1 0xE0 SHL DUP2 MSTORE PUSH1 0x4 ADD PUSH2 0x592 SWAP3 SWAP2 SWAP1 PUSH2 0x141B JUMP JUMPDEST PUSH1 0x20 PUSH1 0x40 MLOAD DUP1 DUP4 SUB DUP2 PUSH0 DUP8 GAS CALL ISZERO DUP1 ISZERO PUSH2 0x5AE JUMPI RETURNDATASIZE PUSH0 DUP1 RETURNDATACOPY RETURNDATASIZE PUSH0 REVERT JUMPDEST POP POP POP POP PUSH1 0x40 MLOAD RETURNDATASIZE PUSH1 0x1F NOT PUSH1 0x1F DUP3 ADD AND DUP3 ADD DUP1 PUSH1 0x40 MSTORE POP DUP2 ADD SWAP1 PUSH2 0x5D2 SWAP2 SWAP1 PUSH2 0x146C JUMP JUMPDEST PUSH2 0x611 JUMPI PUSH1 0x40 MLOAD PUSH32 0x8C379A000000000000000000000000000000000000000000000000000000000 DUP2 MSTORE PUSH1 0x4 ADD PUSH2 0x608 SWAP1 PUSH2 0x14E1 JUMP JUMPDEST PUSH1 0x40 MLOAD DUP1 SWAP2 SUB SWAP1 REVERT JUMPDEST JUMP JUMPDEST PUSH32 0x0 PUSH20 0xFFFFFFFFFFFFFFFFFFFFFFFFFFFFFFFFFFFFFFFF AND CALLER PUSH20 0xFFFFFFFFFFFFFFFFFFFFFFFFFFFFFFFFFFFFFFFF AND EQ PUSH2 0x6A1 JUMPI PUSH1 0x40 MLOAD PUSH32 0x8C379A000000000000000000000000000000000000000000000000000000000 DUP2 MSTORE PUSH1 0x4 ADD PUSH2 0x698 SWAP1 PUSH2 0x1549 JUMP JUMPDEST PUSH1 0x40 MLOAD DUP1 SWAP2 SUB SWAP1 REVERT JUMPDEST PUSH2 0x6AB DUP3 DUP3 PUSH2 0xBBE JUMP JUMPDEST POP POP JUMP JUMPDEST DUP1 PUSH1 0x3 PUSH0 SWAP1 SLOAD SWAP1 PUSH2 0x100 EXP SWAP1 DIV PUSH20 0xFFFFFFFFFFFFFFFFFFFFFFFFFFFFFFFFFFFFFFFF AND PUSH20 0xFFFFFFFFFFFFFFFFFFFFFFFFFFFFFFFFFFFFFFFF AND PUSH4 0x70A08231 CALLER PUSH1 0x40 MLOAD DUP3 PUSH4 0xFFFFFFFF AND PUSH1 0xE0 SHL DUP2 MSTORE PUSH1 0x4 ADD PUSH2 0x70A SWAP2 SWAP1 PUSH2 0x13C3 JUMP JUMPDEST PUSH1 0x20 PUSH1 0x40 MLOAD DUP1 DUP4 SUB DUP2 DUP7 GAS STATICCALL ISZERO DUP1 ISZERO PUSH2 0x725 JUMPI RETURNDATASIZE PUSH0 DUP1 RETURNDATACOPY RETURNDATASIZE PUSH0 REVERT JUMPDEST POP POP POP POP PUSH1 0x40 MLOAD RETURNDATASIZE PUSH1 0x1F NOT PUSH1 0x1F DUP3 ADD AND DUP3 ADD DUP1 PUSH1 0x40 MSTORE POP DUP2 ADD SWAP1 PUSH2 0x749 SWAP2 SWAP1 PUSH2 0x13F0 JUMP JUMPDEST LT ISZERO PUSH2 0x78A JUMPI PUSH1 0x40 MLOAD PUSH32 0x8C379A000000000000000000000000000000000000000000000000000000000 DUP2 MSTORE PUSH1 0x4 ADD PUSH2 0x781 SWAP1 PUSH2 0x15B1 JUMP JUMPDEST PUSH1 0x40 MLOAD DUP1 SWAP2 SUB SWAP1 REVERT JUMPDEST PUSH6 0x5AF3107A4000 DUP2 EQ PUSH2 0x7D2 JUMPI PUSH1 0x40 MLOAD PUSH32 0x8C379A000000000000000000000000000000000000000000000000000000000 DUP2 MSTORE PUSH1 0x4 ADD PUSH2 0x7C9 SWAP1 PUSH2 0x1619 JUMP JUMPDEST PUSH1 0x40 MLOAD DUP1 SWAP2 SUB SWAP1 REVERT JUMPDEST PUSH1 0x3 PUSH0 SWAP1 SLOAD SWAP1 PUSH2 0x100 EXP SWAP1 DIV PUSH20 0xFFFFFFFFFFFFFFFFFFFFFFFFFFFFFFFFFFFFFFFF AND PUSH20 0xFFFFFFFFFFFFFFFFFFFFFFFFFFFFFFFFFFFFFFFF AND PUSH4 0x23B872DD CALLER ADDRESS DUP5 PUSH1 0x40 MLOAD DUP5 PUSH4 0xFFFFFFFF AND PUSH1 0xE0 SHL DUP2 MSTORE PUSH1 0x4 ADD PUSH2 0x830 SWAP4 SWAP3 SWAP2 SWAP1 PUSH2 0x1637 JUMP JUMPDEST PUSH1 0x20 PUSH1 0x40 MLOAD DUP1 DUP4 SUB DUP2 PUSH0 DUP8 GAS CALL ISZERO DUP1 ISZERO PUSH2 0x84C JUMPI RETURNDATASIZE PUSH0 DUP1 RETURNDATACOPY RETURNDATASIZE PUSH0 REVERT JUMPDEST POP POP POP POP PUSH1 0x40 MLOAD RETURNDATASIZE PUSH1 0x1F NOT PUSH1 0x1F DUP3 ADD AND DUP3 ADD DUP1 PUSH1 0x40 MSTORE POP DUP2 ADD SWAP1 PUSH2 0x870 SWAP2 SWAP1 PUSH2 0x146C JUMP JUMPDEST POP PUSH0 PUSH20 0xFFFFFFFFFFFFFFFFFFFFFFFFFFFFFFFFFFFFFFFF AND PUSH1 0x4 PUSH0 SWAP1 SLOAD SWAP1 PUSH2 0x100 EXP SWAP1 DIV PUSH20 0xFFFFFFFFFFFFFFFFFFFFFFFFFFFFFFFFFFFFFFFF AND PUSH20 0xFFFFFFFFFFFFFFFFFFFFFFFFFFFFFFFFFFFFFFFF AND SUB PUSH2 0x998 JUMPI CALLER PUSH1 0x4 PUSH0 PUSH2 0x100 EXP DUP2 SLOAD DUP2 PUSH20 0xFFFFFFFFFFFFFFFFFFFFFFFFFFFFFFFFFFFFFFFF MUL NOT AND SWAP1 DUP4 PUSH20 0xFFFFFFFFFFFFFFFFFFFFFFFFFFFFFFFFFFFFFFFF AND MUL OR SWAP1 SSTORE POP DUP2 PUSH1 0x5 PUSH1 0x14 PUSH2 0x100 EXP DUP2 SLOAD DUP2 PUSH1 0xFF MUL NOT AND SWAP1 DUP4 PUSH1 0x2 DUP2 GT ISZERO PUSH2 0x92A JUMPI PUSH2 0x929 PUSH2 0x12E8 JUMP JUMPDEST JUMPDEST MUL OR SWAP1 SSTORE POP PUSH1 0x4 PUSH0 SWAP1 SLOAD SWAP1 PUSH2 0x100 EXP SWAP1 DIV PUSH20 0xFFFFFFFFFFFFFFFFFFFFFFFFFFFFFFFFFFFFFFFF AND PUSH20 0xFFFFFFFFFFFFFFFFFFFFFFFFFFFFFFFFFFFFFFFF AND PUSH32 0x67CF7F1535E1C1323FE4E76266F7D55F0C1F67FDF449DB65E014F9D35881514D PUSH1 0x40 MLOAD PUSH1 0x40 MLOAD DUP1 SWAP2 SUB SWAP1 LOG2 PUSH2 0xA76 JUMP JUMPDEST PUSH0 PUSH20 0xFFFFFFFFFFFFFFFFFFFFFFFFFFFFFFFFFFFFFFFF AND PUSH1 0x5 PUSH0 SWAP1 SLOAD SWAP1 PUSH2 0x100 EXP SWAP1 DIV PUSH20 0xFFFFFFFFFFFFFFFFFFFFFFFFFFFFFFFFFFFFFFFF AND PUSH20 0xFFFFFFFFFFFFFFFFFFFFFFFFFFFFFFFFFFFFFFFF AND SUB PUSH2 0xA3A JUMPI CALLER PUSH1 0x5 PUSH0 PUSH2 0x100 EXP DUP2 SLOAD DUP2 PUSH20 0xFFFFFFFFFFFFFFFFFFFFFFFFFFFFFFFFFFFFFFFF MUL NOT AND SWAP1 DUP4 PUSH20 0xFFFFFFFFFFFFFFFFFFFFFFFFFFFFFFFFFFFFFFFF AND MUL OR SWAP1 SSTORE POP PUSH2 0xA34 PUSH2 0xACE JUMP JUMPDEST POP PUSH2 0xA75 JUMP JUMPDEST PUSH1 0x40 MLOAD PUSH32 0x8C379A000000000000000000000000000000000000000000000000000000000 DUP2 MSTORE PUSH1 0x4 ADD PUSH2 0xA6C SWAP1 PUSH2 0x1385 JUMP JUMPDEST PUSH1 0x40 MLOAD DUP1 SWAP2 SUB SWAP1 REVERT JUMPDEST JUMPDEST POP POP JUMP JUMPDEST PUSH6 0x5AF3107A4000 DUP2 JUMP JUMPDEST PUSH1 0x4 PUSH0 SWAP1 SLOAD SWAP1 PUSH2 0x100 EXP SWAP1 DIV PUSH20 0xFFFFFFFFFFFFFFFFFFFFFFFFFFFFFFFFFFFFFFFF AND DUP2 JUMP JUMPDEST PUSH1 0x3 PUSH0 SWAP1 SLOAD SWAP1 PUSH2 0x100 EXP SWAP1 DIV PUSH20 0xFFFFFFFFFFFFFFFFFFFFFFFFFFFFFFFFFFFFFFFF AND DUP2 JUMP JUMPDEST PUSH0 PUSH1 0x2 SLOAD PUSH32 0x0 PUSH20 0xFFFFFFFFFFFFFFFFFFFFFFFFFFFFFFFFFFFFFFFF AND PUSH4 0x70A08231 ADDRESS PUSH1 0x40 MLOAD DUP3 PUSH4 0xFFFFFFFF AND PUSH1 0xE0 SHL DUP2 MSTORE PUSH1 0x4 ADD PUSH2 0xB2B SWAP2 SWAP1 PUSH2 0x13C3 JUMP JUMPDEST PUSH1 0x20 PUSH1 0x40 MLOAD DUP1 DUP4 SUB DUP2 DUP7 GAS STATICCALL ISZERO DUP1 ISZERO PUSH2 0xB46 JUMPI RETURNDATASIZE PUSH0 DUP1 RETURNDATACOPY RETURNDATASIZE PUSH0 REVERT JUMPDEST POP POP POP POP PUSH1 0x40 MLOAD RETURNDATASIZE PUSH1 0x1F NOT PUSH1 0x1F DUP3 ADD AND DUP3 ADD DUP1 PUSH1 0x40 MSTORE POP DUP2 ADD SWAP1 PUSH2 0xB6A SWAP2 SWAP1 PUSH2 0x13F0 JUMP JUMPDEST LT ISZERO PUSH2 0xBAB JUMPI PUSH1 0x40 MLOAD PUSH32 0x8C379A000000000000000000000000000000000000000000000000000000000 DUP2 MSTORE PUSH1 0x4 ADD PUSH2 0xBA2 SWAP1 PUSH2 0x16DC JUMP JUMPDEST PUSH1 0x40 MLOAD DUP1 SWAP2 SUB SWAP1 REVERT JUMPDEST PUSH2 0xBB9 PUSH1 0x1 SLOAD PUSH1 0x2 SLOAD PUSH2 0xBDD JUMP JUMPDEST SWAP1 POP SWAP1 JUMP JUMPDEST PUSH1 0x3 DUP2 PUSH2 0xBCB SWAP2 SWAP1 PUSH2 0x1727 JUMP JUMPDEST PUSH1 0x6 DUP2 SWAP1 SSTORE POP PUSH2 0xBD9 PUSH2 0xD20 JUMP JUMPDEST POP POP JUMP JUMPDEST PUSH0 PUSH32 0x0 PUSH20 0xFFFFFFFFFFFFFFFFFFFFFFFFFFFFFFFFFFFFFFFF AND PUSH4 0x4000AEA0 PUSH32 0x0 DUP5 DUP7 PUSH0 PUSH1 0x40 MLOAD PUSH1 0x20 ADD PUSH2 0xC4F SWAP3 SWAP2 SWAP1 PUSH2 0x1766 JUMP JUMPDEST PUSH1 0x40 MLOAD PUSH1 0x20 DUP2 DUP4 SUB SUB DUP2 MSTORE SWAP1 PUSH1 0x40 MSTORE PUSH1 0x40 MLOAD DUP5 PUSH4 0xFFFFFFFF AND PUSH1 0xE0 SHL DUP2 MSTORE PUSH1 0x4 ADD PUSH2 0xC7C SWAP4 SWAP3 SWAP2 SWAP1 PUSH2 0x17FD JUMP JUMPDEST PUSH1 0x20 PUSH1 0x40 MLOAD DUP1 DUP4 SUB DUP2 PUSH0 DUP8 GAS CALL ISZERO DUP1 ISZERO PUSH2 0xC98 JUMPI RETURNDATASIZE PUSH0 DUP1 RETURNDATACOPY RETURNDATASIZE PUSH0 REVERT JUMPDEST POP POP POP POP PUSH1 0x40 MLOAD RETURNDATASIZE PUSH1 0x1F NOT PUSH1 0x1F DUP3 ADD AND DUP3 ADD DUP1 PUSH1 0x40 MSTORE POP DUP2 ADD SWAP1 PUSH2 0xCBC SWAP2 SWAP1 PUSH2 0x146C JUMP JUMPDEST POP PUSH0 PUSH2 0xCDA DUP5 PUSH0 ADDRESS PUSH0 DUP1 DUP10 DUP2 MSTORE PUSH1 0x20 ADD SWAP1 DUP2 MSTORE PUSH1 0x20 ADD PUSH0 KECCAK256 SLOAD PUSH2 0xFA9 JUMP JUMPDEST SWAP1 POP PUSH1 0x1 PUSH0 DUP1 DUP7 DUP2 MSTORE PUSH1 0x20 ADD SWAP1 DUP2 MSTORE PUSH1 0x20 ADD PUSH0 KECCAK256 SLOAD PUSH2 0xCF9 SWAP2 SWAP1 PUSH2 0x1866 JUMP JUMPDEST PUSH0 DUP1 DUP7 DUP2 MSTORE PUSH1 0x20 ADD SWAP1 DUP2 MSTORE PUSH1 0x20 ADD PUSH0 KECCAK256 DUP2 SWAP1 SSTORE POP PUSH2 0xD17 DUP5 DUP3 PUSH2 0xFE3 JUMP JUMPDEST SWAP2 POP POP SWAP3 SWAP2 POP POP JUMP JUMPDEST PUSH1 0x5 PUSH1 0x15 SWAP1 SLOAD SWAP1 PUSH2 0x100 EXP SWAP1 DIV PUSH1 0xFF AND ISZERO PUSH2 0xD70 JUMPI PUSH1 0x40 MLOAD PUSH32 0x8C379A000000000000000000000000000000000000000000000000000000000 DUP2 MSTORE PUSH1 0x4 ADD PUSH2 0xD67 SWAP1 PUSH2 0x18E3 JUMP JUMPDEST PUSH1 0x40 MLOAD DUP1 SWAP2 SUB SWAP1 REVERT JUMPDEST PUSH1 0x1 PUSH1 0x5 PUSH1 0x15 PUSH2 0x100 EXP DUP2 SLOAD DUP2 PUSH1 0xFF MUL NOT AND SWAP1 DUP4 ISZERO ISZERO MUL OR SWAP1 SSTORE POP PUSH0 DUP1 PUSH1 0x6 SLOAD SUB PUSH2 0xE70 JUMPI PUSH1 0x4 PUSH0 SWAP1 SLOAD SWAP1 PUSH2 0x100 EXP SWAP1 DIV PUSH20 0xFFFFFFFFFFFFFFFFFFFFFFFFFFFFFFFFFFFFFFFF AND PUSH20 0xFFFFFFFFFFFFFFFFFFFFFFFFFFFFFFFFFFFFFFFF AND PUSH2 0x8FC PUSH6 0x5AF3107A4000 SWAP1 DUP2 ISZERO MUL SWAP1 PUSH1 0x40 MLOAD PUSH0 PUSH1 0x40 MLOAD DUP1 DUP4 SUB DUP2 DUP6 DUP9 DUP9 CALL SWAP4 POP POP POP POP ISZERO DUP1 ISZERO PUSH2 0xDFF JUMPI RETURNDATASIZE PUSH0 DUP1 RETURNDATACOPY RETURNDATASIZE PUSH0 REVERT JUMPDEST POP PUSH1 0x5 PUSH0 SWAP1 SLOAD SWAP1 PUSH2 0x100 EXP SWAP1 DIV PUSH20 0xFFFFFFFFFFFFFFFFFFFFFFFFFFFFFFFFFFFFFFFF AND PUSH20 0xFFFFFFFFFFFFFFFFFFFFFFFFFFFFFFFFFFFFFFFF AND PUSH2 0x8FC PUSH6 0x5AF3107A4000 SWAP1 DUP2 ISZERO MUL SWAP1 PUSH1 0x40 MLOAD PUSH0 PUSH1 0x40 MLOAD DUP1 DUP4 SUB DUP2 DUP6 DUP9 DUP9 CALL SWAP4 POP POP POP POP ISZERO DUP1 ISZERO PUSH2 0xE6A JUMPI RETURNDATASIZE PUSH0 DUP1 RETURNDATACOPY RETURNDATASIZE PUSH0 REVERT JUMPDEST POP PUSH2 0xEC9 JUMP JUMPDEST PUSH1 0x1 PUSH1 0x6 SLOAD SUB PUSH2 0xEA3 JUMPI PUSH1 0x4 PUSH0 SWAP1 SLOAD SWAP1 PUSH2 0x100 EXP SWAP1 DIV PUSH20 0xFFFFFFFFFFFFFFFFFFFFFFFFFFFFFFFFFFFFFFFF AND SWAP1 POP PUSH2 0xEC8 JUMP JUMPDEST PUSH1 0x5 PUSH0 SWAP1 SLOAD SWAP1 PUSH2 0x100 EXP SWAP1 DIV PUSH20 0xFFFFFFFFFFFFFFFFFFFFFFFFFFFFFFFFFFFFFFFF AND SWAP1 POP JUMPDEST JUMPDEST PUSH0 PUSH20 0xFFFFFFFFFFFFFFFFFFFFFFFFFFFFFFFFFFFFFFFF AND DUP2 PUSH20 0xFFFFFFFFFFFFFFFFFFFFFFFFFFFFFFFFFFFFFFFF AND EQ PUSH2 0xFA6 JUMPI PUSH0 PUSH1 0x2 PUSH6 0x5AF3107A4000 PUSH2 0xF10 SWAP2 SWAP1 PUSH2 0x1901 JUMP JUMPDEST SWAP1 POP DUP2 PUSH20 0xFFFFFFFFFFFFFFFFFFFFFFFFFFFFFFFFFFFFFFFF AND PUSH2 0x8FC DUP3 SWAP1 DUP2 ISZERO MUL SWAP1 PUSH1 0x40 MLOAD PUSH0 PUSH1 0x40 MLOAD DUP1 DUP4 SUB DUP2 DUP6 DUP9 DUP9 CALL SWAP4 POP POP POP POP ISZERO DUP1 ISZERO PUSH2 0xF55 JUMPI RETURNDATASIZE PUSH0 DUP1 RETURNDATACOPY RETURNDATASIZE PUSH0 REVERT JUMPDEST POP DUP2 PUSH20 0xFFFFFFFFFFFFFFFFFFFFFFFFFFFFFFFFFFFFFFFF AND PUSH32 0x8AB3A19CCF89D2AB7A1BABE9F0DC4D37E5D5AB8A7D6850E70041FD7FF3258955 DUP3 PUSH1 0x40 MLOAD PUSH2 0xF9C SWAP2 SWAP1 PUSH2 0x102D JUMP JUMPDEST PUSH1 0x40 MLOAD DUP1 SWAP2 SUB SWAP1 LOG2 POP JUMPDEST POP JUMP JUMPDEST PUSH0 DUP5 DUP5 DUP5 DUP5 PUSH1 0x40 MLOAD PUSH1 0x20 ADD PUSH2 0xFC1 SWAP5 SWAP4 SWAP3 SWAP2 SWAP1 PUSH2 0x1942 JUMP JUMPDEST PUSH1 0x40 MLOAD PUSH1 0x20 DUP2 DUP4 SUB SUB DUP2 MSTORE SWAP1 PUSH1 0x40 MSTORE DUP1 MLOAD SWAP1 PUSH1 0x20 ADD KECCAK256 PUSH0 SHR SWAP1 POP SWAP5 SWAP4 POP POP POP POP JUMP JUMPDEST PUSH0 DUP3 DUP3 PUSH1 0x40 MLOAD PUSH1 0x20 ADD PUSH2 0xFF7 SWAP3 SWAP2 SWAP1 PUSH2 0x19C5 JUMP JUMPDEST PUSH1 0x40 MLOAD PUSH1 0x20 DUP2 DUP4 SUB SUB DUP2 MSTORE SWAP1 PUSH1 0x40 MSTORE DUP1 MLOAD SWAP1 PUSH1 0x20 ADD KECCAK256 SWAP1 POP SWAP3 SWAP2 POP POP JUMP JUMPDEST PUSH0 DUP2 SWAP1 POP SWAP2 SWAP1 POP JUMP JUMPDEST PUSH2 0x1027 DUP2 PUSH2 0x1015 JUMP JUMPDEST DUP3 MSTORE POP POP JUMP JUMPDEST PUSH0 PUSH1 0x20 DUP3 ADD SWAP1 POP PUSH2 0x1040 PUSH0 DUP4 ADD DUP5 PUSH2 0x101E JUMP JUMPDEST SWAP3 SWAP2 POP POP JUMP JUMPDEST PUSH0 DUP2 ISZERO ISZERO SWAP1 POP SWAP2 SWAP1 POP JUMP JUMPDEST PUSH2 0x105A DUP2 PUSH2 0x1046 JUMP JUMPDEST DUP3 MSTORE POP POP JUMP JUMPDEST PUSH0 PUSH1 0x20 DUP3 ADD SWAP1 POP PUSH2 0x1073 PUSH0 DUP4 ADD DUP5 PUSH2 0x1051 JUMP JUMPDEST SWAP3 SWAP2 POP POP JUMP JUMPDEST PUSH0 DUP1 REVERT JUMPDEST PUSH1 0x3 DUP2 LT PUSH2 0x1089 JUMPI PUSH0 DUP1 REVERT JUMPDEST POP JUMP JUMPDEST PUSH0 DUP2 CALLDATALOAD SWAP1 POP PUSH2 0x109A DUP2 PUSH2 0x107D JUMP JUMPDEST SWAP3 SWAP2 POP POP JUMP JUMPDEST PUSH0 PUSH1 0x20 DUP3 DUP5 SUB SLT ISZERO PUSH2 0x10B5 JUMPI PUSH2 0x10B4 PUSH2 0x1079 JUMP JUMPDEST JUMPDEST PUSH0 PUSH2 0x10C2 DUP5 DUP3 DUP6 ADD PUSH2 0x108C JUMP JUMPDEST SWAP2 POP POP SWAP3 SWAP2 POP POP JUMP JUMPDEST PUSH0 PUSH20 0xFFFFFFFFFFFFFFFFFFFFFFFFFFFFFFFFFFFFFFFF DUP3 AND SWAP1 POP SWAP2 SWAP1 POP JUMP JUMPDEST PUSH0 PUSH2 0x10F4 DUP3 PUSH2 0x10CB JUMP JUMPDEST SWAP1 POP SWAP2 SWAP1 POP JUMP JUMPDEST PUSH2 0x1104 DUP2 PUSH2 0x10EA JUMP JUMPDEST DUP3 MSTORE POP POP JUMP JUMPDEST PUSH0 PUSH1 0x20 DUP3 ADD SWAP1 POP PUSH2 0x111D PUSH0 DUP4 ADD DUP5 PUSH2 0x10FB JUMP JUMPDEST SWAP3 SWAP2 POP POP JUMP JUMPDEST PUSH0 DUP2 SWAP1 POP SWAP2 SWAP1 POP JUMP JUMPDEST PUSH2 0x1135 DUP2 PUSH2 0x1123 JUMP JUMPDEST DUP2 EQ PUSH2 0x113F JUMPI PUSH0 DUP1 REVERT JUMPDEST POP JUMP JUMPDEST PUSH0 DUP2 CALLDATALOAD SWAP1 POP PUSH2 0x1150 DUP2 PUSH2 0x112C JUMP JUMPDEST SWAP3 SWAP2 POP POP JUMP JUMPDEST PUSH2 0x115F DUP2 PUSH2 0x1015 JUMP JUMPDEST DUP2 EQ PUSH2 0x1169 JUMPI PUSH0 DUP1 REVERT JUMPDEST POP JUMP JUMPDEST PUSH0 DUP2 CALLDATALOAD SWAP1 POP PUSH2 0x117A DUP2 PUSH2 0x1156 JUMP JUMPDEST SWAP3 SWAP2 POP POP JUMP JUMPDEST PUSH0 DUP1 PUSH1 0x40 DUP4 DUP6 SUB SLT ISZERO PUSH2 0x1196 JUMPI PUSH2 0x1195 PUSH2 0x1079 JUMP JUMPDEST JUMPDEST PUSH0 PUSH2 0x11A3 DUP6 DUP3 DUP7 ADD PUSH2 0x1142 JUMP JUMPDEST SWAP3 POP POP PUSH1 0x20 PUSH2 0x11B4 DUP6 DUP3 DUP7 ADD PUSH2 0x116C JUMP JUMPDEST SWAP2 POP POP SWAP3 POP SWAP3 SWAP1 POP JUMP JUMPDEST PUSH0 DUP1 PUSH1 0x40 DUP4 DUP6 SUB SLT ISZERO PUSH2 0x11D4 JUMPI PUSH2 0x11D3 PUSH2 0x1079 JUMP JUMPDEST JUMPDEST PUSH0 PUSH2 0x11E1 DUP6 DUP3 DUP7 ADD PUSH2 0x108C JUMP JUMPDEST SWAP3 POP POP PUSH1 0x20 PUSH2 0x11F2 DUP6 DUP3 DUP7 ADD PUSH2 0x116C JUMP JUMPDEST SWAP2 POP POP SWAP3 POP SWAP3 SWAP1 POP JUMP JUMPDEST PUSH0 DUP2 SWAP1 POP SWAP2 SWAP1 POP JUMP JUMPDEST PUSH0 PUSH2 0x121F PUSH2 0x121A PUSH2 0x1215 DUP5 PUSH2 0x10CB JUMP JUMPDEST PUSH2 0x11FC JUMP JUMPDEST PUSH2 0x10CB JUMP JUMPDEST SWAP1 POP SWAP2 SWAP1 POP JUMP JUMPDEST PUSH0 PUSH2 0x1230 DUP3 PUSH2 0x1205 JUMP JUMPDEST SWAP1 POP SWAP2 SWAP1 POP JUMP JUMPDEST PUSH0 PUSH2 0x1241 DUP3 PUSH2 0x1226 JUMP JUMPDEST SWAP1 POP SWAP2 SWAP1 POP JUMP JUMPDEST PUSH2 0x1251 DUP2 PUSH2 0x1237 JUMP JUMPDEST DUP3 MSTORE POP POP JUMP JUMPDEST PUSH0 PUSH1 0x20 DUP3 ADD SWAP1 POP PUSH2 0x126A PUSH0 DUP4 ADD DUP5 PUSH2 0x1248 JUMP JUMPDEST SWAP3 SWAP2 POP POP JUMP JUMPDEST PUSH0 DUP3 DUP3 MSTORE PUSH1 0x20 DUP3 ADD SWAP1 POP SWAP3 SWAP2 POP POP JUMP JUMPDEST PUSH32 0x496E636F72726563742062657420616D6F756E74000000000000000000000000 PUSH0 DUP3 ADD MSTORE POP JUMP JUMPDEST PUSH0 PUSH2 0x12B4 PUSH1 0x14 DUP4 PUSH2 0x1270 JUMP JUMPDEST SWAP2 POP PUSH2 0x12BF DUP3 PUSH2 0x1280 JUMP JUMPDEST PUSH1 0x20 DUP3 ADD SWAP1 POP SWAP2 SWAP1 POP JUMP JUMPDEST PUSH0 PUSH1 0x20 DUP3 ADD SWAP1 POP DUP2 DUP2 SUB PUSH0 DUP4 ADD MSTORE PUSH2 0x12E1 DUP2 PUSH2 0x12A8 JUMP JUMPDEST SWAP1 POP SWAP2 SWAP1 POP JUMP JUMPDEST PUSH32 0x4E487B7100000000000000000000000000000000000000000000000000000000 PUSH0 MSTORE PUSH1 0x21 PUSH1 0x4 MSTORE PUSH1 0x24 PUSH0 REVERT JUMPDEST PUSH32 0x47616D6520696E2070726F67726573732E205761697420666F7220636F6D706C PUSH0 DUP3 ADD MSTORE PUSH32 0x6574696F6E2E0000000000000000000000000000000000000000000000000000 PUSH1 0x20 DUP3 ADD MSTORE POP JUMP JUMPDEST PUSH0 PUSH2 0x136F PUSH1 0x26 DUP4 PUSH2 0x1270 JUMP JUMPDEST SWAP2 POP PUSH2 0x137A DUP3 PUSH2 0x1315 JUMP JUMPDEST PUSH1 0x40 DUP3 ADD SWAP1 POP SWAP2 SWAP1 POP JUMP JUMPDEST PUSH0 PUSH1 0x20 DUP3 ADD SWAP1 POP DUP2 DUP2 SUB PUSH0 DUP4 ADD MSTORE PUSH2 0x139C DUP2 PUSH2 0x1363 JUMP JUMPDEST SWAP1 POP SWAP2 SWAP1 POP JUMP JUMPDEST PUSH0 PUSH2 0x13AD DUP3 PUSH2 0x10CB JUMP JUMPDEST SWAP1 POP SWAP2 SWAP1 POP JUMP JUMPDEST PUSH2 0x13BD DUP2 PUSH2 0x13A3 JUMP JUMPDEST DUP3 MSTORE POP POP JUMP JUMPDEST PUSH0 PUSH1 0x20 DUP3 ADD SWAP1 POP PUSH2 0x13D6 PUSH0 DUP4 ADD DUP5 PUSH2 0x13B4 JUMP JUMPDEST SWAP3 SWAP2 POP POP JUMP JUMPDEST PUSH0 DUP2 MLOAD SWAP1 POP PUSH2 0x13EA DUP2 PUSH2 0x1156 JUMP JUMPDEST SWAP3 SWAP2 POP POP JUMP JUMPDEST PUSH0 PUSH1 0x20 DUP3 DUP5 SUB SLT ISZERO PUSH2 0x1405 JUMPI PUSH2 0x1404 PUSH2 0x1079 JUMP JUMPDEST JUMPDEST PUSH0 PUSH2 0x1412 DUP5 DUP3 DUP6 ADD PUSH2 0x13DC JUMP JUMPDEST SWAP2 POP POP SWAP3 SWAP2 POP POP JUMP JUMPDEST PUSH0 PUSH1 0x40 DUP3 ADD SWAP1 POP PUSH2 0x142E PUSH0 DUP4 ADD DUP6 PUSH2 0x13B4 JUMP JUMPDEST PUSH2 0x143B PUSH1 0x20 DUP4 ADD DUP5 PUSH2 0x101E JUMP JUMPDEST SWAP4 SWAP3 POP POP POP JUMP JUMPDEST PUSH2 0x144B DUP2 PUSH2 0x1046 JUMP JUMPDEST DUP2 EQ PUSH2 0x1455 JUMPI PUSH0 DUP1 REVERT JUMPDEST POP JUMP JUMPDEST PUSH0 DUP2 MLOAD SWAP1 POP PUSH2 0x1466 DUP2 PUSH2 0x1442 JUMP JUMPDEST SWAP3 SWAP2 POP POP JUMP JUMPDEST PUSH0 PUSH1 0x20 DUP3 DUP5 SUB SLT ISZERO PUSH2 0x1481 JUMPI PUSH2 0x1480 PUSH2 0x1079 JUMP JUMPDEST JUMPDEST PUSH0 PUSH2 0x148E DUP5 DUP3 DUP6 ADD PUSH2 0x1458 JUMP JUMPDEST SWAP2 POP POP SWAP3 SWAP2 POP POP JUMP JUMPDEST PUSH32 0x556E61626C6520746F207472616E736665720000000000000000000000000000 PUSH0 DUP3 ADD MSTORE POP JUMP JUMPDEST PUSH0 PUSH2 0x14CB PUSH1 0x12 DUP4 PUSH2 0x1270 JUMP JUMPDEST SWAP2 POP PUSH2 0x14D6 DUP3 PUSH2 0x1497 JUMP JUMPDEST PUSH1 0x20 DUP3 ADD SWAP1 POP SWAP2 SWAP1 POP JUMP JUMPDEST PUSH0 PUSH1 0x20 DUP3 ADD SWAP1 POP DUP2 DUP2 SUB PUSH0 DUP4 ADD MSTORE PUSH2 0x14F8 DUP2 PUSH2 0x14BF JUMP JUMPDEST SWAP1 POP SWAP2 SWAP1 POP JUMP JUMPDEST PUSH32 0x4F6E6C7920565246436F6F7264696E61746F722063616E2066756C66696C6C00 PUSH0 DUP3 ADD MSTORE POP JUMP JUMPDEST PUSH0 PUSH2 0x1533 PUSH1 0x1F DUP4 PUSH2 0x1270 JUMP JUMPDEST SWAP2 POP PUSH2 0x153E DUP3 PUSH2 0x14FF JUMP JUMPDEST PUSH1 0x20 DUP3 ADD SWAP1 POP SWAP2 SWAP1 POP JUMP JUMPDEST PUSH0 PUSH1 0x20 DUP3 ADD SWAP1 POP DUP2 DUP2 SUB PUSH0 DUP4 ADD MSTORE PUSH2 0x1560 DUP2 PUSH2 0x1527 JUMP JUMPDEST SWAP1 POP SWAP2 SWAP1 POP JUMP JUMPDEST PUSH32 0x496E73756666696369656E7420746F6B656E2062616C616E6365000000000000 PUSH0 DUP3 ADD MSTORE POP JUMP JUMPDEST PUSH0 PUSH2 0x159B PUSH1 0x1A DUP4 PUSH2 0x1270 JUMP JUMPDEST SWAP2 POP PUSH2 0x15A6 DUP3 PUSH2 0x1567 JUMP JUMPDEST PUSH1 0x20 DUP3 ADD SWAP1 POP SWAP2 SWAP1 POP JUMP JUMPDEST PUSH0 PUSH1 0x20 DUP3 ADD SWAP1 POP DUP2 DUP2 SUB PUSH0 DUP4 ADD MSTORE PUSH2 0x15C8 DUP2 PUSH2 0x158F JUMP JUMPDEST SWAP1 POP SWAP2 SWAP1 POP JUMP JUMPDEST PUSH32 0x496E636F727265637420746F6B656E20616D6F756E7400000000000000000000 PUSH0 DUP3 ADD MSTORE POP JUMP JUMPDEST PUSH0 PUSH2 0x1603 PUSH1 0x16 DUP4 PUSH2 0x1270 JUMP JUMPDEST SWAP2 POP PUSH2 0x160E DUP3 PUSH2 0x15CF JUMP JUMPDEST PUSH1 0x20 DUP3 ADD SWAP1 POP SWAP2 SWAP1 POP JUMP JUMPDEST PUSH0 PUSH1 0x20 DUP3 ADD SWAP1 POP DUP2 DUP2 SUB PUSH0 DUP4 ADD MSTORE PUSH2 0x1630 DUP2 PUSH2 0x15F7 JUMP JUMPDEST SWAP1 POP SWAP2 SWAP1 POP JUMP JUMPDEST PUSH0 PUSH1 0x60 DUP3 ADD SWAP1 POP PUSH2 0x164A PUSH0 DUP4 ADD DUP7 PUSH2 0x13B4 JUMP JUMPDEST PUSH2 0x1657 PUSH1 0x20 DUP4 ADD DUP6 PUSH2 0x13B4 JUMP JUMPDEST PUSH2 0x1664 PUSH1 0x40 DUP4 ADD DUP5 PUSH2 0x101E JUMP JUMPDEST SWAP5 SWAP4 POP POP POP POP JUMP JUMPDEST PUSH32 0x4E6F7420656E6F756768204C494E4B20746F20726571756573742072616E646F PUSH0 DUP3 ADD MSTORE PUSH32 0x6D6E657373000000000000000000000000000000000000000000000000000000 PUSH1 0x20 DUP3 ADD MSTORE POP JUMP JUMPDEST PUSH0 PUSH2 0x16C6 PUSH1 0x25 DUP4 PUSH2 0x1270 JUMP JUMPDEST SWAP2 POP PUSH2 0x16D1 DUP3 PUSH2 0x166C JUMP JUMPDEST PUSH1 0x40 DUP3 ADD SWAP1 POP SWAP2 SWAP1 POP JUMP JUMPDEST PUSH0 PUSH1 0x20 DUP3 ADD SWAP1 POP DUP2 DUP2 SUB PUSH0 DUP4 ADD MSTORE PUSH2 0x16F3 DUP2 PUSH2 0x16BA JUMP JUMPDEST SWAP1 POP SWAP2 SWAP1 POP JUMP JUMPDEST PUSH32 0x4E487B7100000000000000000000000000000000000000000000000000000000 PUSH0 MSTORE PUSH1 0x12 PUSH1 0x4 MSTORE PUSH1 0x24 PUSH0 REVERT JUMPDEST PUSH0 PUSH2 0x1731 DUP3 PUSH2 0x1015 JUMP JUMPDEST SWAP2 POP PUSH2 0x173C DUP4 PUSH2 0x1015 JUMP JUMPDEST SWAP3 POP DUP3 PUSH2 0x174C JUMPI PUSH2 0x174B PUSH2 0x16FA JUMP JUMPDEST JUMPDEST DUP3 DUP3 MOD SWAP1 POP SWAP3 SWAP2 POP POP JUMP JUMPDEST PUSH2 0x1760 DUP2 PUSH2 0x1123 JUMP JUMPDEST DUP3 MSTORE POP POP JUMP JUMPDEST PUSH0 PUSH1 0x40 DUP3 ADD SWAP1 POP PUSH2 0x1779 PUSH0 DUP4 ADD DUP6 PUSH2 0x1757 JUMP JUMPDEST PUSH2 0x1786 PUSH1 0x20 DUP4 ADD DUP5 PUSH2 0x101E JUMP JUMPDEST SWAP4 SWAP3 POP POP POP JUMP JUMPDEST PUSH0 DUP2 MLOAD SWAP1 POP SWAP2 SWAP1 POP JUMP JUMPDEST PUSH0 DUP3 DUP3 MSTORE PUSH1 0x20 DUP3 ADD SWAP1 POP SWAP3 SWAP2 POP POP JUMP JUMPDEST DUP3 DUP2 DUP4 MCOPY PUSH0 DUP4 DUP4 ADD MSTORE POP POP POP JUMP JUMPDEST PUSH0 PUSH1 0x1F NOT PUSH1 0x1F DUP4 ADD AND SWAP1 POP SWAP2 SWAP1 POP JUMP JUMPDEST PUSH0 PUSH2 0x17CF DUP3 PUSH2 0x178D JUMP JUMPDEST PUSH2 0x17D9 DUP2 DUP6 PUSH2 0x1797 JUMP JUMPDEST SWAP4 POP PUSH2 0x17E9 DUP2 DUP6 PUSH1 0x20 DUP7 ADD PUSH2 0x17A7 JUMP JUMPDEST PUSH2 0x17F2 DUP2 PUSH2 0x17B5 JUMP JUMPDEST DUP5 ADD SWAP2 POP POP SWAP3 SWAP2 POP POP JUMP JUMPDEST PUSH0 PUSH1 0x60 DUP3 ADD SWAP1 POP PUSH2 0x1810 PUSH0 DUP4 ADD DUP7 PUSH2 0x13B4 JUMP JUMPDEST PUSH2 0x181D PUSH1 0x20 DUP4 ADD DUP6 PUSH2 0x101E JUMP JUMPDEST DUP2 DUP2 SUB PUSH1 0x40 DUP4 ADD MSTORE PUSH2 0x182F DUP2 DUP5 PUSH2 0x17C5 JUMP JUMPDEST SWAP1 POP SWAP5 SWAP4 POP POP POP POP JUMP JUMPDEST PUSH32 0x4E487B7100000000000000000000000000000000000000000000000000000000 PUSH0 MSTORE PUSH1 0x11 PUSH1 0x4 MSTORE PUSH1 0x24 PUSH0 REVERT JUMPDEST PUSH0 PUSH2 0x1870 DUP3 PUSH2 0x1015 JUMP JUMPDEST SWAP2 POP PUSH2 0x187B DUP4 PUSH2 0x1015 JUMP JUMPDEST SWAP3 POP DUP3 DUP3 ADD SWAP1 POP DUP1 DUP3 GT ISZERO PUSH2 0x1893 JUMPI PUSH2 0x1892 PUSH2 0x1839 JUMP JUMPDEST JUMPDEST SWAP3 SWAP2 POP POP JUMP JUMPDEST PUSH32 0x47616D6520616C726561647920636F6D706C6574650000000000000000000000 PUSH0 DUP3 ADD MSTORE POP JUMP JUMPDEST PUSH0 PUSH2 0x18CD PUSH1 0x15 DUP4 PUSH2 0x1270 JUMP JUMPDEST SWAP2 POP PUSH2 0x18D8 DUP3 PUSH2 0x1899 JUMP JUMPDEST PUSH1 0x20 DUP3 ADD SWAP1 POP SWAP2 SWAP1 POP JUMP JUMPDEST PUSH0 PUSH1 0x20 DUP3 ADD SWAP1 POP DUP2 DUP2 SUB PUSH0 DUP4 ADD MSTORE PUSH2 0x18FA DUP2 PUSH2 0x18C1 JUMP JUMPDEST SWAP1 POP SWAP2 SWAP1 POP JUMP JUMPDEST PUSH0 PUSH2 0x190B DUP3 PUSH2 0x1015 JUMP JUMPDEST SWAP2 POP PUSH2 0x1916 DUP4 PUSH2 0x1015 JUMP JUMPDEST SWAP3 POP DUP3 DUP3 MUL PUSH2 0x1924 DUP2 PUSH2 0x1015 JUMP JUMPDEST SWAP2 POP DUP3 DUP3 DIV DUP5 EQ DUP4 ISZERO OR PUSH2 0x193B JUMPI PUSH2 0x193A PUSH2 0x1839 JUMP JUMPDEST JUMPDEST POP SWAP3 SWAP2 POP POP JUMP JUMPDEST PUSH0 PUSH1 0x80 DUP3 ADD SWAP1 POP PUSH2 0x1955 PUSH0 DUP4 ADD DUP8 PUSH2 0x1757 JUMP JUMPDEST PUSH2 0x1962 PUSH1 0x20 DUP4 ADD DUP7 PUSH2 0x101E JUMP JUMPDEST PUSH2 0x196F PUSH1 0x40 DUP4 ADD DUP6 PUSH2 0x13B4 JUMP JUMPDEST PUSH2 0x197C PUSH1 0x60 DUP4 ADD DUP5 PUSH2 0x101E JUMP JUMPDEST SWAP6 SWAP5 POP POP POP POP POP JUMP JUMPDEST PUSH0 DUP2 SWAP1 POP SWAP2 SWAP1 POP JUMP JUMPDEST PUSH2 0x199F PUSH2 0x199A DUP3 PUSH2 0x1123 JUMP JUMPDEST PUSH2 0x1985 JUMP JUMPDEST DUP3 MSTORE POP POP JUMP JUMPDEST PUSH0 DUP2 SWAP1 POP SWAP2 SWAP1 POP JUMP JUMPDEST PUSH2 0x19BF PUSH2 0x19BA DUP3 PUSH2 0x1015 JUMP JUMPDEST PUSH2 0x19A5 JUMP JUMPDEST DUP3 MSTORE POP POP JUMP JUMPDEST PUSH0 PUSH2 0x19D0 DUP3 DUP6 PUSH2 0x198E JUMP JUMPDEST PUSH1 0x20 DUP3 ADD SWAP2 POP PUSH2 0x19E0 DUP3 DUP5 PUSH2 0x19AE JUMP JUMPDEST PUSH1 0x20 DUP3 ADD SWAP2 POP DUP2 SWAP1 POP SWAP4 SWAP3 POP POP POP JUMP INVALID LOG2 PUSH5 0x6970667358 0x22 SLT KECCAK256 CALL 0x4E 0xCB 0xC6 EQ 0xDE 0xF9 0xDB ISZERO 0xEC OR TSTORE SDIV PUSH32 0x4D49272546690FDD77D57242EC93B0CBB6E864736F6C634300081A0033000000 "
				},
				"gasEstimates": {
					"creation": {
						"codeDepositCost": "1338800",
						"executionCost": "infinite",
						"totalCost": "infinite"
					},
					"external": {
						"betAmount()": "369",
						"gameComplete()": "2540",
						"play(uint8)": "infinite",
						"playWithTokens(uint8,uint256)": "infinite",
						"player1()": "2574",
						"player2()": "2575",
						"randomResult()": "2426",
						"rawFulfillRandomness(bytes32,uint256)": "infinite",
						"token()": "infinite",
						"withdrawLink()": "infinite"
					},
					"internal": {
						"_decideWinner()": "infinite",
						"fulfillRandomness(bytes32,uint256)": "infinite",
						"requestRandomnessForWinner()": "infinite"
					}
				},
				"methodIdentifiers": {
					"betAmount()": "d24257c0",
					"gameComplete()": "4d0d75b5",
					"play(uint8)": "53a04b05",
					"playWithTokens(uint8,uint256)": "b63b6df3",
					"player1()": "d30895e4",
					"player2()": "59a5f12d",
					"randomResult()": "42619f66",
					"rawFulfillRandomness(bytes32,uint256)": "94985ddd",
					"token()": "fc0c546a",
					"withdrawLink()": "8dc654a2"
				}
			},
			"storageLayout": {
				"storage": [
					{
						"astId": 79,
						"contract": "contracts/RockPaperScissors.sol:RockPaperScissors",
						"label": "nonces",
						"offset": 0,
						"slot": "0",
						"type": "t_mapping(t_bytes32,t_uint256)"
					},
					{
						"astId": 358,
						"contract": "contracts/RockPaperScissors.sol:RockPaperScissors",
						"label": "keyHash",
						"offset": 0,
						"slot": "1",
						"type": "t_bytes32"
					},
					{
						"astId": 360,
						"contract": "contracts/RockPaperScissors.sol:RockPaperScissors",
						"label": "fee",
						"offset": 0,
						"slot": "2",
						"type": "t_uint256"
					},
					{
						"astId": 363,
						"contract": "contracts/RockPaperScissors.sol:RockPaperScissors",
						"label": "token",
						"offset": 0,
						"slot": "3",
						"type": "t_contract(IERC20)343"
					},
					{
						"astId": 365,
						"contract": "contracts/RockPaperScissors.sol:RockPaperScissors",
						"label": "player1",
						"offset": 0,
						"slot": "4",
						"type": "t_address_payable"
					},
					{
						"astId": 367,
						"contract": "contracts/RockPaperScissors.sol:RockPaperScissors",
						"label": "player2",
						"offset": 0,
						"slot": "5",
						"type": "t_address_payable"
					},
					{
						"astId": 370,
						"contract": "contracts/RockPaperScissors.sol:RockPaperScissors",
						"label": "player1Move",
						"offset": 20,
						"slot": "5",
						"type": "t_enum(Move)353"
					},
					{
						"astId": 372,
						"contract": "contracts/RockPaperScissors.sol:RockPaperScissors",
						"label": "gameComplete",
						"offset": 21,
						"slot": "5",
						"type": "t_bool"
					},
					{
						"astId": 374,
						"contract": "contracts/RockPaperScissors.sol:RockPaperScissors",
						"label": "randomResult",
						"offset": 0,
						"slot": "6",
						"type": "t_uint256"
					}
				],
				"types": {
					"t_address_payable": {
						"encoding": "inplace",
						"label": "address payable",
						"numberOfBytes": "20"
					},
					"t_bool": {
						"encoding": "inplace",
						"label": "bool",
						"numberOfBytes": "1"
					},
					"t_bytes32": {
						"encoding": "inplace",
						"label": "bytes32",
						"numberOfBytes": "32"
					},
					"t_contract(IERC20)343": {
						"encoding": "inplace",
						"label": "contract IERC20",
						"numberOfBytes": "20"
					},
					"t_enum(Move)353": {
						"encoding": "inplace",
						"label": "enum RockPaperScissors.Move",
						"numberOfBytes": "1"
					},
					"t_mapping(t_bytes32,t_uint256)": {
						"encoding": "mapping",
						"key": "t_bytes32",
						"label": "mapping(bytes32 => uint256)",
						"numberOfBytes": "32",
						"value": "t_uint256"
					},
					"t_uint256": {
						"encoding": "inplace",
						"label": "uint256",
						"numberOfBytes": "32"
					}
				}
			},
			"userdoc": {
				"kind": "user",
				"methods": {},
				"version": 1
			}
		}
	}
}