{
	"contracts/RPS-front.sol": {
		"RockPaperScissors": {
			"abi": [
				{
					"anonymous": false,
					"inputs": [
						{
							"indexed": true,
							"internalType": "uint256",
							"name": "gameId",
							"type": "uint256"
						},
						{
							"indexed": true,
							"internalType": "address",
							"name": "player1",
							"type": "address"
						},
						{
							"indexed": false,
							"internalType": "uint256",
							"name": "wager",
							"type": "uint256"
						}
					],
					"name": "GameCreated",
					"type": "event"
				},
				{
					"anonymous": false,
					"inputs": [
						{
							"indexed": true,
							"internalType": "uint256",
							"name": "gameId",
							"type": "uint256"
						},
						{
							"indexed": true,
							"internalType": "address",
							"name": "player",
							"type": "address"
						},
						{
							"indexed": false,
							"internalType": "enum RockPaperScissors.Move",
							"name": "move",
							"type": "uint8"
						}
					],
					"name": "GamePlayed",
					"type": "event"
				},
				{
					"anonymous": false,
					"inputs": [
						{
							"indexed": true,
							"internalType": "uint256",
							"name": "gameId",
							"type": "uint256"
						},
						{
							"indexed": false,
							"internalType": "enum RockPaperScissors.Result",
							"name": "result",
							"type": "uint8"
						}
					],
					"name": "GameResult",
					"type": "event"
				},
				{
					"inputs": [
						{
							"internalType": "uint256",
							"name": "wager",
							"type": "uint256"
						}
					],
					"name": "createGame",
					"outputs": [],
					"stateMutability": "payable",
					"type": "function"
				},
				{
					"inputs": [],
					"name": "gameIdCounter",
					"outputs": [
						{
							"internalType": "uint256",
							"name": "",
							"type": "uint256"
						}
					],
					"stateMutability": "view",
					"type": "function"
				},
				{
					"inputs": [
						{
							"internalType": "uint256",
							"name": "",
							"type": "uint256"
						}
					],
					"name": "games",
					"outputs": [
						{
							"internalType": "address",
							"name": "player1",
							"type": "address"
						},
						{
							"internalType": "address",
							"name": "player2",
							"type": "address"
						},
						{
							"internalType": "enum RockPaperScissors.Move",
							"name": "move1",
							"type": "uint8"
						},
						{
							"internalType": "enum RockPaperScissors.Move",
							"name": "move2",
							"type": "uint8"
						},
						{
							"internalType": "uint256",
							"name": "wager",
							"type": "uint256"
						},
						{
							"internalType": "enum RockPaperScissors.Result",
							"name": "result",
							"type": "uint8"
						}
					],
					"stateMutability": "view",
					"type": "function"
				},
				{
					"inputs": [
						{
							"internalType": "address",
							"name": "player",
							"type": "address"
						}
					],
					"name": "getPlayerGames",
					"outputs": [
						{
							"internalType": "uint256[]",
							"name": "",
							"type": "uint256[]"
						}
					],
					"stateMutability": "view",
					"type": "function"
				},
				{
					"inputs": [
						{
							"internalType": "uint256",
							"name": "gameId",
							"type": "uint256"
						}
					],
					"name": "joinGame",
					"outputs": [],
					"stateMutability": "payable",
					"type": "function"
				},
				{
					"inputs": [
						{
							"internalType": "uint256",
							"name": "gameId",
							"type": "uint256"
						},
						{
							"internalType": "enum RockPaperScissors.Move",
							"name": "move",
							"type": "uint8"
						}
					],
					"name": "play",
					"outputs": [],
					"stateMutability": "nonpayable",
					"type": "function"
				},
				{
					"inputs": [
						{
							"internalType": "address",
							"name": "",
							"type": "address"
						},
						{
							"internalType": "uint256",
							"name": "",
							"type": "uint256"
						}
					],
					"name": "playerGames",
					"outputs": [
						{
							"internalType": "uint256",
							"name": "",
							"type": "uint256"
						}
					],
					"stateMutability": "view",
					"type": "function"
				}
			],
			"devdoc": {
				"details": "A simple contract for playing Rock-Paper-Scissors on the blockchain.",
				"kind": "dev",
				"methods": {
					"createGame(uint256)": {
						"details": "Create a new game with an initial wager.",
						"params": {
							"wager": "The amount bet by the player."
						}
					},
					"getPlayerGames(address)": {
						"details": "View game history for a specific player.",
						"params": {
							"player": "The address of the player."
						},
						"returns": {
							"_0": "uint256[] List of game IDs the player has participated in."
						}
					},
					"joinGame(uint256)": {
						"details": "Join an existing game by providing the gameId and sending the wager.",
						"params": {
							"gameId": "The ID of the game to join."
						}
					},
					"play(uint256,uint8)": {
						"details": "Make a move in the game.",
						"params": {
							"gameId": "The ID of the game to play.",
							"move": "The move (Rock, Paper, Scissors)."
						}
					}
				},
				"title": "RockPaperScissors",
				"version": 1
			},
			"evm": {
				"assembly": "    /* \"contracts/RPS-front.sol\":171:4208  contract RockPaperScissors {... */\n  mstore(0x40, 0x80)\n  callvalue\n  dup1\n  iszero\n  tag_1\n  jumpi\n  0x00\n  dup1\n  revert\ntag_1:\n  pop\n  dataSize(sub_0)\n  dup1\n  dataOffset(sub_0)\n  0x00\n  codecopy\n  0x00\n  return\nstop\n\nsub_0: assembly {\n        /* \"contracts/RPS-front.sol\":171:4208  contract RockPaperScissors {... */\n      mstore(0x40, 0x80)\n      jumpi(tag_1, lt(calldatasize, 0x04))\n      shr(0xe0, calldataload(0x00))\n      dup1\n      0x1bb412d6\n      gt\n      tag_9\n      jumpi\n      dup1\n      0x1bb412d6\n      eq\n      tag_5\n      jumpi\n      dup1\n      0x48e837b9\n      eq\n      tag_6\n      jumpi\n      dup1\n      0x5cd7692e\n      eq\n      tag_7\n      jumpi\n      dup1\n      0xefaa55a0\n      eq\n      tag_8\n      jumpi\n      jump(tag_1)\n    tag_9:\n      dup1\n      0x0a5694c2\n      eq\n      tag_2\n      jumpi\n      dup1\n      0x117a5b90\n      eq\n      tag_3\n      jumpi\n      dup1\n      0x129daf84\n      eq\n      tag_4\n      jumpi\n    tag_1:\n      0x00\n      dup1\n      revert\n        /* \"contracts/RPS-front.sol\":546:594  mapping(address => uint256[]) public playerGames */\n    tag_2:\n      callvalue\n      dup1\n      iszero\n      tag_10\n      jumpi\n      0x00\n      dup1\n      revert\n    tag_10:\n      pop\n      tag_11\n      0x04\n      dup1\n      calldatasize\n      sub\n      dup2\n      add\n      swap1\n      tag_12\n      swap2\n      swap1\n      tag_13\n      jump\t// in\n    tag_12:\n      tag_14\n      jump\t// in\n    tag_11:\n      mload(0x40)\n      tag_15\n      swap2\n      swap1\n      tag_16\n      jump\t// in\n    tag_15:\n      mload(0x40)\n      dup1\n      swap2\n      sub\n      swap1\n      return\n        /* \"contracts/RPS-front.sol\":469:506  mapping(uint256 => Game) public games */\n    tag_3:\n      callvalue\n      dup1\n      iszero\n      tag_17\n      jumpi\n      0x00\n      dup1\n      revert\n    tag_17:\n      pop\n      tag_18\n      0x04\n      dup1\n      calldatasize\n      sub\n      dup2\n      add\n      swap1\n      tag_19\n      swap2\n      swap1\n      tag_20\n      jump\t// in\n    tag_19:\n      tag_21\n      jump\t// in\n    tag_18:\n      mload(0x40)\n      tag_22\n      swap7\n      swap6\n      swap5\n      swap4\n      swap3\n      swap2\n      swap1\n      tag_23\n      jump\t// in\n    tag_22:\n      mload(0x40)\n      dup1\n      swap2\n      sub\n      swap1\n      return\n        /* \"contracts/RPS-front.sol\":4082:4206  function getPlayerGames(address player) external view returns (uint256[] memory) {... */\n    tag_4:\n      callvalue\n      dup1\n      iszero\n      tag_24\n      jumpi\n      0x00\n      dup1\n      revert\n    tag_24:\n      pop\n      tag_25\n      0x04\n      dup1\n      calldatasize\n      sub\n      dup2\n      add\n      swap1\n      tag_26\n      swap2\n      swap1\n      tag_27\n      jump\t// in\n    tag_26:\n      tag_28\n      jump\t// in\n    tag_25:\n      mload(0x40)\n      tag_29\n      swap2\n      swap1\n      tag_30\n      jump\t// in\n    tag_29:\n      mload(0x40)\n      dup1\n      swap2\n      sub\n      swap1\n      return\n        /* \"contracts/RPS-front.sol\":512:540  uint256 public gameIdCounter */\n    tag_5:\n      callvalue\n      dup1\n      iszero\n      tag_31\n      jumpi\n      0x00\n      dup1\n      revert\n    tag_31:\n      pop\n      tag_32\n      tag_33\n      jump\t// in\n    tag_32:\n      mload(0x40)\n      tag_34\n      swap2\n      swap1\n      tag_16\n      jump\t// in\n    tag_34:\n      mload(0x40)\n      dup1\n      swap2\n      sub\n      swap1\n      return\n        /* \"contracts/RPS-front.sol\":950:1443  function createGame(uint256 wager) external payable {... */\n    tag_6:\n      tag_35\n      0x04\n      dup1\n      calldatasize\n      sub\n      dup2\n      add\n      swap1\n      tag_36\n      swap2\n      swap1\n      tag_20\n      jump\t// in\n    tag_36:\n      tag_37\n      jump\t// in\n    tag_35:\n      stop\n        /* \"contracts/RPS-front.sol\":2151:2928  function play(uint256 gameId, Move move) external {... */\n    tag_7:\n      callvalue\n      dup1\n      iszero\n      tag_38\n      jumpi\n      0x00\n      dup1\n      revert\n    tag_38:\n      pop\n      tag_39\n      0x04\n      dup1\n      calldatasize\n      sub\n      dup2\n      add\n      swap1\n      tag_40\n      swap2\n      swap1\n      tag_41\n      jump\t// in\n    tag_40:\n      tag_42\n      jump\t// in\n    tag_39:\n      stop\n        /* \"contracts/RPS-front.sol\":1595:1990  function joinGame(uint256 gameId) external payable {... */\n    tag_8:\n      tag_43\n      0x04\n      dup1\n      calldatasize\n      sub\n      dup2\n      add\n      swap1\n      tag_44\n      swap2\n      swap1\n      tag_20\n      jump\t// in\n    tag_44:\n      tag_45\n      jump\t// in\n    tag_43:\n      stop\n        /* \"contracts/RPS-front.sol\":546:594  mapping(address => uint256[]) public playerGames */\n    tag_14:\n      mstore(0x20, 0x02)\n      dup2\n      0x00\n      mstore\n      keccak256(0x00, 0x40)\n      dup2\n      dup2\n      sload\n      dup2\n      lt\n      tag_46\n      jumpi\n      0x00\n      dup1\n      revert\n    tag_46:\n      swap1\n      0x00\n      mstore\n      keccak256(0x00, 0x20)\n      add\n      0x00\n      swap2\n      pop\n      swap2\n      pop\n      pop\n      sload\n      dup2\n      jump\t// out\n        /* \"contracts/RPS-front.sol\":469:506  mapping(uint256 => Game) public games */\n    tag_21:\n      mstore(0x20, 0x00)\n      dup1\n      0x00\n      mstore\n      keccak256(0x00, 0x40)\n      0x00\n      swap2\n      pop\n      swap1\n      pop\n      dup1\n      0x00\n      add\n      0x00\n      swap1\n      sload\n      swap1\n      0x0100\n      exp\n      swap1\n      div\n      0xffffffffffffffffffffffffffffffffffffffff\n      and\n      swap1\n      dup1\n      0x01\n      add\n      0x00\n      swap1\n      sload\n      swap1\n      0x0100\n      exp\n      swap1\n      div\n      0xffffffffffffffffffffffffffffffffffffffff\n      and\n      swap1\n      dup1\n      0x01\n      add\n      0x14\n      swap1\n      sload\n      swap1\n      0x0100\n      exp\n      swap1\n      div\n      0xff\n      and\n      swap1\n      dup1\n      0x01\n      add\n      0x15\n      swap1\n      sload\n      swap1\n      0x0100\n      exp\n      swap1\n      div\n      0xff\n      and\n      swap1\n      dup1\n      0x02\n      add\n      sload\n      swap1\n      dup1\n      0x03\n      add\n      0x00\n      swap1\n      sload\n      swap1\n      0x0100\n      exp\n      swap1\n      div\n      0xff\n      and\n      swap1\n      pop\n      dup7\n      jump\t// out\n        /* \"contracts/RPS-front.sol\":4082:4206  function getPlayerGames(address player) external view returns (uint256[] memory) {... */\n    tag_28:\n        /* \"contracts/RPS-front.sol\":4145:4161  uint256[] memory */\n      0x60\n        /* \"contracts/RPS-front.sol\":4180:4191  playerGames */\n      0x02\n        /* \"contracts/RPS-front.sol\":4180:4199  playerGames[player] */\n      0x00\n        /* \"contracts/RPS-front.sol\":4192:4198  player */\n      dup4\n        /* \"contracts/RPS-front.sol\":4180:4199  playerGames[player] */\n      0xffffffffffffffffffffffffffffffffffffffff\n      and\n      0xffffffffffffffffffffffffffffffffffffffff\n      and\n      dup2\n      mstore\n      0x20\n      add\n      swap1\n      dup2\n      mstore\n      0x20\n      add\n      0x00\n      keccak256\n        /* \"contracts/RPS-front.sol\":4173:4199  return playerGames[player] */\n      dup1\n      sload\n      dup1\n      0x20\n      mul\n      0x20\n      add\n      mload(0x40)\n      swap1\n      dup2\n      add\n      0x40\n      mstore\n      dup1\n      swap3\n      swap2\n      swap1\n      dup2\n      dup2\n      mstore\n      0x20\n      add\n      dup3\n      dup1\n      sload\n      dup1\n      iszero\n      tag_49\n      jumpi\n      0x20\n      mul\n      dup3\n      add\n      swap2\n      swap1\n      0x00\n      mstore\n      keccak256(0x00, 0x20)\n      swap1\n    tag_50:\n      dup2\n      sload\n      dup2\n      mstore\n      0x20\n      add\n      swap1\n      0x01\n      add\n      swap1\n      dup1\n      dup4\n      gt\n      tag_50\n      jumpi\n    tag_49:\n      pop\n      pop\n      pop\n      pop\n      pop\n      swap1\n      pop\n        /* \"contracts/RPS-front.sol\":4082:4206  function getPlayerGames(address player) external view returns (uint256[] memory) {... */\n      swap2\n      swap1\n      pop\n      jump\t// out\n        /* \"contracts/RPS-front.sol\":512:540  uint256 public gameIdCounter */\n    tag_33:\n      sload(0x01)\n      dup2\n      jump\t// out\n        /* \"contracts/RPS-front.sol\":950:1443  function createGame(uint256 wager) external payable {... */\n    tag_37:\n        /* \"contracts/RPS-front.sol\":1033:1038  wager */\n      dup1\n        /* \"contracts/RPS-front.sol\":1020:1029  msg.value */\n      callvalue\n        /* \"contracts/RPS-front.sol\":1020:1038  msg.value == wager */\n      eq\n        /* \"contracts/RPS-front.sol\":1012:1064  require(msg.value == wager, \"Wager amount mismatch\") */\n      tag_52\n      jumpi\n      mload(0x40)\n      0x08c379a000000000000000000000000000000000000000000000000000000000\n      dup2\n      mstore\n      0x04\n      add\n      tag_53\n      swap1\n      tag_54\n      jump\t// in\n    tag_53:\n      mload(0x40)\n      dup1\n      swap2\n      sub\n      swap1\n      revert\n    tag_52:\n        /* \"contracts/RPS-front.sol\":1097:1298  Game({... */\n      mload(0x40)\n      dup1\n      0xc0\n      add\n      0x40\n      mstore\n      dup1\n        /* \"contracts/RPS-front.sol\":1125:1135  msg.sender */\n      caller\n        /* \"contracts/RPS-front.sol\":1097:1298  Game({... */\n      0xffffffffffffffffffffffffffffffffffffffff\n      and\n      dup2\n      mstore\n      0x20\n      add\n        /* \"contracts/RPS-front.sol\":1166:1167  0 */\n      0x00\n        /* \"contracts/RPS-front.sol\":1097:1298  Game({... */\n      0xffffffffffffffffffffffffffffffffffffffff\n      and\n      dup2\n      mstore\n      0x20\n      add\n        /* \"contracts/RPS-front.sol\":1189:1198  Move.None */\n      0x00\n        /* \"contracts/RPS-front.sol\":1097:1298  Game({... */\n      0x03\n      dup2\n      gt\n      iszero\n      tag_55\n      jumpi\n      tag_56\n      tag_57\n      jump\t// in\n    tag_56:\n    tag_55:\n      dup2\n      mstore\n      0x20\n      add\n        /* \"contracts/RPS-front.sol\":1219:1228  Move.None */\n      0x00\n        /* \"contracts/RPS-front.sol\":1097:1298  Game({... */\n      0x03\n      dup2\n      gt\n      iszero\n      tag_58\n      jumpi\n      tag_59\n      tag_57\n      jump\t// in\n    tag_59:\n    tag_58:\n      dup2\n      mstore\n      0x20\n      add\n        /* \"contracts/RPS-front.sol\":1249:1254  wager */\n      dup3\n        /* \"contracts/RPS-front.sol\":1097:1298  Game({... */\n      dup2\n      mstore\n      0x20\n      add\n        /* \"contracts/RPS-front.sol\":1276:1287  Result.None */\n      0x00\n        /* \"contracts/RPS-front.sol\":1097:1298  Game({... */\n      0x03\n      dup2\n      gt\n      iszero\n      tag_60\n      jumpi\n      tag_61\n      tag_57\n      jump\t// in\n    tag_61:\n    tag_60:\n      dup2\n      mstore\n      pop\n        /* \"contracts/RPS-front.sol\":1074:1079  games */\n      0x00\n        /* \"contracts/RPS-front.sol\":1074:1094  games[gameIdCounter] */\n      dup1\n        /* \"contracts/RPS-front.sol\":1080:1093  gameIdCounter */\n      sload(0x01)\n        /* \"contracts/RPS-front.sol\":1074:1094  games[gameIdCounter] */\n      dup2\n      mstore\n      0x20\n      add\n      swap1\n      dup2\n      mstore\n      0x20\n      add\n      0x00\n      keccak256\n        /* \"contracts/RPS-front.sol\":1074:1298  games[gameIdCounter] = Game({... */\n      0x00\n      dup3\n      add\n      mload\n      dup2\n      0x00\n      add\n      exp(0x0100, 0x00)\n      dup2\n      sload\n      dup2\n      0xffffffffffffffffffffffffffffffffffffffff\n      mul\n      not\n      and\n      swap1\n      dup4\n      0xffffffffffffffffffffffffffffffffffffffff\n      and\n      mul\n      or\n      swap1\n      sstore\n      pop\n      0x20\n      dup3\n      add\n      mload\n      dup2\n      0x01\n      add\n      exp(0x0100, 0x00)\n      dup2\n      sload\n      dup2\n      0xffffffffffffffffffffffffffffffffffffffff\n      mul\n      not\n      and\n      swap1\n      dup4\n      0xffffffffffffffffffffffffffffffffffffffff\n      and\n      mul\n      or\n      swap1\n      sstore\n      pop\n      0x40\n      dup3\n      add\n      mload\n      dup2\n      0x01\n      add\n      exp(0x0100, 0x14)\n      dup2\n      sload\n      dup2\n      0xff\n      mul\n      not\n      and\n      swap1\n      dup4\n      0x03\n      dup2\n      gt\n      iszero\n      tag_62\n      jumpi\n      tag_63\n      tag_57\n      jump\t// in\n    tag_63:\n    tag_62:\n      mul\n      or\n      swap1\n      sstore\n      pop\n      0x60\n      dup3\n      add\n      mload\n      dup2\n      0x01\n      add\n      exp(0x0100, 0x15)\n      dup2\n      sload\n      dup2\n      0xff\n      mul\n      not\n      and\n      swap1\n      dup4\n      0x03\n      dup2\n      gt\n      iszero\n      tag_64\n      jumpi\n      tag_65\n      tag_57\n      jump\t// in\n    tag_65:\n    tag_64:\n      mul\n      or\n      swap1\n      sstore\n      pop\n      0x80\n      dup3\n      add\n      mload\n      dup2\n      0x02\n      add\n      sstore\n      0xa0\n      dup3\n      add\n      mload\n      dup2\n      0x03\n      add\n      exp(0x0100, 0x00)\n      dup2\n      sload\n      dup2\n      0xff\n      mul\n      not\n      and\n      swap1\n      dup4\n      0x03\n      dup2\n      gt\n      iszero\n      tag_66\n      jumpi\n      tag_67\n      tag_57\n      jump\t// in\n    tag_67:\n    tag_66:\n      mul\n      or\n      swap1\n      sstore\n      pop\n      swap1\n      pop\n      pop\n        /* \"contracts/RPS-front.sol\":1308:1319  playerGames */\n      0x02\n        /* \"contracts/RPS-front.sol\":1308:1331  playerGames[msg.sender] */\n      0x00\n        /* \"contracts/RPS-front.sol\":1320:1330  msg.sender */\n      caller\n        /* \"contracts/RPS-front.sol\":1308:1331  playerGames[msg.sender] */\n      0xffffffffffffffffffffffffffffffffffffffff\n      and\n      0xffffffffffffffffffffffffffffffffffffffff\n      and\n      dup2\n      mstore\n      0x20\n      add\n      swap1\n      dup2\n      mstore\n      0x20\n      add\n      0x00\n      keccak256\n        /* \"contracts/RPS-front.sol\":1337:1350  gameIdCounter */\n      sload(0x01)\n        /* \"contracts/RPS-front.sol\":1308:1351  playerGames[msg.sender].push(gameIdCounter) */\n      swap1\n      dup1\n      0x01\n      dup2\n      sload\n      add\n      dup1\n      dup3\n      sstore\n      dup1\n      swap2\n      pop\n      pop\n      0x01\n      swap1\n      sub\n      swap1\n      0x00\n      mstore\n      keccak256(0x00, 0x20)\n      add\n      0x00\n      swap1\n      swap2\n      swap1\n      swap2\n      swap1\n      swap2\n      pop\n      sstore\n        /* \"contracts/RPS-front.sol\":1393:1403  msg.sender */\n      caller\n        /* \"contracts/RPS-front.sol\":1366:1411  GameCreated(gameIdCounter, msg.sender, wager) */\n      0xffffffffffffffffffffffffffffffffffffffff\n      and\n        /* \"contracts/RPS-front.sol\":1378:1391  gameIdCounter */\n      sload(0x01)\n        /* \"contracts/RPS-front.sol\":1366:1411  GameCreated(gameIdCounter, msg.sender, wager) */\n      0x7dfb67e9ff596fca4da65c7eedb128cd1aac553af54b3c0cb733625a2480d8bd\n        /* \"contracts/RPS-front.sol\":1405:1410  wager */\n      dup4\n        /* \"contracts/RPS-front.sol\":1366:1411  GameCreated(gameIdCounter, msg.sender, wager) */\n      mload(0x40)\n      tag_69\n      swap2\n      swap1\n      tag_16\n      jump\t// in\n    tag_69:\n      mload(0x40)\n      dup1\n      swap2\n      sub\n      swap1\n      log3\n        /* \"contracts/RPS-front.sol\":1421:1434  gameIdCounter */\n      0x01\n      0x00\n        /* \"contracts/RPS-front.sol\":1421:1436  gameIdCounter++ */\n      dup2\n      sload\n      dup1\n      swap3\n      swap2\n      swap1\n      tag_70\n      swap1\n      tag_71\n      jump\t// in\n    tag_70:\n      swap2\n      swap1\n      pop\n      sstore\n      pop\n        /* \"contracts/RPS-front.sol\":950:1443  function createGame(uint256 wager) external payable {... */\n      pop\n      jump\t// out\n        /* \"contracts/RPS-front.sol\":2151:2928  function play(uint256 gameId, Move move) external {... */\n    tag_42:\n        /* \"contracts/RPS-front.sol\":2211:2228  Game storage game */\n      0x00\n        /* \"contracts/RPS-front.sol\":2231:2236  games */\n      dup1\n        /* \"contracts/RPS-front.sol\":2231:2244  games[gameId] */\n      0x00\n        /* \"contracts/RPS-front.sol\":2237:2243  gameId */\n      dup5\n        /* \"contracts/RPS-front.sol\":2231:2244  games[gameId] */\n      dup2\n      mstore\n      0x20\n      add\n      swap1\n      dup2\n      mstore\n      0x20\n      add\n      0x00\n      keccak256\n        /* \"contracts/RPS-front.sol\":2211:2244  Game storage game = games[gameId] */\n      swap1\n      pop\n        /* \"contracts/RPS-front.sol\":2270:2279  Move.None */\n      0x00\n        /* \"contracts/RPS-front.sol\":2262:2279  move != Move.None */\n      0x03\n      dup2\n      gt\n      iszero\n      tag_73\n      jumpi\n      tag_74\n      tag_57\n      jump\t// in\n    tag_74:\n    tag_73:\n        /* \"contracts/RPS-front.sol\":2262:2266  move */\n      dup3\n        /* \"contracts/RPS-front.sol\":2262:2279  move != Move.None */\n      0x03\n      dup2\n      gt\n      iszero\n      tag_75\n      jumpi\n      tag_76\n      tag_57\n      jump\t// in\n    tag_76:\n    tag_75:\n      sub\n        /* \"contracts/RPS-front.sol\":2254:2296  require(move != Move.None, \"Invalid move\") */\n      tag_77\n      jumpi\n      mload(0x40)\n      0x08c379a000000000000000000000000000000000000000000000000000000000\n      dup2\n      mstore\n      0x04\n      add\n      tag_78\n      swap1\n      tag_79\n      jump\t// in\n    tag_78:\n      mload(0x40)\n      dup1\n      swap2\n      sub\n      swap1\n      revert\n    tag_77:\n        /* \"contracts/RPS-front.sol\":2328:2332  game */\n      dup1\n        /* \"contracts/RPS-front.sol\":2328:2340  game.player1 */\n      0x00\n      add\n      0x00\n      swap1\n      sload\n      swap1\n      0x0100\n      exp\n      swap1\n      div\n      0xffffffffffffffffffffffffffffffffffffffff\n      and\n        /* \"contracts/RPS-front.sol\":2314:2340  msg.sender == game.player1 */\n      0xffffffffffffffffffffffffffffffffffffffff\n      and\n        /* \"contracts/RPS-front.sol\":2314:2324  msg.sender */\n      caller\n        /* \"contracts/RPS-front.sol\":2314:2340  msg.sender == game.player1 */\n      0xffffffffffffffffffffffffffffffffffffffff\n      and\n      eq\n        /* \"contracts/RPS-front.sol\":2314:2370  msg.sender == game.player1 || msg.sender == game.player2 */\n      dup1\n      tag_80\n      jumpi\n      pop\n        /* \"contracts/RPS-front.sol\":2358:2362  game */\n      dup1\n        /* \"contracts/RPS-front.sol\":2358:2370  game.player2 */\n      0x01\n      add\n      0x00\n      swap1\n      sload\n      swap1\n      0x0100\n      exp\n      swap1\n      div\n      0xffffffffffffffffffffffffffffffffffffffff\n      and\n        /* \"contracts/RPS-front.sol\":2344:2370  msg.sender == game.player2 */\n      0xffffffffffffffffffffffffffffffffffffffff\n      and\n        /* \"contracts/RPS-front.sol\":2344:2354  msg.sender */\n      caller\n        /* \"contracts/RPS-front.sol\":2344:2370  msg.sender == game.player2 */\n      0xffffffffffffffffffffffffffffffffffffffff\n      and\n      eq\n        /* \"contracts/RPS-front.sol\":2314:2370  msg.sender == game.player1 || msg.sender == game.player2 */\n    tag_80:\n        /* \"contracts/RPS-front.sol\":2306:2400  require(msg.sender == game.player1 || msg.sender == game.player2, \"Not a player in this game\") */\n      tag_81\n      jumpi\n      mload(0x40)\n      0x08c379a000000000000000000000000000000000000000000000000000000000\n      dup2\n      mstore\n      0x04\n      add\n      tag_82\n      swap1\n      tag_83\n      jump\t// in\n    tag_82:\n      mload(0x40)\n      dup1\n      swap2\n      sub\n      swap1\n      revert\n    tag_81:\n        /* \"contracts/RPS-front.sol\":2429:2433  game */\n      dup1\n        /* \"contracts/RPS-front.sol\":2429:2441  game.player1 */\n      0x00\n      add\n      0x00\n      swap1\n      sload\n      swap1\n      0x0100\n      exp\n      swap1\n      div\n      0xffffffffffffffffffffffffffffffffffffffff\n      and\n        /* \"contracts/RPS-front.sol\":2415:2441  msg.sender == game.player1 */\n      0xffffffffffffffffffffffffffffffffffffffff\n      and\n        /* \"contracts/RPS-front.sol\":2415:2425  msg.sender */\n      caller\n        /* \"contracts/RPS-front.sol\":2415:2441  msg.sender == game.player1 */\n      0xffffffffffffffffffffffffffffffffffffffff\n      and\n      sub\n        /* \"contracts/RPS-front.sol\":2411:2689  if (msg.sender == game.player1) {... */\n      tag_84\n      jumpi\n        /* \"contracts/RPS-front.sol\":2479:2488  Move.None */\n      0x00\n        /* \"contracts/RPS-front.sol\":2465:2488  game.move1 == Move.None */\n      0x03\n      dup2\n      gt\n      iszero\n      tag_85\n      jumpi\n      tag_86\n      tag_57\n      jump\t// in\n    tag_86:\n    tag_85:\n        /* \"contracts/RPS-front.sol\":2465:2469  game */\n      dup2\n        /* \"contracts/RPS-front.sol\":2465:2475  game.move1 */\n      0x01\n      add\n      0x14\n      swap1\n      sload\n      swap1\n      0x0100\n      exp\n      swap1\n      div\n      0xff\n      and\n        /* \"contracts/RPS-front.sol\":2465:2488  game.move1 == Move.None */\n      0x03\n      dup2\n      gt\n      iszero\n      tag_87\n      jumpi\n      tag_88\n      tag_57\n      jump\t// in\n    tag_88:\n    tag_87:\n      eq\n        /* \"contracts/RPS-front.sol\":2457:2521  require(game.move1 == Move.None, \"Player 1 already made a move\") */\n      tag_89\n      jumpi\n      mload(0x40)\n      0x08c379a000000000000000000000000000000000000000000000000000000000\n      dup2\n      mstore\n      0x04\n      add\n      tag_90\n      swap1\n      tag_91\n      jump\t// in\n    tag_90:\n      mload(0x40)\n      dup1\n      swap2\n      sub\n      swap1\n      revert\n    tag_89:\n        /* \"contracts/RPS-front.sol\":2548:2552  move */\n      dup2\n        /* \"contracts/RPS-front.sol\":2535:2539  game */\n      dup2\n        /* \"contracts/RPS-front.sol\":2535:2545  game.move1 */\n      0x01\n      add\n      0x14\n        /* \"contracts/RPS-front.sol\":2535:2552  game.move1 = move */\n      0x0100\n      exp\n      dup2\n      sload\n      dup2\n      0xff\n      mul\n      not\n      and\n      swap1\n      dup4\n      0x03\n      dup2\n      gt\n      iszero\n      tag_92\n      jumpi\n      tag_93\n      tag_57\n      jump\t// in\n    tag_93:\n    tag_92:\n      mul\n      or\n      swap1\n      sstore\n      pop\n        /* \"contracts/RPS-front.sol\":2411:2689  if (msg.sender == game.player1) {... */\n      jump(tag_94)\n    tag_84:\n        /* \"contracts/RPS-front.sol\":2605:2614  Move.None */\n      0x00\n        /* \"contracts/RPS-front.sol\":2591:2614  game.move2 == Move.None */\n      0x03\n      dup2\n      gt\n      iszero\n      tag_95\n      jumpi\n      tag_96\n      tag_57\n      jump\t// in\n    tag_96:\n    tag_95:\n        /* \"contracts/RPS-front.sol\":2591:2595  game */\n      dup2\n        /* \"contracts/RPS-front.sol\":2591:2601  game.move2 */\n      0x01\n      add\n      0x15\n      swap1\n      sload\n      swap1\n      0x0100\n      exp\n      swap1\n      div\n      0xff\n      and\n        /* \"contracts/RPS-front.sol\":2591:2614  game.move2 == Move.None */\n      0x03\n      dup2\n      gt\n      iszero\n      tag_97\n      jumpi\n      tag_98\n      tag_57\n      jump\t// in\n    tag_98:\n    tag_97:\n      eq\n        /* \"contracts/RPS-front.sol\":2583:2647  require(game.move2 == Move.None, \"Player 2 already made a move\") */\n      tag_99\n      jumpi\n      mload(0x40)\n      0x08c379a000000000000000000000000000000000000000000000000000000000\n      dup2\n      mstore\n      0x04\n      add\n      tag_100\n      swap1\n      tag_101\n      jump\t// in\n    tag_100:\n      mload(0x40)\n      dup1\n      swap2\n      sub\n      swap1\n      revert\n    tag_99:\n        /* \"contracts/RPS-front.sol\":2674:2678  move */\n      dup2\n        /* \"contracts/RPS-front.sol\":2661:2665  game */\n      dup2\n        /* \"contracts/RPS-front.sol\":2661:2671  game.move2 */\n      0x01\n      add\n      0x15\n        /* \"contracts/RPS-front.sol\":2661:2678  game.move2 = move */\n      0x0100\n      exp\n      dup2\n      sload\n      dup2\n      0xff\n      mul\n      not\n      and\n      swap1\n      dup4\n      0x03\n      dup2\n      gt\n      iszero\n      tag_102\n      jumpi\n      tag_103\n      tag_57\n      jump\t// in\n    tag_103:\n    tag_102:\n      mul\n      or\n      swap1\n      sstore\n      pop\n        /* \"contracts/RPS-front.sol\":2411:2689  if (msg.sender == game.player1) {... */\n    tag_94:\n        /* \"contracts/RPS-front.sol\":2723:2733  msg.sender */\n      caller\n        /* \"contracts/RPS-front.sol\":2704:2740  GamePlayed(gameId, msg.sender, move) */\n      0xffffffffffffffffffffffffffffffffffffffff\n      and\n        /* \"contracts/RPS-front.sol\":2715:2721  gameId */\n      dup4\n        /* \"contracts/RPS-front.sol\":2704:2740  GamePlayed(gameId, msg.sender, move) */\n      0xa6e7005509cadc41086129610194d39ff0b053ed97e916ca2c33fae378ef83bb\n        /* \"contracts/RPS-front.sol\":2735:2739  move */\n      dup5\n        /* \"contracts/RPS-front.sol\":2704:2740  GamePlayed(gameId, msg.sender, move) */\n      mload(0x40)\n      tag_104\n      swap2\n      swap1\n      tag_105\n      jump\t// in\n    tag_104:\n      mload(0x40)\n      dup1\n      swap2\n      sub\n      swap1\n      log3\n        /* \"contracts/RPS-front.sol\":2840:2849  Move.None */\n      0x00\n        /* \"contracts/RPS-front.sol\":2826:2849  game.move1 != Move.None */\n      0x03\n      dup2\n      gt\n      iszero\n      tag_106\n      jumpi\n      tag_107\n      tag_57\n      jump\t// in\n    tag_107:\n    tag_106:\n        /* \"contracts/RPS-front.sol\":2826:2830  game */\n      dup2\n        /* \"contracts/RPS-front.sol\":2826:2836  game.move1 */\n      0x01\n      add\n      0x14\n      swap1\n      sload\n      swap1\n      0x0100\n      exp\n      swap1\n      div\n      0xff\n      and\n        /* \"contracts/RPS-front.sol\":2826:2849  game.move1 != Move.None */\n      0x03\n      dup2\n      gt\n      iszero\n      tag_108\n      jumpi\n      tag_109\n      tag_57\n      jump\t// in\n    tag_109:\n    tag_108:\n      eq\n      iszero\n        /* \"contracts/RPS-front.sol\":2826:2876  game.move1 != Move.None && game.move2 != Move.None */\n      dup1\n      iszero\n      tag_110\n      jumpi\n      pop\n        /* \"contracts/RPS-front.sol\":2867:2876  Move.None */\n      0x00\n        /* \"contracts/RPS-front.sol\":2853:2876  game.move2 != Move.None */\n      0x03\n      dup2\n      gt\n      iszero\n      tag_111\n      jumpi\n      tag_112\n      tag_57\n      jump\t// in\n    tag_112:\n    tag_111:\n        /* \"contracts/RPS-front.sol\":2853:2857  game */\n      dup2\n        /* \"contracts/RPS-front.sol\":2853:2863  game.move2 */\n      0x01\n      add\n      0x15\n      swap1\n      sload\n      swap1\n      0x0100\n      exp\n      swap1\n      div\n      0xff\n      and\n        /* \"contracts/RPS-front.sol\":2853:2876  game.move2 != Move.None */\n      0x03\n      dup2\n      gt\n      iszero\n      tag_113\n      jumpi\n      tag_114\n      tag_57\n      jump\t// in\n    tag_114:\n    tag_113:\n      eq\n      iszero\n        /* \"contracts/RPS-front.sol\":2826:2876  game.move1 != Move.None && game.move2 != Move.None */\n    tag_110:\n        /* \"contracts/RPS-front.sol\":2822:2922  if (game.move1 != Move.None && game.move2 != Move.None) {... */\n      iszero\n      tag_115\n      jumpi\n        /* \"contracts/RPS-front.sol\":2892:2911  resolveGame(gameId) */\n      tag_116\n        /* \"contracts/RPS-front.sol\":2904:2910  gameId */\n      dup4\n        /* \"contracts/RPS-front.sol\":2892:2903  resolveGame */\n      tag_117\n        /* \"contracts/RPS-front.sol\":2892:2911  resolveGame(gameId) */\n      jump\t// in\n    tag_116:\n        /* \"contracts/RPS-front.sol\":2822:2922  if (game.move1 != Move.None && game.move2 != Move.None) {... */\n    tag_115:\n        /* \"contracts/RPS-front.sol\":2201:2928  {... */\n      pop\n        /* \"contracts/RPS-front.sol\":2151:2928  function play(uint256 gameId, Move move) external {... */\n      pop\n      pop\n      jump\t// out\n        /* \"contracts/RPS-front.sol\":1595:1990  function joinGame(uint256 gameId) external payable {... */\n    tag_45:\n        /* \"contracts/RPS-front.sol\":1656:1673  Game storage game */\n      0x00\n        /* \"contracts/RPS-front.sol\":1676:1681  games */\n      dup1\n        /* \"contracts/RPS-front.sol\":1676:1689  games[gameId] */\n      0x00\n        /* \"contracts/RPS-front.sol\":1682:1688  gameId */\n      dup4\n        /* \"contracts/RPS-front.sol\":1676:1689  games[gameId] */\n      dup2\n      mstore\n      0x20\n      add\n      swap1\n      dup2\n      mstore\n      0x20\n      add\n      0x00\n      keccak256\n        /* \"contracts/RPS-front.sol\":1656:1689  Game storage game = games[gameId] */\n      swap1\n      pop\n        /* \"contracts/RPS-front.sol\":1731:1732  0 */\n      0x00\n        /* \"contracts/RPS-front.sol\":1707:1733  game.player1 != address(0) */\n      0xffffffffffffffffffffffffffffffffffffffff\n      and\n        /* \"contracts/RPS-front.sol\":1707:1711  game */\n      dup2\n        /* \"contracts/RPS-front.sol\":1707:1719  game.player1 */\n      0x00\n      add\n      0x00\n      swap1\n      sload\n      swap1\n      0x0100\n      exp\n      swap1\n      div\n      0xffffffffffffffffffffffffffffffffffffffff\n      and\n        /* \"contracts/RPS-front.sol\":1707:1733  game.player1 != address(0) */\n      0xffffffffffffffffffffffffffffffffffffffff\n      and\n      sub\n        /* \"contracts/RPS-front.sol\":1699:1757  require(game.player1 != address(0), \"Game does not exist\") */\n      tag_119\n      jumpi\n      mload(0x40)\n      0x08c379a000000000000000000000000000000000000000000000000000000000\n      dup2\n      mstore\n      0x04\n      add\n      tag_120\n      swap1\n      tag_121\n      jump\t// in\n    tag_120:\n      mload(0x40)\n      dup1\n      swap2\n      sub\n      swap1\n      revert\n    tag_119:\n        /* \"contracts/RPS-front.sol\":1799:1800  0 */\n      0x00\n        /* \"contracts/RPS-front.sol\":1775:1801  game.player2 == address(0) */\n      0xffffffffffffffffffffffffffffffffffffffff\n      and\n        /* \"contracts/RPS-front.sol\":1775:1779  game */\n      dup2\n        /* \"contracts/RPS-front.sol\":1775:1787  game.player2 */\n      0x01\n      add\n      0x00\n      swap1\n      sload\n      swap1\n      0x0100\n      exp\n      swap1\n      div\n      0xffffffffffffffffffffffffffffffffffffffff\n      and\n        /* \"contracts/RPS-front.sol\":1775:1801  game.player2 == address(0) */\n      0xffffffffffffffffffffffffffffffffffffffff\n      and\n      eq\n        /* \"contracts/RPS-front.sol\":1767:1834  require(game.player2 == address(0), \"Game already has two players\") */\n      tag_122\n      jumpi\n      mload(0x40)\n      0x08c379a000000000000000000000000000000000000000000000000000000000\n      dup2\n      mstore\n      0x04\n      add\n      tag_123\n      swap1\n      tag_124\n      jump\t// in\n    tag_123:\n      mload(0x40)\n      dup1\n      swap2\n      sub\n      swap1\n      revert\n    tag_122:\n        /* \"contracts/RPS-front.sol\":1865:1869  game */\n      dup1\n        /* \"contracts/RPS-front.sol\":1865:1875  game.wager */\n      0x02\n      add\n      sload\n        /* \"contracts/RPS-front.sol\":1852:1861  msg.value */\n      callvalue\n        /* \"contracts/RPS-front.sol\":1852:1875  msg.value == game.wager */\n      eq\n        /* \"contracts/RPS-front.sol\":1844:1901  require(msg.value == game.wager, \"Wager amount mismatch\") */\n      tag_125\n      jumpi\n      mload(0x40)\n      0x08c379a000000000000000000000000000000000000000000000000000000000\n      dup2\n      mstore\n      0x04\n      add\n      tag_126\n      swap1\n      tag_54\n      jump\t// in\n    tag_126:\n      mload(0x40)\n      dup1\n      swap2\n      sub\n      swap1\n      revert\n    tag_125:\n        /* \"contracts/RPS-front.sol\":1927:1937  msg.sender */\n      caller\n        /* \"contracts/RPS-front.sol\":1912:1916  game */\n      dup2\n        /* \"contracts/RPS-front.sol\":1912:1924  game.player2 */\n      0x01\n      add\n      0x00\n        /* \"contracts/RPS-front.sol\":1912:1937  game.player2 = msg.sender */\n      0x0100\n      exp\n      dup2\n      sload\n      dup2\n      0xffffffffffffffffffffffffffffffffffffffff\n      mul\n      not\n      and\n      swap1\n      dup4\n      0xffffffffffffffffffffffffffffffffffffffff\n      and\n      mul\n      or\n      swap1\n      sstore\n      pop\n        /* \"contracts/RPS-front.sol\":1947:1958  playerGames */\n      0x02\n        /* \"contracts/RPS-front.sol\":1947:1970  playerGames[msg.sender] */\n      0x00\n        /* \"contracts/RPS-front.sol\":1959:1969  msg.sender */\n      caller\n        /* \"contracts/RPS-front.sol\":1947:1970  playerGames[msg.sender] */\n      0xffffffffffffffffffffffffffffffffffffffff\n      and\n      0xffffffffffffffffffffffffffffffffffffffff\n      and\n      dup2\n      mstore\n      0x20\n      add\n      swap1\n      dup2\n      mstore\n      0x20\n      add\n      0x00\n      keccak256\n        /* \"contracts/RPS-front.sol\":1976:1982  gameId */\n      dup3\n        /* \"contracts/RPS-front.sol\":1947:1983  playerGames[msg.sender].push(gameId) */\n      swap1\n      dup1\n      0x01\n      dup2\n      sload\n      add\n      dup1\n      dup3\n      sstore\n      dup1\n      swap2\n      pop\n      pop\n      0x01\n      swap1\n      sub\n      swap1\n      0x00\n      mstore\n      keccak256(0x00, 0x20)\n      add\n      0x00\n      swap1\n      swap2\n      swap1\n      swap2\n      swap1\n      swap2\n      pop\n      sstore\n        /* \"contracts/RPS-front.sol\":1646:1990  {... */\n      pop\n        /* \"contracts/RPS-front.sol\":1595:1990  function joinGame(uint256 gameId) external payable {... */\n      pop\n      jump\t// out\n        /* \"contracts/RPS-front.sol\":3069:3885  function resolveGame(uint256 gameId) internal {... */\n    tag_117:\n        /* \"contracts/RPS-front.sol\":3125:3142  Game storage game */\n      0x00\n        /* \"contracts/RPS-front.sol\":3145:3150  games */\n      dup1\n        /* \"contracts/RPS-front.sol\":3145:3158  games[gameId] */\n      0x00\n        /* \"contracts/RPS-front.sol\":3151:3157  gameId */\n      dup4\n        /* \"contracts/RPS-front.sol\":3145:3158  games[gameId] */\n      dup2\n      mstore\n      0x20\n      add\n      swap1\n      dup2\n      mstore\n      0x20\n      add\n      0x00\n      keccak256\n        /* \"contracts/RPS-front.sol\":3125:3158  Game storage game = games[gameId] */\n      swap1\n      pop\n        /* \"contracts/RPS-front.sol\":3186:3190  game */\n      dup1\n        /* \"contracts/RPS-front.sol\":3186:3196  game.move2 */\n      0x01\n      add\n      0x15\n      swap1\n      sload\n      swap1\n      0x0100\n      exp\n      swap1\n      div\n      0xff\n      and\n        /* \"contracts/RPS-front.sol\":3172:3196  game.move1 == game.move2 */\n      0x03\n      dup2\n      gt\n      iszero\n      tag_129\n      jumpi\n      tag_130\n      tag_57\n      jump\t// in\n    tag_130:\n    tag_129:\n        /* \"contracts/RPS-front.sol\":3172:3176  game */\n      dup2\n        /* \"contracts/RPS-front.sol\":3172:3182  game.move1 */\n      0x01\n      add\n      0x14\n      swap1\n      sload\n      swap1\n      0x0100\n      exp\n      swap1\n      div\n      0xff\n      and\n        /* \"contracts/RPS-front.sol\":3172:3196  game.move1 == game.move2 */\n      0x03\n      dup2\n      gt\n      iszero\n      tag_131\n      jumpi\n      tag_132\n      tag_57\n      jump\t// in\n    tag_132:\n    tag_131:\n      sub\n        /* \"contracts/RPS-front.sol\":3168:3832  if (game.move1 == game.move2) {... */\n      tag_133\n      jumpi\n        /* \"contracts/RPS-front.sol\":3226:3237  Result.Draw */\n      0x03\n        /* \"contracts/RPS-front.sol\":3212:3216  game */\n      dup2\n        /* \"contracts/RPS-front.sol\":3212:3223  game.result */\n      0x03\n      add\n      0x00\n        /* \"contracts/RPS-front.sol\":3212:3237  game.result = Result.Draw */\n      0x0100\n      exp\n      dup2\n      sload\n      dup2\n      0xff\n      mul\n      not\n      and\n      swap1\n      dup4\n      0x03\n      dup2\n      gt\n      iszero\n      tag_134\n      jumpi\n      tag_135\n      tag_57\n      jump\t// in\n    tag_135:\n    tag_134:\n      mul\n      or\n      swap1\n      sstore\n      pop\n        /* \"contracts/RPS-front.sol\":3259:3263  game */\n      dup1\n        /* \"contracts/RPS-front.sol\":3259:3271  game.player1 */\n      0x00\n      add\n      0x00\n      swap1\n      sload\n      swap1\n      0x0100\n      exp\n      swap1\n      div\n      0xffffffffffffffffffffffffffffffffffffffff\n      and\n        /* \"contracts/RPS-front.sol\":3251:3281  payable(game.player1).transfer */\n      0xffffffffffffffffffffffffffffffffffffffff\n      and\n        /* \"contracts/RPS-front.sol\":3251:3293  payable(game.player1).transfer(game.wager) */\n      0x08fc\n        /* \"contracts/RPS-front.sol\":3282:3286  game */\n      dup3\n        /* \"contracts/RPS-front.sol\":3282:3292  game.wager */\n      0x02\n      add\n      sload\n        /* \"contracts/RPS-front.sol\":3251:3293  payable(game.player1).transfer(game.wager) */\n      swap1\n      dup2\n      iszero\n      mul\n      swap1\n      mload(0x40)\n      0x00\n      mload(0x40)\n      dup1\n      dup4\n      sub\n      dup2\n      dup6\n      dup9\n      dup9\n      call\n      swap4\n      pop\n      pop\n      pop\n      pop\n      iszero\n      dup1\n      iszero\n      tag_137\n      jumpi\n      returndatasize\n      0x00\n      dup1\n      returndatacopy\n      revert(0x00, returndatasize)\n    tag_137:\n      pop\n        /* \"contracts/RPS-front.sol\":3315:3319  game */\n      dup1\n        /* \"contracts/RPS-front.sol\":3315:3327  game.player2 */\n      0x01\n      add\n      0x00\n      swap1\n      sload\n      swap1\n      0x0100\n      exp\n      swap1\n      div\n      0xffffffffffffffffffffffffffffffffffffffff\n      and\n        /* \"contracts/RPS-front.sol\":3307:3337  payable(game.player2).transfer */\n      0xffffffffffffffffffffffffffffffffffffffff\n      and\n        /* \"contracts/RPS-front.sol\":3307:3349  payable(game.player2).transfer(game.wager) */\n      0x08fc\n        /* \"contracts/RPS-front.sol\":3338:3342  game */\n      dup3\n        /* \"contracts/RPS-front.sol\":3338:3348  game.wager */\n      0x02\n      add\n      sload\n        /* \"contracts/RPS-front.sol\":3307:3349  payable(game.player2).transfer(game.wager) */\n      swap1\n      dup2\n      iszero\n      mul\n      swap1\n      mload(0x40)\n      0x00\n      mload(0x40)\n      dup1\n      dup4\n      sub\n      dup2\n      dup6\n      dup9\n      dup9\n      call\n      swap4\n      pop\n      pop\n      pop\n      pop\n      iszero\n      dup1\n      iszero\n      tag_139\n      jumpi\n      returndatasize\n      0x00\n      dup1\n      returndatacopy\n      revert(0x00, returndatasize)\n    tag_139:\n      pop\n        /* \"contracts/RPS-front.sol\":3168:3832  if (game.move1 == game.move2) {... */\n      jump(tag_140)\n    tag_133:\n        /* \"contracts/RPS-front.sol\":3398:3407  Move.Rock */\n      0x01\n        /* \"contracts/RPS-front.sol\":3384:3407  game.move1 == Move.Rock */\n      0x03\n      dup2\n      gt\n      iszero\n      tag_141\n      jumpi\n      tag_142\n      tag_57\n      jump\t// in\n    tag_142:\n    tag_141:\n        /* \"contracts/RPS-front.sol\":3384:3388  game */\n      dup2\n        /* \"contracts/RPS-front.sol\":3384:3394  game.move1 */\n      0x01\n      add\n      0x14\n      swap1\n      sload\n      swap1\n      0x0100\n      exp\n      swap1\n      div\n      0xff\n      and\n        /* \"contracts/RPS-front.sol\":3384:3407  game.move1 == Move.Rock */\n      0x03\n      dup2\n      gt\n      iszero\n      tag_143\n      jumpi\n      tag_144\n      tag_57\n      jump\t// in\n    tag_144:\n    tag_143:\n      eq\n        /* \"contracts/RPS-front.sol\":3384:3438  game.move1 == Move.Rock && game.move2 == Move.Scissors */\n      dup1\n      iszero\n      tag_145\n      jumpi\n      pop\n        /* \"contracts/RPS-front.sol\":3425:3438  Move.Scissors */\n      0x03\n        /* \"contracts/RPS-front.sol\":3411:3438  game.move2 == Move.Scissors */\n      dup1\n      dup2\n      gt\n      iszero\n      tag_146\n      jumpi\n      tag_147\n      tag_57\n      jump\t// in\n    tag_147:\n    tag_146:\n        /* \"contracts/RPS-front.sol\":3411:3415  game */\n      dup2\n        /* \"contracts/RPS-front.sol\":3411:3421  game.move2 */\n      0x01\n      add\n      0x15\n      swap1\n      sload\n      swap1\n      0x0100\n      exp\n      swap1\n      div\n      0xff\n      and\n        /* \"contracts/RPS-front.sol\":3411:3438  game.move2 == Move.Scissors */\n      0x03\n      dup2\n      gt\n      iszero\n      tag_148\n      jumpi\n      tag_149\n      tag_57\n      jump\t// in\n    tag_149:\n    tag_148:\n      eq\n        /* \"contracts/RPS-front.sol\":3384:3438  game.move1 == Move.Rock && game.move2 == Move.Scissors */\n    tag_145:\n        /* \"contracts/RPS-front.sol\":3383:3508  (game.move1 == Move.Rock && game.move2 == Move.Scissors) ||... */\n      dup1\n      tag_150\n      jumpi\n      pop\n        /* \"contracts/RPS-front.sol\":3470:3480  Move.Paper */\n      0x02\n        /* \"contracts/RPS-front.sol\":3456:3480  game.move1 == Move.Paper */\n      0x03\n      dup2\n      gt\n      iszero\n      tag_151\n      jumpi\n      tag_152\n      tag_57\n      jump\t// in\n    tag_152:\n    tag_151:\n        /* \"contracts/RPS-front.sol\":3456:3460  game */\n      dup2\n        /* \"contracts/RPS-front.sol\":3456:3466  game.move1 */\n      0x01\n      add\n      0x14\n      swap1\n      sload\n      swap1\n      0x0100\n      exp\n      swap1\n      div\n      0xff\n      and\n        /* \"contracts/RPS-front.sol\":3456:3480  game.move1 == Move.Paper */\n      0x03\n      dup2\n      gt\n      iszero\n      tag_153\n      jumpi\n      tag_154\n      tag_57\n      jump\t// in\n    tag_154:\n    tag_153:\n      eq\n        /* \"contracts/RPS-front.sol\":3456:3507  game.move1 == Move.Paper && game.move2 == Move.Rock */\n      dup1\n      iszero\n      tag_155\n      jumpi\n      pop\n        /* \"contracts/RPS-front.sol\":3498:3507  Move.Rock */\n      0x01\n        /* \"contracts/RPS-front.sol\":3484:3507  game.move2 == Move.Rock */\n      0x03\n      dup2\n      gt\n      iszero\n      tag_156\n      jumpi\n      tag_157\n      tag_57\n      jump\t// in\n    tag_157:\n    tag_156:\n        /* \"contracts/RPS-front.sol\":3484:3488  game */\n      dup2\n        /* \"contracts/RPS-front.sol\":3484:3494  game.move2 */\n      0x01\n      add\n      0x15\n      swap1\n      sload\n      swap1\n      0x0100\n      exp\n      swap1\n      div\n      0xff\n      and\n        /* \"contracts/RPS-front.sol\":3484:3507  game.move2 == Move.Rock */\n      0x03\n      dup2\n      gt\n      iszero\n      tag_158\n      jumpi\n      tag_159\n      tag_57\n      jump\t// in\n    tag_159:\n    tag_158:\n      eq\n        /* \"contracts/RPS-front.sol\":3456:3507  game.move1 == Move.Paper && game.move2 == Move.Rock */\n    tag_155:\n        /* \"contracts/RPS-front.sol\":3383:3508  (game.move1 == Move.Rock && game.move2 == Move.Scissors) ||... */\n    tag_150:\n        /* \"contracts/RPS-front.sol\":3383:3581  (game.move1 == Move.Rock && game.move2 == Move.Scissors) ||... */\n      dup1\n      tag_160\n      jumpi\n      pop\n        /* \"contracts/RPS-front.sol\":3539:3552  Move.Scissors */\n      0x03\n        /* \"contracts/RPS-front.sol\":3525:3552  game.move1 == Move.Scissors */\n      dup1\n      dup2\n      gt\n      iszero\n      tag_161\n      jumpi\n      tag_162\n      tag_57\n      jump\t// in\n    tag_162:\n    tag_161:\n        /* \"contracts/RPS-front.sol\":3525:3529  game */\n      dup2\n        /* \"contracts/RPS-front.sol\":3525:3535  game.move1 */\n      0x01\n      add\n      0x14\n      swap1\n      sload\n      swap1\n      0x0100\n      exp\n      swap1\n      div\n      0xff\n      and\n        /* \"contracts/RPS-front.sol\":3525:3552  game.move1 == Move.Scissors */\n      0x03\n      dup2\n      gt\n      iszero\n      tag_163\n      jumpi\n      tag_164\n      tag_57\n      jump\t// in\n    tag_164:\n    tag_163:\n      eq\n        /* \"contracts/RPS-front.sol\":3525:3580  game.move1 == Move.Scissors && game.move2 == Move.Paper */\n      dup1\n      iszero\n      tag_165\n      jumpi\n      pop\n        /* \"contracts/RPS-front.sol\":3570:3580  Move.Paper */\n      0x02\n        /* \"contracts/RPS-front.sol\":3556:3580  game.move2 == Move.Paper */\n      0x03\n      dup2\n      gt\n      iszero\n      tag_166\n      jumpi\n      tag_167\n      tag_57\n      jump\t// in\n    tag_167:\n    tag_166:\n        /* \"contracts/RPS-front.sol\":3556:3560  game */\n      dup2\n        /* \"contracts/RPS-front.sol\":3556:3566  game.move2 */\n      0x01\n      add\n      0x15\n      swap1\n      sload\n      swap1\n      0x0100\n      exp\n      swap1\n      div\n      0xff\n      and\n        /* \"contracts/RPS-front.sol\":3556:3580  game.move2 == Move.Paper */\n      0x03\n      dup2\n      gt\n      iszero\n      tag_168\n      jumpi\n      tag_169\n      tag_57\n      jump\t// in\n    tag_169:\n    tag_168:\n      eq\n        /* \"contracts/RPS-front.sol\":3525:3580  game.move1 == Move.Scissors && game.move2 == Move.Paper */\n    tag_165:\n        /* \"contracts/RPS-front.sol\":3383:3581  (game.move1 == Move.Rock && game.move2 == Move.Scissors) ||... */\n    tag_160:\n        /* \"contracts/RPS-front.sol\":3366:3832  if (... */\n      iszero\n      tag_170\n      jumpi\n        /* \"contracts/RPS-front.sol\":3620:3638  Result.Player1Wins */\n      0x01\n        /* \"contracts/RPS-front.sol\":3606:3610  game */\n      dup2\n        /* \"contracts/RPS-front.sol\":3606:3617  game.result */\n      0x03\n      add\n      0x00\n        /* \"contracts/RPS-front.sol\":3606:3638  game.result = Result.Player1Wins */\n      0x0100\n      exp\n      dup2\n      sload\n      dup2\n      0xff\n      mul\n      not\n      and\n      swap1\n      dup4\n      0x03\n      dup2\n      gt\n      iszero\n      tag_171\n      jumpi\n      tag_172\n      tag_57\n      jump\t// in\n    tag_172:\n    tag_171:\n      mul\n      or\n      swap1\n      sstore\n      pop\n        /* \"contracts/RPS-front.sol\":3660:3664  game */\n      dup1\n        /* \"contracts/RPS-front.sol\":3660:3672  game.player1 */\n      0x00\n      add\n      0x00\n      swap1\n      sload\n      swap1\n      0x0100\n      exp\n      swap1\n      div\n      0xffffffffffffffffffffffffffffffffffffffff\n      and\n        /* \"contracts/RPS-front.sol\":3652:3682  payable(game.player1).transfer */\n      0xffffffffffffffffffffffffffffffffffffffff\n      and\n        /* \"contracts/RPS-front.sol\":3652:3698  payable(game.player1).transfer(game.wager * 2) */\n      0x08fc\n        /* \"contracts/RPS-front.sol\":3696:3697  2 */\n      0x02\n        /* \"contracts/RPS-front.sol\":3683:3687  game */\n      dup4\n        /* \"contracts/RPS-front.sol\":3683:3693  game.wager */\n      0x02\n      add\n      sload\n        /* \"contracts/RPS-front.sol\":3683:3697  game.wager * 2 */\n      tag_173\n      swap2\n      swap1\n      tag_174\n      jump\t// in\n    tag_173:\n        /* \"contracts/RPS-front.sol\":3652:3698  payable(game.player1).transfer(game.wager * 2) */\n      swap1\n      dup2\n      iszero\n      mul\n      swap1\n      mload(0x40)\n      0x00\n      mload(0x40)\n      dup1\n      dup4\n      sub\n      dup2\n      dup6\n      dup9\n      dup9\n      call\n      swap4\n      pop\n      pop\n      pop\n      pop\n      iszero\n      dup1\n      iszero\n      tag_176\n      jumpi\n      returndatasize\n      0x00\n      dup1\n      returndatacopy\n      revert(0x00, returndatasize)\n    tag_176:\n      pop\n        /* \"contracts/RPS-front.sol\":3366:3832  if (... */\n      jump(tag_177)\n    tag_170:\n        /* \"contracts/RPS-front.sol\":3743:3761  Result.Player2Wins */\n      0x02\n        /* \"contracts/RPS-front.sol\":3729:3733  game */\n      dup2\n        /* \"contracts/RPS-front.sol\":3729:3740  game.result */\n      0x03\n      add\n      0x00\n        /* \"contracts/RPS-front.sol\":3729:3761  game.result = Result.Player2Wins */\n      0x0100\n      exp\n      dup2\n      sload\n      dup2\n      0xff\n      mul\n      not\n      and\n      swap1\n      dup4\n      0x03\n      dup2\n      gt\n      iszero\n      tag_178\n      jumpi\n      tag_179\n      tag_57\n      jump\t// in\n    tag_179:\n    tag_178:\n      mul\n      or\n      swap1\n      sstore\n      pop\n        /* \"contracts/RPS-front.sol\":3783:3787  game */\n      dup1\n        /* \"contracts/RPS-front.sol\":3783:3795  game.player2 */\n      0x01\n      add\n      0x00\n      swap1\n      sload\n      swap1\n      0x0100\n      exp\n      swap1\n      div\n      0xffffffffffffffffffffffffffffffffffffffff\n      and\n        /* \"contracts/RPS-front.sol\":3775:3805  payable(game.player2).transfer */\n      0xffffffffffffffffffffffffffffffffffffffff\n      and\n        /* \"contracts/RPS-front.sol\":3775:3821  payable(game.player2).transfer(game.wager * 2) */\n      0x08fc\n        /* \"contracts/RPS-front.sol\":3819:3820  2 */\n      0x02\n        /* \"contracts/RPS-front.sol\":3806:3810  game */\n      dup4\n        /* \"contracts/RPS-front.sol\":3806:3816  game.wager */\n      0x02\n      add\n      sload\n        /* \"contracts/RPS-front.sol\":3806:3820  game.wager * 2 */\n      tag_180\n      swap2\n      swap1\n      tag_174\n      jump\t// in\n    tag_180:\n        /* \"contracts/RPS-front.sol\":3775:3821  payable(game.player2).transfer(game.wager * 2) */\n      swap1\n      dup2\n      iszero\n      mul\n      swap1\n      mload(0x40)\n      0x00\n      mload(0x40)\n      dup1\n      dup4\n      sub\n      dup2\n      dup6\n      dup9\n      dup9\n      call\n      swap4\n      pop\n      pop\n      pop\n      pop\n      iszero\n      dup1\n      iszero\n      tag_182\n      jumpi\n      returndatasize\n      0x00\n      dup1\n      returndatacopy\n      revert(0x00, returndatasize)\n    tag_182:\n      pop\n        /* \"contracts/RPS-front.sol\":3366:3832  if (... */\n    tag_177:\n        /* \"contracts/RPS-front.sol\":3168:3832  if (game.move1 == game.move2) {... */\n    tag_140:\n        /* \"contracts/RPS-front.sol\":3858:3864  gameId */\n      dup2\n        /* \"contracts/RPS-front.sol\":3847:3878  GameResult(gameId, game.result) */\n      0x36b2d7f009047b0bafdd214517cde657f4dc1bc0a293ea0e7ccc0942a7019ee7\n        /* \"contracts/RPS-front.sol\":3866:3870  game */\n      dup3\n        /* \"contracts/RPS-front.sol\":3866:3877  game.result */\n      0x03\n      add\n      0x00\n      swap1\n      sload\n      swap1\n      0x0100\n      exp\n      swap1\n      div\n      0xff\n      and\n        /* \"contracts/RPS-front.sol\":3847:3878  GameResult(gameId, game.result) */\n      mload(0x40)\n      tag_183\n      swap2\n      swap1\n      tag_184\n      jump\t// in\n    tag_183:\n      mload(0x40)\n      dup1\n      swap2\n      sub\n      swap1\n      log2\n        /* \"contracts/RPS-front.sol\":3115:3885  {... */\n      pop\n        /* \"contracts/RPS-front.sol\":3069:3885  function resolveGame(uint256 gameId) internal {... */\n      pop\n      jump\t// out\n        /* \"#utility.yul\":88:205   */\n    tag_186:\n        /* \"#utility.yul\":197:198   */\n      0x00\n        /* \"#utility.yul\":194:195   */\n      dup1\n        /* \"#utility.yul\":187:199   */\n      revert\n        /* \"#utility.yul\":334:460   */\n    tag_188:\n        /* \"#utility.yul\":371:378   */\n      0x00\n        /* \"#utility.yul\":411:453   */\n      0xffffffffffffffffffffffffffffffffffffffff\n        /* \"#utility.yul\":404:409   */\n      dup3\n        /* \"#utility.yul\":400:454   */\n      and\n        /* \"#utility.yul\":389:454   */\n      swap1\n      pop\n        /* \"#utility.yul\":334:460   */\n      swap2\n      swap1\n      pop\n      jump\t// out\n        /* \"#utility.yul\":466:562   */\n    tag_189:\n        /* \"#utility.yul\":503:510   */\n      0x00\n        /* \"#utility.yul\":532:556   */\n      tag_236\n        /* \"#utility.yul\":550:555   */\n      dup3\n        /* \"#utility.yul\":532:556   */\n      tag_188\n      jump\t// in\n    tag_236:\n        /* \"#utility.yul\":521:556   */\n      swap1\n      pop\n        /* \"#utility.yul\":466:562   */\n      swap2\n      swap1\n      pop\n      jump\t// out\n        /* \"#utility.yul\":568:690   */\n    tag_190:\n        /* \"#utility.yul\":641:665   */\n      tag_238\n        /* \"#utility.yul\":659:664   */\n      dup2\n        /* \"#utility.yul\":641:665   */\n      tag_189\n      jump\t// in\n    tag_238:\n        /* \"#utility.yul\":634:639   */\n      dup2\n        /* \"#utility.yul\":631:666   */\n      eq\n        /* \"#utility.yul\":621:684   */\n      tag_239\n      jumpi\n        /* \"#utility.yul\":680:681   */\n      0x00\n        /* \"#utility.yul\":677:678   */\n      dup1\n        /* \"#utility.yul\":670:682   */\n      revert\n        /* \"#utility.yul\":621:684   */\n    tag_239:\n        /* \"#utility.yul\":568:690   */\n      pop\n      jump\t// out\n        /* \"#utility.yul\":696:835   */\n    tag_191:\n        /* \"#utility.yul\":742:747   */\n      0x00\n        /* \"#utility.yul\":780:786   */\n      dup2\n        /* \"#utility.yul\":767:787   */\n      calldataload\n        /* \"#utility.yul\":758:787   */\n      swap1\n      pop\n        /* \"#utility.yul\":796:829   */\n      tag_241\n        /* \"#utility.yul\":823:828   */\n      dup2\n        /* \"#utility.yul\":796:829   */\n      tag_190\n      jump\t// in\n    tag_241:\n        /* \"#utility.yul\":696:835   */\n      swap3\n      swap2\n      pop\n      pop\n      jump\t// out\n        /* \"#utility.yul\":841:918   */\n    tag_192:\n        /* \"#utility.yul\":878:885   */\n      0x00\n        /* \"#utility.yul\":907:912   */\n      dup2\n        /* \"#utility.yul\":896:912   */\n      swap1\n      pop\n        /* \"#utility.yul\":841:918   */\n      swap2\n      swap1\n      pop\n      jump\t// out\n        /* \"#utility.yul\":924:1046   */\n    tag_193:\n        /* \"#utility.yul\":997:1021   */\n      tag_244\n        /* \"#utility.yul\":1015:1020   */\n      dup2\n        /* \"#utility.yul\":997:1021   */\n      tag_192\n      jump\t// in\n    tag_244:\n        /* \"#utility.yul\":990:995   */\n      dup2\n        /* \"#utility.yul\":987:1022   */\n      eq\n        /* \"#utility.yul\":977:1040   */\n      tag_245\n      jumpi\n        /* \"#utility.yul\":1036:1037   */\n      0x00\n        /* \"#utility.yul\":1033:1034   */\n      dup1\n        /* \"#utility.yul\":1026:1038   */\n      revert\n        /* \"#utility.yul\":977:1040   */\n    tag_245:\n        /* \"#utility.yul\":924:1046   */\n      pop\n      jump\t// out\n        /* \"#utility.yul\":1052:1191   */\n    tag_194:\n        /* \"#utility.yul\":1098:1103   */\n      0x00\n        /* \"#utility.yul\":1136:1142   */\n      dup2\n        /* \"#utility.yul\":1123:1143   */\n      calldataload\n        /* \"#utility.yul\":1114:1143   */\n      swap1\n      pop\n        /* \"#utility.yul\":1152:1185   */\n      tag_247\n        /* \"#utility.yul\":1179:1184   */\n      dup2\n        /* \"#utility.yul\":1152:1185   */\n      tag_193\n      jump\t// in\n    tag_247:\n        /* \"#utility.yul\":1052:1191   */\n      swap3\n      swap2\n      pop\n      pop\n      jump\t// out\n        /* \"#utility.yul\":1197:1671   */\n    tag_13:\n        /* \"#utility.yul\":1265:1271   */\n      0x00\n        /* \"#utility.yul\":1273:1279   */\n      dup1\n        /* \"#utility.yul\":1322:1324   */\n      0x40\n        /* \"#utility.yul\":1310:1319   */\n      dup4\n        /* \"#utility.yul\":1301:1308   */\n      dup6\n        /* \"#utility.yul\":1297:1320   */\n      sub\n        /* \"#utility.yul\":1293:1325   */\n      slt\n        /* \"#utility.yul\":1290:1409   */\n      iszero\n      tag_249\n      jumpi\n        /* \"#utility.yul\":1328:1407   */\n      tag_250\n      tag_186\n      jump\t// in\n    tag_250:\n        /* \"#utility.yul\":1290:1409   */\n    tag_249:\n        /* \"#utility.yul\":1448:1449   */\n      0x00\n        /* \"#utility.yul\":1473:1526   */\n      tag_251\n        /* \"#utility.yul\":1518:1525   */\n      dup6\n        /* \"#utility.yul\":1509:1515   */\n      dup3\n        /* \"#utility.yul\":1498:1507   */\n      dup7\n        /* \"#utility.yul\":1494:1516   */\n      add\n        /* \"#utility.yul\":1473:1526   */\n      tag_191\n      jump\t// in\n    tag_251:\n        /* \"#utility.yul\":1463:1526   */\n      swap3\n      pop\n        /* \"#utility.yul\":1419:1536   */\n      pop\n        /* \"#utility.yul\":1575:1577   */\n      0x20\n        /* \"#utility.yul\":1601:1654   */\n      tag_252\n        /* \"#utility.yul\":1646:1653   */\n      dup6\n        /* \"#utility.yul\":1637:1643   */\n      dup3\n        /* \"#utility.yul\":1626:1635   */\n      dup7\n        /* \"#utility.yul\":1622:1644   */\n      add\n        /* \"#utility.yul\":1601:1654   */\n      tag_194\n      jump\t// in\n    tag_252:\n        /* \"#utility.yul\":1591:1654   */\n      swap2\n      pop\n        /* \"#utility.yul\":1546:1664   */\n      pop\n        /* \"#utility.yul\":1197:1671   */\n      swap3\n      pop\n      swap3\n      swap1\n      pop\n      jump\t// out\n        /* \"#utility.yul\":1677:1795   */\n    tag_195:\n        /* \"#utility.yul\":1764:1788   */\n      tag_254\n        /* \"#utility.yul\":1782:1787   */\n      dup2\n        /* \"#utility.yul\":1764:1788   */\n      tag_192\n      jump\t// in\n    tag_254:\n        /* \"#utility.yul\":1759:1762   */\n      dup3\n        /* \"#utility.yul\":1752:1789   */\n      mstore\n        /* \"#utility.yul\":1677:1795   */\n      pop\n      pop\n      jump\t// out\n        /* \"#utility.yul\":1801:2023   */\n    tag_16:\n        /* \"#utility.yul\":1894:1898   */\n      0x00\n        /* \"#utility.yul\":1932:1934   */\n      0x20\n        /* \"#utility.yul\":1921:1930   */\n      dup3\n        /* \"#utility.yul\":1917:1935   */\n      add\n        /* \"#utility.yul\":1909:1935   */\n      swap1\n      pop\n        /* \"#utility.yul\":1945:2016   */\n      tag_256\n        /* \"#utility.yul\":2013:2014   */\n      0x00\n        /* \"#utility.yul\":2002:2011   */\n      dup4\n        /* \"#utility.yul\":1998:2015   */\n      add\n        /* \"#utility.yul\":1989:1995   */\n      dup5\n        /* \"#utility.yul\":1945:2016   */\n      tag_195\n      jump\t// in\n    tag_256:\n        /* \"#utility.yul\":1801:2023   */\n      swap3\n      swap2\n      pop\n      pop\n      jump\t// out\n        /* \"#utility.yul\":2029:2358   */\n    tag_20:\n        /* \"#utility.yul\":2088:2094   */\n      0x00\n        /* \"#utility.yul\":2137:2139   */\n      0x20\n        /* \"#utility.yul\":2125:2134   */\n      dup3\n        /* \"#utility.yul\":2116:2123   */\n      dup5\n        /* \"#utility.yul\":2112:2135   */\n      sub\n        /* \"#utility.yul\":2108:2140   */\n      slt\n        /* \"#utility.yul\":2105:2224   */\n      iszero\n      tag_258\n      jumpi\n        /* \"#utility.yul\":2143:2222   */\n      tag_259\n      tag_186\n      jump\t// in\n    tag_259:\n        /* \"#utility.yul\":2105:2224   */\n    tag_258:\n        /* \"#utility.yul\":2263:2264   */\n      0x00\n        /* \"#utility.yul\":2288:2341   */\n      tag_260\n        /* \"#utility.yul\":2333:2340   */\n      dup5\n        /* \"#utility.yul\":2324:2330   */\n      dup3\n        /* \"#utility.yul\":2313:2322   */\n      dup6\n        /* \"#utility.yul\":2309:2331   */\n      add\n        /* \"#utility.yul\":2288:2341   */\n      tag_194\n      jump\t// in\n    tag_260:\n        /* \"#utility.yul\":2278:2341   */\n      swap2\n      pop\n        /* \"#utility.yul\":2234:2351   */\n      pop\n        /* \"#utility.yul\":2029:2358   */\n      swap3\n      swap2\n      pop\n      pop\n      jump\t// out\n        /* \"#utility.yul\":2364:2482   */\n    tag_196:\n        /* \"#utility.yul\":2451:2475   */\n      tag_262\n        /* \"#utility.yul\":2469:2474   */\n      dup2\n        /* \"#utility.yul\":2451:2475   */\n      tag_189\n      jump\t// in\n    tag_262:\n        /* \"#utility.yul\":2446:2449   */\n      dup3\n        /* \"#utility.yul\":2439:2476   */\n      mstore\n        /* \"#utility.yul\":2364:2482   */\n      pop\n      pop\n      jump\t// out\n        /* \"#utility.yul\":2488:2668   */\n    tag_57:\n        /* \"#utility.yul\":2536:2613   */\n      0x4e487b7100000000000000000000000000000000000000000000000000000000\n        /* \"#utility.yul\":2533:2534   */\n      0x00\n        /* \"#utility.yul\":2526:2614   */\n      mstore\n        /* \"#utility.yul\":2633:2637   */\n      0x21\n        /* \"#utility.yul\":2630:2631   */\n      0x04\n        /* \"#utility.yul\":2623:2638   */\n      mstore\n        /* \"#utility.yul\":2657:2661   */\n      0x24\n        /* \"#utility.yul\":2654:2655   */\n      0x00\n        /* \"#utility.yul\":2647:2662   */\n      revert\n        /* \"#utility.yul\":2674:2785   */\n    tag_197:\n        /* \"#utility.yul\":2753:2754   */\n      0x04\n        /* \"#utility.yul\":2746:2751   */\n      dup2\n        /* \"#utility.yul\":2743:2755   */\n      lt\n        /* \"#utility.yul\":2733:2779   */\n      tag_265\n      jumpi\n        /* \"#utility.yul\":2759:2777   */\n      tag_266\n      tag_57\n      jump\t// in\n    tag_266:\n        /* \"#utility.yul\":2733:2779   */\n    tag_265:\n        /* \"#utility.yul\":2674:2785   */\n      pop\n      jump\t// out\n        /* \"#utility.yul\":2791:2914   */\n    tag_198:\n        /* \"#utility.yul\":2834:2841   */\n      0x00\n        /* \"#utility.yul\":2863:2868   */\n      dup2\n        /* \"#utility.yul\":2852:2868   */\n      swap1\n      pop\n        /* \"#utility.yul\":2869:2908   */\n      tag_268\n        /* \"#utility.yul\":2902:2907   */\n      dup3\n        /* \"#utility.yul\":2869:2908   */\n      tag_197\n      jump\t// in\n    tag_268:\n        /* \"#utility.yul\":2791:2914   */\n      swap2\n      swap1\n      pop\n      jump\t// out\n        /* \"#utility.yul\":2920:3043   */\n    tag_199:\n        /* \"#utility.yul\":2974:2983   */\n      0x00\n        /* \"#utility.yul\":3007:3037   */\n      tag_270\n        /* \"#utility.yul\":3031:3036   */\n      dup3\n        /* \"#utility.yul\":3007:3037   */\n      tag_198\n      jump\t// in\n    tag_270:\n        /* \"#utility.yul\":2994:3037   */\n      swap1\n      pop\n        /* \"#utility.yul\":2920:3043   */\n      swap2\n      swap1\n      pop\n      jump\t// out\n        /* \"#utility.yul\":3049:3188   */\n    tag_200:\n        /* \"#utility.yul\":3140:3181   */\n      tag_272\n        /* \"#utility.yul\":3175:3180   */\n      dup2\n        /* \"#utility.yul\":3140:3181   */\n      tag_199\n      jump\t// in\n    tag_272:\n        /* \"#utility.yul\":3135:3138   */\n      dup3\n        /* \"#utility.yul\":3128:3182   */\n      mstore\n        /* \"#utility.yul\":3049:3188   */\n      pop\n      pop\n      jump\t// out\n        /* \"#utility.yul\":3194:3308   */\n    tag_201:\n        /* \"#utility.yul\":3276:3277   */\n      0x04\n        /* \"#utility.yul\":3269:3274   */\n      dup2\n        /* \"#utility.yul\":3266:3278   */\n      lt\n        /* \"#utility.yul\":3256:3302   */\n      tag_274\n      jumpi\n        /* \"#utility.yul\":3282:3300   */\n      tag_275\n      tag_57\n      jump\t// in\n    tag_275:\n        /* \"#utility.yul\":3256:3302   */\n    tag_274:\n        /* \"#utility.yul\":3194:3308   */\n      pop\n      jump\t// out\n        /* \"#utility.yul\":3314:3443   */\n    tag_202:\n        /* \"#utility.yul\":3360:3367   */\n      0x00\n        /* \"#utility.yul\":3389:3394   */\n      dup2\n        /* \"#utility.yul\":3378:3394   */\n      swap1\n      pop\n        /* \"#utility.yul\":3395:3437   */\n      tag_277\n        /* \"#utility.yul\":3431:3436   */\n      dup3\n        /* \"#utility.yul\":3395:3437   */\n      tag_201\n      jump\t// in\n    tag_277:\n        /* \"#utility.yul\":3314:3443   */\n      swap2\n      swap1\n      pop\n      jump\t// out\n        /* \"#utility.yul\":3449:3578   */\n    tag_203:\n        /* \"#utility.yul\":3506:3515   */\n      0x00\n        /* \"#utility.yul\":3539:3572   */\n      tag_279\n        /* \"#utility.yul\":3566:3571   */\n      dup3\n        /* \"#utility.yul\":3539:3572   */\n      tag_202\n      jump\t// in\n    tag_279:\n        /* \"#utility.yul\":3526:3572   */\n      swap1\n      pop\n        /* \"#utility.yul\":3449:3578   */\n      swap2\n      swap1\n      pop\n      jump\t// out\n        /* \"#utility.yul\":3584:3729   */\n    tag_204:\n        /* \"#utility.yul\":3678:3722   */\n      tag_281\n        /* \"#utility.yul\":3716:3721   */\n      dup2\n        /* \"#utility.yul\":3678:3722   */\n      tag_203\n      jump\t// in\n    tag_281:\n        /* \"#utility.yul\":3673:3676   */\n      dup3\n        /* \"#utility.yul\":3666:3723   */\n      mstore\n        /* \"#utility.yul\":3584:3729   */\n      pop\n      pop\n      jump\t// out\n        /* \"#utility.yul\":3735:4540   */\n    tag_23:\n        /* \"#utility.yul\":3983:3987   */\n      0x00\n        /* \"#utility.yul\":4021:4024   */\n      0xc0\n        /* \"#utility.yul\":4010:4019   */\n      dup3\n        /* \"#utility.yul\":4006:4025   */\n      add\n        /* \"#utility.yul\":3998:4025   */\n      swap1\n      pop\n        /* \"#utility.yul\":4035:4106   */\n      tag_283\n        /* \"#utility.yul\":4103:4104   */\n      0x00\n        /* \"#utility.yul\":4092:4101   */\n      dup4\n        /* \"#utility.yul\":4088:4105   */\n      add\n        /* \"#utility.yul\":4079:4085   */\n      dup10\n        /* \"#utility.yul\":4035:4106   */\n      tag_196\n      jump\t// in\n    tag_283:\n        /* \"#utility.yul\":4116:4188   */\n      tag_284\n        /* \"#utility.yul\":4184:4186   */\n      0x20\n        /* \"#utility.yul\":4173:4182   */\n      dup4\n        /* \"#utility.yul\":4169:4187   */\n      add\n        /* \"#utility.yul\":4160:4166   */\n      dup9\n        /* \"#utility.yul\":4116:4188   */\n      tag_196\n      jump\t// in\n    tag_284:\n        /* \"#utility.yul\":4198:4274   */\n      tag_285\n        /* \"#utility.yul\":4270:4272   */\n      0x40\n        /* \"#utility.yul\":4259:4268   */\n      dup4\n        /* \"#utility.yul\":4255:4273   */\n      add\n        /* \"#utility.yul\":4246:4252   */\n      dup8\n        /* \"#utility.yul\":4198:4274   */\n      tag_200\n      jump\t// in\n    tag_285:\n        /* \"#utility.yul\":4284:4360   */\n      tag_286\n        /* \"#utility.yul\":4356:4358   */\n      0x60\n        /* \"#utility.yul\":4345:4354   */\n      dup4\n        /* \"#utility.yul\":4341:4359   */\n      add\n        /* \"#utility.yul\":4332:4338   */\n      dup7\n        /* \"#utility.yul\":4284:4360   */\n      tag_200\n      jump\t// in\n    tag_286:\n        /* \"#utility.yul\":4370:4443   */\n      tag_287\n        /* \"#utility.yul\":4438:4441   */\n      0x80\n        /* \"#utility.yul\":4427:4436   */\n      dup4\n        /* \"#utility.yul\":4423:4442   */\n      add\n        /* \"#utility.yul\":4414:4420   */\n      dup6\n        /* \"#utility.yul\":4370:4443   */\n      tag_195\n      jump\t// in\n    tag_287:\n        /* \"#utility.yul\":4453:4533   */\n      tag_288\n        /* \"#utility.yul\":4528:4531   */\n      0xa0\n        /* \"#utility.yul\":4517:4526   */\n      dup4\n        /* \"#utility.yul\":4513:4532   */\n      add\n        /* \"#utility.yul\":4504:4510   */\n      dup5\n        /* \"#utility.yul\":4453:4533   */\n      tag_204\n      jump\t// in\n    tag_288:\n        /* \"#utility.yul\":3735:4540   */\n      swap8\n      swap7\n      pop\n      pop\n      pop\n      pop\n      pop\n      pop\n      pop\n      jump\t// out\n        /* \"#utility.yul\":4546:4875   */\n    tag_27:\n        /* \"#utility.yul\":4605:4611   */\n      0x00\n        /* \"#utility.yul\":4654:4656   */\n      0x20\n        /* \"#utility.yul\":4642:4651   */\n      dup3\n        /* \"#utility.yul\":4633:4640   */\n      dup5\n        /* \"#utility.yul\":4629:4652   */\n      sub\n        /* \"#utility.yul\":4625:4657   */\n      slt\n        /* \"#utility.yul\":4622:4741   */\n      iszero\n      tag_290\n      jumpi\n        /* \"#utility.yul\":4660:4739   */\n      tag_291\n      tag_186\n      jump\t// in\n    tag_291:\n        /* \"#utility.yul\":4622:4741   */\n    tag_290:\n        /* \"#utility.yul\":4780:4781   */\n      0x00\n        /* \"#utility.yul\":4805:4858   */\n      tag_292\n        /* \"#utility.yul\":4850:4857   */\n      dup5\n        /* \"#utility.yul\":4841:4847   */\n      dup3\n        /* \"#utility.yul\":4830:4839   */\n      dup6\n        /* \"#utility.yul\":4826:4848   */\n      add\n        /* \"#utility.yul\":4805:4858   */\n      tag_191\n      jump\t// in\n    tag_292:\n        /* \"#utility.yul\":4795:4858   */\n      swap2\n      pop\n        /* \"#utility.yul\":4751:4868   */\n      pop\n        /* \"#utility.yul\":4546:4875   */\n      swap3\n      swap2\n      pop\n      pop\n      jump\t// out\n        /* \"#utility.yul\":4881:4995   */\n    tag_205:\n        /* \"#utility.yul\":4948:4954   */\n      0x00\n        /* \"#utility.yul\":4982:4987   */\n      dup2\n        /* \"#utility.yul\":4976:4988   */\n      mload\n        /* \"#utility.yul\":4966:4988   */\n      swap1\n      pop\n        /* \"#utility.yul\":4881:4995   */\n      swap2\n      swap1\n      pop\n      jump\t// out\n        /* \"#utility.yul\":5001:5185   */\n    tag_206:\n        /* \"#utility.yul\":5100:5111   */\n      0x00\n        /* \"#utility.yul\":5134:5140   */\n      dup3\n        /* \"#utility.yul\":5129:5132   */\n      dup3\n        /* \"#utility.yul\":5122:5141   */\n      mstore\n        /* \"#utility.yul\":5174:5178   */\n      0x20\n        /* \"#utility.yul\":5169:5172   */\n      dup3\n        /* \"#utility.yul\":5165:5179   */\n      add\n        /* \"#utility.yul\":5150:5179   */\n      swap1\n      pop\n        /* \"#utility.yul\":5001:5185   */\n      swap3\n      swap2\n      pop\n      pop\n      jump\t// out\n        /* \"#utility.yul\":5191:5323   */\n    tag_207:\n        /* \"#utility.yul\":5258:5262   */\n      0x00\n        /* \"#utility.yul\":5281:5284   */\n      dup2\n        /* \"#utility.yul\":5273:5284   */\n      swap1\n      pop\n        /* \"#utility.yul\":5311:5315   */\n      0x20\n        /* \"#utility.yul\":5306:5309   */\n      dup3\n        /* \"#utility.yul\":5302:5316   */\n      add\n        /* \"#utility.yul\":5294:5316   */\n      swap1\n      pop\n        /* \"#utility.yul\":5191:5323   */\n      swap2\n      swap1\n      pop\n      jump\t// out\n        /* \"#utility.yul\":5329:5437   */\n    tag_208:\n        /* \"#utility.yul\":5406:5430   */\n      tag_297\n        /* \"#utility.yul\":5424:5429   */\n      dup2\n        /* \"#utility.yul\":5406:5430   */\n      tag_192\n      jump\t// in\n    tag_297:\n        /* \"#utility.yul\":5401:5404   */\n      dup3\n        /* \"#utility.yul\":5394:5431   */\n      mstore\n        /* \"#utility.yul\":5329:5437   */\n      pop\n      pop\n      jump\t// out\n        /* \"#utility.yul\":5443:5622   */\n    tag_209:\n        /* \"#utility.yul\":5512:5522   */\n      0x00\n        /* \"#utility.yul\":5533:5579   */\n      tag_299\n        /* \"#utility.yul\":5575:5578   */\n      dup4\n        /* \"#utility.yul\":5567:5573   */\n      dup4\n        /* \"#utility.yul\":5533:5579   */\n      tag_208\n      jump\t// in\n    tag_299:\n        /* \"#utility.yul\":5611:5615   */\n      0x20\n        /* \"#utility.yul\":5606:5609   */\n      dup4\n        /* \"#utility.yul\":5602:5616   */\n      add\n        /* \"#utility.yul\":5588:5616   */\n      swap1\n      pop\n        /* \"#utility.yul\":5443:5622   */\n      swap3\n      swap2\n      pop\n      pop\n      jump\t// out\n        /* \"#utility.yul\":5628:5741   */\n    tag_210:\n        /* \"#utility.yul\":5698:5702   */\n      0x00\n        /* \"#utility.yul\":5730:5734   */\n      0x20\n        /* \"#utility.yul\":5725:5728   */\n      dup3\n        /* \"#utility.yul\":5721:5735   */\n      add\n        /* \"#utility.yul\":5713:5735   */\n      swap1\n      pop\n        /* \"#utility.yul\":5628:5741   */\n      swap2\n      swap1\n      pop\n      jump\t// out\n        /* \"#utility.yul\":5777:6509   */\n    tag_211:\n        /* \"#utility.yul\":5896:5899   */\n      0x00\n        /* \"#utility.yul\":5925:5979   */\n      tag_302\n        /* \"#utility.yul\":5973:5978   */\n      dup3\n        /* \"#utility.yul\":5925:5979   */\n      tag_205\n      jump\t// in\n    tag_302:\n        /* \"#utility.yul\":5995:6081   */\n      tag_303\n        /* \"#utility.yul\":6074:6080   */\n      dup2\n        /* \"#utility.yul\":6069:6072   */\n      dup6\n        /* \"#utility.yul\":5995:6081   */\n      tag_206\n      jump\t// in\n    tag_303:\n        /* \"#utility.yul\":5988:6081   */\n      swap4\n      pop\n        /* \"#utility.yul\":6105:6161   */\n      tag_304\n        /* \"#utility.yul\":6155:6160   */\n      dup4\n        /* \"#utility.yul\":6105:6161   */\n      tag_207\n      jump\t// in\n    tag_304:\n        /* \"#utility.yul\":6184:6191   */\n      dup1\n        /* \"#utility.yul\":6215:6216   */\n      0x00\n        /* \"#utility.yul\":6200:6484   */\n    tag_305:\n        /* \"#utility.yul\":6225:6231   */\n      dup4\n        /* \"#utility.yul\":6222:6223   */\n      dup2\n        /* \"#utility.yul\":6219:6232   */\n      lt\n        /* \"#utility.yul\":6200:6484   */\n      iszero\n      tag_307\n      jumpi\n        /* \"#utility.yul\":6301:6307   */\n      dup2\n        /* \"#utility.yul\":6295:6308   */\n      mload\n        /* \"#utility.yul\":6328:6391   */\n      tag_308\n        /* \"#utility.yul\":6387:6390   */\n      dup9\n        /* \"#utility.yul\":6372:6385   */\n      dup3\n        /* \"#utility.yul\":6328:6391   */\n      tag_209\n      jump\t// in\n    tag_308:\n        /* \"#utility.yul\":6321:6391   */\n      swap8\n      pop\n        /* \"#utility.yul\":6414:6474   */\n      tag_309\n        /* \"#utility.yul\":6467:6473   */\n      dup4\n        /* \"#utility.yul\":6414:6474   */\n      tag_210\n      jump\t// in\n    tag_309:\n        /* \"#utility.yul\":6404:6474   */\n      swap3\n      pop\n        /* \"#utility.yul\":6260:6484   */\n      pop\n        /* \"#utility.yul\":6247:6248   */\n      0x01\n        /* \"#utility.yul\":6244:6245   */\n      dup2\n        /* \"#utility.yul\":6240:6249   */\n      add\n        /* \"#utility.yul\":6235:6249   */\n      swap1\n      pop\n        /* \"#utility.yul\":6200:6484   */\n      jump(tag_305)\n    tag_307:\n        /* \"#utility.yul\":6204:6218   */\n      pop\n        /* \"#utility.yul\":6500:6503   */\n      dup6\n        /* \"#utility.yul\":6493:6503   */\n      swap4\n      pop\n        /* \"#utility.yul\":5901:6509   */\n      pop\n      pop\n      pop\n        /* \"#utility.yul\":5777:6509   */\n      swap3\n      swap2\n      pop\n      pop\n      jump\t// out\n        /* \"#utility.yul\":6515:6888   */\n    tag_30:\n        /* \"#utility.yul\":6658:6662   */\n      0x00\n        /* \"#utility.yul\":6696:6698   */\n      0x20\n        /* \"#utility.yul\":6685:6694   */\n      dup3\n        /* \"#utility.yul\":6681:6699   */\n      add\n        /* \"#utility.yul\":6673:6699   */\n      swap1\n      pop\n        /* \"#utility.yul\":6745:6754   */\n      dup2\n        /* \"#utility.yul\":6739:6743   */\n      dup2\n        /* \"#utility.yul\":6735:6755   */\n      sub\n        /* \"#utility.yul\":6731:6732   */\n      0x00\n        /* \"#utility.yul\":6720:6729   */\n      dup4\n        /* \"#utility.yul\":6716:6733   */\n      add\n        /* \"#utility.yul\":6709:6756   */\n      mstore\n        /* \"#utility.yul\":6773:6881   */\n      tag_311\n        /* \"#utility.yul\":6876:6880   */\n      dup2\n        /* \"#utility.yul\":6867:6873   */\n      dup5\n        /* \"#utility.yul\":6773:6881   */\n      tag_211\n      jump\t// in\n    tag_311:\n        /* \"#utility.yul\":6765:6881   */\n      swap1\n      pop\n        /* \"#utility.yul\":6515:6888   */\n      swap3\n      swap2\n      pop\n      pop\n      jump\t// out\n        /* \"#utility.yul\":6894:6999   */\n    tag_212:\n        /* \"#utility.yul\":6973:6974   */\n      0x04\n        /* \"#utility.yul\":6966:6971   */\n      dup2\n        /* \"#utility.yul\":6963:6975   */\n      lt\n        /* \"#utility.yul\":6953:6993   */\n      tag_313\n      jumpi\n        /* \"#utility.yul\":6989:6990   */\n      0x00\n        /* \"#utility.yul\":6986:6987   */\n      dup1\n        /* \"#utility.yul\":6979:6991   */\n      revert\n        /* \"#utility.yul\":6953:6993   */\n    tag_313:\n        /* \"#utility.yul\":6894:6999   */\n      pop\n      jump\t// out\n        /* \"#utility.yul\":7005:7156   */\n    tag_213:\n        /* \"#utility.yul\":7057:7062   */\n      0x00\n        /* \"#utility.yul\":7095:7101   */\n      dup2\n        /* \"#utility.yul\":7082:7102   */\n      calldataload\n        /* \"#utility.yul\":7073:7102   */\n      swap1\n      pop\n        /* \"#utility.yul\":7111:7150   */\n      tag_315\n        /* \"#utility.yul\":7144:7149   */\n      dup2\n        /* \"#utility.yul\":7111:7150   */\n      tag_212\n      jump\t// in\n    tag_315:\n        /* \"#utility.yul\":7005:7156   */\n      swap3\n      swap2\n      pop\n      pop\n      jump\t// out\n        /* \"#utility.yul\":7162:7648   */\n    tag_41:\n        /* \"#utility.yul\":7236:7242   */\n      0x00\n        /* \"#utility.yul\":7244:7250   */\n      dup1\n        /* \"#utility.yul\":7293:7295   */\n      0x40\n        /* \"#utility.yul\":7281:7290   */\n      dup4\n        /* \"#utility.yul\":7272:7279   */\n      dup6\n        /* \"#utility.yul\":7268:7291   */\n      sub\n        /* \"#utility.yul\":7264:7296   */\n      slt\n        /* \"#utility.yul\":7261:7380   */\n      iszero\n      tag_317\n      jumpi\n        /* \"#utility.yul\":7299:7378   */\n      tag_318\n      tag_186\n      jump\t// in\n    tag_318:\n        /* \"#utility.yul\":7261:7380   */\n    tag_317:\n        /* \"#utility.yul\":7419:7420   */\n      0x00\n        /* \"#utility.yul\":7444:7497   */\n      tag_319\n        /* \"#utility.yul\":7489:7496   */\n      dup6\n        /* \"#utility.yul\":7480:7486   */\n      dup3\n        /* \"#utility.yul\":7469:7478   */\n      dup7\n        /* \"#utility.yul\":7465:7487   */\n      add\n        /* \"#utility.yul\":7444:7497   */\n      tag_194\n      jump\t// in\n    tag_319:\n        /* \"#utility.yul\":7434:7497   */\n      swap3\n      pop\n        /* \"#utility.yul\":7390:7507   */\n      pop\n        /* \"#utility.yul\":7546:7548   */\n      0x20\n        /* \"#utility.yul\":7572:7631   */\n      tag_320\n        /* \"#utility.yul\":7623:7630   */\n      dup6\n        /* \"#utility.yul\":7614:7620   */\n      dup3\n        /* \"#utility.yul\":7603:7612   */\n      dup7\n        /* \"#utility.yul\":7599:7621   */\n      add\n        /* \"#utility.yul\":7572:7631   */\n      tag_213\n      jump\t// in\n    tag_320:\n        /* \"#utility.yul\":7562:7631   */\n      swap2\n      pop\n        /* \"#utility.yul\":7517:7641   */\n      pop\n        /* \"#utility.yul\":7162:7648   */\n      swap3\n      pop\n      swap3\n      swap1\n      pop\n      jump\t// out\n        /* \"#utility.yul\":7654:7823   */\n    tag_214:\n        /* \"#utility.yul\":7738:7749   */\n      0x00\n        /* \"#utility.yul\":7772:7778   */\n      dup3\n        /* \"#utility.yul\":7767:7770   */\n      dup3\n        /* \"#utility.yul\":7760:7779   */\n      mstore\n        /* \"#utility.yul\":7812:7816   */\n      0x20\n        /* \"#utility.yul\":7807:7810   */\n      dup3\n        /* \"#utility.yul\":7803:7817   */\n      add\n        /* \"#utility.yul\":7788:7817   */\n      swap1\n      pop\n        /* \"#utility.yul\":7654:7823   */\n      swap3\n      swap2\n      pop\n      pop\n      jump\t// out\n        /* \"#utility.yul\":7829:8000   */\n    tag_215:\n        /* \"#utility.yul\":7969:7992   */\n      0x576167657220616d6f756e74206d69736d617463680000000000000000000000\n        /* \"#utility.yul\":7965:7966   */\n      0x00\n        /* \"#utility.yul\":7957:7963   */\n      dup3\n        /* \"#utility.yul\":7953:7967   */\n      add\n        /* \"#utility.yul\":7946:7993   */\n      mstore\n        /* \"#utility.yul\":7829:8000   */\n      pop\n      jump\t// out\n        /* \"#utility.yul\":8006:8372   */\n    tag_216:\n        /* \"#utility.yul\":8148:8151   */\n      0x00\n        /* \"#utility.yul\":8169:8236   */\n      tag_324\n        /* \"#utility.yul\":8233:8235   */\n      0x15\n        /* \"#utility.yul\":8228:8231   */\n      dup4\n        /* \"#utility.yul\":8169:8236   */\n      tag_214\n      jump\t// in\n    tag_324:\n        /* \"#utility.yul\":8162:8236   */\n      swap2\n      pop\n        /* \"#utility.yul\":8245:8338   */\n      tag_325\n        /* \"#utility.yul\":8334:8337   */\n      dup3\n        /* \"#utility.yul\":8245:8338   */\n      tag_215\n      jump\t// in\n    tag_325:\n        /* \"#utility.yul\":8363:8365   */\n      0x20\n        /* \"#utility.yul\":8358:8361   */\n      dup3\n        /* \"#utility.yul\":8354:8366   */\n      add\n        /* \"#utility.yul\":8347:8366   */\n      swap1\n      pop\n        /* \"#utility.yul\":8006:8372   */\n      swap2\n      swap1\n      pop\n      jump\t// out\n        /* \"#utility.yul\":8378:8797   */\n    tag_54:\n        /* \"#utility.yul\":8544:8548   */\n      0x00\n        /* \"#utility.yul\":8582:8584   */\n      0x20\n        /* \"#utility.yul\":8571:8580   */\n      dup3\n        /* \"#utility.yul\":8567:8585   */\n      add\n        /* \"#utility.yul\":8559:8585   */\n      swap1\n      pop\n        /* \"#utility.yul\":8631:8640   */\n      dup2\n        /* \"#utility.yul\":8625:8629   */\n      dup2\n        /* \"#utility.yul\":8621:8641   */\n      sub\n        /* \"#utility.yul\":8617:8618   */\n      0x00\n        /* \"#utility.yul\":8606:8615   */\n      dup4\n        /* \"#utility.yul\":8602:8619   */\n      add\n        /* \"#utility.yul\":8595:8642   */\n      mstore\n        /* \"#utility.yul\":8659:8790   */\n      tag_327\n        /* \"#utility.yul\":8785:8789   */\n      dup2\n        /* \"#utility.yul\":8659:8790   */\n      tag_216\n      jump\t// in\n    tag_327:\n        /* \"#utility.yul\":8651:8790   */\n      swap1\n      pop\n        /* \"#utility.yul\":8378:8797   */\n      swap2\n      swap1\n      pop\n      jump\t// out\n        /* \"#utility.yul\":8803:8983   */\n    tag_217:\n        /* \"#utility.yul\":8851:8928   */\n      0x4e487b7100000000000000000000000000000000000000000000000000000000\n        /* \"#utility.yul\":8848:8849   */\n      0x00\n        /* \"#utility.yul\":8841:8929   */\n      mstore\n        /* \"#utility.yul\":8948:8952   */\n      0x11\n        /* \"#utility.yul\":8945:8946   */\n      0x04\n        /* \"#utility.yul\":8938:8953   */\n      mstore\n        /* \"#utility.yul\":8972:8976   */\n      0x24\n        /* \"#utility.yul\":8969:8970   */\n      0x00\n        /* \"#utility.yul\":8962:8977   */\n      revert\n        /* \"#utility.yul\":8989:9222   */\n    tag_71:\n        /* \"#utility.yul\":9028:9031   */\n      0x00\n        /* \"#utility.yul\":9051:9075   */\n      tag_330\n        /* \"#utility.yul\":9069:9074   */\n      dup3\n        /* \"#utility.yul\":9051:9075   */\n      tag_192\n      jump\t// in\n    tag_330:\n        /* \"#utility.yul\":9042:9075   */\n      swap2\n      pop\n        /* \"#utility.yul\":9097:9163   */\n      0xffffffffffffffffffffffffffffffffffffffffffffffffffffffffffffffff\n        /* \"#utility.yul\":9090:9095   */\n      dup3\n        /* \"#utility.yul\":9087:9164   */\n      sub\n        /* \"#utility.yul\":9084:9187   */\n      tag_331\n      jumpi\n        /* \"#utility.yul\":9167:9185   */\n      tag_332\n      tag_217\n      jump\t// in\n    tag_332:\n        /* \"#utility.yul\":9084:9187   */\n    tag_331:\n        /* \"#utility.yul\":9214:9215   */\n      0x01\n        /* \"#utility.yul\":9207:9212   */\n      dup3\n        /* \"#utility.yul\":9203:9216   */\n      add\n        /* \"#utility.yul\":9196:9216   */\n      swap1\n      pop\n        /* \"#utility.yul\":8989:9222   */\n      swap2\n      swap1\n      pop\n      jump\t// out\n        /* \"#utility.yul\":9228:9390   */\n    tag_218:\n        /* \"#utility.yul\":9368:9382   */\n      0x496e76616c6964206d6f76650000000000000000000000000000000000000000\n        /* \"#utility.yul\":9364:9365   */\n      0x00\n        /* \"#utility.yul\":9356:9362   */\n      dup3\n        /* \"#utility.yul\":9352:9366   */\n      add\n        /* \"#utility.yul\":9345:9383   */\n      mstore\n        /* \"#utility.yul\":9228:9390   */\n      pop\n      jump\t// out\n        /* \"#utility.yul\":9396:9762   */\n    tag_219:\n        /* \"#utility.yul\":9538:9541   */\n      0x00\n        /* \"#utility.yul\":9559:9626   */\n      tag_335\n        /* \"#utility.yul\":9623:9625   */\n      0x0c\n        /* \"#utility.yul\":9618:9621   */\n      dup4\n        /* \"#utility.yul\":9559:9626   */\n      tag_214\n      jump\t// in\n    tag_335:\n        /* \"#utility.yul\":9552:9626   */\n      swap2\n      pop\n        /* \"#utility.yul\":9635:9728   */\n      tag_336\n        /* \"#utility.yul\":9724:9727   */\n      dup3\n        /* \"#utility.yul\":9635:9728   */\n      tag_218\n      jump\t// in\n    tag_336:\n        /* \"#utility.yul\":9753:9755   */\n      0x20\n        /* \"#utility.yul\":9748:9751   */\n      dup3\n        /* \"#utility.yul\":9744:9756   */\n      add\n        /* \"#utility.yul\":9737:9756   */\n      swap1\n      pop\n        /* \"#utility.yul\":9396:9762   */\n      swap2\n      swap1\n      pop\n      jump\t// out\n        /* \"#utility.yul\":9768:10187   */\n    tag_79:\n        /* \"#utility.yul\":9934:9938   */\n      0x00\n        /* \"#utility.yul\":9972:9974   */\n      0x20\n        /* \"#utility.yul\":9961:9970   */\n      dup3\n        /* \"#utility.yul\":9957:9975   */\n      add\n        /* \"#utility.yul\":9949:9975   */\n      swap1\n      pop\n        /* \"#utility.yul\":10021:10030   */\n      dup2\n        /* \"#utility.yul\":10015:10019   */\n      dup2\n        /* \"#utility.yul\":10011:10031   */\n      sub\n        /* \"#utility.yul\":10007:10008   */\n      0x00\n        /* \"#utility.yul\":9996:10005   */\n      dup4\n        /* \"#utility.yul\":9992:10009   */\n      add\n        /* \"#utility.yul\":9985:10032   */\n      mstore\n        /* \"#utility.yul\":10049:10180   */\n      tag_338\n        /* \"#utility.yul\":10175:10179   */\n      dup2\n        /* \"#utility.yul\":10049:10180   */\n      tag_219\n      jump\t// in\n    tag_338:\n        /* \"#utility.yul\":10041:10180   */\n      swap1\n      pop\n        /* \"#utility.yul\":9768:10187   */\n      swap2\n      swap1\n      pop\n      jump\t// out\n        /* \"#utility.yul\":10193:10368   */\n    tag_220:\n        /* \"#utility.yul\":10333:10360   */\n      0x4e6f74206120706c6179657220696e20746869732067616d6500000000000000\n        /* \"#utility.yul\":10329:10330   */\n      0x00\n        /* \"#utility.yul\":10321:10327   */\n      dup3\n        /* \"#utility.yul\":10317:10331   */\n      add\n        /* \"#utility.yul\":10310:10361   */\n      mstore\n        /* \"#utility.yul\":10193:10368   */\n      pop\n      jump\t// out\n        /* \"#utility.yul\":10374:10740   */\n    tag_221:\n        /* \"#utility.yul\":10516:10519   */\n      0x00\n        /* \"#utility.yul\":10537:10604   */\n      tag_341\n        /* \"#utility.yul\":10601:10603   */\n      0x19\n        /* \"#utility.yul\":10596:10599   */\n      dup4\n        /* \"#utility.yul\":10537:10604   */\n      tag_214\n      jump\t// in\n    tag_341:\n        /* \"#utility.yul\":10530:10604   */\n      swap2\n      pop\n        /* \"#utility.yul\":10613:10706   */\n      tag_342\n        /* \"#utility.yul\":10702:10705   */\n      dup3\n        /* \"#utility.yul\":10613:10706   */\n      tag_220\n      jump\t// in\n    tag_342:\n        /* \"#utility.yul\":10731:10733   */\n      0x20\n        /* \"#utility.yul\":10726:10729   */\n      dup3\n        /* \"#utility.yul\":10722:10734   */\n      add\n        /* \"#utility.yul\":10715:10734   */\n      swap1\n      pop\n        /* \"#utility.yul\":10374:10740   */\n      swap2\n      swap1\n      pop\n      jump\t// out\n        /* \"#utility.yul\":10746:11165   */\n    tag_83:\n        /* \"#utility.yul\":10912:10916   */\n      0x00\n        /* \"#utility.yul\":10950:10952   */\n      0x20\n        /* \"#utility.yul\":10939:10948   */\n      dup3\n        /* \"#utility.yul\":10935:10953   */\n      add\n        /* \"#utility.yul\":10927:10953   */\n      swap1\n      pop\n        /* \"#utility.yul\":10999:11008   */\n      dup2\n        /* \"#utility.yul\":10993:10997   */\n      dup2\n        /* \"#utility.yul\":10989:11009   */\n      sub\n        /* \"#utility.yul\":10985:10986   */\n      0x00\n        /* \"#utility.yul\":10974:10983   */\n      dup4\n        /* \"#utility.yul\":10970:10987   */\n      add\n        /* \"#utility.yul\":10963:11010   */\n      mstore\n        /* \"#utility.yul\":11027:11158   */\n      tag_344\n        /* \"#utility.yul\":11153:11157   */\n      dup2\n        /* \"#utility.yul\":11027:11158   */\n      tag_221\n      jump\t// in\n    tag_344:\n        /* \"#utility.yul\":11019:11158   */\n      swap1\n      pop\n        /* \"#utility.yul\":10746:11165   */\n      swap2\n      swap1\n      pop\n      jump\t// out\n        /* \"#utility.yul\":11171:11349   */\n    tag_222:\n        /* \"#utility.yul\":11311:11341   */\n      0x506c61796572203120616c7265616479206d6164652061206d6f766500000000\n        /* \"#utility.yul\":11307:11308   */\n      0x00\n        /* \"#utility.yul\":11299:11305   */\n      dup3\n        /* \"#utility.yul\":11295:11309   */\n      add\n        /* \"#utility.yul\":11288:11342   */\n      mstore\n        /* \"#utility.yul\":11171:11349   */\n      pop\n      jump\t// out\n        /* \"#utility.yul\":11355:11721   */\n    tag_223:\n        /* \"#utility.yul\":11497:11500   */\n      0x00\n        /* \"#utility.yul\":11518:11585   */\n      tag_347\n        /* \"#utility.yul\":11582:11584   */\n      0x1c\n        /* \"#utility.yul\":11577:11580   */\n      dup4\n        /* \"#utility.yul\":11518:11585   */\n      tag_214\n      jump\t// in\n    tag_347:\n        /* \"#utility.yul\":11511:11585   */\n      swap2\n      pop\n        /* \"#utility.yul\":11594:11687   */\n      tag_348\n        /* \"#utility.yul\":11683:11686   */\n      dup3\n        /* \"#utility.yul\":11594:11687   */\n      tag_222\n      jump\t// in\n    tag_348:\n        /* \"#utility.yul\":11712:11714   */\n      0x20\n        /* \"#utility.yul\":11707:11710   */\n      dup3\n        /* \"#utility.yul\":11703:11715   */\n      add\n        /* \"#utility.yul\":11696:11715   */\n      swap1\n      pop\n        /* \"#utility.yul\":11355:11721   */\n      swap2\n      swap1\n      pop\n      jump\t// out\n        /* \"#utility.yul\":11727:12146   */\n    tag_91:\n        /* \"#utility.yul\":11893:11897   */\n      0x00\n        /* \"#utility.yul\":11931:11933   */\n      0x20\n        /* \"#utility.yul\":11920:11929   */\n      dup3\n        /* \"#utility.yul\":11916:11934   */\n      add\n        /* \"#utility.yul\":11908:11934   */\n      swap1\n      pop\n        /* \"#utility.yul\":11980:11989   */\n      dup2\n        /* \"#utility.yul\":11974:11978   */\n      dup2\n        /* \"#utility.yul\":11970:11990   */\n      sub\n        /* \"#utility.yul\":11966:11967   */\n      0x00\n        /* \"#utility.yul\":11955:11964   */\n      dup4\n        /* \"#utility.yul\":11951:11968   */\n      add\n        /* \"#utility.yul\":11944:11991   */\n      mstore\n        /* \"#utility.yul\":12008:12139   */\n      tag_350\n        /* \"#utility.yul\":12134:12138   */\n      dup2\n        /* \"#utility.yul\":12008:12139   */\n      tag_223\n      jump\t// in\n    tag_350:\n        /* \"#utility.yul\":12000:12139   */\n      swap1\n      pop\n        /* \"#utility.yul\":11727:12146   */\n      swap2\n      swap1\n      pop\n      jump\t// out\n        /* \"#utility.yul\":12152:12330   */\n    tag_224:\n        /* \"#utility.yul\":12292:12322   */\n      0x506c61796572203220616c7265616479206d6164652061206d6f766500000000\n        /* \"#utility.yul\":12288:12289   */\n      0x00\n        /* \"#utility.yul\":12280:12286   */\n      dup3\n        /* \"#utility.yul\":12276:12290   */\n      add\n        /* \"#utility.yul\":12269:12323   */\n      mstore\n        /* \"#utility.yul\":12152:12330   */\n      pop\n      jump\t// out\n        /* \"#utility.yul\":12336:12702   */\n    tag_225:\n        /* \"#utility.yul\":12478:12481   */\n      0x00\n        /* \"#utility.yul\":12499:12566   */\n      tag_353\n        /* \"#utility.yul\":12563:12565   */\n      0x1c\n        /* \"#utility.yul\":12558:12561   */\n      dup4\n        /* \"#utility.yul\":12499:12566   */\n      tag_214\n      jump\t// in\n    tag_353:\n        /* \"#utility.yul\":12492:12566   */\n      swap2\n      pop\n        /* \"#utility.yul\":12575:12668   */\n      tag_354\n        /* \"#utility.yul\":12664:12667   */\n      dup3\n        /* \"#utility.yul\":12575:12668   */\n      tag_224\n      jump\t// in\n    tag_354:\n        /* \"#utility.yul\":12693:12695   */\n      0x20\n        /* \"#utility.yul\":12688:12691   */\n      dup3\n        /* \"#utility.yul\":12684:12696   */\n      add\n        /* \"#utility.yul\":12677:12696   */\n      swap1\n      pop\n        /* \"#utility.yul\":12336:12702   */\n      swap2\n      swap1\n      pop\n      jump\t// out\n        /* \"#utility.yul\":12708:13127   */\n    tag_101:\n        /* \"#utility.yul\":12874:12878   */\n      0x00\n        /* \"#utility.yul\":12912:12914   */\n      0x20\n        /* \"#utility.yul\":12901:12910   */\n      dup3\n        /* \"#utility.yul\":12897:12915   */\n      add\n        /* \"#utility.yul\":12889:12915   */\n      swap1\n      pop\n        /* \"#utility.yul\":12961:12970   */\n      dup2\n        /* \"#utility.yul\":12955:12959   */\n      dup2\n        /* \"#utility.yul\":12951:12971   */\n      sub\n        /* \"#utility.yul\":12947:12948   */\n      0x00\n        /* \"#utility.yul\":12936:12945   */\n      dup4\n        /* \"#utility.yul\":12932:12949   */\n      add\n        /* \"#utility.yul\":12925:12972   */\n      mstore\n        /* \"#utility.yul\":12989:13120   */\n      tag_356\n        /* \"#utility.yul\":13115:13119   */\n      dup2\n        /* \"#utility.yul\":12989:13120   */\n      tag_225\n      jump\t// in\n    tag_356:\n        /* \"#utility.yul\":12981:13120   */\n      swap1\n      pop\n        /* \"#utility.yul\":12708:13127   */\n      swap2\n      swap1\n      pop\n      jump\t// out\n        /* \"#utility.yul\":13133:13363   */\n    tag_105:\n        /* \"#utility.yul\":13230:13234   */\n      0x00\n        /* \"#utility.yul\":13268:13270   */\n      0x20\n        /* \"#utility.yul\":13257:13266   */\n      dup3\n        /* \"#utility.yul\":13253:13271   */\n      add\n        /* \"#utility.yul\":13245:13271   */\n      swap1\n      pop\n        /* \"#utility.yul\":13281:13356   */\n      tag_358\n        /* \"#utility.yul\":13353:13354   */\n      0x00\n        /* \"#utility.yul\":13342:13351   */\n      dup4\n        /* \"#utility.yul\":13338:13355   */\n      add\n        /* \"#utility.yul\":13329:13335   */\n      dup5\n        /* \"#utility.yul\":13281:13356   */\n      tag_200\n      jump\t// in\n    tag_358:\n        /* \"#utility.yul\":13133:13363   */\n      swap3\n      swap2\n      pop\n      pop\n      jump\t// out\n        /* \"#utility.yul\":13369:13538   */\n    tag_226:\n        /* \"#utility.yul\":13509:13530   */\n      0x47616d6520646f6573206e6f7420657869737400000000000000000000000000\n        /* \"#utility.yul\":13505:13506   */\n      0x00\n        /* \"#utility.yul\":13497:13503   */\n      dup3\n        /* \"#utility.yul\":13493:13507   */\n      add\n        /* \"#utility.yul\":13486:13531   */\n      mstore\n        /* \"#utility.yul\":13369:13538   */\n      pop\n      jump\t// out\n        /* \"#utility.yul\":13544:13910   */\n    tag_227:\n        /* \"#utility.yul\":13686:13689   */\n      0x00\n        /* \"#utility.yul\":13707:13774   */\n      tag_361\n        /* \"#utility.yul\":13771:13773   */\n      0x13\n        /* \"#utility.yul\":13766:13769   */\n      dup4\n        /* \"#utility.yul\":13707:13774   */\n      tag_214\n      jump\t// in\n    tag_361:\n        /* \"#utility.yul\":13700:13774   */\n      swap2\n      pop\n        /* \"#utility.yul\":13783:13876   */\n      tag_362\n        /* \"#utility.yul\":13872:13875   */\n      dup3\n        /* \"#utility.yul\":13783:13876   */\n      tag_226\n      jump\t// in\n    tag_362:\n        /* \"#utility.yul\":13901:13903   */\n      0x20\n        /* \"#utility.yul\":13896:13899   */\n      dup3\n        /* \"#utility.yul\":13892:13904   */\n      add\n        /* \"#utility.yul\":13885:13904   */\n      swap1\n      pop\n        /* \"#utility.yul\":13544:13910   */\n      swap2\n      swap1\n      pop\n      jump\t// out\n        /* \"#utility.yul\":13916:14335   */\n    tag_121:\n        /* \"#utility.yul\":14082:14086   */\n      0x00\n        /* \"#utility.yul\":14120:14122   */\n      0x20\n        /* \"#utility.yul\":14109:14118   */\n      dup3\n        /* \"#utility.yul\":14105:14123   */\n      add\n        /* \"#utility.yul\":14097:14123   */\n      swap1\n      pop\n        /* \"#utility.yul\":14169:14178   */\n      dup2\n        /* \"#utility.yul\":14163:14167   */\n      dup2\n        /* \"#utility.yul\":14159:14179   */\n      sub\n        /* \"#utility.yul\":14155:14156   */\n      0x00\n        /* \"#utility.yul\":14144:14153   */\n      dup4\n        /* \"#utility.yul\":14140:14157   */\n      add\n        /* \"#utility.yul\":14133:14180   */\n      mstore\n        /* \"#utility.yul\":14197:14328   */\n      tag_364\n        /* \"#utility.yul\":14323:14327   */\n      dup2\n        /* \"#utility.yul\":14197:14328   */\n      tag_227\n      jump\t// in\n    tag_364:\n        /* \"#utility.yul\":14189:14328   */\n      swap1\n      pop\n        /* \"#utility.yul\":13916:14335   */\n      swap2\n      swap1\n      pop\n      jump\t// out\n        /* \"#utility.yul\":14341:14519   */\n    tag_228:\n        /* \"#utility.yul\":14481:14511   */\n      0x47616d6520616c7265616479206861732074776f20706c617965727300000000\n        /* \"#utility.yul\":14477:14478   */\n      0x00\n        /* \"#utility.yul\":14469:14475   */\n      dup3\n        /* \"#utility.yul\":14465:14479   */\n      add\n        /* \"#utility.yul\":14458:14512   */\n      mstore\n        /* \"#utility.yul\":14341:14519   */\n      pop\n      jump\t// out\n        /* \"#utility.yul\":14525:14891   */\n    tag_229:\n        /* \"#utility.yul\":14667:14670   */\n      0x00\n        /* \"#utility.yul\":14688:14755   */\n      tag_367\n        /* \"#utility.yul\":14752:14754   */\n      0x1c\n        /* \"#utility.yul\":14747:14750   */\n      dup4\n        /* \"#utility.yul\":14688:14755   */\n      tag_214\n      jump\t// in\n    tag_367:\n        /* \"#utility.yul\":14681:14755   */\n      swap2\n      pop\n        /* \"#utility.yul\":14764:14857   */\n      tag_368\n        /* \"#utility.yul\":14853:14856   */\n      dup3\n        /* \"#utility.yul\":14764:14857   */\n      tag_228\n      jump\t// in\n    tag_368:\n        /* \"#utility.yul\":14882:14884   */\n      0x20\n        /* \"#utility.yul\":14877:14880   */\n      dup3\n        /* \"#utility.yul\":14873:14885   */\n      add\n        /* \"#utility.yul\":14866:14885   */\n      swap1\n      pop\n        /* \"#utility.yul\":14525:14891   */\n      swap2\n      swap1\n      pop\n      jump\t// out\n        /* \"#utility.yul\":14897:15316   */\n    tag_124:\n        /* \"#utility.yul\":15063:15067   */\n      0x00\n        /* \"#utility.yul\":15101:15103   */\n      0x20\n        /* \"#utility.yul\":15090:15099   */\n      dup3\n        /* \"#utility.yul\":15086:15104   */\n      add\n        /* \"#utility.yul\":15078:15104   */\n      swap1\n      pop\n        /* \"#utility.yul\":15150:15159   */\n      dup2\n        /* \"#utility.yul\":15144:15148   */\n      dup2\n        /* \"#utility.yul\":15140:15160   */\n      sub\n        /* \"#utility.yul\":15136:15137   */\n      0x00\n        /* \"#utility.yul\":15125:15134   */\n      dup4\n        /* \"#utility.yul\":15121:15138   */\n      add\n        /* \"#utility.yul\":15114:15161   */\n      mstore\n        /* \"#utility.yul\":15178:15309   */\n      tag_370\n        /* \"#utility.yul\":15304:15308   */\n      dup2\n        /* \"#utility.yul\":15178:15309   */\n      tag_229\n      jump\t// in\n    tag_370:\n        /* \"#utility.yul\":15170:15309   */\n      swap1\n      pop\n        /* \"#utility.yul\":14897:15316   */\n      swap2\n      swap1\n      pop\n      jump\t// out\n        /* \"#utility.yul\":15322:15732   */\n    tag_174:\n        /* \"#utility.yul\":15362:15369   */\n      0x00\n        /* \"#utility.yul\":15385:15405   */\n      tag_372\n        /* \"#utility.yul\":15403:15404   */\n      dup3\n        /* \"#utility.yul\":15385:15405   */\n      tag_192\n      jump\t// in\n    tag_372:\n        /* \"#utility.yul\":15380:15405   */\n      swap2\n      pop\n        /* \"#utility.yul\":15419:15439   */\n      tag_373\n        /* \"#utility.yul\":15437:15438   */\n      dup4\n        /* \"#utility.yul\":15419:15439   */\n      tag_192\n      jump\t// in\n    tag_373:\n        /* \"#utility.yul\":15414:15439   */\n      swap3\n      pop\n        /* \"#utility.yul\":15474:15475   */\n      dup3\n        /* \"#utility.yul\":15471:15472   */\n      dup3\n        /* \"#utility.yul\":15467:15476   */\n      mul\n        /* \"#utility.yul\":15496:15526   */\n      tag_374\n        /* \"#utility.yul\":15514:15525   */\n      dup2\n        /* \"#utility.yul\":15496:15526   */\n      tag_192\n      jump\t// in\n    tag_374:\n        /* \"#utility.yul\":15485:15526   */\n      swap2\n      pop\n        /* \"#utility.yul\":15675:15676   */\n      dup3\n        /* \"#utility.yul\":15666:15673   */\n      dup3\n        /* \"#utility.yul\":15662:15677   */\n      div\n        /* \"#utility.yul\":15659:15660   */\n      dup5\n        /* \"#utility.yul\":15656:15678   */\n      eq\n        /* \"#utility.yul\":15636:15637   */\n      dup4\n        /* \"#utility.yul\":15629:15638   */\n      iszero\n        /* \"#utility.yul\":15609:15692   */\n      or\n        /* \"#utility.yul\":15586:15725   */\n      tag_375\n      jumpi\n        /* \"#utility.yul\":15705:15723   */\n      tag_376\n      tag_217\n      jump\t// in\n    tag_376:\n        /* \"#utility.yul\":15586:15725   */\n    tag_375:\n        /* \"#utility.yul\":15370:15732   */\n      pop\n        /* \"#utility.yul\":15322:15732   */\n      swap3\n      swap2\n      pop\n      pop\n      jump\t// out\n        /* \"#utility.yul\":15738:15974   */\n    tag_184:\n        /* \"#utility.yul\":15838:15842   */\n      0x00\n        /* \"#utility.yul\":15876:15878   */\n      0x20\n        /* \"#utility.yul\":15865:15874   */\n      dup3\n        /* \"#utility.yul\":15861:15879   */\n      add\n        /* \"#utility.yul\":15853:15879   */\n      swap1\n      pop\n        /* \"#utility.yul\":15889:15967   */\n      tag_378\n        /* \"#utility.yul\":15964:15965   */\n      0x00\n        /* \"#utility.yul\":15953:15962   */\n      dup4\n        /* \"#utility.yul\":15949:15966   */\n      add\n        /* \"#utility.yul\":15940:15946   */\n      dup5\n        /* \"#utility.yul\":15889:15967   */\n      tag_204\n      jump\t// in\n    tag_378:\n        /* \"#utility.yul\":15738:15974   */\n      swap3\n      swap2\n      pop\n      pop\n      jump\t// out\n\n    auxdata: 0xa26469706673582212204ebf1222c0e1f2481956eb5387055f716e3352986c6f061409dbc9c9260a44e764736f6c634300081a0033\n}\n",
				"bytecode": {
					"linkReferences": {},
					"object": "6080604052348015600e575f80fd5b5061181b8061001c5f395ff3fe60806040526004361061006f575f3560e01c80631bb412d61161004d5780631bb412d61461012c57806348e837b9146101565780635cd7692e14610172578063efaa55a01461019a5761006f565b80630a5694c214610073578063117a5b90146100af578063129daf84146100f0575b5f80fd5b34801561007e575f80fd5b50610099600480360381019061009491906110fb565b6101b6565b6040516100a69190611148565b60405180910390f35b3480156100ba575f80fd5b506100d560048036038101906100d09190611161565b6101e1565b6040516100e796959493929190611254565b60405180910390f35b3480156100fb575f80fd5b50610116600480360381019061011191906112b3565b61027c565b6040516101239190611395565b60405180910390f35b348015610137575f80fd5b5061014061030f565b60405161014d9190611148565b60405180910390f35b610170600480360381019061016b9190611161565b610315565b005b34801561017d575f80fd5b50610198600480360381019061019391906113d8565b6105ec565b005b6101b460048036038101906101af9190611161565b6109cc565b005b6002602052815f5260405f2081815481106101cf575f80fd5b905f5260205f20015f91509150505481565b5f602052805f5260405f205f91509050805f015f9054906101000a900473ffffffffffffffffffffffffffffffffffffffff1690806001015f9054906101000a900473ffffffffffffffffffffffffffffffffffffffff16908060010160149054906101000a900460ff16908060010160159054906101000a900460ff1690806002015490806003015f9054906101000a900460ff16905086565b606060025f8373ffffffffffffffffffffffffffffffffffffffff1673ffffffffffffffffffffffffffffffffffffffff1681526020019081526020015f2080548060200260200160405190810160405280929190818152602001828054801561030357602002820191905f5260205f20905b8154815260200190600101908083116102ef575b50505050509050919050565b60015481565b803414610357576040517f08c379a000000000000000000000000000000000000000000000000000000000815260040161034e90611470565b60405180910390fd5b6040518060c001604052803373ffffffffffffffffffffffffffffffffffffffff1681526020015f73ffffffffffffffffffffffffffffffffffffffff1681526020015f60038111156103ad576103ac61119b565b5b81526020015f60038111156103c5576103c461119b565b5b81526020018281526020015f60038111156103e3576103e261119b565b5b8152505f8060015481526020019081526020015f205f820151815f015f6101000a81548173ffffffffffffffffffffffffffffffffffffffff021916908373ffffffffffffffffffffffffffffffffffffffff1602179055506020820151816001015f6101000a81548173ffffffffffffffffffffffffffffffffffffffff021916908373ffffffffffffffffffffffffffffffffffffffff16021790555060408201518160010160146101000a81548160ff021916908360038111156104ad576104ac61119b565b5b021790555060608201518160010160156101000a81548160ff021916908360038111156104dd576104dc61119b565b5b02179055506080820151816002015560a0820151816003015f6101000a81548160ff021916908360038111156105165761051561119b565b5b021790555090505060025f3373ffffffffffffffffffffffffffffffffffffffff1673ffffffffffffffffffffffffffffffffffffffff1681526020019081526020015f20600154908060018154018082558091505060019003905f5260205f20015f90919091909150553373ffffffffffffffffffffffffffffffffffffffff166001547f7dfb67e9ff596fca4da65c7eedb128cd1aac553af54b3c0cb733625a2480d8bd836040516105ca9190611148565b60405180910390a360015f8154809291906105e4906114bb565b919050555050565b5f805f8481526020019081526020015f2090505f60038111156106125761061161119b565b5b8260038111156106255761062461119b565b5b03610665576040517f08c379a000000000000000000000000000000000000000000000000000000000815260040161065c9061154c565b60405180910390fd5b805f015f9054906101000a900473ffffffffffffffffffffffffffffffffffffffff1673ffffffffffffffffffffffffffffffffffffffff163373ffffffffffffffffffffffffffffffffffffffff16148061070f5750806001015f9054906101000a900473ffffffffffffffffffffffffffffffffffffffff1673ffffffffffffffffffffffffffffffffffffffff163373ffffffffffffffffffffffffffffffffffffffff16145b61074e576040517f08c379a0000000000000000000000000000000000000000000000000000000008152600401610745906115b4565b60405180910390fd5b805f015f9054906101000a900473ffffffffffffffffffffffffffffffffffffffff1673ffffffffffffffffffffffffffffffffffffffff163373ffffffffffffffffffffffffffffffffffffffff160361084b575f60038111156107b6576107b561119b565b5b8160010160149054906101000a900460ff1660038111156107da576107d961119b565b5b1461081a576040517f08c379a00000000000000000000000000000000000000000000000000000000081526004016108119061161c565b60405180910390fd5b818160010160146101000a81548160ff021916908360038111156108415761084061119b565b5b02179055506108ef565b5f600381111561085e5761085d61119b565b5b8160010160159054906101000a900460ff1660038111156108825761088161119b565b5b146108c2576040517f08c379a00000000000000000000000000000000000000000000000000000000081526004016108b990611684565b60405180910390fd5b818160010160156101000a81548160ff021916908360038111156108e9576108e861119b565b5b02179055505b3373ffffffffffffffffffffffffffffffffffffffff16837fa6e7005509cadc41086129610194d39ff0b053ed97e916ca2c33fae378ef83bb8460405161093691906116a2565b60405180910390a35f60038111156109515761095061119b565b5b8160010160149054906101000a900460ff1660038111156109755761097461119b565b5b141580156109b857505f60038111156109915761099061119b565b5b8160010160159054906101000a900460ff1660038111156109b5576109b461119b565b5b14155b156109c7576109c683610bed565b5b505050565b5f805f8381526020019081526020015f2090505f73ffffffffffffffffffffffffffffffffffffffff16815f015f9054906101000a900473ffffffffffffffffffffffffffffffffffffffff1673ffffffffffffffffffffffffffffffffffffffff1603610a6f576040517f08c379a0000000000000000000000000000000000000000000000000000000008152600401610a6690611705565b60405180910390fd5b5f73ffffffffffffffffffffffffffffffffffffffff16816001015f9054906101000a900473ffffffffffffffffffffffffffffffffffffffff1673ffffffffffffffffffffffffffffffffffffffff1614610b00576040517f08c379a0000000000000000000000000000000000000000000000000000000008152600401610af79061176d565b60405180910390fd5b80600201543414610b46576040517f08c379a0000000000000000000000000000000000000000000000000000000008152600401610b3d90611470565b60405180910390fd5b33816001015f6101000a81548173ffffffffffffffffffffffffffffffffffffffff021916908373ffffffffffffffffffffffffffffffffffffffff16021790555060025f3373ffffffffffffffffffffffffffffffffffffffff1673ffffffffffffffffffffffffffffffffffffffff1681526020019081526020015f2082908060018154018082558091505060019003905f5260205f20015f90919091909150555050565b5f805f8381526020019081526020015f2090508060010160159054906101000a900460ff166003811115610c2457610c2361119b565b5b8160010160149054906101000a900460ff166003811115610c4857610c4761119b565b5b03610d53576003816003015f6101000a81548160ff02191690836003811115610c7457610c7361119b565b5b0217905550805f015f9054906101000a900473ffffffffffffffffffffffffffffffffffffffff1673ffffffffffffffffffffffffffffffffffffffff166108fc826002015490811502906040515f60405180830381858888f19350505050158015610ce2573d5f803e3d5ffd5b50806001015f9054906101000a900473ffffffffffffffffffffffffffffffffffffffff1673ffffffffffffffffffffffffffffffffffffffff166108fc826002015490811502906040515f60405180830381858888f19350505050158015610d4d573d5f803e3d5ffd5b5061101e565b60016003811115610d6757610d6661119b565b5b8160010160149054906101000a900460ff166003811115610d8b57610d8a61119b565b5b148015610dcc5750600380811115610da657610da561119b565b5b8160010160159054906101000a900460ff166003811115610dca57610dc961119b565b5b145b80610e4d575060026003811115610de657610de561119b565b5b8160010160149054906101000a900460ff166003811115610e0a57610e0961119b565b5b148015610e4c575060016003811115610e2657610e2561119b565b5b8160010160159054906101000a900460ff166003811115610e4a57610e4961119b565b5b145b5b80610ecd5750600380811115610e6657610e6561119b565b5b8160010160149054906101000a900460ff166003811115610e8a57610e8961119b565b5b148015610ecc575060026003811115610ea657610ea561119b565b5b8160010160159054906101000a900460ff166003811115610eca57610ec961119b565b5b145b5b15610f79576001816003015f6101000a81548160ff02191690836003811115610ef957610ef861119b565b5b0217905550805f015f9054906101000a900473ffffffffffffffffffffffffffffffffffffffff1673ffffffffffffffffffffffffffffffffffffffff166108fc60028360020154610f4b919061178b565b90811502906040515f60405180830381858888f19350505050158015610f73573d5f803e3d5ffd5b5061101d565b6002816003015f6101000a81548160ff02191690836003811115610fa057610f9f61119b565b5b0217905550806001015f9054906101000a900473ffffffffffffffffffffffffffffffffffffffff1673ffffffffffffffffffffffffffffffffffffffff166108fc60028360020154610ff3919061178b565b90811502906040515f60405180830381858888f1935050505015801561101b573d5f803e3d5ffd5b505b5b817f36b2d7f009047b0bafdd214517cde657f4dc1bc0a293ea0e7ccc0942a7019ee7826003015f9054906101000a900460ff1660405161105e91906117cc565b60405180910390a25050565b5f80fd5b5f73ffffffffffffffffffffffffffffffffffffffff82169050919050565b5f6110978261106e565b9050919050565b6110a78161108d565b81146110b1575f80fd5b50565b5f813590506110c28161109e565b92915050565b5f819050919050565b6110da816110c8565b81146110e4575f80fd5b50565b5f813590506110f5816110d1565b92915050565b5f80604083850312156111115761111061106a565b5b5f61111e858286016110b4565b925050602061112f858286016110e7565b9150509250929050565b611142816110c8565b82525050565b5f60208201905061115b5f830184611139565b92915050565b5f602082840312156111765761117561106a565b5b5f611183848285016110e7565b91505092915050565b6111958161108d565b82525050565b7f4e487b71000000000000000000000000000000000000000000000000000000005f52602160045260245ffd5b600481106111d9576111d861119b565b5b50565b5f8190506111e9826111c8565b919050565b5f6111f8826111dc565b9050919050565b611208816111ee565b82525050565b6004811061121f5761121e61119b565b5b50565b5f81905061122f8261120e565b919050565b5f61123e82611222565b9050919050565b61124e81611234565b82525050565b5f60c0820190506112675f83018961118c565b611274602083018861118c565b61128160408301876111ff565b61128e60608301866111ff565b61129b6080830185611139565b6112a860a0830184611245565b979650505050505050565b5f602082840312156112c8576112c761106a565b5b5f6112d5848285016110b4565b91505092915050565b5f81519050919050565b5f82825260208201905092915050565b5f819050602082019050919050565b611310816110c8565b82525050565b5f6113218383611307565b60208301905092915050565b5f602082019050919050565b5f611343826112de565b61134d81856112e8565b9350611358836112f8565b805f5b8381101561138857815161136f8882611316565b975061137a8361132d565b92505060018101905061135b565b5085935050505092915050565b5f6020820190508181035f8301526113ad8184611339565b905092915050565b600481106113c1575f80fd5b50565b5f813590506113d2816113b5565b92915050565b5f80604083850312156113ee576113ed61106a565b5b5f6113fb858286016110e7565b925050602061140c858286016113c4565b9150509250929050565b5f82825260208201905092915050565b7f576167657220616d6f756e74206d69736d6174636800000000000000000000005f82015250565b5f61145a601583611416565b915061146582611426565b602082019050919050565b5f6020820190508181035f8301526114878161144e565b9050919050565b7f4e487b71000000000000000000000000000000000000000000000000000000005f52601160045260245ffd5b5f6114c5826110c8565b91507fffffffffffffffffffffffffffffffffffffffffffffffffffffffffffffffff82036114f7576114f661148e565b5b600182019050919050565b7f496e76616c6964206d6f766500000000000000000000000000000000000000005f82015250565b5f611536600c83611416565b915061154182611502565b602082019050919050565b5f6020820190508181035f8301526115638161152a565b9050919050565b7f4e6f74206120706c6179657220696e20746869732067616d65000000000000005f82015250565b5f61159e601983611416565b91506115a98261156a565b602082019050919050565b5f6020820190508181035f8301526115cb81611592565b9050919050565b7f506c61796572203120616c7265616479206d6164652061206d6f7665000000005f82015250565b5f611606601c83611416565b9150611611826115d2565b602082019050919050565b5f6020820190508181035f830152611633816115fa565b9050919050565b7f506c61796572203220616c7265616479206d6164652061206d6f7665000000005f82015250565b5f61166e601c83611416565b91506116798261163a565b602082019050919050565b5f6020820190508181035f83015261169b81611662565b9050919050565b5f6020820190506116b55f8301846111ff565b92915050565b7f47616d6520646f6573206e6f74206578697374000000000000000000000000005f82015250565b5f6116ef601383611416565b91506116fa826116bb565b602082019050919050565b5f6020820190508181035f83015261171c816116e3565b9050919050565b7f47616d6520616c7265616479206861732074776f20706c6179657273000000005f82015250565b5f611757601c83611416565b915061176282611723565b602082019050919050565b5f6020820190508181035f8301526117848161174b565b9050919050565b5f611795826110c8565b91506117a0836110c8565b92508282026117ae816110c8565b915082820484148315176117c5576117c461148e565b5b5092915050565b5f6020820190506117df5f830184611245565b9291505056fea26469706673582212204ebf1222c0e1f2481956eb5387055f716e3352986c6f061409dbc9c9260a44e764736f6c634300081a0033",
					"opcodes": "PUSH1 0x80 PUSH1 0x40 MSTORE CALLVALUE DUP1 ISZERO PUSH1 0xE JUMPI PUSH0 DUP1 REVERT JUMPDEST POP PUSH2 0x181B DUP1 PUSH2 0x1C PUSH0 CODECOPY PUSH0 RETURN INVALID PUSH1 0x80 PUSH1 0x40 MSTORE PUSH1 0x4 CALLDATASIZE LT PUSH2 0x6F JUMPI PUSH0 CALLDATALOAD PUSH1 0xE0 SHR DUP1 PUSH4 0x1BB412D6 GT PUSH2 0x4D JUMPI DUP1 PUSH4 0x1BB412D6 EQ PUSH2 0x12C JUMPI DUP1 PUSH4 0x48E837B9 EQ PUSH2 0x156 JUMPI DUP1 PUSH4 0x5CD7692E EQ PUSH2 0x172 JUMPI DUP1 PUSH4 0xEFAA55A0 EQ PUSH2 0x19A JUMPI PUSH2 0x6F JUMP JUMPDEST DUP1 PUSH4 0xA5694C2 EQ PUSH2 0x73 JUMPI DUP1 PUSH4 0x117A5B90 EQ PUSH2 0xAF JUMPI DUP1 PUSH4 0x129DAF84 EQ PUSH2 0xF0 JUMPI JUMPDEST PUSH0 DUP1 REVERT JUMPDEST CALLVALUE DUP1 ISZERO PUSH2 0x7E JUMPI PUSH0 DUP1 REVERT JUMPDEST POP PUSH2 0x99 PUSH1 0x4 DUP1 CALLDATASIZE SUB DUP2 ADD SWAP1 PUSH2 0x94 SWAP2 SWAP1 PUSH2 0x10FB JUMP JUMPDEST PUSH2 0x1B6 JUMP JUMPDEST PUSH1 0x40 MLOAD PUSH2 0xA6 SWAP2 SWAP1 PUSH2 0x1148 JUMP JUMPDEST PUSH1 0x40 MLOAD DUP1 SWAP2 SUB SWAP1 RETURN JUMPDEST CALLVALUE DUP1 ISZERO PUSH2 0xBA JUMPI PUSH0 DUP1 REVERT JUMPDEST POP PUSH2 0xD5 PUSH1 0x4 DUP1 CALLDATASIZE SUB DUP2 ADD SWAP1 PUSH2 0xD0 SWAP2 SWAP1 PUSH2 0x1161 JUMP JUMPDEST PUSH2 0x1E1 JUMP JUMPDEST PUSH1 0x40 MLOAD PUSH2 0xE7 SWAP7 SWAP6 SWAP5 SWAP4 SWAP3 SWAP2 SWAP1 PUSH2 0x1254 JUMP JUMPDEST PUSH1 0x40 MLOAD DUP1 SWAP2 SUB SWAP1 RETURN JUMPDEST CALLVALUE DUP1 ISZERO PUSH2 0xFB JUMPI PUSH0 DUP1 REVERT JUMPDEST POP PUSH2 0x116 PUSH1 0x4 DUP1 CALLDATASIZE SUB DUP2 ADD SWAP1 PUSH2 0x111 SWAP2 SWAP1 PUSH2 0x12B3 JUMP JUMPDEST PUSH2 0x27C JUMP JUMPDEST PUSH1 0x40 MLOAD PUSH2 0x123 SWAP2 SWAP1 PUSH2 0x1395 JUMP JUMPDEST PUSH1 0x40 MLOAD DUP1 SWAP2 SUB SWAP1 RETURN JUMPDEST CALLVALUE DUP1 ISZERO PUSH2 0x137 JUMPI PUSH0 DUP1 REVERT JUMPDEST POP PUSH2 0x140 PUSH2 0x30F JUMP JUMPDEST PUSH1 0x40 MLOAD PUSH2 0x14D SWAP2 SWAP1 PUSH2 0x1148 JUMP JUMPDEST PUSH1 0x40 MLOAD DUP1 SWAP2 SUB SWAP1 RETURN JUMPDEST PUSH2 0x170 PUSH1 0x4 DUP1 CALLDATASIZE SUB DUP2 ADD SWAP1 PUSH2 0x16B SWAP2 SWAP1 PUSH2 0x1161 JUMP JUMPDEST PUSH2 0x315 JUMP JUMPDEST STOP JUMPDEST CALLVALUE DUP1 ISZERO PUSH2 0x17D JUMPI PUSH0 DUP1 REVERT JUMPDEST POP PUSH2 0x198 PUSH1 0x4 DUP1 CALLDATASIZE SUB DUP2 ADD SWAP1 PUSH2 0x193 SWAP2 SWAP1 PUSH2 0x13D8 JUMP JUMPDEST PUSH2 0x5EC JUMP JUMPDEST STOP JUMPDEST PUSH2 0x1B4 PUSH1 0x4 DUP1 CALLDATASIZE SUB DUP2 ADD SWAP1 PUSH2 0x1AF SWAP2 SWAP1 PUSH2 0x1161 JUMP JUMPDEST PUSH2 0x9CC JUMP JUMPDEST STOP JUMPDEST PUSH1 0x2 PUSH1 0x20 MSTORE DUP2 PUSH0 MSTORE PUSH1 0x40 PUSH0 KECCAK256 DUP2 DUP2 SLOAD DUP2 LT PUSH2 0x1CF JUMPI PUSH0 DUP1 REVERT JUMPDEST SWAP1 PUSH0 MSTORE PUSH1 0x20 PUSH0 KECCAK256 ADD PUSH0 SWAP2 POP SWAP2 POP POP SLOAD DUP2 JUMP JUMPDEST PUSH0 PUSH1 0x20 MSTORE DUP1 PUSH0 MSTORE PUSH1 0x40 PUSH0 KECCAK256 PUSH0 SWAP2 POP SWAP1 POP DUP1 PUSH0 ADD PUSH0 SWAP1 SLOAD SWAP1 PUSH2 0x100 EXP SWAP1 DIV PUSH20 0xFFFFFFFFFFFFFFFFFFFFFFFFFFFFFFFFFFFFFFFF AND SWAP1 DUP1 PUSH1 0x1 ADD PUSH0 SWAP1 SLOAD SWAP1 PUSH2 0x100 EXP SWAP1 DIV PUSH20 0xFFFFFFFFFFFFFFFFFFFFFFFFFFFFFFFFFFFFFFFF AND SWAP1 DUP1 PUSH1 0x1 ADD PUSH1 0x14 SWAP1 SLOAD SWAP1 PUSH2 0x100 EXP SWAP1 DIV PUSH1 0xFF AND SWAP1 DUP1 PUSH1 0x1 ADD PUSH1 0x15 SWAP1 SLOAD SWAP1 PUSH2 0x100 EXP SWAP1 DIV PUSH1 0xFF AND SWAP1 DUP1 PUSH1 0x2 ADD SLOAD SWAP1 DUP1 PUSH1 0x3 ADD PUSH0 SWAP1 SLOAD SWAP1 PUSH2 0x100 EXP SWAP1 DIV PUSH1 0xFF AND SWAP1 POP DUP7 JUMP JUMPDEST PUSH1 0x60 PUSH1 0x2 PUSH0 DUP4 PUSH20 0xFFFFFFFFFFFFFFFFFFFFFFFFFFFFFFFFFFFFFFFF AND PUSH20 0xFFFFFFFFFFFFFFFFFFFFFFFFFFFFFFFFFFFFFFFF AND DUP2 MSTORE PUSH1 0x20 ADD SWAP1 DUP2 MSTORE PUSH1 0x20 ADD PUSH0 KECCAK256 DUP1 SLOAD DUP1 PUSH1 0x20 MUL PUSH1 0x20 ADD PUSH1 0x40 MLOAD SWAP1 DUP2 ADD PUSH1 0x40 MSTORE DUP1 SWAP3 SWAP2 SWAP1 DUP2 DUP2 MSTORE PUSH1 0x20 ADD DUP3 DUP1 SLOAD DUP1 ISZERO PUSH2 0x303 JUMPI PUSH1 0x20 MUL DUP3 ADD SWAP2 SWAP1 PUSH0 MSTORE PUSH1 0x20 PUSH0 KECCAK256 SWAP1 JUMPDEST DUP2 SLOAD DUP2 MSTORE PUSH1 0x20 ADD SWAP1 PUSH1 0x1 ADD SWAP1 DUP1 DUP4 GT PUSH2 0x2EF JUMPI JUMPDEST POP POP POP POP POP SWAP1 POP SWAP2 SWAP1 POP JUMP JUMPDEST PUSH1 0x1 SLOAD DUP2 JUMP JUMPDEST DUP1 CALLVALUE EQ PUSH2 0x357 JUMPI PUSH1 0x40 MLOAD PUSH32 0x8C379A000000000000000000000000000000000000000000000000000000000 DUP2 MSTORE PUSH1 0x4 ADD PUSH2 0x34E SWAP1 PUSH2 0x1470 JUMP JUMPDEST PUSH1 0x40 MLOAD DUP1 SWAP2 SUB SWAP1 REVERT JUMPDEST PUSH1 0x40 MLOAD DUP1 PUSH1 0xC0 ADD PUSH1 0x40 MSTORE DUP1 CALLER PUSH20 0xFFFFFFFFFFFFFFFFFFFFFFFFFFFFFFFFFFFFFFFF AND DUP2 MSTORE PUSH1 0x20 ADD PUSH0 PUSH20 0xFFFFFFFFFFFFFFFFFFFFFFFFFFFFFFFFFFFFFFFF AND DUP2 MSTORE PUSH1 0x20 ADD PUSH0 PUSH1 0x3 DUP2 GT ISZERO PUSH2 0x3AD JUMPI PUSH2 0x3AC PUSH2 0x119B JUMP JUMPDEST JUMPDEST DUP2 MSTORE PUSH1 0x20 ADD PUSH0 PUSH1 0x3 DUP2 GT ISZERO PUSH2 0x3C5 JUMPI PUSH2 0x3C4 PUSH2 0x119B JUMP JUMPDEST JUMPDEST DUP2 MSTORE PUSH1 0x20 ADD DUP3 DUP2 MSTORE PUSH1 0x20 ADD PUSH0 PUSH1 0x3 DUP2 GT ISZERO PUSH2 0x3E3 JUMPI PUSH2 0x3E2 PUSH2 0x119B JUMP JUMPDEST JUMPDEST DUP2 MSTORE POP PUSH0 DUP1 PUSH1 0x1 SLOAD DUP2 MSTORE PUSH1 0x20 ADD SWAP1 DUP2 MSTORE PUSH1 0x20 ADD PUSH0 KECCAK256 PUSH0 DUP3 ADD MLOAD DUP2 PUSH0 ADD PUSH0 PUSH2 0x100 EXP DUP2 SLOAD DUP2 PUSH20 0xFFFFFFFFFFFFFFFFFFFFFFFFFFFFFFFFFFFFFFFF MUL NOT AND SWAP1 DUP4 PUSH20 0xFFFFFFFFFFFFFFFFFFFFFFFFFFFFFFFFFFFFFFFF AND MUL OR SWAP1 SSTORE POP PUSH1 0x20 DUP3 ADD MLOAD DUP2 PUSH1 0x1 ADD PUSH0 PUSH2 0x100 EXP DUP2 SLOAD DUP2 PUSH20 0xFFFFFFFFFFFFFFFFFFFFFFFFFFFFFFFFFFFFFFFF MUL NOT AND SWAP1 DUP4 PUSH20 0xFFFFFFFFFFFFFFFFFFFFFFFFFFFFFFFFFFFFFFFF AND MUL OR SWAP1 SSTORE POP PUSH1 0x40 DUP3 ADD MLOAD DUP2 PUSH1 0x1 ADD PUSH1 0x14 PUSH2 0x100 EXP DUP2 SLOAD DUP2 PUSH1 0xFF MUL NOT AND SWAP1 DUP4 PUSH1 0x3 DUP2 GT ISZERO PUSH2 0x4AD JUMPI PUSH2 0x4AC PUSH2 0x119B JUMP JUMPDEST JUMPDEST MUL OR SWAP1 SSTORE POP PUSH1 0x60 DUP3 ADD MLOAD DUP2 PUSH1 0x1 ADD PUSH1 0x15 PUSH2 0x100 EXP DUP2 SLOAD DUP2 PUSH1 0xFF MUL NOT AND SWAP1 DUP4 PUSH1 0x3 DUP2 GT ISZERO PUSH2 0x4DD JUMPI PUSH2 0x4DC PUSH2 0x119B JUMP JUMPDEST JUMPDEST MUL OR SWAP1 SSTORE POP PUSH1 0x80 DUP3 ADD MLOAD DUP2 PUSH1 0x2 ADD SSTORE PUSH1 0xA0 DUP3 ADD MLOAD DUP2 PUSH1 0x3 ADD PUSH0 PUSH2 0x100 EXP DUP2 SLOAD DUP2 PUSH1 0xFF MUL NOT AND SWAP1 DUP4 PUSH1 0x3 DUP2 GT ISZERO PUSH2 0x516 JUMPI PUSH2 0x515 PUSH2 0x119B JUMP JUMPDEST JUMPDEST MUL OR SWAP1 SSTORE POP SWAP1 POP POP PUSH1 0x2 PUSH0 CALLER PUSH20 0xFFFFFFFFFFFFFFFFFFFFFFFFFFFFFFFFFFFFFFFF AND PUSH20 0xFFFFFFFFFFFFFFFFFFFFFFFFFFFFFFFFFFFFFFFF AND DUP2 MSTORE PUSH1 0x20 ADD SWAP1 DUP2 MSTORE PUSH1 0x20 ADD PUSH0 KECCAK256 PUSH1 0x1 SLOAD SWAP1 DUP1 PUSH1 0x1 DUP2 SLOAD ADD DUP1 DUP3 SSTORE DUP1 SWAP2 POP POP PUSH1 0x1 SWAP1 SUB SWAP1 PUSH0 MSTORE PUSH1 0x20 PUSH0 KECCAK256 ADD PUSH0 SWAP1 SWAP2 SWAP1 SWAP2 SWAP1 SWAP2 POP SSTORE CALLER PUSH20 0xFFFFFFFFFFFFFFFFFFFFFFFFFFFFFFFFFFFFFFFF AND PUSH1 0x1 SLOAD PUSH32 0x7DFB67E9FF596FCA4DA65C7EEDB128CD1AAC553AF54B3C0CB733625A2480D8BD DUP4 PUSH1 0x40 MLOAD PUSH2 0x5CA SWAP2 SWAP1 PUSH2 0x1148 JUMP JUMPDEST PUSH1 0x40 MLOAD DUP1 SWAP2 SUB SWAP1 LOG3 PUSH1 0x1 PUSH0 DUP2 SLOAD DUP1 SWAP3 SWAP2 SWAP1 PUSH2 0x5E4 SWAP1 PUSH2 0x14BB JUMP JUMPDEST SWAP2 SWAP1 POP SSTORE POP POP JUMP JUMPDEST PUSH0 DUP1 PUSH0 DUP5 DUP2 MSTORE PUSH1 0x20 ADD SWAP1 DUP2 MSTORE PUSH1 0x20 ADD PUSH0 KECCAK256 SWAP1 POP PUSH0 PUSH1 0x3 DUP2 GT ISZERO PUSH2 0x612 JUMPI PUSH2 0x611 PUSH2 0x119B JUMP JUMPDEST JUMPDEST DUP3 PUSH1 0x3 DUP2 GT ISZERO PUSH2 0x625 JUMPI PUSH2 0x624 PUSH2 0x119B JUMP JUMPDEST JUMPDEST SUB PUSH2 0x665 JUMPI PUSH1 0x40 MLOAD PUSH32 0x8C379A000000000000000000000000000000000000000000000000000000000 DUP2 MSTORE PUSH1 0x4 ADD PUSH2 0x65C SWAP1 PUSH2 0x154C JUMP JUMPDEST PUSH1 0x40 MLOAD DUP1 SWAP2 SUB SWAP1 REVERT JUMPDEST DUP1 PUSH0 ADD PUSH0 SWAP1 SLOAD SWAP1 PUSH2 0x100 EXP SWAP1 DIV PUSH20 0xFFFFFFFFFFFFFFFFFFFFFFFFFFFFFFFFFFFFFFFF AND PUSH20 0xFFFFFFFFFFFFFFFFFFFFFFFFFFFFFFFFFFFFFFFF AND CALLER PUSH20 0xFFFFFFFFFFFFFFFFFFFFFFFFFFFFFFFFFFFFFFFF AND EQ DUP1 PUSH2 0x70F JUMPI POP DUP1 PUSH1 0x1 ADD PUSH0 SWAP1 SLOAD SWAP1 PUSH2 0x100 EXP SWAP1 DIV PUSH20 0xFFFFFFFFFFFFFFFFFFFFFFFFFFFFFFFFFFFFFFFF AND PUSH20 0xFFFFFFFFFFFFFFFFFFFFFFFFFFFFFFFFFFFFFFFF AND CALLER PUSH20 0xFFFFFFFFFFFFFFFFFFFFFFFFFFFFFFFFFFFFFFFF AND EQ JUMPDEST PUSH2 0x74E JUMPI PUSH1 0x40 MLOAD PUSH32 0x8C379A000000000000000000000000000000000000000000000000000000000 DUP2 MSTORE PUSH1 0x4 ADD PUSH2 0x745 SWAP1 PUSH2 0x15B4 JUMP JUMPDEST PUSH1 0x40 MLOAD DUP1 SWAP2 SUB SWAP1 REVERT JUMPDEST DUP1 PUSH0 ADD PUSH0 SWAP1 SLOAD SWAP1 PUSH2 0x100 EXP SWAP1 DIV PUSH20 0xFFFFFFFFFFFFFFFFFFFFFFFFFFFFFFFFFFFFFFFF AND PUSH20 0xFFFFFFFFFFFFFFFFFFFFFFFFFFFFFFFFFFFFFFFF AND CALLER PUSH20 0xFFFFFFFFFFFFFFFFFFFFFFFFFFFFFFFFFFFFFFFF AND SUB PUSH2 0x84B JUMPI PUSH0 PUSH1 0x3 DUP2 GT ISZERO PUSH2 0x7B6 JUMPI PUSH2 0x7B5 PUSH2 0x119B JUMP JUMPDEST JUMPDEST DUP2 PUSH1 0x1 ADD PUSH1 0x14 SWAP1 SLOAD SWAP1 PUSH2 0x100 EXP SWAP1 DIV PUSH1 0xFF AND PUSH1 0x3 DUP2 GT ISZERO PUSH2 0x7DA JUMPI PUSH2 0x7D9 PUSH2 0x119B JUMP JUMPDEST JUMPDEST EQ PUSH2 0x81A JUMPI PUSH1 0x40 MLOAD PUSH32 0x8C379A000000000000000000000000000000000000000000000000000000000 DUP2 MSTORE PUSH1 0x4 ADD PUSH2 0x811 SWAP1 PUSH2 0x161C JUMP JUMPDEST PUSH1 0x40 MLOAD DUP1 SWAP2 SUB SWAP1 REVERT JUMPDEST DUP2 DUP2 PUSH1 0x1 ADD PUSH1 0x14 PUSH2 0x100 EXP DUP2 SLOAD DUP2 PUSH1 0xFF MUL NOT AND SWAP1 DUP4 PUSH1 0x3 DUP2 GT ISZERO PUSH2 0x841 JUMPI PUSH2 0x840 PUSH2 0x119B JUMP JUMPDEST JUMPDEST MUL OR SWAP1 SSTORE POP PUSH2 0x8EF JUMP JUMPDEST PUSH0 PUSH1 0x3 DUP2 GT ISZERO PUSH2 0x85E JUMPI PUSH2 0x85D PUSH2 0x119B JUMP JUMPDEST JUMPDEST DUP2 PUSH1 0x1 ADD PUSH1 0x15 SWAP1 SLOAD SWAP1 PUSH2 0x100 EXP SWAP1 DIV PUSH1 0xFF AND PUSH1 0x3 DUP2 GT ISZERO PUSH2 0x882 JUMPI PUSH2 0x881 PUSH2 0x119B JUMP JUMPDEST JUMPDEST EQ PUSH2 0x8C2 JUMPI PUSH1 0x40 MLOAD PUSH32 0x8C379A000000000000000000000000000000000000000000000000000000000 DUP2 MSTORE PUSH1 0x4 ADD PUSH2 0x8B9 SWAP1 PUSH2 0x1684 JUMP JUMPDEST PUSH1 0x40 MLOAD DUP1 SWAP2 SUB SWAP1 REVERT JUMPDEST DUP2 DUP2 PUSH1 0x1 ADD PUSH1 0x15 PUSH2 0x100 EXP DUP2 SLOAD DUP2 PUSH1 0xFF MUL NOT AND SWAP1 DUP4 PUSH1 0x3 DUP2 GT ISZERO PUSH2 0x8E9 JUMPI PUSH2 0x8E8 PUSH2 0x119B JUMP JUMPDEST JUMPDEST MUL OR SWAP1 SSTORE POP JUMPDEST CALLER PUSH20 0xFFFFFFFFFFFFFFFFFFFFFFFFFFFFFFFFFFFFFFFF AND DUP4 PUSH32 0xA6E7005509CADC41086129610194D39FF0B053ED97E916CA2C33FAE378EF83BB DUP5 PUSH1 0x40 MLOAD PUSH2 0x936 SWAP2 SWAP1 PUSH2 0x16A2 JUMP JUMPDEST PUSH1 0x40 MLOAD DUP1 SWAP2 SUB SWAP1 LOG3 PUSH0 PUSH1 0x3 DUP2 GT ISZERO PUSH2 0x951 JUMPI PUSH2 0x950 PUSH2 0x119B JUMP JUMPDEST JUMPDEST DUP2 PUSH1 0x1 ADD PUSH1 0x14 SWAP1 SLOAD SWAP1 PUSH2 0x100 EXP SWAP1 DIV PUSH1 0xFF AND PUSH1 0x3 DUP2 GT ISZERO PUSH2 0x975 JUMPI PUSH2 0x974 PUSH2 0x119B JUMP JUMPDEST JUMPDEST EQ ISZERO DUP1 ISZERO PUSH2 0x9B8 JUMPI POP PUSH0 PUSH1 0x3 DUP2 GT ISZERO PUSH2 0x991 JUMPI PUSH2 0x990 PUSH2 0x119B JUMP JUMPDEST JUMPDEST DUP2 PUSH1 0x1 ADD PUSH1 0x15 SWAP1 SLOAD SWAP1 PUSH2 0x100 EXP SWAP1 DIV PUSH1 0xFF AND PUSH1 0x3 DUP2 GT ISZERO PUSH2 0x9B5 JUMPI PUSH2 0x9B4 PUSH2 0x119B JUMP JUMPDEST JUMPDEST EQ ISZERO JUMPDEST ISZERO PUSH2 0x9C7 JUMPI PUSH2 0x9C6 DUP4 PUSH2 0xBED JUMP JUMPDEST JUMPDEST POP POP POP JUMP JUMPDEST PUSH0 DUP1 PUSH0 DUP4 DUP2 MSTORE PUSH1 0x20 ADD SWAP1 DUP2 MSTORE PUSH1 0x20 ADD PUSH0 KECCAK256 SWAP1 POP PUSH0 PUSH20 0xFFFFFFFFFFFFFFFFFFFFFFFFFFFFFFFFFFFFFFFF AND DUP2 PUSH0 ADD PUSH0 SWAP1 SLOAD SWAP1 PUSH2 0x100 EXP SWAP1 DIV PUSH20 0xFFFFFFFFFFFFFFFFFFFFFFFFFFFFFFFFFFFFFFFF AND PUSH20 0xFFFFFFFFFFFFFFFFFFFFFFFFFFFFFFFFFFFFFFFF AND SUB PUSH2 0xA6F JUMPI PUSH1 0x40 MLOAD PUSH32 0x8C379A000000000000000000000000000000000000000000000000000000000 DUP2 MSTORE PUSH1 0x4 ADD PUSH2 0xA66 SWAP1 PUSH2 0x1705 JUMP JUMPDEST PUSH1 0x40 MLOAD DUP1 SWAP2 SUB SWAP1 REVERT JUMPDEST PUSH0 PUSH20 0xFFFFFFFFFFFFFFFFFFFFFFFFFFFFFFFFFFFFFFFF AND DUP2 PUSH1 0x1 ADD PUSH0 SWAP1 SLOAD SWAP1 PUSH2 0x100 EXP SWAP1 DIV PUSH20 0xFFFFFFFFFFFFFFFFFFFFFFFFFFFFFFFFFFFFFFFF AND PUSH20 0xFFFFFFFFFFFFFFFFFFFFFFFFFFFFFFFFFFFFFFFF AND EQ PUSH2 0xB00 JUMPI PUSH1 0x40 MLOAD PUSH32 0x8C379A000000000000000000000000000000000000000000000000000000000 DUP2 MSTORE PUSH1 0x4 ADD PUSH2 0xAF7 SWAP1 PUSH2 0x176D JUMP JUMPDEST PUSH1 0x40 MLOAD DUP1 SWAP2 SUB SWAP1 REVERT JUMPDEST DUP1 PUSH1 0x2 ADD SLOAD CALLVALUE EQ PUSH2 0xB46 JUMPI PUSH1 0x40 MLOAD PUSH32 0x8C379A000000000000000000000000000000000000000000000000000000000 DUP2 MSTORE PUSH1 0x4 ADD PUSH2 0xB3D SWAP1 PUSH2 0x1470 JUMP JUMPDEST PUSH1 0x40 MLOAD DUP1 SWAP2 SUB SWAP1 REVERT JUMPDEST CALLER DUP2 PUSH1 0x1 ADD PUSH0 PUSH2 0x100 EXP DUP2 SLOAD DUP2 PUSH20 0xFFFFFFFFFFFFFFFFFFFFFFFFFFFFFFFFFFFFFFFF MUL NOT AND SWAP1 DUP4 PUSH20 0xFFFFFFFFFFFFFFFFFFFFFFFFFFFFFFFFFFFFFFFF AND MUL OR SWAP1 SSTORE POP PUSH1 0x2 PUSH0 CALLER PUSH20 0xFFFFFFFFFFFFFFFFFFFFFFFFFFFFFFFFFFFFFFFF AND PUSH20 0xFFFFFFFFFFFFFFFFFFFFFFFFFFFFFFFFFFFFFFFF AND DUP2 MSTORE PUSH1 0x20 ADD SWAP1 DUP2 MSTORE PUSH1 0x20 ADD PUSH0 KECCAK256 DUP3 SWAP1 DUP1 PUSH1 0x1 DUP2 SLOAD ADD DUP1 DUP3 SSTORE DUP1 SWAP2 POP POP PUSH1 0x1 SWAP1 SUB SWAP1 PUSH0 MSTORE PUSH1 0x20 PUSH0 KECCAK256 ADD PUSH0 SWAP1 SWAP2 SWAP1 SWAP2 SWAP1 SWAP2 POP SSTORE POP POP JUMP JUMPDEST PUSH0 DUP1 PUSH0 DUP4 DUP2 MSTORE PUSH1 0x20 ADD SWAP1 DUP2 MSTORE PUSH1 0x20 ADD PUSH0 KECCAK256 SWAP1 POP DUP1 PUSH1 0x1 ADD PUSH1 0x15 SWAP1 SLOAD SWAP1 PUSH2 0x100 EXP SWAP1 DIV PUSH1 0xFF AND PUSH1 0x3 DUP2 GT ISZERO PUSH2 0xC24 JUMPI PUSH2 0xC23 PUSH2 0x119B JUMP JUMPDEST JUMPDEST DUP2 PUSH1 0x1 ADD PUSH1 0x14 SWAP1 SLOAD SWAP1 PUSH2 0x100 EXP SWAP1 DIV PUSH1 0xFF AND PUSH1 0x3 DUP2 GT ISZERO PUSH2 0xC48 JUMPI PUSH2 0xC47 PUSH2 0x119B JUMP JUMPDEST JUMPDEST SUB PUSH2 0xD53 JUMPI PUSH1 0x3 DUP2 PUSH1 0x3 ADD PUSH0 PUSH2 0x100 EXP DUP2 SLOAD DUP2 PUSH1 0xFF MUL NOT AND SWAP1 DUP4 PUSH1 0x3 DUP2 GT ISZERO PUSH2 0xC74 JUMPI PUSH2 0xC73 PUSH2 0x119B JUMP JUMPDEST JUMPDEST MUL OR SWAP1 SSTORE POP DUP1 PUSH0 ADD PUSH0 SWAP1 SLOAD SWAP1 PUSH2 0x100 EXP SWAP1 DIV PUSH20 0xFFFFFFFFFFFFFFFFFFFFFFFFFFFFFFFFFFFFFFFF AND PUSH20 0xFFFFFFFFFFFFFFFFFFFFFFFFFFFFFFFFFFFFFFFF AND PUSH2 0x8FC DUP3 PUSH1 0x2 ADD SLOAD SWAP1 DUP2 ISZERO MUL SWAP1 PUSH1 0x40 MLOAD PUSH0 PUSH1 0x40 MLOAD DUP1 DUP4 SUB DUP2 DUP6 DUP9 DUP9 CALL SWAP4 POP POP POP POP ISZERO DUP1 ISZERO PUSH2 0xCE2 JUMPI RETURNDATASIZE PUSH0 DUP1 RETURNDATACOPY RETURNDATASIZE PUSH0 REVERT JUMPDEST POP DUP1 PUSH1 0x1 ADD PUSH0 SWAP1 SLOAD SWAP1 PUSH2 0x100 EXP SWAP1 DIV PUSH20 0xFFFFFFFFFFFFFFFFFFFFFFFFFFFFFFFFFFFFFFFF AND PUSH20 0xFFFFFFFFFFFFFFFFFFFFFFFFFFFFFFFFFFFFFFFF AND PUSH2 0x8FC DUP3 PUSH1 0x2 ADD SLOAD SWAP1 DUP2 ISZERO MUL SWAP1 PUSH1 0x40 MLOAD PUSH0 PUSH1 0x40 MLOAD DUP1 DUP4 SUB DUP2 DUP6 DUP9 DUP9 CALL SWAP4 POP POP POP POP ISZERO DUP1 ISZERO PUSH2 0xD4D JUMPI RETURNDATASIZE PUSH0 DUP1 RETURNDATACOPY RETURNDATASIZE PUSH0 REVERT JUMPDEST POP PUSH2 0x101E JUMP JUMPDEST PUSH1 0x1 PUSH1 0x3 DUP2 GT ISZERO PUSH2 0xD67 JUMPI PUSH2 0xD66 PUSH2 0x119B JUMP JUMPDEST JUMPDEST DUP2 PUSH1 0x1 ADD PUSH1 0x14 SWAP1 SLOAD SWAP1 PUSH2 0x100 EXP SWAP1 DIV PUSH1 0xFF AND PUSH1 0x3 DUP2 GT ISZERO PUSH2 0xD8B JUMPI PUSH2 0xD8A PUSH2 0x119B JUMP JUMPDEST JUMPDEST EQ DUP1 ISZERO PUSH2 0xDCC JUMPI POP PUSH1 0x3 DUP1 DUP2 GT ISZERO PUSH2 0xDA6 JUMPI PUSH2 0xDA5 PUSH2 0x119B JUMP JUMPDEST JUMPDEST DUP2 PUSH1 0x1 ADD PUSH1 0x15 SWAP1 SLOAD SWAP1 PUSH2 0x100 EXP SWAP1 DIV PUSH1 0xFF AND PUSH1 0x3 DUP2 GT ISZERO PUSH2 0xDCA JUMPI PUSH2 0xDC9 PUSH2 0x119B JUMP JUMPDEST JUMPDEST EQ JUMPDEST DUP1 PUSH2 0xE4D JUMPI POP PUSH1 0x2 PUSH1 0x3 DUP2 GT ISZERO PUSH2 0xDE6 JUMPI PUSH2 0xDE5 PUSH2 0x119B JUMP JUMPDEST JUMPDEST DUP2 PUSH1 0x1 ADD PUSH1 0x14 SWAP1 SLOAD SWAP1 PUSH2 0x100 EXP SWAP1 DIV PUSH1 0xFF AND PUSH1 0x3 DUP2 GT ISZERO PUSH2 0xE0A JUMPI PUSH2 0xE09 PUSH2 0x119B JUMP JUMPDEST JUMPDEST EQ DUP1 ISZERO PUSH2 0xE4C JUMPI POP PUSH1 0x1 PUSH1 0x3 DUP2 GT ISZERO PUSH2 0xE26 JUMPI PUSH2 0xE25 PUSH2 0x119B JUMP JUMPDEST JUMPDEST DUP2 PUSH1 0x1 ADD PUSH1 0x15 SWAP1 SLOAD SWAP1 PUSH2 0x100 EXP SWAP1 DIV PUSH1 0xFF AND PUSH1 0x3 DUP2 GT ISZERO PUSH2 0xE4A JUMPI PUSH2 0xE49 PUSH2 0x119B JUMP JUMPDEST JUMPDEST EQ JUMPDEST JUMPDEST DUP1 PUSH2 0xECD JUMPI POP PUSH1 0x3 DUP1 DUP2 GT ISZERO PUSH2 0xE66 JUMPI PUSH2 0xE65 PUSH2 0x119B JUMP JUMPDEST JUMPDEST DUP2 PUSH1 0x1 ADD PUSH1 0x14 SWAP1 SLOAD SWAP1 PUSH2 0x100 EXP SWAP1 DIV PUSH1 0xFF AND PUSH1 0x3 DUP2 GT ISZERO PUSH2 0xE8A JUMPI PUSH2 0xE89 PUSH2 0x119B JUMP JUMPDEST JUMPDEST EQ DUP1 ISZERO PUSH2 0xECC JUMPI POP PUSH1 0x2 PUSH1 0x3 DUP2 GT ISZERO PUSH2 0xEA6 JUMPI PUSH2 0xEA5 PUSH2 0x119B JUMP JUMPDEST JUMPDEST DUP2 PUSH1 0x1 ADD PUSH1 0x15 SWAP1 SLOAD SWAP1 PUSH2 0x100 EXP SWAP1 DIV PUSH1 0xFF AND PUSH1 0x3 DUP2 GT ISZERO PUSH2 0xECA JUMPI PUSH2 0xEC9 PUSH2 0x119B JUMP JUMPDEST JUMPDEST EQ JUMPDEST JUMPDEST ISZERO PUSH2 0xF79 JUMPI PUSH1 0x1 DUP2 PUSH1 0x3 ADD PUSH0 PUSH2 0x100 EXP DUP2 SLOAD DUP2 PUSH1 0xFF MUL NOT AND SWAP1 DUP4 PUSH1 0x3 DUP2 GT ISZERO PUSH2 0xEF9 JUMPI PUSH2 0xEF8 PUSH2 0x119B JUMP JUMPDEST JUMPDEST MUL OR SWAP1 SSTORE POP DUP1 PUSH0 ADD PUSH0 SWAP1 SLOAD SWAP1 PUSH2 0x100 EXP SWAP1 DIV PUSH20 0xFFFFFFFFFFFFFFFFFFFFFFFFFFFFFFFFFFFFFFFF AND PUSH20 0xFFFFFFFFFFFFFFFFFFFFFFFFFFFFFFFFFFFFFFFF AND PUSH2 0x8FC PUSH1 0x2 DUP4 PUSH1 0x2 ADD SLOAD PUSH2 0xF4B SWAP2 SWAP1 PUSH2 0x178B JUMP JUMPDEST SWAP1 DUP2 ISZERO MUL SWAP1 PUSH1 0x40 MLOAD PUSH0 PUSH1 0x40 MLOAD DUP1 DUP4 SUB DUP2 DUP6 DUP9 DUP9 CALL SWAP4 POP POP POP POP ISZERO DUP1 ISZERO PUSH2 0xF73 JUMPI RETURNDATASIZE PUSH0 DUP1 RETURNDATACOPY RETURNDATASIZE PUSH0 REVERT JUMPDEST POP PUSH2 0x101D JUMP JUMPDEST PUSH1 0x2 DUP2 PUSH1 0x3 ADD PUSH0 PUSH2 0x100 EXP DUP2 SLOAD DUP2 PUSH1 0xFF MUL NOT AND SWAP1 DUP4 PUSH1 0x3 DUP2 GT ISZERO PUSH2 0xFA0 JUMPI PUSH2 0xF9F PUSH2 0x119B JUMP JUMPDEST JUMPDEST MUL OR SWAP1 SSTORE POP DUP1 PUSH1 0x1 ADD PUSH0 SWAP1 SLOAD SWAP1 PUSH2 0x100 EXP SWAP1 DIV PUSH20 0xFFFFFFFFFFFFFFFFFFFFFFFFFFFFFFFFFFFFFFFF AND PUSH20 0xFFFFFFFFFFFFFFFFFFFFFFFFFFFFFFFFFFFFFFFF AND PUSH2 0x8FC PUSH1 0x2 DUP4 PUSH1 0x2 ADD SLOAD PUSH2 0xFF3 SWAP2 SWAP1 PUSH2 0x178B JUMP JUMPDEST SWAP1 DUP2 ISZERO MUL SWAP1 PUSH1 0x40 MLOAD PUSH0 PUSH1 0x40 MLOAD DUP1 DUP4 SUB DUP2 DUP6 DUP9 DUP9 CALL SWAP4 POP POP POP POP ISZERO DUP1 ISZERO PUSH2 0x101B JUMPI RETURNDATASIZE PUSH0 DUP1 RETURNDATACOPY RETURNDATASIZE PUSH0 REVERT JUMPDEST POP JUMPDEST JUMPDEST DUP2 PUSH32 0x36B2D7F009047B0BAFDD214517CDE657F4DC1BC0A293EA0E7CCC0942A7019EE7 DUP3 PUSH1 0x3 ADD PUSH0 SWAP1 SLOAD SWAP1 PUSH2 0x100 EXP SWAP1 DIV PUSH1 0xFF AND PUSH1 0x40 MLOAD PUSH2 0x105E SWAP2 SWAP1 PUSH2 0x17CC JUMP JUMPDEST PUSH1 0x40 MLOAD DUP1 SWAP2 SUB SWAP1 LOG2 POP POP JUMP JUMPDEST PUSH0 DUP1 REVERT JUMPDEST PUSH0 PUSH20 0xFFFFFFFFFFFFFFFFFFFFFFFFFFFFFFFFFFFFFFFF DUP3 AND SWAP1 POP SWAP2 SWAP1 POP JUMP JUMPDEST PUSH0 PUSH2 0x1097 DUP3 PUSH2 0x106E JUMP JUMPDEST SWAP1 POP SWAP2 SWAP1 POP JUMP JUMPDEST PUSH2 0x10A7 DUP2 PUSH2 0x108D JUMP JUMPDEST DUP2 EQ PUSH2 0x10B1 JUMPI PUSH0 DUP1 REVERT JUMPDEST POP JUMP JUMPDEST PUSH0 DUP2 CALLDATALOAD SWAP1 POP PUSH2 0x10C2 DUP2 PUSH2 0x109E JUMP JUMPDEST SWAP3 SWAP2 POP POP JUMP JUMPDEST PUSH0 DUP2 SWAP1 POP SWAP2 SWAP1 POP JUMP JUMPDEST PUSH2 0x10DA DUP2 PUSH2 0x10C8 JUMP JUMPDEST DUP2 EQ PUSH2 0x10E4 JUMPI PUSH0 DUP1 REVERT JUMPDEST POP JUMP JUMPDEST PUSH0 DUP2 CALLDATALOAD SWAP1 POP PUSH2 0x10F5 DUP2 PUSH2 0x10D1 JUMP JUMPDEST SWAP3 SWAP2 POP POP JUMP JUMPDEST PUSH0 DUP1 PUSH1 0x40 DUP4 DUP6 SUB SLT ISZERO PUSH2 0x1111 JUMPI PUSH2 0x1110 PUSH2 0x106A JUMP JUMPDEST JUMPDEST PUSH0 PUSH2 0x111E DUP6 DUP3 DUP7 ADD PUSH2 0x10B4 JUMP JUMPDEST SWAP3 POP POP PUSH1 0x20 PUSH2 0x112F DUP6 DUP3 DUP7 ADD PUSH2 0x10E7 JUMP JUMPDEST SWAP2 POP POP SWAP3 POP SWAP3 SWAP1 POP JUMP JUMPDEST PUSH2 0x1142 DUP2 PUSH2 0x10C8 JUMP JUMPDEST DUP3 MSTORE POP POP JUMP JUMPDEST PUSH0 PUSH1 0x20 DUP3 ADD SWAP1 POP PUSH2 0x115B PUSH0 DUP4 ADD DUP5 PUSH2 0x1139 JUMP JUMPDEST SWAP3 SWAP2 POP POP JUMP JUMPDEST PUSH0 PUSH1 0x20 DUP3 DUP5 SUB SLT ISZERO PUSH2 0x1176 JUMPI PUSH2 0x1175 PUSH2 0x106A JUMP JUMPDEST JUMPDEST PUSH0 PUSH2 0x1183 DUP5 DUP3 DUP6 ADD PUSH2 0x10E7 JUMP JUMPDEST SWAP2 POP POP SWAP3 SWAP2 POP POP JUMP JUMPDEST PUSH2 0x1195 DUP2 PUSH2 0x108D JUMP JUMPDEST DUP3 MSTORE POP POP JUMP JUMPDEST PUSH32 0x4E487B7100000000000000000000000000000000000000000000000000000000 PUSH0 MSTORE PUSH1 0x21 PUSH1 0x4 MSTORE PUSH1 0x24 PUSH0 REVERT JUMPDEST PUSH1 0x4 DUP2 LT PUSH2 0x11D9 JUMPI PUSH2 0x11D8 PUSH2 0x119B JUMP JUMPDEST JUMPDEST POP JUMP JUMPDEST PUSH0 DUP2 SWAP1 POP PUSH2 0x11E9 DUP3 PUSH2 0x11C8 JUMP JUMPDEST SWAP2 SWAP1 POP JUMP JUMPDEST PUSH0 PUSH2 0x11F8 DUP3 PUSH2 0x11DC JUMP JUMPDEST SWAP1 POP SWAP2 SWAP1 POP JUMP JUMPDEST PUSH2 0x1208 DUP2 PUSH2 0x11EE JUMP JUMPDEST DUP3 MSTORE POP POP JUMP JUMPDEST PUSH1 0x4 DUP2 LT PUSH2 0x121F JUMPI PUSH2 0x121E PUSH2 0x119B JUMP JUMPDEST JUMPDEST POP JUMP JUMPDEST PUSH0 DUP2 SWAP1 POP PUSH2 0x122F DUP3 PUSH2 0x120E JUMP JUMPDEST SWAP2 SWAP1 POP JUMP JUMPDEST PUSH0 PUSH2 0x123E DUP3 PUSH2 0x1222 JUMP JUMPDEST SWAP1 POP SWAP2 SWAP1 POP JUMP JUMPDEST PUSH2 0x124E DUP2 PUSH2 0x1234 JUMP JUMPDEST DUP3 MSTORE POP POP JUMP JUMPDEST PUSH0 PUSH1 0xC0 DUP3 ADD SWAP1 POP PUSH2 0x1267 PUSH0 DUP4 ADD DUP10 PUSH2 0x118C JUMP JUMPDEST PUSH2 0x1274 PUSH1 0x20 DUP4 ADD DUP9 PUSH2 0x118C JUMP JUMPDEST PUSH2 0x1281 PUSH1 0x40 DUP4 ADD DUP8 PUSH2 0x11FF JUMP JUMPDEST PUSH2 0x128E PUSH1 0x60 DUP4 ADD DUP7 PUSH2 0x11FF JUMP JUMPDEST PUSH2 0x129B PUSH1 0x80 DUP4 ADD DUP6 PUSH2 0x1139 JUMP JUMPDEST PUSH2 0x12A8 PUSH1 0xA0 DUP4 ADD DUP5 PUSH2 0x1245 JUMP JUMPDEST SWAP8 SWAP7 POP POP POP POP POP POP POP JUMP JUMPDEST PUSH0 PUSH1 0x20 DUP3 DUP5 SUB SLT ISZERO PUSH2 0x12C8 JUMPI PUSH2 0x12C7 PUSH2 0x106A JUMP JUMPDEST JUMPDEST PUSH0 PUSH2 0x12D5 DUP5 DUP3 DUP6 ADD PUSH2 0x10B4 JUMP JUMPDEST SWAP2 POP POP SWAP3 SWAP2 POP POP JUMP JUMPDEST PUSH0 DUP2 MLOAD SWAP1 POP SWAP2 SWAP1 POP JUMP JUMPDEST PUSH0 DUP3 DUP3 MSTORE PUSH1 0x20 DUP3 ADD SWAP1 POP SWAP3 SWAP2 POP POP JUMP JUMPDEST PUSH0 DUP2 SWAP1 POP PUSH1 0x20 DUP3 ADD SWAP1 POP SWAP2 SWAP1 POP JUMP JUMPDEST PUSH2 0x1310 DUP2 PUSH2 0x10C8 JUMP JUMPDEST DUP3 MSTORE POP POP JUMP JUMPDEST PUSH0 PUSH2 0x1321 DUP4 DUP4 PUSH2 0x1307 JUMP JUMPDEST PUSH1 0x20 DUP4 ADD SWAP1 POP SWAP3 SWAP2 POP POP JUMP JUMPDEST PUSH0 PUSH1 0x20 DUP3 ADD SWAP1 POP SWAP2 SWAP1 POP JUMP JUMPDEST PUSH0 PUSH2 0x1343 DUP3 PUSH2 0x12DE JUMP JUMPDEST PUSH2 0x134D DUP2 DUP6 PUSH2 0x12E8 JUMP JUMPDEST SWAP4 POP PUSH2 0x1358 DUP4 PUSH2 0x12F8 JUMP JUMPDEST DUP1 PUSH0 JUMPDEST DUP4 DUP2 LT ISZERO PUSH2 0x1388 JUMPI DUP2 MLOAD PUSH2 0x136F DUP9 DUP3 PUSH2 0x1316 JUMP JUMPDEST SWAP8 POP PUSH2 0x137A DUP4 PUSH2 0x132D JUMP JUMPDEST SWAP3 POP POP PUSH1 0x1 DUP2 ADD SWAP1 POP PUSH2 0x135B JUMP JUMPDEST POP DUP6 SWAP4 POP POP POP POP SWAP3 SWAP2 POP POP JUMP JUMPDEST PUSH0 PUSH1 0x20 DUP3 ADD SWAP1 POP DUP2 DUP2 SUB PUSH0 DUP4 ADD MSTORE PUSH2 0x13AD DUP2 DUP5 PUSH2 0x1339 JUMP JUMPDEST SWAP1 POP SWAP3 SWAP2 POP POP JUMP JUMPDEST PUSH1 0x4 DUP2 LT PUSH2 0x13C1 JUMPI PUSH0 DUP1 REVERT JUMPDEST POP JUMP JUMPDEST PUSH0 DUP2 CALLDATALOAD SWAP1 POP PUSH2 0x13D2 DUP2 PUSH2 0x13B5 JUMP JUMPDEST SWAP3 SWAP2 POP POP JUMP JUMPDEST PUSH0 DUP1 PUSH1 0x40 DUP4 DUP6 SUB SLT ISZERO PUSH2 0x13EE JUMPI PUSH2 0x13ED PUSH2 0x106A JUMP JUMPDEST JUMPDEST PUSH0 PUSH2 0x13FB DUP6 DUP3 DUP7 ADD PUSH2 0x10E7 JUMP JUMPDEST SWAP3 POP POP PUSH1 0x20 PUSH2 0x140C DUP6 DUP3 DUP7 ADD PUSH2 0x13C4 JUMP JUMPDEST SWAP2 POP POP SWAP3 POP SWAP3 SWAP1 POP JUMP JUMPDEST PUSH0 DUP3 DUP3 MSTORE PUSH1 0x20 DUP3 ADD SWAP1 POP SWAP3 SWAP2 POP POP JUMP JUMPDEST PUSH32 0x576167657220616D6F756E74206D69736D617463680000000000000000000000 PUSH0 DUP3 ADD MSTORE POP JUMP JUMPDEST PUSH0 PUSH2 0x145A PUSH1 0x15 DUP4 PUSH2 0x1416 JUMP JUMPDEST SWAP2 POP PUSH2 0x1465 DUP3 PUSH2 0x1426 JUMP JUMPDEST PUSH1 0x20 DUP3 ADD SWAP1 POP SWAP2 SWAP1 POP JUMP JUMPDEST PUSH0 PUSH1 0x20 DUP3 ADD SWAP1 POP DUP2 DUP2 SUB PUSH0 DUP4 ADD MSTORE PUSH2 0x1487 DUP2 PUSH2 0x144E JUMP JUMPDEST SWAP1 POP SWAP2 SWAP1 POP JUMP JUMPDEST PUSH32 0x4E487B7100000000000000000000000000000000000000000000000000000000 PUSH0 MSTORE PUSH1 0x11 PUSH1 0x4 MSTORE PUSH1 0x24 PUSH0 REVERT JUMPDEST PUSH0 PUSH2 0x14C5 DUP3 PUSH2 0x10C8 JUMP JUMPDEST SWAP2 POP PUSH32 0xFFFFFFFFFFFFFFFFFFFFFFFFFFFFFFFFFFFFFFFFFFFFFFFFFFFFFFFFFFFFFFFF DUP3 SUB PUSH2 0x14F7 JUMPI PUSH2 0x14F6 PUSH2 0x148E JUMP JUMPDEST JUMPDEST PUSH1 0x1 DUP3 ADD SWAP1 POP SWAP2 SWAP1 POP JUMP JUMPDEST PUSH32 0x496E76616C6964206D6F76650000000000000000000000000000000000000000 PUSH0 DUP3 ADD MSTORE POP JUMP JUMPDEST PUSH0 PUSH2 0x1536 PUSH1 0xC DUP4 PUSH2 0x1416 JUMP JUMPDEST SWAP2 POP PUSH2 0x1541 DUP3 PUSH2 0x1502 JUMP JUMPDEST PUSH1 0x20 DUP3 ADD SWAP1 POP SWAP2 SWAP1 POP JUMP JUMPDEST PUSH0 PUSH1 0x20 DUP3 ADD SWAP1 POP DUP2 DUP2 SUB PUSH0 DUP4 ADD MSTORE PUSH2 0x1563 DUP2 PUSH2 0x152A JUMP JUMPDEST SWAP1 POP SWAP2 SWAP1 POP JUMP JUMPDEST PUSH32 0x4E6F74206120706C6179657220696E20746869732067616D6500000000000000 PUSH0 DUP3 ADD MSTORE POP JUMP JUMPDEST PUSH0 PUSH2 0x159E PUSH1 0x19 DUP4 PUSH2 0x1416 JUMP JUMPDEST SWAP2 POP PUSH2 0x15A9 DUP3 PUSH2 0x156A JUMP JUMPDEST PUSH1 0x20 DUP3 ADD SWAP1 POP SWAP2 SWAP1 POP JUMP JUMPDEST PUSH0 PUSH1 0x20 DUP3 ADD SWAP1 POP DUP2 DUP2 SUB PUSH0 DUP4 ADD MSTORE PUSH2 0x15CB DUP2 PUSH2 0x1592 JUMP JUMPDEST SWAP1 POP SWAP2 SWAP1 POP JUMP JUMPDEST PUSH32 0x506C61796572203120616C7265616479206D6164652061206D6F766500000000 PUSH0 DUP3 ADD MSTORE POP JUMP JUMPDEST PUSH0 PUSH2 0x1606 PUSH1 0x1C DUP4 PUSH2 0x1416 JUMP JUMPDEST SWAP2 POP PUSH2 0x1611 DUP3 PUSH2 0x15D2 JUMP JUMPDEST PUSH1 0x20 DUP3 ADD SWAP1 POP SWAP2 SWAP1 POP JUMP JUMPDEST PUSH0 PUSH1 0x20 DUP3 ADD SWAP1 POP DUP2 DUP2 SUB PUSH0 DUP4 ADD MSTORE PUSH2 0x1633 DUP2 PUSH2 0x15FA JUMP JUMPDEST SWAP1 POP SWAP2 SWAP1 POP JUMP JUMPDEST PUSH32 0x506C61796572203220616C7265616479206D6164652061206D6F766500000000 PUSH0 DUP3 ADD MSTORE POP JUMP JUMPDEST PUSH0 PUSH2 0x166E PUSH1 0x1C DUP4 PUSH2 0x1416 JUMP JUMPDEST SWAP2 POP PUSH2 0x1679 DUP3 PUSH2 0x163A JUMP JUMPDEST PUSH1 0x20 DUP3 ADD SWAP1 POP SWAP2 SWAP1 POP JUMP JUMPDEST PUSH0 PUSH1 0x20 DUP3 ADD SWAP1 POP DUP2 DUP2 SUB PUSH0 DUP4 ADD MSTORE PUSH2 0x169B DUP2 PUSH2 0x1662 JUMP JUMPDEST SWAP1 POP SWAP2 SWAP1 POP JUMP JUMPDEST PUSH0 PUSH1 0x20 DUP3 ADD SWAP1 POP PUSH2 0x16B5 PUSH0 DUP4 ADD DUP5 PUSH2 0x11FF JUMP JUMPDEST SWAP3 SWAP2 POP POP JUMP JUMPDEST PUSH32 0x47616D6520646F6573206E6F7420657869737400000000000000000000000000 PUSH0 DUP3 ADD MSTORE POP JUMP JUMPDEST PUSH0 PUSH2 0x16EF PUSH1 0x13 DUP4 PUSH2 0x1416 JUMP JUMPDEST SWAP2 POP PUSH2 0x16FA DUP3 PUSH2 0x16BB JUMP JUMPDEST PUSH1 0x20 DUP3 ADD SWAP1 POP SWAP2 SWAP1 POP JUMP JUMPDEST PUSH0 PUSH1 0x20 DUP3 ADD SWAP1 POP DUP2 DUP2 SUB PUSH0 DUP4 ADD MSTORE PUSH2 0x171C DUP2 PUSH2 0x16E3 JUMP JUMPDEST SWAP1 POP SWAP2 SWAP1 POP JUMP JUMPDEST PUSH32 0x47616D6520616C7265616479206861732074776F20706C617965727300000000 PUSH0 DUP3 ADD MSTORE POP JUMP JUMPDEST PUSH0 PUSH2 0x1757 PUSH1 0x1C DUP4 PUSH2 0x1416 JUMP JUMPDEST SWAP2 POP PUSH2 0x1762 DUP3 PUSH2 0x1723 JUMP JUMPDEST PUSH1 0x20 DUP3 ADD SWAP1 POP SWAP2 SWAP1 POP JUMP JUMPDEST PUSH0 PUSH1 0x20 DUP3 ADD SWAP1 POP DUP2 DUP2 SUB PUSH0 DUP4 ADD MSTORE PUSH2 0x1784 DUP2 PUSH2 0x174B JUMP JUMPDEST SWAP1 POP SWAP2 SWAP1 POP JUMP JUMPDEST PUSH0 PUSH2 0x1795 DUP3 PUSH2 0x10C8 JUMP JUMPDEST SWAP2 POP PUSH2 0x17A0 DUP4 PUSH2 0x10C8 JUMP JUMPDEST SWAP3 POP DUP3 DUP3 MUL PUSH2 0x17AE DUP2 PUSH2 0x10C8 JUMP JUMPDEST SWAP2 POP DUP3 DUP3 DIV DUP5 EQ DUP4 ISZERO OR PUSH2 0x17C5 JUMPI PUSH2 0x17C4 PUSH2 0x148E JUMP JUMPDEST JUMPDEST POP SWAP3 SWAP2 POP POP JUMP JUMPDEST PUSH0 PUSH1 0x20 DUP3 ADD SWAP1 POP PUSH2 0x17DF PUSH0 DUP4 ADD DUP5 PUSH2 0x1245 JUMP JUMPDEST SWAP3 SWAP2 POP POP JUMP INVALID LOG2 PUSH5 0x6970667358 0x22 SLT KECCAK256 0x4E 0xBF SLT 0x22 0xC0 0xE1 CALLCODE BASEFEE NOT JUMP 0xEB MSTORE8 DUP8 SDIV PUSH0 PUSH18 0x6E3352986C6F061409DBC9C9260A44E76473 PUSH16 0x6C634300081A00330000000000000000 "
				},
				"gasEstimates": {
					"creation": {
						"codeDepositCost": "1234200",
						"executionCost": "1279",
						"totalCost": "1235479"
					},
					"external": {
						"createGame(uint256)": "infinite",
						"gameIdCounter()": "2425",
						"games(uint256)": "infinite",
						"getPlayerGames(address)": "infinite",
						"joinGame(uint256)": "77786",
						"play(uint256,uint8)": "infinite",
						"playerGames(address,uint256)": "infinite"
					},
					"internal": {
						"resolveGame(uint256)": "infinite"
					}
				},
				"methodIdentifiers": {
					"createGame(uint256)": "48e837b9",
					"gameIdCounter()": "1bb412d6",
					"games(uint256)": "117a5b90",
					"getPlayerGames(address)": "129daf84",
					"joinGame(uint256)": "efaa55a0",
					"play(uint256,uint8)": "5cd7692e",
					"playerGames(address,uint256)": "0a5694c2"
				}
			},
			"storageLayout": {
				"storage": [
					{
						"astId": 33,
						"contract": "contracts/RPS-front.sol:RockPaperScissors",
						"label": "games",
						"offset": 0,
						"slot": "0",
						"type": "t_mapping(t_uint256,t_struct(Game)28_storage)"
					},
					{
						"astId": 35,
						"contract": "contracts/RPS-front.sol:RockPaperScissors",
						"label": "gameIdCounter",
						"offset": 0,
						"slot": "1",
						"type": "t_uint256"
					},
					{
						"astId": 40,
						"contract": "contracts/RPS-front.sol:RockPaperScissors",
						"label": "playerGames",
						"offset": 0,
						"slot": "2",
						"type": "t_mapping(t_address,t_array(t_uint256)dyn_storage)"
					}
				],
				"types": {
					"t_address": {
						"encoding": "inplace",
						"label": "address",
						"numberOfBytes": "20"
					},
					"t_array(t_uint256)dyn_storage": {
						"base": "t_uint256",
						"encoding": "dynamic_array",
						"label": "uint256[]",
						"numberOfBytes": "32"
					},
					"t_enum(Move)7": {
						"encoding": "inplace",
						"label": "enum RockPaperScissors.Move",
						"numberOfBytes": "1"
					},
					"t_enum(Result)12": {
						"encoding": "inplace",
						"label": "enum RockPaperScissors.Result",
						"numberOfBytes": "1"
					},
					"t_mapping(t_address,t_array(t_uint256)dyn_storage)": {
						"encoding": "mapping",
						"key": "t_address",
						"label": "mapping(address => uint256[])",
						"numberOfBytes": "32",
						"value": "t_array(t_uint256)dyn_storage"
					},
					"t_mapping(t_uint256,t_struct(Game)28_storage)": {
						"encoding": "mapping",
						"key": "t_uint256",
						"label": "mapping(uint256 => struct RockPaperScissors.Game)",
						"numberOfBytes": "32",
						"value": "t_struct(Game)28_storage"
					},
					"t_struct(Game)28_storage": {
						"encoding": "inplace",
						"label": "struct RockPaperScissors.Game",
						"members": [
							{
								"astId": 14,
								"contract": "contracts/RPS-front.sol:RockPaperScissors",
								"label": "player1",
								"offset": 0,
								"slot": "0",
								"type": "t_address"
							},
							{
								"astId": 16,
								"contract": "contracts/RPS-front.sol:RockPaperScissors",
								"label": "player2",
								"offset": 0,
								"slot": "1",
								"type": "t_address"
							},
							{
								"astId": 19,
								"contract": "contracts/RPS-front.sol:RockPaperScissors",
								"label": "move1",
								"offset": 20,
								"slot": "1",
								"type": "t_enum(Move)7"
							},
							{
								"astId": 22,
								"contract": "contracts/RPS-front.sol:RockPaperScissors",
								"label": "move2",
								"offset": 21,
								"slot": "1",
								"type": "t_enum(Move)7"
							},
							{
								"astId": 24,
								"contract": "contracts/RPS-front.sol:RockPaperScissors",
								"label": "wager",
								"offset": 0,
								"slot": "2",
								"type": "t_uint256"
							},
							{
								"astId": 27,
								"contract": "contracts/RPS-front.sol:RockPaperScissors",
								"label": "result",
								"offset": 0,
								"slot": "3",
								"type": "t_enum(Result)12"
							}
						],
						"numberOfBytes": "128"
					},
					"t_uint256": {
						"encoding": "inplace",
						"label": "uint256",
						"numberOfBytes": "32"
					}
				}
			},
			"userdoc": {
				"kind": "user",
				"methods": {},
				"version": 1
			}
		}
	}
}