{
	"contracts/RSP-2.sol": {
		"RockPaperScissors": {
			"abi": [
				{
					"inputs": [],
					"stateMutability": "nonpayable",
					"type": "constructor"
				},
				{
					"anonymous": false,
					"inputs": [
						{
							"indexed": true,
							"internalType": "address",
							"name": "player1",
							"type": "address"
						},
						{
							"indexed": true,
							"internalType": "address",
							"name": "player2",
							"type": "address"
						},
						{
							"indexed": false,
							"internalType": "string",
							"name": "result",
							"type": "string"
						},
						{
							"indexed": false,
							"internalType": "uint256",
							"name": "amount",
							"type": "uint256"
						}
					],
					"name": "GameResult",
					"type": "event"
				},
				{
					"anonymous": false,
					"inputs": [
						{
							"indexed": false,
							"internalType": "uint256",
							"name": "randomNumber",
							"type": "uint256"
						}
					],
					"name": "RandomNumberGenerated",
					"type": "event"
				},
				{
					"stateMutability": "payable",
					"type": "fallback"
				},
				{
					"inputs": [],
					"name": "MIN_BET",
					"outputs": [
						{
							"internalType": "uint256",
							"name": "",
							"type": "uint256"
						}
					],
					"stateMutability": "view",
					"type": "function"
				},
				{
					"inputs": [
						{
							"internalType": "enum RockPaperScissors.Move",
							"name": "_move",
							"type": "uint8"
						}
					],
					"name": "joinGame",
					"outputs": [],
					"stateMutability": "payable",
					"type": "function"
				},
				{
					"inputs": [],
					"name": "owner",
					"outputs": [
						{
							"internalType": "address",
							"name": "",
							"type": "address"
						}
					],
					"stateMutability": "view",
					"type": "function"
				},
				{
					"inputs": [
						{
							"internalType": "uint256",
							"name": "",
							"type": "uint256"
						}
					],
					"name": "players",
					"outputs": [
						{
							"internalType": "address payable",
							"name": "playerAddress",
							"type": "address"
						},
						{
							"internalType": "enum RockPaperScissors.Move",
							"name": "move",
							"type": "uint8"
						},
						{
							"internalType": "bool",
							"name": "hasPlayed",
							"type": "bool"
						}
					],
					"stateMutability": "view",
					"type": "function"
				},
				{
					"inputs": [],
					"name": "randomResult",
					"outputs": [
						{
							"internalType": "uint256",
							"name": "",
							"type": "uint256"
						}
					],
					"stateMutability": "view",
					"type": "function"
				},
				{
					"inputs": [
						{
							"internalType": "bytes32",
							"name": "requestId",
							"type": "bytes32"
						},
						{
							"internalType": "uint256",
							"name": "randomness",
							"type": "uint256"
						}
					],
					"name": "rawFulfillRandomness",
					"outputs": [],
					"stateMutability": "nonpayable",
					"type": "function"
				},
				{
					"inputs": [],
					"name": "withdraw",
					"outputs": [],
					"stateMutability": "nonpayable",
					"type": "function"
				},
				{
					"stateMutability": "payable",
					"type": "receive"
				}
			],
			"devdoc": {
				"kind": "dev",
				"methods": {},
				"version": 1
			},
			"evm": {
				"assembly": "    /* \"contracts/RSP-2.sol\":186:5509  contract RockPaperScissors is VRFConsumerBase {... */\n  mstore(0x40, 0xc0)\n    /* \"contracts/RSP-2.sol\":1165:1580  constructor()... */\n  callvalue\n  dup1\n  iszero\n  tag_1\n  jumpi\n  0x00\n  dup1\n  revert\ntag_1:\n  pop\n    /* \"contracts/RSP-2.sol\":1216:1258  0xDA3b641D438362C440Ac5458c57e00a712b66700 */\n  0xda3b641d438362c440ac5458c57e00a712b66700\n    /* \"contracts/RSP-2.sol\":1291:1333  0x84b9B910527Ad5C03A9Ca831909E21e236EA7b06 */\n  0x84b9b910527ad5c03a9ca831909e21e236ea7b06\n    /* \"@chainlink/contracts/src/v0.8/VRFConsumerBase.sol\":9323:9338  _vrfCoordinator */\n  dup2\n    /* \"@chainlink/contracts/src/v0.8/VRFConsumerBase.sol\":9306:9338  vrfCoordinator = _vrfCoordinator */\n  0xffffffffffffffffffffffffffffffffffffffff\n  and\n  0xa0\n  dup2\n  0xffffffffffffffffffffffffffffffffffffffff\n  and\n  dup2\n  mstore\n  pop\n  pop\n    /* \"@chainlink/contracts/src/v0.8/VRFConsumerBase.sol\":9370:9375  _link */\n  dup1\n    /* \"@chainlink/contracts/src/v0.8/VRFConsumerBase.sol\":9344:9376  LINK = LinkTokenInterface(_link) */\n  0xffffffffffffffffffffffffffffffffffffffff\n  and\n  0x80\n  dup2\n  0xffffffffffffffffffffffffffffffffffffffff\n  and\n  dup2\n  mstore\n  pop\n  pop\n    /* \"@chainlink/contracts/src/v0.8/VRFConsumerBase.sol\":9248:9381  constructor(address _vrfCoordinator, address _link) {... */\n  pop\n  pop\n    /* \"contracts/RSP-2.sol\":1388:1398  msg.sender */\n  caller\n    /* \"contracts/RSP-2.sol\":1380:1385  owner */\n  0x01\n  0x00\n    /* \"contracts/RSP-2.sol\":1380:1398  owner = msg.sender */\n  0x0100\n  exp\n  dup2\n  sload\n  dup2\n  0xffffffffffffffffffffffffffffffffffffffff\n  mul\n  not\n  and\n  swap1\n  dup4\n  0xffffffffffffffffffffffffffffffffffffffff\n  and\n  mul\n  or\n  swap1\n  sstore\n  pop\n    /* \"contracts/RSP-2.sol\":1418:1484  0x8596b430971ac45bdf6088665b9ad8e8630c9d5049ab54b14dff711bee7c0e26 */\n  0x8596b430971ac45bdf6088665b9ad8e8630c9d5049ab54b14dff711bee7c0e26\n    /* \"contracts/RSP-2.sol\":1408:1484  keyHash = 0x8596b430971ac45bdf6088665b9ad8e8630c9d5049ab54b14dff711bee7c0e26 */\n  0x00\n  shl\n    /* \"contracts/RSP-2.sol\":1408:1415  keyHash */\n  0x04\n    /* \"contracts/RSP-2.sol\":1408:1484  keyHash = 0x8596b430971ac45bdf6088665b9ad8e8630c9d5049ab54b14dff711bee7c0e26 */\n  dup2\n  swap1\n  sstore\n  pop\n    /* \"contracts/RSP-2.sol\":1520:1532  0.1 * 10**18 */\n  0x016345785d8a0000\n    /* \"contracts/RSP-2.sol\":1514:1517  fee */\n  0x05\n    /* \"contracts/RSP-2.sol\":1514:1532  fee = 0.1 * 10**18 */\n  dup2\n  swap1\n  sstore\n  pop\n    /* \"contracts/RSP-2.sol\":186:5509  contract RockPaperScissors is VRFConsumerBase {... */\n  mload(0x80)\n  mload(0xa0)\n  codecopy(0x00, dataOffset(sub_0), dataSize(sub_0))\n  0x00\n  assignImmutable(\"0x6dbb33232cde86c8a04f90a8bed9fc1c5ef520188a14538d96eb100d69bc2a94\")\n  0x00\n  assignImmutable(\"0xb2219b801710730437d0358146c829b62297a059eceaa0b40b27aea2daecf595\")\n  return(0x00, dataSize(sub_0))\nstop\n\nsub_0: assembly {\n        /* \"contracts/RSP-2.sol\":186:5509  contract RockPaperScissors is VRFConsumerBase {... */\n      mstore(0x40, 0x80)\n      jumpi(tag_1, lt(calldatasize, 0x04))\n      shr(0xe0, calldataload(0x00))\n      dup1\n      0x8da5cb5b\n      gt\n      tag_10\n      jumpi\n      dup1\n      0x8da5cb5b\n      eq\n      tag_6\n      jumpi\n      dup1\n      0x94985ddd\n      eq\n      tag_7\n      jumpi\n      dup1\n      0xd0ae92fb\n      eq\n      tag_8\n      jumpi\n      dup1\n      0xf71d96cb\n      eq\n      tag_9\n      jumpi\n      jump(tag_2)\n    tag_10:\n      dup1\n      0x3ccfd60b\n      eq\n      tag_3\n      jumpi\n      dup1\n      0x42619f66\n      eq\n      tag_4\n      jumpi\n      dup1\n      0x6540742f\n      eq\n      tag_5\n      jumpi\n      jump(tag_2)\n    tag_1:\n      jumpi(tag_2, calldatasize)\n      stop\n    tag_2:\n      stop\n        /* \"contracts/RSP-2.sol\":5192:5351  function withdraw() public {... */\n    tag_3:\n      callvalue\n      dup1\n      iszero\n      tag_15\n      jumpi\n      0x00\n      dup1\n      revert\n    tag_15:\n      pop\n      tag_16\n      tag_17\n      jump\t// in\n    tag_16:\n      stop\n        /* \"contracts/RSP-2.sol\":963:990  uint256 public randomResult */\n    tag_4:\n      callvalue\n      dup1\n      iszero\n      tag_18\n      jumpi\n      0x00\n      dup1\n      revert\n    tag_18:\n      pop\n      tag_19\n      tag_20\n      jump\t// in\n    tag_19:\n      mload(0x40)\n      tag_21\n      swap2\n      swap1\n      tag_22\n      jump\t// in\n    tag_21:\n      mload(0x40)\n      dup1\n      swap2\n      sub\n      swap1\n      return\n        /* \"contracts/RSP-2.sol\":342:388  uint256 public constant MIN_BET = 0.0001 ether */\n    tag_5:\n      callvalue\n      dup1\n      iszero\n      tag_23\n      jumpi\n      0x00\n      dup1\n      revert\n    tag_23:\n      pop\n      tag_24\n      tag_25\n      jump\t// in\n    tag_24:\n      mload(0x40)\n      tag_26\n      swap2\n      swap1\n      tag_22\n      jump\t// in\n    tag_26:\n      mload(0x40)\n      dup1\n      swap2\n      sub\n      swap1\n      return\n        /* \"contracts/RSP-2.sol\":275:295  address public owner */\n    tag_6:\n      callvalue\n      dup1\n      iszero\n      tag_27\n      jumpi\n      0x00\n      dup1\n      revert\n    tag_27:\n      pop\n      tag_28\n      tag_29\n      jump\t// in\n    tag_28:\n      mload(0x40)\n      tag_30\n      swap2\n      swap1\n      tag_31\n      jump\t// in\n    tag_30:\n      mload(0x40)\n      dup1\n      swap2\n      sub\n      swap1\n      return\n        /* \"@chainlink/contracts/src/v0.8/VRFConsumerBase.sol\":9576:9783  function rawFulfillRandomness(bytes32 requestId, uint256 randomness) external {... */\n    tag_7:\n      callvalue\n      dup1\n      iszero\n      tag_32\n      jumpi\n      0x00\n      dup1\n      revert\n    tag_32:\n      pop\n      tag_33\n      0x04\n      dup1\n      calldatasize\n      sub\n      dup2\n      add\n      swap1\n      tag_34\n      swap2\n      swap1\n      tag_35\n      jump\t// in\n    tag_34:\n      tag_36\n      jump\t// in\n    tag_33:\n      stop\n        /* \"contracts/RSP-2.sol\":1914:2877  function joinGame(Move _move) public payable {... */\n    tag_8:\n      tag_37\n      0x04\n      dup1\n      calldatasize\n      sub\n      dup2\n      add\n      swap1\n      tag_38\n      swap2\n      swap1\n      tag_39\n      jump\t// in\n    tag_38:\n      tag_40\n      jump\t// in\n    tag_37:\n      stop\n        /* \"contracts/RSP-2.sol\":841:865  Player[2] public players */\n    tag_9:\n      callvalue\n      dup1\n      iszero\n      tag_41\n      jumpi\n      0x00\n      dup1\n      revert\n    tag_41:\n      pop\n      tag_42\n      0x04\n      dup1\n      calldatasize\n      sub\n      dup2\n      add\n      swap1\n      tag_43\n      swap2\n      swap1\n      tag_44\n      jump\t// in\n    tag_43:\n      tag_45\n      jump\t// in\n    tag_42:\n      mload(0x40)\n      tag_46\n      swap4\n      swap3\n      swap2\n      swap1\n      tag_47\n      jump\t// in\n    tag_46:\n      mload(0x40)\n      dup1\n      swap2\n      sub\n      swap1\n      return\n        /* \"contracts/RSP-2.sol\":5192:5351  function withdraw() public {... */\n    tag_17:\n        /* \"contracts/RSP-2.sol\":5251:5256  owner */\n      0x01\n      0x00\n      swap1\n      sload\n      swap1\n      0x0100\n      exp\n      swap1\n      div\n      0xffffffffffffffffffffffffffffffffffffffff\n      and\n        /* \"contracts/RSP-2.sol\":5237:5256  msg.sender == owner */\n      0xffffffffffffffffffffffffffffffffffffffff\n      and\n        /* \"contracts/RSP-2.sol\":5237:5247  msg.sender */\n      caller\n        /* \"contracts/RSP-2.sol\":5237:5256  msg.sender == owner */\n      0xffffffffffffffffffffffffffffffffffffffff\n      and\n      eq\n        /* \"contracts/RSP-2.sol\":5229:5288  require(msg.sender == owner, \"Only the owner can withdraw\") */\n      tag_49\n      jumpi\n      mload(0x40)\n      0x08c379a000000000000000000000000000000000000000000000000000000000\n      dup2\n      mstore\n      0x04\n      add\n      tag_50\n      swap1\n      tag_51\n      jump\t// in\n    tag_50:\n      mload(0x40)\n      dup1\n      swap2\n      sub\n      swap1\n      revert\n    tag_49:\n        /* \"contracts/RSP-2.sol\":5306:5311  owner */\n      0x01\n      0x00\n      swap1\n      sload\n      swap1\n      0x0100\n      exp\n      swap1\n      div\n      0xffffffffffffffffffffffffffffffffffffffff\n      and\n        /* \"contracts/RSP-2.sol\":5298:5321  payable(owner).transfer */\n      0xffffffffffffffffffffffffffffffffffffffff\n      and\n        /* \"contracts/RSP-2.sol\":5298:5344  payable(owner).transfer(address(this).balance) */\n      0x08fc\n        /* \"contracts/RSP-2.sol\":5322:5343  address(this).balance */\n      selfbalance\n        /* \"contracts/RSP-2.sol\":5298:5344  payable(owner).transfer(address(this).balance) */\n      swap1\n      dup2\n      iszero\n      mul\n      swap1\n      mload(0x40)\n      0x00\n      mload(0x40)\n      dup1\n      dup4\n      sub\n      dup2\n      dup6\n      dup9\n      dup9\n      call\n      swap4\n      pop\n      pop\n      pop\n      pop\n      iszero\n      dup1\n      iszero\n      tag_53\n      jumpi\n      returndatasize\n      0x00\n      dup1\n      returndatacopy\n      revert(0x00, returndatasize)\n    tag_53:\n      pop\n        /* \"contracts/RSP-2.sol\":5192:5351  function withdraw() public {... */\n      jump\t// out\n        /* \"contracts/RSP-2.sol\":963:990  uint256 public randomResult */\n    tag_20:\n      sload(0x06)\n      dup2\n      jump\t// out\n        /* \"contracts/RSP-2.sol\":342:388  uint256 public constant MIN_BET = 0.0001 ether */\n    tag_25:\n        /* \"contracts/RSP-2.sol\":376:388  0.0001 ether */\n      0x5af3107a4000\n        /* \"contracts/RSP-2.sol\":342:388  uint256 public constant MIN_BET = 0.0001 ether */\n      dup2\n      jump\t// out\n        /* \"contracts/RSP-2.sol\":275:295  address public owner */\n    tag_29:\n      0x01\n      0x00\n      swap1\n      sload\n      swap1\n      0x0100\n      exp\n      swap1\n      div\n      0xffffffffffffffffffffffffffffffffffffffff\n      and\n      dup2\n      jump\t// out\n        /* \"@chainlink/contracts/src/v0.8/VRFConsumerBase.sol\":9576:9783  function rawFulfillRandomness(bytes32 requestId, uint256 randomness) external {... */\n    tag_36:\n        /* \"@chainlink/contracts/src/v0.8/VRFConsumerBase.sol\":9682:9696  vrfCoordinator */\n      immutable(\"0x6dbb33232cde86c8a04f90a8bed9fc1c5ef520188a14538d96eb100d69bc2a94\")\n        /* \"@chainlink/contracts/src/v0.8/VRFConsumerBase.sol\":9668:9696  msg.sender == vrfCoordinator */\n      0xffffffffffffffffffffffffffffffffffffffff\n      and\n        /* \"@chainlink/contracts/src/v0.8/VRFConsumerBase.sol\":9668:9678  msg.sender */\n      caller\n        /* \"@chainlink/contracts/src/v0.8/VRFConsumerBase.sol\":9668:9696  msg.sender == vrfCoordinator */\n      0xffffffffffffffffffffffffffffffffffffffff\n      and\n      eq\n        /* \"@chainlink/contracts/src/v0.8/VRFConsumerBase.sol\":9660:9732  require(msg.sender == vrfCoordinator, \"Only VRFCoordinator can fulfill\") */\n      tag_55\n      jumpi\n      mload(0x40)\n      0x08c379a000000000000000000000000000000000000000000000000000000000\n      dup2\n      mstore\n      0x04\n      add\n      tag_56\n      swap1\n      tag_57\n      jump\t// in\n    tag_56:\n      mload(0x40)\n      dup1\n      swap2\n      sub\n      swap1\n      revert\n    tag_55:\n        /* \"@chainlink/contracts/src/v0.8/VRFConsumerBase.sol\":9738:9778  fulfillRandomness(requestId, randomness) */\n      tag_58\n        /* \"@chainlink/contracts/src/v0.8/VRFConsumerBase.sol\":9756:9765  requestId */\n      dup3\n        /* \"@chainlink/contracts/src/v0.8/VRFConsumerBase.sol\":9767:9777  randomness */\n      dup3\n        /* \"@chainlink/contracts/src/v0.8/VRFConsumerBase.sol\":9738:9755  fulfillRandomness */\n      tag_59\n        /* \"@chainlink/contracts/src/v0.8/VRFConsumerBase.sol\":9738:9778  fulfillRandomness(requestId, randomness) */\n      jump\t// in\n    tag_58:\n        /* \"@chainlink/contracts/src/v0.8/VRFConsumerBase.sol\":9576:9783  function rawFulfillRandomness(bytes32 requestId, uint256 randomness) external {... */\n      pop\n      pop\n      jump\t// out\n        /* \"contracts/RSP-2.sol\":1914:2877  function joinGame(Move _move) public payable {... */\n    tag_40:\n        /* \"contracts/RSP-2.sol\":376:388  0.0001 ether */\n      0x5af3107a4000\n        /* \"contracts/RSP-2.sol\":1977:1986  msg.value */\n      callvalue\n        /* \"contracts/RSP-2.sol\":1977:1997  msg.value == MIN_BET */\n      eq\n        /* \"contracts/RSP-2.sol\":1969:2034  require(msg.value == MIN_BET, \"You must bet exactly 0.0001 tBNB\") */\n      tag_61\n      jumpi\n      mload(0x40)\n      0x08c379a000000000000000000000000000000000000000000000000000000000\n      dup2\n      mstore\n      0x04\n      add\n      tag_62\n      swap1\n      tag_63\n      jump\t// in\n    tag_62:\n      mload(0x40)\n      dup1\n      swap2\n      sub\n      swap1\n      revert\n    tag_61:\n        /* \"contracts/RSP-2.sol\":2148:2158  msg.sender */\n      caller\n        /* \"contracts/RSP-2.sol\":2120:2158  players[0].playerAddress != msg.sender */\n      0xffffffffffffffffffffffffffffffffffffffff\n      and\n        /* \"contracts/RSP-2.sol\":2120:2127  players */\n      0x02\n        /* \"contracts/RSP-2.sol\":2128:2129  0 */\n      0x00\n        /* \"contracts/RSP-2.sol\":2120:2130  players[0] */\n      0x02\n      dup2\n      lt\n      tag_64\n      jumpi\n      tag_65\n      tag_66\n      jump\t// in\n    tag_65:\n    tag_64:\n      add\n        /* \"contracts/RSP-2.sol\":2120:2144  players[0].playerAddress */\n      0x00\n      add\n      0x00\n      swap1\n      sload\n      swap1\n      0x0100\n      exp\n      swap1\n      div\n      0xffffffffffffffffffffffffffffffffffffffff\n      and\n        /* \"contracts/RSP-2.sol\":2120:2158  players[0].playerAddress != msg.sender */\n      0xffffffffffffffffffffffffffffffffffffffff\n      and\n      eq\n      iszero\n        /* \"contracts/RSP-2.sol\":2120:2216  players[0].playerAddress != msg.sender &&... */\n      dup1\n      iszero\n      tag_68\n      jumpi\n      pop\n        /* \"contracts/RSP-2.sol\":2206:2216  msg.sender */\n      caller\n        /* \"contracts/RSP-2.sol\":2178:2216  players[1].playerAddress != msg.sender */\n      0xffffffffffffffffffffffffffffffffffffffff\n      and\n        /* \"contracts/RSP-2.sol\":2178:2185  players */\n      0x02\n        /* \"contracts/RSP-2.sol\":2186:2187  1 */\n      0x01\n        /* \"contracts/RSP-2.sol\":2178:2188  players[1] */\n      0x02\n      dup2\n      lt\n      tag_69\n      jumpi\n      tag_70\n      tag_66\n      jump\t// in\n    tag_70:\n    tag_69:\n      add\n        /* \"contracts/RSP-2.sol\":2178:2202  players[1].playerAddress */\n      0x00\n      add\n      0x00\n      swap1\n      sload\n      swap1\n      0x0100\n      exp\n      swap1\n      div\n      0xffffffffffffffffffffffffffffffffffffffff\n      and\n        /* \"contracts/RSP-2.sol\":2178:2216  players[1].playerAddress != msg.sender */\n      0xffffffffffffffffffffffffffffffffffffffff\n      and\n      eq\n      iszero\n        /* \"contracts/RSP-2.sol\":2120:2216  players[0].playerAddress != msg.sender &&... */\n    tag_68:\n        /* \"contracts/RSP-2.sol\":2099:2269  require(... */\n      tag_72\n      jumpi\n      mload(0x40)\n      0x08c379a000000000000000000000000000000000000000000000000000000000\n      dup2\n      mstore\n      0x04\n      add\n      tag_73\n      swap1\n      tag_74\n      jump\t// in\n    tag_73:\n      mload(0x40)\n      dup1\n      swap2\n      sub\n      swap1\n      revert\n    tag_72:\n        /* \"contracts/RSP-2.sol\":2339:2346  players */\n      0x02\n        /* \"contracts/RSP-2.sol\":2347:2348  0 */\n      0x00\n        /* \"contracts/RSP-2.sol\":2339:2349  players[0] */\n      0x02\n      dup2\n      lt\n      tag_75\n      jumpi\n      tag_76\n      tag_66\n      jump\t// in\n    tag_76:\n    tag_75:\n      add\n        /* \"contracts/RSP-2.sol\":2339:2359  players[0].hasPlayed */\n      0x00\n      add\n      0x15\n      swap1\n      sload\n      swap1\n      0x0100\n      exp\n      swap1\n      div\n      0xff\n      and\n        /* \"contracts/RSP-2.sol\":2334:2683  if (!players[0].hasPlayed) {... */\n      tag_78\n      jumpi\n        /* \"contracts/RSP-2.sol\":2388:2428  Player(payable(msg.sender), _move, true) */\n      mload(0x40)\n      dup1\n      0x60\n      add\n      0x40\n      mstore\n      dup1\n        /* \"contracts/RSP-2.sol\":2403:2413  msg.sender */\n      caller\n        /* \"contracts/RSP-2.sol\":2388:2428  Player(payable(msg.sender), _move, true) */\n      0xffffffffffffffffffffffffffffffffffffffff\n      and\n      dup2\n      mstore\n      0x20\n      add\n        /* \"contracts/RSP-2.sol\":2416:2421  _move */\n      dup3\n        /* \"contracts/RSP-2.sol\":2388:2428  Player(payable(msg.sender), _move, true) */\n      0x02\n      dup2\n      gt\n      iszero\n      tag_79\n      jumpi\n      tag_80\n      tag_81\n      jump\t// in\n    tag_80:\n    tag_79:\n      dup2\n      mstore\n      0x20\n      add\n        /* \"contracts/RSP-2.sol\":2423:2427  true */\n      0x01\n        /* \"contracts/RSP-2.sol\":2388:2428  Player(payable(msg.sender), _move, true) */\n      iszero\n      iszero\n      dup2\n      mstore\n      pop\n        /* \"contracts/RSP-2.sol\":2375:2382  players */\n      0x02\n        /* \"contracts/RSP-2.sol\":2383:2384  0 */\n      0x00\n        /* \"contracts/RSP-2.sol\":2375:2385  players[0] */\n      0x02\n      dup2\n      lt\n      tag_82\n      jumpi\n      tag_83\n      tag_66\n      jump\t// in\n    tag_83:\n    tag_82:\n      add\n        /* \"contracts/RSP-2.sol\":2375:2428  players[0] = Player(payable(msg.sender), _move, true) */\n      0x00\n      dup3\n      add\n      mload\n      dup2\n      0x00\n      add\n      exp(0x0100, 0x00)\n      dup2\n      sload\n      dup2\n      0xffffffffffffffffffffffffffffffffffffffff\n      mul\n      not\n      and\n      swap1\n      dup4\n      0xffffffffffffffffffffffffffffffffffffffff\n      and\n      mul\n      or\n      swap1\n      sstore\n      pop\n      0x20\n      dup3\n      add\n      mload\n      dup2\n      0x00\n      add\n      exp(0x0100, 0x14)\n      dup2\n      sload\n      dup2\n      0xff\n      mul\n      not\n      and\n      swap1\n      dup4\n      0x02\n      dup2\n      gt\n      iszero\n      tag_85\n      jumpi\n      tag_86\n      tag_81\n      jump\t// in\n    tag_86:\n    tag_85:\n      mul\n      or\n      swap1\n      sstore\n      pop\n      0x40\n      dup3\n      add\n      mload\n      dup2\n      0x00\n      add\n      exp(0x0100, 0x15)\n      dup2\n      sload\n      dup2\n      0xff\n      mul\n      not\n      and\n      swap1\n      dup4\n      iszero\n      iszero\n      mul\n      or\n      swap1\n      sstore\n      pop\n      swap1\n      pop\n      pop\n        /* \"contracts/RSP-2.sol\":2334:2683  if (!players[0].hasPlayed) {... */\n      jump(tag_87)\n    tag_78:\n        /* \"contracts/RSP-2.sol\":2450:2457  players */\n      0x02\n        /* \"contracts/RSP-2.sol\":2458:2459  1 */\n      0x01\n        /* \"contracts/RSP-2.sol\":2450:2460  players[1] */\n      0x02\n      dup2\n      lt\n      tag_88\n      jumpi\n      tag_89\n      tag_66\n      jump\t// in\n    tag_89:\n    tag_88:\n      add\n        /* \"contracts/RSP-2.sol\":2450:2470  players[1].hasPlayed */\n      0x00\n      add\n      0x15\n      swap1\n      sload\n      swap1\n      0x0100\n      exp\n      swap1\n      div\n      0xff\n      and\n        /* \"contracts/RSP-2.sol\":2445:2683  if (!players[1].hasPlayed) {... */\n      tag_91\n      jumpi\n        /* \"contracts/RSP-2.sol\":2499:2539  Player(payable(msg.sender), _move, true) */\n      mload(0x40)\n      dup1\n      0x60\n      add\n      0x40\n      mstore\n      dup1\n        /* \"contracts/RSP-2.sol\":2514:2524  msg.sender */\n      caller\n        /* \"contracts/RSP-2.sol\":2499:2539  Player(payable(msg.sender), _move, true) */\n      0xffffffffffffffffffffffffffffffffffffffff\n      and\n      dup2\n      mstore\n      0x20\n      add\n        /* \"contracts/RSP-2.sol\":2527:2532  _move */\n      dup3\n        /* \"contracts/RSP-2.sol\":2499:2539  Player(payable(msg.sender), _move, true) */\n      0x02\n      dup2\n      gt\n      iszero\n      tag_92\n      jumpi\n      tag_93\n      tag_81\n      jump\t// in\n    tag_93:\n    tag_92:\n      dup2\n      mstore\n      0x20\n      add\n        /* \"contracts/RSP-2.sol\":2534:2538  true */\n      0x01\n        /* \"contracts/RSP-2.sol\":2499:2539  Player(payable(msg.sender), _move, true) */\n      iszero\n      iszero\n      dup2\n      mstore\n      pop\n        /* \"contracts/RSP-2.sol\":2486:2493  players */\n      0x02\n        /* \"contracts/RSP-2.sol\":2494:2495  1 */\n      0x01\n        /* \"contracts/RSP-2.sol\":2486:2496  players[1] */\n      0x02\n      dup2\n      lt\n      tag_94\n      jumpi\n      tag_95\n      tag_66\n      jump\t// in\n    tag_95:\n    tag_94:\n      add\n        /* \"contracts/RSP-2.sol\":2486:2539  players[1] = Player(payable(msg.sender), _move, true) */\n      0x00\n      dup3\n      add\n      mload\n      dup2\n      0x00\n      add\n      exp(0x0100, 0x00)\n      dup2\n      sload\n      dup2\n      0xffffffffffffffffffffffffffffffffffffffff\n      mul\n      not\n      and\n      swap1\n      dup4\n      0xffffffffffffffffffffffffffffffffffffffff\n      and\n      mul\n      or\n      swap1\n      sstore\n      pop\n      0x20\n      dup3\n      add\n      mload\n      dup2\n      0x00\n      add\n      exp(0x0100, 0x14)\n      dup2\n      sload\n      dup2\n      0xff\n      mul\n      not\n      and\n      swap1\n      dup4\n      0x02\n      dup2\n      gt\n      iszero\n      tag_97\n      jumpi\n      tag_98\n      tag_81\n      jump\t// in\n    tag_98:\n    tag_97:\n      mul\n      or\n      swap1\n      sstore\n      pop\n      0x40\n      dup3\n      add\n      mload\n      dup2\n      0x00\n      add\n      exp(0x0100, 0x15)\n      dup2\n      sload\n      dup2\n      0xff\n      mul\n      not\n      and\n      swap1\n      dup4\n      iszero\n      iszero\n      mul\n      or\n      swap1\n      sstore\n      pop\n      swap1\n      pop\n      pop\n        /* \"contracts/RSP-2.sol\":2445:2683  if (!players[1].hasPlayed) {... */\n      jump(tag_99)\n    tag_91:\n        /* \"contracts/RSP-2.sol\":2570:2672  revert(... */\n      mload(0x40)\n      0x08c379a000000000000000000000000000000000000000000000000000000000\n      dup2\n      mstore\n      0x04\n      add\n      tag_100\n      swap1\n      tag_101\n      jump\t// in\n    tag_100:\n      mload(0x40)\n      dup1\n      swap2\n      sub\n      swap1\n      revert\n        /* \"contracts/RSP-2.sol\":2445:2683  if (!players[1].hasPlayed) {... */\n    tag_99:\n        /* \"contracts/RSP-2.sol\":2334:2683  if (!players[0].hasPlayed) {... */\n    tag_87:\n        /* \"contracts/RSP-2.sol\":2779:2786  players */\n      0x02\n        /* \"contracts/RSP-2.sol\":2787:2788  0 */\n      0x00\n        /* \"contracts/RSP-2.sol\":2779:2789  players[0] */\n      0x02\n      dup2\n      lt\n      tag_102\n      jumpi\n      tag_103\n      tag_66\n      jump\t// in\n    tag_103:\n    tag_102:\n      add\n        /* \"contracts/RSP-2.sol\":2779:2799  players[0].hasPlayed */\n      0x00\n      add\n      0x15\n      swap1\n      sload\n      swap1\n      0x0100\n      exp\n      swap1\n      div\n      0xff\n      and\n        /* \"contracts/RSP-2.sol\":2779:2823  players[0].hasPlayed && players[1].hasPlayed */\n      dup1\n      iszero\n      tag_105\n      jumpi\n      pop\n        /* \"contracts/RSP-2.sol\":2803:2810  players */\n      0x02\n        /* \"contracts/RSP-2.sol\":2811:2812  1 */\n      0x01\n        /* \"contracts/RSP-2.sol\":2803:2813  players[1] */\n      0x02\n      dup2\n      lt\n      tag_106\n      jumpi\n      tag_107\n      tag_66\n      jump\t// in\n    tag_107:\n    tag_106:\n      add\n        /* \"contracts/RSP-2.sol\":2803:2823  players[1].hasPlayed */\n      0x00\n      add\n      0x15\n      swap1\n      sload\n      swap1\n      0x0100\n      exp\n      swap1\n      div\n      0xff\n      and\n        /* \"contracts/RSP-2.sol\":2779:2823  players[0].hasPlayed && players[1].hasPlayed */\n    tag_105:\n        /* \"contracts/RSP-2.sol\":2775:2871  if (players[0].hasPlayed && players[1].hasPlayed) {... */\n      iszero\n      tag_109\n      jumpi\n        /* \"contracts/RSP-2.sol\":2839:2860  requestRandomNumber() */\n      tag_110\n        /* \"contracts/RSP-2.sol\":2839:2858  requestRandomNumber */\n      tag_111\n        /* \"contracts/RSP-2.sol\":2839:2860  requestRandomNumber() */\n      jump\t// in\n    tag_110:\n      pop\n        /* \"contracts/RSP-2.sol\":2775:2871  if (players[0].hasPlayed && players[1].hasPlayed) {... */\n    tag_109:\n        /* \"contracts/RSP-2.sol\":1914:2877  function joinGame(Move _move) public payable {... */\n      pop\n      jump\t// out\n        /* \"contracts/RSP-2.sol\":841:865  Player[2] public players */\n    tag_45:\n      0x02\n      dup2\n      0x02\n      dup2\n      lt\n      tag_112\n      jumpi\n      0x00\n      dup1\n      revert\n    tag_112:\n      add\n      0x00\n      swap2\n      pop\n      swap1\n      pop\n      dup1\n      0x00\n      add\n      0x00\n      swap1\n      sload\n      swap1\n      0x0100\n      exp\n      swap1\n      div\n      0xffffffffffffffffffffffffffffffffffffffff\n      and\n      swap1\n      dup1\n      0x00\n      add\n      0x14\n      swap1\n      sload\n      swap1\n      0x0100\n      exp\n      swap1\n      div\n      0xff\n      and\n      swap1\n      dup1\n      0x00\n      add\n      0x15\n      swap1\n      sload\n      swap1\n      0x0100\n      exp\n      swap1\n      div\n      0xff\n      and\n      swap1\n      pop\n      dup4\n      jump\t// out\n        /* \"contracts/RSP-2.sol\":3269:3619  function fulfillRandomness(... */\n    tag_59:\n        /* \"contracts/RSP-2.sol\":3406:3416  randomness */\n      dup1\n        /* \"contracts/RSP-2.sol\":3391:3403  randomResult */\n      0x06\n        /* \"contracts/RSP-2.sol\":3391:3416  randomResult = randomness */\n      dup2\n      swap1\n      sstore\n      pop\n        /* \"contracts/RSP-2.sol\":3458:3491  RandomNumberGenerated(randomness) */\n      0xacb85192b17e57cdd6ffdc2af021cc70c3a2269771b37b82dd36695fec903af5\n        /* \"contracts/RSP-2.sol\":3480:3490  randomness */\n      dup2\n        /* \"contracts/RSP-2.sol\":3458:3491  RandomNumberGenerated(randomness) */\n      mload(0x40)\n      tag_115\n      swap2\n      swap1\n      tag_22\n      jump\t// in\n    tag_115:\n      mload(0x40)\n      dup1\n      swap2\n      sub\n      swap1\n      log1\n        /* \"contracts/RSP-2.sol\":3527:3558  determineWinner(randomness % 2) */\n      tag_116\n        /* \"contracts/RSP-2.sol\":3556:3557  2 */\n      0x02\n        /* \"contracts/RSP-2.sol\":3543:3553  randomness */\n      dup3\n        /* \"contracts/RSP-2.sol\":3543:3557  randomness % 2 */\n      tag_117\n      swap2\n      swap1\n      tag_118\n      jump\t// in\n    tag_117:\n        /* \"contracts/RSP-2.sol\":3527:3542  determineWinner */\n      tag_119\n        /* \"contracts/RSP-2.sol\":3527:3558  determineWinner(randomness % 2) */\n      jump\t// in\n    tag_116:\n        /* \"contracts/RSP-2.sol\":3269:3619  function fulfillRandomness(... */\n      pop\n      pop\n      jump\t// out\n        /* \"contracts/RSP-2.sol\":2946:3188  function requestRandomNumber() private returns (bytes32 requestId) {... */\n    tag_111:\n        /* \"contracts/RSP-2.sol\":2994:3011  bytes32 requestId */\n      0x00\n        /* \"contracts/RSP-2.sol\":3077:3080  fee */\n      sload(0x05)\n        /* \"contracts/RSP-2.sol\":3044:3048  LINK */\n      immutable(\"0xb2219b801710730437d0358146c829b62297a059eceaa0b40b27aea2daecf595\")\n        /* \"contracts/RSP-2.sol\":3044:3058  LINK.balanceOf */\n      0xffffffffffffffffffffffffffffffffffffffff\n      and\n      0x70a08231\n        /* \"contracts/RSP-2.sol\":3067:3071  this */\n      address\n        /* \"contracts/RSP-2.sol\":3044:3073  LINK.balanceOf(address(this)) */\n      mload(0x40)\n      dup3\n      0xffffffff\n      and\n      0xe0\n      shl\n      dup2\n      mstore\n      0x04\n      add\n      tag_121\n      swap2\n      swap1\n      tag_31\n      jump\t// in\n    tag_121:\n      0x20\n      mload(0x40)\n      dup1\n      dup4\n      sub\n      dup2\n      dup7\n      gas\n      staticcall\n      iszero\n      dup1\n      iszero\n      tag_123\n      jumpi\n      returndatasize\n      0x00\n      dup1\n      returndatacopy\n      revert(0x00, returndatasize)\n    tag_123:\n      pop\n      pop\n      pop\n      pop\n      mload(0x40)\n      returndatasize\n      not(0x1f)\n      0x1f\n      dup3\n      add\n      and\n      dup3\n      add\n      dup1\n      0x40\n      mstore\n      pop\n      dup2\n      add\n      swap1\n      tag_124\n      swap2\n      swap1\n      tag_125\n      jump\t// in\n    tag_124:\n        /* \"contracts/RSP-2.sol\":3044:3080  LINK.balanceOf(address(this)) >= fee */\n      lt\n      iszero\n        /* \"contracts/RSP-2.sol\":3023:3133  require(... */\n      tag_126\n      jumpi\n      mload(0x40)\n      0x08c379a000000000000000000000000000000000000000000000000000000000\n      dup2\n      mstore\n      0x04\n      add\n      tag_127\n      swap1\n      tag_128\n      jump\t// in\n    tag_127:\n      mload(0x40)\n      dup1\n      swap2\n      sub\n      swap1\n      revert\n    tag_126:\n        /* \"contracts/RSP-2.sol\":3150:3181  requestRandomness(keyHash, fee) */\n      tag_129\n        /* \"contracts/RSP-2.sol\":3168:3175  keyHash */\n      sload(0x04)\n        /* \"contracts/RSP-2.sol\":3177:3180  fee */\n      sload(0x05)\n        /* \"contracts/RSP-2.sol\":3150:3167  requestRandomness */\n      tag_130\n        /* \"contracts/RSP-2.sol\":3150:3181  requestRandomness(keyHash, fee) */\n      jump\t// in\n    tag_129:\n        /* \"contracts/RSP-2.sol\":3143:3181  return requestRandomness(keyHash, fee) */\n      swap1\n      pop\n        /* \"contracts/RSP-2.sol\":2946:3188  function requestRandomNumber() private returns (bytes32 requestId) {... */\n      swap1\n      jump\t// out\n        /* \"contracts/RSP-2.sol\":3702:4744  function determineWinner(uint256 randomOutcome) private {... */\n    tag_119:\n        /* \"contracts/RSP-2.sol\":3768:3789  Player memory player1 */\n      0x00\n        /* \"contracts/RSP-2.sol\":3792:3799  players */\n      0x02\n        /* \"contracts/RSP-2.sol\":3800:3801  0 */\n      0x00\n        /* \"contracts/RSP-2.sol\":3792:3802  players[0] */\n      0x02\n      dup2\n      lt\n      tag_132\n      jumpi\n      tag_133\n      tag_66\n      jump\t// in\n    tag_133:\n    tag_132:\n      add\n        /* \"contracts/RSP-2.sol\":3768:3802  Player memory player1 = players[0] */\n      mload(0x40)\n      dup1\n      0x60\n      add\n      0x40\n      mstore\n      swap1\n      dup2\n      0x00\n      dup3\n      add\n      0x00\n      swap1\n      sload\n      swap1\n      0x0100\n      exp\n      swap1\n      div\n      0xffffffffffffffffffffffffffffffffffffffff\n      and\n      0xffffffffffffffffffffffffffffffffffffffff\n      and\n      0xffffffffffffffffffffffffffffffffffffffff\n      and\n      dup2\n      mstore\n      0x20\n      add\n      0x00\n      dup3\n      add\n      0x14\n      swap1\n      sload\n      swap1\n      0x0100\n      exp\n      swap1\n      div\n      0xff\n      and\n      0x02\n      dup2\n      gt\n      iszero\n      tag_135\n      jumpi\n      tag_136\n      tag_81\n      jump\t// in\n    tag_136:\n    tag_135:\n      0x02\n      dup2\n      gt\n      iszero\n      tag_137\n      jumpi\n      tag_138\n      tag_81\n      jump\t// in\n    tag_138:\n    tag_137:\n      dup2\n      mstore\n      0x20\n      add\n      0x00\n      dup3\n      add\n      0x15\n      swap1\n      sload\n      swap1\n      0x0100\n      exp\n      swap1\n      div\n      0xff\n      and\n      iszero\n      iszero\n      iszero\n      iszero\n      dup2\n      mstore\n      pop\n      pop\n      swap1\n      pop\n        /* \"contracts/RSP-2.sol\":3812:3833  Player memory player2 */\n      0x00\n        /* \"contracts/RSP-2.sol\":3836:3843  players */\n      0x02\n        /* \"contracts/RSP-2.sol\":3844:3845  1 */\n      0x01\n        /* \"contracts/RSP-2.sol\":3836:3846  players[1] */\n      0x02\n      dup2\n      lt\n      tag_139\n      jumpi\n      tag_140\n      tag_66\n      jump\t// in\n    tag_140:\n    tag_139:\n      add\n        /* \"contracts/RSP-2.sol\":3812:3846  Player memory player2 = players[1] */\n      mload(0x40)\n      dup1\n      0x60\n      add\n      0x40\n      mstore\n      swap1\n      dup2\n      0x00\n      dup3\n      add\n      0x00\n      swap1\n      sload\n      swap1\n      0x0100\n      exp\n      swap1\n      div\n      0xffffffffffffffffffffffffffffffffffffffff\n      and\n      0xffffffffffffffffffffffffffffffffffffffff\n      and\n      0xffffffffffffffffffffffffffffffffffffffff\n      and\n      dup2\n      mstore\n      0x20\n      add\n      0x00\n      dup3\n      add\n      0x14\n      swap1\n      sload\n      swap1\n      0x0100\n      exp\n      swap1\n      div\n      0xff\n      and\n      0x02\n      dup2\n      gt\n      iszero\n      tag_142\n      jumpi\n      tag_143\n      tag_81\n      jump\t// in\n    tag_143:\n    tag_142:\n      0x02\n      dup2\n      gt\n      iszero\n      tag_144\n      jumpi\n      tag_145\n      tag_81\n      jump\t// in\n    tag_145:\n    tag_144:\n      dup2\n      mstore\n      0x20\n      add\n      0x00\n      dup3\n      add\n      0x15\n      swap1\n      sload\n      swap1\n      0x0100\n      exp\n      swap1\n      div\n      0xff\n      and\n      iszero\n      iszero\n      iszero\n      iszero\n      dup2\n      mstore\n      pop\n      pop\n      swap1\n      pop\n        /* \"contracts/RSP-2.sol\":3857:3877  string memory result */\n      0x60\n        /* \"contracts/RSP-2.sol\":3887:3901  uint256 reward */\n      0x00\n        /* \"contracts/RSP-2.sol\":3914:3915  2 */\n      0x02\n        /* \"contracts/RSP-2.sol\":376:388  0.0001 ether */\n      0x5af3107a4000\n        /* \"contracts/RSP-2.sol\":3904:3915  MIN_BET * 2 */\n      tag_146\n      swap2\n      swap1\n      tag_147\n      jump\t// in\n    tag_146:\n        /* \"contracts/RSP-2.sol\":3887:3915  uint256 reward = MIN_BET * 2 */\n      swap1\n      pop\n        /* \"contracts/RSP-2.sol\":3947:3948  0 */\n      0x00\n        /* \"contracts/RSP-2.sol\":3930:3943  randomOutcome */\n      dup6\n        /* \"contracts/RSP-2.sol\":3930:3948  randomOutcome == 0 */\n      sub\n        /* \"contracts/RSP-2.sol\":3926:4486  if (randomOutcome == 0) {... */\n      tag_148\n      jumpi\n        /* \"contracts/RSP-2.sol\":3993:4018  result = \"Player 1 wins!\" */\n      mload(0x40)\n      dup1\n      0x40\n      add\n      0x40\n      mstore\n      dup1\n      0x0e\n      dup2\n      mstore\n      0x20\n      add\n      0x506c6179657220312077696e7321000000000000000000000000000000000000\n      dup2\n      mstore\n      pop\n      swap2\n      pop\n        /* \"contracts/RSP-2.sol\":4082:4088  reward */\n      dup1\n        /* \"contracts/RSP-2.sol\":4057:4078  address(this).balance */\n      selfbalance\n        /* \"contracts/RSP-2.sol\":4057:4088  address(this).balance >= reward */\n      lt\n      iszero\n        /* \"contracts/RSP-2.sol\":4032:4152  require(... */\n      tag_149\n      jumpi\n      mload(0x40)\n      0x08c379a000000000000000000000000000000000000000000000000000000000\n      dup2\n      mstore\n      0x04\n      add\n      tag_150\n      swap1\n      tag_151\n      jump\t// in\n    tag_150:\n      mload(0x40)\n      dup1\n      swap2\n      sub\n      swap1\n      revert\n    tag_149:\n        /* \"contracts/RSP-2.sol\":4166:4173  player1 */\n      dup4\n        /* \"contracts/RSP-2.sol\":4166:4187  player1.playerAddress */\n      0x00\n      add\n      mload\n        /* \"contracts/RSP-2.sol\":4166:4196  player1.playerAddress.transfer */\n      0xffffffffffffffffffffffffffffffffffffffff\n      and\n        /* \"contracts/RSP-2.sol\":4166:4204  player1.playerAddress.transfer(reward) */\n      0x08fc\n        /* \"contracts/RSP-2.sol\":4197:4203  reward */\n      dup3\n        /* \"contracts/RSP-2.sol\":4166:4204  player1.playerAddress.transfer(reward) */\n      swap1\n      dup2\n      iszero\n      mul\n      swap1\n      mload(0x40)\n      0x00\n      mload(0x40)\n      dup1\n      dup4\n      sub\n      dup2\n      dup6\n      dup9\n      dup9\n      call\n      swap4\n      pop\n      pop\n      pop\n      pop\n      iszero\n      dup1\n      iszero\n      tag_153\n      jumpi\n      returndatasize\n      0x00\n      dup1\n      returndatacopy\n      revert(0x00, returndatasize)\n    tag_153:\n      pop\n        /* \"contracts/RSP-2.sol\":3926:4486  if (randomOutcome == 0) {... */\n      jump(tag_154)\n    tag_148:\n        /* \"contracts/RSP-2.sol\":4264:4289  result = \"Player 2 wins!\" */\n      mload(0x40)\n      dup1\n      0x40\n      add\n      0x40\n      mstore\n      dup1\n      0x0e\n      dup2\n      mstore\n      0x20\n      add\n      0x506c6179657220322077696e7321000000000000000000000000000000000000\n      dup2\n      mstore\n      pop\n      swap2\n      pop\n        /* \"contracts/RSP-2.sol\":4353:4359  reward */\n      dup1\n        /* \"contracts/RSP-2.sol\":4328:4349  address(this).balance */\n      selfbalance\n        /* \"contracts/RSP-2.sol\":4328:4359  address(this).balance >= reward */\n      lt\n      iszero\n        /* \"contracts/RSP-2.sol\":4303:4423  require(... */\n      tag_155\n      jumpi\n      mload(0x40)\n      0x08c379a000000000000000000000000000000000000000000000000000000000\n      dup2\n      mstore\n      0x04\n      add\n      tag_156\n      swap1\n      tag_151\n      jump\t// in\n    tag_156:\n      mload(0x40)\n      dup1\n      swap2\n      sub\n      swap1\n      revert\n    tag_155:\n        /* \"contracts/RSP-2.sol\":4437:4444  player2 */\n      dup3\n        /* \"contracts/RSP-2.sol\":4437:4458  player2.playerAddress */\n      0x00\n      add\n      mload\n        /* \"contracts/RSP-2.sol\":4437:4467  player2.playerAddress.transfer */\n      0xffffffffffffffffffffffffffffffffffffffff\n      and\n        /* \"contracts/RSP-2.sol\":4437:4475  player2.playerAddress.transfer(reward) */\n      0x08fc\n        /* \"contracts/RSP-2.sol\":4468:4474  reward */\n      dup3\n        /* \"contracts/RSP-2.sol\":4437:4475  player2.playerAddress.transfer(reward) */\n      swap1\n      dup2\n      iszero\n      mul\n      swap1\n      mload(0x40)\n      0x00\n      mload(0x40)\n      dup1\n      dup4\n      sub\n      dup2\n      dup6\n      dup9\n      dup9\n      call\n      swap4\n      pop\n      pop\n      pop\n      pop\n      iszero\n      dup1\n      iszero\n      tag_158\n      jumpi\n      returndatasize\n      0x00\n      dup1\n      returndatacopy\n      revert(0x00, returndatasize)\n    tag_158:\n      pop\n        /* \"contracts/RSP-2.sol\":3926:4486  if (randomOutcome == 0) {... */\n    tag_154:\n        /* \"contracts/RSP-2.sol\":4598:4605  player2 */\n      dup3\n        /* \"contracts/RSP-2.sol\":4598:4619  player2.playerAddress */\n      0x00\n      add\n      mload\n        /* \"contracts/RSP-2.sol\":4539:4670  GameResult(... */\n      0xffffffffffffffffffffffffffffffffffffffff\n      and\n        /* \"contracts/RSP-2.sol\":4563:4570  player1 */\n      dup5\n        /* \"contracts/RSP-2.sol\":4563:4584  player1.playerAddress */\n      0x00\n      add\n      mload\n        /* \"contracts/RSP-2.sol\":4539:4670  GameResult(... */\n      0xffffffffffffffffffffffffffffffffffffffff\n      and\n      0x5ddd0f071c29396f63e06c20463f55cc476d471d32e7371e87d748247c36bf36\n        /* \"contracts/RSP-2.sol\":4633:4639  result */\n      dup5\n        /* \"contracts/RSP-2.sol\":376:388  0.0001 ether */\n      0x5af3107a4000\n        /* \"contracts/RSP-2.sol\":4539:4670  GameResult(... */\n      mload(0x40)\n      tag_159\n      swap3\n      swap2\n      swap1\n      tag_160\n      jump\t// in\n    tag_159:\n      mload(0x40)\n      dup1\n      swap2\n      sub\n      swap1\n      log3\n        /* \"contracts/RSP-2.sol\":4726:4737  resetGame() */\n      tag_161\n        /* \"contracts/RSP-2.sol\":4726:4735  resetGame */\n      tag_162\n        /* \"contracts/RSP-2.sol\":4726:4737  resetGame() */\n      jump\t// in\n    tag_161:\n        /* \"contracts/RSP-2.sol\":3758:4744  {... */\n      pop\n      pop\n      pop\n      pop\n        /* \"contracts/RSP-2.sol\":3702:4744  function determineWinner(uint256 randomOutcome) private {... */\n      pop\n      jump\t// out\n        /* \"@chainlink/contracts/src/v0.8/VRFConsumerBase.sol\":7732:8752  function requestRandomness(bytes32 _keyHash, uint256 _fee) internal returns (bytes32 requestId) {... */\n    tag_130:\n        /* \"@chainlink/contracts/src/v0.8/VRFConsumerBase.sol\":7809:7826  bytes32 requestId */\n      0x00\n        /* \"@chainlink/contracts/src/v0.8/VRFConsumerBase.sol\":7834:7838  LINK */\n      immutable(\"0xb2219b801710730437d0358146c829b62297a059eceaa0b40b27aea2daecf595\")\n        /* \"@chainlink/contracts/src/v0.8/VRFConsumerBase.sol\":7834:7854  LINK.transferAndCall */\n      0xffffffffffffffffffffffffffffffffffffffff\n      and\n      0x4000aea0\n        /* \"@chainlink/contracts/src/v0.8/VRFConsumerBase.sol\":7855:7869  vrfCoordinator */\n      immutable(\"0x6dbb33232cde86c8a04f90a8bed9fc1c5ef520188a14538d96eb100d69bc2a94\")\n        /* \"@chainlink/contracts/src/v0.8/VRFConsumerBase.sol\":7871:7875  _fee */\n      dup5\n        /* \"@chainlink/contracts/src/v0.8/VRFConsumerBase.sol\":7888:7896  _keyHash */\n      dup7\n        /* \"@chainlink/contracts/src/v0.8/VRFConsumerBase.sol\":6589:6590  0 */\n      0x00\n        /* \"@chainlink/contracts/src/v0.8/VRFConsumerBase.sol\":7877:7920  abi.encode(_keyHash, USER_SEED_PLACEHOLDER) */\n      add(0x20, mload(0x40))\n      tag_164\n      swap3\n      swap2\n      swap1\n      tag_165\n      jump\t// in\n    tag_164:\n      mload(0x40)\n      0x20\n      dup2\n      dup4\n      sub\n      sub\n      dup2\n      mstore\n      swap1\n      0x40\n      mstore\n        /* \"@chainlink/contracts/src/v0.8/VRFConsumerBase.sol\":7834:7921  LINK.transferAndCall(vrfCoordinator, _fee, abi.encode(_keyHash, USER_SEED_PLACEHOLDER)) */\n      mload(0x40)\n      dup5\n      0xffffffff\n      and\n      0xe0\n      shl\n      dup2\n      mstore\n      0x04\n      add\n      tag_166\n      swap4\n      swap3\n      swap2\n      swap1\n      tag_167\n      jump\t// in\n    tag_166:\n      0x20\n      mload(0x40)\n      dup1\n      dup4\n      sub\n      dup2\n      0x00\n      dup8\n      gas\n      call\n      iszero\n      dup1\n      iszero\n      tag_169\n      jumpi\n      returndatasize\n      0x00\n      dup1\n      returndatacopy\n      revert(0x00, returndatasize)\n    tag_169:\n      pop\n      pop\n      pop\n      pop\n      mload(0x40)\n      returndatasize\n      not(0x1f)\n      0x1f\n      dup3\n      add\n      and\n      dup3\n      add\n      dup1\n      0x40\n      mstore\n      pop\n      dup2\n      add\n      swap1\n      tag_170\n      swap2\n      swap1\n      tag_171\n      jump\t// in\n    tag_170:\n      pop\n        /* \"@chainlink/contracts/src/v0.8/VRFConsumerBase.sol\":8152:8167  uint256 vRFSeed */\n      0x00\n        /* \"@chainlink/contracts/src/v0.8/VRFConsumerBase.sol\":8170:8252  makeVRFInputSeed(_keyHash, USER_SEED_PLACEHOLDER, address(this), nonces[_keyHash]) */\n      tag_172\n        /* \"@chainlink/contracts/src/v0.8/VRFConsumerBase.sol\":8187:8195  _keyHash */\n      dup5\n        /* \"@chainlink/contracts/src/v0.8/VRFConsumerBase.sol\":6589:6590  0 */\n      0x00\n        /* \"@chainlink/contracts/src/v0.8/VRFConsumerBase.sol\":8228:8232  this */\n      address\n        /* \"@chainlink/contracts/src/v0.8/VRFConsumerBase.sol\":8235:8241  nonces */\n      0x00\n        /* \"@chainlink/contracts/src/v0.8/VRFConsumerBase.sol\":8235:8251  nonces[_keyHash] */\n      dup1\n        /* \"@chainlink/contracts/src/v0.8/VRFConsumerBase.sol\":8242:8250  _keyHash */\n      dup10\n        /* \"@chainlink/contracts/src/v0.8/VRFConsumerBase.sol\":8235:8251  nonces[_keyHash] */\n      dup2\n      mstore\n      0x20\n      add\n      swap1\n      dup2\n      mstore\n      0x20\n      add\n      0x00\n      keccak256\n      sload\n        /* \"@chainlink/contracts/src/v0.8/VRFConsumerBase.sol\":8170:8186  makeVRFInputSeed */\n      tag_173\n        /* \"@chainlink/contracts/src/v0.8/VRFConsumerBase.sol\":8170:8252  makeVRFInputSeed(_keyHash, USER_SEED_PLACEHOLDER, address(this), nonces[_keyHash]) */\n      jump\t// in\n    tag_172:\n        /* \"@chainlink/contracts/src/v0.8/VRFConsumerBase.sol\":8152:8252  uint256 vRFSeed = makeVRFInputSeed(_keyHash, USER_SEED_PLACEHOLDER, address(this), nonces[_keyHash]) */\n      swap1\n      pop\n        /* \"@chainlink/contracts/src/v0.8/VRFConsumerBase.sol\":8701:8702  1 */\n      0x01\n        /* \"@chainlink/contracts/src/v0.8/VRFConsumerBase.sol\":8682:8688  nonces */\n      0x00\n        /* \"@chainlink/contracts/src/v0.8/VRFConsumerBase.sol\":8682:8698  nonces[_keyHash] */\n      dup1\n        /* \"@chainlink/contracts/src/v0.8/VRFConsumerBase.sol\":8689:8697  _keyHash */\n      dup7\n        /* \"@chainlink/contracts/src/v0.8/VRFConsumerBase.sol\":8682:8698  nonces[_keyHash] */\n      dup2\n      mstore\n      0x20\n      add\n      swap1\n      dup2\n      mstore\n      0x20\n      add\n      0x00\n      keccak256\n      sload\n        /* \"@chainlink/contracts/src/v0.8/VRFConsumerBase.sol\":8682:8702  nonces[_keyHash] + 1 */\n      tag_174\n      swap2\n      swap1\n      tag_175\n      jump\t// in\n    tag_174:\n        /* \"@chainlink/contracts/src/v0.8/VRFConsumerBase.sol\":8663:8669  nonces */\n      0x00\n        /* \"@chainlink/contracts/src/v0.8/VRFConsumerBase.sol\":8663:8679  nonces[_keyHash] */\n      dup1\n        /* \"@chainlink/contracts/src/v0.8/VRFConsumerBase.sol\":8670:8678  _keyHash */\n      dup7\n        /* \"@chainlink/contracts/src/v0.8/VRFConsumerBase.sol\":8663:8679  nonces[_keyHash] */\n      dup2\n      mstore\n      0x20\n      add\n      swap1\n      dup2\n      mstore\n      0x20\n      add\n      0x00\n      keccak256\n        /* \"@chainlink/contracts/src/v0.8/VRFConsumerBase.sol\":8663:8702  nonces[_keyHash] = nonces[_keyHash] + 1 */\n      dup2\n      swap1\n      sstore\n      pop\n        /* \"@chainlink/contracts/src/v0.8/VRFConsumerBase.sol\":8715:8747  makeRequestId(_keyHash, vRFSeed) */\n      tag_176\n        /* \"@chainlink/contracts/src/v0.8/VRFConsumerBase.sol\":8729:8737  _keyHash */\n      dup5\n        /* \"@chainlink/contracts/src/v0.8/VRFConsumerBase.sol\":8739:8746  vRFSeed */\n      dup3\n        /* \"@chainlink/contracts/src/v0.8/VRFConsumerBase.sol\":8715:8728  makeRequestId */\n      tag_177\n        /* \"@chainlink/contracts/src/v0.8/VRFConsumerBase.sol\":8715:8747  makeRequestId(_keyHash, vRFSeed) */\n      jump\t// in\n    tag_176:\n        /* \"@chainlink/contracts/src/v0.8/VRFConsumerBase.sol\":8708:8747  return makeRequestId(_keyHash, vRFSeed) */\n      swap2\n      pop\n      pop\n        /* \"@chainlink/contracts/src/v0.8/VRFConsumerBase.sol\":7732:8752  function requestRandomness(bytes32 _keyHash, uint256 _fee) internal returns (bytes32 requestId) {... */\n      swap3\n      swap2\n      pop\n      pop\n      jump\t// out\n        /* \"contracts/RSP-2.sol\":4801:5133  function resetGame() private {... */\n    tag_162:\n        /* \"contracts/RSP-2.sol\":4883:4884  0 */\n      0x00\n        /* \"contracts/RSP-2.sol\":4840:4847  players */\n      0x02\n        /* \"contracts/RSP-2.sol\":4848:4849  0 */\n      0x00\n        /* \"contracts/RSP-2.sol\":4840:4850  players[0] */\n      0x02\n      dup2\n      lt\n      tag_179\n      jumpi\n      tag_180\n      tag_66\n      jump\t// in\n    tag_180:\n    tag_179:\n      add\n        /* \"contracts/RSP-2.sol\":4840:4864  players[0].playerAddress */\n      0x00\n      add\n      0x00\n        /* \"contracts/RSP-2.sol\":4840:4886  players[0].playerAddress = payable(address(0)) */\n      0x0100\n      exp\n      dup2\n      sload\n      dup2\n      0xffffffffffffffffffffffffffffffffffffffff\n      mul\n      not\n      and\n      swap1\n      dup4\n      0xffffffffffffffffffffffffffffffffffffffff\n      and\n      mul\n      or\n      swap1\n      sstore\n      pop\n        /* \"contracts/RSP-2.sol\":4967:4968  0 */\n      0x00\n        /* \"contracts/RSP-2.sol\":4924:4931  players */\n      0x02\n        /* \"contracts/RSP-2.sol\":4932:4933  1 */\n      0x01\n        /* \"contracts/RSP-2.sol\":4924:4934  players[1] */\n      0x02\n      dup2\n      lt\n      tag_182\n      jumpi\n      tag_183\n      tag_66\n      jump\t// in\n    tag_183:\n    tag_182:\n      add\n        /* \"contracts/RSP-2.sol\":4924:4948  players[1].playerAddress */\n      0x00\n      add\n      0x00\n        /* \"contracts/RSP-2.sol\":4924:4970  players[1].playerAddress = payable(address(0)) */\n      0x0100\n      exp\n      dup2\n      sload\n      dup2\n      0xffffffffffffffffffffffffffffffffffffffff\n      mul\n      not\n      and\n      swap1\n      dup4\n      0xffffffffffffffffffffffffffffffffffffffff\n      and\n      mul\n      or\n      swap1\n      sstore\n      pop\n        /* \"contracts/RSP-2.sol\":5031:5036  false */\n      0x00\n        /* \"contracts/RSP-2.sol\":5008:5015  players */\n      0x02\n        /* \"contracts/RSP-2.sol\":5016:5017  0 */\n      0x00\n        /* \"contracts/RSP-2.sol\":5008:5018  players[0] */\n      0x02\n      dup2\n      lt\n      tag_185\n      jumpi\n      tag_186\n      tag_66\n      jump\t// in\n    tag_186:\n    tag_185:\n      add\n        /* \"contracts/RSP-2.sol\":5008:5028  players[0].hasPlayed */\n      0x00\n      add\n      0x15\n        /* \"contracts/RSP-2.sol\":5008:5036  players[0].hasPlayed = false */\n      0x0100\n      exp\n      dup2\n      sload\n      dup2\n      0xff\n      mul\n      not\n      and\n      swap1\n      dup4\n      iszero\n      iszero\n      mul\n      or\n      swap1\n      sstore\n      pop\n        /* \"contracts/RSP-2.sol\":5095:5100  false */\n      0x00\n        /* \"contracts/RSP-2.sol\":5072:5079  players */\n      0x02\n        /* \"contracts/RSP-2.sol\":5080:5081  1 */\n      0x01\n        /* \"contracts/RSP-2.sol\":5072:5082  players[1] */\n      0x02\n      dup2\n      lt\n      tag_188\n      jumpi\n      tag_189\n      tag_66\n      jump\t// in\n    tag_189:\n    tag_188:\n      add\n        /* \"contracts/RSP-2.sol\":5072:5092  players[1].hasPlayed */\n      0x00\n      add\n      0x15\n        /* \"contracts/RSP-2.sol\":5072:5100  players[1].hasPlayed = false */\n      0x0100\n      exp\n      dup2\n      sload\n      dup2\n      0xff\n      mul\n      not\n      and\n      swap1\n      dup4\n      iszero\n      iszero\n      mul\n      or\n      swap1\n      sstore\n      pop\n        /* \"contracts/RSP-2.sol\":4801:5133  function resetGame() private {... */\n      jump\t// out\n        /* \"@chainlink/contracts/src/v0.8/VRFRequestIDBase.sol\":796:1036  function makeVRFInputSeed(... */\n    tag_173:\n        /* \"@chainlink/contracts/src/v0.8/VRFRequestIDBase.sol\":938:945  uint256 */\n      0x00\n        /* \"@chainlink/contracts/src/v0.8/VRFRequestIDBase.sol\":989:997  _keyHash */\n      dup5\n        /* \"@chainlink/contracts/src/v0.8/VRFRequestIDBase.sol\":999:1008  _userSeed */\n      dup5\n        /* \"@chainlink/contracts/src/v0.8/VRFRequestIDBase.sol\":1010:1020  _requester */\n      dup5\n        /* \"@chainlink/contracts/src/v0.8/VRFRequestIDBase.sol\":1022:1028  _nonce */\n      dup5\n        /* \"@chainlink/contracts/src/v0.8/VRFRequestIDBase.sol\":978:1029  abi.encode(_keyHash, _userSeed, _requester, _nonce) */\n      add(0x20, mload(0x40))\n      tag_192\n      swap5\n      swap4\n      swap3\n      swap2\n      swap1\n      tag_193\n      jump\t// in\n    tag_192:\n      mload(0x40)\n      0x20\n      dup2\n      dup4\n      sub\n      sub\n      dup2\n      mstore\n      swap1\n      0x40\n      mstore\n        /* \"@chainlink/contracts/src/v0.8/VRFRequestIDBase.sol\":968:1030  keccak256(abi.encode(_keyHash, _userSeed, _requester, _nonce)) */\n      dup1\n      mload\n      swap1\n      0x20\n      add\n      keccak256\n        /* \"@chainlink/contracts/src/v0.8/VRFRequestIDBase.sol\":960:1031  uint256(keccak256(abi.encode(_keyHash, _userSeed, _requester, _nonce))) */\n      0x00\n      shr\n        /* \"@chainlink/contracts/src/v0.8/VRFRequestIDBase.sol\":953:1031  return uint256(keccak256(abi.encode(_keyHash, _userSeed, _requester, _nonce))) */\n      swap1\n      pop\n        /* \"@chainlink/contracts/src/v0.8/VRFRequestIDBase.sol\":796:1036  function makeVRFInputSeed(... */\n      swap5\n      swap4\n      pop\n      pop\n      pop\n      pop\n      jump\t// out\n        /* \"@chainlink/contracts/src/v0.8/VRFRequestIDBase.sol\":1416:1582  function makeRequestId(bytes32 _keyHash, uint256 _vRFInputSeed) internal pure returns (bytes32) {... */\n    tag_177:\n        /* \"@chainlink/contracts/src/v0.8/VRFRequestIDBase.sol\":1503:1510  bytes32 */\n      0x00\n        /* \"@chainlink/contracts/src/v0.8/VRFRequestIDBase.sol\":1552:1560  _keyHash */\n      dup3\n        /* \"@chainlink/contracts/src/v0.8/VRFRequestIDBase.sol\":1562:1575  _vRFInputSeed */\n      dup3\n        /* \"@chainlink/contracts/src/v0.8/VRFRequestIDBase.sol\":1535:1576  abi.encodePacked(_keyHash, _vRFInputSeed) */\n      add(0x20, mload(0x40))\n      tag_195\n      swap3\n      swap2\n      swap1\n      tag_196\n      jump\t// in\n    tag_195:\n      mload(0x40)\n      0x20\n      dup2\n      dup4\n      sub\n      sub\n      dup2\n      mstore\n      swap1\n      0x40\n      mstore\n        /* \"@chainlink/contracts/src/v0.8/VRFRequestIDBase.sol\":1525:1577  keccak256(abi.encodePacked(_keyHash, _vRFInputSeed)) */\n      dup1\n      mload\n      swap1\n      0x20\n      add\n      keccak256\n        /* \"@chainlink/contracts/src/v0.8/VRFRequestIDBase.sol\":1518:1577  return keccak256(abi.encodePacked(_keyHash, _vRFInputSeed)) */\n      swap1\n      pop\n        /* \"@chainlink/contracts/src/v0.8/VRFRequestIDBase.sol\":1416:1582  function makeRequestId(bytes32 _keyHash, uint256 _vRFInputSeed) internal pure returns (bytes32) {... */\n      swap3\n      swap2\n      pop\n      pop\n      jump\t// out\n        /* \"#utility.yul\":7:84   */\n    tag_197:\n        /* \"#utility.yul\":44:51   */\n      0x00\n        /* \"#utility.yul\":73:78   */\n      dup2\n        /* \"#utility.yul\":62:78   */\n      swap1\n      pop\n        /* \"#utility.yul\":7:84   */\n      swap2\n      swap1\n      pop\n      jump\t// out\n        /* \"#utility.yul\":90:208   */\n    tag_198:\n        /* \"#utility.yul\":177:201   */\n      tag_255\n        /* \"#utility.yul\":195:200   */\n      dup2\n        /* \"#utility.yul\":177:201   */\n      tag_197\n      jump\t// in\n    tag_255:\n        /* \"#utility.yul\":172:175   */\n      dup3\n        /* \"#utility.yul\":165:202   */\n      mstore\n        /* \"#utility.yul\":90:208   */\n      pop\n      pop\n      jump\t// out\n        /* \"#utility.yul\":214:436   */\n    tag_22:\n        /* \"#utility.yul\":307:311   */\n      0x00\n        /* \"#utility.yul\":345:347   */\n      0x20\n        /* \"#utility.yul\":334:343   */\n      dup3\n        /* \"#utility.yul\":330:348   */\n      add\n        /* \"#utility.yul\":322:348   */\n      swap1\n      pop\n        /* \"#utility.yul\":358:429   */\n      tag_257\n        /* \"#utility.yul\":426:427   */\n      0x00\n        /* \"#utility.yul\":415:424   */\n      dup4\n        /* \"#utility.yul\":411:428   */\n      add\n        /* \"#utility.yul\":402:408   */\n      dup5\n        /* \"#utility.yul\":358:429   */\n      tag_198\n      jump\t// in\n    tag_257:\n        /* \"#utility.yul\":214:436   */\n      swap3\n      swap2\n      pop\n      pop\n      jump\t// out\n        /* \"#utility.yul\":442:568   */\n    tag_199:\n        /* \"#utility.yul\":479:486   */\n      0x00\n        /* \"#utility.yul\":519:561   */\n      0xffffffffffffffffffffffffffffffffffffffff\n        /* \"#utility.yul\":512:517   */\n      dup3\n        /* \"#utility.yul\":508:562   */\n      and\n        /* \"#utility.yul\":497:562   */\n      swap1\n      pop\n        /* \"#utility.yul\":442:568   */\n      swap2\n      swap1\n      pop\n      jump\t// out\n        /* \"#utility.yul\":574:670   */\n    tag_200:\n        /* \"#utility.yul\":611:618   */\n      0x00\n        /* \"#utility.yul\":640:664   */\n      tag_260\n        /* \"#utility.yul\":658:663   */\n      dup3\n        /* \"#utility.yul\":640:664   */\n      tag_199\n      jump\t// in\n    tag_260:\n        /* \"#utility.yul\":629:664   */\n      swap1\n      pop\n        /* \"#utility.yul\":574:670   */\n      swap2\n      swap1\n      pop\n      jump\t// out\n        /* \"#utility.yul\":676:794   */\n    tag_201:\n        /* \"#utility.yul\":763:787   */\n      tag_262\n        /* \"#utility.yul\":781:786   */\n      dup2\n        /* \"#utility.yul\":763:787   */\n      tag_200\n      jump\t// in\n    tag_262:\n        /* \"#utility.yul\":758:761   */\n      dup3\n        /* \"#utility.yul\":751:788   */\n      mstore\n        /* \"#utility.yul\":676:794   */\n      pop\n      pop\n      jump\t// out\n        /* \"#utility.yul\":800:1022   */\n    tag_31:\n        /* \"#utility.yul\":893:897   */\n      0x00\n        /* \"#utility.yul\":931:933   */\n      0x20\n        /* \"#utility.yul\":920:929   */\n      dup3\n        /* \"#utility.yul\":916:934   */\n      add\n        /* \"#utility.yul\":908:934   */\n      swap1\n      pop\n        /* \"#utility.yul\":944:1015   */\n      tag_264\n        /* \"#utility.yul\":1012:1013   */\n      0x00\n        /* \"#utility.yul\":1001:1010   */\n      dup4\n        /* \"#utility.yul\":997:1014   */\n      add\n        /* \"#utility.yul\":988:994   */\n      dup5\n        /* \"#utility.yul\":944:1015   */\n      tag_201\n      jump\t// in\n    tag_264:\n        /* \"#utility.yul\":800:1022   */\n      swap3\n      swap2\n      pop\n      pop\n      jump\t// out\n        /* \"#utility.yul\":1109:1226   */\n    tag_203:\n        /* \"#utility.yul\":1218:1219   */\n      0x00\n        /* \"#utility.yul\":1215:1216   */\n      dup1\n        /* \"#utility.yul\":1208:1220   */\n      revert\n        /* \"#utility.yul\":1355:1432   */\n    tag_205:\n        /* \"#utility.yul\":1392:1399   */\n      0x00\n        /* \"#utility.yul\":1421:1426   */\n      dup2\n        /* \"#utility.yul\":1410:1426   */\n      swap1\n      pop\n        /* \"#utility.yul\":1355:1432   */\n      swap2\n      swap1\n      pop\n      jump\t// out\n        /* \"#utility.yul\":1438:1560   */\n    tag_206:\n        /* \"#utility.yul\":1511:1535   */\n      tag_270\n        /* \"#utility.yul\":1529:1534   */\n      dup2\n        /* \"#utility.yul\":1511:1535   */\n      tag_205\n      jump\t// in\n    tag_270:\n        /* \"#utility.yul\":1504:1509   */\n      dup2\n        /* \"#utility.yul\":1501:1536   */\n      eq\n        /* \"#utility.yul\":1491:1554   */\n      tag_271\n      jumpi\n        /* \"#utility.yul\":1550:1551   */\n      0x00\n        /* \"#utility.yul\":1547:1548   */\n      dup1\n        /* \"#utility.yul\":1540:1552   */\n      revert\n        /* \"#utility.yul\":1491:1554   */\n    tag_271:\n        /* \"#utility.yul\":1438:1560   */\n      pop\n      jump\t// out\n        /* \"#utility.yul\":1566:1705   */\n    tag_207:\n        /* \"#utility.yul\":1612:1617   */\n      0x00\n        /* \"#utility.yul\":1650:1656   */\n      dup2\n        /* \"#utility.yul\":1637:1657   */\n      calldataload\n        /* \"#utility.yul\":1628:1657   */\n      swap1\n      pop\n        /* \"#utility.yul\":1666:1699   */\n      tag_273\n        /* \"#utility.yul\":1693:1698   */\n      dup2\n        /* \"#utility.yul\":1666:1699   */\n      tag_206\n      jump\t// in\n    tag_273:\n        /* \"#utility.yul\":1566:1705   */\n      swap3\n      swap2\n      pop\n      pop\n      jump\t// out\n        /* \"#utility.yul\":1711:1833   */\n    tag_208:\n        /* \"#utility.yul\":1784:1808   */\n      tag_275\n        /* \"#utility.yul\":1802:1807   */\n      dup2\n        /* \"#utility.yul\":1784:1808   */\n      tag_197\n      jump\t// in\n    tag_275:\n        /* \"#utility.yul\":1777:1782   */\n      dup2\n        /* \"#utility.yul\":1774:1809   */\n      eq\n        /* \"#utility.yul\":1764:1827   */\n      tag_276\n      jumpi\n        /* \"#utility.yul\":1823:1824   */\n      0x00\n        /* \"#utility.yul\":1820:1821   */\n      dup1\n        /* \"#utility.yul\":1813:1825   */\n      revert\n        /* \"#utility.yul\":1764:1827   */\n    tag_276:\n        /* \"#utility.yul\":1711:1833   */\n      pop\n      jump\t// out\n        /* \"#utility.yul\":1839:1978   */\n    tag_209:\n        /* \"#utility.yul\":1885:1890   */\n      0x00\n        /* \"#utility.yul\":1923:1929   */\n      dup2\n        /* \"#utility.yul\":1910:1930   */\n      calldataload\n        /* \"#utility.yul\":1901:1930   */\n      swap1\n      pop\n        /* \"#utility.yul\":1939:1972   */\n      tag_278\n        /* \"#utility.yul\":1966:1971   */\n      dup2\n        /* \"#utility.yul\":1939:1972   */\n      tag_208\n      jump\t// in\n    tag_278:\n        /* \"#utility.yul\":1839:1978   */\n      swap3\n      swap2\n      pop\n      pop\n      jump\t// out\n        /* \"#utility.yul\":1984:2458   */\n    tag_35:\n        /* \"#utility.yul\":2052:2058   */\n      0x00\n        /* \"#utility.yul\":2060:2066   */\n      dup1\n        /* \"#utility.yul\":2109:2111   */\n      0x40\n        /* \"#utility.yul\":2097:2106   */\n      dup4\n        /* \"#utility.yul\":2088:2095   */\n      dup6\n        /* \"#utility.yul\":2084:2107   */\n      sub\n        /* \"#utility.yul\":2080:2112   */\n      slt\n        /* \"#utility.yul\":2077:2196   */\n      iszero\n      tag_280\n      jumpi\n        /* \"#utility.yul\":2115:2194   */\n      tag_281\n      tag_203\n      jump\t// in\n    tag_281:\n        /* \"#utility.yul\":2077:2196   */\n    tag_280:\n        /* \"#utility.yul\":2235:2236   */\n      0x00\n        /* \"#utility.yul\":2260:2313   */\n      tag_282\n        /* \"#utility.yul\":2305:2312   */\n      dup6\n        /* \"#utility.yul\":2296:2302   */\n      dup3\n        /* \"#utility.yul\":2285:2294   */\n      dup7\n        /* \"#utility.yul\":2281:2303   */\n      add\n        /* \"#utility.yul\":2260:2313   */\n      tag_207\n      jump\t// in\n    tag_282:\n        /* \"#utility.yul\":2250:2313   */\n      swap3\n      pop\n        /* \"#utility.yul\":2206:2323   */\n      pop\n        /* \"#utility.yul\":2362:2364   */\n      0x20\n        /* \"#utility.yul\":2388:2441   */\n      tag_283\n        /* \"#utility.yul\":2433:2440   */\n      dup6\n        /* \"#utility.yul\":2424:2430   */\n      dup3\n        /* \"#utility.yul\":2413:2422   */\n      dup7\n        /* \"#utility.yul\":2409:2431   */\n      add\n        /* \"#utility.yul\":2388:2441   */\n      tag_209\n      jump\t// in\n    tag_283:\n        /* \"#utility.yul\":2378:2441   */\n      swap2\n      pop\n        /* \"#utility.yul\":2333:2451   */\n      pop\n        /* \"#utility.yul\":1984:2458   */\n      swap3\n      pop\n      swap3\n      swap1\n      pop\n      jump\t// out\n        /* \"#utility.yul\":2464:2571   */\n    tag_210:\n        /* \"#utility.yul\":2545:2546   */\n      0x03\n        /* \"#utility.yul\":2538:2543   */\n      dup2\n        /* \"#utility.yul\":2535:2547   */\n      lt\n        /* \"#utility.yul\":2525:2565   */\n      tag_285\n      jumpi\n        /* \"#utility.yul\":2561:2562   */\n      0x00\n        /* \"#utility.yul\":2558:2559   */\n      dup1\n        /* \"#utility.yul\":2551:2563   */\n      revert\n        /* \"#utility.yul\":2525:2565   */\n    tag_285:\n        /* \"#utility.yul\":2464:2571   */\n      pop\n      jump\t// out\n        /* \"#utility.yul\":2577:2732   */\n    tag_211:\n        /* \"#utility.yul\":2631:2636   */\n      0x00\n        /* \"#utility.yul\":2669:2675   */\n      dup2\n        /* \"#utility.yul\":2656:2676   */\n      calldataload\n        /* \"#utility.yul\":2647:2676   */\n      swap1\n      pop\n        /* \"#utility.yul\":2685:2726   */\n      tag_287\n        /* \"#utility.yul\":2720:2725   */\n      dup2\n        /* \"#utility.yul\":2685:2726   */\n      tag_210\n      jump\t// in\n    tag_287:\n        /* \"#utility.yul\":2577:2732   */\n      swap3\n      swap2\n      pop\n      pop\n      jump\t// out\n        /* \"#utility.yul\":2738:3083   */\n    tag_39:\n        /* \"#utility.yul\":2805:2811   */\n      0x00\n        /* \"#utility.yul\":2854:2856   */\n      0x20\n        /* \"#utility.yul\":2842:2851   */\n      dup3\n        /* \"#utility.yul\":2833:2840   */\n      dup5\n        /* \"#utility.yul\":2829:2852   */\n      sub\n        /* \"#utility.yul\":2825:2857   */\n      slt\n        /* \"#utility.yul\":2822:2941   */\n      iszero\n      tag_289\n      jumpi\n        /* \"#utility.yul\":2860:2939   */\n      tag_290\n      tag_203\n      jump\t// in\n    tag_290:\n        /* \"#utility.yul\":2822:2941   */\n    tag_289:\n        /* \"#utility.yul\":2980:2981   */\n      0x00\n        /* \"#utility.yul\":3005:3066   */\n      tag_291\n        /* \"#utility.yul\":3058:3065   */\n      dup5\n        /* \"#utility.yul\":3049:3055   */\n      dup3\n        /* \"#utility.yul\":3038:3047   */\n      dup6\n        /* \"#utility.yul\":3034:3056   */\n      add\n        /* \"#utility.yul\":3005:3066   */\n      tag_211\n      jump\t// in\n    tag_291:\n        /* \"#utility.yul\":2995:3066   */\n      swap2\n      pop\n        /* \"#utility.yul\":2951:3076   */\n      pop\n        /* \"#utility.yul\":2738:3083   */\n      swap3\n      swap2\n      pop\n      pop\n      jump\t// out\n        /* \"#utility.yul\":3089:3418   */\n    tag_44:\n        /* \"#utility.yul\":3148:3154   */\n      0x00\n        /* \"#utility.yul\":3197:3199   */\n      0x20\n        /* \"#utility.yul\":3185:3194   */\n      dup3\n        /* \"#utility.yul\":3176:3183   */\n      dup5\n        /* \"#utility.yul\":3172:3195   */\n      sub\n        /* \"#utility.yul\":3168:3200   */\n      slt\n        /* \"#utility.yul\":3165:3284   */\n      iszero\n      tag_293\n      jumpi\n        /* \"#utility.yul\":3203:3282   */\n      tag_294\n      tag_203\n      jump\t// in\n    tag_294:\n        /* \"#utility.yul\":3165:3284   */\n    tag_293:\n        /* \"#utility.yul\":3323:3324   */\n      0x00\n        /* \"#utility.yul\":3348:3401   */\n      tag_295\n        /* \"#utility.yul\":3393:3400   */\n      dup5\n        /* \"#utility.yul\":3384:3390   */\n      dup3\n        /* \"#utility.yul\":3373:3382   */\n      dup6\n        /* \"#utility.yul\":3369:3391   */\n      add\n        /* \"#utility.yul\":3348:3401   */\n      tag_209\n      jump\t// in\n    tag_295:\n        /* \"#utility.yul\":3338:3401   */\n      swap2\n      pop\n        /* \"#utility.yul\":3294:3411   */\n      pop\n        /* \"#utility.yul\":3089:3418   */\n      swap3\n      swap2\n      pop\n      pop\n      jump\t// out\n        /* \"#utility.yul\":3424:3528   */\n    tag_212:\n        /* \"#utility.yul\":3469:3476   */\n      0x00\n        /* \"#utility.yul\":3498:3522   */\n      tag_297\n        /* \"#utility.yul\":3516:3521   */\n      dup3\n        /* \"#utility.yul\":3498:3522   */\n      tag_199\n      jump\t// in\n    tag_297:\n        /* \"#utility.yul\":3487:3522   */\n      swap1\n      pop\n        /* \"#utility.yul\":3424:3528   */\n      swap2\n      swap1\n      pop\n      jump\t// out\n        /* \"#utility.yul\":3534:3676   */\n    tag_213:\n        /* \"#utility.yul\":3637:3669   */\n      tag_299\n        /* \"#utility.yul\":3663:3668   */\n      dup2\n        /* \"#utility.yul\":3637:3669   */\n      tag_212\n      jump\t// in\n    tag_299:\n        /* \"#utility.yul\":3632:3635   */\n      dup3\n        /* \"#utility.yul\":3625:3670   */\n      mstore\n        /* \"#utility.yul\":3534:3676   */\n      pop\n      pop\n      jump\t// out\n        /* \"#utility.yul\":3682:3862   */\n    tag_81:\n        /* \"#utility.yul\":3730:3807   */\n      0x4e487b7100000000000000000000000000000000000000000000000000000000\n        /* \"#utility.yul\":3727:3728   */\n      0x00\n        /* \"#utility.yul\":3720:3808   */\n      mstore\n        /* \"#utility.yul\":3827:3831   */\n      0x21\n        /* \"#utility.yul\":3824:3825   */\n      0x04\n        /* \"#utility.yul\":3817:3832   */\n      mstore\n        /* \"#utility.yul\":3851:3855   */\n      0x24\n        /* \"#utility.yul\":3848:3849   */\n      0x00\n        /* \"#utility.yul\":3841:3856   */\n      revert\n        /* \"#utility.yul\":3868:3981   */\n    tag_214:\n        /* \"#utility.yul\":3949:3950   */\n      0x03\n        /* \"#utility.yul\":3942:3947   */\n      dup2\n        /* \"#utility.yul\":3939:3951   */\n      lt\n        /* \"#utility.yul\":3929:3975   */\n      tag_302\n      jumpi\n        /* \"#utility.yul\":3955:3973   */\n      tag_303\n      tag_81\n      jump\t// in\n    tag_303:\n        /* \"#utility.yul\":3929:3975   */\n    tag_302:\n        /* \"#utility.yul\":3868:3981   */\n      pop\n      jump\t// out\n        /* \"#utility.yul\":3987:4114   */\n    tag_215:\n        /* \"#utility.yul\":4032:4039   */\n      0x00\n        /* \"#utility.yul\":4061:4066   */\n      dup2\n        /* \"#utility.yul\":4050:4066   */\n      swap1\n      pop\n        /* \"#utility.yul\":4067:4108   */\n      tag_305\n        /* \"#utility.yul\":4102:4107   */\n      dup3\n        /* \"#utility.yul\":4067:4108   */\n      tag_214\n      jump\t// in\n    tag_305:\n        /* \"#utility.yul\":3987:4114   */\n      swap2\n      swap1\n      pop\n      jump\t// out\n        /* \"#utility.yul\":4120:4247   */\n    tag_216:\n        /* \"#utility.yul\":4176:4185   */\n      0x00\n        /* \"#utility.yul\":4209:4241   */\n      tag_307\n        /* \"#utility.yul\":4235:4240   */\n      dup3\n        /* \"#utility.yul\":4209:4241   */\n      tag_215\n      jump\t// in\n    tag_307:\n        /* \"#utility.yul\":4196:4241   */\n      swap1\n      pop\n        /* \"#utility.yul\":4120:4247   */\n      swap2\n      swap1\n      pop\n      jump\t// out\n        /* \"#utility.yul\":4253:4396   */\n    tag_217:\n        /* \"#utility.yul\":4346:4389   */\n      tag_309\n        /* \"#utility.yul\":4383:4388   */\n      dup2\n        /* \"#utility.yul\":4346:4389   */\n      tag_216\n      jump\t// in\n    tag_309:\n        /* \"#utility.yul\":4341:4344   */\n      dup3\n        /* \"#utility.yul\":4334:4390   */\n      mstore\n        /* \"#utility.yul\":4253:4396   */\n      pop\n      pop\n      jump\t// out\n        /* \"#utility.yul\":4402:4492   */\n    tag_218:\n        /* \"#utility.yul\":4436:4443   */\n      0x00\n        /* \"#utility.yul\":4479:4484   */\n      dup2\n        /* \"#utility.yul\":4472:4485   */\n      iszero\n        /* \"#utility.yul\":4465:4486   */\n      iszero\n        /* \"#utility.yul\":4454:4486   */\n      swap1\n      pop\n        /* \"#utility.yul\":4402:4492   */\n      swap2\n      swap1\n      pop\n      jump\t// out\n        /* \"#utility.yul\":4498:4607   */\n    tag_219:\n        /* \"#utility.yul\":4579:4600   */\n      tag_312\n        /* \"#utility.yul\":4594:4599   */\n      dup2\n        /* \"#utility.yul\":4579:4600   */\n      tag_218\n      jump\t// in\n    tag_312:\n        /* \"#utility.yul\":4574:4577   */\n      dup3\n        /* \"#utility.yul\":4567:4601   */\n      mstore\n        /* \"#utility.yul\":4498:4607   */\n      pop\n      pop\n      jump\t// out\n        /* \"#utility.yul\":4613:5087   */\n    tag_47:\n        /* \"#utility.yul\":4778:4782   */\n      0x00\n        /* \"#utility.yul\":4816:4818   */\n      0x60\n        /* \"#utility.yul\":4805:4814   */\n      dup3\n        /* \"#utility.yul\":4801:4819   */\n      add\n        /* \"#utility.yul\":4793:4819   */\n      swap1\n      pop\n        /* \"#utility.yul\":4829:4916   */\n      tag_314\n        /* \"#utility.yul\":4913:4914   */\n      0x00\n        /* \"#utility.yul\":4902:4911   */\n      dup4\n        /* \"#utility.yul\":4898:4915   */\n      add\n        /* \"#utility.yul\":4889:4895   */\n      dup7\n        /* \"#utility.yul\":4829:4916   */\n      tag_213\n      jump\t// in\n    tag_314:\n        /* \"#utility.yul\":4926:5004   */\n      tag_315\n        /* \"#utility.yul\":5000:5002   */\n      0x20\n        /* \"#utility.yul\":4989:4998   */\n      dup4\n        /* \"#utility.yul\":4985:5003   */\n      add\n        /* \"#utility.yul\":4976:4982   */\n      dup6\n        /* \"#utility.yul\":4926:5004   */\n      tag_217\n      jump\t// in\n    tag_315:\n        /* \"#utility.yul\":5014:5080   */\n      tag_316\n        /* \"#utility.yul\":5076:5078   */\n      0x40\n        /* \"#utility.yul\":5065:5074   */\n      dup4\n        /* \"#utility.yul\":5061:5079   */\n      add\n        /* \"#utility.yul\":5052:5058   */\n      dup5\n        /* \"#utility.yul\":5014:5080   */\n      tag_219\n      jump\t// in\n    tag_316:\n        /* \"#utility.yul\":4613:5087   */\n      swap5\n      swap4\n      pop\n      pop\n      pop\n      pop\n      jump\t// out\n        /* \"#utility.yul\":5093:5262   */\n    tag_220:\n        /* \"#utility.yul\":5177:5188   */\n      0x00\n        /* \"#utility.yul\":5211:5217   */\n      dup3\n        /* \"#utility.yul\":5206:5209   */\n      dup3\n        /* \"#utility.yul\":5199:5218   */\n      mstore\n        /* \"#utility.yul\":5251:5255   */\n      0x20\n        /* \"#utility.yul\":5246:5249   */\n      dup3\n        /* \"#utility.yul\":5242:5256   */\n      add\n        /* \"#utility.yul\":5227:5256   */\n      swap1\n      pop\n        /* \"#utility.yul\":5093:5262   */\n      swap3\n      swap2\n      pop\n      pop\n      jump\t// out\n        /* \"#utility.yul\":5268:5445   */\n    tag_221:\n        /* \"#utility.yul\":5408:5437   */\n      0x4f6e6c7920746865206f776e65722063616e2077697468647261770000000000\n        /* \"#utility.yul\":5404:5405   */\n      0x00\n        /* \"#utility.yul\":5396:5402   */\n      dup3\n        /* \"#utility.yul\":5392:5406   */\n      add\n        /* \"#utility.yul\":5385:5438   */\n      mstore\n        /* \"#utility.yul\":5268:5445   */\n      pop\n      jump\t// out\n        /* \"#utility.yul\":5451:5817   */\n    tag_222:\n        /* \"#utility.yul\":5593:5596   */\n      0x00\n        /* \"#utility.yul\":5614:5681   */\n      tag_320\n        /* \"#utility.yul\":5678:5680   */\n      0x1b\n        /* \"#utility.yul\":5673:5676   */\n      dup4\n        /* \"#utility.yul\":5614:5681   */\n      tag_220\n      jump\t// in\n    tag_320:\n        /* \"#utility.yul\":5607:5681   */\n      swap2\n      pop\n        /* \"#utility.yul\":5690:5783   */\n      tag_321\n        /* \"#utility.yul\":5779:5782   */\n      dup3\n        /* \"#utility.yul\":5690:5783   */\n      tag_221\n      jump\t// in\n    tag_321:\n        /* \"#utility.yul\":5808:5810   */\n      0x20\n        /* \"#utility.yul\":5803:5806   */\n      dup3\n        /* \"#utility.yul\":5799:5811   */\n      add\n        /* \"#utility.yul\":5792:5811   */\n      swap1\n      pop\n        /* \"#utility.yul\":5451:5817   */\n      swap2\n      swap1\n      pop\n      jump\t// out\n        /* \"#utility.yul\":5823:6242   */\n    tag_51:\n        /* \"#utility.yul\":5989:5993   */\n      0x00\n        /* \"#utility.yul\":6027:6029   */\n      0x20\n        /* \"#utility.yul\":6016:6025   */\n      dup3\n        /* \"#utility.yul\":6012:6030   */\n      add\n        /* \"#utility.yul\":6004:6030   */\n      swap1\n      pop\n        /* \"#utility.yul\":6076:6085   */\n      dup2\n        /* \"#utility.yul\":6070:6074   */\n      dup2\n        /* \"#utility.yul\":6066:6086   */\n      sub\n        /* \"#utility.yul\":6062:6063   */\n      0x00\n        /* \"#utility.yul\":6051:6060   */\n      dup4\n        /* \"#utility.yul\":6047:6064   */\n      add\n        /* \"#utility.yul\":6040:6087   */\n      mstore\n        /* \"#utility.yul\":6104:6235   */\n      tag_323\n        /* \"#utility.yul\":6230:6234   */\n      dup2\n        /* \"#utility.yul\":6104:6235   */\n      tag_222\n      jump\t// in\n    tag_323:\n        /* \"#utility.yul\":6096:6235   */\n      swap1\n      pop\n        /* \"#utility.yul\":5823:6242   */\n      swap2\n      swap1\n      pop\n      jump\t// out\n        /* \"#utility.yul\":6248:6429   */\n    tag_223:\n        /* \"#utility.yul\":6388:6421   */\n      0x4f6e6c7920565246436f6f7264696e61746f722063616e2066756c66696c6c00\n        /* \"#utility.yul\":6384:6385   */\n      0x00\n        /* \"#utility.yul\":6376:6382   */\n      dup3\n        /* \"#utility.yul\":6372:6386   */\n      add\n        /* \"#utility.yul\":6365:6422   */\n      mstore\n        /* \"#utility.yul\":6248:6429   */\n      pop\n      jump\t// out\n        /* \"#utility.yul\":6435:6801   */\n    tag_224:\n        /* \"#utility.yul\":6577:6580   */\n      0x00\n        /* \"#utility.yul\":6598:6665   */\n      tag_326\n        /* \"#utility.yul\":6662:6664   */\n      0x1f\n        /* \"#utility.yul\":6657:6660   */\n      dup4\n        /* \"#utility.yul\":6598:6665   */\n      tag_220\n      jump\t// in\n    tag_326:\n        /* \"#utility.yul\":6591:6665   */\n      swap2\n      pop\n        /* \"#utility.yul\":6674:6767   */\n      tag_327\n        /* \"#utility.yul\":6763:6766   */\n      dup3\n        /* \"#utility.yul\":6674:6767   */\n      tag_223\n      jump\t// in\n    tag_327:\n        /* \"#utility.yul\":6792:6794   */\n      0x20\n        /* \"#utility.yul\":6787:6790   */\n      dup3\n        /* \"#utility.yul\":6783:6795   */\n      add\n        /* \"#utility.yul\":6776:6795   */\n      swap1\n      pop\n        /* \"#utility.yul\":6435:6801   */\n      swap2\n      swap1\n      pop\n      jump\t// out\n        /* \"#utility.yul\":6807:7226   */\n    tag_57:\n        /* \"#utility.yul\":6973:6977   */\n      0x00\n        /* \"#utility.yul\":7011:7013   */\n      0x20\n        /* \"#utility.yul\":7000:7009   */\n      dup3\n        /* \"#utility.yul\":6996:7014   */\n      add\n        /* \"#utility.yul\":6988:7014   */\n      swap1\n      pop\n        /* \"#utility.yul\":7060:7069   */\n      dup2\n        /* \"#utility.yul\":7054:7058   */\n      dup2\n        /* \"#utility.yul\":7050:7070   */\n      sub\n        /* \"#utility.yul\":7046:7047   */\n      0x00\n        /* \"#utility.yul\":7035:7044   */\n      dup4\n        /* \"#utility.yul\":7031:7048   */\n      add\n        /* \"#utility.yul\":7024:7071   */\n      mstore\n        /* \"#utility.yul\":7088:7219   */\n      tag_329\n        /* \"#utility.yul\":7214:7218   */\n      dup2\n        /* \"#utility.yul\":7088:7219   */\n      tag_224\n      jump\t// in\n    tag_329:\n        /* \"#utility.yul\":7080:7219   */\n      swap1\n      pop\n        /* \"#utility.yul\":6807:7226   */\n      swap2\n      swap1\n      pop\n      jump\t// out\n        /* \"#utility.yul\":7232:7414   */\n    tag_225:\n        /* \"#utility.yul\":7372:7406   */\n      0x596f75206d757374206265742065786163746c7920302e303030312074424e42\n        /* \"#utility.yul\":7368:7369   */\n      0x00\n        /* \"#utility.yul\":7360:7366   */\n      dup3\n        /* \"#utility.yul\":7356:7370   */\n      add\n        /* \"#utility.yul\":7349:7407   */\n      mstore\n        /* \"#utility.yul\":7232:7414   */\n      pop\n      jump\t// out\n        /* \"#utility.yul\":7420:7786   */\n    tag_226:\n        /* \"#utility.yul\":7562:7565   */\n      0x00\n        /* \"#utility.yul\":7583:7650   */\n      tag_332\n        /* \"#utility.yul\":7647:7649   */\n      0x20\n        /* \"#utility.yul\":7642:7645   */\n      dup4\n        /* \"#utility.yul\":7583:7650   */\n      tag_220\n      jump\t// in\n    tag_332:\n        /* \"#utility.yul\":7576:7650   */\n      swap2\n      pop\n        /* \"#utility.yul\":7659:7752   */\n      tag_333\n        /* \"#utility.yul\":7748:7751   */\n      dup3\n        /* \"#utility.yul\":7659:7752   */\n      tag_225\n      jump\t// in\n    tag_333:\n        /* \"#utility.yul\":7777:7779   */\n      0x20\n        /* \"#utility.yul\":7772:7775   */\n      dup3\n        /* \"#utility.yul\":7768:7780   */\n      add\n        /* \"#utility.yul\":7761:7780   */\n      swap1\n      pop\n        /* \"#utility.yul\":7420:7786   */\n      swap2\n      swap1\n      pop\n      jump\t// out\n        /* \"#utility.yul\":7792:8211   */\n    tag_63:\n        /* \"#utility.yul\":7958:7962   */\n      0x00\n        /* \"#utility.yul\":7996:7998   */\n      0x20\n        /* \"#utility.yul\":7985:7994   */\n      dup3\n        /* \"#utility.yul\":7981:7999   */\n      add\n        /* \"#utility.yul\":7973:7999   */\n      swap1\n      pop\n        /* \"#utility.yul\":8045:8054   */\n      dup2\n        /* \"#utility.yul\":8039:8043   */\n      dup2\n        /* \"#utility.yul\":8035:8055   */\n      sub\n        /* \"#utility.yul\":8031:8032   */\n      0x00\n        /* \"#utility.yul\":8020:8029   */\n      dup4\n        /* \"#utility.yul\":8016:8033   */\n      add\n        /* \"#utility.yul\":8009:8056   */\n      mstore\n        /* \"#utility.yul\":8073:8204   */\n      tag_335\n        /* \"#utility.yul\":8199:8203   */\n      dup2\n        /* \"#utility.yul\":8073:8204   */\n      tag_226\n      jump\t// in\n    tag_335:\n        /* \"#utility.yul\":8065:8204   */\n      swap1\n      pop\n        /* \"#utility.yul\":7792:8211   */\n      swap2\n      swap1\n      pop\n      jump\t// out\n        /* \"#utility.yul\":8217:8397   */\n    tag_66:\n        /* \"#utility.yul\":8265:8342   */\n      0x4e487b7100000000000000000000000000000000000000000000000000000000\n        /* \"#utility.yul\":8262:8263   */\n      0x00\n        /* \"#utility.yul\":8255:8343   */\n      mstore\n        /* \"#utility.yul\":8362:8366   */\n      0x32\n        /* \"#utility.yul\":8359:8360   */\n      0x04\n        /* \"#utility.yul\":8352:8367   */\n      mstore\n        /* \"#utility.yul\":8386:8390   */\n      0x24\n        /* \"#utility.yul\":8383:8384   */\n      0x00\n        /* \"#utility.yul\":8376:8391   */\n      revert\n        /* \"#utility.yul\":8403:8580   */\n    tag_227:\n        /* \"#utility.yul\":8543:8572   */\n      0x596f752061726520616c726561647920696e207468652067616d650000000000\n        /* \"#utility.yul\":8539:8540   */\n      0x00\n        /* \"#utility.yul\":8531:8537   */\n      dup3\n        /* \"#utility.yul\":8527:8541   */\n      add\n        /* \"#utility.yul\":8520:8573   */\n      mstore\n        /* \"#utility.yul\":8403:8580   */\n      pop\n      jump\t// out\n        /* \"#utility.yul\":8586:8952   */\n    tag_228:\n        /* \"#utility.yul\":8728:8731   */\n      0x00\n        /* \"#utility.yul\":8749:8816   */\n      tag_339\n        /* \"#utility.yul\":8813:8815   */\n      0x1b\n        /* \"#utility.yul\":8808:8811   */\n      dup4\n        /* \"#utility.yul\":8749:8816   */\n      tag_220\n      jump\t// in\n    tag_339:\n        /* \"#utility.yul\":8742:8816   */\n      swap2\n      pop\n        /* \"#utility.yul\":8825:8918   */\n      tag_340\n        /* \"#utility.yul\":8914:8917   */\n      dup3\n        /* \"#utility.yul\":8825:8918   */\n      tag_227\n      jump\t// in\n    tag_340:\n        /* \"#utility.yul\":8943:8945   */\n      0x20\n        /* \"#utility.yul\":8938:8941   */\n      dup3\n        /* \"#utility.yul\":8934:8946   */\n      add\n        /* \"#utility.yul\":8927:8946   */\n      swap1\n      pop\n        /* \"#utility.yul\":8586:8952   */\n      swap2\n      swap1\n      pop\n      jump\t// out\n        /* \"#utility.yul\":8958:9377   */\n    tag_74:\n        /* \"#utility.yul\":9124:9128   */\n      0x00\n        /* \"#utility.yul\":9162:9164   */\n      0x20\n        /* \"#utility.yul\":9151:9160   */\n      dup3\n        /* \"#utility.yul\":9147:9165   */\n      add\n        /* \"#utility.yul\":9139:9165   */\n      swap1\n      pop\n        /* \"#utility.yul\":9211:9220   */\n      dup2\n        /* \"#utility.yul\":9205:9209   */\n      dup2\n        /* \"#utility.yul\":9201:9221   */\n      sub\n        /* \"#utility.yul\":9197:9198   */\n      0x00\n        /* \"#utility.yul\":9186:9195   */\n      dup4\n        /* \"#utility.yul\":9182:9199   */\n      add\n        /* \"#utility.yul\":9175:9222   */\n      mstore\n        /* \"#utility.yul\":9239:9370   */\n      tag_342\n        /* \"#utility.yul\":9365:9369   */\n      dup2\n        /* \"#utility.yul\":9239:9370   */\n      tag_228\n      jump\t// in\n    tag_342:\n        /* \"#utility.yul\":9231:9370   */\n      swap1\n      pop\n        /* \"#utility.yul\":8958:9377   */\n      swap2\n      swap1\n      pop\n      jump\t// out\n        /* \"#utility.yul\":9383:9632   */\n    tag_229:\n        /* \"#utility.yul\":9523:9557   */\n      0x5468652067616d652069732066756c6c2e20506c65617365207761697420666f\n        /* \"#utility.yul\":9519:9520   */\n      0x00\n        /* \"#utility.yul\":9511:9517   */\n      dup3\n        /* \"#utility.yul\":9507:9521   */\n      add\n        /* \"#utility.yul\":9500:9558   */\n      mstore\n        /* \"#utility.yul\":9592:9624   */\n      0x72207468652063757272656e7420726f756e6420746f2066696e6973682e0000\n        /* \"#utility.yul\":9587:9589   */\n      0x20\n        /* \"#utility.yul\":9579:9585   */\n      dup3\n        /* \"#utility.yul\":9575:9590   */\n      add\n        /* \"#utility.yul\":9568:9625   */\n      mstore\n        /* \"#utility.yul\":9383:9632   */\n      pop\n      jump\t// out\n        /* \"#utility.yul\":9638:10004   */\n    tag_230:\n        /* \"#utility.yul\":9780:9783   */\n      0x00\n        /* \"#utility.yul\":9801:9868   */\n      tag_345\n        /* \"#utility.yul\":9865:9867   */\n      0x3e\n        /* \"#utility.yul\":9860:9863   */\n      dup4\n        /* \"#utility.yul\":9801:9868   */\n      tag_220\n      jump\t// in\n    tag_345:\n        /* \"#utility.yul\":9794:9868   */\n      swap2\n      pop\n        /* \"#utility.yul\":9877:9970   */\n      tag_346\n        /* \"#utility.yul\":9966:9969   */\n      dup3\n        /* \"#utility.yul\":9877:9970   */\n      tag_229\n      jump\t// in\n    tag_346:\n        /* \"#utility.yul\":9995:9997   */\n      0x40\n        /* \"#utility.yul\":9990:9993   */\n      dup3\n        /* \"#utility.yul\":9986:9998   */\n      add\n        /* \"#utility.yul\":9979:9998   */\n      swap1\n      pop\n        /* \"#utility.yul\":9638:10004   */\n      swap2\n      swap1\n      pop\n      jump\t// out\n        /* \"#utility.yul\":10010:10429   */\n    tag_101:\n        /* \"#utility.yul\":10176:10180   */\n      0x00\n        /* \"#utility.yul\":10214:10216   */\n      0x20\n        /* \"#utility.yul\":10203:10212   */\n      dup3\n        /* \"#utility.yul\":10199:10217   */\n      add\n        /* \"#utility.yul\":10191:10217   */\n      swap1\n      pop\n        /* \"#utility.yul\":10263:10272   */\n      dup2\n        /* \"#utility.yul\":10257:10261   */\n      dup2\n        /* \"#utility.yul\":10253:10273   */\n      sub\n        /* \"#utility.yul\":10249:10250   */\n      0x00\n        /* \"#utility.yul\":10238:10247   */\n      dup4\n        /* \"#utility.yul\":10234:10251   */\n      add\n        /* \"#utility.yul\":10227:10274   */\n      mstore\n        /* \"#utility.yul\":10291:10422   */\n      tag_348\n        /* \"#utility.yul\":10417:10421   */\n      dup2\n        /* \"#utility.yul\":10291:10422   */\n      tag_230\n      jump\t// in\n    tag_348:\n        /* \"#utility.yul\":10283:10422   */\n      swap1\n      pop\n        /* \"#utility.yul\":10010:10429   */\n      swap2\n      swap1\n      pop\n      jump\t// out\n        /* \"#utility.yul\":10435:10615   */\n    tag_231:\n        /* \"#utility.yul\":10483:10560   */\n      0x4e487b7100000000000000000000000000000000000000000000000000000000\n        /* \"#utility.yul\":10480:10481   */\n      0x00\n        /* \"#utility.yul\":10473:10561   */\n      mstore\n        /* \"#utility.yul\":10580:10584   */\n      0x12\n        /* \"#utility.yul\":10577:10578   */\n      0x04\n        /* \"#utility.yul\":10570:10585   */\n      mstore\n        /* \"#utility.yul\":10604:10608   */\n      0x24\n        /* \"#utility.yul\":10601:10602   */\n      0x00\n        /* \"#utility.yul\":10594:10609   */\n      revert\n        /* \"#utility.yul\":10621:10797   */\n    tag_118:\n        /* \"#utility.yul\":10653:10654   */\n      0x00\n        /* \"#utility.yul\":10670:10690   */\n      tag_351\n        /* \"#utility.yul\":10688:10689   */\n      dup3\n        /* \"#utility.yul\":10670:10690   */\n      tag_197\n      jump\t// in\n    tag_351:\n        /* \"#utility.yul\":10665:10690   */\n      swap2\n      pop\n        /* \"#utility.yul\":10704:10724   */\n      tag_352\n        /* \"#utility.yul\":10722:10723   */\n      dup4\n        /* \"#utility.yul\":10704:10724   */\n      tag_197\n      jump\t// in\n    tag_352:\n        /* \"#utility.yul\":10699:10724   */\n      swap3\n      pop\n        /* \"#utility.yul\":10743:10744   */\n      dup3\n        /* \"#utility.yul\":10733:10768   */\n      tag_353\n      jumpi\n        /* \"#utility.yul\":10748:10766   */\n      tag_354\n      tag_231\n      jump\t// in\n    tag_354:\n        /* \"#utility.yul\":10733:10768   */\n    tag_353:\n        /* \"#utility.yul\":10789:10790   */\n      dup3\n        /* \"#utility.yul\":10786:10787   */\n      dup3\n        /* \"#utility.yul\":10782:10791   */\n      mod\n        /* \"#utility.yul\":10777:10791   */\n      swap1\n      pop\n        /* \"#utility.yul\":10621:10797   */\n      swap3\n      swap2\n      pop\n      pop\n      jump\t// out\n        /* \"#utility.yul\":10803:10946   */\n    tag_232:\n        /* \"#utility.yul\":10860:10865   */\n      0x00\n        /* \"#utility.yul\":10891:10897   */\n      dup2\n        /* \"#utility.yul\":10885:10898   */\n      mload\n        /* \"#utility.yul\":10876:10898   */\n      swap1\n      pop\n        /* \"#utility.yul\":10907:10940   */\n      tag_356\n        /* \"#utility.yul\":10934:10939   */\n      dup2\n        /* \"#utility.yul\":10907:10940   */\n      tag_208\n      jump\t// in\n    tag_356:\n        /* \"#utility.yul\":10803:10946   */\n      swap3\n      swap2\n      pop\n      pop\n      jump\t// out\n        /* \"#utility.yul\":10952:11303   */\n    tag_125:\n        /* \"#utility.yul\":11022:11028   */\n      0x00\n        /* \"#utility.yul\":11071:11073   */\n      0x20\n        /* \"#utility.yul\":11059:11068   */\n      dup3\n        /* \"#utility.yul\":11050:11057   */\n      dup5\n        /* \"#utility.yul\":11046:11069   */\n      sub\n        /* \"#utility.yul\":11042:11074   */\n      slt\n        /* \"#utility.yul\":11039:11158   */\n      iszero\n      tag_358\n      jumpi\n        /* \"#utility.yul\":11077:11156   */\n      tag_359\n      tag_203\n      jump\t// in\n    tag_359:\n        /* \"#utility.yul\":11039:11158   */\n    tag_358:\n        /* \"#utility.yul\":11197:11198   */\n      0x00\n        /* \"#utility.yul\":11222:11286   */\n      tag_360\n        /* \"#utility.yul\":11278:11285   */\n      dup5\n        /* \"#utility.yul\":11269:11275   */\n      dup3\n        /* \"#utility.yul\":11258:11267   */\n      dup6\n        /* \"#utility.yul\":11254:11276   */\n      add\n        /* \"#utility.yul\":11222:11286   */\n      tag_232\n      jump\t// in\n    tag_360:\n        /* \"#utility.yul\":11212:11286   */\n      swap2\n      pop\n        /* \"#utility.yul\":11168:11296   */\n      pop\n        /* \"#utility.yul\":10952:11303   */\n      swap3\n      swap2\n      pop\n      pop\n      jump\t// out\n        /* \"#utility.yul\":11309:11486   */\n    tag_233:\n        /* \"#utility.yul\":11449:11478   */\n      0x4e6f7420656e6f756768204c494e4b20696e20636f6e74726163740000000000\n        /* \"#utility.yul\":11445:11446   */\n      0x00\n        /* \"#utility.yul\":11437:11443   */\n      dup3\n        /* \"#utility.yul\":11433:11447   */\n      add\n        /* \"#utility.yul\":11426:11479   */\n      mstore\n        /* \"#utility.yul\":11309:11486   */\n      pop\n      jump\t// out\n        /* \"#utility.yul\":11492:11858   */\n    tag_234:\n        /* \"#utility.yul\":11634:11637   */\n      0x00\n        /* \"#utility.yul\":11655:11722   */\n      tag_363\n        /* \"#utility.yul\":11719:11721   */\n      0x1b\n        /* \"#utility.yul\":11714:11717   */\n      dup4\n        /* \"#utility.yul\":11655:11722   */\n      tag_220\n      jump\t// in\n    tag_363:\n        /* \"#utility.yul\":11648:11722   */\n      swap2\n      pop\n        /* \"#utility.yul\":11731:11824   */\n      tag_364\n        /* \"#utility.yul\":11820:11823   */\n      dup3\n        /* \"#utility.yul\":11731:11824   */\n      tag_233\n      jump\t// in\n    tag_364:\n        /* \"#utility.yul\":11849:11851   */\n      0x20\n        /* \"#utility.yul\":11844:11847   */\n      dup3\n        /* \"#utility.yul\":11840:11852   */\n      add\n        /* \"#utility.yul\":11833:11852   */\n      swap1\n      pop\n        /* \"#utility.yul\":11492:11858   */\n      swap2\n      swap1\n      pop\n      jump\t// out\n        /* \"#utility.yul\":11864:12283   */\n    tag_128:\n        /* \"#utility.yul\":12030:12034   */\n      0x00\n        /* \"#utility.yul\":12068:12070   */\n      0x20\n        /* \"#utility.yul\":12057:12066   */\n      dup3\n        /* \"#utility.yul\":12053:12071   */\n      add\n        /* \"#utility.yul\":12045:12071   */\n      swap1\n      pop\n        /* \"#utility.yul\":12117:12126   */\n      dup2\n        /* \"#utility.yul\":12111:12115   */\n      dup2\n        /* \"#utility.yul\":12107:12127   */\n      sub\n        /* \"#utility.yul\":12103:12104   */\n      0x00\n        /* \"#utility.yul\":12092:12101   */\n      dup4\n        /* \"#utility.yul\":12088:12105   */\n      add\n        /* \"#utility.yul\":12081:12128   */\n      mstore\n        /* \"#utility.yul\":12145:12276   */\n      tag_366\n        /* \"#utility.yul\":12271:12275   */\n      dup2\n        /* \"#utility.yul\":12145:12276   */\n      tag_234\n      jump\t// in\n    tag_366:\n        /* \"#utility.yul\":12137:12276   */\n      swap1\n      pop\n        /* \"#utility.yul\":11864:12283   */\n      swap2\n      swap1\n      pop\n      jump\t// out\n        /* \"#utility.yul\":12289:12469   */\n    tag_235:\n        /* \"#utility.yul\":12337:12414   */\n      0x4e487b7100000000000000000000000000000000000000000000000000000000\n        /* \"#utility.yul\":12334:12335   */\n      0x00\n        /* \"#utility.yul\":12327:12415   */\n      mstore\n        /* \"#utility.yul\":12434:12438   */\n      0x11\n        /* \"#utility.yul\":12431:12432   */\n      0x04\n        /* \"#utility.yul\":12424:12439   */\n      mstore\n        /* \"#utility.yul\":12458:12462   */\n      0x24\n        /* \"#utility.yul\":12455:12456   */\n      0x00\n        /* \"#utility.yul\":12448:12463   */\n      revert\n        /* \"#utility.yul\":12475:12885   */\n    tag_147:\n        /* \"#utility.yul\":12515:12522   */\n      0x00\n        /* \"#utility.yul\":12538:12558   */\n      tag_369\n        /* \"#utility.yul\":12556:12557   */\n      dup3\n        /* \"#utility.yul\":12538:12558   */\n      tag_197\n      jump\t// in\n    tag_369:\n        /* \"#utility.yul\":12533:12558   */\n      swap2\n      pop\n        /* \"#utility.yul\":12572:12592   */\n      tag_370\n        /* \"#utility.yul\":12590:12591   */\n      dup4\n        /* \"#utility.yul\":12572:12592   */\n      tag_197\n      jump\t// in\n    tag_370:\n        /* \"#utility.yul\":12567:12592   */\n      swap3\n      pop\n        /* \"#utility.yul\":12627:12628   */\n      dup3\n        /* \"#utility.yul\":12624:12625   */\n      dup3\n        /* \"#utility.yul\":12620:12629   */\n      mul\n        /* \"#utility.yul\":12649:12679   */\n      tag_371\n        /* \"#utility.yul\":12667:12678   */\n      dup2\n        /* \"#utility.yul\":12649:12679   */\n      tag_197\n      jump\t// in\n    tag_371:\n        /* \"#utility.yul\":12638:12679   */\n      swap2\n      pop\n        /* \"#utility.yul\":12828:12829   */\n      dup3\n        /* \"#utility.yul\":12819:12826   */\n      dup3\n        /* \"#utility.yul\":12815:12830   */\n      div\n        /* \"#utility.yul\":12812:12813   */\n      dup5\n        /* \"#utility.yul\":12809:12831   */\n      eq\n        /* \"#utility.yul\":12789:12790   */\n      dup4\n        /* \"#utility.yul\":12782:12791   */\n      iszero\n        /* \"#utility.yul\":12762:12845   */\n      or\n        /* \"#utility.yul\":12739:12878   */\n      tag_372\n      jumpi\n        /* \"#utility.yul\":12858:12876   */\n      tag_373\n      tag_235\n      jump\t// in\n    tag_373:\n        /* \"#utility.yul\":12739:12878   */\n    tag_372:\n        /* \"#utility.yul\":12523:12885   */\n      pop\n        /* \"#utility.yul\":12475:12885   */\n      swap3\n      swap2\n      pop\n      pop\n      jump\t// out\n        /* \"#utility.yul\":12891:13071   */\n    tag_236:\n        /* \"#utility.yul\":13031:13063   */\n      0x4e6f7420656e6f7567682062616c616e636520696e20636f6e74726163740000\n        /* \"#utility.yul\":13027:13028   */\n      0x00\n        /* \"#utility.yul\":13019:13025   */\n      dup3\n        /* \"#utility.yul\":13015:13029   */\n      add\n        /* \"#utility.yul\":13008:13064   */\n      mstore\n        /* \"#utility.yul\":12891:13071   */\n      pop\n      jump\t// out\n        /* \"#utility.yul\":13077:13443   */\n    tag_237:\n        /* \"#utility.yul\":13219:13222   */\n      0x00\n        /* \"#utility.yul\":13240:13307   */\n      tag_376\n        /* \"#utility.yul\":13304:13306   */\n      0x1e\n        /* \"#utility.yul\":13299:13302   */\n      dup4\n        /* \"#utility.yul\":13240:13307   */\n      tag_220\n      jump\t// in\n    tag_376:\n        /* \"#utility.yul\":13233:13307   */\n      swap2\n      pop\n        /* \"#utility.yul\":13316:13409   */\n      tag_377\n        /* \"#utility.yul\":13405:13408   */\n      dup3\n        /* \"#utility.yul\":13316:13409   */\n      tag_236\n      jump\t// in\n    tag_377:\n        /* \"#utility.yul\":13434:13436   */\n      0x20\n        /* \"#utility.yul\":13429:13432   */\n      dup3\n        /* \"#utility.yul\":13425:13437   */\n      add\n        /* \"#utility.yul\":13418:13437   */\n      swap1\n      pop\n        /* \"#utility.yul\":13077:13443   */\n      swap2\n      swap1\n      pop\n      jump\t// out\n        /* \"#utility.yul\":13449:13868   */\n    tag_151:\n        /* \"#utility.yul\":13615:13619   */\n      0x00\n        /* \"#utility.yul\":13653:13655   */\n      0x20\n        /* \"#utility.yul\":13642:13651   */\n      dup3\n        /* \"#utility.yul\":13638:13656   */\n      add\n        /* \"#utility.yul\":13630:13656   */\n      swap1\n      pop\n        /* \"#utility.yul\":13702:13711   */\n      dup2\n        /* \"#utility.yul\":13696:13700   */\n      dup2\n        /* \"#utility.yul\":13692:13712   */\n      sub\n        /* \"#utility.yul\":13688:13689   */\n      0x00\n        /* \"#utility.yul\":13677:13686   */\n      dup4\n        /* \"#utility.yul\":13673:13690   */\n      add\n        /* \"#utility.yul\":13666:13713   */\n      mstore\n        /* \"#utility.yul\":13730:13861   */\n      tag_379\n        /* \"#utility.yul\":13856:13860   */\n      dup2\n        /* \"#utility.yul\":13730:13861   */\n      tag_237\n      jump\t// in\n    tag_379:\n        /* \"#utility.yul\":13722:13861   */\n      swap1\n      pop\n        /* \"#utility.yul\":13449:13868   */\n      swap2\n      swap1\n      pop\n      jump\t// out\n        /* \"#utility.yul\":13874:13973   */\n    tag_238:\n        /* \"#utility.yul\":13926:13932   */\n      0x00\n        /* \"#utility.yul\":13960:13965   */\n      dup2\n        /* \"#utility.yul\":13954:13966   */\n      mload\n        /* \"#utility.yul\":13944:13966   */\n      swap1\n      pop\n        /* \"#utility.yul\":13874:13973   */\n      swap2\n      swap1\n      pop\n      jump\t// out\n        /* \"#utility.yul\":13979:14118   */\n    tag_239:\n        /* \"#utility.yul\":14068:14074   */\n      dup3\n        /* \"#utility.yul\":14063:14066   */\n      dup2\n        /* \"#utility.yul\":14058:14061   */\n      dup4\n        /* \"#utility.yul\":14052:14075   */\n      mcopy\n        /* \"#utility.yul\":14109:14110   */\n      0x00\n        /* \"#utility.yul\":14100:14106   */\n      dup4\n        /* \"#utility.yul\":14095:14098   */\n      dup4\n        /* \"#utility.yul\":14091:14107   */\n      add\n        /* \"#utility.yul\":14084:14111   */\n      mstore\n        /* \"#utility.yul\":13979:14118   */\n      pop\n      pop\n      pop\n      jump\t// out\n        /* \"#utility.yul\":14124:14226   */\n    tag_240:\n        /* \"#utility.yul\":14165:14171   */\n      0x00\n        /* \"#utility.yul\":14216:14218   */\n      0x1f\n        /* \"#utility.yul\":14212:14219   */\n      not\n        /* \"#utility.yul\":14207:14209   */\n      0x1f\n        /* \"#utility.yul\":14200:14205   */\n      dup4\n        /* \"#utility.yul\":14196:14210   */\n      add\n        /* \"#utility.yul\":14192:14220   */\n      and\n        /* \"#utility.yul\":14182:14220   */\n      swap1\n      pop\n        /* \"#utility.yul\":14124:14226   */\n      swap2\n      swap1\n      pop\n      jump\t// out\n        /* \"#utility.yul\":14232:14609   */\n    tag_241:\n        /* \"#utility.yul\":14320:14323   */\n      0x00\n        /* \"#utility.yul\":14348:14387   */\n      tag_384\n        /* \"#utility.yul\":14381:14386   */\n      dup3\n        /* \"#utility.yul\":14348:14387   */\n      tag_238\n      jump\t// in\n    tag_384:\n        /* \"#utility.yul\":14403:14474   */\n      tag_385\n        /* \"#utility.yul\":14467:14473   */\n      dup2\n        /* \"#utility.yul\":14462:14465   */\n      dup6\n        /* \"#utility.yul\":14403:14474   */\n      tag_220\n      jump\t// in\n    tag_385:\n        /* \"#utility.yul\":14396:14474   */\n      swap4\n      pop\n        /* \"#utility.yul\":14483:14548   */\n      tag_386\n        /* \"#utility.yul\":14541:14547   */\n      dup2\n        /* \"#utility.yul\":14536:14539   */\n      dup6\n        /* \"#utility.yul\":14529:14533   */\n      0x20\n        /* \"#utility.yul\":14522:14527   */\n      dup7\n        /* \"#utility.yul\":14518:14534   */\n      add\n        /* \"#utility.yul\":14483:14548   */\n      tag_239\n      jump\t// in\n    tag_386:\n        /* \"#utility.yul\":14573:14602   */\n      tag_387\n        /* \"#utility.yul\":14595:14601   */\n      dup2\n        /* \"#utility.yul\":14573:14602   */\n      tag_240\n      jump\t// in\n    tag_387:\n        /* \"#utility.yul\":14568:14571   */\n      dup5\n        /* \"#utility.yul\":14564:14603   */\n      add\n        /* \"#utility.yul\":14557:14603   */\n      swap2\n      pop\n        /* \"#utility.yul\":14324:14609   */\n      pop\n        /* \"#utility.yul\":14232:14609   */\n      swap3\n      swap2\n      pop\n      pop\n      jump\t// out\n        /* \"#utility.yul\":14615:15038   */\n    tag_160:\n        /* \"#utility.yul\":14756:14760   */\n      0x00\n        /* \"#utility.yul\":14794:14796   */\n      0x40\n        /* \"#utility.yul\":14783:14792   */\n      dup3\n        /* \"#utility.yul\":14779:14797   */\n      add\n        /* \"#utility.yul\":14771:14797   */\n      swap1\n      pop\n        /* \"#utility.yul\":14843:14852   */\n      dup2\n        /* \"#utility.yul\":14837:14841   */\n      dup2\n        /* \"#utility.yul\":14833:14853   */\n      sub\n        /* \"#utility.yul\":14829:14830   */\n      0x00\n        /* \"#utility.yul\":14818:14827   */\n      dup4\n        /* \"#utility.yul\":14814:14831   */\n      add\n        /* \"#utility.yul\":14807:14854   */\n      mstore\n        /* \"#utility.yul\":14871:14949   */\n      tag_389\n        /* \"#utility.yul\":14944:14948   */\n      dup2\n        /* \"#utility.yul\":14935:14941   */\n      dup6\n        /* \"#utility.yul\":14871:14949   */\n      tag_241\n      jump\t// in\n    tag_389:\n        /* \"#utility.yul\":14863:14949   */\n      swap1\n      pop\n        /* \"#utility.yul\":14959:15031   */\n      tag_390\n        /* \"#utility.yul\":15027:15029   */\n      0x20\n        /* \"#utility.yul\":15016:15025   */\n      dup4\n        /* \"#utility.yul\":15012:15030   */\n      add\n        /* \"#utility.yul\":15003:15009   */\n      dup5\n        /* \"#utility.yul\":14959:15031   */\n      tag_198\n      jump\t// in\n    tag_390:\n        /* \"#utility.yul\":14615:15038   */\n      swap4\n      swap3\n      pop\n      pop\n      pop\n      jump\t// out\n        /* \"#utility.yul\":15044:15162   */\n    tag_242:\n        /* \"#utility.yul\":15131:15155   */\n      tag_392\n        /* \"#utility.yul\":15149:15154   */\n      dup2\n        /* \"#utility.yul\":15131:15155   */\n      tag_205\n      jump\t// in\n    tag_392:\n        /* \"#utility.yul\":15126:15129   */\n      dup3\n        /* \"#utility.yul\":15119:15156   */\n      mstore\n        /* \"#utility.yul\":15044:15162   */\n      pop\n      pop\n      jump\t// out\n        /* \"#utility.yul\":15168:15500   */\n    tag_165:\n        /* \"#utility.yul\":15289:15293   */\n      0x00\n        /* \"#utility.yul\":15327:15329   */\n      0x40\n        /* \"#utility.yul\":15316:15325   */\n      dup3\n        /* \"#utility.yul\":15312:15330   */\n      add\n        /* \"#utility.yul\":15304:15330   */\n      swap1\n      pop\n        /* \"#utility.yul\":15340:15411   */\n      tag_394\n        /* \"#utility.yul\":15408:15409   */\n      0x00\n        /* \"#utility.yul\":15397:15406   */\n      dup4\n        /* \"#utility.yul\":15393:15410   */\n      add\n        /* \"#utility.yul\":15384:15390   */\n      dup6\n        /* \"#utility.yul\":15340:15411   */\n      tag_242\n      jump\t// in\n    tag_394:\n        /* \"#utility.yul\":15421:15493   */\n      tag_395\n        /* \"#utility.yul\":15489:15491   */\n      0x20\n        /* \"#utility.yul\":15478:15487   */\n      dup4\n        /* \"#utility.yul\":15474:15492   */\n      add\n        /* \"#utility.yul\":15465:15471   */\n      dup5\n        /* \"#utility.yul\":15421:15493   */\n      tag_198\n      jump\t// in\n    tag_395:\n        /* \"#utility.yul\":15168:15500   */\n      swap4\n      swap3\n      pop\n      pop\n      pop\n      jump\t// out\n        /* \"#utility.yul\":15506:15604   */\n    tag_243:\n        /* \"#utility.yul\":15557:15563   */\n      0x00\n        /* \"#utility.yul\":15591:15596   */\n      dup2\n        /* \"#utility.yul\":15585:15597   */\n      mload\n        /* \"#utility.yul\":15575:15597   */\n      swap1\n      pop\n        /* \"#utility.yul\":15506:15604   */\n      swap2\n      swap1\n      pop\n      jump\t// out\n        /* \"#utility.yul\":15610:15778   */\n    tag_244:\n        /* \"#utility.yul\":15693:15704   */\n      0x00\n        /* \"#utility.yul\":15727:15733   */\n      dup3\n        /* \"#utility.yul\":15722:15725   */\n      dup3\n        /* \"#utility.yul\":15715:15734   */\n      mstore\n        /* \"#utility.yul\":15767:15771   */\n      0x20\n        /* \"#utility.yul\":15762:15765   */\n      dup3\n        /* \"#utility.yul\":15758:15772   */\n      add\n        /* \"#utility.yul\":15743:15772   */\n      swap1\n      pop\n        /* \"#utility.yul\":15610:15778   */\n      swap3\n      swap2\n      pop\n      pop\n      jump\t// out\n        /* \"#utility.yul\":15784:16157   */\n    tag_245:\n        /* \"#utility.yul\":15870:15873   */\n      0x00\n        /* \"#utility.yul\":15898:15936   */\n      tag_399\n        /* \"#utility.yul\":15930:15935   */\n      dup3\n        /* \"#utility.yul\":15898:15936   */\n      tag_243\n      jump\t// in\n    tag_399:\n        /* \"#utility.yul\":15952:16022   */\n      tag_400\n        /* \"#utility.yul\":16015:16021   */\n      dup2\n        /* \"#utility.yul\":16010:16013   */\n      dup6\n        /* \"#utility.yul\":15952:16022   */\n      tag_244\n      jump\t// in\n    tag_400:\n        /* \"#utility.yul\":15945:16022   */\n      swap4\n      pop\n        /* \"#utility.yul\":16031:16096   */\n      tag_401\n        /* \"#utility.yul\":16089:16095   */\n      dup2\n        /* \"#utility.yul\":16084:16087   */\n      dup6\n        /* \"#utility.yul\":16077:16081   */\n      0x20\n        /* \"#utility.yul\":16070:16075   */\n      dup7\n        /* \"#utility.yul\":16066:16082   */\n      add\n        /* \"#utility.yul\":16031:16096   */\n      tag_239\n      jump\t// in\n    tag_401:\n        /* \"#utility.yul\":16121:16150   */\n      tag_402\n        /* \"#utility.yul\":16143:16149   */\n      dup2\n        /* \"#utility.yul\":16121:16150   */\n      tag_240\n      jump\t// in\n    tag_402:\n        /* \"#utility.yul\":16116:16119   */\n      dup5\n        /* \"#utility.yul\":16112:16151   */\n      add\n        /* \"#utility.yul\":16105:16151   */\n      swap2\n      pop\n        /* \"#utility.yul\":15874:16157   */\n      pop\n        /* \"#utility.yul\":15784:16157   */\n      swap3\n      swap2\n      pop\n      pop\n      jump\t// out\n        /* \"#utility.yul\":16163:16692   */\n    tag_167:\n        /* \"#utility.yul\":16330:16334   */\n      0x00\n        /* \"#utility.yul\":16368:16370   */\n      0x60\n        /* \"#utility.yul\":16357:16366   */\n      dup3\n        /* \"#utility.yul\":16353:16371   */\n      add\n        /* \"#utility.yul\":16345:16371   */\n      swap1\n      pop\n        /* \"#utility.yul\":16381:16452   */\n      tag_404\n        /* \"#utility.yul\":16449:16450   */\n      0x00\n        /* \"#utility.yul\":16438:16447   */\n      dup4\n        /* \"#utility.yul\":16434:16451   */\n      add\n        /* \"#utility.yul\":16425:16431   */\n      dup7\n        /* \"#utility.yul\":16381:16452   */\n      tag_201\n      jump\t// in\n    tag_404:\n        /* \"#utility.yul\":16462:16534   */\n      tag_405\n        /* \"#utility.yul\":16530:16532   */\n      0x20\n        /* \"#utility.yul\":16519:16528   */\n      dup4\n        /* \"#utility.yul\":16515:16533   */\n      add\n        /* \"#utility.yul\":16506:16512   */\n      dup6\n        /* \"#utility.yul\":16462:16534   */\n      tag_198\n      jump\t// in\n    tag_405:\n        /* \"#utility.yul\":16581:16590   */\n      dup2\n        /* \"#utility.yul\":16575:16579   */\n      dup2\n        /* \"#utility.yul\":16571:16591   */\n      sub\n        /* \"#utility.yul\":16566:16568   */\n      0x40\n        /* \"#utility.yul\":16555:16564   */\n      dup4\n        /* \"#utility.yul\":16551:16569   */\n      add\n        /* \"#utility.yul\":16544:16592   */\n      mstore\n        /* \"#utility.yul\":16609:16685   */\n      tag_406\n        /* \"#utility.yul\":16680:16684   */\n      dup2\n        /* \"#utility.yul\":16671:16677   */\n      dup5\n        /* \"#utility.yul\":16609:16685   */\n      tag_245\n      jump\t// in\n    tag_406:\n        /* \"#utility.yul\":16601:16685   */\n      swap1\n      pop\n        /* \"#utility.yul\":16163:16692   */\n      swap5\n      swap4\n      pop\n      pop\n      pop\n      pop\n      jump\t// out\n        /* \"#utility.yul\":16698:16814   */\n    tag_246:\n        /* \"#utility.yul\":16768:16789   */\n      tag_408\n        /* \"#utility.yul\":16783:16788   */\n      dup2\n        /* \"#utility.yul\":16768:16789   */\n      tag_218\n      jump\t// in\n    tag_408:\n        /* \"#utility.yul\":16761:16766   */\n      dup2\n        /* \"#utility.yul\":16758:16790   */\n      eq\n        /* \"#utility.yul\":16748:16808   */\n      tag_409\n      jumpi\n        /* \"#utility.yul\":16804:16805   */\n      0x00\n        /* \"#utility.yul\":16801:16802   */\n      dup1\n        /* \"#utility.yul\":16794:16806   */\n      revert\n        /* \"#utility.yul\":16748:16808   */\n    tag_409:\n        /* \"#utility.yul\":16698:16814   */\n      pop\n      jump\t// out\n        /* \"#utility.yul\":16820:16957   */\n    tag_247:\n        /* \"#utility.yul\":16874:16879   */\n      0x00\n        /* \"#utility.yul\":16905:16911   */\n      dup2\n        /* \"#utility.yul\":16899:16912   */\n      mload\n        /* \"#utility.yul\":16890:16912   */\n      swap1\n      pop\n        /* \"#utility.yul\":16921:16951   */\n      tag_411\n        /* \"#utility.yul\":16945:16950   */\n      dup2\n        /* \"#utility.yul\":16921:16951   */\n      tag_246\n      jump\t// in\n    tag_411:\n        /* \"#utility.yul\":16820:16957   */\n      swap3\n      swap2\n      pop\n      pop\n      jump\t// out\n        /* \"#utility.yul\":16963:17308   */\n    tag_171:\n        /* \"#utility.yul\":17030:17036   */\n      0x00\n        /* \"#utility.yul\":17079:17081   */\n      0x20\n        /* \"#utility.yul\":17067:17076   */\n      dup3\n        /* \"#utility.yul\":17058:17065   */\n      dup5\n        /* \"#utility.yul\":17054:17077   */\n      sub\n        /* \"#utility.yul\":17050:17082   */\n      slt\n        /* \"#utility.yul\":17047:17166   */\n      iszero\n      tag_413\n      jumpi\n        /* \"#utility.yul\":17085:17164   */\n      tag_414\n      tag_203\n      jump\t// in\n    tag_414:\n        /* \"#utility.yul\":17047:17166   */\n    tag_413:\n        /* \"#utility.yul\":17205:17206   */\n      0x00\n        /* \"#utility.yul\":17230:17291   */\n      tag_415\n        /* \"#utility.yul\":17283:17290   */\n      dup5\n        /* \"#utility.yul\":17274:17280   */\n      dup3\n        /* \"#utility.yul\":17263:17272   */\n      dup6\n        /* \"#utility.yul\":17259:17281   */\n      add\n        /* \"#utility.yul\":17230:17291   */\n      tag_247\n      jump\t// in\n    tag_415:\n        /* \"#utility.yul\":17220:17291   */\n      swap2\n      pop\n        /* \"#utility.yul\":17176:17301   */\n      pop\n        /* \"#utility.yul\":16963:17308   */\n      swap3\n      swap2\n      pop\n      pop\n      jump\t// out\n        /* \"#utility.yul\":17314:17505   */\n    tag_175:\n        /* \"#utility.yul\":17354:17357   */\n      0x00\n        /* \"#utility.yul\":17373:17393   */\n      tag_417\n        /* \"#utility.yul\":17391:17392   */\n      dup3\n        /* \"#utility.yul\":17373:17393   */\n      tag_197\n      jump\t// in\n    tag_417:\n        /* \"#utility.yul\":17368:17393   */\n      swap2\n      pop\n        /* \"#utility.yul\":17407:17427   */\n      tag_418\n        /* \"#utility.yul\":17425:17426   */\n      dup4\n        /* \"#utility.yul\":17407:17427   */\n      tag_197\n      jump\t// in\n    tag_418:\n        /* \"#utility.yul\":17402:17427   */\n      swap3\n      pop\n        /* \"#utility.yul\":17450:17451   */\n      dup3\n        /* \"#utility.yul\":17447:17448   */\n      dup3\n        /* \"#utility.yul\":17443:17452   */\n      add\n        /* \"#utility.yul\":17436:17452   */\n      swap1\n      pop\n        /* \"#utility.yul\":17471:17474   */\n      dup1\n        /* \"#utility.yul\":17468:17469   */\n      dup3\n        /* \"#utility.yul\":17465:17475   */\n      gt\n        /* \"#utility.yul\":17462:17498   */\n      iszero\n      tag_419\n      jumpi\n        /* \"#utility.yul\":17478:17496   */\n      tag_420\n      tag_235\n      jump\t// in\n    tag_420:\n        /* \"#utility.yul\":17462:17498   */\n    tag_419:\n        /* \"#utility.yul\":17314:17505   */\n      swap3\n      swap2\n      pop\n      pop\n      jump\t// out\n        /* \"#utility.yul\":17511:18064   */\n    tag_193:\n        /* \"#utility.yul\":17688:17692   */\n      0x00\n        /* \"#utility.yul\":17726:17729   */\n      0x80\n        /* \"#utility.yul\":17715:17724   */\n      dup3\n        /* \"#utility.yul\":17711:17730   */\n      add\n        /* \"#utility.yul\":17703:17730   */\n      swap1\n      pop\n        /* \"#utility.yul\":17740:17811   */\n      tag_422\n        /* \"#utility.yul\":17808:17809   */\n      0x00\n        /* \"#utility.yul\":17797:17806   */\n      dup4\n        /* \"#utility.yul\":17793:17810   */\n      add\n        /* \"#utility.yul\":17784:17790   */\n      dup8\n        /* \"#utility.yul\":17740:17811   */\n      tag_242\n      jump\t// in\n    tag_422:\n        /* \"#utility.yul\":17821:17893   */\n      tag_423\n        /* \"#utility.yul\":17889:17891   */\n      0x20\n        /* \"#utility.yul\":17878:17887   */\n      dup4\n        /* \"#utility.yul\":17874:17892   */\n      add\n        /* \"#utility.yul\":17865:17871   */\n      dup7\n        /* \"#utility.yul\":17821:17893   */\n      tag_198\n      jump\t// in\n    tag_423:\n        /* \"#utility.yul\":17903:17975   */\n      tag_424\n        /* \"#utility.yul\":17971:17973   */\n      0x40\n        /* \"#utility.yul\":17960:17969   */\n      dup4\n        /* \"#utility.yul\":17956:17974   */\n      add\n        /* \"#utility.yul\":17947:17953   */\n      dup6\n        /* \"#utility.yul\":17903:17975   */\n      tag_201\n      jump\t// in\n    tag_424:\n        /* \"#utility.yul\":17985:18057   */\n      tag_425\n        /* \"#utility.yul\":18053:18055   */\n      0x60\n        /* \"#utility.yul\":18042:18051   */\n      dup4\n        /* \"#utility.yul\":18038:18056   */\n      add\n        /* \"#utility.yul\":18029:18035   */\n      dup5\n        /* \"#utility.yul\":17985:18057   */\n      tag_198\n      jump\t// in\n    tag_425:\n        /* \"#utility.yul\":17511:18064   */\n      swap6\n      swap5\n      pop\n      pop\n      pop\n      pop\n      pop\n      jump\t// out\n        /* \"#utility.yul\":18070:18149   */\n    tag_248:\n        /* \"#utility.yul\":18109:18116   */\n      0x00\n        /* \"#utility.yul\":18138:18143   */\n      dup2\n        /* \"#utility.yul\":18127:18143   */\n      swap1\n      pop\n        /* \"#utility.yul\":18070:18149   */\n      swap2\n      swap1\n      pop\n      jump\t// out\n        /* \"#utility.yul\":18155:18312   */\n    tag_249:\n        /* \"#utility.yul\":18260:18305   */\n      tag_428\n        /* \"#utility.yul\":18280:18304   */\n      tag_429\n        /* \"#utility.yul\":18298:18303   */\n      dup3\n        /* \"#utility.yul\":18280:18304   */\n      tag_205\n      jump\t// in\n    tag_429:\n        /* \"#utility.yul\":18260:18305   */\n      tag_248\n      jump\t// in\n    tag_428:\n        /* \"#utility.yul\":18255:18258   */\n      dup3\n        /* \"#utility.yul\":18248:18306   */\n      mstore\n        /* \"#utility.yul\":18155:18312   */\n      pop\n      pop\n      jump\t// out\n        /* \"#utility.yul\":18318:18397   */\n    tag_250:\n        /* \"#utility.yul\":18357:18364   */\n      0x00\n        /* \"#utility.yul\":18386:18391   */\n      dup2\n        /* \"#utility.yul\":18375:18391   */\n      swap1\n      pop\n        /* \"#utility.yul\":18318:18397   */\n      swap2\n      swap1\n      pop\n      jump\t// out\n        /* \"#utility.yul\":18403:18560   */\n    tag_251:\n        /* \"#utility.yul\":18508:18553   */\n      tag_432\n        /* \"#utility.yul\":18528:18552   */\n      tag_433\n        /* \"#utility.yul\":18546:18551   */\n      dup3\n        /* \"#utility.yul\":18528:18552   */\n      tag_197\n      jump\t// in\n    tag_433:\n        /* \"#utility.yul\":18508:18553   */\n      tag_250\n      jump\t// in\n    tag_432:\n        /* \"#utility.yul\":18503:18506   */\n      dup3\n        /* \"#utility.yul\":18496:18554   */\n      mstore\n        /* \"#utility.yul\":18403:18560   */\n      pop\n      pop\n      jump\t// out\n        /* \"#utility.yul\":18566:18963   */\n    tag_196:\n        /* \"#utility.yul\":18706:18709   */\n      0x00\n        /* \"#utility.yul\":18721:18796   */\n      tag_435\n        /* \"#utility.yul\":18792:18795   */\n      dup3\n        /* \"#utility.yul\":18783:18789   */\n      dup6\n        /* \"#utility.yul\":18721:18796   */\n      tag_249\n      jump\t// in\n    tag_435:\n        /* \"#utility.yul\":18821:18823   */\n      0x20\n        /* \"#utility.yul\":18816:18819   */\n      dup3\n        /* \"#utility.yul\":18812:18824   */\n      add\n        /* \"#utility.yul\":18805:18824   */\n      swap2\n      pop\n        /* \"#utility.yul\":18834:18909   */\n      tag_436\n        /* \"#utility.yul\":18905:18908   */\n      dup3\n        /* \"#utility.yul\":18896:18902   */\n      dup5\n        /* \"#utility.yul\":18834:18909   */\n      tag_251\n      jump\t// in\n    tag_436:\n        /* \"#utility.yul\":18934:18936   */\n      0x20\n        /* \"#utility.yul\":18929:18932   */\n      dup3\n        /* \"#utility.yul\":18925:18937   */\n      add\n        /* \"#utility.yul\":18918:18937   */\n      swap2\n      pop\n        /* \"#utility.yul\":18954:18957   */\n      dup2\n        /* \"#utility.yul\":18947:18957   */\n      swap1\n      pop\n        /* \"#utility.yul\":18566:18963   */\n      swap4\n      swap3\n      pop\n      pop\n      pop\n      jump\t// out\n\n    auxdata: 0xa2646970667358221220cde7c636460f5ead3c4b1015a7ddc9da1443f872469b2f297cb1988665cbcfc064736f6c634300081a0033\n}\n",
				"bytecode": {
					"linkReferences": {},
					"object": "60c060405234801561000f575f80fd5b5073da3b641d438362c440ac5458c57e00a712b667007384b9b910527ad5c03a9ca831909e21e236ea7b068173ffffffffffffffffffffffffffffffffffffffff1660a08173ffffffffffffffffffffffffffffffffffffffff16815250508073ffffffffffffffffffffffffffffffffffffffff1660808173ffffffffffffffffffffffffffffffffffffffff168152505050503360015f6101000a81548173ffffffffffffffffffffffffffffffffffffffff021916908373ffffffffffffffffffffffffffffffffffffffff1602179055507f8596b430971ac45bdf6088665b9ad8e8630c9d5049ab54b14dff711bee7c0e265f1b60048190555067016345785d8a000060058190555060805160a05161193f61014b5f395f81816102bf0152610d3d01525f81816108520152610d01015261193f5ff3fe608060405260043610610073575f3560e01c80638da5cb5b1161004d5780638da5cb5b146100e657806394985ddd14610110578063d0ae92fb14610138578063f71d96cb146101545761007a565b80633ccfd60b1461007c57806342619f66146100925780636540742f146100bc5761007a565b3661007a57005b005b348015610087575f80fd5b50610090610192565b005b34801561009d575f80fd5b506100a6610288565b6040516100b39190610fd1565b60405180910390f35b3480156100c7575f80fd5b506100d061028e565b6040516100dd9190610fd1565b60405180910390f35b3480156100f1575f80fd5b506100fa610298565b6040516101079190611029565b60405180910390f35b34801561011b575f80fd5b50610136600480360381019061013191906110a3565b6102bd565b005b610152600480360381019061014d9190611104565b610359565b005b34801561015f575f80fd5b5061017a6004803603810190610175919061112f565b610794565b60405161018993929190611207565b60405180910390f35b60015f9054906101000a900473ffffffffffffffffffffffffffffffffffffffff1673ffffffffffffffffffffffffffffffffffffffff163373ffffffffffffffffffffffffffffffffffffffff1614610221576040517f08c379a000000000000000000000000000000000000000000000000000000000815260040161021890611296565b60405180910390fd5b60015f9054906101000a900473ffffffffffffffffffffffffffffffffffffffff1673ffffffffffffffffffffffffffffffffffffffff166108fc4790811502906040515f60405180830381858888f19350505050158015610285573d5f803e3d5ffd5b50565b60065481565b655af3107a400081565b60015f9054906101000a900473ffffffffffffffffffffffffffffffffffffffff1681565b7f000000000000000000000000000000000000000000000000000000000000000073ffffffffffffffffffffffffffffffffffffffff163373ffffffffffffffffffffffffffffffffffffffff161461034b576040517f08c379a0000000000000000000000000000000000000000000000000000000008152600401610342906112fe565b60405180910390fd5b61035582826107f5565b5050565b655af3107a400034146103a1576040517f08c379a000000000000000000000000000000000000000000000000000000000815260040161039890611366565b60405180910390fd5b3373ffffffffffffffffffffffffffffffffffffffff1660025f600281106103cc576103cb611384565b5b015f015f9054906101000a900473ffffffffffffffffffffffffffffffffffffffff1673ffffffffffffffffffffffffffffffffffffffff161415801561047657503373ffffffffffffffffffffffffffffffffffffffff16600260016002811061043a57610439611384565b5b015f015f9054906101000a900473ffffffffffffffffffffffffffffffffffffffff1673ffffffffffffffffffffffffffffffffffffffff1614155b6104b5576040517f08c379a00000000000000000000000000000000000000000000000000000000081526004016104ac906113fb565b60405180910390fd5b60025f600281106104c9576104c8611384565b5b015f0160159054906101000a900460ff166105d35760405180606001604052803373ffffffffffffffffffffffffffffffffffffffff1681526020018260028111156105185761051761117a565b5b81526020016001151581525060025f6002811061053857610537611384565b5b015f820151815f015f6101000a81548173ffffffffffffffffffffffffffffffffffffffff021916908373ffffffffffffffffffffffffffffffffffffffff1602179055506020820151815f0160146101000a81548160ff021916908360028111156105a7576105a661117a565b5b02179055506040820151815f0160156101000a81548160ff02191690831515021790555090505061072f565b60026001600281106105e8576105e7611384565b5b015f0160159054906101000a900460ff166106f35760405180606001604052803373ffffffffffffffffffffffffffffffffffffffff1681526020018260028111156106375761063661117a565b5b815260200160011515815250600260016002811061065857610657611384565b5b015f820151815f015f6101000a81548173ffffffffffffffffffffffffffffffffffffffff021916908373ffffffffffffffffffffffffffffffffffffffff1602179055506020820151815f0160146101000a81548160ff021916908360028111156106c7576106c661117a565b5b02179055506040820151815f0160156101000a81548160ff02191690831515021790555090505061072e565b6040517f08c379a000000000000000000000000000000000000000000000000000000000815260040161072590611489565b60405180910390fd5b5b60025f6002811061074357610742611384565b5b015f0160159054906101000a900460ff168015610782575060026001600281106107705761076f611384565b5b015f0160159054906101000a900460ff165b156107915761078f61084c565b505b50565b600281600281106107a3575f80fd5b015f91509050805f015f9054906101000a900473ffffffffffffffffffffffffffffffffffffffff1690805f0160149054906101000a900460ff1690805f0160159054906101000a900460ff16905083565b806006819055507facb85192b17e57cdd6ffdc2af021cc70c3a2269771b37b82dd36695fec903af58160405161082b9190610fd1565b60405180910390a161084860028261084391906114d4565b61093c565b5050565b5f6005547f000000000000000000000000000000000000000000000000000000000000000073ffffffffffffffffffffffffffffffffffffffff166370a08231306040518263ffffffff1660e01b81526004016108a99190611029565b602060405180830381865afa1580156108c4573d5f803e3d5ffd5b505050506040513d601f19601f820116820180604052508101906108e89190611518565b1015610929576040517f08c379a00000000000000000000000000000000000000000000000000000000081526004016109209061158d565b60405180910390fd5b610937600454600554610cfe565b905090565b5f60025f6002811061095157610950611384565b5b016040518060600160405290815f82015f9054906101000a900473ffffffffffffffffffffffffffffffffffffffff1673ffffffffffffffffffffffffffffffffffffffff1673ffffffffffffffffffffffffffffffffffffffff1681526020015f820160149054906101000a900460ff1660028111156109d5576109d461117a565b5b60028111156109e7576109e661117a565b5b81526020015f820160159054906101000a900460ff16151515158152505090505f6002600160028110610a1d57610a1c611384565b5b016040518060600160405290815f82015f9054906101000a900473ffffffffffffffffffffffffffffffffffffffff1673ffffffffffffffffffffffffffffffffffffffff1673ffffffffffffffffffffffffffffffffffffffff1681526020015f820160149054906101000a900460ff166002811115610aa157610aa061117a565b5b6002811115610ab357610ab261117a565b5b81526020015f820160159054906101000a900460ff161515151581525050905060605f6002655af3107a4000610ae991906115d8565b90505f8503610bb9576040518060400160405280600e81526020017f506c6179657220312077696e7321000000000000000000000000000000000000815250915080471015610b6d576040517f08c379a0000000000000000000000000000000000000000000000000000000008152600401610b6490611663565b60405180910390fd5b835f015173ffffffffffffffffffffffffffffffffffffffff166108fc8290811502906040515f60405180830381858888f19350505050158015610bb3573d5f803e3d5ffd5b50610c7c565b6040518060400160405280600e81526020017f506c6179657220322077696e7321000000000000000000000000000000000000815250915080471015610c34576040517f08c379a0000000000000000000000000000000000000000000000000000000008152600401610c2b90611663565b60405180910390fd5b825f015173ffffffffffffffffffffffffffffffffffffffff166108fc8290811502906040515f60405180830381858888f19350505050158015610c7a573d5f803e3d5ffd5b505b825f015173ffffffffffffffffffffffffffffffffffffffff16845f015173ffffffffffffffffffffffffffffffffffffffff167f5ddd0f071c29396f63e06c20463f55cc476d471d32e7371e87d748247c36bf3684655af3107a4000604051610ce79291906116e1565b60405180910390a3610cf7610e41565b5050505050565b5f7f000000000000000000000000000000000000000000000000000000000000000073ffffffffffffffffffffffffffffffffffffffff16634000aea07f000000000000000000000000000000000000000000000000000000000000000084865f604051602001610d7092919061171e565b6040516020818303038152906040526040518463ffffffff1660e01b8152600401610d9d93929190611797565b6020604051808303815f875af1158015610db9573d5f803e3d5ffd5b505050506040513d601f19601f82011682018060405250810190610ddd91906117fd565b505f610dfb845f305f808981526020019081526020015f2054610f4d565b905060015f808681526020019081526020015f2054610e1a9190611828565b5f808681526020019081526020015f2081905550610e388482610f87565b91505092915050565b5f60025f60028110610e5657610e55611384565b5b015f015f6101000a81548173ffffffffffffffffffffffffffffffffffffffff021916908373ffffffffffffffffffffffffffffffffffffffff1602179055505f6002600160028110610eac57610eab611384565b5b015f015f6101000a81548173ffffffffffffffffffffffffffffffffffffffff021916908373ffffffffffffffffffffffffffffffffffffffff1602179055505f60025f60028110610f0157610f00611384565b5b015f0160156101000a81548160ff0219169083151502179055505f6002600160028110610f3157610f30611384565b5b015f0160156101000a81548160ff021916908315150217905550565b5f84848484604051602001610f65949392919061185b565b604051602081830303815290604052805190602001205f1c9050949350505050565b5f8282604051602001610f9b9291906118de565b60405160208183030381529060405280519060200120905092915050565b5f819050919050565b610fcb81610fb9565b82525050565b5f602082019050610fe45f830184610fc2565b92915050565b5f73ffffffffffffffffffffffffffffffffffffffff82169050919050565b5f61101382610fea565b9050919050565b61102381611009565b82525050565b5f60208201905061103c5f83018461101a565b92915050565b5f80fd5b5f819050919050565b61105881611046565b8114611062575f80fd5b50565b5f813590506110738161104f565b92915050565b61108281610fb9565b811461108c575f80fd5b50565b5f8135905061109d81611079565b92915050565b5f80604083850312156110b9576110b8611042565b5b5f6110c685828601611065565b92505060206110d78582860161108f565b9150509250929050565b600381106110ed575f80fd5b50565b5f813590506110fe816110e1565b92915050565b5f6020828403121561111957611118611042565b5b5f611126848285016110f0565b91505092915050565b5f6020828403121561114457611143611042565b5b5f6111518482850161108f565b91505092915050565b5f61116482610fea565b9050919050565b6111748161115a565b82525050565b7f4e487b71000000000000000000000000000000000000000000000000000000005f52602160045260245ffd5b600381106111b8576111b761117a565b5b50565b5f8190506111c8826111a7565b919050565b5f6111d7826111bb565b9050919050565b6111e7816111cd565b82525050565b5f8115159050919050565b611201816111ed565b82525050565b5f60608201905061121a5f83018661116b565b61122760208301856111de565b61123460408301846111f8565b949350505050565b5f82825260208201905092915050565b7f4f6e6c7920746865206f776e65722063616e20776974686472617700000000005f82015250565b5f611280601b8361123c565b915061128b8261124c565b602082019050919050565b5f6020820190508181035f8301526112ad81611274565b9050919050565b7f4f6e6c7920565246436f6f7264696e61746f722063616e2066756c66696c6c005f82015250565b5f6112e8601f8361123c565b91506112f3826112b4565b602082019050919050565b5f6020820190508181035f830152611315816112dc565b9050919050565b7f596f75206d757374206265742065786163746c7920302e303030312074424e425f82015250565b5f61135060208361123c565b915061135b8261131c565b602082019050919050565b5f6020820190508181035f83015261137d81611344565b9050919050565b7f4e487b71000000000000000000000000000000000000000000000000000000005f52603260045260245ffd5b7f596f752061726520616c726561647920696e207468652067616d6500000000005f82015250565b5f6113e5601b8361123c565b91506113f0826113b1565b602082019050919050565b5f6020820190508181035f830152611412816113d9565b9050919050565b7f5468652067616d652069732066756c6c2e20506c65617365207761697420666f5f8201527f72207468652063757272656e7420726f756e6420746f2066696e6973682e0000602082015250565b5f611473603e8361123c565b915061147e82611419565b604082019050919050565b5f6020820190508181035f8301526114a081611467565b9050919050565b7f4e487b71000000000000000000000000000000000000000000000000000000005f52601260045260245ffd5b5f6114de82610fb9565b91506114e983610fb9565b9250826114f9576114f86114a7565b5b828206905092915050565b5f8151905061151281611079565b92915050565b5f6020828403121561152d5761152c611042565b5b5f61153a84828501611504565b91505092915050565b7f4e6f7420656e6f756768204c494e4b20696e20636f6e747261637400000000005f82015250565b5f611577601b8361123c565b915061158282611543565b602082019050919050565b5f6020820190508181035f8301526115a48161156b565b9050919050565b7f4e487b71000000000000000000000000000000000000000000000000000000005f52601160045260245ffd5b5f6115e282610fb9565b91506115ed83610fb9565b92508282026115fb81610fb9565b91508282048414831517611612576116116115ab565b5b5092915050565b7f4e6f7420656e6f7567682062616c616e636520696e20636f6e747261637400005f82015250565b5f61164d601e8361123c565b915061165882611619565b602082019050919050565b5f6020820190508181035f83015261167a81611641565b9050919050565b5f81519050919050565b8281835e5f83830152505050565b5f601f19601f8301169050919050565b5f6116b382611681565b6116bd818561123c565b93506116cd81856020860161168b565b6116d681611699565b840191505092915050565b5f6040820190508181035f8301526116f981856116a9565b90506117086020830184610fc2565b9392505050565b61171881611046565b82525050565b5f6040820190506117315f83018561170f565b61173e6020830184610fc2565b9392505050565b5f81519050919050565b5f82825260208201905092915050565b5f61176982611745565b611773818561174f565b935061178381856020860161168b565b61178c81611699565b840191505092915050565b5f6060820190506117aa5f83018661101a565b6117b76020830185610fc2565b81810360408301526117c9818461175f565b9050949350505050565b6117dc816111ed565b81146117e6575f80fd5b50565b5f815190506117f7816117d3565b92915050565b5f6020828403121561181257611811611042565b5b5f61181f848285016117e9565b91505092915050565b5f61183282610fb9565b915061183d83610fb9565b9250828201905080821115611855576118546115ab565b5b92915050565b5f60808201905061186e5f83018761170f565b61187b6020830186610fc2565b611888604083018561101a565b6118956060830184610fc2565b95945050505050565b5f819050919050565b6118b86118b382611046565b61189e565b82525050565b5f819050919050565b6118d86118d382610fb9565b6118be565b82525050565b5f6118e982856118a7565b6020820191506118f982846118c7565b602082019150819050939250505056fea2646970667358221220cde7c636460f5ead3c4b1015a7ddc9da1443f872469b2f297cb1988665cbcfc064736f6c634300081a0033",
					"opcodes": "PUSH1 0xC0 PUSH1 0x40 MSTORE CALLVALUE DUP1 ISZERO PUSH2 0xF JUMPI PUSH0 DUP1 REVERT JUMPDEST POP PUSH20 0xDA3B641D438362C440AC5458C57E00A712B66700 PUSH20 0x84B9B910527AD5C03A9CA831909E21E236EA7B06 DUP2 PUSH20 0xFFFFFFFFFFFFFFFFFFFFFFFFFFFFFFFFFFFFFFFF AND PUSH1 0xA0 DUP2 PUSH20 0xFFFFFFFFFFFFFFFFFFFFFFFFFFFFFFFFFFFFFFFF AND DUP2 MSTORE POP POP DUP1 PUSH20 0xFFFFFFFFFFFFFFFFFFFFFFFFFFFFFFFFFFFFFFFF AND PUSH1 0x80 DUP2 PUSH20 0xFFFFFFFFFFFFFFFFFFFFFFFFFFFFFFFFFFFFFFFF AND DUP2 MSTORE POP POP POP POP CALLER PUSH1 0x1 PUSH0 PUSH2 0x100 EXP DUP2 SLOAD DUP2 PUSH20 0xFFFFFFFFFFFFFFFFFFFFFFFFFFFFFFFFFFFFFFFF MUL NOT AND SWAP1 DUP4 PUSH20 0xFFFFFFFFFFFFFFFFFFFFFFFFFFFFFFFFFFFFFFFF AND MUL OR SWAP1 SSTORE POP PUSH32 0x8596B430971AC45BDF6088665B9AD8E8630C9D5049AB54B14DFF711BEE7C0E26 PUSH0 SHL PUSH1 0x4 DUP2 SWAP1 SSTORE POP PUSH8 0x16345785D8A0000 PUSH1 0x5 DUP2 SWAP1 SSTORE POP PUSH1 0x80 MLOAD PUSH1 0xA0 MLOAD PUSH2 0x193F PUSH2 0x14B PUSH0 CODECOPY PUSH0 DUP2 DUP2 PUSH2 0x2BF ADD MSTORE PUSH2 0xD3D ADD MSTORE PUSH0 DUP2 DUP2 PUSH2 0x852 ADD MSTORE PUSH2 0xD01 ADD MSTORE PUSH2 0x193F PUSH0 RETURN INVALID PUSH1 0x80 PUSH1 0x40 MSTORE PUSH1 0x4 CALLDATASIZE LT PUSH2 0x73 JUMPI PUSH0 CALLDATALOAD PUSH1 0xE0 SHR DUP1 PUSH4 0x8DA5CB5B GT PUSH2 0x4D JUMPI DUP1 PUSH4 0x8DA5CB5B EQ PUSH2 0xE6 JUMPI DUP1 PUSH4 0x94985DDD EQ PUSH2 0x110 JUMPI DUP1 PUSH4 0xD0AE92FB EQ PUSH2 0x138 JUMPI DUP1 PUSH4 0xF71D96CB EQ PUSH2 0x154 JUMPI PUSH2 0x7A JUMP JUMPDEST DUP1 PUSH4 0x3CCFD60B EQ PUSH2 0x7C JUMPI DUP1 PUSH4 0x42619F66 EQ PUSH2 0x92 JUMPI DUP1 PUSH4 0x6540742F EQ PUSH2 0xBC JUMPI PUSH2 0x7A JUMP JUMPDEST CALLDATASIZE PUSH2 0x7A JUMPI STOP JUMPDEST STOP JUMPDEST CALLVALUE DUP1 ISZERO PUSH2 0x87 JUMPI PUSH0 DUP1 REVERT JUMPDEST POP PUSH2 0x90 PUSH2 0x192 JUMP JUMPDEST STOP JUMPDEST CALLVALUE DUP1 ISZERO PUSH2 0x9D JUMPI PUSH0 DUP1 REVERT JUMPDEST POP PUSH2 0xA6 PUSH2 0x288 JUMP JUMPDEST PUSH1 0x40 MLOAD PUSH2 0xB3 SWAP2 SWAP1 PUSH2 0xFD1 JUMP JUMPDEST PUSH1 0x40 MLOAD DUP1 SWAP2 SUB SWAP1 RETURN JUMPDEST CALLVALUE DUP1 ISZERO PUSH2 0xC7 JUMPI PUSH0 DUP1 REVERT JUMPDEST POP PUSH2 0xD0 PUSH2 0x28E JUMP JUMPDEST PUSH1 0x40 MLOAD PUSH2 0xDD SWAP2 SWAP1 PUSH2 0xFD1 JUMP JUMPDEST PUSH1 0x40 MLOAD DUP1 SWAP2 SUB SWAP1 RETURN JUMPDEST CALLVALUE DUP1 ISZERO PUSH2 0xF1 JUMPI PUSH0 DUP1 REVERT JUMPDEST POP PUSH2 0xFA PUSH2 0x298 JUMP JUMPDEST PUSH1 0x40 MLOAD PUSH2 0x107 SWAP2 SWAP1 PUSH2 0x1029 JUMP JUMPDEST PUSH1 0x40 MLOAD DUP1 SWAP2 SUB SWAP1 RETURN JUMPDEST CALLVALUE DUP1 ISZERO PUSH2 0x11B JUMPI PUSH0 DUP1 REVERT JUMPDEST POP PUSH2 0x136 PUSH1 0x4 DUP1 CALLDATASIZE SUB DUP2 ADD SWAP1 PUSH2 0x131 SWAP2 SWAP1 PUSH2 0x10A3 JUMP JUMPDEST PUSH2 0x2BD JUMP JUMPDEST STOP JUMPDEST PUSH2 0x152 PUSH1 0x4 DUP1 CALLDATASIZE SUB DUP2 ADD SWAP1 PUSH2 0x14D SWAP2 SWAP1 PUSH2 0x1104 JUMP JUMPDEST PUSH2 0x359 JUMP JUMPDEST STOP JUMPDEST CALLVALUE DUP1 ISZERO PUSH2 0x15F JUMPI PUSH0 DUP1 REVERT JUMPDEST POP PUSH2 0x17A PUSH1 0x4 DUP1 CALLDATASIZE SUB DUP2 ADD SWAP1 PUSH2 0x175 SWAP2 SWAP1 PUSH2 0x112F JUMP JUMPDEST PUSH2 0x794 JUMP JUMPDEST PUSH1 0x40 MLOAD PUSH2 0x189 SWAP4 SWAP3 SWAP2 SWAP1 PUSH2 0x1207 JUMP JUMPDEST PUSH1 0x40 MLOAD DUP1 SWAP2 SUB SWAP1 RETURN JUMPDEST PUSH1 0x1 PUSH0 SWAP1 SLOAD SWAP1 PUSH2 0x100 EXP SWAP1 DIV PUSH20 0xFFFFFFFFFFFFFFFFFFFFFFFFFFFFFFFFFFFFFFFF AND PUSH20 0xFFFFFFFFFFFFFFFFFFFFFFFFFFFFFFFFFFFFFFFF AND CALLER PUSH20 0xFFFFFFFFFFFFFFFFFFFFFFFFFFFFFFFFFFFFFFFF AND EQ PUSH2 0x221 JUMPI PUSH1 0x40 MLOAD PUSH32 0x8C379A000000000000000000000000000000000000000000000000000000000 DUP2 MSTORE PUSH1 0x4 ADD PUSH2 0x218 SWAP1 PUSH2 0x1296 JUMP JUMPDEST PUSH1 0x40 MLOAD DUP1 SWAP2 SUB SWAP1 REVERT JUMPDEST PUSH1 0x1 PUSH0 SWAP1 SLOAD SWAP1 PUSH2 0x100 EXP SWAP1 DIV PUSH20 0xFFFFFFFFFFFFFFFFFFFFFFFFFFFFFFFFFFFFFFFF AND PUSH20 0xFFFFFFFFFFFFFFFFFFFFFFFFFFFFFFFFFFFFFFFF AND PUSH2 0x8FC SELFBALANCE SWAP1 DUP2 ISZERO MUL SWAP1 PUSH1 0x40 MLOAD PUSH0 PUSH1 0x40 MLOAD DUP1 DUP4 SUB DUP2 DUP6 DUP9 DUP9 CALL SWAP4 POP POP POP POP ISZERO DUP1 ISZERO PUSH2 0x285 JUMPI RETURNDATASIZE PUSH0 DUP1 RETURNDATACOPY RETURNDATASIZE PUSH0 REVERT JUMPDEST POP JUMP JUMPDEST PUSH1 0x6 SLOAD DUP2 JUMP JUMPDEST PUSH6 0x5AF3107A4000 DUP2 JUMP JUMPDEST PUSH1 0x1 PUSH0 SWAP1 SLOAD SWAP1 PUSH2 0x100 EXP SWAP1 DIV PUSH20 0xFFFFFFFFFFFFFFFFFFFFFFFFFFFFFFFFFFFFFFFF AND DUP2 JUMP JUMPDEST PUSH32 0x0 PUSH20 0xFFFFFFFFFFFFFFFFFFFFFFFFFFFFFFFFFFFFFFFF AND CALLER PUSH20 0xFFFFFFFFFFFFFFFFFFFFFFFFFFFFFFFFFFFFFFFF AND EQ PUSH2 0x34B JUMPI PUSH1 0x40 MLOAD PUSH32 0x8C379A000000000000000000000000000000000000000000000000000000000 DUP2 MSTORE PUSH1 0x4 ADD PUSH2 0x342 SWAP1 PUSH2 0x12FE JUMP JUMPDEST PUSH1 0x40 MLOAD DUP1 SWAP2 SUB SWAP1 REVERT JUMPDEST PUSH2 0x355 DUP3 DUP3 PUSH2 0x7F5 JUMP JUMPDEST POP POP JUMP JUMPDEST PUSH6 0x5AF3107A4000 CALLVALUE EQ PUSH2 0x3A1 JUMPI PUSH1 0x40 MLOAD PUSH32 0x8C379A000000000000000000000000000000000000000000000000000000000 DUP2 MSTORE PUSH1 0x4 ADD PUSH2 0x398 SWAP1 PUSH2 0x1366 JUMP JUMPDEST PUSH1 0x40 MLOAD DUP1 SWAP2 SUB SWAP1 REVERT JUMPDEST CALLER PUSH20 0xFFFFFFFFFFFFFFFFFFFFFFFFFFFFFFFFFFFFFFFF AND PUSH1 0x2 PUSH0 PUSH1 0x2 DUP2 LT PUSH2 0x3CC JUMPI PUSH2 0x3CB PUSH2 0x1384 JUMP JUMPDEST JUMPDEST ADD PUSH0 ADD PUSH0 SWAP1 SLOAD SWAP1 PUSH2 0x100 EXP SWAP1 DIV PUSH20 0xFFFFFFFFFFFFFFFFFFFFFFFFFFFFFFFFFFFFFFFF AND PUSH20 0xFFFFFFFFFFFFFFFFFFFFFFFFFFFFFFFFFFFFFFFF AND EQ ISZERO DUP1 ISZERO PUSH2 0x476 JUMPI POP CALLER PUSH20 0xFFFFFFFFFFFFFFFFFFFFFFFFFFFFFFFFFFFFFFFF AND PUSH1 0x2 PUSH1 0x1 PUSH1 0x2 DUP2 LT PUSH2 0x43A JUMPI PUSH2 0x439 PUSH2 0x1384 JUMP JUMPDEST JUMPDEST ADD PUSH0 ADD PUSH0 SWAP1 SLOAD SWAP1 PUSH2 0x100 EXP SWAP1 DIV PUSH20 0xFFFFFFFFFFFFFFFFFFFFFFFFFFFFFFFFFFFFFFFF AND PUSH20 0xFFFFFFFFFFFFFFFFFFFFFFFFFFFFFFFFFFFFFFFF AND EQ ISZERO JUMPDEST PUSH2 0x4B5 JUMPI PUSH1 0x40 MLOAD PUSH32 0x8C379A000000000000000000000000000000000000000000000000000000000 DUP2 MSTORE PUSH1 0x4 ADD PUSH2 0x4AC SWAP1 PUSH2 0x13FB JUMP JUMPDEST PUSH1 0x40 MLOAD DUP1 SWAP2 SUB SWAP1 REVERT JUMPDEST PUSH1 0x2 PUSH0 PUSH1 0x2 DUP2 LT PUSH2 0x4C9 JUMPI PUSH2 0x4C8 PUSH2 0x1384 JUMP JUMPDEST JUMPDEST ADD PUSH0 ADD PUSH1 0x15 SWAP1 SLOAD SWAP1 PUSH2 0x100 EXP SWAP1 DIV PUSH1 0xFF AND PUSH2 0x5D3 JUMPI PUSH1 0x40 MLOAD DUP1 PUSH1 0x60 ADD PUSH1 0x40 MSTORE DUP1 CALLER PUSH20 0xFFFFFFFFFFFFFFFFFFFFFFFFFFFFFFFFFFFFFFFF AND DUP2 MSTORE PUSH1 0x20 ADD DUP3 PUSH1 0x2 DUP2 GT ISZERO PUSH2 0x518 JUMPI PUSH2 0x517 PUSH2 0x117A JUMP JUMPDEST JUMPDEST DUP2 MSTORE PUSH1 0x20 ADD PUSH1 0x1 ISZERO ISZERO DUP2 MSTORE POP PUSH1 0x2 PUSH0 PUSH1 0x2 DUP2 LT PUSH2 0x538 JUMPI PUSH2 0x537 PUSH2 0x1384 JUMP JUMPDEST JUMPDEST ADD PUSH0 DUP3 ADD MLOAD DUP2 PUSH0 ADD PUSH0 PUSH2 0x100 EXP DUP2 SLOAD DUP2 PUSH20 0xFFFFFFFFFFFFFFFFFFFFFFFFFFFFFFFFFFFFFFFF MUL NOT AND SWAP1 DUP4 PUSH20 0xFFFFFFFFFFFFFFFFFFFFFFFFFFFFFFFFFFFFFFFF AND MUL OR SWAP1 SSTORE POP PUSH1 0x20 DUP3 ADD MLOAD DUP2 PUSH0 ADD PUSH1 0x14 PUSH2 0x100 EXP DUP2 SLOAD DUP2 PUSH1 0xFF MUL NOT AND SWAP1 DUP4 PUSH1 0x2 DUP2 GT ISZERO PUSH2 0x5A7 JUMPI PUSH2 0x5A6 PUSH2 0x117A JUMP JUMPDEST JUMPDEST MUL OR SWAP1 SSTORE POP PUSH1 0x40 DUP3 ADD MLOAD DUP2 PUSH0 ADD PUSH1 0x15 PUSH2 0x100 EXP DUP2 SLOAD DUP2 PUSH1 0xFF MUL NOT AND SWAP1 DUP4 ISZERO ISZERO MUL OR SWAP1 SSTORE POP SWAP1 POP POP PUSH2 0x72F JUMP JUMPDEST PUSH1 0x2 PUSH1 0x1 PUSH1 0x2 DUP2 LT PUSH2 0x5E8 JUMPI PUSH2 0x5E7 PUSH2 0x1384 JUMP JUMPDEST JUMPDEST ADD PUSH0 ADD PUSH1 0x15 SWAP1 SLOAD SWAP1 PUSH2 0x100 EXP SWAP1 DIV PUSH1 0xFF AND PUSH2 0x6F3 JUMPI PUSH1 0x40 MLOAD DUP1 PUSH1 0x60 ADD PUSH1 0x40 MSTORE DUP1 CALLER PUSH20 0xFFFFFFFFFFFFFFFFFFFFFFFFFFFFFFFFFFFFFFFF AND DUP2 MSTORE PUSH1 0x20 ADD DUP3 PUSH1 0x2 DUP2 GT ISZERO PUSH2 0x637 JUMPI PUSH2 0x636 PUSH2 0x117A JUMP JUMPDEST JUMPDEST DUP2 MSTORE PUSH1 0x20 ADD PUSH1 0x1 ISZERO ISZERO DUP2 MSTORE POP PUSH1 0x2 PUSH1 0x1 PUSH1 0x2 DUP2 LT PUSH2 0x658 JUMPI PUSH2 0x657 PUSH2 0x1384 JUMP JUMPDEST JUMPDEST ADD PUSH0 DUP3 ADD MLOAD DUP2 PUSH0 ADD PUSH0 PUSH2 0x100 EXP DUP2 SLOAD DUP2 PUSH20 0xFFFFFFFFFFFFFFFFFFFFFFFFFFFFFFFFFFFFFFFF MUL NOT AND SWAP1 DUP4 PUSH20 0xFFFFFFFFFFFFFFFFFFFFFFFFFFFFFFFFFFFFFFFF AND MUL OR SWAP1 SSTORE POP PUSH1 0x20 DUP3 ADD MLOAD DUP2 PUSH0 ADD PUSH1 0x14 PUSH2 0x100 EXP DUP2 SLOAD DUP2 PUSH1 0xFF MUL NOT AND SWAP1 DUP4 PUSH1 0x2 DUP2 GT ISZERO PUSH2 0x6C7 JUMPI PUSH2 0x6C6 PUSH2 0x117A JUMP JUMPDEST JUMPDEST MUL OR SWAP1 SSTORE POP PUSH1 0x40 DUP3 ADD MLOAD DUP2 PUSH0 ADD PUSH1 0x15 PUSH2 0x100 EXP DUP2 SLOAD DUP2 PUSH1 0xFF MUL NOT AND SWAP1 DUP4 ISZERO ISZERO MUL OR SWAP1 SSTORE POP SWAP1 POP POP PUSH2 0x72E JUMP JUMPDEST PUSH1 0x40 MLOAD PUSH32 0x8C379A000000000000000000000000000000000000000000000000000000000 DUP2 MSTORE PUSH1 0x4 ADD PUSH2 0x725 SWAP1 PUSH2 0x1489 JUMP JUMPDEST PUSH1 0x40 MLOAD DUP1 SWAP2 SUB SWAP1 REVERT JUMPDEST JUMPDEST PUSH1 0x2 PUSH0 PUSH1 0x2 DUP2 LT PUSH2 0x743 JUMPI PUSH2 0x742 PUSH2 0x1384 JUMP JUMPDEST JUMPDEST ADD PUSH0 ADD PUSH1 0x15 SWAP1 SLOAD SWAP1 PUSH2 0x100 EXP SWAP1 DIV PUSH1 0xFF AND DUP1 ISZERO PUSH2 0x782 JUMPI POP PUSH1 0x2 PUSH1 0x1 PUSH1 0x2 DUP2 LT PUSH2 0x770 JUMPI PUSH2 0x76F PUSH2 0x1384 JUMP JUMPDEST JUMPDEST ADD PUSH0 ADD PUSH1 0x15 SWAP1 SLOAD SWAP1 PUSH2 0x100 EXP SWAP1 DIV PUSH1 0xFF AND JUMPDEST ISZERO PUSH2 0x791 JUMPI PUSH2 0x78F PUSH2 0x84C JUMP JUMPDEST POP JUMPDEST POP JUMP JUMPDEST PUSH1 0x2 DUP2 PUSH1 0x2 DUP2 LT PUSH2 0x7A3 JUMPI PUSH0 DUP1 REVERT JUMPDEST ADD PUSH0 SWAP2 POP SWAP1 POP DUP1 PUSH0 ADD PUSH0 SWAP1 SLOAD SWAP1 PUSH2 0x100 EXP SWAP1 DIV PUSH20 0xFFFFFFFFFFFFFFFFFFFFFFFFFFFFFFFFFFFFFFFF AND SWAP1 DUP1 PUSH0 ADD PUSH1 0x14 SWAP1 SLOAD SWAP1 PUSH2 0x100 EXP SWAP1 DIV PUSH1 0xFF AND SWAP1 DUP1 PUSH0 ADD PUSH1 0x15 SWAP1 SLOAD SWAP1 PUSH2 0x100 EXP SWAP1 DIV PUSH1 0xFF AND SWAP1 POP DUP4 JUMP JUMPDEST DUP1 PUSH1 0x6 DUP2 SWAP1 SSTORE POP PUSH32 0xACB85192B17E57CDD6FFDC2AF021CC70C3A2269771B37B82DD36695FEC903AF5 DUP2 PUSH1 0x40 MLOAD PUSH2 0x82B SWAP2 SWAP1 PUSH2 0xFD1 JUMP JUMPDEST PUSH1 0x40 MLOAD DUP1 SWAP2 SUB SWAP1 LOG1 PUSH2 0x848 PUSH1 0x2 DUP3 PUSH2 0x843 SWAP2 SWAP1 PUSH2 0x14D4 JUMP JUMPDEST PUSH2 0x93C JUMP JUMPDEST POP POP JUMP JUMPDEST PUSH0 PUSH1 0x5 SLOAD PUSH32 0x0 PUSH20 0xFFFFFFFFFFFFFFFFFFFFFFFFFFFFFFFFFFFFFFFF AND PUSH4 0x70A08231 ADDRESS PUSH1 0x40 MLOAD DUP3 PUSH4 0xFFFFFFFF AND PUSH1 0xE0 SHL DUP2 MSTORE PUSH1 0x4 ADD PUSH2 0x8A9 SWAP2 SWAP1 PUSH2 0x1029 JUMP JUMPDEST PUSH1 0x20 PUSH1 0x40 MLOAD DUP1 DUP4 SUB DUP2 DUP7 GAS STATICCALL ISZERO DUP1 ISZERO PUSH2 0x8C4 JUMPI RETURNDATASIZE PUSH0 DUP1 RETURNDATACOPY RETURNDATASIZE PUSH0 REVERT JUMPDEST POP POP POP POP PUSH1 0x40 MLOAD RETURNDATASIZE PUSH1 0x1F NOT PUSH1 0x1F DUP3 ADD AND DUP3 ADD DUP1 PUSH1 0x40 MSTORE POP DUP2 ADD SWAP1 PUSH2 0x8E8 SWAP2 SWAP1 PUSH2 0x1518 JUMP JUMPDEST LT ISZERO PUSH2 0x929 JUMPI PUSH1 0x40 MLOAD PUSH32 0x8C379A000000000000000000000000000000000000000000000000000000000 DUP2 MSTORE PUSH1 0x4 ADD PUSH2 0x920 SWAP1 PUSH2 0x158D JUMP JUMPDEST PUSH1 0x40 MLOAD DUP1 SWAP2 SUB SWAP1 REVERT JUMPDEST PUSH2 0x937 PUSH1 0x4 SLOAD PUSH1 0x5 SLOAD PUSH2 0xCFE JUMP JUMPDEST SWAP1 POP SWAP1 JUMP JUMPDEST PUSH0 PUSH1 0x2 PUSH0 PUSH1 0x2 DUP2 LT PUSH2 0x951 JUMPI PUSH2 0x950 PUSH2 0x1384 JUMP JUMPDEST JUMPDEST ADD PUSH1 0x40 MLOAD DUP1 PUSH1 0x60 ADD PUSH1 0x40 MSTORE SWAP1 DUP2 PUSH0 DUP3 ADD PUSH0 SWAP1 SLOAD SWAP1 PUSH2 0x100 EXP SWAP1 DIV PUSH20 0xFFFFFFFFFFFFFFFFFFFFFFFFFFFFFFFFFFFFFFFF AND PUSH20 0xFFFFFFFFFFFFFFFFFFFFFFFFFFFFFFFFFFFFFFFF AND PUSH20 0xFFFFFFFFFFFFFFFFFFFFFFFFFFFFFFFFFFFFFFFF AND DUP2 MSTORE PUSH1 0x20 ADD PUSH0 DUP3 ADD PUSH1 0x14 SWAP1 SLOAD SWAP1 PUSH2 0x100 EXP SWAP1 DIV PUSH1 0xFF AND PUSH1 0x2 DUP2 GT ISZERO PUSH2 0x9D5 JUMPI PUSH2 0x9D4 PUSH2 0x117A JUMP JUMPDEST JUMPDEST PUSH1 0x2 DUP2 GT ISZERO PUSH2 0x9E7 JUMPI PUSH2 0x9E6 PUSH2 0x117A JUMP JUMPDEST JUMPDEST DUP2 MSTORE PUSH1 0x20 ADD PUSH0 DUP3 ADD PUSH1 0x15 SWAP1 SLOAD SWAP1 PUSH2 0x100 EXP SWAP1 DIV PUSH1 0xFF AND ISZERO ISZERO ISZERO ISZERO DUP2 MSTORE POP POP SWAP1 POP PUSH0 PUSH1 0x2 PUSH1 0x1 PUSH1 0x2 DUP2 LT PUSH2 0xA1D JUMPI PUSH2 0xA1C PUSH2 0x1384 JUMP JUMPDEST JUMPDEST ADD PUSH1 0x40 MLOAD DUP1 PUSH1 0x60 ADD PUSH1 0x40 MSTORE SWAP1 DUP2 PUSH0 DUP3 ADD PUSH0 SWAP1 SLOAD SWAP1 PUSH2 0x100 EXP SWAP1 DIV PUSH20 0xFFFFFFFFFFFFFFFFFFFFFFFFFFFFFFFFFFFFFFFF AND PUSH20 0xFFFFFFFFFFFFFFFFFFFFFFFFFFFFFFFFFFFFFFFF AND PUSH20 0xFFFFFFFFFFFFFFFFFFFFFFFFFFFFFFFFFFFFFFFF AND DUP2 MSTORE PUSH1 0x20 ADD PUSH0 DUP3 ADD PUSH1 0x14 SWAP1 SLOAD SWAP1 PUSH2 0x100 EXP SWAP1 DIV PUSH1 0xFF AND PUSH1 0x2 DUP2 GT ISZERO PUSH2 0xAA1 JUMPI PUSH2 0xAA0 PUSH2 0x117A JUMP JUMPDEST JUMPDEST PUSH1 0x2 DUP2 GT ISZERO PUSH2 0xAB3 JUMPI PUSH2 0xAB2 PUSH2 0x117A JUMP JUMPDEST JUMPDEST DUP2 MSTORE PUSH1 0x20 ADD PUSH0 DUP3 ADD PUSH1 0x15 SWAP1 SLOAD SWAP1 PUSH2 0x100 EXP SWAP1 DIV PUSH1 0xFF AND ISZERO ISZERO ISZERO ISZERO DUP2 MSTORE POP POP SWAP1 POP PUSH1 0x60 PUSH0 PUSH1 0x2 PUSH6 0x5AF3107A4000 PUSH2 0xAE9 SWAP2 SWAP1 PUSH2 0x15D8 JUMP JUMPDEST SWAP1 POP PUSH0 DUP6 SUB PUSH2 0xBB9 JUMPI PUSH1 0x40 MLOAD DUP1 PUSH1 0x40 ADD PUSH1 0x40 MSTORE DUP1 PUSH1 0xE DUP2 MSTORE PUSH1 0x20 ADD PUSH32 0x506C6179657220312077696E7321000000000000000000000000000000000000 DUP2 MSTORE POP SWAP2 POP DUP1 SELFBALANCE LT ISZERO PUSH2 0xB6D JUMPI PUSH1 0x40 MLOAD PUSH32 0x8C379A000000000000000000000000000000000000000000000000000000000 DUP2 MSTORE PUSH1 0x4 ADD PUSH2 0xB64 SWAP1 PUSH2 0x1663 JUMP JUMPDEST PUSH1 0x40 MLOAD DUP1 SWAP2 SUB SWAP1 REVERT JUMPDEST DUP4 PUSH0 ADD MLOAD PUSH20 0xFFFFFFFFFFFFFFFFFFFFFFFFFFFFFFFFFFFFFFFF AND PUSH2 0x8FC DUP3 SWAP1 DUP2 ISZERO MUL SWAP1 PUSH1 0x40 MLOAD PUSH0 PUSH1 0x40 MLOAD DUP1 DUP4 SUB DUP2 DUP6 DUP9 DUP9 CALL SWAP4 POP POP POP POP ISZERO DUP1 ISZERO PUSH2 0xBB3 JUMPI RETURNDATASIZE PUSH0 DUP1 RETURNDATACOPY RETURNDATASIZE PUSH0 REVERT JUMPDEST POP PUSH2 0xC7C JUMP JUMPDEST PUSH1 0x40 MLOAD DUP1 PUSH1 0x40 ADD PUSH1 0x40 MSTORE DUP1 PUSH1 0xE DUP2 MSTORE PUSH1 0x20 ADD PUSH32 0x506C6179657220322077696E7321000000000000000000000000000000000000 DUP2 MSTORE POP SWAP2 POP DUP1 SELFBALANCE LT ISZERO PUSH2 0xC34 JUMPI PUSH1 0x40 MLOAD PUSH32 0x8C379A000000000000000000000000000000000000000000000000000000000 DUP2 MSTORE PUSH1 0x4 ADD PUSH2 0xC2B SWAP1 PUSH2 0x1663 JUMP JUMPDEST PUSH1 0x40 MLOAD DUP1 SWAP2 SUB SWAP1 REVERT JUMPDEST DUP3 PUSH0 ADD MLOAD PUSH20 0xFFFFFFFFFFFFFFFFFFFFFFFFFFFFFFFFFFFFFFFF AND PUSH2 0x8FC DUP3 SWAP1 DUP2 ISZERO MUL SWAP1 PUSH1 0x40 MLOAD PUSH0 PUSH1 0x40 MLOAD DUP1 DUP4 SUB DUP2 DUP6 DUP9 DUP9 CALL SWAP4 POP POP POP POP ISZERO DUP1 ISZERO PUSH2 0xC7A JUMPI RETURNDATASIZE PUSH0 DUP1 RETURNDATACOPY RETURNDATASIZE PUSH0 REVERT JUMPDEST POP JUMPDEST DUP3 PUSH0 ADD MLOAD PUSH20 0xFFFFFFFFFFFFFFFFFFFFFFFFFFFFFFFFFFFFFFFF AND DUP5 PUSH0 ADD MLOAD PUSH20 0xFFFFFFFFFFFFFFFFFFFFFFFFFFFFFFFFFFFFFFFF AND PUSH32 0x5DDD0F071C29396F63E06C20463F55CC476D471D32E7371E87D748247C36BF36 DUP5 PUSH6 0x5AF3107A4000 PUSH1 0x40 MLOAD PUSH2 0xCE7 SWAP3 SWAP2 SWAP1 PUSH2 0x16E1 JUMP JUMPDEST PUSH1 0x40 MLOAD DUP1 SWAP2 SUB SWAP1 LOG3 PUSH2 0xCF7 PUSH2 0xE41 JUMP JUMPDEST POP POP POP POP POP JUMP JUMPDEST PUSH0 PUSH32 0x0 PUSH20 0xFFFFFFFFFFFFFFFFFFFFFFFFFFFFFFFFFFFFFFFF AND PUSH4 0x4000AEA0 PUSH32 0x0 DUP5 DUP7 PUSH0 PUSH1 0x40 MLOAD PUSH1 0x20 ADD PUSH2 0xD70 SWAP3 SWAP2 SWAP1 PUSH2 0x171E JUMP JUMPDEST PUSH1 0x40 MLOAD PUSH1 0x20 DUP2 DUP4 SUB SUB DUP2 MSTORE SWAP1 PUSH1 0x40 MSTORE PUSH1 0x40 MLOAD DUP5 PUSH4 0xFFFFFFFF AND PUSH1 0xE0 SHL DUP2 MSTORE PUSH1 0x4 ADD PUSH2 0xD9D SWAP4 SWAP3 SWAP2 SWAP1 PUSH2 0x1797 JUMP JUMPDEST PUSH1 0x20 PUSH1 0x40 MLOAD DUP1 DUP4 SUB DUP2 PUSH0 DUP8 GAS CALL ISZERO DUP1 ISZERO PUSH2 0xDB9 JUMPI RETURNDATASIZE PUSH0 DUP1 RETURNDATACOPY RETURNDATASIZE PUSH0 REVERT JUMPDEST POP POP POP POP PUSH1 0x40 MLOAD RETURNDATASIZE PUSH1 0x1F NOT PUSH1 0x1F DUP3 ADD AND DUP3 ADD DUP1 PUSH1 0x40 MSTORE POP DUP2 ADD SWAP1 PUSH2 0xDDD SWAP2 SWAP1 PUSH2 0x17FD JUMP JUMPDEST POP PUSH0 PUSH2 0xDFB DUP5 PUSH0 ADDRESS PUSH0 DUP1 DUP10 DUP2 MSTORE PUSH1 0x20 ADD SWAP1 DUP2 MSTORE PUSH1 0x20 ADD PUSH0 KECCAK256 SLOAD PUSH2 0xF4D JUMP JUMPDEST SWAP1 POP PUSH1 0x1 PUSH0 DUP1 DUP7 DUP2 MSTORE PUSH1 0x20 ADD SWAP1 DUP2 MSTORE PUSH1 0x20 ADD PUSH0 KECCAK256 SLOAD PUSH2 0xE1A SWAP2 SWAP1 PUSH2 0x1828 JUMP JUMPDEST PUSH0 DUP1 DUP7 DUP2 MSTORE PUSH1 0x20 ADD SWAP1 DUP2 MSTORE PUSH1 0x20 ADD PUSH0 KECCAK256 DUP2 SWAP1 SSTORE POP PUSH2 0xE38 DUP5 DUP3 PUSH2 0xF87 JUMP JUMPDEST SWAP2 POP POP SWAP3 SWAP2 POP POP JUMP JUMPDEST PUSH0 PUSH1 0x2 PUSH0 PUSH1 0x2 DUP2 LT PUSH2 0xE56 JUMPI PUSH2 0xE55 PUSH2 0x1384 JUMP JUMPDEST JUMPDEST ADD PUSH0 ADD PUSH0 PUSH2 0x100 EXP DUP2 SLOAD DUP2 PUSH20 0xFFFFFFFFFFFFFFFFFFFFFFFFFFFFFFFFFFFFFFFF MUL NOT AND SWAP1 DUP4 PUSH20 0xFFFFFFFFFFFFFFFFFFFFFFFFFFFFFFFFFFFFFFFF AND MUL OR SWAP1 SSTORE POP PUSH0 PUSH1 0x2 PUSH1 0x1 PUSH1 0x2 DUP2 LT PUSH2 0xEAC JUMPI PUSH2 0xEAB PUSH2 0x1384 JUMP JUMPDEST JUMPDEST ADD PUSH0 ADD PUSH0 PUSH2 0x100 EXP DUP2 SLOAD DUP2 PUSH20 0xFFFFFFFFFFFFFFFFFFFFFFFFFFFFFFFFFFFFFFFF MUL NOT AND SWAP1 DUP4 PUSH20 0xFFFFFFFFFFFFFFFFFFFFFFFFFFFFFFFFFFFFFFFF AND MUL OR SWAP1 SSTORE POP PUSH0 PUSH1 0x2 PUSH0 PUSH1 0x2 DUP2 LT PUSH2 0xF01 JUMPI PUSH2 0xF00 PUSH2 0x1384 JUMP JUMPDEST JUMPDEST ADD PUSH0 ADD PUSH1 0x15 PUSH2 0x100 EXP DUP2 SLOAD DUP2 PUSH1 0xFF MUL NOT AND SWAP1 DUP4 ISZERO ISZERO MUL OR SWAP1 SSTORE POP PUSH0 PUSH1 0x2 PUSH1 0x1 PUSH1 0x2 DUP2 LT PUSH2 0xF31 JUMPI PUSH2 0xF30 PUSH2 0x1384 JUMP JUMPDEST JUMPDEST ADD PUSH0 ADD PUSH1 0x15 PUSH2 0x100 EXP DUP2 SLOAD DUP2 PUSH1 0xFF MUL NOT AND SWAP1 DUP4 ISZERO ISZERO MUL OR SWAP1 SSTORE POP JUMP JUMPDEST PUSH0 DUP5 DUP5 DUP5 DUP5 PUSH1 0x40 MLOAD PUSH1 0x20 ADD PUSH2 0xF65 SWAP5 SWAP4 SWAP3 SWAP2 SWAP1 PUSH2 0x185B JUMP JUMPDEST PUSH1 0x40 MLOAD PUSH1 0x20 DUP2 DUP4 SUB SUB DUP2 MSTORE SWAP1 PUSH1 0x40 MSTORE DUP1 MLOAD SWAP1 PUSH1 0x20 ADD KECCAK256 PUSH0 SHR SWAP1 POP SWAP5 SWAP4 POP POP POP POP JUMP JUMPDEST PUSH0 DUP3 DUP3 PUSH1 0x40 MLOAD PUSH1 0x20 ADD PUSH2 0xF9B SWAP3 SWAP2 SWAP1 PUSH2 0x18DE JUMP JUMPDEST PUSH1 0x40 MLOAD PUSH1 0x20 DUP2 DUP4 SUB SUB DUP2 MSTORE SWAP1 PUSH1 0x40 MSTORE DUP1 MLOAD SWAP1 PUSH1 0x20 ADD KECCAK256 SWAP1 POP SWAP3 SWAP2 POP POP JUMP JUMPDEST PUSH0 DUP2 SWAP1 POP SWAP2 SWAP1 POP JUMP JUMPDEST PUSH2 0xFCB DUP2 PUSH2 0xFB9 JUMP JUMPDEST DUP3 MSTORE POP POP JUMP JUMPDEST PUSH0 PUSH1 0x20 DUP3 ADD SWAP1 POP PUSH2 0xFE4 PUSH0 DUP4 ADD DUP5 PUSH2 0xFC2 JUMP JUMPDEST SWAP3 SWAP2 POP POP JUMP JUMPDEST PUSH0 PUSH20 0xFFFFFFFFFFFFFFFFFFFFFFFFFFFFFFFFFFFFFFFF DUP3 AND SWAP1 POP SWAP2 SWAP1 POP JUMP JUMPDEST PUSH0 PUSH2 0x1013 DUP3 PUSH2 0xFEA JUMP JUMPDEST SWAP1 POP SWAP2 SWAP1 POP JUMP JUMPDEST PUSH2 0x1023 DUP2 PUSH2 0x1009 JUMP JUMPDEST DUP3 MSTORE POP POP JUMP JUMPDEST PUSH0 PUSH1 0x20 DUP3 ADD SWAP1 POP PUSH2 0x103C PUSH0 DUP4 ADD DUP5 PUSH2 0x101A JUMP JUMPDEST SWAP3 SWAP2 POP POP JUMP JUMPDEST PUSH0 DUP1 REVERT JUMPDEST PUSH0 DUP2 SWAP1 POP SWAP2 SWAP1 POP JUMP JUMPDEST PUSH2 0x1058 DUP2 PUSH2 0x1046 JUMP JUMPDEST DUP2 EQ PUSH2 0x1062 JUMPI PUSH0 DUP1 REVERT JUMPDEST POP JUMP JUMPDEST PUSH0 DUP2 CALLDATALOAD SWAP1 POP PUSH2 0x1073 DUP2 PUSH2 0x104F JUMP JUMPDEST SWAP3 SWAP2 POP POP JUMP JUMPDEST PUSH2 0x1082 DUP2 PUSH2 0xFB9 JUMP JUMPDEST DUP2 EQ PUSH2 0x108C JUMPI PUSH0 DUP1 REVERT JUMPDEST POP JUMP JUMPDEST PUSH0 DUP2 CALLDATALOAD SWAP1 POP PUSH2 0x109D DUP2 PUSH2 0x1079 JUMP JUMPDEST SWAP3 SWAP2 POP POP JUMP JUMPDEST PUSH0 DUP1 PUSH1 0x40 DUP4 DUP6 SUB SLT ISZERO PUSH2 0x10B9 JUMPI PUSH2 0x10B8 PUSH2 0x1042 JUMP JUMPDEST JUMPDEST PUSH0 PUSH2 0x10C6 DUP6 DUP3 DUP7 ADD PUSH2 0x1065 JUMP JUMPDEST SWAP3 POP POP PUSH1 0x20 PUSH2 0x10D7 DUP6 DUP3 DUP7 ADD PUSH2 0x108F JUMP JUMPDEST SWAP2 POP POP SWAP3 POP SWAP3 SWAP1 POP JUMP JUMPDEST PUSH1 0x3 DUP2 LT PUSH2 0x10ED JUMPI PUSH0 DUP1 REVERT JUMPDEST POP JUMP JUMPDEST PUSH0 DUP2 CALLDATALOAD SWAP1 POP PUSH2 0x10FE DUP2 PUSH2 0x10E1 JUMP JUMPDEST SWAP3 SWAP2 POP POP JUMP JUMPDEST PUSH0 PUSH1 0x20 DUP3 DUP5 SUB SLT ISZERO PUSH2 0x1119 JUMPI PUSH2 0x1118 PUSH2 0x1042 JUMP JUMPDEST JUMPDEST PUSH0 PUSH2 0x1126 DUP5 DUP3 DUP6 ADD PUSH2 0x10F0 JUMP JUMPDEST SWAP2 POP POP SWAP3 SWAP2 POP POP JUMP JUMPDEST PUSH0 PUSH1 0x20 DUP3 DUP5 SUB SLT ISZERO PUSH2 0x1144 JUMPI PUSH2 0x1143 PUSH2 0x1042 JUMP JUMPDEST JUMPDEST PUSH0 PUSH2 0x1151 DUP5 DUP3 DUP6 ADD PUSH2 0x108F JUMP JUMPDEST SWAP2 POP POP SWAP3 SWAP2 POP POP JUMP JUMPDEST PUSH0 PUSH2 0x1164 DUP3 PUSH2 0xFEA JUMP JUMPDEST SWAP1 POP SWAP2 SWAP1 POP JUMP JUMPDEST PUSH2 0x1174 DUP2 PUSH2 0x115A JUMP JUMPDEST DUP3 MSTORE POP POP JUMP JUMPDEST PUSH32 0x4E487B7100000000000000000000000000000000000000000000000000000000 PUSH0 MSTORE PUSH1 0x21 PUSH1 0x4 MSTORE PUSH1 0x24 PUSH0 REVERT JUMPDEST PUSH1 0x3 DUP2 LT PUSH2 0x11B8 JUMPI PUSH2 0x11B7 PUSH2 0x117A JUMP JUMPDEST JUMPDEST POP JUMP JUMPDEST PUSH0 DUP2 SWAP1 POP PUSH2 0x11C8 DUP3 PUSH2 0x11A7 JUMP JUMPDEST SWAP2 SWAP1 POP JUMP JUMPDEST PUSH0 PUSH2 0x11D7 DUP3 PUSH2 0x11BB JUMP JUMPDEST SWAP1 POP SWAP2 SWAP1 POP JUMP JUMPDEST PUSH2 0x11E7 DUP2 PUSH2 0x11CD JUMP JUMPDEST DUP3 MSTORE POP POP JUMP JUMPDEST PUSH0 DUP2 ISZERO ISZERO SWAP1 POP SWAP2 SWAP1 POP JUMP JUMPDEST PUSH2 0x1201 DUP2 PUSH2 0x11ED JUMP JUMPDEST DUP3 MSTORE POP POP JUMP JUMPDEST PUSH0 PUSH1 0x60 DUP3 ADD SWAP1 POP PUSH2 0x121A PUSH0 DUP4 ADD DUP7 PUSH2 0x116B JUMP JUMPDEST PUSH2 0x1227 PUSH1 0x20 DUP4 ADD DUP6 PUSH2 0x11DE JUMP JUMPDEST PUSH2 0x1234 PUSH1 0x40 DUP4 ADD DUP5 PUSH2 0x11F8 JUMP JUMPDEST SWAP5 SWAP4 POP POP POP POP JUMP JUMPDEST PUSH0 DUP3 DUP3 MSTORE PUSH1 0x20 DUP3 ADD SWAP1 POP SWAP3 SWAP2 POP POP JUMP JUMPDEST PUSH32 0x4F6E6C7920746865206F776E65722063616E2077697468647261770000000000 PUSH0 DUP3 ADD MSTORE POP JUMP JUMPDEST PUSH0 PUSH2 0x1280 PUSH1 0x1B DUP4 PUSH2 0x123C JUMP JUMPDEST SWAP2 POP PUSH2 0x128B DUP3 PUSH2 0x124C JUMP JUMPDEST PUSH1 0x20 DUP3 ADD SWAP1 POP SWAP2 SWAP1 POP JUMP JUMPDEST PUSH0 PUSH1 0x20 DUP3 ADD SWAP1 POP DUP2 DUP2 SUB PUSH0 DUP4 ADD MSTORE PUSH2 0x12AD DUP2 PUSH2 0x1274 JUMP JUMPDEST SWAP1 POP SWAP2 SWAP1 POP JUMP JUMPDEST PUSH32 0x4F6E6C7920565246436F6F7264696E61746F722063616E2066756C66696C6C00 PUSH0 DUP3 ADD MSTORE POP JUMP JUMPDEST PUSH0 PUSH2 0x12E8 PUSH1 0x1F DUP4 PUSH2 0x123C JUMP JUMPDEST SWAP2 POP PUSH2 0x12F3 DUP3 PUSH2 0x12B4 JUMP JUMPDEST PUSH1 0x20 DUP3 ADD SWAP1 POP SWAP2 SWAP1 POP JUMP JUMPDEST PUSH0 PUSH1 0x20 DUP3 ADD SWAP1 POP DUP2 DUP2 SUB PUSH0 DUP4 ADD MSTORE PUSH2 0x1315 DUP2 PUSH2 0x12DC JUMP JUMPDEST SWAP1 POP SWAP2 SWAP1 POP JUMP JUMPDEST PUSH32 0x596F75206D757374206265742065786163746C7920302E303030312074424E42 PUSH0 DUP3 ADD MSTORE POP JUMP JUMPDEST PUSH0 PUSH2 0x1350 PUSH1 0x20 DUP4 PUSH2 0x123C JUMP JUMPDEST SWAP2 POP PUSH2 0x135B DUP3 PUSH2 0x131C JUMP JUMPDEST PUSH1 0x20 DUP3 ADD SWAP1 POP SWAP2 SWAP1 POP JUMP JUMPDEST PUSH0 PUSH1 0x20 DUP3 ADD SWAP1 POP DUP2 DUP2 SUB PUSH0 DUP4 ADD MSTORE PUSH2 0x137D DUP2 PUSH2 0x1344 JUMP JUMPDEST SWAP1 POP SWAP2 SWAP1 POP JUMP JUMPDEST PUSH32 0x4E487B7100000000000000000000000000000000000000000000000000000000 PUSH0 MSTORE PUSH1 0x32 PUSH1 0x4 MSTORE PUSH1 0x24 PUSH0 REVERT JUMPDEST PUSH32 0x596F752061726520616C726561647920696E207468652067616D650000000000 PUSH0 DUP3 ADD MSTORE POP JUMP JUMPDEST PUSH0 PUSH2 0x13E5 PUSH1 0x1B DUP4 PUSH2 0x123C JUMP JUMPDEST SWAP2 POP PUSH2 0x13F0 DUP3 PUSH2 0x13B1 JUMP JUMPDEST PUSH1 0x20 DUP3 ADD SWAP1 POP SWAP2 SWAP1 POP JUMP JUMPDEST PUSH0 PUSH1 0x20 DUP3 ADD SWAP1 POP DUP2 DUP2 SUB PUSH0 DUP4 ADD MSTORE PUSH2 0x1412 DUP2 PUSH2 0x13D9 JUMP JUMPDEST SWAP1 POP SWAP2 SWAP1 POP JUMP JUMPDEST PUSH32 0x5468652067616D652069732066756C6C2E20506C65617365207761697420666F PUSH0 DUP3 ADD MSTORE PUSH32 0x72207468652063757272656E7420726F756E6420746F2066696E6973682E0000 PUSH1 0x20 DUP3 ADD MSTORE POP JUMP JUMPDEST PUSH0 PUSH2 0x1473 PUSH1 0x3E DUP4 PUSH2 0x123C JUMP JUMPDEST SWAP2 POP PUSH2 0x147E DUP3 PUSH2 0x1419 JUMP JUMPDEST PUSH1 0x40 DUP3 ADD SWAP1 POP SWAP2 SWAP1 POP JUMP JUMPDEST PUSH0 PUSH1 0x20 DUP3 ADD SWAP1 POP DUP2 DUP2 SUB PUSH0 DUP4 ADD MSTORE PUSH2 0x14A0 DUP2 PUSH2 0x1467 JUMP JUMPDEST SWAP1 POP SWAP2 SWAP1 POP JUMP JUMPDEST PUSH32 0x4E487B7100000000000000000000000000000000000000000000000000000000 PUSH0 MSTORE PUSH1 0x12 PUSH1 0x4 MSTORE PUSH1 0x24 PUSH0 REVERT JUMPDEST PUSH0 PUSH2 0x14DE DUP3 PUSH2 0xFB9 JUMP JUMPDEST SWAP2 POP PUSH2 0x14E9 DUP4 PUSH2 0xFB9 JUMP JUMPDEST SWAP3 POP DUP3 PUSH2 0x14F9 JUMPI PUSH2 0x14F8 PUSH2 0x14A7 JUMP JUMPDEST JUMPDEST DUP3 DUP3 MOD SWAP1 POP SWAP3 SWAP2 POP POP JUMP JUMPDEST PUSH0 DUP2 MLOAD SWAP1 POP PUSH2 0x1512 DUP2 PUSH2 0x1079 JUMP JUMPDEST SWAP3 SWAP2 POP POP JUMP JUMPDEST PUSH0 PUSH1 0x20 DUP3 DUP5 SUB SLT ISZERO PUSH2 0x152D JUMPI PUSH2 0x152C PUSH2 0x1042 JUMP JUMPDEST JUMPDEST PUSH0 PUSH2 0x153A DUP5 DUP3 DUP6 ADD PUSH2 0x1504 JUMP JUMPDEST SWAP2 POP POP SWAP3 SWAP2 POP POP JUMP JUMPDEST PUSH32 0x4E6F7420656E6F756768204C494E4B20696E20636F6E74726163740000000000 PUSH0 DUP3 ADD MSTORE POP JUMP JUMPDEST PUSH0 PUSH2 0x1577 PUSH1 0x1B DUP4 PUSH2 0x123C JUMP JUMPDEST SWAP2 POP PUSH2 0x1582 DUP3 PUSH2 0x1543 JUMP JUMPDEST PUSH1 0x20 DUP3 ADD SWAP1 POP SWAP2 SWAP1 POP JUMP JUMPDEST PUSH0 PUSH1 0x20 DUP3 ADD SWAP1 POP DUP2 DUP2 SUB PUSH0 DUP4 ADD MSTORE PUSH2 0x15A4 DUP2 PUSH2 0x156B JUMP JUMPDEST SWAP1 POP SWAP2 SWAP1 POP JUMP JUMPDEST PUSH32 0x4E487B7100000000000000000000000000000000000000000000000000000000 PUSH0 MSTORE PUSH1 0x11 PUSH1 0x4 MSTORE PUSH1 0x24 PUSH0 REVERT JUMPDEST PUSH0 PUSH2 0x15E2 DUP3 PUSH2 0xFB9 JUMP JUMPDEST SWAP2 POP PUSH2 0x15ED DUP4 PUSH2 0xFB9 JUMP JUMPDEST SWAP3 POP DUP3 DUP3 MUL PUSH2 0x15FB DUP2 PUSH2 0xFB9 JUMP JUMPDEST SWAP2 POP DUP3 DUP3 DIV DUP5 EQ DUP4 ISZERO OR PUSH2 0x1612 JUMPI PUSH2 0x1611 PUSH2 0x15AB JUMP JUMPDEST JUMPDEST POP SWAP3 SWAP2 POP POP JUMP JUMPDEST PUSH32 0x4E6F7420656E6F7567682062616C616E636520696E20636F6E74726163740000 PUSH0 DUP3 ADD MSTORE POP JUMP JUMPDEST PUSH0 PUSH2 0x164D PUSH1 0x1E DUP4 PUSH2 0x123C JUMP JUMPDEST SWAP2 POP PUSH2 0x1658 DUP3 PUSH2 0x1619 JUMP JUMPDEST PUSH1 0x20 DUP3 ADD SWAP1 POP SWAP2 SWAP1 POP JUMP JUMPDEST PUSH0 PUSH1 0x20 DUP3 ADD SWAP1 POP DUP2 DUP2 SUB PUSH0 DUP4 ADD MSTORE PUSH2 0x167A DUP2 PUSH2 0x1641 JUMP JUMPDEST SWAP1 POP SWAP2 SWAP1 POP JUMP JUMPDEST PUSH0 DUP2 MLOAD SWAP1 POP SWAP2 SWAP1 POP JUMP JUMPDEST DUP3 DUP2 DUP4 MCOPY PUSH0 DUP4 DUP4 ADD MSTORE POP POP POP JUMP JUMPDEST PUSH0 PUSH1 0x1F NOT PUSH1 0x1F DUP4 ADD AND SWAP1 POP SWAP2 SWAP1 POP JUMP JUMPDEST PUSH0 PUSH2 0x16B3 DUP3 PUSH2 0x1681 JUMP JUMPDEST PUSH2 0x16BD DUP2 DUP6 PUSH2 0x123C JUMP JUMPDEST SWAP4 POP PUSH2 0x16CD DUP2 DUP6 PUSH1 0x20 DUP7 ADD PUSH2 0x168B JUMP JUMPDEST PUSH2 0x16D6 DUP2 PUSH2 0x1699 JUMP JUMPDEST DUP5 ADD SWAP2 POP POP SWAP3 SWAP2 POP POP JUMP JUMPDEST PUSH0 PUSH1 0x40 DUP3 ADD SWAP1 POP DUP2 DUP2 SUB PUSH0 DUP4 ADD MSTORE PUSH2 0x16F9 DUP2 DUP6 PUSH2 0x16A9 JUMP JUMPDEST SWAP1 POP PUSH2 0x1708 PUSH1 0x20 DUP4 ADD DUP5 PUSH2 0xFC2 JUMP JUMPDEST SWAP4 SWAP3 POP POP POP JUMP JUMPDEST PUSH2 0x1718 DUP2 PUSH2 0x1046 JUMP JUMPDEST DUP3 MSTORE POP POP JUMP JUMPDEST PUSH0 PUSH1 0x40 DUP3 ADD SWAP1 POP PUSH2 0x1731 PUSH0 DUP4 ADD DUP6 PUSH2 0x170F JUMP JUMPDEST PUSH2 0x173E PUSH1 0x20 DUP4 ADD DUP5 PUSH2 0xFC2 JUMP JUMPDEST SWAP4 SWAP3 POP POP POP JUMP JUMPDEST PUSH0 DUP2 MLOAD SWAP1 POP SWAP2 SWAP1 POP JUMP JUMPDEST PUSH0 DUP3 DUP3 MSTORE PUSH1 0x20 DUP3 ADD SWAP1 POP SWAP3 SWAP2 POP POP JUMP JUMPDEST PUSH0 PUSH2 0x1769 DUP3 PUSH2 0x1745 JUMP JUMPDEST PUSH2 0x1773 DUP2 DUP6 PUSH2 0x174F JUMP JUMPDEST SWAP4 POP PUSH2 0x1783 DUP2 DUP6 PUSH1 0x20 DUP7 ADD PUSH2 0x168B JUMP JUMPDEST PUSH2 0x178C DUP2 PUSH2 0x1699 JUMP JUMPDEST DUP5 ADD SWAP2 POP POP SWAP3 SWAP2 POP POP JUMP JUMPDEST PUSH0 PUSH1 0x60 DUP3 ADD SWAP1 POP PUSH2 0x17AA PUSH0 DUP4 ADD DUP7 PUSH2 0x101A JUMP JUMPDEST PUSH2 0x17B7 PUSH1 0x20 DUP4 ADD DUP6 PUSH2 0xFC2 JUMP JUMPDEST DUP2 DUP2 SUB PUSH1 0x40 DUP4 ADD MSTORE PUSH2 0x17C9 DUP2 DUP5 PUSH2 0x175F JUMP JUMPDEST SWAP1 POP SWAP5 SWAP4 POP POP POP POP JUMP JUMPDEST PUSH2 0x17DC DUP2 PUSH2 0x11ED JUMP JUMPDEST DUP2 EQ PUSH2 0x17E6 JUMPI PUSH0 DUP1 REVERT JUMPDEST POP JUMP JUMPDEST PUSH0 DUP2 MLOAD SWAP1 POP PUSH2 0x17F7 DUP2 PUSH2 0x17D3 JUMP JUMPDEST SWAP3 SWAP2 POP POP JUMP JUMPDEST PUSH0 PUSH1 0x20 DUP3 DUP5 SUB SLT ISZERO PUSH2 0x1812 JUMPI PUSH2 0x1811 PUSH2 0x1042 JUMP JUMPDEST JUMPDEST PUSH0 PUSH2 0x181F DUP5 DUP3 DUP6 ADD PUSH2 0x17E9 JUMP JUMPDEST SWAP2 POP POP SWAP3 SWAP2 POP POP JUMP JUMPDEST PUSH0 PUSH2 0x1832 DUP3 PUSH2 0xFB9 JUMP JUMPDEST SWAP2 POP PUSH2 0x183D DUP4 PUSH2 0xFB9 JUMP JUMPDEST SWAP3 POP DUP3 DUP3 ADD SWAP1 POP DUP1 DUP3 GT ISZERO PUSH2 0x1855 JUMPI PUSH2 0x1854 PUSH2 0x15AB JUMP JUMPDEST JUMPDEST SWAP3 SWAP2 POP POP JUMP JUMPDEST PUSH0 PUSH1 0x80 DUP3 ADD SWAP1 POP PUSH2 0x186E PUSH0 DUP4 ADD DUP8 PUSH2 0x170F JUMP JUMPDEST PUSH2 0x187B PUSH1 0x20 DUP4 ADD DUP7 PUSH2 0xFC2 JUMP JUMPDEST PUSH2 0x1888 PUSH1 0x40 DUP4 ADD DUP6 PUSH2 0x101A JUMP JUMPDEST PUSH2 0x1895 PUSH1 0x60 DUP4 ADD DUP5 PUSH2 0xFC2 JUMP JUMPDEST SWAP6 SWAP5 POP POP POP POP POP JUMP JUMPDEST PUSH0 DUP2 SWAP1 POP SWAP2 SWAP1 POP JUMP JUMPDEST PUSH2 0x18B8 PUSH2 0x18B3 DUP3 PUSH2 0x1046 JUMP JUMPDEST PUSH2 0x189E JUMP JUMPDEST DUP3 MSTORE POP POP JUMP JUMPDEST PUSH0 DUP2 SWAP1 POP SWAP2 SWAP1 POP JUMP JUMPDEST PUSH2 0x18D8 PUSH2 0x18D3 DUP3 PUSH2 0xFB9 JUMP JUMPDEST PUSH2 0x18BE JUMP JUMPDEST DUP3 MSTORE POP POP JUMP JUMPDEST PUSH0 PUSH2 0x18E9 DUP3 DUP6 PUSH2 0x18A7 JUMP JUMPDEST PUSH1 0x20 DUP3 ADD SWAP2 POP PUSH2 0x18F9 DUP3 DUP5 PUSH2 0x18C7 JUMP JUMPDEST PUSH1 0x20 DUP3 ADD SWAP2 POP DUP2 SWAP1 POP SWAP4 SWAP3 POP POP POP JUMP INVALID LOG2 PUSH5 0x6970667358 0x22 SLT KECCAK256 0xCD 0xE7 0xC6 CALLDATASIZE CHAINID 0xF MCOPY 0xAD EXTCODECOPY 0x4B LT ISZERO 0xA7 0xDD 0xC9 0xDA EQ NUMBER 0xF8 PUSH19 0x469B2F297CB1988665CBCFC064736F6C634300 ADDMOD BYTE STOP CALLER "
				},
				"gasEstimates": {
					"creation": {
						"codeDepositCost": "1292600",
						"executionCost": "infinite",
						"totalCost": "infinite"
					},
					"external": {
						"": "151",
						"MIN_BET()": "370",
						"joinGame(uint8)": "infinite",
						"owner()": "2508",
						"players(uint256)": "7576",
						"randomResult()": "2448",
						"rawFulfillRandomness(bytes32,uint256)": "infinite",
						"withdraw()": "infinite"
					},
					"internal": {
						"determineWinner(uint256)": "infinite",
						"fulfillRandomness(bytes32,uint256)": "infinite",
						"requestRandomNumber()": "infinite",
						"resetGame()": "97305"
					}
				},
				"methodIdentifiers": {
					"MIN_BET()": "6540742f",
					"joinGame(uint8)": "d0ae92fb",
					"owner()": "8da5cb5b",
					"players(uint256)": "f71d96cb",
					"randomResult()": "42619f66",
					"rawFulfillRandomness(bytes32,uint256)": "94985ddd",
					"withdraw()": "3ccfd60b"
				}
			},
			"storageLayout": {
				"storage": [
					{
						"astId": 79,
						"contract": "contracts/RSP-2.sol:RockPaperScissors",
						"label": "nonces",
						"offset": 0,
						"slot": "0",
						"type": "t_mapping(t_bytes32,t_uint256)"
					},
					{
						"astId": 272,
						"contract": "contracts/RSP-2.sol:RockPaperScissors",
						"label": "owner",
						"offset": 0,
						"slot": "1",
						"type": "t_address"
					},
					{
						"astId": 302,
						"contract": "contracts/RSP-2.sol:RockPaperScissors",
						"label": "players",
						"offset": 0,
						"slot": "2",
						"type": "t_array(t_struct(Player)297_storage)2_storage"
					},
					{
						"astId": 304,
						"contract": "contracts/RSP-2.sol:RockPaperScissors",
						"label": "keyHash",
						"offset": 0,
						"slot": "4",
						"type": "t_bytes32"
					},
					{
						"astId": 306,
						"contract": "contracts/RSP-2.sol:RockPaperScissors",
						"label": "fee",
						"offset": 0,
						"slot": "5",
						"type": "t_uint256"
					},
					{
						"astId": 308,
						"contract": "contracts/RSP-2.sol:RockPaperScissors",
						"label": "randomResult",
						"offset": 0,
						"slot": "6",
						"type": "t_uint256"
					}
				],
				"types": {
					"t_address": {
						"encoding": "inplace",
						"label": "address",
						"numberOfBytes": "20"
					},
					"t_address_payable": {
						"encoding": "inplace",
						"label": "address payable",
						"numberOfBytes": "20"
					},
					"t_array(t_struct(Player)297_storage)2_storage": {
						"base": "t_struct(Player)297_storage",
						"encoding": "inplace",
						"label": "struct RockPaperScissors.Player[2]",
						"numberOfBytes": "64"
					},
					"t_bool": {
						"encoding": "inplace",
						"label": "bool",
						"numberOfBytes": "1"
					},
					"t_bytes32": {
						"encoding": "inplace",
						"label": "bytes32",
						"numberOfBytes": "32"
					},
					"t_enum(Move)289": {
						"encoding": "inplace",
						"label": "enum RockPaperScissors.Move",
						"numberOfBytes": "1"
					},
					"t_mapping(t_bytes32,t_uint256)": {
						"encoding": "mapping",
						"key": "t_bytes32",
						"label": "mapping(bytes32 => uint256)",
						"numberOfBytes": "32",
						"value": "t_uint256"
					},
					"t_struct(Player)297_storage": {
						"encoding": "inplace",
						"label": "struct RockPaperScissors.Player",
						"members": [
							{
								"astId": 291,
								"contract": "contracts/RSP-2.sol:RockPaperScissors",
								"label": "playerAddress",
								"offset": 0,
								"slot": "0",
								"type": "t_address_payable"
							},
							{
								"astId": 294,
								"contract": "contracts/RSP-2.sol:RockPaperScissors",
								"label": "move",
								"offset": 20,
								"slot": "0",
								"type": "t_enum(Move)289"
							},
							{
								"astId": 296,
								"contract": "contracts/RSP-2.sol:RockPaperScissors",
								"label": "hasPlayed",
								"offset": 21,
								"slot": "0",
								"type": "t_bool"
							}
						],
						"numberOfBytes": "32"
					},
					"t_uint256": {
						"encoding": "inplace",
						"label": "uint256",
						"numberOfBytes": "32"
					}
				}
			},
			"userdoc": {
				"kind": "user",
				"methods": {},
				"version": 1
			}
		}
	}
}