{
	"contracts/Chess.sol": {
		"ChessGame": {
			"abi": [
				{
					"anonymous": false,
					"inputs": [
						{
							"indexed": false,
							"internalType": "uint256",
							"name": "gameId",
							"type": "uint256"
						},
						{
							"indexed": false,
							"internalType": "address",
							"name": "player1",
							"type": "address"
						}
					],
					"name": "GameCreated",
					"type": "event"
				},
				{
					"anonymous": false,
					"inputs": [
						{
							"indexed": false,
							"internalType": "uint256",
							"name": "gameId",
							"type": "uint256"
						},
						{
							"indexed": false,
							"internalType": "address",
							"name": "player",
							"type": "address"
						},
						{
							"indexed": false,
							"internalType": "string",
							"name": "boardState",
							"type": "string"
						}
					],
					"name": "MoveMade",
					"type": "event"
				},
				{
					"anonymous": false,
					"inputs": [
						{
							"indexed": false,
							"internalType": "uint256",
							"name": "gameId",
							"type": "uint256"
						},
						{
							"indexed": false,
							"internalType": "address",
							"name": "player2",
							"type": "address"
						}
					],
					"name": "PlayerJoined",
					"type": "event"
				},
				{
					"inputs": [],
					"name": "createGame",
					"outputs": [
						{
							"internalType": "uint256",
							"name": "",
							"type": "uint256"
						}
					],
					"stateMutability": "nonpayable",
					"type": "function"
				},
				{
					"inputs": [
						{
							"internalType": "uint256",
							"name": "gameId",
							"type": "uint256"
						}
					],
					"name": "endGame",
					"outputs": [],
					"stateMutability": "nonpayable",
					"type": "function"
				},
				{
					"inputs": [],
					"name": "gameIdCounter",
					"outputs": [
						{
							"internalType": "uint256",
							"name": "",
							"type": "uint256"
						}
					],
					"stateMutability": "view",
					"type": "function"
				},
				{
					"inputs": [
						{
							"internalType": "uint256",
							"name": "",
							"type": "uint256"
						}
					],
					"name": "games",
					"outputs": [
						{
							"internalType": "address",
							"name": "player1",
							"type": "address"
						},
						{
							"internalType": "address",
							"name": "player2",
							"type": "address"
						},
						{
							"internalType": "uint256",
							"name": "turn",
							"type": "uint256"
						},
						{
							"internalType": "string",
							"name": "boardState",
							"type": "string"
						},
						{
							"internalType": "bool",
							"name": "isActive",
							"type": "bool"
						}
					],
					"stateMutability": "view",
					"type": "function"
				},
				{
					"inputs": [
						{
							"internalType": "uint256",
							"name": "gameId",
							"type": "uint256"
						}
					],
					"name": "joinGame",
					"outputs": [],
					"stateMutability": "nonpayable",
					"type": "function"
				},
				{
					"inputs": [
						{
							"internalType": "uint256",
							"name": "gameId",
							"type": "uint256"
						},
						{
							"internalType": "string",
							"name": "newBoardState",
							"type": "string"
						}
					],
					"name": "makeMove",
					"outputs": [],
					"stateMutability": "nonpayable",
					"type": "function"
				}
			],
			"devdoc": {
				"kind": "dev",
				"methods": {
					"createGame()": {
						"returns": {
							"_0": "The ID of the created game"
						}
					},
					"endGame(uint256)": {
						"params": {
							"gameId": "The ID of the game"
						}
					},
					"joinGame(uint256)": {
						"params": {
							"gameId": "The ID of the game to join"
						}
					},
					"makeMove(uint256,string)": {
						"params": {
							"gameId": "The ID of the game",
							"newBoardState": "The updated board state in FEN notation"
						}
					}
				},
				"version": 1
			},
			"evm": {
				"assembly": "    /* \"contracts/Chess.sol\":104:3233  contract ChessGame {... */\n  mstore(0x40, 0x80)\n  callvalue\n  dup1\n  iszero\n  tag_1\n  jumpi\n  0x00\n  dup1\n  revert\ntag_1:\n  pop\n  dataSize(sub_0)\n  dup1\n  dataOffset(sub_0)\n  0x00\n  codecopy\n  0x00\n  return\nstop\n\nsub_0: assembly {\n        /* \"contracts/Chess.sol\":104:3233  contract ChessGame {... */\n      mstore(0x40, 0x80)\n      callvalue\n      dup1\n      iszero\n      tag_1\n      jumpi\n      0x00\n      dup1\n      revert\n    tag_1:\n      pop\n      jumpi(tag_2, lt(calldatasize, 0x04))\n      shr(0xe0, calldataload(0x00))\n      dup1\n      0x117a5b90\n      eq\n      tag_3\n      jumpi\n      dup1\n      0x1bb412d6\n      eq\n      tag_4\n      jumpi\n      dup1\n      0x7255d729\n      eq\n      tag_5\n      jumpi\n      dup1\n      0x7d20e927\n      eq\n      tag_6\n      jumpi\n      dup1\n      0xd0399bb8\n      eq\n      tag_7\n      jumpi\n      dup1\n      0xefaa55a0\n      eq\n      tag_8\n      jumpi\n    tag_2:\n      0x00\n      dup1\n      revert\n        /* \"contracts/Chess.sol\":576:613  mapping(uint256 => Game) public games */\n    tag_3:\n      tag_9\n      0x04\n      dup1\n      calldatasize\n      sub\n      dup2\n      add\n      swap1\n      tag_10\n      swap2\n      swap1\n      tag_11\n      jump\t// in\n    tag_10:\n      tag_12\n      jump\t// in\n    tag_9:\n      mload(0x40)\n      tag_13\n      swap6\n      swap5\n      swap4\n      swap3\n      swap2\n      swap1\n      tag_14\n      jump\t// in\n    tag_13:\n      mload(0x40)\n      dup1\n      swap2\n      sub\n      swap1\n      return\n        /* \"contracts/Chess.sol\":669:697  uint256 public gameIdCounter */\n    tag_4:\n      tag_15\n      tag_16\n      jump\t// in\n    tag_15:\n      mload(0x40)\n      tag_17\n      swap2\n      swap1\n      tag_18\n      jump\t// in\n    tag_17:\n      mload(0x40)\n      dup1\n      swap2\n      sub\n      swap1\n      return\n        /* \"contracts/Chess.sol\":1152:1549  function createGame() external returns (uint256) {... */\n    tag_5:\n      tag_19\n      tag_20\n      jump\t// in\n    tag_19:\n      mload(0x40)\n      tag_21\n      swap2\n      swap1\n      tag_18\n      jump\t// in\n    tag_21:\n      mload(0x40)\n      dup1\n      swap2\n      sub\n      swap1\n      return\n        /* \"contracts/Chess.sol\":2267:2843  function makeMove(uint256 gameId, string calldata newBoardState) external {... */\n    tag_6:\n      tag_22\n      0x04\n      dup1\n      calldatasize\n      sub\n      dup2\n      add\n      swap1\n      tag_23\n      swap2\n      swap1\n      tag_24\n      jump\t// in\n    tag_23:\n      tag_25\n      jump\t// in\n    tag_22:\n      stop\n        /* \"contracts/Chess.sol\":2944:3230  function endGame(uint256 gameId) external {... */\n    tag_7:\n      tag_26\n      0x04\n      dup1\n      calldatasize\n      sub\n      dup2\n      add\n      swap1\n      tag_27\n      swap2\n      swap1\n      tag_11\n      jump\t// in\n    tag_27:\n      tag_28\n      jump\t// in\n    tag_26:\n      stop\n        /* \"contracts/Chess.sol\":1672:2077  function joinGame(uint256 gameId) external {... */\n    tag_8:\n      tag_29\n      0x04\n      dup1\n      calldatasize\n      sub\n      dup2\n      add\n      swap1\n      tag_30\n      swap2\n      swap1\n      tag_11\n      jump\t// in\n    tag_30:\n      tag_31\n      jump\t// in\n    tag_29:\n      stop\n        /* \"contracts/Chess.sol\":576:613  mapping(uint256 => Game) public games */\n    tag_12:\n      mstore(0x20, 0x00)\n      dup1\n      0x00\n      mstore\n      keccak256(0x00, 0x40)\n      0x00\n      swap2\n      pop\n      swap1\n      pop\n      dup1\n      0x00\n      add\n      0x00\n      swap1\n      sload\n      swap1\n      0x0100\n      exp\n      swap1\n      div\n      0xffffffffffffffffffffffffffffffffffffffff\n      and\n      swap1\n      dup1\n      0x01\n      add\n      0x00\n      swap1\n      sload\n      swap1\n      0x0100\n      exp\n      swap1\n      div\n      0xffffffffffffffffffffffffffffffffffffffff\n      and\n      swap1\n      dup1\n      0x02\n      add\n      sload\n      swap1\n      dup1\n      0x03\n      add\n      dup1\n      sload\n      tag_32\n      swap1\n      tag_33\n      jump\t// in\n    tag_32:\n      dup1\n      0x1f\n      add\n      0x20\n      dup1\n      swap2\n      div\n      mul\n      0x20\n      add\n      mload(0x40)\n      swap1\n      dup2\n      add\n      0x40\n      mstore\n      dup1\n      swap3\n      swap2\n      swap1\n      dup2\n      dup2\n      mstore\n      0x20\n      add\n      dup3\n      dup1\n      sload\n      tag_34\n      swap1\n      tag_33\n      jump\t// in\n    tag_34:\n      dup1\n      iszero\n      tag_35\n      jumpi\n      dup1\n      0x1f\n      lt\n      tag_36\n      jumpi\n      0x0100\n      dup1\n      dup4\n      sload\n      div\n      mul\n      dup4\n      mstore\n      swap2\n      0x20\n      add\n      swap2\n      jump(tag_35)\n    tag_36:\n      dup3\n      add\n      swap2\n      swap1\n      0x00\n      mstore\n      keccak256(0x00, 0x20)\n      swap1\n    tag_37:\n      dup2\n      sload\n      dup2\n      mstore\n      swap1\n      0x01\n      add\n      swap1\n      0x20\n      add\n      dup1\n      dup4\n      gt\n      tag_37\n      jumpi\n      dup3\n      swap1\n      sub\n      0x1f\n      and\n      dup3\n      add\n      swap2\n    tag_35:\n      pop\n      pop\n      pop\n      pop\n      pop\n      swap1\n      dup1\n      0x04\n      add\n      0x00\n      swap1\n      sload\n      swap1\n      0x0100\n      exp\n      swap1\n      div\n      0xff\n      and\n      swap1\n      pop\n      dup6\n      jump\t// out\n        /* \"contracts/Chess.sol\":669:697  uint256 public gameIdCounter */\n    tag_16:\n      sload(0x01)\n      dup2\n      jump\t// out\n        /* \"contracts/Chess.sol\":1152:1549  function createGame() external returns (uint256) {... */\n    tag_20:\n        /* \"contracts/Chess.sol\":1192:1199  uint256 */\n      0x00\n        /* \"contracts/Chess.sol\":1212:1225  gameIdCounter */\n      0x01\n      0x00\n        /* \"contracts/Chess.sol\":1212:1227  gameIdCounter++ */\n      dup2\n      sload\n      dup1\n      swap3\n      swap2\n      swap1\n      tag_39\n      swap1\n      tag_40\n      jump\t// in\n    tag_39:\n      swap2\n      swap1\n      pop\n      sstore\n      pop\n        /* \"contracts/Chess.sol\":1261:1454  Game({... */\n      mload(0x40)\n      dup1\n      0xa0\n      add\n      0x40\n      mstore\n      dup1\n        /* \"contracts/Chess.sol\":1290:1300  msg.sender */\n      caller\n        /* \"contracts/Chess.sol\":1261:1454  Game({... */\n      0xffffffffffffffffffffffffffffffffffffffff\n      and\n      dup2\n      mstore\n      0x20\n      add\n        /* \"contracts/Chess.sol\":1332:1333  0 */\n      0x00\n        /* \"contracts/Chess.sol\":1261:1454  Game({... */\n      0xffffffffffffffffffffffffffffffffffffffff\n      and\n      dup2\n      mstore\n      0x20\n      add\n        /* \"contracts/Chess.sol\":1355:1356  1 */\n      0x01\n        /* \"contracts/Chess.sol\":1261:1454  Game({... */\n      dup2\n      mstore\n      0x20\n      add\n      mload(0x40)\n      dup1\n      0x40\n      add\n      0x40\n      mstore\n      dup1\n      0x05\n      dup2\n      mstore\n      0x20\n      add\n      0x7374617274000000000000000000000000000000000000000000000000000000\n      dup2\n      mstore\n      pop\n      dup2\n      mstore\n      0x20\n      add\n        /* \"contracts/Chess.sol\":1438:1442  true */\n      0x01\n        /* \"contracts/Chess.sol\":1261:1454  Game({... */\n      iszero\n      iszero\n      dup2\n      mstore\n      pop\n        /* \"contracts/Chess.sol\":1238:1243  games */\n      0x00\n        /* \"contracts/Chess.sol\":1238:1258  games[gameIdCounter] */\n      dup1\n        /* \"contracts/Chess.sol\":1244:1257  gameIdCounter */\n      sload(0x01)\n        /* \"contracts/Chess.sol\":1238:1258  games[gameIdCounter] */\n      dup2\n      mstore\n      0x20\n      add\n      swap1\n      dup2\n      mstore\n      0x20\n      add\n      0x00\n      keccak256\n        /* \"contracts/Chess.sol\":1238:1454  games[gameIdCounter] = Game({... */\n      0x00\n      dup3\n      add\n      mload\n      dup2\n      0x00\n      add\n      exp(0x0100, 0x00)\n      dup2\n      sload\n      dup2\n      0xffffffffffffffffffffffffffffffffffffffff\n      mul\n      not\n      and\n      swap1\n      dup4\n      0xffffffffffffffffffffffffffffffffffffffff\n      and\n      mul\n      or\n      swap1\n      sstore\n      pop\n      0x20\n      dup3\n      add\n      mload\n      dup2\n      0x01\n      add\n      exp(0x0100, 0x00)\n      dup2\n      sload\n      dup2\n      0xffffffffffffffffffffffffffffffffffffffff\n      mul\n      not\n      and\n      swap1\n      dup4\n      0xffffffffffffffffffffffffffffffffffffffff\n      and\n      mul\n      or\n      swap1\n      sstore\n      pop\n      0x40\n      dup3\n      add\n      mload\n      dup2\n      0x02\n      add\n      sstore\n      0x60\n      dup3\n      add\n      mload\n      dup2\n      0x03\n      add\n      swap1\n      dup2\n      tag_41\n      swap2\n      swap1\n      tag_42\n      jump\t// in\n    tag_41:\n      pop\n      0x80\n      dup3\n      add\n      mload\n      dup2\n      0x04\n      add\n      exp(0x0100, 0x00)\n      dup2\n      sload\n      dup2\n      0xff\n      mul\n      not\n      and\n      swap1\n      dup4\n      iszero\n      iszero\n      mul\n      or\n      swap1\n      sstore\n      pop\n      swap1\n      pop\n      pop\n        /* \"contracts/Chess.sol\":1472:1510  GameCreated(gameIdCounter, msg.sender) */\n      0xc3e0f84839dc888c892a013d10c8f9d6dc05a21a879d0ce468ca558013e9121c\n        /* \"contracts/Chess.sol\":1484:1497  gameIdCounter */\n      sload(0x01)\n        /* \"contracts/Chess.sol\":1499:1509  msg.sender */\n      caller\n        /* \"contracts/Chess.sol\":1472:1510  GameCreated(gameIdCounter, msg.sender) */\n      mload(0x40)\n      tag_43\n      swap3\n      swap2\n      swap1\n      tag_44\n      jump\t// in\n    tag_43:\n      mload(0x40)\n      dup1\n      swap2\n      sub\n      swap1\n      log1\n        /* \"contracts/Chess.sol\":1528:1541  gameIdCounter */\n      sload(0x01)\n        /* \"contracts/Chess.sol\":1521:1541  return gameIdCounter */\n      swap1\n      pop\n        /* \"contracts/Chess.sol\":1152:1549  function createGame() external returns (uint256) {... */\n      swap1\n      jump\t// out\n        /* \"contracts/Chess.sol\":2267:2843  function makeMove(uint256 gameId, string calldata newBoardState) external {... */\n    tag_25:\n        /* \"contracts/Chess.sol\":2352:2369  Game storage game */\n      0x00\n        /* \"contracts/Chess.sol\":2372:2377  games */\n      dup1\n        /* \"contracts/Chess.sol\":2372:2385  games[gameId] */\n      0x00\n        /* \"contracts/Chess.sol\":2378:2384  gameId */\n      dup6\n        /* \"contracts/Chess.sol\":2372:2385  games[gameId] */\n      dup2\n      mstore\n      0x20\n      add\n      swap1\n      dup2\n      mstore\n      0x20\n      add\n      0x00\n      keccak256\n        /* \"contracts/Chess.sol\":2352:2385  Game storage game = games[gameId] */\n      swap1\n      pop\n        /* \"contracts/Chess.sol\":2404:2408  game */\n      dup1\n        /* \"contracts/Chess.sol\":2404:2417  game.isActive */\n      0x04\n      add\n      0x00\n      swap1\n      sload\n      swap1\n      0x0100\n      exp\n      swap1\n      div\n      0xff\n      and\n        /* \"contracts/Chess.sol\":2396:2440  require(game.isActive, \"Game is not active\") */\n      tag_46\n      jumpi\n      mload(0x40)\n      0x08c379a000000000000000000000000000000000000000000000000000000000\n      dup2\n      mstore\n      0x04\n      add\n      tag_47\n      swap1\n      tag_48\n      jump\t// in\n    tag_47:\n      mload(0x40)\n      dup1\n      swap2\n      sub\n      swap1\n      revert\n    tag_46:\n        /* \"contracts/Chess.sol\":2487:2488  1 */\n      0x01\n        /* \"contracts/Chess.sol\":2474:2478  game */\n      dup2\n        /* \"contracts/Chess.sol\":2474:2483  game.turn */\n      0x02\n      add\n      sload\n        /* \"contracts/Chess.sol\":2474:2488  game.turn == 1 */\n      eq\n        /* \"contracts/Chess.sol\":2474:2518  game.turn == 1 && msg.sender == game.player1 */\n      dup1\n      iszero\n      tag_49\n      jumpi\n      pop\n        /* \"contracts/Chess.sol\":2506:2510  game */\n      dup1\n        /* \"contracts/Chess.sol\":2506:2518  game.player1 */\n      0x00\n      add\n      0x00\n      swap1\n      sload\n      swap1\n      0x0100\n      exp\n      swap1\n      div\n      0xffffffffffffffffffffffffffffffffffffffff\n      and\n        /* \"contracts/Chess.sol\":2492:2518  msg.sender == game.player1 */\n      0xffffffffffffffffffffffffffffffffffffffff\n      and\n        /* \"contracts/Chess.sol\":2492:2502  msg.sender */\n      caller\n        /* \"contracts/Chess.sol\":2492:2518  msg.sender == game.player1 */\n      0xffffffffffffffffffffffffffffffffffffffff\n      and\n      eq\n        /* \"contracts/Chess.sol\":2474:2518  game.turn == 1 && msg.sender == game.player1 */\n    tag_49:\n        /* \"contracts/Chess.sol\":2473:2582  (game.turn == 1 && msg.sender == game.player1) ||... */\n      dup1\n      tag_50\n      jumpi\n      pop\n        /* \"contracts/Chess.sol\":2550:2551  2 */\n      0x02\n        /* \"contracts/Chess.sol\":2537:2541  game */\n      dup2\n        /* \"contracts/Chess.sol\":2537:2546  game.turn */\n      0x02\n      add\n      sload\n        /* \"contracts/Chess.sol\":2537:2551  game.turn == 2 */\n      eq\n        /* \"contracts/Chess.sol\":2537:2581  game.turn == 2 && msg.sender == game.player2 */\n      dup1\n      iszero\n      tag_51\n      jumpi\n      pop\n        /* \"contracts/Chess.sol\":2569:2573  game */\n      dup1\n        /* \"contracts/Chess.sol\":2569:2581  game.player2 */\n      0x01\n      add\n      0x00\n      swap1\n      sload\n      swap1\n      0x0100\n      exp\n      swap1\n      div\n      0xffffffffffffffffffffffffffffffffffffffff\n      and\n        /* \"contracts/Chess.sol\":2555:2581  msg.sender == game.player2 */\n      0xffffffffffffffffffffffffffffffffffffffff\n      and\n        /* \"contracts/Chess.sol\":2555:2565  msg.sender */\n      caller\n        /* \"contracts/Chess.sol\":2555:2581  msg.sender == game.player2 */\n      0xffffffffffffffffffffffffffffffffffffffff\n      and\n      eq\n        /* \"contracts/Chess.sol\":2537:2581  game.turn == 2 && msg.sender == game.player2 */\n    tag_51:\n        /* \"contracts/Chess.sol\":2473:2582  (game.turn == 1 && msg.sender == game.player1) ||... */\n    tag_50:\n        /* \"contracts/Chess.sol\":2451:2623  require(... */\n      tag_52\n      jumpi\n      mload(0x40)\n      0x08c379a000000000000000000000000000000000000000000000000000000000\n      dup2\n      mstore\n      0x04\n      add\n      tag_53\n      swap1\n      tag_54\n      jump\t// in\n    tag_53:\n      mload(0x40)\n      dup1\n      swap2\n      sub\n      swap1\n      revert\n    tag_52:\n        /* \"contracts/Chess.sol\":2689:2702  newBoardState */\n      dup3\n      dup3\n        /* \"contracts/Chess.sol\":2671:2675  game */\n      dup3\n        /* \"contracts/Chess.sol\":2671:2686  game.boardState */\n      0x03\n      add\n        /* \"contracts/Chess.sol\":2671:2702  game.boardState = newBoardState */\n      swap2\n      dup3\n      tag_55\n      swap3\n      swap2\n      swap1\n      tag_56\n      jump\t// in\n    tag_55:\n      pop\n        /* \"contracts/Chess.sol\":2765:2766  1 */\n      0x01\n        /* \"contracts/Chess.sol\":2752:2756  game */\n      dup2\n        /* \"contracts/Chess.sol\":2752:2761  game.turn */\n      0x02\n      add\n      sload\n        /* \"contracts/Chess.sol\":2752:2766  game.turn == 1 */\n      eq\n        /* \"contracts/Chess.sol\":2752:2774  game.turn == 1 ? 2 : 1 */\n      tag_57\n      jumpi\n        /* \"contracts/Chess.sol\":2773:2774  1 */\n      0x01\n        /* \"contracts/Chess.sol\":2752:2774  game.turn == 1 ? 2 : 1 */\n      jump(tag_58)\n    tag_57:\n        /* \"contracts/Chess.sol\":2769:2770  2 */\n      0x02\n        /* \"contracts/Chess.sol\":2752:2774  game.turn == 1 ? 2 : 1 */\n    tag_58:\n        /* \"contracts/Chess.sol\":2740:2774  game.turn = game.turn == 1 ? 2 : 1 */\n      0xff\n      and\n        /* \"contracts/Chess.sol\":2740:2744  game */\n      dup2\n        /* \"contracts/Chess.sol\":2740:2749  game.turn */\n      0x02\n      add\n        /* \"contracts/Chess.sol\":2740:2774  game.turn = game.turn == 1 ? 2 : 1 */\n      dup2\n      swap1\n      sstore\n      pop\n        /* \"contracts/Chess.sol\":2792:2835  MoveMade(gameId, msg.sender, newBoardState) */\n      0x09e4ecbf5be56c714788f702bdb4e8b59df60ed6b1080faf97ce55eaae740dcb\n        /* \"contracts/Chess.sol\":2801:2807  gameId */\n      dup5\n        /* \"contracts/Chess.sol\":2809:2819  msg.sender */\n      caller\n        /* \"contracts/Chess.sol\":2821:2834  newBoardState */\n      dup6\n      dup6\n        /* \"contracts/Chess.sol\":2792:2835  MoveMade(gameId, msg.sender, newBoardState) */\n      mload(0x40)\n      tag_59\n      swap5\n      swap4\n      swap3\n      swap2\n      swap1\n      tag_60\n      jump\t// in\n    tag_59:\n      mload(0x40)\n      dup1\n      swap2\n      sub\n      swap1\n      log1\n        /* \"contracts/Chess.sol\":2341:2843  {... */\n      pop\n        /* \"contracts/Chess.sol\":2267:2843  function makeMove(uint256 gameId, string calldata newBoardState) external {... */\n      pop\n      pop\n      pop\n      jump\t// out\n        /* \"contracts/Chess.sol\":2944:3230  function endGame(uint256 gameId) external {... */\n    tag_28:\n        /* \"contracts/Chess.sol\":2997:3014  Game storage game */\n      0x00\n        /* \"contracts/Chess.sol\":3017:3022  games */\n      dup1\n        /* \"contracts/Chess.sol\":3017:3030  games[gameId] */\n      0x00\n        /* \"contracts/Chess.sol\":3023:3029  gameId */\n      dup4\n        /* \"contracts/Chess.sol\":3017:3030  games[gameId] */\n      dup2\n      mstore\n      0x20\n      add\n      swap1\n      dup2\n      mstore\n      0x20\n      add\n      0x00\n      keccak256\n        /* \"contracts/Chess.sol\":2997:3030  Game storage game = games[gameId] */\n      swap1\n      pop\n        /* \"contracts/Chess.sol\":3063:3067  game */\n      dup1\n        /* \"contracts/Chess.sol\":3063:3075  game.player1 */\n      0x00\n      add\n      0x00\n      swap1\n      sload\n      swap1\n      0x0100\n      exp\n      swap1\n      div\n      0xffffffffffffffffffffffffffffffffffffffff\n      and\n        /* \"contracts/Chess.sol\":3049:3075  msg.sender == game.player1 */\n      0xffffffffffffffffffffffffffffffffffffffff\n      and\n        /* \"contracts/Chess.sol\":3049:3059  msg.sender */\n      caller\n        /* \"contracts/Chess.sol\":3049:3075  msg.sender == game.player1 */\n      0xffffffffffffffffffffffffffffffffffffffff\n      and\n      eq\n        /* \"contracts/Chess.sol\":3049:3105  msg.sender == game.player1 || msg.sender == game.player2 */\n      dup1\n      tag_62\n      jumpi\n      pop\n        /* \"contracts/Chess.sol\":3093:3097  game */\n      dup1\n        /* \"contracts/Chess.sol\":3093:3105  game.player2 */\n      0x01\n      add\n      0x00\n      swap1\n      sload\n      swap1\n      0x0100\n      exp\n      swap1\n      div\n      0xffffffffffffffffffffffffffffffffffffffff\n      and\n        /* \"contracts/Chess.sol\":3079:3105  msg.sender == game.player2 */\n      0xffffffffffffffffffffffffffffffffffffffff\n      and\n        /* \"contracts/Chess.sol\":3079:3089  msg.sender */\n      caller\n        /* \"contracts/Chess.sol\":3079:3105  msg.sender == game.player2 */\n      0xffffffffffffffffffffffffffffffffffffffff\n      and\n      eq\n        /* \"contracts/Chess.sol\":3049:3105  msg.sender == game.player1 || msg.sender == game.player2 */\n    tag_62:\n        /* \"contracts/Chess.sol\":3041:3127  require(msg.sender == game.player1 || msg.sender == game.player2, \"Not a participant\") */\n      tag_63\n      jumpi\n      mload(0x40)\n      0x08c379a000000000000000000000000000000000000000000000000000000000\n      dup2\n      mstore\n      0x04\n      add\n      tag_64\n      swap1\n      tag_65\n      jump\t// in\n    tag_64:\n      mload(0x40)\n      dup1\n      swap2\n      sub\n      swap1\n      revert\n    tag_63:\n        /* \"contracts/Chess.sol\":3146:3150  game */\n      dup1\n        /* \"contracts/Chess.sol\":3146:3159  game.isActive */\n      0x04\n      add\n      0x00\n      swap1\n      sload\n      swap1\n      0x0100\n      exp\n      swap1\n      div\n      0xff\n      and\n        /* \"contracts/Chess.sol\":3138:3188  require(game.isActive, \"Game is already inactive\") */\n      tag_66\n      jumpi\n      mload(0x40)\n      0x08c379a000000000000000000000000000000000000000000000000000000000\n      dup2\n      mstore\n      0x04\n      add\n      tag_67\n      swap1\n      tag_68\n      jump\t// in\n    tag_67:\n      mload(0x40)\n      dup1\n      swap2\n      sub\n      swap1\n      revert\n    tag_66:\n        /* \"contracts/Chess.sol\":3217:3222  false */\n      0x00\n        /* \"contracts/Chess.sol\":3201:3205  game */\n      dup2\n        /* \"contracts/Chess.sol\":3201:3214  game.isActive */\n      0x04\n      add\n      0x00\n        /* \"contracts/Chess.sol\":3201:3222  game.isActive = false */\n      0x0100\n      exp\n      dup2\n      sload\n      dup2\n      0xff\n      mul\n      not\n      and\n      swap1\n      dup4\n      iszero\n      iszero\n      mul\n      or\n      swap1\n      sstore\n      pop\n        /* \"contracts/Chess.sol\":2986:3230  {... */\n      pop\n        /* \"contracts/Chess.sol\":2944:3230  function endGame(uint256 gameId) external {... */\n      pop\n      jump\t// out\n        /* \"contracts/Chess.sol\":1672:2077  function joinGame(uint256 gameId) external {... */\n    tag_31:\n        /* \"contracts/Chess.sol\":1726:1743  Game storage game */\n      0x00\n        /* \"contracts/Chess.sol\":1746:1751  games */\n      dup1\n        /* \"contracts/Chess.sol\":1746:1759  games[gameId] */\n      0x00\n        /* \"contracts/Chess.sol\":1752:1758  gameId */\n      dup4\n        /* \"contracts/Chess.sol\":1746:1759  games[gameId] */\n      dup2\n      mstore\n      0x20\n      add\n      swap1\n      dup2\n      mstore\n      0x20\n      add\n      0x00\n      keccak256\n        /* \"contracts/Chess.sol\":1726:1759  Game storage game = games[gameId] */\n      swap1\n      pop\n        /* \"contracts/Chess.sol\":1802:1803  0 */\n      0x00\n        /* \"contracts/Chess.sol\":1778:1804  game.player1 != address(0) */\n      0xffffffffffffffffffffffffffffffffffffffff\n      and\n        /* \"contracts/Chess.sol\":1778:1782  game */\n      dup2\n        /* \"contracts/Chess.sol\":1778:1790  game.player1 */\n      0x00\n      add\n      0x00\n      swap1\n      sload\n      swap1\n      0x0100\n      exp\n      swap1\n      div\n      0xffffffffffffffffffffffffffffffffffffffff\n      and\n        /* \"contracts/Chess.sol\":1778:1804  game.player1 != address(0) */\n      0xffffffffffffffffffffffffffffffffffffffff\n      and\n      sub\n        /* \"contracts/Chess.sol\":1770:1828  require(game.player1 != address(0), \"Game does not exist\") */\n      tag_70\n      jumpi\n      mload(0x40)\n      0x08c379a000000000000000000000000000000000000000000000000000000000\n      dup2\n      mstore\n      0x04\n      add\n      tag_71\n      swap1\n      tag_72\n      jump\t// in\n    tag_71:\n      mload(0x40)\n      dup1\n      swap2\n      sub\n      swap1\n      revert\n    tag_70:\n        /* \"contracts/Chess.sol\":1871:1872  0 */\n      0x00\n        /* \"contracts/Chess.sol\":1847:1873  game.player2 == address(0) */\n      0xffffffffffffffffffffffffffffffffffffffff\n      and\n        /* \"contracts/Chess.sol\":1847:1851  game */\n      dup2\n        /* \"contracts/Chess.sol\":1847:1859  game.player2 */\n      0x01\n      add\n      0x00\n      swap1\n      sload\n      swap1\n      0x0100\n      exp\n      swap1\n      div\n      0xffffffffffffffffffffffffffffffffffffffff\n      and\n        /* \"contracts/Chess.sol\":1847:1873  game.player2 == address(0) */\n      0xffffffffffffffffffffffffffffffffffffffff\n      and\n      eq\n        /* \"contracts/Chess.sol\":1839:1906  require(game.player2 == address(0), \"Game already has two players\") */\n      tag_73\n      jumpi\n      mload(0x40)\n      0x08c379a000000000000000000000000000000000000000000000000000000000\n      dup2\n      mstore\n      0x04\n      add\n      tag_74\n      swap1\n      tag_75\n      jump\t// in\n    tag_74:\n      mload(0x40)\n      dup1\n      swap2\n      sub\n      swap1\n      revert\n    tag_73:\n        /* \"contracts/Chess.sol\":1941:1951  msg.sender */\n      caller\n        /* \"contracts/Chess.sol\":1925:1951  game.player1 != msg.sender */\n      0xffffffffffffffffffffffffffffffffffffffff\n      and\n        /* \"contracts/Chess.sol\":1925:1929  game */\n      dup2\n        /* \"contracts/Chess.sol\":1925:1937  game.player1 */\n      0x00\n      add\n      0x00\n      swap1\n      sload\n      swap1\n      0x0100\n      exp\n      swap1\n      div\n      0xffffffffffffffffffffffffffffffffffffffff\n      and\n        /* \"contracts/Chess.sol\":1925:1951  game.player1 != msg.sender */\n      0xffffffffffffffffffffffffffffffffffffffff\n      and\n      sub\n        /* \"contracts/Chess.sol\":1917:1981  require(game.player1 != msg.sender, \"Cannot join your own game\") */\n      tag_76\n      jumpi\n      mload(0x40)\n      0x08c379a000000000000000000000000000000000000000000000000000000000\n      dup2\n      mstore\n      0x04\n      add\n      tag_77\n      swap1\n      tag_78\n      jump\t// in\n    tag_77:\n      mload(0x40)\n      dup1\n      swap2\n      sub\n      swap1\n      revert\n    tag_76:\n        /* \"contracts/Chess.sol\":2009:2019  msg.sender */\n      caller\n        /* \"contracts/Chess.sol\":1994:1998  game */\n      dup2\n        /* \"contracts/Chess.sol\":1994:2006  game.player2 */\n      0x01\n      add\n      0x00\n        /* \"contracts/Chess.sol\":1994:2019  game.player2 = msg.sender */\n      0x0100\n      exp\n      dup2\n      sload\n      dup2\n      0xffffffffffffffffffffffffffffffffffffffff\n      mul\n      not\n      and\n      swap1\n      dup4\n      0xffffffffffffffffffffffffffffffffffffffff\n      and\n      mul\n      or\n      swap1\n      sstore\n      pop\n        /* \"contracts/Chess.sol\":2037:2069  PlayerJoined(gameId, msg.sender) */\n      0x87969bc7faf902221a147b95ceba76e011c5efb0339a0a8ee7a2bb82d9cfbbd6\n        /* \"contracts/Chess.sol\":2050:2056  gameId */\n      dup3\n        /* \"contracts/Chess.sol\":2058:2068  msg.sender */\n      caller\n        /* \"contracts/Chess.sol\":2037:2069  PlayerJoined(gameId, msg.sender) */\n      mload(0x40)\n      tag_79\n      swap3\n      swap2\n      swap1\n      tag_44\n      jump\t// in\n    tag_79:\n      mload(0x40)\n      dup1\n      swap2\n      sub\n      swap1\n      log1\n        /* \"contracts/Chess.sol\":1715:2077  {... */\n      pop\n        /* \"contracts/Chess.sol\":1672:2077  function joinGame(uint256 gameId) external {... */\n      pop\n      jump\t// out\n        /* \"#utility.yul\":88:205   */\n    tag_81:\n        /* \"#utility.yul\":197:198   */\n      0x00\n        /* \"#utility.yul\":194:195   */\n      dup1\n        /* \"#utility.yul\":187:199   */\n      revert\n        /* \"#utility.yul\":211:328   */\n    tag_82:\n        /* \"#utility.yul\":320:321   */\n      0x00\n        /* \"#utility.yul\":317:318   */\n      dup1\n        /* \"#utility.yul\":310:322   */\n      revert\n        /* \"#utility.yul\":334:411   */\n    tag_83:\n        /* \"#utility.yul\":371:378   */\n      0x00\n        /* \"#utility.yul\":400:405   */\n      dup2\n        /* \"#utility.yul\":389:405   */\n      swap1\n      pop\n        /* \"#utility.yul\":334:411   */\n      swap2\n      swap1\n      pop\n      jump\t// out\n        /* \"#utility.yul\":417:539   */\n    tag_84:\n        /* \"#utility.yul\":490:514   */\n      tag_142\n        /* \"#utility.yul\":508:513   */\n      dup2\n        /* \"#utility.yul\":490:514   */\n      tag_83\n      jump\t// in\n    tag_142:\n        /* \"#utility.yul\":483:488   */\n      dup2\n        /* \"#utility.yul\":480:515   */\n      eq\n        /* \"#utility.yul\":470:533   */\n      tag_143\n      jumpi\n        /* \"#utility.yul\":529:530   */\n      0x00\n        /* \"#utility.yul\":526:527   */\n      dup1\n        /* \"#utility.yul\":519:531   */\n      revert\n        /* \"#utility.yul\":470:533   */\n    tag_143:\n        /* \"#utility.yul\":417:539   */\n      pop\n      jump\t// out\n        /* \"#utility.yul\":545:684   */\n    tag_85:\n        /* \"#utility.yul\":591:596   */\n      0x00\n        /* \"#utility.yul\":629:635   */\n      dup2\n        /* \"#utility.yul\":616:636   */\n      calldataload\n        /* \"#utility.yul\":607:636   */\n      swap1\n      pop\n        /* \"#utility.yul\":645:678   */\n      tag_145\n        /* \"#utility.yul\":672:677   */\n      dup2\n        /* \"#utility.yul\":645:678   */\n      tag_84\n      jump\t// in\n    tag_145:\n        /* \"#utility.yul\":545:684   */\n      swap3\n      swap2\n      pop\n      pop\n      jump\t// out\n        /* \"#utility.yul\":690:1019   */\n    tag_11:\n        /* \"#utility.yul\":749:755   */\n      0x00\n        /* \"#utility.yul\":798:800   */\n      0x20\n        /* \"#utility.yul\":786:795   */\n      dup3\n        /* \"#utility.yul\":777:784   */\n      dup5\n        /* \"#utility.yul\":773:796   */\n      sub\n        /* \"#utility.yul\":769:801   */\n      slt\n        /* \"#utility.yul\":766:885   */\n      iszero\n      tag_147\n      jumpi\n        /* \"#utility.yul\":804:883   */\n      tag_148\n      tag_81\n      jump\t// in\n    tag_148:\n        /* \"#utility.yul\":766:885   */\n    tag_147:\n        /* \"#utility.yul\":924:925   */\n      0x00\n        /* \"#utility.yul\":949:1002   */\n      tag_149\n        /* \"#utility.yul\":994:1001   */\n      dup5\n        /* \"#utility.yul\":985:991   */\n      dup3\n        /* \"#utility.yul\":974:983   */\n      dup6\n        /* \"#utility.yul\":970:992   */\n      add\n        /* \"#utility.yul\":949:1002   */\n      tag_85\n      jump\t// in\n    tag_149:\n        /* \"#utility.yul\":939:1002   */\n      swap2\n      pop\n        /* \"#utility.yul\":895:1012   */\n      pop\n        /* \"#utility.yul\":690:1019   */\n      swap3\n      swap2\n      pop\n      pop\n      jump\t// out\n        /* \"#utility.yul\":1025:1151   */\n    tag_86:\n        /* \"#utility.yul\":1062:1069   */\n      0x00\n        /* \"#utility.yul\":1102:1144   */\n      0xffffffffffffffffffffffffffffffffffffffff\n        /* \"#utility.yul\":1095:1100   */\n      dup3\n        /* \"#utility.yul\":1091:1145   */\n      and\n        /* \"#utility.yul\":1080:1145   */\n      swap1\n      pop\n        /* \"#utility.yul\":1025:1151   */\n      swap2\n      swap1\n      pop\n      jump\t// out\n        /* \"#utility.yul\":1157:1253   */\n    tag_87:\n        /* \"#utility.yul\":1194:1201   */\n      0x00\n        /* \"#utility.yul\":1223:1247   */\n      tag_152\n        /* \"#utility.yul\":1241:1246   */\n      dup3\n        /* \"#utility.yul\":1223:1247   */\n      tag_86\n      jump\t// in\n    tag_152:\n        /* \"#utility.yul\":1212:1247   */\n      swap1\n      pop\n        /* \"#utility.yul\":1157:1253   */\n      swap2\n      swap1\n      pop\n      jump\t// out\n        /* \"#utility.yul\":1259:1377   */\n    tag_88:\n        /* \"#utility.yul\":1346:1370   */\n      tag_154\n        /* \"#utility.yul\":1364:1369   */\n      dup2\n        /* \"#utility.yul\":1346:1370   */\n      tag_87\n      jump\t// in\n    tag_154:\n        /* \"#utility.yul\":1341:1344   */\n      dup3\n        /* \"#utility.yul\":1334:1371   */\n      mstore\n        /* \"#utility.yul\":1259:1377   */\n      pop\n      pop\n      jump\t// out\n        /* \"#utility.yul\":1383:1501   */\n    tag_89:\n        /* \"#utility.yul\":1470:1494   */\n      tag_156\n        /* \"#utility.yul\":1488:1493   */\n      dup2\n        /* \"#utility.yul\":1470:1494   */\n      tag_83\n      jump\t// in\n    tag_156:\n        /* \"#utility.yul\":1465:1468   */\n      dup3\n        /* \"#utility.yul\":1458:1495   */\n      mstore\n        /* \"#utility.yul\":1383:1501   */\n      pop\n      pop\n      jump\t// out\n        /* \"#utility.yul\":1507:1606   */\n    tag_90:\n        /* \"#utility.yul\":1559:1565   */\n      0x00\n        /* \"#utility.yul\":1593:1598   */\n      dup2\n        /* \"#utility.yul\":1587:1599   */\n      mload\n        /* \"#utility.yul\":1577:1599   */\n      swap1\n      pop\n        /* \"#utility.yul\":1507:1606   */\n      swap2\n      swap1\n      pop\n      jump\t// out\n        /* \"#utility.yul\":1612:1781   */\n    tag_91:\n        /* \"#utility.yul\":1696:1707   */\n      0x00\n        /* \"#utility.yul\":1730:1736   */\n      dup3\n        /* \"#utility.yul\":1725:1728   */\n      dup3\n        /* \"#utility.yul\":1718:1737   */\n      mstore\n        /* \"#utility.yul\":1770:1774   */\n      0x20\n        /* \"#utility.yul\":1765:1768   */\n      dup3\n        /* \"#utility.yul\":1761:1775   */\n      add\n        /* \"#utility.yul\":1746:1775   */\n      swap1\n      pop\n        /* \"#utility.yul\":1612:1781   */\n      swap3\n      swap2\n      pop\n      pop\n      jump\t// out\n        /* \"#utility.yul\":1787:1926   */\n    tag_92:\n        /* \"#utility.yul\":1876:1882   */\n      dup3\n        /* \"#utility.yul\":1871:1874   */\n      dup2\n        /* \"#utility.yul\":1866:1869   */\n      dup4\n        /* \"#utility.yul\":1860:1883   */\n      mcopy\n        /* \"#utility.yul\":1917:1918   */\n      0x00\n        /* \"#utility.yul\":1908:1914   */\n      dup4\n        /* \"#utility.yul\":1903:1906   */\n      dup4\n        /* \"#utility.yul\":1899:1915   */\n      add\n        /* \"#utility.yul\":1892:1919   */\n      mstore\n        /* \"#utility.yul\":1787:1926   */\n      pop\n      pop\n      pop\n      jump\t// out\n        /* \"#utility.yul\":1932:2034   */\n    tag_93:\n        /* \"#utility.yul\":1973:1979   */\n      0x00\n        /* \"#utility.yul\":2024:2026   */\n      0x1f\n        /* \"#utility.yul\":2020:2027   */\n      not\n        /* \"#utility.yul\":2015:2017   */\n      0x1f\n        /* \"#utility.yul\":2008:2013   */\n      dup4\n        /* \"#utility.yul\":2004:2018   */\n      add\n        /* \"#utility.yul\":2000:2028   */\n      and\n        /* \"#utility.yul\":1990:2028   */\n      swap1\n      pop\n        /* \"#utility.yul\":1932:2034   */\n      swap2\n      swap1\n      pop\n      jump\t// out\n        /* \"#utility.yul\":2040:2417   */\n    tag_94:\n        /* \"#utility.yul\":2128:2131   */\n      0x00\n        /* \"#utility.yul\":2156:2195   */\n      tag_162\n        /* \"#utility.yul\":2189:2194   */\n      dup3\n        /* \"#utility.yul\":2156:2195   */\n      tag_90\n      jump\t// in\n    tag_162:\n        /* \"#utility.yul\":2211:2282   */\n      tag_163\n        /* \"#utility.yul\":2275:2281   */\n      dup2\n        /* \"#utility.yul\":2270:2273   */\n      dup6\n        /* \"#utility.yul\":2211:2282   */\n      tag_91\n      jump\t// in\n    tag_163:\n        /* \"#utility.yul\":2204:2282   */\n      swap4\n      pop\n        /* \"#utility.yul\":2291:2356   */\n      tag_164\n        /* \"#utility.yul\":2349:2355   */\n      dup2\n        /* \"#utility.yul\":2344:2347   */\n      dup6\n        /* \"#utility.yul\":2337:2341   */\n      0x20\n        /* \"#utility.yul\":2330:2335   */\n      dup7\n        /* \"#utility.yul\":2326:2342   */\n      add\n        /* \"#utility.yul\":2291:2356   */\n      tag_92\n      jump\t// in\n    tag_164:\n        /* \"#utility.yul\":2381:2410   */\n      tag_165\n        /* \"#utility.yul\":2403:2409   */\n      dup2\n        /* \"#utility.yul\":2381:2410   */\n      tag_93\n      jump\t// in\n    tag_165:\n        /* \"#utility.yul\":2376:2379   */\n      dup5\n        /* \"#utility.yul\":2372:2411   */\n      add\n        /* \"#utility.yul\":2365:2411   */\n      swap2\n      pop\n        /* \"#utility.yul\":2132:2417   */\n      pop\n        /* \"#utility.yul\":2040:2417   */\n      swap3\n      swap2\n      pop\n      pop\n      jump\t// out\n        /* \"#utility.yul\":2423:2513   */\n    tag_95:\n        /* \"#utility.yul\":2457:2464   */\n      0x00\n        /* \"#utility.yul\":2500:2505   */\n      dup2\n        /* \"#utility.yul\":2493:2506   */\n      iszero\n        /* \"#utility.yul\":2486:2507   */\n      iszero\n        /* \"#utility.yul\":2475:2507   */\n      swap1\n      pop\n        /* \"#utility.yul\":2423:2513   */\n      swap2\n      swap1\n      pop\n      jump\t// out\n        /* \"#utility.yul\":2519:2628   */\n    tag_96:\n        /* \"#utility.yul\":2600:2621   */\n      tag_168\n        /* \"#utility.yul\":2615:2620   */\n      dup2\n        /* \"#utility.yul\":2600:2621   */\n      tag_95\n      jump\t// in\n    tag_168:\n        /* \"#utility.yul\":2595:2598   */\n      dup3\n        /* \"#utility.yul\":2588:2622   */\n      mstore\n        /* \"#utility.yul\":2519:2628   */\n      pop\n      pop\n      jump\t// out\n        /* \"#utility.yul\":2634:3377   */\n    tag_14:\n        /* \"#utility.yul\":2853:2857   */\n      0x00\n        /* \"#utility.yul\":2891:2894   */\n      0xa0\n        /* \"#utility.yul\":2880:2889   */\n      dup3\n        /* \"#utility.yul\":2876:2895   */\n      add\n        /* \"#utility.yul\":2868:2895   */\n      swap1\n      pop\n        /* \"#utility.yul\":2905:2976   */\n      tag_170\n        /* \"#utility.yul\":2973:2974   */\n      0x00\n        /* \"#utility.yul\":2962:2971   */\n      dup4\n        /* \"#utility.yul\":2958:2975   */\n      add\n        /* \"#utility.yul\":2949:2955   */\n      dup9\n        /* \"#utility.yul\":2905:2976   */\n      tag_88\n      jump\t// in\n    tag_170:\n        /* \"#utility.yul\":2986:3058   */\n      tag_171\n        /* \"#utility.yul\":3054:3056   */\n      0x20\n        /* \"#utility.yul\":3043:3052   */\n      dup4\n        /* \"#utility.yul\":3039:3057   */\n      add\n        /* \"#utility.yul\":3030:3036   */\n      dup8\n        /* \"#utility.yul\":2986:3058   */\n      tag_88\n      jump\t// in\n    tag_171:\n        /* \"#utility.yul\":3068:3140   */\n      tag_172\n        /* \"#utility.yul\":3136:3138   */\n      0x40\n        /* \"#utility.yul\":3125:3134   */\n      dup4\n        /* \"#utility.yul\":3121:3139   */\n      add\n        /* \"#utility.yul\":3112:3118   */\n      dup7\n        /* \"#utility.yul\":3068:3140   */\n      tag_89\n      jump\t// in\n    tag_172:\n        /* \"#utility.yul\":3187:3196   */\n      dup2\n        /* \"#utility.yul\":3181:3185   */\n      dup2\n        /* \"#utility.yul\":3177:3197   */\n      sub\n        /* \"#utility.yul\":3172:3174   */\n      0x60\n        /* \"#utility.yul\":3161:3170   */\n      dup4\n        /* \"#utility.yul\":3157:3175   */\n      add\n        /* \"#utility.yul\":3150:3198   */\n      mstore\n        /* \"#utility.yul\":3215:3293   */\n      tag_173\n        /* \"#utility.yul\":3288:3292   */\n      dup2\n        /* \"#utility.yul\":3279:3285   */\n      dup6\n        /* \"#utility.yul\":3215:3293   */\n      tag_94\n      jump\t// in\n    tag_173:\n        /* \"#utility.yul\":3207:3293   */\n      swap1\n      pop\n        /* \"#utility.yul\":3303:3370   */\n      tag_174\n        /* \"#utility.yul\":3365:3368   */\n      0x80\n        /* \"#utility.yul\":3354:3363   */\n      dup4\n        /* \"#utility.yul\":3350:3369   */\n      add\n        /* \"#utility.yul\":3341:3347   */\n      dup5\n        /* \"#utility.yul\":3303:3370   */\n      tag_96\n      jump\t// in\n    tag_174:\n        /* \"#utility.yul\":2634:3377   */\n      swap7\n      swap6\n      pop\n      pop\n      pop\n      pop\n      pop\n      pop\n      jump\t// out\n        /* \"#utility.yul\":3383:3605   */\n    tag_18:\n        /* \"#utility.yul\":3476:3480   */\n      0x00\n        /* \"#utility.yul\":3514:3516   */\n      0x20\n        /* \"#utility.yul\":3503:3512   */\n      dup3\n        /* \"#utility.yul\":3499:3517   */\n      add\n        /* \"#utility.yul\":3491:3517   */\n      swap1\n      pop\n        /* \"#utility.yul\":3527:3598   */\n      tag_176\n        /* \"#utility.yul\":3595:3596   */\n      0x00\n        /* \"#utility.yul\":3584:3593   */\n      dup4\n        /* \"#utility.yul\":3580:3597   */\n      add\n        /* \"#utility.yul\":3571:3577   */\n      dup5\n        /* \"#utility.yul\":3527:3598   */\n      tag_89\n      jump\t// in\n    tag_176:\n        /* \"#utility.yul\":3383:3605   */\n      swap3\n      swap2\n      pop\n      pop\n      jump\t// out\n        /* \"#utility.yul\":3611:3728   */\n    tag_97:\n        /* \"#utility.yul\":3720:3721   */\n      0x00\n        /* \"#utility.yul\":3717:3718   */\n      dup1\n        /* \"#utility.yul\":3710:3722   */\n      revert\n        /* \"#utility.yul\":3734:3851   */\n    tag_98:\n        /* \"#utility.yul\":3843:3844   */\n      0x00\n        /* \"#utility.yul\":3840:3841   */\n      dup1\n        /* \"#utility.yul\":3833:3845   */\n      revert\n        /* \"#utility.yul\":3857:3974   */\n    tag_99:\n        /* \"#utility.yul\":3966:3967   */\n      0x00\n        /* \"#utility.yul\":3963:3964   */\n      dup1\n        /* \"#utility.yul\":3956:3968   */\n      revert\n        /* \"#utility.yul\":3994:4547   */\n    tag_100:\n        /* \"#utility.yul\":4052:4060   */\n      0x00\n        /* \"#utility.yul\":4062:4068   */\n      dup1\n        /* \"#utility.yul\":4112:4115   */\n      dup4\n        /* \"#utility.yul\":4105:4109   */\n      0x1f\n        /* \"#utility.yul\":4097:4103   */\n      dup5\n        /* \"#utility.yul\":4093:4110   */\n      add\n        /* \"#utility.yul\":4089:4116   */\n      slt\n        /* \"#utility.yul\":4079:4201   */\n      tag_181\n      jumpi\n        /* \"#utility.yul\":4120:4199   */\n      tag_182\n      tag_97\n      jump\t// in\n    tag_182:\n        /* \"#utility.yul\":4079:4201   */\n    tag_181:\n        /* \"#utility.yul\":4233:4239   */\n      dup3\n        /* \"#utility.yul\":4220:4240   */\n      calldataload\n        /* \"#utility.yul\":4210:4240   */\n      swap1\n      pop\n        /* \"#utility.yul\":4263:4281   */\n      0xffffffffffffffff\n        /* \"#utility.yul\":4255:4261   */\n      dup2\n        /* \"#utility.yul\":4252:4282   */\n      gt\n        /* \"#utility.yul\":4249:4366   */\n      iszero\n      tag_183\n      jumpi\n        /* \"#utility.yul\":4285:4364   */\n      tag_184\n      tag_98\n      jump\t// in\n    tag_184:\n        /* \"#utility.yul\":4249:4366   */\n    tag_183:\n        /* \"#utility.yul\":4399:4403   */\n      0x20\n        /* \"#utility.yul\":4391:4397   */\n      dup4\n        /* \"#utility.yul\":4387:4404   */\n      add\n        /* \"#utility.yul\":4375:4404   */\n      swap2\n      pop\n        /* \"#utility.yul\":4453:4456   */\n      dup4\n        /* \"#utility.yul\":4445:4449   */\n      0x01\n        /* \"#utility.yul\":4437:4443   */\n      dup3\n        /* \"#utility.yul\":4433:4450   */\n      mul\n        /* \"#utility.yul\":4423:4431   */\n      dup4\n        /* \"#utility.yul\":4419:4451   */\n      add\n        /* \"#utility.yul\":4416:4457   */\n      gt\n        /* \"#utility.yul\":4413:4541   */\n      iszero\n      tag_185\n      jumpi\n        /* \"#utility.yul\":4460:4539   */\n      tag_186\n      tag_99\n      jump\t// in\n    tag_186:\n        /* \"#utility.yul\":4413:4541   */\n    tag_185:\n        /* \"#utility.yul\":3994:4547   */\n      swap3\n      pop\n      swap3\n      swap1\n      pop\n      jump\t// out\n        /* \"#utility.yul\":4553:5227   */\n    tag_24:\n        /* \"#utility.yul\":4633:4639   */\n      0x00\n        /* \"#utility.yul\":4641:4647   */\n      dup1\n        /* \"#utility.yul\":4649:4655   */\n      0x00\n        /* \"#utility.yul\":4698:4700   */\n      0x40\n        /* \"#utility.yul\":4686:4695   */\n      dup5\n        /* \"#utility.yul\":4677:4684   */\n      dup7\n        /* \"#utility.yul\":4673:4696   */\n      sub\n        /* \"#utility.yul\":4669:4701   */\n      slt\n        /* \"#utility.yul\":4666:4785   */\n      iszero\n      tag_188\n      jumpi\n        /* \"#utility.yul\":4704:4783   */\n      tag_189\n      tag_81\n      jump\t// in\n    tag_189:\n        /* \"#utility.yul\":4666:4785   */\n    tag_188:\n        /* \"#utility.yul\":4824:4825   */\n      0x00\n        /* \"#utility.yul\":4849:4902   */\n      tag_190\n        /* \"#utility.yul\":4894:4901   */\n      dup7\n        /* \"#utility.yul\":4885:4891   */\n      dup3\n        /* \"#utility.yul\":4874:4883   */\n      dup8\n        /* \"#utility.yul\":4870:4892   */\n      add\n        /* \"#utility.yul\":4849:4902   */\n      tag_85\n      jump\t// in\n    tag_190:\n        /* \"#utility.yul\":4839:4902   */\n      swap4\n      pop\n        /* \"#utility.yul\":4795:4912   */\n      pop\n        /* \"#utility.yul\":4979:4981   */\n      0x20\n        /* \"#utility.yul\":4968:4977   */\n      dup5\n        /* \"#utility.yul\":4964:4982   */\n      add\n        /* \"#utility.yul\":4951:4983   */\n      calldataload\n        /* \"#utility.yul\":5010:5028   */\n      0xffffffffffffffff\n        /* \"#utility.yul\":5002:5008   */\n      dup2\n        /* \"#utility.yul\":4999:5029   */\n      gt\n        /* \"#utility.yul\":4996:5113   */\n      iszero\n      tag_191\n      jumpi\n        /* \"#utility.yul\":5032:5111   */\n      tag_192\n      tag_82\n      jump\t// in\n    tag_192:\n        /* \"#utility.yul\":4996:5113   */\n    tag_191:\n        /* \"#utility.yul\":5145:5210   */\n      tag_193\n        /* \"#utility.yul\":5202:5209   */\n      dup7\n        /* \"#utility.yul\":5193:5199   */\n      dup3\n        /* \"#utility.yul\":5182:5191   */\n      dup8\n        /* \"#utility.yul\":5178:5200   */\n      add\n        /* \"#utility.yul\":5145:5210   */\n      tag_100\n      jump\t// in\n    tag_193:\n        /* \"#utility.yul\":5127:5210   */\n      swap3\n      pop\n      swap3\n      pop\n        /* \"#utility.yul\":4922:5220   */\n      pop\n        /* \"#utility.yul\":4553:5227   */\n      swap3\n      pop\n      swap3\n      pop\n      swap3\n      jump\t// out\n        /* \"#utility.yul\":5233:5413   */\n    tag_101:\n        /* \"#utility.yul\":5281:5358   */\n      0x4e487b7100000000000000000000000000000000000000000000000000000000\n        /* \"#utility.yul\":5278:5279   */\n      0x00\n        /* \"#utility.yul\":5271:5359   */\n      mstore\n        /* \"#utility.yul\":5378:5382   */\n      0x22\n        /* \"#utility.yul\":5375:5376   */\n      0x04\n        /* \"#utility.yul\":5368:5383   */\n      mstore\n        /* \"#utility.yul\":5402:5406   */\n      0x24\n        /* \"#utility.yul\":5399:5400   */\n      0x00\n        /* \"#utility.yul\":5392:5407   */\n      revert\n        /* \"#utility.yul\":5419:5739   */\n    tag_33:\n        /* \"#utility.yul\":5463:5469   */\n      0x00\n        /* \"#utility.yul\":5500:5501   */\n      0x02\n        /* \"#utility.yul\":5494:5498   */\n      dup3\n        /* \"#utility.yul\":5490:5502   */\n      div\n        /* \"#utility.yul\":5480:5502   */\n      swap1\n      pop\n        /* \"#utility.yul\":5547:5548   */\n      0x01\n        /* \"#utility.yul\":5541:5545   */\n      dup3\n        /* \"#utility.yul\":5537:5549   */\n      and\n        /* \"#utility.yul\":5568:5586   */\n      dup1\n        /* \"#utility.yul\":5558:5639   */\n      tag_196\n      jumpi\n        /* \"#utility.yul\":5624:5628   */\n      0x7f\n        /* \"#utility.yul\":5616:5622   */\n      dup3\n        /* \"#utility.yul\":5612:5629   */\n      and\n        /* \"#utility.yul\":5602:5629   */\n      swap2\n      pop\n        /* \"#utility.yul\":5558:5639   */\n    tag_196:\n        /* \"#utility.yul\":5686:5688   */\n      0x20\n        /* \"#utility.yul\":5678:5684   */\n      dup3\n        /* \"#utility.yul\":5675:5689   */\n      lt\n        /* \"#utility.yul\":5655:5673   */\n      dup2\n        /* \"#utility.yul\":5652:5690   */\n      sub\n        /* \"#utility.yul\":5649:5733   */\n      tag_197\n      jumpi\n        /* \"#utility.yul\":5705:5723   */\n      tag_198\n      tag_101\n      jump\t// in\n    tag_198:\n        /* \"#utility.yul\":5649:5733   */\n    tag_197:\n        /* \"#utility.yul\":5470:5739   */\n      pop\n        /* \"#utility.yul\":5419:5739   */\n      swap2\n      swap1\n      pop\n      jump\t// out\n        /* \"#utility.yul\":5745:5925   */\n    tag_102:\n        /* \"#utility.yul\":5793:5870   */\n      0x4e487b7100000000000000000000000000000000000000000000000000000000\n        /* \"#utility.yul\":5790:5791   */\n      0x00\n        /* \"#utility.yul\":5783:5871   */\n      mstore\n        /* \"#utility.yul\":5890:5894   */\n      0x11\n        /* \"#utility.yul\":5887:5888   */\n      0x04\n        /* \"#utility.yul\":5880:5895   */\n      mstore\n        /* \"#utility.yul\":5914:5918   */\n      0x24\n        /* \"#utility.yul\":5911:5912   */\n      0x00\n        /* \"#utility.yul\":5904:5919   */\n      revert\n        /* \"#utility.yul\":5931:6164   */\n    tag_40:\n        /* \"#utility.yul\":5970:5973   */\n      0x00\n        /* \"#utility.yul\":5993:6017   */\n      tag_201\n        /* \"#utility.yul\":6011:6016   */\n      dup3\n        /* \"#utility.yul\":5993:6017   */\n      tag_83\n      jump\t// in\n    tag_201:\n        /* \"#utility.yul\":5984:6017   */\n      swap2\n      pop\n        /* \"#utility.yul\":6039:6105   */\n      0xffffffffffffffffffffffffffffffffffffffffffffffffffffffffffffffff\n        /* \"#utility.yul\":6032:6037   */\n      dup3\n        /* \"#utility.yul\":6029:6106   */\n      sub\n        /* \"#utility.yul\":6026:6129   */\n      tag_202\n      jumpi\n        /* \"#utility.yul\":6109:6127   */\n      tag_203\n      tag_102\n      jump\t// in\n    tag_203:\n        /* \"#utility.yul\":6026:6129   */\n    tag_202:\n        /* \"#utility.yul\":6156:6157   */\n      0x01\n        /* \"#utility.yul\":6149:6154   */\n      dup3\n        /* \"#utility.yul\":6145:6158   */\n      add\n        /* \"#utility.yul\":6138:6158   */\n      swap1\n      pop\n        /* \"#utility.yul\":5931:6164   */\n      swap2\n      swap1\n      pop\n      jump\t// out\n        /* \"#utility.yul\":6170:6350   */\n    tag_103:\n        /* \"#utility.yul\":6218:6295   */\n      0x4e487b7100000000000000000000000000000000000000000000000000000000\n        /* \"#utility.yul\":6215:6216   */\n      0x00\n        /* \"#utility.yul\":6208:6296   */\n      mstore\n        /* \"#utility.yul\":6315:6319   */\n      0x41\n        /* \"#utility.yul\":6312:6313   */\n      0x04\n        /* \"#utility.yul\":6305:6320   */\n      mstore\n        /* \"#utility.yul\":6339:6343   */\n      0x24\n        /* \"#utility.yul\":6336:6337   */\n      0x00\n        /* \"#utility.yul\":6329:6344   */\n      revert\n        /* \"#utility.yul\":6356:6497   */\n    tag_104:\n        /* \"#utility.yul\":6405:6409   */\n      0x00\n        /* \"#utility.yul\":6428:6431   */\n      dup2\n        /* \"#utility.yul\":6420:6431   */\n      swap1\n      pop\n        /* \"#utility.yul\":6451:6454   */\n      dup2\n        /* \"#utility.yul\":6448:6449   */\n      0x00\n        /* \"#utility.yul\":6441:6455   */\n      mstore\n        /* \"#utility.yul\":6485:6489   */\n      0x20\n        /* \"#utility.yul\":6482:6483   */\n      0x00\n        /* \"#utility.yul\":6472:6490   */\n      keccak256\n        /* \"#utility.yul\":6464:6490   */\n      swap1\n      pop\n        /* \"#utility.yul\":6356:6497   */\n      swap2\n      swap1\n      pop\n      jump\t// out\n        /* \"#utility.yul\":6503:6596   */\n    tag_105:\n        /* \"#utility.yul\":6540:6546   */\n      0x00\n        /* \"#utility.yul\":6587:6589   */\n      0x20\n        /* \"#utility.yul\":6582:6584   */\n      0x1f\n        /* \"#utility.yul\":6575:6580   */\n      dup4\n        /* \"#utility.yul\":6571:6585   */\n      add\n        /* \"#utility.yul\":6567:6590   */\n      div\n        /* \"#utility.yul\":6557:6590   */\n      swap1\n      pop\n        /* \"#utility.yul\":6503:6596   */\n      swap2\n      swap1\n      pop\n      jump\t// out\n        /* \"#utility.yul\":6602:6709   */\n    tag_106:\n        /* \"#utility.yul\":6646:6654   */\n      0x00\n        /* \"#utility.yul\":6696:6701   */\n      dup3\n        /* \"#utility.yul\":6690:6694   */\n      dup3\n        /* \"#utility.yul\":6686:6702   */\n      shl\n        /* \"#utility.yul\":6665:6702   */\n      swap1\n      pop\n        /* \"#utility.yul\":6602:6709   */\n      swap3\n      swap2\n      pop\n      pop\n      jump\t// out\n        /* \"#utility.yul\":6715:7108   */\n    tag_107:\n        /* \"#utility.yul\":6784:6790   */\n      0x00\n        /* \"#utility.yul\":6834:6835   */\n      0x08\n        /* \"#utility.yul\":6822:6832   */\n      dup4\n        /* \"#utility.yul\":6818:6836   */\n      mul\n        /* \"#utility.yul\":6857:6954   */\n      tag_209\n        /* \"#utility.yul\":6887:6953   */\n      0xffffffffffffffffffffffffffffffffffffffffffffffffffffffffffffffff\n        /* \"#utility.yul\":6876:6885   */\n      dup3\n        /* \"#utility.yul\":6857:6954   */\n      tag_106\n      jump\t// in\n    tag_209:\n        /* \"#utility.yul\":6975:7014   */\n      tag_210\n        /* \"#utility.yul\":7005:7013   */\n      dup7\n        /* \"#utility.yul\":6994:7003   */\n      dup4\n        /* \"#utility.yul\":6975:7014   */\n      tag_106\n      jump\t// in\n    tag_210:\n        /* \"#utility.yul\":6963:7014   */\n      swap6\n      pop\n        /* \"#utility.yul\":7047:7051   */\n      dup1\n        /* \"#utility.yul\":7043:7052   */\n      not\n        /* \"#utility.yul\":7036:7041   */\n      dup5\n        /* \"#utility.yul\":7032:7053   */\n      and\n        /* \"#utility.yul\":7023:7053   */\n      swap4\n      pop\n        /* \"#utility.yul\":7096:7100   */\n      dup1\n        /* \"#utility.yul\":7086:7094   */\n      dup7\n        /* \"#utility.yul\":7082:7101   */\n      and\n        /* \"#utility.yul\":7075:7080   */\n      dup5\n        /* \"#utility.yul\":7072:7102   */\n      or\n        /* \"#utility.yul\":7062:7102   */\n      swap3\n      pop\n        /* \"#utility.yul\":6791:7108   */\n      pop\n      pop\n        /* \"#utility.yul\":6715:7108   */\n      swap4\n      swap3\n      pop\n      pop\n      pop\n      jump\t// out\n        /* \"#utility.yul\":7114:7174   */\n    tag_108:\n        /* \"#utility.yul\":7142:7145   */\n      0x00\n        /* \"#utility.yul\":7163:7168   */\n      dup2\n        /* \"#utility.yul\":7156:7168   */\n      swap1\n      pop\n        /* \"#utility.yul\":7114:7174   */\n      swap2\n      swap1\n      pop\n      jump\t// out\n        /* \"#utility.yul\":7180:7322   */\n    tag_109:\n        /* \"#utility.yul\":7230:7239   */\n      0x00\n        /* \"#utility.yul\":7263:7316   */\n      tag_213\n        /* \"#utility.yul\":7281:7315   */\n      tag_214\n        /* \"#utility.yul\":7290:7314   */\n      tag_215\n        /* \"#utility.yul\":7308:7313   */\n      dup5\n        /* \"#utility.yul\":7290:7314   */\n      tag_83\n      jump\t// in\n    tag_215:\n        /* \"#utility.yul\":7281:7315   */\n      tag_108\n      jump\t// in\n    tag_214:\n        /* \"#utility.yul\":7263:7316   */\n      tag_83\n      jump\t// in\n    tag_213:\n        /* \"#utility.yul\":7250:7316   */\n      swap1\n      pop\n        /* \"#utility.yul\":7180:7322   */\n      swap2\n      swap1\n      pop\n      jump\t// out\n        /* \"#utility.yul\":7328:7403   */\n    tag_110:\n        /* \"#utility.yul\":7371:7374   */\n      0x00\n        /* \"#utility.yul\":7392:7397   */\n      dup2\n        /* \"#utility.yul\":7385:7397   */\n      swap1\n      pop\n        /* \"#utility.yul\":7328:7403   */\n      swap2\n      swap1\n      pop\n      jump\t// out\n        /* \"#utility.yul\":7409:7678   */\n    tag_111:\n        /* \"#utility.yul\":7519:7558   */\n      tag_218\n        /* \"#utility.yul\":7550:7557   */\n      dup4\n        /* \"#utility.yul\":7519:7558   */\n      tag_109\n      jump\t// in\n    tag_218:\n        /* \"#utility.yul\":7580:7671   */\n      tag_219\n        /* \"#utility.yul\":7629:7670   */\n      tag_220\n        /* \"#utility.yul\":7653:7669   */\n      dup3\n        /* \"#utility.yul\":7629:7670   */\n      tag_110\n      jump\t// in\n    tag_220:\n        /* \"#utility.yul\":7621:7627   */\n      dup5\n        /* \"#utility.yul\":7614:7618   */\n      dup5\n        /* \"#utility.yul\":7608:7619   */\n      sload\n        /* \"#utility.yul\":7580:7671   */\n      tag_107\n      jump\t// in\n    tag_219:\n        /* \"#utility.yul\":7574:7578   */\n      dup3\n        /* \"#utility.yul\":7567:7672   */\n      sstore\n        /* \"#utility.yul\":7485:7678   */\n      pop\n        /* \"#utility.yul\":7409:7678   */\n      pop\n      pop\n      pop\n      jump\t// out\n        /* \"#utility.yul\":7684:7757   */\n    tag_112:\n        /* \"#utility.yul\":7729:7732   */\n      0x00\n        /* \"#utility.yul\":7684:7757   */\n      swap1\n      jump\t// out\n        /* \"#utility.yul\":7763:7952   */\n    tag_113:\n        /* \"#utility.yul\":7840:7872   */\n      tag_223\n      tag_112\n      jump\t// in\n    tag_223:\n        /* \"#utility.yul\":7881:7946   */\n      tag_224\n        /* \"#utility.yul\":7939:7945   */\n      dup2\n        /* \"#utility.yul\":7931:7937   */\n      dup5\n        /* \"#utility.yul\":7925:7929   */\n      dup5\n        /* \"#utility.yul\":7881:7946   */\n      tag_111\n      jump\t// in\n    tag_224:\n        /* \"#utility.yul\":7816:7952   */\n      pop\n        /* \"#utility.yul\":7763:7952   */\n      pop\n      pop\n      jump\t// out\n        /* \"#utility.yul\":7958:8144   */\n    tag_114:\n        /* \"#utility.yul\":8018:8138   */\n    tag_226:\n        /* \"#utility.yul\":8035:8038   */\n      dup2\n        /* \"#utility.yul\":8028:8033   */\n      dup2\n        /* \"#utility.yul\":8025:8039   */\n      lt\n        /* \"#utility.yul\":8018:8138   */\n      iszero\n      tag_228\n      jumpi\n        /* \"#utility.yul\":8089:8128   */\n      tag_229\n        /* \"#utility.yul\":8126:8127   */\n      0x00\n        /* \"#utility.yul\":8119:8124   */\n      dup3\n        /* \"#utility.yul\":8089:8128   */\n      tag_113\n      jump\t// in\n    tag_229:\n        /* \"#utility.yul\":8062:8063   */\n      0x01\n        /* \"#utility.yul\":8055:8060   */\n      dup2\n        /* \"#utility.yul\":8051:8064   */\n      add\n        /* \"#utility.yul\":8042:8064   */\n      swap1\n      pop\n        /* \"#utility.yul\":8018:8138   */\n      jump(tag_226)\n    tag_228:\n        /* \"#utility.yul\":7958:8144   */\n      pop\n      pop\n      jump\t// out\n        /* \"#utility.yul\":8150:8693   */\n    tag_115:\n        /* \"#utility.yul\":8251:8253   */\n      0x1f\n        /* \"#utility.yul\":8246:8249   */\n      dup3\n        /* \"#utility.yul\":8243:8254   */\n      gt\n        /* \"#utility.yul\":8240:8686   */\n      iszero\n      tag_231\n      jumpi\n        /* \"#utility.yul\":8285:8323   */\n      tag_232\n        /* \"#utility.yul\":8317:8322   */\n      dup2\n        /* \"#utility.yul\":8285:8323   */\n      tag_104\n      jump\t// in\n    tag_232:\n        /* \"#utility.yul\":8369:8398   */\n      tag_233\n        /* \"#utility.yul\":8387:8397   */\n      dup5\n        /* \"#utility.yul\":8369:8398   */\n      tag_105\n      jump\t// in\n    tag_233:\n        /* \"#utility.yul\":8359:8367   */\n      dup2\n        /* \"#utility.yul\":8355:8399   */\n      add\n        /* \"#utility.yul\":8552:8554   */\n      0x20\n        /* \"#utility.yul\":8540:8550   */\n      dup6\n        /* \"#utility.yul\":8537:8555   */\n      lt\n        /* \"#utility.yul\":8534:8583   */\n      iszero\n      tag_234\n      jumpi\n        /* \"#utility.yul\":8573:8581   */\n      dup2\n        /* \"#utility.yul\":8558:8581   */\n      swap1\n      pop\n        /* \"#utility.yul\":8534:8583   */\n    tag_234:\n        /* \"#utility.yul\":8596:8676   */\n      tag_235\n        /* \"#utility.yul\":8652:8674   */\n      tag_236\n        /* \"#utility.yul\":8670:8673   */\n      dup6\n        /* \"#utility.yul\":8652:8674   */\n      tag_105\n      jump\t// in\n    tag_236:\n        /* \"#utility.yul\":8642:8650   */\n      dup4\n        /* \"#utility.yul\":8638:8675   */\n      add\n        /* \"#utility.yul\":8625:8636   */\n      dup3\n        /* \"#utility.yul\":8596:8676   */\n      tag_114\n      jump\t// in\n    tag_235:\n        /* \"#utility.yul\":8255:8686   */\n      pop\n      pop\n        /* \"#utility.yul\":8240:8686   */\n    tag_231:\n        /* \"#utility.yul\":8150:8693   */\n      pop\n      pop\n      pop\n      jump\t// out\n        /* \"#utility.yul\":8699:8816   */\n    tag_116:\n        /* \"#utility.yul\":8753:8761   */\n      0x00\n        /* \"#utility.yul\":8803:8808   */\n      dup3\n        /* \"#utility.yul\":8797:8801   */\n      dup3\n        /* \"#utility.yul\":8793:8809   */\n      shr\n        /* \"#utility.yul\":8772:8809   */\n      swap1\n      pop\n        /* \"#utility.yul\":8699:8816   */\n      swap3\n      swap2\n      pop\n      pop\n      jump\t// out\n        /* \"#utility.yul\":8822:8991   */\n    tag_117:\n        /* \"#utility.yul\":8866:8872   */\n      0x00\n        /* \"#utility.yul\":8899:8950   */\n      tag_239\n        /* \"#utility.yul\":8947:8948   */\n      0x00\n        /* \"#utility.yul\":8943:8949   */\n      not\n        /* \"#utility.yul\":8935:8940   */\n      dup5\n        /* \"#utility.yul\":8932:8933   */\n      0x08\n        /* \"#utility.yul\":8928:8941   */\n      mul\n        /* \"#utility.yul\":8899:8950   */\n      tag_116\n      jump\t// in\n    tag_239:\n        /* \"#utility.yul\":8895:8951   */\n      not\n        /* \"#utility.yul\":8980:8984   */\n      dup1\n        /* \"#utility.yul\":8974:8978   */\n      dup4\n        /* \"#utility.yul\":8970:8985   */\n      and\n        /* \"#utility.yul\":8960:8985   */\n      swap2\n      pop\n        /* \"#utility.yul\":8873:8991   */\n      pop\n        /* \"#utility.yul\":8822:8991   */\n      swap3\n      swap2\n      pop\n      pop\n      jump\t// out\n        /* \"#utility.yul\":8996:9291   */\n    tag_118:\n        /* \"#utility.yul\":9072:9076   */\n      0x00\n        /* \"#utility.yul\":9218:9247   */\n      tag_241\n        /* \"#utility.yul\":9243:9246   */\n      dup4\n        /* \"#utility.yul\":9237:9241   */\n      dup4\n        /* \"#utility.yul\":9218:9247   */\n      tag_117\n      jump\t// in\n    tag_241:\n        /* \"#utility.yul\":9210:9247   */\n      swap2\n      pop\n        /* \"#utility.yul\":9280:9283   */\n      dup3\n        /* \"#utility.yul\":9277:9278   */\n      0x02\n        /* \"#utility.yul\":9273:9284   */\n      mul\n        /* \"#utility.yul\":9267:9271   */\n      dup3\n        /* \"#utility.yul\":9264:9285   */\n      or\n        /* \"#utility.yul\":9256:9285   */\n      swap1\n      pop\n        /* \"#utility.yul\":8996:9291   */\n      swap3\n      swap2\n      pop\n      pop\n      jump\t// out\n        /* \"#utility.yul\":9296:10691   */\n    tag_42:\n        /* \"#utility.yul\":9413:9450   */\n      tag_243\n        /* \"#utility.yul\":9446:9449   */\n      dup3\n        /* \"#utility.yul\":9413:9450   */\n      tag_90\n      jump\t// in\n    tag_243:\n        /* \"#utility.yul\":9515:9533   */\n      0xffffffffffffffff\n        /* \"#utility.yul\":9507:9513   */\n      dup2\n        /* \"#utility.yul\":9504:9534   */\n      gt\n        /* \"#utility.yul\":9501:9557   */\n      iszero\n      tag_244\n      jumpi\n        /* \"#utility.yul\":9537:9555   */\n      tag_245\n      tag_103\n      jump\t// in\n    tag_245:\n        /* \"#utility.yul\":9501:9557   */\n    tag_244:\n        /* \"#utility.yul\":9581:9619   */\n      tag_246\n        /* \"#utility.yul\":9613:9617   */\n      dup3\n        /* \"#utility.yul\":9607:9618   */\n      sload\n        /* \"#utility.yul\":9581:9619   */\n      tag_33\n      jump\t// in\n    tag_246:\n        /* \"#utility.yul\":9666:9733   */\n      tag_247\n        /* \"#utility.yul\":9726:9732   */\n      dup3\n        /* \"#utility.yul\":9718:9724   */\n      dup3\n        /* \"#utility.yul\":9712:9716   */\n      dup6\n        /* \"#utility.yul\":9666:9733   */\n      tag_115\n      jump\t// in\n    tag_247:\n        /* \"#utility.yul\":9760:9761   */\n      0x00\n        /* \"#utility.yul\":9784:9788   */\n      0x20\n        /* \"#utility.yul\":9771:9788   */\n      swap1\n      pop\n        /* \"#utility.yul\":9816:9818   */\n      0x1f\n        /* \"#utility.yul\":9808:9814   */\n      dup4\n        /* \"#utility.yul\":9805:9819   */\n      gt\n        /* \"#utility.yul\":9833:9834   */\n      0x01\n        /* \"#utility.yul\":9828:10446   */\n      dup2\n      eq\n      tag_249\n      jumpi\n        /* \"#utility.yul\":10490:10491   */\n      0x00\n        /* \"#utility.yul\":10507:10513   */\n      dup5\n        /* \"#utility.yul\":10504:10581   */\n      iszero\n      tag_250\n      jumpi\n        /* \"#utility.yul\":10556:10565   */\n      dup3\n        /* \"#utility.yul\":10551:10554   */\n      dup8\n        /* \"#utility.yul\":10547:10566   */\n      add\n        /* \"#utility.yul\":10541:10567   */\n      mload\n        /* \"#utility.yul\":10532:10567   */\n      swap1\n      pop\n        /* \"#utility.yul\":10504:10581   */\n    tag_250:\n        /* \"#utility.yul\":10607:10674   */\n      tag_251\n        /* \"#utility.yul\":10667:10673   */\n      dup6\n        /* \"#utility.yul\":10660:10665   */\n      dup3\n        /* \"#utility.yul\":10607:10674   */\n      tag_118\n      jump\t// in\n    tag_251:\n        /* \"#utility.yul\":10601:10605   */\n      dup7\n        /* \"#utility.yul\":10594:10675   */\n      sstore\n        /* \"#utility.yul\":10463:10685   */\n      pop\n        /* \"#utility.yul\":9798:10685   */\n      jump(tag_248)\n        /* \"#utility.yul\":9828:10446   */\n    tag_249:\n        /* \"#utility.yul\":9880:9884   */\n      0x1f\n        /* \"#utility.yul\":9876:9885   */\n      not\n        /* \"#utility.yul\":9868:9874   */\n      dup5\n        /* \"#utility.yul\":9864:9886   */\n      and\n        /* \"#utility.yul\":9914:9951   */\n      tag_252\n        /* \"#utility.yul\":9946:9950   */\n      dup7\n        /* \"#utility.yul\":9914:9951   */\n      tag_104\n      jump\t// in\n    tag_252:\n        /* \"#utility.yul\":9973:9974   */\n      0x00\n        /* \"#utility.yul\":9987:10195   */\n    tag_253:\n        /* \"#utility.yul\":10001:10008   */\n      dup3\n        /* \"#utility.yul\":9998:9999   */\n      dup2\n        /* \"#utility.yul\":9995:10009   */\n      lt\n        /* \"#utility.yul\":9987:10195   */\n      iszero\n      tag_255\n      jumpi\n        /* \"#utility.yul\":10080:10089   */\n      dup5\n        /* \"#utility.yul\":10075:10078   */\n      dup10\n        /* \"#utility.yul\":10071:10090   */\n      add\n        /* \"#utility.yul\":10065:10091   */\n      mload\n        /* \"#utility.yul\":10057:10063   */\n      dup3\n        /* \"#utility.yul\":10050:10092   */\n      sstore\n        /* \"#utility.yul\":10131:10132   */\n      0x01\n        /* \"#utility.yul\":10123:10129   */\n      dup3\n        /* \"#utility.yul\":10119:10133   */\n      add\n        /* \"#utility.yul\":10109:10133   */\n      swap2\n      pop\n        /* \"#utility.yul\":10178:10180   */\n      0x20\n        /* \"#utility.yul\":10167:10176   */\n      dup6\n        /* \"#utility.yul\":10163:10181   */\n      add\n        /* \"#utility.yul\":10150:10181   */\n      swap5\n      pop\n        /* \"#utility.yul\":10024:10028   */\n      0x20\n        /* \"#utility.yul\":10021:10022   */\n      dup2\n        /* \"#utility.yul\":10017:10029   */\n      add\n        /* \"#utility.yul\":10012:10029   */\n      swap1\n      pop\n        /* \"#utility.yul\":9987:10195   */\n      jump(tag_253)\n    tag_255:\n        /* \"#utility.yul\":10223:10229   */\n      dup7\n        /* \"#utility.yul\":10214:10221   */\n      dup4\n        /* \"#utility.yul\":10211:10230   */\n      lt\n        /* \"#utility.yul\":10208:10387   */\n      iszero\n      tag_256\n      jumpi\n        /* \"#utility.yul\":10281:10290   */\n      dup5\n        /* \"#utility.yul\":10276:10279   */\n      dup10\n        /* \"#utility.yul\":10272:10291   */\n      add\n        /* \"#utility.yul\":10266:10292   */\n      mload\n        /* \"#utility.yul\":10324:10372   */\n      tag_257\n        /* \"#utility.yul\":10366:10370   */\n      0x1f\n        /* \"#utility.yul\":10358:10364   */\n      dup10\n        /* \"#utility.yul\":10354:10371   */\n      and\n        /* \"#utility.yul\":10343:10352   */\n      dup3\n        /* \"#utility.yul\":10324:10372   */\n      tag_117\n      jump\t// in\n    tag_257:\n        /* \"#utility.yul\":10316:10322   */\n      dup4\n        /* \"#utility.yul\":10309:10373   */\n      sstore\n        /* \"#utility.yul\":10231:10387   */\n      pop\n        /* \"#utility.yul\":10208:10387   */\n    tag_256:\n        /* \"#utility.yul\":10433:10434   */\n      0x01\n        /* \"#utility.yul\":10429:10430   */\n      0x02\n        /* \"#utility.yul\":10421:10427   */\n      dup9\n        /* \"#utility.yul\":10417:10431   */\n      mul\n        /* \"#utility.yul\":10413:10435   */\n      add\n        /* \"#utility.yul\":10407:10411   */\n      dup9\n        /* \"#utility.yul\":10400:10436   */\n      sstore\n        /* \"#utility.yul\":9835:10446   */\n      pop\n      pop\n      pop\n        /* \"#utility.yul\":9798:10685   */\n    tag_248:\n      pop\n        /* \"#utility.yul\":9388:10691   */\n      pop\n      pop\n      pop\n        /* \"#utility.yul\":9296:10691   */\n      pop\n      pop\n      jump\t// out\n        /* \"#utility.yul\":10697:11029   */\n    tag_44:\n        /* \"#utility.yul\":10818:10822   */\n      0x00\n        /* \"#utility.yul\":10856:10858   */\n      0x40\n        /* \"#utility.yul\":10845:10854   */\n      dup3\n        /* \"#utility.yul\":10841:10859   */\n      add\n        /* \"#utility.yul\":10833:10859   */\n      swap1\n      pop\n        /* \"#utility.yul\":10869:10940   */\n      tag_259\n        /* \"#utility.yul\":10937:10938   */\n      0x00\n        /* \"#utility.yul\":10926:10935   */\n      dup4\n        /* \"#utility.yul\":10922:10939   */\n      add\n        /* \"#utility.yul\":10913:10919   */\n      dup6\n        /* \"#utility.yul\":10869:10940   */\n      tag_89\n      jump\t// in\n    tag_259:\n        /* \"#utility.yul\":10950:11022   */\n      tag_260\n        /* \"#utility.yul\":11018:11020   */\n      0x20\n        /* \"#utility.yul\":11007:11016   */\n      dup4\n        /* \"#utility.yul\":11003:11021   */\n      add\n        /* \"#utility.yul\":10994:11000   */\n      dup5\n        /* \"#utility.yul\":10950:11022   */\n      tag_88\n      jump\t// in\n    tag_260:\n        /* \"#utility.yul\":10697:11029   */\n      swap4\n      swap3\n      pop\n      pop\n      pop\n      jump\t// out\n        /* \"#utility.yul\":11035:11203   */\n    tag_119:\n        /* \"#utility.yul\":11175:11195   */\n      0x47616d65206973206e6f74206163746976650000000000000000000000000000\n        /* \"#utility.yul\":11171:11172   */\n      0x00\n        /* \"#utility.yul\":11163:11169   */\n      dup3\n        /* \"#utility.yul\":11159:11173   */\n      add\n        /* \"#utility.yul\":11152:11196   */\n      mstore\n        /* \"#utility.yul\":11035:11203   */\n      pop\n      jump\t// out\n        /* \"#utility.yul\":11209:11575   */\n    tag_120:\n        /* \"#utility.yul\":11351:11354   */\n      0x00\n        /* \"#utility.yul\":11372:11439   */\n      tag_263\n        /* \"#utility.yul\":11436:11438   */\n      0x12\n        /* \"#utility.yul\":11431:11434   */\n      dup4\n        /* \"#utility.yul\":11372:11439   */\n      tag_91\n      jump\t// in\n    tag_263:\n        /* \"#utility.yul\":11365:11439   */\n      swap2\n      pop\n        /* \"#utility.yul\":11448:11541   */\n      tag_264\n        /* \"#utility.yul\":11537:11540   */\n      dup3\n        /* \"#utility.yul\":11448:11541   */\n      tag_119\n      jump\t// in\n    tag_264:\n        /* \"#utility.yul\":11566:11568   */\n      0x20\n        /* \"#utility.yul\":11561:11564   */\n      dup3\n        /* \"#utility.yul\":11557:11569   */\n      add\n        /* \"#utility.yul\":11550:11569   */\n      swap1\n      pop\n        /* \"#utility.yul\":11209:11575   */\n      swap2\n      swap1\n      pop\n      jump\t// out\n        /* \"#utility.yul\":11581:12000   */\n    tag_48:\n        /* \"#utility.yul\":11747:11751   */\n      0x00\n        /* \"#utility.yul\":11785:11787   */\n      0x20\n        /* \"#utility.yul\":11774:11783   */\n      dup3\n        /* \"#utility.yul\":11770:11788   */\n      add\n        /* \"#utility.yul\":11762:11788   */\n      swap1\n      pop\n        /* \"#utility.yul\":11834:11843   */\n      dup2\n        /* \"#utility.yul\":11828:11832   */\n      dup2\n        /* \"#utility.yul\":11824:11844   */\n      sub\n        /* \"#utility.yul\":11820:11821   */\n      0x00\n        /* \"#utility.yul\":11809:11818   */\n      dup4\n        /* \"#utility.yul\":11805:11822   */\n      add\n        /* \"#utility.yul\":11798:11845   */\n      mstore\n        /* \"#utility.yul\":11862:11993   */\n      tag_266\n        /* \"#utility.yul\":11988:11992   */\n      dup2\n        /* \"#utility.yul\":11862:11993   */\n      tag_120\n      jump\t// in\n    tag_266:\n        /* \"#utility.yul\":11854:11993   */\n      swap1\n      pop\n        /* \"#utility.yul\":11581:12000   */\n      swap2\n      swap1\n      pop\n      jump\t// out\n        /* \"#utility.yul\":12006:12169   */\n    tag_121:\n        /* \"#utility.yul\":12146:12161   */\n      0x4e6f7420796f7572207475726e00000000000000000000000000000000000000\n        /* \"#utility.yul\":12142:12143   */\n      0x00\n        /* \"#utility.yul\":12134:12140   */\n      dup3\n        /* \"#utility.yul\":12130:12144   */\n      add\n        /* \"#utility.yul\":12123:12162   */\n      mstore\n        /* \"#utility.yul\":12006:12169   */\n      pop\n      jump\t// out\n        /* \"#utility.yul\":12175:12541   */\n    tag_122:\n        /* \"#utility.yul\":12317:12320   */\n      0x00\n        /* \"#utility.yul\":12338:12405   */\n      tag_269\n        /* \"#utility.yul\":12402:12404   */\n      0x0d\n        /* \"#utility.yul\":12397:12400   */\n      dup4\n        /* \"#utility.yul\":12338:12405   */\n      tag_91\n      jump\t// in\n    tag_269:\n        /* \"#utility.yul\":12331:12405   */\n      swap2\n      pop\n        /* \"#utility.yul\":12414:12507   */\n      tag_270\n        /* \"#utility.yul\":12503:12506   */\n      dup3\n        /* \"#utility.yul\":12414:12507   */\n      tag_121\n      jump\t// in\n    tag_270:\n        /* \"#utility.yul\":12532:12534   */\n      0x20\n        /* \"#utility.yul\":12527:12530   */\n      dup3\n        /* \"#utility.yul\":12523:12535   */\n      add\n        /* \"#utility.yul\":12516:12535   */\n      swap1\n      pop\n        /* \"#utility.yul\":12175:12541   */\n      swap2\n      swap1\n      pop\n      jump\t// out\n        /* \"#utility.yul\":12547:12966   */\n    tag_54:\n        /* \"#utility.yul\":12713:12717   */\n      0x00\n        /* \"#utility.yul\":12751:12753   */\n      0x20\n        /* \"#utility.yul\":12740:12749   */\n      dup3\n        /* \"#utility.yul\":12736:12754   */\n      add\n        /* \"#utility.yul\":12728:12754   */\n      swap1\n      pop\n        /* \"#utility.yul\":12800:12809   */\n      dup2\n        /* \"#utility.yul\":12794:12798   */\n      dup2\n        /* \"#utility.yul\":12790:12810   */\n      sub\n        /* \"#utility.yul\":12786:12787   */\n      0x00\n        /* \"#utility.yul\":12775:12784   */\n      dup4\n        /* \"#utility.yul\":12771:12788   */\n      add\n        /* \"#utility.yul\":12764:12811   */\n      mstore\n        /* \"#utility.yul\":12828:12959   */\n      tag_272\n        /* \"#utility.yul\":12954:12958   */\n      dup2\n        /* \"#utility.yul\":12828:12959   */\n      tag_122\n      jump\t// in\n    tag_272:\n        /* \"#utility.yul\":12820:12959   */\n      swap1\n      pop\n        /* \"#utility.yul\":12547:12966   */\n      swap2\n      swap1\n      pop\n      jump\t// out\n        /* \"#utility.yul\":12972:13069   */\n    tag_123:\n        /* \"#utility.yul\":13031:13037   */\n      0x00\n        /* \"#utility.yul\":13059:13062   */\n      dup3\n        /* \"#utility.yul\":13049:13062   */\n      swap1\n      pop\n        /* \"#utility.yul\":12972:13069   */\n      swap3\n      swap2\n      pop\n      pop\n      jump\t// out\n        /* \"#utility.yul\":13075:14478   */\n    tag_56:\n        /* \"#utility.yul\":13199:13243   */\n      tag_275\n        /* \"#utility.yul\":13239:13242   */\n      dup4\n        /* \"#utility.yul\":13234:13237   */\n      dup4\n        /* \"#utility.yul\":13199:13243   */\n      tag_123\n      jump\t// in\n    tag_275:\n        /* \"#utility.yul\":13308:13326   */\n      0xffffffffffffffff\n        /* \"#utility.yul\":13300:13306   */\n      dup2\n        /* \"#utility.yul\":13297:13327   */\n      gt\n        /* \"#utility.yul\":13294:13350   */\n      iszero\n      tag_276\n      jumpi\n        /* \"#utility.yul\":13330:13348   */\n      tag_277\n      tag_103\n      jump\t// in\n    tag_277:\n        /* \"#utility.yul\":13294:13350   */\n    tag_276:\n        /* \"#utility.yul\":13374:13412   */\n      tag_278\n        /* \"#utility.yul\":13406:13410   */\n      dup3\n        /* \"#utility.yul\":13400:13411   */\n      sload\n        /* \"#utility.yul\":13374:13412   */\n      tag_33\n      jump\t// in\n    tag_278:\n        /* \"#utility.yul\":13459:13526   */\n      tag_279\n        /* \"#utility.yul\":13519:13525   */\n      dup3\n        /* \"#utility.yul\":13511:13517   */\n      dup3\n        /* \"#utility.yul\":13505:13509   */\n      dup6\n        /* \"#utility.yul\":13459:13526   */\n      tag_115\n      jump\t// in\n    tag_279:\n        /* \"#utility.yul\":13553:13554   */\n      0x00\n        /* \"#utility.yul\":13582:13584   */\n      0x1f\n        /* \"#utility.yul\":13574:13580   */\n      dup4\n        /* \"#utility.yul\":13571:13585   */\n      gt\n        /* \"#utility.yul\":13599:13600   */\n      0x01\n        /* \"#utility.yul\":13594:14226   */\n      dup2\n      eq\n      tag_281\n      jumpi\n        /* \"#utility.yul\":14270:14271   */\n      0x00\n        /* \"#utility.yul\":14287:14293   */\n      dup5\n        /* \"#utility.yul\":14284:14368   */\n      iszero\n      tag_282\n      jumpi\n        /* \"#utility.yul\":14343:14352   */\n      dup3\n        /* \"#utility.yul\":14338:14341   */\n      dup8\n        /* \"#utility.yul\":14334:14353   */\n      add\n        /* \"#utility.yul\":14321:14354   */\n      calldataload\n        /* \"#utility.yul\":14312:14354   */\n      swap1\n      pop\n        /* \"#utility.yul\":14284:14368   */\n    tag_282:\n        /* \"#utility.yul\":14394:14461   */\n      tag_283\n        /* \"#utility.yul\":14454:14460   */\n      dup6\n        /* \"#utility.yul\":14447:14452   */\n      dup3\n        /* \"#utility.yul\":14394:14461   */\n      tag_118\n      jump\t// in\n    tag_283:\n        /* \"#utility.yul\":14388:14392   */\n      dup7\n        /* \"#utility.yul\":14381:14462   */\n      sstore\n        /* \"#utility.yul\":14243:14472   */\n      pop\n        /* \"#utility.yul\":13564:14472   */\n      jump(tag_280)\n        /* \"#utility.yul\":13594:14226   */\n    tag_281:\n        /* \"#utility.yul\":13646:13650   */\n      0x1f\n        /* \"#utility.yul\":13642:13651   */\n      not\n        /* \"#utility.yul\":13634:13640   */\n      dup5\n        /* \"#utility.yul\":13630:13652   */\n      and\n        /* \"#utility.yul\":13680:13717   */\n      tag_284\n        /* \"#utility.yul\":13712:13716   */\n      dup7\n        /* \"#utility.yul\":13680:13717   */\n      tag_104\n      jump\t// in\n    tag_284:\n        /* \"#utility.yul\":13739:13740   */\n      0x00\n        /* \"#utility.yul\":13753:13968   */\n    tag_285:\n        /* \"#utility.yul\":13767:13774   */\n      dup3\n        /* \"#utility.yul\":13764:13765   */\n      dup2\n        /* \"#utility.yul\":13761:13775   */\n      lt\n        /* \"#utility.yul\":13753:13968   */\n      iszero\n      tag_287\n      jumpi\n        /* \"#utility.yul\":13853:13862   */\n      dup5\n        /* \"#utility.yul\":13848:13851   */\n      dup10\n        /* \"#utility.yul\":13844:13863   */\n      add\n        /* \"#utility.yul\":13831:13864   */\n      calldataload\n        /* \"#utility.yul\":13823:13829   */\n      dup3\n        /* \"#utility.yul\":13816:13865   */\n      sstore\n        /* \"#utility.yul\":13904:13905   */\n      0x01\n        /* \"#utility.yul\":13896:13902   */\n      dup3\n        /* \"#utility.yul\":13892:13906   */\n      add\n        /* \"#utility.yul\":13882:13906   */\n      swap2\n      pop\n        /* \"#utility.yul\":13951:13953   */\n      0x20\n        /* \"#utility.yul\":13940:13949   */\n      dup6\n        /* \"#utility.yul\":13936:13954   */\n      add\n        /* \"#utility.yul\":13923:13954   */\n      swap5\n      pop\n        /* \"#utility.yul\":13790:13794   */\n      0x20\n        /* \"#utility.yul\":13787:13788   */\n      dup2\n        /* \"#utility.yul\":13783:13795   */\n      add\n        /* \"#utility.yul\":13778:13795   */\n      swap1\n      pop\n        /* \"#utility.yul\":13753:13968   */\n      jump(tag_285)\n    tag_287:\n        /* \"#utility.yul\":13996:14002   */\n      dup7\n        /* \"#utility.yul\":13987:13994   */\n      dup4\n        /* \"#utility.yul\":13984:14003   */\n      lt\n        /* \"#utility.yul\":13981:14167   */\n      iszero\n      tag_288\n      jumpi\n        /* \"#utility.yul\":14061:14070   */\n      dup5\n        /* \"#utility.yul\":14056:14059   */\n      dup10\n        /* \"#utility.yul\":14052:14071   */\n      add\n        /* \"#utility.yul\":14039:14072   */\n      calldataload\n        /* \"#utility.yul\":14104:14152   */\n      tag_289\n        /* \"#utility.yul\":14146:14150   */\n      0x1f\n        /* \"#utility.yul\":14138:14144   */\n      dup10\n        /* \"#utility.yul\":14134:14151   */\n      and\n        /* \"#utility.yul\":14123:14132   */\n      dup3\n        /* \"#utility.yul\":14104:14152   */\n      tag_117\n      jump\t// in\n    tag_289:\n        /* \"#utility.yul\":14096:14102   */\n      dup4\n        /* \"#utility.yul\":14089:14153   */\n      sstore\n        /* \"#utility.yul\":14004:14167   */\n      pop\n        /* \"#utility.yul\":13981:14167   */\n    tag_288:\n        /* \"#utility.yul\":14213:14214   */\n      0x01\n        /* \"#utility.yul\":14209:14210   */\n      0x02\n        /* \"#utility.yul\":14201:14207   */\n      dup9\n        /* \"#utility.yul\":14197:14211   */\n      mul\n        /* \"#utility.yul\":14193:14215   */\n      add\n        /* \"#utility.yul\":14187:14191   */\n      dup9\n        /* \"#utility.yul\":14180:14216   */\n      sstore\n        /* \"#utility.yul\":13601:14226   */\n      pop\n      pop\n      pop\n        /* \"#utility.yul\":13564:14472   */\n    tag_280:\n      pop\n        /* \"#utility.yul\":13174:14478   */\n      pop\n      pop\n      pop\n        /* \"#utility.yul\":13075:14478   */\n      pop\n      pop\n      pop\n      jump\t// out\n        /* \"#utility.yul\":14484:14632   */\n    tag_124:\n        /* \"#utility.yul\":14582:14588   */\n      dup3\n        /* \"#utility.yul\":14577:14580   */\n      dup2\n        /* \"#utility.yul\":14572:14575   */\n      dup4\n        /* \"#utility.yul\":14559:14589   */\n      calldatacopy\n        /* \"#utility.yul\":14623:14624   */\n      0x00\n        /* \"#utility.yul\":14614:14620   */\n      dup4\n        /* \"#utility.yul\":14609:14612   */\n      dup4\n        /* \"#utility.yul\":14605:14621   */\n      add\n        /* \"#utility.yul\":14598:14625   */\n      mstore\n        /* \"#utility.yul\":14484:14632   */\n      pop\n      pop\n      pop\n      jump\t// out\n        /* \"#utility.yul\":14662:14979   */\n    tag_125:\n        /* \"#utility.yul\":14760:14763   */\n      0x00\n        /* \"#utility.yul\":14781:14852   */\n      tag_292\n        /* \"#utility.yul\":14845:14851   */\n      dup4\n        /* \"#utility.yul\":14840:14843   */\n      dup6\n        /* \"#utility.yul\":14781:14852   */\n      tag_91\n      jump\t// in\n    tag_292:\n        /* \"#utility.yul\":14774:14852   */\n      swap4\n      pop\n        /* \"#utility.yul\":14862:14918   */\n      tag_293\n        /* \"#utility.yul\":14911:14917   */\n      dup4\n        /* \"#utility.yul\":14906:14909   */\n      dup6\n        /* \"#utility.yul\":14899:14904   */\n      dup5\n        /* \"#utility.yul\":14862:14918   */\n      tag_124\n      jump\t// in\n    tag_293:\n        /* \"#utility.yul\":14943:14972   */\n      tag_294\n        /* \"#utility.yul\":14965:14971   */\n      dup4\n        /* \"#utility.yul\":14943:14972   */\n      tag_93\n      jump\t// in\n    tag_294:\n        /* \"#utility.yul\":14938:14941   */\n      dup5\n        /* \"#utility.yul\":14934:14973   */\n      add\n        /* \"#utility.yul\":14927:14973   */\n      swap1\n      pop\n        /* \"#utility.yul\":14662:14979   */\n      swap4\n      swap3\n      pop\n      pop\n      pop\n      jump\t// out\n        /* \"#utility.yul\":14985:15538   */\n    tag_60:\n        /* \"#utility.yul\":15164:15168   */\n      0x00\n        /* \"#utility.yul\":15202:15204   */\n      0x60\n        /* \"#utility.yul\":15191:15200   */\n      dup3\n        /* \"#utility.yul\":15187:15205   */\n      add\n        /* \"#utility.yul\":15179:15205   */\n      swap1\n      pop\n        /* \"#utility.yul\":15215:15286   */\n      tag_296\n        /* \"#utility.yul\":15283:15284   */\n      0x00\n        /* \"#utility.yul\":15272:15281   */\n      dup4\n        /* \"#utility.yul\":15268:15285   */\n      add\n        /* \"#utility.yul\":15259:15265   */\n      dup8\n        /* \"#utility.yul\":15215:15286   */\n      tag_89\n      jump\t// in\n    tag_296:\n        /* \"#utility.yul\":15296:15368   */\n      tag_297\n        /* \"#utility.yul\":15364:15366   */\n      0x20\n        /* \"#utility.yul\":15353:15362   */\n      dup4\n        /* \"#utility.yul\":15349:15367   */\n      add\n        /* \"#utility.yul\":15340:15346   */\n      dup7\n        /* \"#utility.yul\":15296:15368   */\n      tag_88\n      jump\t// in\n    tag_297:\n        /* \"#utility.yul\":15415:15424   */\n      dup2\n        /* \"#utility.yul\":15409:15413   */\n      dup2\n        /* \"#utility.yul\":15405:15425   */\n      sub\n        /* \"#utility.yul\":15400:15402   */\n      0x40\n        /* \"#utility.yul\":15389:15398   */\n      dup4\n        /* \"#utility.yul\":15385:15403   */\n      add\n        /* \"#utility.yul\":15378:15426   */\n      mstore\n        /* \"#utility.yul\":15443:15531   */\n      tag_298\n        /* \"#utility.yul\":15526:15530   */\n      dup2\n        /* \"#utility.yul\":15517:15523   */\n      dup5\n        /* \"#utility.yul\":15509:15515   */\n      dup7\n        /* \"#utility.yul\":15443:15531   */\n      tag_125\n      jump\t// in\n    tag_298:\n        /* \"#utility.yul\":15435:15531   */\n      swap1\n      pop\n        /* \"#utility.yul\":14985:15538   */\n      swap6\n      swap5\n      pop\n      pop\n      pop\n      pop\n      pop\n      jump\t// out\n        /* \"#utility.yul\":15544:15711   */\n    tag_126:\n        /* \"#utility.yul\":15684:15703   */\n      0x4e6f742061207061727469636970616e74000000000000000000000000000000\n        /* \"#utility.yul\":15680:15681   */\n      0x00\n        /* \"#utility.yul\":15672:15678   */\n      dup3\n        /* \"#utility.yul\":15668:15682   */\n      add\n        /* \"#utility.yul\":15661:15704   */\n      mstore\n        /* \"#utility.yul\":15544:15711   */\n      pop\n      jump\t// out\n        /* \"#utility.yul\":15717:16083   */\n    tag_127:\n        /* \"#utility.yul\":15859:15862   */\n      0x00\n        /* \"#utility.yul\":15880:15947   */\n      tag_301\n        /* \"#utility.yul\":15944:15946   */\n      0x11\n        /* \"#utility.yul\":15939:15942   */\n      dup4\n        /* \"#utility.yul\":15880:15947   */\n      tag_91\n      jump\t// in\n    tag_301:\n        /* \"#utility.yul\":15873:15947   */\n      swap2\n      pop\n        /* \"#utility.yul\":15956:16049   */\n      tag_302\n        /* \"#utility.yul\":16045:16048   */\n      dup3\n        /* \"#utility.yul\":15956:16049   */\n      tag_126\n      jump\t// in\n    tag_302:\n        /* \"#utility.yul\":16074:16076   */\n      0x20\n        /* \"#utility.yul\":16069:16072   */\n      dup3\n        /* \"#utility.yul\":16065:16077   */\n      add\n        /* \"#utility.yul\":16058:16077   */\n      swap1\n      pop\n        /* \"#utility.yul\":15717:16083   */\n      swap2\n      swap1\n      pop\n      jump\t// out\n        /* \"#utility.yul\":16089:16508   */\n    tag_65:\n        /* \"#utility.yul\":16255:16259   */\n      0x00\n        /* \"#utility.yul\":16293:16295   */\n      0x20\n        /* \"#utility.yul\":16282:16291   */\n      dup3\n        /* \"#utility.yul\":16278:16296   */\n      add\n        /* \"#utility.yul\":16270:16296   */\n      swap1\n      pop\n        /* \"#utility.yul\":16342:16351   */\n      dup2\n        /* \"#utility.yul\":16336:16340   */\n      dup2\n        /* \"#utility.yul\":16332:16352   */\n      sub\n        /* \"#utility.yul\":16328:16329   */\n      0x00\n        /* \"#utility.yul\":16317:16326   */\n      dup4\n        /* \"#utility.yul\":16313:16330   */\n      add\n        /* \"#utility.yul\":16306:16353   */\n      mstore\n        /* \"#utility.yul\":16370:16501   */\n      tag_304\n        /* \"#utility.yul\":16496:16500   */\n      dup2\n        /* \"#utility.yul\":16370:16501   */\n      tag_127\n      jump\t// in\n    tag_304:\n        /* \"#utility.yul\":16362:16501   */\n      swap1\n      pop\n        /* \"#utility.yul\":16089:16508   */\n      swap2\n      swap1\n      pop\n      jump\t// out\n        /* \"#utility.yul\":16514:16688   */\n    tag_128:\n        /* \"#utility.yul\":16654:16680   */\n      0x47616d6520697320616c726561647920696e6163746976650000000000000000\n        /* \"#utility.yul\":16650:16651   */\n      0x00\n        /* \"#utility.yul\":16642:16648   */\n      dup3\n        /* \"#utility.yul\":16638:16652   */\n      add\n        /* \"#utility.yul\":16631:16681   */\n      mstore\n        /* \"#utility.yul\":16514:16688   */\n      pop\n      jump\t// out\n        /* \"#utility.yul\":16694:17060   */\n    tag_129:\n        /* \"#utility.yul\":16836:16839   */\n      0x00\n        /* \"#utility.yul\":16857:16924   */\n      tag_307\n        /* \"#utility.yul\":16921:16923   */\n      0x18\n        /* \"#utility.yul\":16916:16919   */\n      dup4\n        /* \"#utility.yul\":16857:16924   */\n      tag_91\n      jump\t// in\n    tag_307:\n        /* \"#utility.yul\":16850:16924   */\n      swap2\n      pop\n        /* \"#utility.yul\":16933:17026   */\n      tag_308\n        /* \"#utility.yul\":17022:17025   */\n      dup3\n        /* \"#utility.yul\":16933:17026   */\n      tag_128\n      jump\t// in\n    tag_308:\n        /* \"#utility.yul\":17051:17053   */\n      0x20\n        /* \"#utility.yul\":17046:17049   */\n      dup3\n        /* \"#utility.yul\":17042:17054   */\n      add\n        /* \"#utility.yul\":17035:17054   */\n      swap1\n      pop\n        /* \"#utility.yul\":16694:17060   */\n      swap2\n      swap1\n      pop\n      jump\t// out\n        /* \"#utility.yul\":17066:17485   */\n    tag_68:\n        /* \"#utility.yul\":17232:17236   */\n      0x00\n        /* \"#utility.yul\":17270:17272   */\n      0x20\n        /* \"#utility.yul\":17259:17268   */\n      dup3\n        /* \"#utility.yul\":17255:17273   */\n      add\n        /* \"#utility.yul\":17247:17273   */\n      swap1\n      pop\n        /* \"#utility.yul\":17319:17328   */\n      dup2\n        /* \"#utility.yul\":17313:17317   */\n      dup2\n        /* \"#utility.yul\":17309:17329   */\n      sub\n        /* \"#utility.yul\":17305:17306   */\n      0x00\n        /* \"#utility.yul\":17294:17303   */\n      dup4\n        /* \"#utility.yul\":17290:17307   */\n      add\n        /* \"#utility.yul\":17283:17330   */\n      mstore\n        /* \"#utility.yul\":17347:17478   */\n      tag_310\n        /* \"#utility.yul\":17473:17477   */\n      dup2\n        /* \"#utility.yul\":17347:17478   */\n      tag_129\n      jump\t// in\n    tag_310:\n        /* \"#utility.yul\":17339:17478   */\n      swap1\n      pop\n        /* \"#utility.yul\":17066:17485   */\n      swap2\n      swap1\n      pop\n      jump\t// out\n        /* \"#utility.yul\":17491:17660   */\n    tag_130:\n        /* \"#utility.yul\":17631:17652   */\n      0x47616d6520646f6573206e6f7420657869737400000000000000000000000000\n        /* \"#utility.yul\":17627:17628   */\n      0x00\n        /* \"#utility.yul\":17619:17625   */\n      dup3\n        /* \"#utility.yul\":17615:17629   */\n      add\n        /* \"#utility.yul\":17608:17653   */\n      mstore\n        /* \"#utility.yul\":17491:17660   */\n      pop\n      jump\t// out\n        /* \"#utility.yul\":17666:18032   */\n    tag_131:\n        /* \"#utility.yul\":17808:17811   */\n      0x00\n        /* \"#utility.yul\":17829:17896   */\n      tag_313\n        /* \"#utility.yul\":17893:17895   */\n      0x13\n        /* \"#utility.yul\":17888:17891   */\n      dup4\n        /* \"#utility.yul\":17829:17896   */\n      tag_91\n      jump\t// in\n    tag_313:\n        /* \"#utility.yul\":17822:17896   */\n      swap2\n      pop\n        /* \"#utility.yul\":17905:17998   */\n      tag_314\n        /* \"#utility.yul\":17994:17997   */\n      dup3\n        /* \"#utility.yul\":17905:17998   */\n      tag_130\n      jump\t// in\n    tag_314:\n        /* \"#utility.yul\":18023:18025   */\n      0x20\n        /* \"#utility.yul\":18018:18021   */\n      dup3\n        /* \"#utility.yul\":18014:18026   */\n      add\n        /* \"#utility.yul\":18007:18026   */\n      swap1\n      pop\n        /* \"#utility.yul\":17666:18032   */\n      swap2\n      swap1\n      pop\n      jump\t// out\n        /* \"#utility.yul\":18038:18457   */\n    tag_72:\n        /* \"#utility.yul\":18204:18208   */\n      0x00\n        /* \"#utility.yul\":18242:18244   */\n      0x20\n        /* \"#utility.yul\":18231:18240   */\n      dup3\n        /* \"#utility.yul\":18227:18245   */\n      add\n        /* \"#utility.yul\":18219:18245   */\n      swap1\n      pop\n        /* \"#utility.yul\":18291:18300   */\n      dup2\n        /* \"#utility.yul\":18285:18289   */\n      dup2\n        /* \"#utility.yul\":18281:18301   */\n      sub\n        /* \"#utility.yul\":18277:18278   */\n      0x00\n        /* \"#utility.yul\":18266:18275   */\n      dup4\n        /* \"#utility.yul\":18262:18279   */\n      add\n        /* \"#utility.yul\":18255:18302   */\n      mstore\n        /* \"#utility.yul\":18319:18450   */\n      tag_316\n        /* \"#utility.yul\":18445:18449   */\n      dup2\n        /* \"#utility.yul\":18319:18450   */\n      tag_131\n      jump\t// in\n    tag_316:\n        /* \"#utility.yul\":18311:18450   */\n      swap1\n      pop\n        /* \"#utility.yul\":18038:18457   */\n      swap2\n      swap1\n      pop\n      jump\t// out\n        /* \"#utility.yul\":18463:18641   */\n    tag_132:\n        /* \"#utility.yul\":18603:18633   */\n      0x47616d6520616c7265616479206861732074776f20706c617965727300000000\n        /* \"#utility.yul\":18599:18600   */\n      0x00\n        /* \"#utility.yul\":18591:18597   */\n      dup3\n        /* \"#utility.yul\":18587:18601   */\n      add\n        /* \"#utility.yul\":18580:18634   */\n      mstore\n        /* \"#utility.yul\":18463:18641   */\n      pop\n      jump\t// out\n        /* \"#utility.yul\":18647:19013   */\n    tag_133:\n        /* \"#utility.yul\":18789:18792   */\n      0x00\n        /* \"#utility.yul\":18810:18877   */\n      tag_319\n        /* \"#utility.yul\":18874:18876   */\n      0x1c\n        /* \"#utility.yul\":18869:18872   */\n      dup4\n        /* \"#utility.yul\":18810:18877   */\n      tag_91\n      jump\t// in\n    tag_319:\n        /* \"#utility.yul\":18803:18877   */\n      swap2\n      pop\n        /* \"#utility.yul\":18886:18979   */\n      tag_320\n        /* \"#utility.yul\":18975:18978   */\n      dup3\n        /* \"#utility.yul\":18886:18979   */\n      tag_132\n      jump\t// in\n    tag_320:\n        /* \"#utility.yul\":19004:19006   */\n      0x20\n        /* \"#utility.yul\":18999:19002   */\n      dup3\n        /* \"#utility.yul\":18995:19007   */\n      add\n        /* \"#utility.yul\":18988:19007   */\n      swap1\n      pop\n        /* \"#utility.yul\":18647:19013   */\n      swap2\n      swap1\n      pop\n      jump\t// out\n        /* \"#utility.yul\":19019:19438   */\n    tag_75:\n        /* \"#utility.yul\":19185:19189   */\n      0x00\n        /* \"#utility.yul\":19223:19225   */\n      0x20\n        /* \"#utility.yul\":19212:19221   */\n      dup3\n        /* \"#utility.yul\":19208:19226   */\n      add\n        /* \"#utility.yul\":19200:19226   */\n      swap1\n      pop\n        /* \"#utility.yul\":19272:19281   */\n      dup2\n        /* \"#utility.yul\":19266:19270   */\n      dup2\n        /* \"#utility.yul\":19262:19282   */\n      sub\n        /* \"#utility.yul\":19258:19259   */\n      0x00\n        /* \"#utility.yul\":19247:19256   */\n      dup4\n        /* \"#utility.yul\":19243:19260   */\n      add\n        /* \"#utility.yul\":19236:19283   */\n      mstore\n        /* \"#utility.yul\":19300:19431   */\n      tag_322\n        /* \"#utility.yul\":19426:19430   */\n      dup2\n        /* \"#utility.yul\":19300:19431   */\n      tag_133\n      jump\t// in\n    tag_322:\n        /* \"#utility.yul\":19292:19431   */\n      swap1\n      pop\n        /* \"#utility.yul\":19019:19438   */\n      swap2\n      swap1\n      pop\n      jump\t// out\n        /* \"#utility.yul\":19444:19619   */\n    tag_134:\n        /* \"#utility.yul\":19584:19611   */\n      0x43616e6e6f74206a6f696e20796f7572206f776e2067616d6500000000000000\n        /* \"#utility.yul\":19580:19581   */\n      0x00\n        /* \"#utility.yul\":19572:19578   */\n      dup3\n        /* \"#utility.yul\":19568:19582   */\n      add\n        /* \"#utility.yul\":19561:19612   */\n      mstore\n        /* \"#utility.yul\":19444:19619   */\n      pop\n      jump\t// out\n        /* \"#utility.yul\":19625:19991   */\n    tag_135:\n        /* \"#utility.yul\":19767:19770   */\n      0x00\n        /* \"#utility.yul\":19788:19855   */\n      tag_325\n        /* \"#utility.yul\":19852:19854   */\n      0x19\n        /* \"#utility.yul\":19847:19850   */\n      dup4\n        /* \"#utility.yul\":19788:19855   */\n      tag_91\n      jump\t// in\n    tag_325:\n        /* \"#utility.yul\":19781:19855   */\n      swap2\n      pop\n        /* \"#utility.yul\":19864:19957   */\n      tag_326\n        /* \"#utility.yul\":19953:19956   */\n      dup3\n        /* \"#utility.yul\":19864:19957   */\n      tag_134\n      jump\t// in\n    tag_326:\n        /* \"#utility.yul\":19982:19984   */\n      0x20\n        /* \"#utility.yul\":19977:19980   */\n      dup3\n        /* \"#utility.yul\":19973:19985   */\n      add\n        /* \"#utility.yul\":19966:19985   */\n      swap1\n      pop\n        /* \"#utility.yul\":19625:19991   */\n      swap2\n      swap1\n      pop\n      jump\t// out\n        /* \"#utility.yul\":19997:20416   */\n    tag_78:\n        /* \"#utility.yul\":20163:20167   */\n      0x00\n        /* \"#utility.yul\":20201:20203   */\n      0x20\n        /* \"#utility.yul\":20190:20199   */\n      dup3\n        /* \"#utility.yul\":20186:20204   */\n      add\n        /* \"#utility.yul\":20178:20204   */\n      swap1\n      pop\n        /* \"#utility.yul\":20250:20259   */\n      dup2\n        /* \"#utility.yul\":20244:20248   */\n      dup2\n        /* \"#utility.yul\":20240:20260   */\n      sub\n        /* \"#utility.yul\":20236:20237   */\n      0x00\n        /* \"#utility.yul\":20225:20234   */\n      dup4\n        /* \"#utility.yul\":20221:20238   */\n      add\n        /* \"#utility.yul\":20214:20261   */\n      mstore\n        /* \"#utility.yul\":20278:20409   */\n      tag_328\n        /* \"#utility.yul\":20404:20408   */\n      dup2\n        /* \"#utility.yul\":20278:20409   */\n      tag_135\n      jump\t// in\n    tag_328:\n        /* \"#utility.yul\":20270:20409   */\n      swap1\n      pop\n        /* \"#utility.yul\":19997:20416   */\n      swap2\n      swap1\n      pop\n      jump\t// out\n\n    auxdata: 0xa2646970667358221220d7071c017f32622f66512e3c9c4361f8bedca2aa33f9779eac3493cac33dd78a64736f6c634300081a0033\n}\n",
				"bytecode": {
					"linkReferences": {},
					"object": "6080604052348015600e575f80fd5b506113e18061001c5f395ff3fe608060405234801561000f575f80fd5b5060043610610060575f3560e01c8063117a5b90146100645780631bb412d6146100985780637255d729146100b65780637d20e927146100d4578063d0399bb8146100f0578063efaa55a01461010c575b5f80fd5b61007e600480360381019061007991906109c1565b610128565b60405161008f959493929190610ac4565b60405180910390f35b6100a0610229565b6040516100ad9190610b1c565b60405180910390f35b6100be61022f565b6040516100cb9190610b1c565b60405180910390f35b6100ee60048036038101906100e99190610b96565b6103f4565b005b61010a600480360381019061010591906109c1565b6105d8565b005b610126600480360381019061012191906109c1565b610743565b005b5f602052805f5260405f205f91509050805f015f9054906101000a900473ffffffffffffffffffffffffffffffffffffffff1690806001015f9054906101000a900473ffffffffffffffffffffffffffffffffffffffff169080600201549080600301805461019690610c20565b80601f01602080910402602001604051908101604052809291908181526020018280546101c290610c20565b801561020d5780601f106101e45761010080835404028352916020019161020d565b820191905f5260205f20905b8154815290600101906020018083116101f057829003601f168201915b505050505090806004015f9054906101000a900460ff16905085565b60015481565b5f60015f81548092919061024290610c7d565b91905055506040518060a001604052803373ffffffffffffffffffffffffffffffffffffffff1681526020015f73ffffffffffffffffffffffffffffffffffffffff168152602001600181526020016040518060400160405280600581526020017f73746172740000000000000000000000000000000000000000000000000000008152508152602001600115158152505f8060015481526020019081526020015f205f820151815f015f6101000a81548173ffffffffffffffffffffffffffffffffffffffff021916908373ffffffffffffffffffffffffffffffffffffffff1602179055506020820151816001015f6101000a81548173ffffffffffffffffffffffffffffffffffffffff021916908373ffffffffffffffffffffffffffffffffffffffff16021790555060408201518160020155606082015181600301908161038e9190610e8e565b506080820151816004015f6101000a81548160ff0219169083151502179055509050507fc3e0f84839dc888c892a013d10c8f9d6dc05a21a879d0ce468ca558013e9121c600154336040516103e4929190610f5d565b60405180910390a1600154905090565b5f805f8581526020019081526020015f209050806004015f9054906101000a900460ff16610457576040517f08c379a000000000000000000000000000000000000000000000000000000000815260040161044e90610fce565b60405180910390fd5b600181600201541480156104b85750805f015f9054906101000a900473ffffffffffffffffffffffffffffffffffffffff1673ffffffffffffffffffffffffffffffffffffffff163373ffffffffffffffffffffffffffffffffffffffff16145b806105215750600281600201541480156105205750806001015f9054906101000a900473ffffffffffffffffffffffffffffffffffffffff1673ffffffffffffffffffffffffffffffffffffffff163373ffffffffffffffffffffffffffffffffffffffff16145b5b610560576040517f08c379a000000000000000000000000000000000000000000000000000000000815260040161055790611036565b60405180910390fd5b828282600301918261057392919061105e565b50600181600201541461058757600161058a565b60025b60ff1681600201819055507f09e4ecbf5be56c714788f702bdb4e8b59df60ed6b1080faf97ce55eaae740dcb843385856040516105ca9493929190611165565b60405180910390a150505050565b5f805f8381526020019081526020015f209050805f015f9054906101000a900473ffffffffffffffffffffffffffffffffffffffff1673ffffffffffffffffffffffffffffffffffffffff163373ffffffffffffffffffffffffffffffffffffffff1614806106955750806001015f9054906101000a900473ffffffffffffffffffffffffffffffffffffffff1673ffffffffffffffffffffffffffffffffffffffff163373ffffffffffffffffffffffffffffffffffffffff16145b6106d4576040517f08c379a00000000000000000000000000000000000000000000000000000000081526004016106cb906111ed565b60405180910390fd5b806004015f9054906101000a900460ff16610724576040517f08c379a000000000000000000000000000000000000000000000000000000000815260040161071b90611255565b60405180910390fd5b5f816004015f6101000a81548160ff0219169083151502179055505050565b5f805f8381526020019081526020015f2090505f73ffffffffffffffffffffffffffffffffffffffff16815f015f9054906101000a900473ffffffffffffffffffffffffffffffffffffffff1673ffffffffffffffffffffffffffffffffffffffff16036107e6576040517f08c379a00000000000000000000000000000000000000000000000000000000081526004016107dd906112bd565b60405180910390fd5b5f73ffffffffffffffffffffffffffffffffffffffff16816001015f9054906101000a900473ffffffffffffffffffffffffffffffffffffffff1673ffffffffffffffffffffffffffffffffffffffff1614610877576040517f08c379a000000000000000000000000000000000000000000000000000000000815260040161086e90611325565b60405180910390fd5b3373ffffffffffffffffffffffffffffffffffffffff16815f015f9054906101000a900473ffffffffffffffffffffffffffffffffffffffff1673ffffffffffffffffffffffffffffffffffffffff1603610907576040517f08c379a00000000000000000000000000000000000000000000000000000000081526004016108fe9061138d565b60405180910390fd5b33816001015f6101000a81548173ffffffffffffffffffffffffffffffffffffffff021916908373ffffffffffffffffffffffffffffffffffffffff1602179055507f87969bc7faf902221a147b95ceba76e011c5efb0339a0a8ee7a2bb82d9cfbbd6823360405161097a929190610f5d565b60405180910390a15050565b5f80fd5b5f80fd5b5f819050919050565b6109a08161098e565b81146109aa575f80fd5b50565b5f813590506109bb81610997565b92915050565b5f602082840312156109d6576109d5610986565b5b5f6109e3848285016109ad565b91505092915050565b5f73ffffffffffffffffffffffffffffffffffffffff82169050919050565b5f610a15826109ec565b9050919050565b610a2581610a0b565b82525050565b610a348161098e565b82525050565b5f81519050919050565b5f82825260208201905092915050565b8281835e5f83830152505050565b5f601f19601f8301169050919050565b5f610a7c82610a3a565b610a868185610a44565b9350610a96818560208601610a54565b610a9f81610a62565b840191505092915050565b5f8115159050919050565b610abe81610aaa565b82525050565b5f60a082019050610ad75f830188610a1c565b610ae46020830187610a1c565b610af16040830186610a2b565b8181036060830152610b038185610a72565b9050610b126080830184610ab5565b9695505050505050565b5f602082019050610b2f5f830184610a2b565b92915050565b5f80fd5b5f80fd5b5f80fd5b5f8083601f840112610b5657610b55610b35565b5b8235905067ffffffffffffffff811115610b7357610b72610b39565b5b602083019150836001820283011115610b8f57610b8e610b3d565b5b9250929050565b5f805f60408486031215610bad57610bac610986565b5b5f610bba868287016109ad565b935050602084013567ffffffffffffffff811115610bdb57610bda61098a565b5b610be786828701610b41565b92509250509250925092565b7f4e487b71000000000000000000000000000000000000000000000000000000005f52602260045260245ffd5b5f6002820490506001821680610c3757607f821691505b602082108103610c4a57610c49610bf3565b5b50919050565b7f4e487b71000000000000000000000000000000000000000000000000000000005f52601160045260245ffd5b5f610c878261098e565b91507fffffffffffffffffffffffffffffffffffffffffffffffffffffffffffffffff8203610cb957610cb8610c50565b5b600182019050919050565b7f4e487b71000000000000000000000000000000000000000000000000000000005f52604160045260245ffd5b5f819050815f5260205f209050919050565b5f6020601f8301049050919050565b5f82821b905092915050565b5f60088302610d4d7fffffffffffffffffffffffffffffffffffffffffffffffffffffffffffffffff82610d12565b610d578683610d12565b95508019841693508086168417925050509392505050565b5f819050919050565b5f610d92610d8d610d888461098e565b610d6f565b61098e565b9050919050565b5f819050919050565b610dab83610d78565b610dbf610db782610d99565b848454610d1e565b825550505050565b5f90565b610dd3610dc7565b610dde818484610da2565b505050565b5b81811015610e0157610df65f82610dcb565b600181019050610de4565b5050565b601f821115610e4657610e1781610cf1565b610e2084610d03565b81016020851015610e2f578190505b610e43610e3b85610d03565b830182610de3565b50505b505050565b5f82821c905092915050565b5f610e665f1984600802610e4b565b1980831691505092915050565b5f610e7e8383610e57565b9150826002028217905092915050565b610e9782610a3a565b67ffffffffffffffff811115610eb057610eaf610cc4565b5b610eba8254610c20565b610ec5828285610e05565b5f60209050601f831160018114610ef6575f8415610ee4578287015190505b610eee8582610e73565b865550610f55565b601f198416610f0486610cf1565b5f5b82811015610f2b57848901518255600182019150602085019450602081019050610f06565b86831015610f485784890151610f44601f891682610e57565b8355505b6001600288020188555050505b505050505050565b5f604082019050610f705f830185610a2b565b610f7d6020830184610a1c565b9392505050565b7f47616d65206973206e6f742061637469766500000000000000000000000000005f82015250565b5f610fb8601283610a44565b9150610fc382610f84565b602082019050919050565b5f6020820190508181035f830152610fe581610fac565b9050919050565b7f4e6f7420796f7572207475726e000000000000000000000000000000000000005f82015250565b5f611020600d83610a44565b915061102b82610fec565b602082019050919050565b5f6020820190508181035f83015261104d81611014565b9050919050565b5f82905092915050565b6110688383611054565b67ffffffffffffffff81111561108157611080610cc4565b5b61108b8254610c20565b611096828285610e05565b5f601f8311600181146110c3575f84156110b1578287013590505b6110bb8582610e73565b865550611122565b601f1984166110d186610cf1565b5f5b828110156110f8578489013582556001820191506020850194506020810190506110d3565b868310156111155784890135611111601f891682610e57565b8355505b6001600288020188555050505b50505050505050565b828183375f83830152505050565b5f6111448385610a44565b935061115183858461112b565b61115a83610a62565b840190509392505050565b5f6060820190506111785f830187610a2b565b6111856020830186610a1c565b8181036040830152611198818486611139565b905095945050505050565b7f4e6f742061207061727469636970616e740000000000000000000000000000005f82015250565b5f6111d7601183610a44565b91506111e2826111a3565b602082019050919050565b5f6020820190508181035f830152611204816111cb565b9050919050565b7f47616d6520697320616c726561647920696e61637469766500000000000000005f82015250565b5f61123f601883610a44565b915061124a8261120b565b602082019050919050565b5f6020820190508181035f83015261126c81611233565b9050919050565b7f47616d6520646f6573206e6f74206578697374000000000000000000000000005f82015250565b5f6112a7601383610a44565b91506112b282611273565b602082019050919050565b5f6020820190508181035f8301526112d48161129b565b9050919050565b7f47616d6520616c7265616479206861732074776f20706c6179657273000000005f82015250565b5f61130f601c83610a44565b915061131a826112db565b602082019050919050565b5f6020820190508181035f83015261133c81611303565b9050919050565b7f43616e6e6f74206a6f696e20796f7572206f776e2067616d65000000000000005f82015250565b5f611377601983610a44565b915061138282611343565b602082019050919050565b5f6020820190508181035f8301526113a48161136b565b905091905056fea2646970667358221220d7071c017f32622f66512e3c9c4361f8bedca2aa33f9779eac3493cac33dd78a64736f6c634300081a0033",
					"opcodes": "PUSH1 0x80 PUSH1 0x40 MSTORE CALLVALUE DUP1 ISZERO PUSH1 0xE JUMPI PUSH0 DUP1 REVERT JUMPDEST POP PUSH2 0x13E1 DUP1 PUSH2 0x1C PUSH0 CODECOPY PUSH0 RETURN INVALID PUSH1 0x80 PUSH1 0x40 MSTORE CALLVALUE DUP1 ISZERO PUSH2 0xF JUMPI PUSH0 DUP1 REVERT JUMPDEST POP PUSH1 0x4 CALLDATASIZE LT PUSH2 0x60 JUMPI PUSH0 CALLDATALOAD PUSH1 0xE0 SHR DUP1 PUSH4 0x117A5B90 EQ PUSH2 0x64 JUMPI DUP1 PUSH4 0x1BB412D6 EQ PUSH2 0x98 JUMPI DUP1 PUSH4 0x7255D729 EQ PUSH2 0xB6 JUMPI DUP1 PUSH4 0x7D20E927 EQ PUSH2 0xD4 JUMPI DUP1 PUSH4 0xD0399BB8 EQ PUSH2 0xF0 JUMPI DUP1 PUSH4 0xEFAA55A0 EQ PUSH2 0x10C JUMPI JUMPDEST PUSH0 DUP1 REVERT JUMPDEST PUSH2 0x7E PUSH1 0x4 DUP1 CALLDATASIZE SUB DUP2 ADD SWAP1 PUSH2 0x79 SWAP2 SWAP1 PUSH2 0x9C1 JUMP JUMPDEST PUSH2 0x128 JUMP JUMPDEST PUSH1 0x40 MLOAD PUSH2 0x8F SWAP6 SWAP5 SWAP4 SWAP3 SWAP2 SWAP1 PUSH2 0xAC4 JUMP JUMPDEST PUSH1 0x40 MLOAD DUP1 SWAP2 SUB SWAP1 RETURN JUMPDEST PUSH2 0xA0 PUSH2 0x229 JUMP JUMPDEST PUSH1 0x40 MLOAD PUSH2 0xAD SWAP2 SWAP1 PUSH2 0xB1C JUMP JUMPDEST PUSH1 0x40 MLOAD DUP1 SWAP2 SUB SWAP1 RETURN JUMPDEST PUSH2 0xBE PUSH2 0x22F JUMP JUMPDEST PUSH1 0x40 MLOAD PUSH2 0xCB SWAP2 SWAP1 PUSH2 0xB1C JUMP JUMPDEST PUSH1 0x40 MLOAD DUP1 SWAP2 SUB SWAP1 RETURN JUMPDEST PUSH2 0xEE PUSH1 0x4 DUP1 CALLDATASIZE SUB DUP2 ADD SWAP1 PUSH2 0xE9 SWAP2 SWAP1 PUSH2 0xB96 JUMP JUMPDEST PUSH2 0x3F4 JUMP JUMPDEST STOP JUMPDEST PUSH2 0x10A PUSH1 0x4 DUP1 CALLDATASIZE SUB DUP2 ADD SWAP1 PUSH2 0x105 SWAP2 SWAP1 PUSH2 0x9C1 JUMP JUMPDEST PUSH2 0x5D8 JUMP JUMPDEST STOP JUMPDEST PUSH2 0x126 PUSH1 0x4 DUP1 CALLDATASIZE SUB DUP2 ADD SWAP1 PUSH2 0x121 SWAP2 SWAP1 PUSH2 0x9C1 JUMP JUMPDEST PUSH2 0x743 JUMP JUMPDEST STOP JUMPDEST PUSH0 PUSH1 0x20 MSTORE DUP1 PUSH0 MSTORE PUSH1 0x40 PUSH0 KECCAK256 PUSH0 SWAP2 POP SWAP1 POP DUP1 PUSH0 ADD PUSH0 SWAP1 SLOAD SWAP1 PUSH2 0x100 EXP SWAP1 DIV PUSH20 0xFFFFFFFFFFFFFFFFFFFFFFFFFFFFFFFFFFFFFFFF AND SWAP1 DUP1 PUSH1 0x1 ADD PUSH0 SWAP1 SLOAD SWAP1 PUSH2 0x100 EXP SWAP1 DIV PUSH20 0xFFFFFFFFFFFFFFFFFFFFFFFFFFFFFFFFFFFFFFFF AND SWAP1 DUP1 PUSH1 0x2 ADD SLOAD SWAP1 DUP1 PUSH1 0x3 ADD DUP1 SLOAD PUSH2 0x196 SWAP1 PUSH2 0xC20 JUMP JUMPDEST DUP1 PUSH1 0x1F ADD PUSH1 0x20 DUP1 SWAP2 DIV MUL PUSH1 0x20 ADD PUSH1 0x40 MLOAD SWAP1 DUP2 ADD PUSH1 0x40 MSTORE DUP1 SWAP3 SWAP2 SWAP1 DUP2 DUP2 MSTORE PUSH1 0x20 ADD DUP3 DUP1 SLOAD PUSH2 0x1C2 SWAP1 PUSH2 0xC20 JUMP JUMPDEST DUP1 ISZERO PUSH2 0x20D JUMPI DUP1 PUSH1 0x1F LT PUSH2 0x1E4 JUMPI PUSH2 0x100 DUP1 DUP4 SLOAD DIV MUL DUP4 MSTORE SWAP2 PUSH1 0x20 ADD SWAP2 PUSH2 0x20D JUMP JUMPDEST DUP3 ADD SWAP2 SWAP1 PUSH0 MSTORE PUSH1 0x20 PUSH0 KECCAK256 SWAP1 JUMPDEST DUP2 SLOAD DUP2 MSTORE SWAP1 PUSH1 0x1 ADD SWAP1 PUSH1 0x20 ADD DUP1 DUP4 GT PUSH2 0x1F0 JUMPI DUP3 SWAP1 SUB PUSH1 0x1F AND DUP3 ADD SWAP2 JUMPDEST POP POP POP POP POP SWAP1 DUP1 PUSH1 0x4 ADD PUSH0 SWAP1 SLOAD SWAP1 PUSH2 0x100 EXP SWAP1 DIV PUSH1 0xFF AND SWAP1 POP DUP6 JUMP JUMPDEST PUSH1 0x1 SLOAD DUP2 JUMP JUMPDEST PUSH0 PUSH1 0x1 PUSH0 DUP2 SLOAD DUP1 SWAP3 SWAP2 SWAP1 PUSH2 0x242 SWAP1 PUSH2 0xC7D JUMP JUMPDEST SWAP2 SWAP1 POP SSTORE POP PUSH1 0x40 MLOAD DUP1 PUSH1 0xA0 ADD PUSH1 0x40 MSTORE DUP1 CALLER PUSH20 0xFFFFFFFFFFFFFFFFFFFFFFFFFFFFFFFFFFFFFFFF AND DUP2 MSTORE PUSH1 0x20 ADD PUSH0 PUSH20 0xFFFFFFFFFFFFFFFFFFFFFFFFFFFFFFFFFFFFFFFF AND DUP2 MSTORE PUSH1 0x20 ADD PUSH1 0x1 DUP2 MSTORE PUSH1 0x20 ADD PUSH1 0x40 MLOAD DUP1 PUSH1 0x40 ADD PUSH1 0x40 MSTORE DUP1 PUSH1 0x5 DUP2 MSTORE PUSH1 0x20 ADD PUSH32 0x7374617274000000000000000000000000000000000000000000000000000000 DUP2 MSTORE POP DUP2 MSTORE PUSH1 0x20 ADD PUSH1 0x1 ISZERO ISZERO DUP2 MSTORE POP PUSH0 DUP1 PUSH1 0x1 SLOAD DUP2 MSTORE PUSH1 0x20 ADD SWAP1 DUP2 MSTORE PUSH1 0x20 ADD PUSH0 KECCAK256 PUSH0 DUP3 ADD MLOAD DUP2 PUSH0 ADD PUSH0 PUSH2 0x100 EXP DUP2 SLOAD DUP2 PUSH20 0xFFFFFFFFFFFFFFFFFFFFFFFFFFFFFFFFFFFFFFFF MUL NOT AND SWAP1 DUP4 PUSH20 0xFFFFFFFFFFFFFFFFFFFFFFFFFFFFFFFFFFFFFFFF AND MUL OR SWAP1 SSTORE POP PUSH1 0x20 DUP3 ADD MLOAD DUP2 PUSH1 0x1 ADD PUSH0 PUSH2 0x100 EXP DUP2 SLOAD DUP2 PUSH20 0xFFFFFFFFFFFFFFFFFFFFFFFFFFFFFFFFFFFFFFFF MUL NOT AND SWAP1 DUP4 PUSH20 0xFFFFFFFFFFFFFFFFFFFFFFFFFFFFFFFFFFFFFFFF AND MUL OR SWAP1 SSTORE POP PUSH1 0x40 DUP3 ADD MLOAD DUP2 PUSH1 0x2 ADD SSTORE PUSH1 0x60 DUP3 ADD MLOAD DUP2 PUSH1 0x3 ADD SWAP1 DUP2 PUSH2 0x38E SWAP2 SWAP1 PUSH2 0xE8E JUMP JUMPDEST POP PUSH1 0x80 DUP3 ADD MLOAD DUP2 PUSH1 0x4 ADD PUSH0 PUSH2 0x100 EXP DUP2 SLOAD DUP2 PUSH1 0xFF MUL NOT AND SWAP1 DUP4 ISZERO ISZERO MUL OR SWAP1 SSTORE POP SWAP1 POP POP PUSH32 0xC3E0F84839DC888C892A013D10C8F9D6DC05A21A879D0CE468CA558013E9121C PUSH1 0x1 SLOAD CALLER PUSH1 0x40 MLOAD PUSH2 0x3E4 SWAP3 SWAP2 SWAP1 PUSH2 0xF5D JUMP JUMPDEST PUSH1 0x40 MLOAD DUP1 SWAP2 SUB SWAP1 LOG1 PUSH1 0x1 SLOAD SWAP1 POP SWAP1 JUMP JUMPDEST PUSH0 DUP1 PUSH0 DUP6 DUP2 MSTORE PUSH1 0x20 ADD SWAP1 DUP2 MSTORE PUSH1 0x20 ADD PUSH0 KECCAK256 SWAP1 POP DUP1 PUSH1 0x4 ADD PUSH0 SWAP1 SLOAD SWAP1 PUSH2 0x100 EXP SWAP1 DIV PUSH1 0xFF AND PUSH2 0x457 JUMPI PUSH1 0x40 MLOAD PUSH32 0x8C379A000000000000000000000000000000000000000000000000000000000 DUP2 MSTORE PUSH1 0x4 ADD PUSH2 0x44E SWAP1 PUSH2 0xFCE JUMP JUMPDEST PUSH1 0x40 MLOAD DUP1 SWAP2 SUB SWAP1 REVERT JUMPDEST PUSH1 0x1 DUP2 PUSH1 0x2 ADD SLOAD EQ DUP1 ISZERO PUSH2 0x4B8 JUMPI POP DUP1 PUSH0 ADD PUSH0 SWAP1 SLOAD SWAP1 PUSH2 0x100 EXP SWAP1 DIV PUSH20 0xFFFFFFFFFFFFFFFFFFFFFFFFFFFFFFFFFFFFFFFF AND PUSH20 0xFFFFFFFFFFFFFFFFFFFFFFFFFFFFFFFFFFFFFFFF AND CALLER PUSH20 0xFFFFFFFFFFFFFFFFFFFFFFFFFFFFFFFFFFFFFFFF AND EQ JUMPDEST DUP1 PUSH2 0x521 JUMPI POP PUSH1 0x2 DUP2 PUSH1 0x2 ADD SLOAD EQ DUP1 ISZERO PUSH2 0x520 JUMPI POP DUP1 PUSH1 0x1 ADD PUSH0 SWAP1 SLOAD SWAP1 PUSH2 0x100 EXP SWAP1 DIV PUSH20 0xFFFFFFFFFFFFFFFFFFFFFFFFFFFFFFFFFFFFFFFF AND PUSH20 0xFFFFFFFFFFFFFFFFFFFFFFFFFFFFFFFFFFFFFFFF AND CALLER PUSH20 0xFFFFFFFFFFFFFFFFFFFFFFFFFFFFFFFFFFFFFFFF AND EQ JUMPDEST JUMPDEST PUSH2 0x560 JUMPI PUSH1 0x40 MLOAD PUSH32 0x8C379A000000000000000000000000000000000000000000000000000000000 DUP2 MSTORE PUSH1 0x4 ADD PUSH2 0x557 SWAP1 PUSH2 0x1036 JUMP JUMPDEST PUSH1 0x40 MLOAD DUP1 SWAP2 SUB SWAP1 REVERT JUMPDEST DUP3 DUP3 DUP3 PUSH1 0x3 ADD SWAP2 DUP3 PUSH2 0x573 SWAP3 SWAP2 SWAP1 PUSH2 0x105E JUMP JUMPDEST POP PUSH1 0x1 DUP2 PUSH1 0x2 ADD SLOAD EQ PUSH2 0x587 JUMPI PUSH1 0x1 PUSH2 0x58A JUMP JUMPDEST PUSH1 0x2 JUMPDEST PUSH1 0xFF AND DUP2 PUSH1 0x2 ADD DUP2 SWAP1 SSTORE POP PUSH32 0x9E4ECBF5BE56C714788F702BDB4E8B59DF60ED6B1080FAF97CE55EAAE740DCB DUP5 CALLER DUP6 DUP6 PUSH1 0x40 MLOAD PUSH2 0x5CA SWAP5 SWAP4 SWAP3 SWAP2 SWAP1 PUSH2 0x1165 JUMP JUMPDEST PUSH1 0x40 MLOAD DUP1 SWAP2 SUB SWAP1 LOG1 POP POP POP POP JUMP JUMPDEST PUSH0 DUP1 PUSH0 DUP4 DUP2 MSTORE PUSH1 0x20 ADD SWAP1 DUP2 MSTORE PUSH1 0x20 ADD PUSH0 KECCAK256 SWAP1 POP DUP1 PUSH0 ADD PUSH0 SWAP1 SLOAD SWAP1 PUSH2 0x100 EXP SWAP1 DIV PUSH20 0xFFFFFFFFFFFFFFFFFFFFFFFFFFFFFFFFFFFFFFFF AND PUSH20 0xFFFFFFFFFFFFFFFFFFFFFFFFFFFFFFFFFFFFFFFF AND CALLER PUSH20 0xFFFFFFFFFFFFFFFFFFFFFFFFFFFFFFFFFFFFFFFF AND EQ DUP1 PUSH2 0x695 JUMPI POP DUP1 PUSH1 0x1 ADD PUSH0 SWAP1 SLOAD SWAP1 PUSH2 0x100 EXP SWAP1 DIV PUSH20 0xFFFFFFFFFFFFFFFFFFFFFFFFFFFFFFFFFFFFFFFF AND PUSH20 0xFFFFFFFFFFFFFFFFFFFFFFFFFFFFFFFFFFFFFFFF AND CALLER PUSH20 0xFFFFFFFFFFFFFFFFFFFFFFFFFFFFFFFFFFFFFFFF AND EQ JUMPDEST PUSH2 0x6D4 JUMPI PUSH1 0x40 MLOAD PUSH32 0x8C379A000000000000000000000000000000000000000000000000000000000 DUP2 MSTORE PUSH1 0x4 ADD PUSH2 0x6CB SWAP1 PUSH2 0x11ED JUMP JUMPDEST PUSH1 0x40 MLOAD DUP1 SWAP2 SUB SWAP1 REVERT JUMPDEST DUP1 PUSH1 0x4 ADD PUSH0 SWAP1 SLOAD SWAP1 PUSH2 0x100 EXP SWAP1 DIV PUSH1 0xFF AND PUSH2 0x724 JUMPI PUSH1 0x40 MLOAD PUSH32 0x8C379A000000000000000000000000000000000000000000000000000000000 DUP2 MSTORE PUSH1 0x4 ADD PUSH2 0x71B SWAP1 PUSH2 0x1255 JUMP JUMPDEST PUSH1 0x40 MLOAD DUP1 SWAP2 SUB SWAP1 REVERT JUMPDEST PUSH0 DUP2 PUSH1 0x4 ADD PUSH0 PUSH2 0x100 EXP DUP2 SLOAD DUP2 PUSH1 0xFF MUL NOT AND SWAP1 DUP4 ISZERO ISZERO MUL OR SWAP1 SSTORE POP POP POP JUMP JUMPDEST PUSH0 DUP1 PUSH0 DUP4 DUP2 MSTORE PUSH1 0x20 ADD SWAP1 DUP2 MSTORE PUSH1 0x20 ADD PUSH0 KECCAK256 SWAP1 POP PUSH0 PUSH20 0xFFFFFFFFFFFFFFFFFFFFFFFFFFFFFFFFFFFFFFFF AND DUP2 PUSH0 ADD PUSH0 SWAP1 SLOAD SWAP1 PUSH2 0x100 EXP SWAP1 DIV PUSH20 0xFFFFFFFFFFFFFFFFFFFFFFFFFFFFFFFFFFFFFFFF AND PUSH20 0xFFFFFFFFFFFFFFFFFFFFFFFFFFFFFFFFFFFFFFFF AND SUB PUSH2 0x7E6 JUMPI PUSH1 0x40 MLOAD PUSH32 0x8C379A000000000000000000000000000000000000000000000000000000000 DUP2 MSTORE PUSH1 0x4 ADD PUSH2 0x7DD SWAP1 PUSH2 0x12BD JUMP JUMPDEST PUSH1 0x40 MLOAD DUP1 SWAP2 SUB SWAP1 REVERT JUMPDEST PUSH0 PUSH20 0xFFFFFFFFFFFFFFFFFFFFFFFFFFFFFFFFFFFFFFFF AND DUP2 PUSH1 0x1 ADD PUSH0 SWAP1 SLOAD SWAP1 PUSH2 0x100 EXP SWAP1 DIV PUSH20 0xFFFFFFFFFFFFFFFFFFFFFFFFFFFFFFFFFFFFFFFF AND PUSH20 0xFFFFFFFFFFFFFFFFFFFFFFFFFFFFFFFFFFFFFFFF AND EQ PUSH2 0x877 JUMPI PUSH1 0x40 MLOAD PUSH32 0x8C379A000000000000000000000000000000000000000000000000000000000 DUP2 MSTORE PUSH1 0x4 ADD PUSH2 0x86E SWAP1 PUSH2 0x1325 JUMP JUMPDEST PUSH1 0x40 MLOAD DUP1 SWAP2 SUB SWAP1 REVERT JUMPDEST CALLER PUSH20 0xFFFFFFFFFFFFFFFFFFFFFFFFFFFFFFFFFFFFFFFF AND DUP2 PUSH0 ADD PUSH0 SWAP1 SLOAD SWAP1 PUSH2 0x100 EXP SWAP1 DIV PUSH20 0xFFFFFFFFFFFFFFFFFFFFFFFFFFFFFFFFFFFFFFFF AND PUSH20 0xFFFFFFFFFFFFFFFFFFFFFFFFFFFFFFFFFFFFFFFF AND SUB PUSH2 0x907 JUMPI PUSH1 0x40 MLOAD PUSH32 0x8C379A000000000000000000000000000000000000000000000000000000000 DUP2 MSTORE PUSH1 0x4 ADD PUSH2 0x8FE SWAP1 PUSH2 0x138D JUMP JUMPDEST PUSH1 0x40 MLOAD DUP1 SWAP2 SUB SWAP1 REVERT JUMPDEST CALLER DUP2 PUSH1 0x1 ADD PUSH0 PUSH2 0x100 EXP DUP2 SLOAD DUP2 PUSH20 0xFFFFFFFFFFFFFFFFFFFFFFFFFFFFFFFFFFFFFFFF MUL NOT AND SWAP1 DUP4 PUSH20 0xFFFFFFFFFFFFFFFFFFFFFFFFFFFFFFFFFFFFFFFF AND MUL OR SWAP1 SSTORE POP PUSH32 0x87969BC7FAF902221A147B95CEBA76E011C5EFB0339A0A8EE7A2BB82D9CFBBD6 DUP3 CALLER PUSH1 0x40 MLOAD PUSH2 0x97A SWAP3 SWAP2 SWAP1 PUSH2 0xF5D JUMP JUMPDEST PUSH1 0x40 MLOAD DUP1 SWAP2 SUB SWAP1 LOG1 POP POP JUMP JUMPDEST PUSH0 DUP1 REVERT JUMPDEST PUSH0 DUP1 REVERT JUMPDEST PUSH0 DUP2 SWAP1 POP SWAP2 SWAP1 POP JUMP JUMPDEST PUSH2 0x9A0 DUP2 PUSH2 0x98E JUMP JUMPDEST DUP2 EQ PUSH2 0x9AA JUMPI PUSH0 DUP1 REVERT JUMPDEST POP JUMP JUMPDEST PUSH0 DUP2 CALLDATALOAD SWAP1 POP PUSH2 0x9BB DUP2 PUSH2 0x997 JUMP JUMPDEST SWAP3 SWAP2 POP POP JUMP JUMPDEST PUSH0 PUSH1 0x20 DUP3 DUP5 SUB SLT ISZERO PUSH2 0x9D6 JUMPI PUSH2 0x9D5 PUSH2 0x986 JUMP JUMPDEST JUMPDEST PUSH0 PUSH2 0x9E3 DUP5 DUP3 DUP6 ADD PUSH2 0x9AD JUMP JUMPDEST SWAP2 POP POP SWAP3 SWAP2 POP POP JUMP JUMPDEST PUSH0 PUSH20 0xFFFFFFFFFFFFFFFFFFFFFFFFFFFFFFFFFFFFFFFF DUP3 AND SWAP1 POP SWAP2 SWAP1 POP JUMP JUMPDEST PUSH0 PUSH2 0xA15 DUP3 PUSH2 0x9EC JUMP JUMPDEST SWAP1 POP SWAP2 SWAP1 POP JUMP JUMPDEST PUSH2 0xA25 DUP2 PUSH2 0xA0B JUMP JUMPDEST DUP3 MSTORE POP POP JUMP JUMPDEST PUSH2 0xA34 DUP2 PUSH2 0x98E JUMP JUMPDEST DUP3 MSTORE POP POP JUMP JUMPDEST PUSH0 DUP2 MLOAD SWAP1 POP SWAP2 SWAP1 POP JUMP JUMPDEST PUSH0 DUP3 DUP3 MSTORE PUSH1 0x20 DUP3 ADD SWAP1 POP SWAP3 SWAP2 POP POP JUMP JUMPDEST DUP3 DUP2 DUP4 MCOPY PUSH0 DUP4 DUP4 ADD MSTORE POP POP POP JUMP JUMPDEST PUSH0 PUSH1 0x1F NOT PUSH1 0x1F DUP4 ADD AND SWAP1 POP SWAP2 SWAP1 POP JUMP JUMPDEST PUSH0 PUSH2 0xA7C DUP3 PUSH2 0xA3A JUMP JUMPDEST PUSH2 0xA86 DUP2 DUP6 PUSH2 0xA44 JUMP JUMPDEST SWAP4 POP PUSH2 0xA96 DUP2 DUP6 PUSH1 0x20 DUP7 ADD PUSH2 0xA54 JUMP JUMPDEST PUSH2 0xA9F DUP2 PUSH2 0xA62 JUMP JUMPDEST DUP5 ADD SWAP2 POP POP SWAP3 SWAP2 POP POP JUMP JUMPDEST PUSH0 DUP2 ISZERO ISZERO SWAP1 POP SWAP2 SWAP1 POP JUMP JUMPDEST PUSH2 0xABE DUP2 PUSH2 0xAAA JUMP JUMPDEST DUP3 MSTORE POP POP JUMP JUMPDEST PUSH0 PUSH1 0xA0 DUP3 ADD SWAP1 POP PUSH2 0xAD7 PUSH0 DUP4 ADD DUP9 PUSH2 0xA1C JUMP JUMPDEST PUSH2 0xAE4 PUSH1 0x20 DUP4 ADD DUP8 PUSH2 0xA1C JUMP JUMPDEST PUSH2 0xAF1 PUSH1 0x40 DUP4 ADD DUP7 PUSH2 0xA2B JUMP JUMPDEST DUP2 DUP2 SUB PUSH1 0x60 DUP4 ADD MSTORE PUSH2 0xB03 DUP2 DUP6 PUSH2 0xA72 JUMP JUMPDEST SWAP1 POP PUSH2 0xB12 PUSH1 0x80 DUP4 ADD DUP5 PUSH2 0xAB5 JUMP JUMPDEST SWAP7 SWAP6 POP POP POP POP POP POP JUMP JUMPDEST PUSH0 PUSH1 0x20 DUP3 ADD SWAP1 POP PUSH2 0xB2F PUSH0 DUP4 ADD DUP5 PUSH2 0xA2B JUMP JUMPDEST SWAP3 SWAP2 POP POP JUMP JUMPDEST PUSH0 DUP1 REVERT JUMPDEST PUSH0 DUP1 REVERT JUMPDEST PUSH0 DUP1 REVERT JUMPDEST PUSH0 DUP1 DUP4 PUSH1 0x1F DUP5 ADD SLT PUSH2 0xB56 JUMPI PUSH2 0xB55 PUSH2 0xB35 JUMP JUMPDEST JUMPDEST DUP3 CALLDATALOAD SWAP1 POP PUSH8 0xFFFFFFFFFFFFFFFF DUP2 GT ISZERO PUSH2 0xB73 JUMPI PUSH2 0xB72 PUSH2 0xB39 JUMP JUMPDEST JUMPDEST PUSH1 0x20 DUP4 ADD SWAP2 POP DUP4 PUSH1 0x1 DUP3 MUL DUP4 ADD GT ISZERO PUSH2 0xB8F JUMPI PUSH2 0xB8E PUSH2 0xB3D JUMP JUMPDEST JUMPDEST SWAP3 POP SWAP3 SWAP1 POP JUMP JUMPDEST PUSH0 DUP1 PUSH0 PUSH1 0x40 DUP5 DUP7 SUB SLT ISZERO PUSH2 0xBAD JUMPI PUSH2 0xBAC PUSH2 0x986 JUMP JUMPDEST JUMPDEST PUSH0 PUSH2 0xBBA DUP7 DUP3 DUP8 ADD PUSH2 0x9AD JUMP JUMPDEST SWAP4 POP POP PUSH1 0x20 DUP5 ADD CALLDATALOAD PUSH8 0xFFFFFFFFFFFFFFFF DUP2 GT ISZERO PUSH2 0xBDB JUMPI PUSH2 0xBDA PUSH2 0x98A JUMP JUMPDEST JUMPDEST PUSH2 0xBE7 DUP7 DUP3 DUP8 ADD PUSH2 0xB41 JUMP JUMPDEST SWAP3 POP SWAP3 POP POP SWAP3 POP SWAP3 POP SWAP3 JUMP JUMPDEST PUSH32 0x4E487B7100000000000000000000000000000000000000000000000000000000 PUSH0 MSTORE PUSH1 0x22 PUSH1 0x4 MSTORE PUSH1 0x24 PUSH0 REVERT JUMPDEST PUSH0 PUSH1 0x2 DUP3 DIV SWAP1 POP PUSH1 0x1 DUP3 AND DUP1 PUSH2 0xC37 JUMPI PUSH1 0x7F DUP3 AND SWAP2 POP JUMPDEST PUSH1 0x20 DUP3 LT DUP2 SUB PUSH2 0xC4A JUMPI PUSH2 0xC49 PUSH2 0xBF3 JUMP JUMPDEST JUMPDEST POP SWAP2 SWAP1 POP JUMP JUMPDEST PUSH32 0x4E487B7100000000000000000000000000000000000000000000000000000000 PUSH0 MSTORE PUSH1 0x11 PUSH1 0x4 MSTORE PUSH1 0x24 PUSH0 REVERT JUMPDEST PUSH0 PUSH2 0xC87 DUP3 PUSH2 0x98E JUMP JUMPDEST SWAP2 POP PUSH32 0xFFFFFFFFFFFFFFFFFFFFFFFFFFFFFFFFFFFFFFFFFFFFFFFFFFFFFFFFFFFFFFFF DUP3 SUB PUSH2 0xCB9 JUMPI PUSH2 0xCB8 PUSH2 0xC50 JUMP JUMPDEST JUMPDEST PUSH1 0x1 DUP3 ADD SWAP1 POP SWAP2 SWAP1 POP JUMP JUMPDEST PUSH32 0x4E487B7100000000000000000000000000000000000000000000000000000000 PUSH0 MSTORE PUSH1 0x41 PUSH1 0x4 MSTORE PUSH1 0x24 PUSH0 REVERT JUMPDEST PUSH0 DUP2 SWAP1 POP DUP2 PUSH0 MSTORE PUSH1 0x20 PUSH0 KECCAK256 SWAP1 POP SWAP2 SWAP1 POP JUMP JUMPDEST PUSH0 PUSH1 0x20 PUSH1 0x1F DUP4 ADD DIV SWAP1 POP SWAP2 SWAP1 POP JUMP JUMPDEST PUSH0 DUP3 DUP3 SHL SWAP1 POP SWAP3 SWAP2 POP POP JUMP JUMPDEST PUSH0 PUSH1 0x8 DUP4 MUL PUSH2 0xD4D PUSH32 0xFFFFFFFFFFFFFFFFFFFFFFFFFFFFFFFFFFFFFFFFFFFFFFFFFFFFFFFFFFFFFFFF DUP3 PUSH2 0xD12 JUMP JUMPDEST PUSH2 0xD57 DUP7 DUP4 PUSH2 0xD12 JUMP JUMPDEST SWAP6 POP DUP1 NOT DUP5 AND SWAP4 POP DUP1 DUP7 AND DUP5 OR SWAP3 POP POP POP SWAP4 SWAP3 POP POP POP JUMP JUMPDEST PUSH0 DUP2 SWAP1 POP SWAP2 SWAP1 POP JUMP JUMPDEST PUSH0 PUSH2 0xD92 PUSH2 0xD8D PUSH2 0xD88 DUP5 PUSH2 0x98E JUMP JUMPDEST PUSH2 0xD6F JUMP JUMPDEST PUSH2 0x98E JUMP JUMPDEST SWAP1 POP SWAP2 SWAP1 POP JUMP JUMPDEST PUSH0 DUP2 SWAP1 POP SWAP2 SWAP1 POP JUMP JUMPDEST PUSH2 0xDAB DUP4 PUSH2 0xD78 JUMP JUMPDEST PUSH2 0xDBF PUSH2 0xDB7 DUP3 PUSH2 0xD99 JUMP JUMPDEST DUP5 DUP5 SLOAD PUSH2 0xD1E JUMP JUMPDEST DUP3 SSTORE POP POP POP POP JUMP JUMPDEST PUSH0 SWAP1 JUMP JUMPDEST PUSH2 0xDD3 PUSH2 0xDC7 JUMP JUMPDEST PUSH2 0xDDE DUP2 DUP5 DUP5 PUSH2 0xDA2 JUMP JUMPDEST POP POP POP JUMP JUMPDEST JUMPDEST DUP2 DUP2 LT ISZERO PUSH2 0xE01 JUMPI PUSH2 0xDF6 PUSH0 DUP3 PUSH2 0xDCB JUMP JUMPDEST PUSH1 0x1 DUP2 ADD SWAP1 POP PUSH2 0xDE4 JUMP JUMPDEST POP POP JUMP JUMPDEST PUSH1 0x1F DUP3 GT ISZERO PUSH2 0xE46 JUMPI PUSH2 0xE17 DUP2 PUSH2 0xCF1 JUMP JUMPDEST PUSH2 0xE20 DUP5 PUSH2 0xD03 JUMP JUMPDEST DUP2 ADD PUSH1 0x20 DUP6 LT ISZERO PUSH2 0xE2F JUMPI DUP2 SWAP1 POP JUMPDEST PUSH2 0xE43 PUSH2 0xE3B DUP6 PUSH2 0xD03 JUMP JUMPDEST DUP4 ADD DUP3 PUSH2 0xDE3 JUMP JUMPDEST POP POP JUMPDEST POP POP POP JUMP JUMPDEST PUSH0 DUP3 DUP3 SHR SWAP1 POP SWAP3 SWAP2 POP POP JUMP JUMPDEST PUSH0 PUSH2 0xE66 PUSH0 NOT DUP5 PUSH1 0x8 MUL PUSH2 0xE4B JUMP JUMPDEST NOT DUP1 DUP4 AND SWAP2 POP POP SWAP3 SWAP2 POP POP JUMP JUMPDEST PUSH0 PUSH2 0xE7E DUP4 DUP4 PUSH2 0xE57 JUMP JUMPDEST SWAP2 POP DUP3 PUSH1 0x2 MUL DUP3 OR SWAP1 POP SWAP3 SWAP2 POP POP JUMP JUMPDEST PUSH2 0xE97 DUP3 PUSH2 0xA3A JUMP JUMPDEST PUSH8 0xFFFFFFFFFFFFFFFF DUP2 GT ISZERO PUSH2 0xEB0 JUMPI PUSH2 0xEAF PUSH2 0xCC4 JUMP JUMPDEST JUMPDEST PUSH2 0xEBA DUP3 SLOAD PUSH2 0xC20 JUMP JUMPDEST PUSH2 0xEC5 DUP3 DUP3 DUP6 PUSH2 0xE05 JUMP JUMPDEST PUSH0 PUSH1 0x20 SWAP1 POP PUSH1 0x1F DUP4 GT PUSH1 0x1 DUP2 EQ PUSH2 0xEF6 JUMPI PUSH0 DUP5 ISZERO PUSH2 0xEE4 JUMPI DUP3 DUP8 ADD MLOAD SWAP1 POP JUMPDEST PUSH2 0xEEE DUP6 DUP3 PUSH2 0xE73 JUMP JUMPDEST DUP7 SSTORE POP PUSH2 0xF55 JUMP JUMPDEST PUSH1 0x1F NOT DUP5 AND PUSH2 0xF04 DUP7 PUSH2 0xCF1 JUMP JUMPDEST PUSH0 JUMPDEST DUP3 DUP2 LT ISZERO PUSH2 0xF2B JUMPI DUP5 DUP10 ADD MLOAD DUP3 SSTORE PUSH1 0x1 DUP3 ADD SWAP2 POP PUSH1 0x20 DUP6 ADD SWAP5 POP PUSH1 0x20 DUP2 ADD SWAP1 POP PUSH2 0xF06 JUMP JUMPDEST DUP7 DUP4 LT ISZERO PUSH2 0xF48 JUMPI DUP5 DUP10 ADD MLOAD PUSH2 0xF44 PUSH1 0x1F DUP10 AND DUP3 PUSH2 0xE57 JUMP JUMPDEST DUP4 SSTORE POP JUMPDEST PUSH1 0x1 PUSH1 0x2 DUP9 MUL ADD DUP9 SSTORE POP POP POP JUMPDEST POP POP POP POP POP POP JUMP JUMPDEST PUSH0 PUSH1 0x40 DUP3 ADD SWAP1 POP PUSH2 0xF70 PUSH0 DUP4 ADD DUP6 PUSH2 0xA2B JUMP JUMPDEST PUSH2 0xF7D PUSH1 0x20 DUP4 ADD DUP5 PUSH2 0xA1C JUMP JUMPDEST SWAP4 SWAP3 POP POP POP JUMP JUMPDEST PUSH32 0x47616D65206973206E6F74206163746976650000000000000000000000000000 PUSH0 DUP3 ADD MSTORE POP JUMP JUMPDEST PUSH0 PUSH2 0xFB8 PUSH1 0x12 DUP4 PUSH2 0xA44 JUMP JUMPDEST SWAP2 POP PUSH2 0xFC3 DUP3 PUSH2 0xF84 JUMP JUMPDEST PUSH1 0x20 DUP3 ADD SWAP1 POP SWAP2 SWAP1 POP JUMP JUMPDEST PUSH0 PUSH1 0x20 DUP3 ADD SWAP1 POP DUP2 DUP2 SUB PUSH0 DUP4 ADD MSTORE PUSH2 0xFE5 DUP2 PUSH2 0xFAC JUMP JUMPDEST SWAP1 POP SWAP2 SWAP1 POP JUMP JUMPDEST PUSH32 0x4E6F7420796F7572207475726E00000000000000000000000000000000000000 PUSH0 DUP3 ADD MSTORE POP JUMP JUMPDEST PUSH0 PUSH2 0x1020 PUSH1 0xD DUP4 PUSH2 0xA44 JUMP JUMPDEST SWAP2 POP PUSH2 0x102B DUP3 PUSH2 0xFEC JUMP JUMPDEST PUSH1 0x20 DUP3 ADD SWAP1 POP SWAP2 SWAP1 POP JUMP JUMPDEST PUSH0 PUSH1 0x20 DUP3 ADD SWAP1 POP DUP2 DUP2 SUB PUSH0 DUP4 ADD MSTORE PUSH2 0x104D DUP2 PUSH2 0x1014 JUMP JUMPDEST SWAP1 POP SWAP2 SWAP1 POP JUMP JUMPDEST PUSH0 DUP3 SWAP1 POP SWAP3 SWAP2 POP POP JUMP JUMPDEST PUSH2 0x1068 DUP4 DUP4 PUSH2 0x1054 JUMP JUMPDEST PUSH8 0xFFFFFFFFFFFFFFFF DUP2 GT ISZERO PUSH2 0x1081 JUMPI PUSH2 0x1080 PUSH2 0xCC4 JUMP JUMPDEST JUMPDEST PUSH2 0x108B DUP3 SLOAD PUSH2 0xC20 JUMP JUMPDEST PUSH2 0x1096 DUP3 DUP3 DUP6 PUSH2 0xE05 JUMP JUMPDEST PUSH0 PUSH1 0x1F DUP4 GT PUSH1 0x1 DUP2 EQ PUSH2 0x10C3 JUMPI PUSH0 DUP5 ISZERO PUSH2 0x10B1 JUMPI DUP3 DUP8 ADD CALLDATALOAD SWAP1 POP JUMPDEST PUSH2 0x10BB DUP6 DUP3 PUSH2 0xE73 JUMP JUMPDEST DUP7 SSTORE POP PUSH2 0x1122 JUMP JUMPDEST PUSH1 0x1F NOT DUP5 AND PUSH2 0x10D1 DUP7 PUSH2 0xCF1 JUMP JUMPDEST PUSH0 JUMPDEST DUP3 DUP2 LT ISZERO PUSH2 0x10F8 JUMPI DUP5 DUP10 ADD CALLDATALOAD DUP3 SSTORE PUSH1 0x1 DUP3 ADD SWAP2 POP PUSH1 0x20 DUP6 ADD SWAP5 POP PUSH1 0x20 DUP2 ADD SWAP1 POP PUSH2 0x10D3 JUMP JUMPDEST DUP7 DUP4 LT ISZERO PUSH2 0x1115 JUMPI DUP5 DUP10 ADD CALLDATALOAD PUSH2 0x1111 PUSH1 0x1F DUP10 AND DUP3 PUSH2 0xE57 JUMP JUMPDEST DUP4 SSTORE POP JUMPDEST PUSH1 0x1 PUSH1 0x2 DUP9 MUL ADD DUP9 SSTORE POP POP POP JUMPDEST POP POP POP POP POP POP POP JUMP JUMPDEST DUP3 DUP2 DUP4 CALLDATACOPY PUSH0 DUP4 DUP4 ADD MSTORE POP POP POP JUMP JUMPDEST PUSH0 PUSH2 0x1144 DUP4 DUP6 PUSH2 0xA44 JUMP JUMPDEST SWAP4 POP PUSH2 0x1151 DUP4 DUP6 DUP5 PUSH2 0x112B JUMP JUMPDEST PUSH2 0x115A DUP4 PUSH2 0xA62 JUMP JUMPDEST DUP5 ADD SWAP1 POP SWAP4 SWAP3 POP POP POP JUMP JUMPDEST PUSH0 PUSH1 0x60 DUP3 ADD SWAP1 POP PUSH2 0x1178 PUSH0 DUP4 ADD DUP8 PUSH2 0xA2B JUMP JUMPDEST PUSH2 0x1185 PUSH1 0x20 DUP4 ADD DUP7 PUSH2 0xA1C JUMP JUMPDEST DUP2 DUP2 SUB PUSH1 0x40 DUP4 ADD MSTORE PUSH2 0x1198 DUP2 DUP5 DUP7 PUSH2 0x1139 JUMP JUMPDEST SWAP1 POP SWAP6 SWAP5 POP POP POP POP POP JUMP JUMPDEST PUSH32 0x4E6F742061207061727469636970616E74000000000000000000000000000000 PUSH0 DUP3 ADD MSTORE POP JUMP JUMPDEST PUSH0 PUSH2 0x11D7 PUSH1 0x11 DUP4 PUSH2 0xA44 JUMP JUMPDEST SWAP2 POP PUSH2 0x11E2 DUP3 PUSH2 0x11A3 JUMP JUMPDEST PUSH1 0x20 DUP3 ADD SWAP1 POP SWAP2 SWAP1 POP JUMP JUMPDEST PUSH0 PUSH1 0x20 DUP3 ADD SWAP1 POP DUP2 DUP2 SUB PUSH0 DUP4 ADD MSTORE PUSH2 0x1204 DUP2 PUSH2 0x11CB JUMP JUMPDEST SWAP1 POP SWAP2 SWAP1 POP JUMP JUMPDEST PUSH32 0x47616D6520697320616C726561647920696E6163746976650000000000000000 PUSH0 DUP3 ADD MSTORE POP JUMP JUMPDEST PUSH0 PUSH2 0x123F PUSH1 0x18 DUP4 PUSH2 0xA44 JUMP JUMPDEST SWAP2 POP PUSH2 0x124A DUP3 PUSH2 0x120B JUMP JUMPDEST PUSH1 0x20 DUP3 ADD SWAP1 POP SWAP2 SWAP1 POP JUMP JUMPDEST PUSH0 PUSH1 0x20 DUP3 ADD SWAP1 POP DUP2 DUP2 SUB PUSH0 DUP4 ADD MSTORE PUSH2 0x126C DUP2 PUSH2 0x1233 JUMP JUMPDEST SWAP1 POP SWAP2 SWAP1 POP JUMP JUMPDEST PUSH32 0x47616D6520646F6573206E6F7420657869737400000000000000000000000000 PUSH0 DUP3 ADD MSTORE POP JUMP JUMPDEST PUSH0 PUSH2 0x12A7 PUSH1 0x13 DUP4 PUSH2 0xA44 JUMP JUMPDEST SWAP2 POP PUSH2 0x12B2 DUP3 PUSH2 0x1273 JUMP JUMPDEST PUSH1 0x20 DUP3 ADD SWAP1 POP SWAP2 SWAP1 POP JUMP JUMPDEST PUSH0 PUSH1 0x20 DUP3 ADD SWAP1 POP DUP2 DUP2 SUB PUSH0 DUP4 ADD MSTORE PUSH2 0x12D4 DUP2 PUSH2 0x129B JUMP JUMPDEST SWAP1 POP SWAP2 SWAP1 POP JUMP JUMPDEST PUSH32 0x47616D6520616C7265616479206861732074776F20706C617965727300000000 PUSH0 DUP3 ADD MSTORE POP JUMP JUMPDEST PUSH0 PUSH2 0x130F PUSH1 0x1C DUP4 PUSH2 0xA44 JUMP JUMPDEST SWAP2 POP PUSH2 0x131A DUP3 PUSH2 0x12DB JUMP JUMPDEST PUSH1 0x20 DUP3 ADD SWAP1 POP SWAP2 SWAP1 POP JUMP JUMPDEST PUSH0 PUSH1 0x20 DUP3 ADD SWAP1 POP DUP2 DUP2 SUB PUSH0 DUP4 ADD MSTORE PUSH2 0x133C DUP2 PUSH2 0x1303 JUMP JUMPDEST SWAP1 POP SWAP2 SWAP1 POP JUMP JUMPDEST PUSH32 0x43616E6E6F74206A6F696E20796F7572206F776E2067616D6500000000000000 PUSH0 DUP3 ADD MSTORE POP JUMP JUMPDEST PUSH0 PUSH2 0x1377 PUSH1 0x19 DUP4 PUSH2 0xA44 JUMP JUMPDEST SWAP2 POP PUSH2 0x1382 DUP3 PUSH2 0x1343 JUMP JUMPDEST PUSH1 0x20 DUP3 ADD SWAP1 POP SWAP2 SWAP1 POP JUMP JUMPDEST PUSH0 PUSH1 0x20 DUP3 ADD SWAP1 POP DUP2 DUP2 SUB PUSH0 DUP4 ADD MSTORE PUSH2 0x13A4 DUP2 PUSH2 0x136B JUMP JUMPDEST SWAP1 POP SWAP2 SWAP1 POP JUMP INVALID LOG2 PUSH5 0x6970667358 0x22 SLT KECCAK256 0xD7 SMOD SHR ADD PUSH32 0x32622F66512E3C9C4361F8BEDCA2AA33F9779EAC3493CAC33DD78A64736F6C63 NUMBER STOP ADDMOD BYTE STOP CALLER "
				},
				"gasEstimates": {
					"creation": {
						"codeDepositCost": "1017800",
						"executionCost": "1059",
						"totalCost": "1018859"
					},
					"external": {
						"createGame()": "infinite",
						"endGame(uint256)": "31338",
						"gameIdCounter()": "2425",
						"games(uint256)": "infinite",
						"joinGame(uint256)": "infinite",
						"makeMove(uint256,string)": "infinite"
					}
				},
				"methodIdentifiers": {
					"createGame()": "7255d729",
					"endGame(uint256)": "d0399bb8",
					"gameIdCounter()": "1bb412d6",
					"games(uint256)": "117a5b90",
					"joinGame(uint256)": "efaa55a0",
					"makeMove(uint256,string)": "7d20e927"
				}
			},
			"storageLayout": {
				"storage": [
					{
						"astId": 17,
						"contract": "contracts/Chess.sol:ChessGame",
						"label": "games",
						"offset": 0,
						"slot": "0",
						"type": "t_mapping(t_uint256,t_struct(Game)12_storage)"
					},
					{
						"astId": 19,
						"contract": "contracts/Chess.sol:ChessGame",
						"label": "gameIdCounter",
						"offset": 0,
						"slot": "1",
						"type": "t_uint256"
					}
				],
				"types": {
					"t_address": {
						"encoding": "inplace",
						"label": "address",
						"numberOfBytes": "20"
					},
					"t_bool": {
						"encoding": "inplace",
						"label": "bool",
						"numberOfBytes": "1"
					},
					"t_mapping(t_uint256,t_struct(Game)12_storage)": {
						"encoding": "mapping",
						"key": "t_uint256",
						"label": "mapping(uint256 => struct ChessGame.Game)",
						"numberOfBytes": "32",
						"value": "t_struct(Game)12_storage"
					},
					"t_string_storage": {
						"encoding": "bytes",
						"label": "string",
						"numberOfBytes": "32"
					},
					"t_struct(Game)12_storage": {
						"encoding": "inplace",
						"label": "struct ChessGame.Game",
						"members": [
							{
								"astId": 3,
								"contract": "contracts/Chess.sol:ChessGame",
								"label": "player1",
								"offset": 0,
								"slot": "0",
								"type": "t_address"
							},
							{
								"astId": 5,
								"contract": "contracts/Chess.sol:ChessGame",
								"label": "player2",
								"offset": 0,
								"slot": "1",
								"type": "t_address"
							},
							{
								"astId": 7,
								"contract": "contracts/Chess.sol:ChessGame",
								"label": "turn",
								"offset": 0,
								"slot": "2",
								"type": "t_uint256"
							},
							{
								"astId": 9,
								"contract": "contracts/Chess.sol:ChessGame",
								"label": "boardState",
								"offset": 0,
								"slot": "3",
								"type": "t_string_storage"
							},
							{
								"astId": 11,
								"contract": "contracts/Chess.sol:ChessGame",
								"label": "isActive",
								"offset": 0,
								"slot": "4",
								"type": "t_bool"
							}
						],
						"numberOfBytes": "160"
					},
					"t_uint256": {
						"encoding": "inplace",
						"label": "uint256",
						"numberOfBytes": "32"
					}
				}
			},
			"userdoc": {
				"kind": "user",
				"methods": {
					"createGame()": {
						"notice": "Creates a new chess game with the caller as player1"
					},
					"endGame(uint256)": {
						"notice": "Ends the game, making it inactive"
					},
					"joinGame(uint256)": {
						"notice": "Allows a second player to join an existing game"
					},
					"makeMove(uint256,string)": {
						"notice": "Makes a move in the game and updates the board state"
					}
				},
				"version": 1
			}
		}
	}
}