{
	"data": {
		"bytecode": {
			"linkReferences": {},
			"object": "6080604052348015600e575f80fd5b50335f806101000a81548173ffffffffffffffffffffffffffffffffffffffff021916908373ffffffffffffffffffffffffffffffffffffffff160217905550610bbe8061005b5f395ff3fe60806040526004361061004d575f3560e01c80633ccfd60b14610056578063488559191461006c5780636540742f146100a85780638da5cb5b146100d2578063985d4ac3146100fc57610054565b3661005457005b005b348015610061575f80fd5b5061006a610118565b005b348015610077575f80fd5b50610092600480360381019061008d91906106e8565b61020a565b60405161009f9190610786565b60405180910390f35b3480156100b3575f80fd5b506100bc610227565b6040516100c991906107b7565b60405180910390f35b3480156100dd575f80fd5b506100e6610231565b6040516100f391906107df565b60405180910390f35b6101166004803603810190610111919061081b565b610254565b005b5f8054906101000a900473ffffffffffffffffffffffffffffffffffffffff1673ffffffffffffffffffffffffffffffffffffffff163373ffffffffffffffffffffffffffffffffffffffff16146101a5576040517f08c379a000000000000000000000000000000000000000000000000000000000815260040161019c906108a0565b60405180910390fd5b5f8054906101000a900473ffffffffffffffffffffffffffffffffffffffff1673ffffffffffffffffffffffffffffffffffffffff166108fc4790811502906040515f60405180830381858888f19350505050158015610207573d5f803e3d5ffd5b50565b6001602052805f5260405f205f915054906101000a900460ff1681565b655af3107a400081565b5f8054906101000a900473ffffffffffffffffffffffffffffffffffffffff1681565b655af3107a4000341461029c576040517f08c379a000000000000000000000000000000000000000000000000000000000815260040161029390610908565b60405180910390fd5b8060015f3373ffffffffffffffffffffffffffffffffffffffff1673ffffffffffffffffffffffffffffffffffffffff1681526020019081526020015f205f6101000a81548160ff021916908360028111156102fb576102fa610713565b5b02179055505f610309610634565b905060608160028111156103205761031f610713565b5b83600281111561033357610332610713565b5b036103b9576040518060400160405280600381526020017f546965000000000000000000000000000000000000000000000000000000000081525090503373ffffffffffffffffffffffffffffffffffffffff166108fc3490811502906040515f60405180830381858888f193505050501580156103b3573d5f803e3d5ffd5b506105df565b5f60028111156103cc576103cb610713565b5b8360028111156103df576103de610713565b5b14801561040f57506002808111156103fa576103f9610713565b5b82600281111561040d5761040c610713565b5b145b8061046d57506001600281111561042957610428610713565b5b83600281111561043c5761043b610713565b5b14801561046c57505f600281111561045757610456610713565b5b82600281111561046a57610469610713565b5b145b5b806104cb575060028081111561048657610485610713565b5b83600281111561049957610498610713565b5b1480156104ca5750600160028111156104b5576104b4610713565b5b8260028111156104c8576104c7610713565b5b145b5b156105a5576040518060400160405280600881526020017f596f752077696e2100000000000000000000000000000000000000000000000081525090505f6002346105169190610953565b90508047101561055b576040517f08c379a0000000000000000000000000000000000000000000000000000000008152600401610552906109de565b60405180910390fd5b3373ffffffffffffffffffffffffffffffffffffffff166108fc8290811502906040515f60405180830381858888f1935050505015801561059e573d5f803e3d5ffd5b50506105de565b6040518060400160405280600981526020017f596f75206c6f73652e000000000000000000000000000000000000000000000081525090505b5b3373ffffffffffffffffffffffffffffffffffffffff167f79e3a2f58098f8de6628c96c4444e59e851c17fd85c2139cb27ca031f7246d7a8234604051610627929190610a5c565b60405180910390a2505050565b5f80600342443360405160200161064d93929190610aef565b604051602081830303815290604052805190602001205f1c61066f9190610b58565b905080600281111561068457610683610713565b5b91505090565b5f80fd5b5f73ffffffffffffffffffffffffffffffffffffffff82169050919050565b5f6106b78261068e565b9050919050565b6106c7816106ad565b81146106d1575f80fd5b50565b5f813590506106e2816106be565b92915050565b5f602082840312156106fd576106fc61068a565b5b5f61070a848285016106d4565b91505092915050565b7f4e487b71000000000000000000000000000000000000000000000000000000005f52602160045260245ffd5b6003811061075157610750610713565b5b50565b5f81905061076182610740565b919050565b5f61077082610754565b9050919050565b61078081610766565b82525050565b5f6020820190506107995f830184610777565b92915050565b5f819050919050565b6107b18161079f565b82525050565b5f6020820190506107ca5f8301846107a8565b92915050565b6107d9816106ad565b82525050565b5f6020820190506107f25f8301846107d0565b92915050565b60038110610804575f80fd5b50565b5f81359050610815816107f8565b92915050565b5f602082840312156108305761082f61068a565b5b5f61083d84828501610807565b91505092915050565b5f82825260208201905092915050565b7f4f6e6c7920746865206f776e65722063616e20776974686472617700000000005f82015250565b5f61088a601b83610846565b915061089582610856565b602082019050919050565b5f6020820190508181035f8301526108b78161087e565b9050919050565b7f596f75206d757374206265742065786163746c7920302e303030312074424e425f82015250565b5f6108f2602083610846565b91506108fd826108be565b602082019050919050565b5f6020820190508181035f83015261091f816108e6565b9050919050565b7f4e487b71000000000000000000000000000000000000000000000000000000005f52601160045260245ffd5b5f61095d8261079f565b91506109688361079f565b92508282026109768161079f565b9150828204841483151761098d5761098c610926565b5b5092915050565b7f4e6f7420656e6f7567682062616c616e636520696e20636f6e747261637400005f82015250565b5f6109c8601e83610846565b91506109d382610994565b602082019050919050565b5f6020820190508181035f8301526109f5816109bc565b9050919050565b5f81519050919050565b8281835e5f83830152505050565b5f601f19601f8301169050919050565b5f610a2e826109fc565b610a388185610846565b9350610a48818560208601610a06565b610a5181610a14565b840191505092915050565b5f6040820190508181035f830152610a748185610a24565b9050610a8360208301846107a8565b9392505050565b5f819050919050565b610aa4610a9f8261079f565b610a8a565b82525050565b5f8160601b9050919050565b5f610ac082610aaa565b9050919050565b5f610ad182610ab6565b9050919050565b610ae9610ae4826106ad565b610ac7565b82525050565b5f610afa8286610a93565b602082019150610b0a8285610a93565b602082019150610b1a8284610ad8565b601482019150819050949350505050565b7f4e487b71000000000000000000000000000000000000000000000000000000005f52601260045260245ffd5b5f610b628261079f565b9150610b6d8361079f565b925082610b7d57610b7c610b2b565b5b82820690509291505056fea26469706673582212203e342b7f9d56e22f05012a5ac4c69e34e5574e7c808722b981d43db5ead60a9964736f6c634300081a0033",
			"opcodes": "PUSH1 0x80 PUSH1 0x40 MSTORE CALLVALUE DUP1 ISZERO PUSH1 0xE JUMPI PUSH0 DUP1 REVERT JUMPDEST POP CALLER PUSH0 DUP1 PUSH2 0x100 EXP DUP2 SLOAD DUP2 PUSH20 0xFFFFFFFFFFFFFFFFFFFFFFFFFFFFFFFFFFFFFFFF MUL NOT AND SWAP1 DUP4 PUSH20 0xFFFFFFFFFFFFFFFFFFFFFFFFFFFFFFFFFFFFFFFF AND MUL OR SWAP1 SSTORE POP PUSH2 0xBBE DUP1 PUSH2 0x5B PUSH0 CODECOPY PUSH0 RETURN INVALID PUSH1 0x80 PUSH1 0x40 MSTORE PUSH1 0x4 CALLDATASIZE LT PUSH2 0x4D JUMPI PUSH0 CALLDATALOAD PUSH1 0xE0 SHR DUP1 PUSH4 0x3CCFD60B EQ PUSH2 0x56 JUMPI DUP1 PUSH4 0x48855919 EQ PUSH2 0x6C JUMPI DUP1 PUSH4 0x6540742F EQ PUSH2 0xA8 JUMPI DUP1 PUSH4 0x8DA5CB5B EQ PUSH2 0xD2 JUMPI DUP1 PUSH4 0x985D4AC3 EQ PUSH2 0xFC JUMPI PUSH2 0x54 JUMP JUMPDEST CALLDATASIZE PUSH2 0x54 JUMPI STOP JUMPDEST STOP JUMPDEST CALLVALUE DUP1 ISZERO PUSH2 0x61 JUMPI PUSH0 DUP1 REVERT JUMPDEST POP PUSH2 0x6A PUSH2 0x118 JUMP JUMPDEST STOP JUMPDEST CALLVALUE DUP1 ISZERO PUSH2 0x77 JUMPI PUSH0 DUP1 REVERT JUMPDEST POP PUSH2 0x92 PUSH1 0x4 DUP1 CALLDATASIZE SUB DUP2 ADD SWAP1 PUSH2 0x8D SWAP2 SWAP1 PUSH2 0x6E8 JUMP JUMPDEST PUSH2 0x20A JUMP JUMPDEST PUSH1 0x40 MLOAD PUSH2 0x9F SWAP2 SWAP1 PUSH2 0x786 JUMP JUMPDEST PUSH1 0x40 MLOAD DUP1 SWAP2 SUB SWAP1 RETURN JUMPDEST CALLVALUE DUP1 ISZERO PUSH2 0xB3 JUMPI PUSH0 DUP1 REVERT JUMPDEST POP PUSH2 0xBC PUSH2 0x227 JUMP JUMPDEST PUSH1 0x40 MLOAD PUSH2 0xC9 SWAP2 SWAP1 PUSH2 0x7B7 JUMP JUMPDEST PUSH1 0x40 MLOAD DUP1 SWAP2 SUB SWAP1 RETURN JUMPDEST CALLVALUE DUP1 ISZERO PUSH2 0xDD JUMPI PUSH0 DUP1 REVERT JUMPDEST POP PUSH2 0xE6 PUSH2 0x231 JUMP JUMPDEST PUSH1 0x40 MLOAD PUSH2 0xF3 SWAP2 SWAP1 PUSH2 0x7DF JUMP JUMPDEST PUSH1 0x40 MLOAD DUP1 SWAP2 SUB SWAP1 RETURN JUMPDEST PUSH2 0x116 PUSH1 0x4 DUP1 CALLDATASIZE SUB DUP2 ADD SWAP1 PUSH2 0x111 SWAP2 SWAP1 PUSH2 0x81B JUMP JUMPDEST PUSH2 0x254 JUMP JUMPDEST STOP JUMPDEST PUSH0 DUP1 SLOAD SWAP1 PUSH2 0x100 EXP SWAP1 DIV PUSH20 0xFFFFFFFFFFFFFFFFFFFFFFFFFFFFFFFFFFFFFFFF AND PUSH20 0xFFFFFFFFFFFFFFFFFFFFFFFFFFFFFFFFFFFFFFFF AND CALLER PUSH20 0xFFFFFFFFFFFFFFFFFFFFFFFFFFFFFFFFFFFFFFFF AND EQ PUSH2 0x1A5 JUMPI PUSH1 0x40 MLOAD PUSH32 0x8C379A000000000000000000000000000000000000000000000000000000000 DUP2 MSTORE PUSH1 0x4 ADD PUSH2 0x19C SWAP1 PUSH2 0x8A0 JUMP JUMPDEST PUSH1 0x40 MLOAD DUP1 SWAP2 SUB SWAP1 REVERT JUMPDEST PUSH0 DUP1 SLOAD SWAP1 PUSH2 0x100 EXP SWAP1 DIV PUSH20 0xFFFFFFFFFFFFFFFFFFFFFFFFFFFFFFFFFFFFFFFF AND PUSH20 0xFFFFFFFFFFFFFFFFFFFFFFFFFFFFFFFFFFFFFFFF AND PUSH2 0x8FC SELFBALANCE SWAP1 DUP2 ISZERO MUL SWAP1 PUSH1 0x40 MLOAD PUSH0 PUSH1 0x40 MLOAD DUP1 DUP4 SUB DUP2 DUP6 DUP9 DUP9 CALL SWAP4 POP POP POP POP ISZERO DUP1 ISZERO PUSH2 0x207 JUMPI RETURNDATASIZE PUSH0 DUP1 RETURNDATACOPY RETURNDATASIZE PUSH0 REVERT JUMPDEST POP JUMP JUMPDEST PUSH1 0x1 PUSH1 0x20 MSTORE DUP1 PUSH0 MSTORE PUSH1 0x40 PUSH0 KECCAK256 PUSH0 SWAP2 POP SLOAD SWAP1 PUSH2 0x100 EXP SWAP1 DIV PUSH1 0xFF AND DUP2 JUMP JUMPDEST PUSH6 0x5AF3107A4000 DUP2 JUMP JUMPDEST PUSH0 DUP1 SLOAD SWAP1 PUSH2 0x100 EXP SWAP1 DIV PUSH20 0xFFFFFFFFFFFFFFFFFFFFFFFFFFFFFFFFFFFFFFFF AND DUP2 JUMP JUMPDEST PUSH6 0x5AF3107A4000 CALLVALUE EQ PUSH2 0x29C JUMPI PUSH1 0x40 MLOAD PUSH32 0x8C379A000000000000000000000000000000000000000000000000000000000 DUP2 MSTORE PUSH1 0x4 ADD PUSH2 0x293 SWAP1 PUSH2 0x908 JUMP JUMPDEST PUSH1 0x40 MLOAD DUP1 SWAP2 SUB SWAP1 REVERT JUMPDEST DUP1 PUSH1 0x1 PUSH0 CALLER PUSH20 0xFFFFFFFFFFFFFFFFFFFFFFFFFFFFFFFFFFFFFFFF AND PUSH20 0xFFFFFFFFFFFFFFFFFFFFFFFFFFFFFFFFFFFFFFFF AND DUP2 MSTORE PUSH1 0x20 ADD SWAP1 DUP2 MSTORE PUSH1 0x20 ADD PUSH0 KECCAK256 PUSH0 PUSH2 0x100 EXP DUP2 SLOAD DUP2 PUSH1 0xFF MUL NOT AND SWAP1 DUP4 PUSH1 0x2 DUP2 GT ISZERO PUSH2 0x2FB JUMPI PUSH2 0x2FA PUSH2 0x713 JUMP JUMPDEST JUMPDEST MUL OR SWAP1 SSTORE POP PUSH0 PUSH2 0x309 PUSH2 0x634 JUMP JUMPDEST SWAP1 POP PUSH1 0x60 DUP2 PUSH1 0x2 DUP2 GT ISZERO PUSH2 0x320 JUMPI PUSH2 0x31F PUSH2 0x713 JUMP JUMPDEST JUMPDEST DUP4 PUSH1 0x2 DUP2 GT ISZERO PUSH2 0x333 JUMPI PUSH2 0x332 PUSH2 0x713 JUMP JUMPDEST JUMPDEST SUB PUSH2 0x3B9 JUMPI PUSH1 0x40 MLOAD DUP1 PUSH1 0x40 ADD PUSH1 0x40 MSTORE DUP1 PUSH1 0x3 DUP2 MSTORE PUSH1 0x20 ADD PUSH32 0x5469650000000000000000000000000000000000000000000000000000000000 DUP2 MSTORE POP SWAP1 POP CALLER PUSH20 0xFFFFFFFFFFFFFFFFFFFFFFFFFFFFFFFFFFFFFFFF AND PUSH2 0x8FC CALLVALUE SWAP1 DUP2 ISZERO MUL SWAP1 PUSH1 0x40 MLOAD PUSH0 PUSH1 0x40 MLOAD DUP1 DUP4 SUB DUP2 DUP6 DUP9 DUP9 CALL SWAP4 POP POP POP POP ISZERO DUP1 ISZERO PUSH2 0x3B3 JUMPI RETURNDATASIZE PUSH0 DUP1 RETURNDATACOPY RETURNDATASIZE PUSH0 REVERT JUMPDEST POP PUSH2 0x5DF JUMP JUMPDEST PUSH0 PUSH1 0x2 DUP2 GT ISZERO PUSH2 0x3CC JUMPI PUSH2 0x3CB PUSH2 0x713 JUMP JUMPDEST JUMPDEST DUP4 PUSH1 0x2 DUP2 GT ISZERO PUSH2 0x3DF JUMPI PUSH2 0x3DE PUSH2 0x713 JUMP JUMPDEST JUMPDEST EQ DUP1 ISZERO PUSH2 0x40F JUMPI POP PUSH1 0x2 DUP1 DUP2 GT ISZERO PUSH2 0x3FA JUMPI PUSH2 0x3F9 PUSH2 0x713 JUMP JUMPDEST JUMPDEST DUP3 PUSH1 0x2 DUP2 GT ISZERO PUSH2 0x40D JUMPI PUSH2 0x40C PUSH2 0x713 JUMP JUMPDEST JUMPDEST EQ JUMPDEST DUP1 PUSH2 0x46D JUMPI POP PUSH1 0x1 PUSH1 0x2 DUP2 GT ISZERO PUSH2 0x429 JUMPI PUSH2 0x428 PUSH2 0x713 JUMP JUMPDEST JUMPDEST DUP4 PUSH1 0x2 DUP2 GT ISZERO PUSH2 0x43C JUMPI PUSH2 0x43B PUSH2 0x713 JUMP JUMPDEST JUMPDEST EQ DUP1 ISZERO PUSH2 0x46C JUMPI POP PUSH0 PUSH1 0x2 DUP2 GT ISZERO PUSH2 0x457 JUMPI PUSH2 0x456 PUSH2 0x713 JUMP JUMPDEST JUMPDEST DUP3 PUSH1 0x2 DUP2 GT ISZERO PUSH2 0x46A JUMPI PUSH2 0x469 PUSH2 0x713 JUMP JUMPDEST JUMPDEST EQ JUMPDEST JUMPDEST DUP1 PUSH2 0x4CB JUMPI POP PUSH1 0x2 DUP1 DUP2 GT ISZERO PUSH2 0x486 JUMPI PUSH2 0x485 PUSH2 0x713 JUMP JUMPDEST JUMPDEST DUP4 PUSH1 0x2 DUP2 GT ISZERO PUSH2 0x499 JUMPI PUSH2 0x498 PUSH2 0x713 JUMP JUMPDEST JUMPDEST EQ DUP1 ISZERO PUSH2 0x4CA JUMPI POP PUSH1 0x1 PUSH1 0x2 DUP2 GT ISZERO PUSH2 0x4B5 JUMPI PUSH2 0x4B4 PUSH2 0x713 JUMP JUMPDEST JUMPDEST DUP3 PUSH1 0x2 DUP2 GT ISZERO PUSH2 0x4C8 JUMPI PUSH2 0x4C7 PUSH2 0x713 JUMP JUMPDEST JUMPDEST EQ JUMPDEST JUMPDEST ISZERO PUSH2 0x5A5 JUMPI PUSH1 0x40 MLOAD DUP1 PUSH1 0x40 ADD PUSH1 0x40 MSTORE DUP1 PUSH1 0x8 DUP2 MSTORE PUSH1 0x20 ADD PUSH32 0x596F752077696E21000000000000000000000000000000000000000000000000 DUP2 MSTORE POP SWAP1 POP PUSH0 PUSH1 0x2 CALLVALUE PUSH2 0x516 SWAP2 SWAP1 PUSH2 0x953 JUMP JUMPDEST SWAP1 POP DUP1 SELFBALANCE LT ISZERO PUSH2 0x55B JUMPI PUSH1 0x40 MLOAD PUSH32 0x8C379A000000000000000000000000000000000000000000000000000000000 DUP2 MSTORE PUSH1 0x4 ADD PUSH2 0x552 SWAP1 PUSH2 0x9DE JUMP JUMPDEST PUSH1 0x40 MLOAD DUP1 SWAP2 SUB SWAP1 REVERT JUMPDEST CALLER PUSH20 0xFFFFFFFFFFFFFFFFFFFFFFFFFFFFFFFFFFFFFFFF AND PUSH2 0x8FC DUP3 SWAP1 DUP2 ISZERO MUL SWAP1 PUSH1 0x40 MLOAD PUSH0 PUSH1 0x40 MLOAD DUP1 DUP4 SUB DUP2 DUP6 DUP9 DUP9 CALL SWAP4 POP POP POP POP ISZERO DUP1 ISZERO PUSH2 0x59E JUMPI RETURNDATASIZE PUSH0 DUP1 RETURNDATACOPY RETURNDATASIZE PUSH0 REVERT JUMPDEST POP POP PUSH2 0x5DE JUMP JUMPDEST PUSH1 0x40 MLOAD DUP1 PUSH1 0x40 ADD PUSH1 0x40 MSTORE DUP1 PUSH1 0x9 DUP2 MSTORE PUSH1 0x20 ADD PUSH32 0x596F75206C6F73652E0000000000000000000000000000000000000000000000 DUP2 MSTORE POP SWAP1 POP JUMPDEST JUMPDEST CALLER PUSH20 0xFFFFFFFFFFFFFFFFFFFFFFFFFFFFFFFFFFFFFFFF AND PUSH32 0x79E3A2F58098F8DE6628C96C4444E59E851C17FD85C2139CB27CA031F7246D7A DUP3 CALLVALUE PUSH1 0x40 MLOAD PUSH2 0x627 SWAP3 SWAP2 SWAP1 PUSH2 0xA5C JUMP JUMPDEST PUSH1 0x40 MLOAD DUP1 SWAP2 SUB SWAP1 LOG2 POP POP POP JUMP JUMPDEST PUSH0 DUP1 PUSH1 0x3 TIMESTAMP PREVRANDAO CALLER PUSH1 0x40 MLOAD PUSH1 0x20 ADD PUSH2 0x64D SWAP4 SWAP3 SWAP2 SWAP1 PUSH2 0xAEF JUMP JUMPDEST PUSH1 0x40 MLOAD PUSH1 0x20 DUP2 DUP4 SUB SUB DUP2 MSTORE SWAP1 PUSH1 0x40 MSTORE DUP1 MLOAD SWAP1 PUSH1 0x20 ADD KECCAK256 PUSH0 SHR PUSH2 0x66F SWAP2 SWAP1 PUSH2 0xB58 JUMP JUMPDEST SWAP1 POP DUP1 PUSH1 0x2 DUP2 GT ISZERO PUSH2 0x684 JUMPI PUSH2 0x683 PUSH2 0x713 JUMP JUMPDEST JUMPDEST SWAP2 POP POP SWAP1 JUMP JUMPDEST PUSH0 DUP1 REVERT JUMPDEST PUSH0 PUSH20 0xFFFFFFFFFFFFFFFFFFFFFFFFFFFFFFFFFFFFFFFF DUP3 AND SWAP1 POP SWAP2 SWAP1 POP JUMP JUMPDEST PUSH0 PUSH2 0x6B7 DUP3 PUSH2 0x68E JUMP JUMPDEST SWAP1 POP SWAP2 SWAP1 POP JUMP JUMPDEST PUSH2 0x6C7 DUP2 PUSH2 0x6AD JUMP JUMPDEST DUP2 EQ PUSH2 0x6D1 JUMPI PUSH0 DUP1 REVERT JUMPDEST POP JUMP JUMPDEST PUSH0 DUP2 CALLDATALOAD SWAP1 POP PUSH2 0x6E2 DUP2 PUSH2 0x6BE JUMP JUMPDEST SWAP3 SWAP2 POP POP JUMP JUMPDEST PUSH0 PUSH1 0x20 DUP3 DUP5 SUB SLT ISZERO PUSH2 0x6FD JUMPI PUSH2 0x6FC PUSH2 0x68A JUMP JUMPDEST JUMPDEST PUSH0 PUSH2 0x70A DUP5 DUP3 DUP6 ADD PUSH2 0x6D4 JUMP JUMPDEST SWAP2 POP POP SWAP3 SWAP2 POP POP JUMP JUMPDEST PUSH32 0x4E487B7100000000000000000000000000000000000000000000000000000000 PUSH0 MSTORE PUSH1 0x21 PUSH1 0x4 MSTORE PUSH1 0x24 PUSH0 REVERT JUMPDEST PUSH1 0x3 DUP2 LT PUSH2 0x751 JUMPI PUSH2 0x750 PUSH2 0x713 JUMP JUMPDEST JUMPDEST POP JUMP JUMPDEST PUSH0 DUP2 SWAP1 POP PUSH2 0x761 DUP3 PUSH2 0x740 JUMP JUMPDEST SWAP2 SWAP1 POP JUMP JUMPDEST PUSH0 PUSH2 0x770 DUP3 PUSH2 0x754 JUMP JUMPDEST SWAP1 POP SWAP2 SWAP1 POP JUMP JUMPDEST PUSH2 0x780 DUP2 PUSH2 0x766 JUMP JUMPDEST DUP3 MSTORE POP POP JUMP JUMPDEST PUSH0 PUSH1 0x20 DUP3 ADD SWAP1 POP PUSH2 0x799 PUSH0 DUP4 ADD DUP5 PUSH2 0x777 JUMP JUMPDEST SWAP3 SWAP2 POP POP JUMP JUMPDEST PUSH0 DUP2 SWAP1 POP SWAP2 SWAP1 POP JUMP JUMPDEST PUSH2 0x7B1 DUP2 PUSH2 0x79F JUMP JUMPDEST DUP3 MSTORE POP POP JUMP JUMPDEST PUSH0 PUSH1 0x20 DUP3 ADD SWAP1 POP PUSH2 0x7CA PUSH0 DUP4 ADD DUP5 PUSH2 0x7A8 JUMP JUMPDEST SWAP3 SWAP2 POP POP JUMP JUMPDEST PUSH2 0x7D9 DUP2 PUSH2 0x6AD JUMP JUMPDEST DUP3 MSTORE POP POP JUMP JUMPDEST PUSH0 PUSH1 0x20 DUP3 ADD SWAP1 POP PUSH2 0x7F2 PUSH0 DUP4 ADD DUP5 PUSH2 0x7D0 JUMP JUMPDEST SWAP3 SWAP2 POP POP JUMP JUMPDEST PUSH1 0x3 DUP2 LT PUSH2 0x804 JUMPI PUSH0 DUP1 REVERT JUMPDEST POP JUMP JUMPDEST PUSH0 DUP2 CALLDATALOAD SWAP1 POP PUSH2 0x815 DUP2 PUSH2 0x7F8 JUMP JUMPDEST SWAP3 SWAP2 POP POP JUMP JUMPDEST PUSH0 PUSH1 0x20 DUP3 DUP5 SUB SLT ISZERO PUSH2 0x830 JUMPI PUSH2 0x82F PUSH2 0x68A JUMP JUMPDEST JUMPDEST PUSH0 PUSH2 0x83D DUP5 DUP3 DUP6 ADD PUSH2 0x807 JUMP JUMPDEST SWAP2 POP POP SWAP3 SWAP2 POP POP JUMP JUMPDEST PUSH0 DUP3 DUP3 MSTORE PUSH1 0x20 DUP3 ADD SWAP1 POP SWAP3 SWAP2 POP POP JUMP JUMPDEST PUSH32 0x4F6E6C7920746865206F776E65722063616E2077697468647261770000000000 PUSH0 DUP3 ADD MSTORE POP JUMP JUMPDEST PUSH0 PUSH2 0x88A PUSH1 0x1B DUP4 PUSH2 0x846 JUMP JUMPDEST SWAP2 POP PUSH2 0x895 DUP3 PUSH2 0x856 JUMP JUMPDEST PUSH1 0x20 DUP3 ADD SWAP1 POP SWAP2 SWAP1 POP JUMP JUMPDEST PUSH0 PUSH1 0x20 DUP3 ADD SWAP1 POP DUP2 DUP2 SUB PUSH0 DUP4 ADD MSTORE PUSH2 0x8B7 DUP2 PUSH2 0x87E JUMP JUMPDEST SWAP1 POP SWAP2 SWAP1 POP JUMP JUMPDEST PUSH32 0x596F75206D757374206265742065786163746C7920302E303030312074424E42 PUSH0 DUP3 ADD MSTORE POP JUMP JUMPDEST PUSH0 PUSH2 0x8F2 PUSH1 0x20 DUP4 PUSH2 0x846 JUMP JUMPDEST SWAP2 POP PUSH2 0x8FD DUP3 PUSH2 0x8BE JUMP JUMPDEST PUSH1 0x20 DUP3 ADD SWAP1 POP SWAP2 SWAP1 POP JUMP JUMPDEST PUSH0 PUSH1 0x20 DUP3 ADD SWAP1 POP DUP2 DUP2 SUB PUSH0 DUP4 ADD MSTORE PUSH2 0x91F DUP2 PUSH2 0x8E6 JUMP JUMPDEST SWAP1 POP SWAP2 SWAP1 POP JUMP JUMPDEST PUSH32 0x4E487B7100000000000000000000000000000000000000000000000000000000 PUSH0 MSTORE PUSH1 0x11 PUSH1 0x4 MSTORE PUSH1 0x24 PUSH0 REVERT JUMPDEST PUSH0 PUSH2 0x95D DUP3 PUSH2 0x79F JUMP JUMPDEST SWAP2 POP PUSH2 0x968 DUP4 PUSH2 0x79F JUMP JUMPDEST SWAP3 POP DUP3 DUP3 MUL PUSH2 0x976 DUP2 PUSH2 0x79F JUMP JUMPDEST SWAP2 POP DUP3 DUP3 DIV DUP5 EQ DUP4 ISZERO OR PUSH2 0x98D JUMPI PUSH2 0x98C PUSH2 0x926 JUMP JUMPDEST JUMPDEST POP SWAP3 SWAP2 POP POP JUMP JUMPDEST PUSH32 0x4E6F7420656E6F7567682062616C616E636520696E20636F6E74726163740000 PUSH0 DUP3 ADD MSTORE POP JUMP JUMPDEST PUSH0 PUSH2 0x9C8 PUSH1 0x1E DUP4 PUSH2 0x846 JUMP JUMPDEST SWAP2 POP PUSH2 0x9D3 DUP3 PUSH2 0x994 JUMP JUMPDEST PUSH1 0x20 DUP3 ADD SWAP1 POP SWAP2 SWAP1 POP JUMP JUMPDEST PUSH0 PUSH1 0x20 DUP3 ADD SWAP1 POP DUP2 DUP2 SUB PUSH0 DUP4 ADD MSTORE PUSH2 0x9F5 DUP2 PUSH2 0x9BC JUMP JUMPDEST SWAP1 POP SWAP2 SWAP1 POP JUMP JUMPDEST PUSH0 DUP2 MLOAD SWAP1 POP SWAP2 SWAP1 POP JUMP JUMPDEST DUP3 DUP2 DUP4 MCOPY PUSH0 DUP4 DUP4 ADD MSTORE POP POP POP JUMP JUMPDEST PUSH0 PUSH1 0x1F NOT PUSH1 0x1F DUP4 ADD AND SWAP1 POP SWAP2 SWAP1 POP JUMP JUMPDEST PUSH0 PUSH2 0xA2E DUP3 PUSH2 0x9FC JUMP JUMPDEST PUSH2 0xA38 DUP2 DUP6 PUSH2 0x846 JUMP JUMPDEST SWAP4 POP PUSH2 0xA48 DUP2 DUP6 PUSH1 0x20 DUP7 ADD PUSH2 0xA06 JUMP JUMPDEST PUSH2 0xA51 DUP2 PUSH2 0xA14 JUMP JUMPDEST DUP5 ADD SWAP2 POP POP SWAP3 SWAP2 POP POP JUMP JUMPDEST PUSH0 PUSH1 0x40 DUP3 ADD SWAP1 POP DUP2 DUP2 SUB PUSH0 DUP4 ADD MSTORE PUSH2 0xA74 DUP2 DUP6 PUSH2 0xA24 JUMP JUMPDEST SWAP1 POP PUSH2 0xA83 PUSH1 0x20 DUP4 ADD DUP5 PUSH2 0x7A8 JUMP JUMPDEST SWAP4 SWAP3 POP POP POP JUMP JUMPDEST PUSH0 DUP2 SWAP1 POP SWAP2 SWAP1 POP JUMP JUMPDEST PUSH2 0xAA4 PUSH2 0xA9F DUP3 PUSH2 0x79F JUMP JUMPDEST PUSH2 0xA8A JUMP JUMPDEST DUP3 MSTORE POP POP JUMP JUMPDEST PUSH0 DUP2 PUSH1 0x60 SHL SWAP1 POP SWAP2 SWAP1 POP JUMP JUMPDEST PUSH0 PUSH2 0xAC0 DUP3 PUSH2 0xAAA JUMP JUMPDEST SWAP1 POP SWAP2 SWAP1 POP JUMP JUMPDEST PUSH0 PUSH2 0xAD1 DUP3 PUSH2 0xAB6 JUMP JUMPDEST SWAP1 POP SWAP2 SWAP1 POP JUMP JUMPDEST PUSH2 0xAE9 PUSH2 0xAE4 DUP3 PUSH2 0x6AD JUMP JUMPDEST PUSH2 0xAC7 JUMP JUMPDEST DUP3 MSTORE POP POP JUMP JUMPDEST PUSH0 PUSH2 0xAFA DUP3 DUP7 PUSH2 0xA93 JUMP JUMPDEST PUSH1 0x20 DUP3 ADD SWAP2 POP PUSH2 0xB0A DUP3 DUP6 PUSH2 0xA93 JUMP JUMPDEST PUSH1 0x20 DUP3 ADD SWAP2 POP PUSH2 0xB1A DUP3 DUP5 PUSH2 0xAD8 JUMP JUMPDEST PUSH1 0x14 DUP3 ADD SWAP2 POP DUP2 SWAP1 POP SWAP5 SWAP4 POP POP POP POP JUMP JUMPDEST PUSH32 0x4E487B7100000000000000000000000000000000000000000000000000000000 PUSH0 MSTORE PUSH1 0x12 PUSH1 0x4 MSTORE PUSH1 0x24 PUSH0 REVERT JUMPDEST PUSH0 PUSH2 0xB62 DUP3 PUSH2 0x79F JUMP JUMPDEST SWAP2 POP PUSH2 0xB6D DUP4 PUSH2 0x79F JUMP JUMPDEST SWAP3 POP DUP3 PUSH2 0xB7D JUMPI PUSH2 0xB7C PUSH2 0xB2B JUMP JUMPDEST JUMPDEST DUP3 DUP3 MOD SWAP1 POP SWAP3 SWAP2 POP POP JUMP INVALID LOG2 PUSH5 0x6970667358 0x22 SLT KECCAK256 RETURNDATACOPY CALLVALUE 0x2B PUSH32 0x9D56E22F05012A5AC4C69E34E5574E7C808722B981D43DB5EAD60A9964736F6C PUSH4 0x4300081A STOP CALLER "
		},
		"gasEstimates": {
			"creation": {
				"codeDepositCost": "601200",
				"executionCost": "24895",
				"totalCost": "626095"
			},
			"external": {
				"": "172",
				"MIN_BET()": "347",
				"owner()": "2549",
				"playGame(uint8)": "infinite",
				"playerMove(address)": "2921",
				"withdraw()": "infinite"
			},
			"internal": {
				"randomMove()": "infinite"
			}
		},
		"methodIdentifiers": {
			"MIN_BET()": "6540742f",
			"owner()": "8da5cb5b",
			"playGame(uint8)": "985d4ac3",
			"playerMove(address)": "48855919",
			"withdraw()": "3ccfd60b"
		}
	},
	"abi": [
		{
			"inputs": [],
			"stateMutability": "nonpayable",
			"type": "constructor"
		},
		{
			"anonymous": false,
			"inputs": [
				{
					"indexed": true,
					"internalType": "address",
					"name": "player",
					"type": "address"
				},
				{
					"indexed": false,
					"internalType": "string",
					"name": "result",
					"type": "string"
				},
				{
					"indexed": false,
					"internalType": "uint256",
					"name": "amount",
					"type": "uint256"
				}
			],
			"name": "GameResult",
			"type": "event"
		},
		{
			"stateMutability": "payable",
			"type": "fallback"
		},
		{
			"inputs": [],
			"name": "MIN_BET",
			"outputs": [
				{
					"internalType": "uint256",
					"name": "",
					"type": "uint256"
				}
			],
			"stateMutability": "view",
			"type": "function"
		},
		{
			"inputs": [],
			"name": "owner",
			"outputs": [
				{
					"internalType": "address",
					"name": "",
					"type": "address"
				}
			],
			"stateMutability": "view",
			"type": "function"
		},
		{
			"inputs": [
				{
					"internalType": "enum RockPaperScissors.Move",
					"name": "_playerMove",
					"type": "uint8"
				}
			],
			"name": "playGame",
			"outputs": [],
			"stateMutability": "payable",
			"type": "function"
		},
		{
			"inputs": [
				{
					"internalType": "address",
					"name": "",
					"type": "address"
				}
			],
			"name": "playerMove",
			"outputs": [
				{
					"internalType": "enum RockPaperScissors.Move",
					"name": "",
					"type": "uint8"
				}
			],
			"stateMutability": "view",
			"type": "function"
		},
		{
			"inputs": [],
			"name": "withdraw",
			"outputs": [],
			"stateMutability": "nonpayable",
			"type": "function"
		},
		{
			"stateMutability": "payable",
			"type": "receive"
		}
	]
}